{
  "_format": "hh-sol-artifact-1",
  "contractName": "ERC721Base",
  "sourceName": "contracts/ERC721Base.sol",
  "abi": [
    {
      "anonymous": false,
      "inputs": [
        {
          "indexed": true,
          "internalType": "address",
          "name": "owner",
          "type": "address"
        },
        {
          "indexed": true,
          "internalType": "address",
          "name": "approved",
          "type": "address"
        },
        {
          "indexed": true,
          "internalType": "uint256",
          "name": "tokenId",
          "type": "uint256"
        }
      ],
      "name": "Approval",
      "type": "event"
    },
    {
      "anonymous": false,
      "inputs": [
        {
          "indexed": true,
          "internalType": "address",
          "name": "owner",
          "type": "address"
        },
        {
          "indexed": true,
          "internalType": "address",
          "name": "operator",
          "type": "address"
        },
        {
          "indexed": false,
          "internalType": "bool",
          "name": "approved",
          "type": "bool"
        }
      ],
      "name": "ApprovalForAll",
      "type": "event"
    },
    {
      "anonymous": false,
      "inputs": [
        {
          "indexed": true,
          "internalType": "address",
          "name": "owner",
          "type": "address"
        },
        {
          "indexed": false,
          "internalType": "string",
          "name": "name",
          "type": "string"
        },
        {
          "indexed": false,
          "internalType": "string",
          "name": "symbol",
          "type": "string"
        },
        {
          "indexed": false,
          "internalType": "address",
          "name": "factory",
          "type": "address"
        }
      ],
      "name": "NFTminted",
      "type": "event"
    },
    {
      "anonymous": false,
      "inputs": [
        {
          "indexed": true,
          "internalType": "address",
          "name": "owner",
          "type": "address"
        },
        {
          "indexed": false,
          "internalType": "string",
          "name": "name",
          "type": "string"
        },
        {
          "indexed": false,
          "internalType": "string",
          "name": "symbol",
          "type": "string"
        },
        {
          "indexed": false,
          "internalType": "uint256",
          "name": "oldPrice",
          "type": "uint256"
        },
        {
          "indexed": false,
          "internalType": "uint256",
          "name": "newPrice",
          "type": "uint256"
        }
      ],
      "name": "NFTpriceUpdated",
      "type": "event"
    },
    {
      "anonymous": false,
      "inputs": [
        {
          "indexed": true,
          "internalType": "address",
          "name": "from",
          "type": "address"
        },
        {
          "indexed": true,
          "internalType": "address",
          "name": "to",
          "type": "address"
        },
        {
          "indexed": true,
          "internalType": "uint256",
          "name": "tokenId",
          "type": "uint256"
        }
      ],
      "name": "Transfer",
      "type": "event"
    },
    {
      "stateMutability": "payable",
      "type": "fallback"
    },
    {
      "inputs": [
        {
          "internalType": "address",
          "name": "to",
          "type": "address"
        },
        {
          "internalType": "uint256",
          "name": "tokenId",
          "type": "uint256"
        }
      ],
      "name": "approve",
      "outputs": [],
      "stateMutability": "nonpayable",
      "type": "function"
    },
    {
      "inputs": [
        {
          "internalType": "address",
          "name": "owner",
          "type": "address"
        }
      ],
      "name": "balanceOf",
      "outputs": [
        {
          "internalType": "uint256",
          "name": "",
          "type": "uint256"
        }
      ],
      "stateMutability": "view",
      "type": "function"
    },
    {
      "inputs": [
        {
          "internalType": "uint256",
          "name": "tokenId",
          "type": "uint256"
        }
      ],
      "name": "burn",
      "outputs": [],
      "stateMutability": "nonpayable",
      "type": "function"
    },
    {
      "inputs": [
        {
          "internalType": "uint256",
          "name": "tokenId",
          "type": "uint256"
        }
      ],
      "name": "buyNFT",
      "outputs": [],
      "stateMutability": "payable",
      "type": "function"
    },
    {
      "inputs": [
        {
          "internalType": "uint256",
          "name": "tokenId",
          "type": "uint256"
        }
      ],
      "name": "getApproved",
      "outputs": [
        {
          "internalType": "address",
          "name": "",
          "type": "address"
        }
      ],
      "stateMutability": "view",
      "type": "function"
    },
    {
      "inputs": [
        {
          "internalType": "uint256",
          "name": "tokenID",
          "type": "uint256"
        }
      ],
      "name": "getNFTOwner",
      "outputs": [
        {
          "internalType": "address",
          "name": "",
          "type": "address"
        }
      ],
      "stateMutability": "view",
      "type": "function"
    },
    {
      "inputs": [],
      "name": "getNFTname",
      "outputs": [
        {
          "internalType": "string",
          "name": "",
          "type": "string"
        }
      ],
      "stateMutability": "view",
      "type": "function"
    },
    {
      "inputs": [],
      "name": "getNFTprice",
      "outputs": [
        {
          "internalType": "uint256",
          "name": "",
          "type": "uint256"
        }
      ],
      "stateMutability": "view",
      "type": "function"
    },
    {
      "inputs": [],
      "name": "getNFTsymbol",
      "outputs": [
        {
          "internalType": "string",
          "name": "",
          "type": "string"
        }
      ],
      "stateMutability": "view",
      "type": "function"
    },
    {
      "inputs": [
        {
          "internalType": "address",
          "name": "owner",
          "type": "address"
        },
        {
          "internalType": "string",
          "name": "name",
          "type": "string"
        },
        {
          "internalType": "string",
          "name": "symbol",
          "type": "string"
        },
        {
          "internalType": "address",
          "name": "factory",
          "type": "address"
        },
        {
          "internalType": "string",
          "name": "_tokenURI",
          "type": "string"
        },
        {
          "internalType": "uint256",
          "name": "initialPrice",
          "type": "uint256"
        }
      ],
      "name": "initialize",
      "outputs": [
        {
          "internalType": "bool",
          "name": "",
          "type": "bool"
        }
      ],
      "stateMutability": "nonpayable",
      "type": "function"
    },
    {
      "inputs": [
        {
          "internalType": "address",
          "name": "owner",
          "type": "address"
        },
        {
          "internalType": "address",
          "name": "operator",
          "type": "address"
        }
      ],
      "name": "isApprovedForAll",
      "outputs": [
        {
          "internalType": "bool",
          "name": "",
          "type": "bool"
        }
      ],
      "stateMutability": "view",
      "type": "function"
    },
    {
      "inputs": [],
      "name": "name",
      "outputs": [
        {
          "internalType": "string",
          "name": "",
          "type": "string"
        }
      ],
      "stateMutability": "view",
      "type": "function"
    },
    {
      "inputs": [
        {
          "internalType": "uint256",
          "name": "tokenId",
          "type": "uint256"
        }
      ],
      "name": "ownerOf",
      "outputs": [
        {
          "internalType": "address",
          "name": "",
          "type": "address"
        }
      ],
      "stateMutability": "view",
      "type": "function"
    },
    {
      "inputs": [
        {
          "internalType": "address",
          "name": "from",
          "type": "address"
        },
        {
          "internalType": "address",
          "name": "to",
          "type": "address"
        },
        {
          "internalType": "uint256",
          "name": "tokenId",
          "type": "uint256"
        }
      ],
      "name": "safeTransferFrom",
      "outputs": [],
      "stateMutability": "nonpayable",
      "type": "function"
    },
    {
      "inputs": [
        {
          "internalType": "address",
          "name": "from",
          "type": "address"
        },
        {
          "internalType": "address",
          "name": "to",
          "type": "address"
        },
        {
          "internalType": "uint256",
          "name": "tokenId",
          "type": "uint256"
        },
        {
          "internalType": "bytes",
          "name": "data",
          "type": "bytes"
        }
      ],
      "name": "safeTransferFrom",
      "outputs": [],
      "stateMutability": "nonpayable",
      "type": "function"
    },
    {
      "inputs": [
        {
          "internalType": "address",
          "name": "operator",
          "type": "address"
        },
        {
          "internalType": "bool",
          "name": "approved",
          "type": "bool"
        }
      ],
      "name": "setApprovalForAll",
      "outputs": [],
      "stateMutability": "nonpayable",
      "type": "function"
    },
    {
      "inputs": [
        {
          "internalType": "uint256",
          "name": "price_",
          "type": "uint256"
        }
      ],
      "name": "setPrice",
      "outputs": [],
      "stateMutability": "nonpayable",
      "type": "function"
    },
    {
      "inputs": [
        {
          "internalType": "bytes4",
          "name": "interfaceId",
          "type": "bytes4"
        }
      ],
      "name": "supportsInterface",
      "outputs": [
        {
          "internalType": "bool",
          "name": "",
          "type": "bool"
        }
      ],
      "stateMutability": "view",
      "type": "function"
    },
    {
      "inputs": [],
      "name": "symbol",
      "outputs": [
        {
          "internalType": "string",
          "name": "",
          "type": "string"
        }
      ],
      "stateMutability": "view",
      "type": "function"
    },
    {
      "inputs": [
        {
          "internalType": "uint256",
          "name": "tokenId",
          "type": "uint256"
        }
      ],
      "name": "tokenURI",
      "outputs": [
        {
          "internalType": "string",
          "name": "",
          "type": "string"
        }
      ],
      "stateMutability": "view",
      "type": "function"
    },
    {
      "inputs": [
        {
          "internalType": "address",
          "name": "from",
          "type": "address"
        },
        {
          "internalType": "address",
          "name": "to",
          "type": "address"
        },
        {
          "internalType": "uint256",
          "name": "tokenId",
          "type": "uint256"
        }
      ],
      "name": "transferFrom",
      "outputs": [],
      "stateMutability": "nonpayable",
      "type": "function"
    },
    {
      "stateMutability": "payable",
      "type": "receive"
    }
  ],
  "bytecode": "0x60806040526000600c60006101000a81548160ff0219169083151502179055503480156200002c57600080fd5b506040518060400160405280600481526020017f42617365000000000000000000000000000000000000000000000000000000008152506040518060400160405280600a81526020017f4261736553796d626f6c000000000000000000000000000000000000000000008152508160009081620000aa91906200033f565b508060019081620000bc91906200033f565b50505062000426565b600081519050919050565b7f4e487b7100000000000000000000000000000000000000000000000000000000600052604160045260246000fd5b7f4e487b7100000000000000000000000000000000000000000000000000000000600052602260045260246000fd5b600060028204905060018216806200014757607f821691505b6020821081036200015d576200015c620000ff565b5b50919050565b60008190508160005260206000209050919050565b60006020601f8301049050919050565b600082821b905092915050565b600060088302620001c77fffffffffffffffffffffffffffffffffffffffffffffffffffffffffffffffff8262000188565b620001d3868362000188565b95508019841693508086168417925050509392505050565b6000819050919050565b6000819050919050565b6000620002206200021a6200021484620001eb565b620001f5565b620001eb565b9050919050565b6000819050919050565b6200023c83620001ff565b620002546200024b8262000227565b84845462000195565b825550505050565b600090565b6200026b6200025c565b6200027881848462000231565b505050565b5b81811015620002a0576200029460008262000261565b6001810190506200027e565b5050565b601f821115620002ef57620002b98162000163565b620002c48462000178565b81016020851015620002d4578190505b620002ec620002e38562000178565b8301826200027d565b50505b505050565b600082821c905092915050565b60006200031460001984600802620002f4565b1980831691505092915050565b60006200032f838362000301565b9150826002028217905092915050565b6200034a82620000c5565b67ffffffffffffffff811115620003665762000365620000d0565b5b6200037282546200012e565b6200037f828285620002a4565b600060209050601f831160018114620003b75760008415620003a2578287015190505b620003ae858262000321565b8655506200041e565b601f198416620003c78662000163565b60005b82811015620003f157848901518255600182019150602085019450602081019050620003ca565b868310156200041157848901516200040d601f89168262000301565b8355505b6001600288020188555050505b505050505050565b613e7c80620004366000396000f3fe60806040526004361061012e5760003560e01c806351ed8288116100ab578063a22cb4651161006f578063a22cb465146103fd578063b88d4fde14610426578063c87b56dd1461044f578063de9fdebe1461048c578063deaea2e3146104b7578063e985e9c5146104f457610135565b806351ed8288146103135780636352211e1461032f57806370a082311461036c57806391b7f5ed146103a957806395d89b41146103d257610135565b80631ff95da9116100f25780631ff95da91461024257806323b872dd1461026d5780633d38edac1461029657806342842e0e146102c157806342966c68146102ea57610135565b806301eaaea21461013757806301ffc9a71461017457806306fdde03146101b1578063081812fc146101dc578063095ea7b31461021957610135565b3661013557005b005b34801561014357600080fd5b5061015e60048036038101906101599190612810565b610531565b60405161016b9190612916565b60405180910390f35b34801561018057600080fd5b5061019b60048036038101906101969190612989565b61079b565b6040516101a89190612916565b60405180910390f35b3480156101bd57600080fd5b506101c661087d565b6040516101d39190612a35565b60405180910390f35b3480156101e857600080fd5b5061020360048036038101906101fe9190612a57565b61090f565b6040516102109190612a93565b60405180910390f35b34801561022557600080fd5b50610240600480360381019061023b9190612aae565b610955565b005b34801561024e57600080fd5b50610257610a6c565b6040516102649190612afd565b60405180910390f35b34801561027957600080fd5b50610294600480360381019061028f9190612b18565b610a76565b005b3480156102a257600080fd5b506102ab610ad6565b6040516102b89190612a35565b60405180910390f35b3480156102cd57600080fd5b506102e860048036038101906102e39190612b18565b610b68565b005b3480156102f657600080fd5b50610311600480360381019061030c9190612a57565b610b88565b005b61032d60048036038101906103289190612a57565b610be4565b005b34801561033b57600080fd5b5061035660048036038101906103519190612a57565b610e45565b6040516103639190612a93565b60405180910390f35b34801561037857600080fd5b50610393600480360381019061038e9190612b6b565b610ecb565b6040516103a09190612afd565b60405180910390f35b3480156103b557600080fd5b506103d060048036038101906103cb9190612a57565b610f82565b005b3480156103de57600080fd5b506103e761108b565b6040516103f49190612a35565b60405180910390f35b34801561040957600080fd5b50610424600480360381019061041f9190612bc4565b61111d565b005b34801561043257600080fd5b5061044d60048036038101906104489190612ca5565b611133565b005b34801561045b57600080fd5b5061047660048036038101906104719190612a57565b611195565b6040516104839190612a35565b60405180910390f35b34801561049857600080fd5b506104a16111a7565b6040516104ae9190612a35565b60405180910390f35b3480156104c357600080fd5b506104de60048036038101906104d99190612a57565b611239565b6040516104eb9190612a93565b60405180910390f35b34801561050057600080fd5b5061051b60048036038101906105169190612d28565b61128e565b6040516105289190612916565b60405180910390f35b60008073ffffffffffffffffffffffffffffffffffffffff168973ffffffffffffffffffffffffffffffffffffffff16036105a1576040517f08c379a000000000000000000000000000000000000000000000000000000000815260040161059890612dda565b60405180910390fd5b600c60009054906101000a900460ff16156105f1576040517f08c379a00000000000000000000000000000000000000000000000000000000081526004016105e890612e6c565b60405180910390fd5b8787600791826106029291906130a3565b508585600891826106149291906130a3565b5088600960006101000a81548173ffffffffffffffffffffffffffffffffffffffff021916908373ffffffffffffffffffffffffffffffffffffffff16021790555083600a60006101000a81548173ffffffffffffffffffffffffffffffffffffffff021916908373ffffffffffffffffffffffffffffffffffffffff16021790555081600b819055506106ca600960009054906101000a900473ffffffffffffffffffffffffffffffffffffffff1684611322565b6001600c60006101000a81548160ff021916908315150217905550600960009054906101000a900473ffffffffffffffffffffffffffffffffffffffff1673ffffffffffffffffffffffffffffffffffffffff167fd133d105f7b44671ec3a00c607590e7154adaafd2e0e9542b201374f2935851960076008600a60009054906101000a900473ffffffffffffffffffffffffffffffffffffffff16604051610775939291906131f7565b60405180910390a2600c60009054906101000a900460ff16905098975050505050505050565b60007f80ac58cd000000000000000000000000000000000000000000000000000000007bffffffffffffffffffffffffffffffffffffffffffffffffffffffff1916827bffffffffffffffffffffffffffffffffffffffffffffffffffffffff1916148061086657507f5b5e139f000000000000000000000000000000000000000000000000000000007bffffffffffffffffffffffffffffffffffffffffffffffffffffffff1916827bffffffffffffffffffffffffffffffffffffffffffffffffffffffff1916145b8061087657506108758261138c565b5b9050919050565b60606000805461088c90612ec6565b80601f01602080910402602001604051908101604052809291908181526020018280546108b890612ec6565b80156109055780601f106108da57610100808354040283529160200191610905565b820191906000526020600020905b8154815290600101906020018083116108e857829003601f168201915b5050505050905090565b600061091a826113f6565b6004600083815260200190815260200160002060009054906101000a900473ffffffffffffffffffffffffffffffffffffffff169050919050565b600061096082610e45565b90508073ffffffffffffffffffffffffffffffffffffffff168373ffffffffffffffffffffffffffffffffffffffff16036109d0576040517f08c379a00000000000000000000000000000000000000000000000000000000081526004016109c7906132ae565b60405180910390fd5b8073ffffffffffffffffffffffffffffffffffffffff166109ef611441565b73ffffffffffffffffffffffffffffffffffffffff161480610a1e5750610a1d81610a18611441565b61128e565b5b610a5d576040517f08c379a0000000000000000000000000000000000000000000000000000000008152600401610a5490613340565b60405180910390fd5b610a678383611449565b505050565b6000600b54905090565b610a87610a81611441565b82611502565b610ac6576040517f08c379a0000000000000000000000000000000000000000000000000000000008152600401610abd906133d2565b60405180910390fd5b610ad1838383611597565b505050565b606060078054610ae590612ec6565b80601f0160208091040260200160405190810160405280929190818152602001828054610b1190612ec6565b8015610b5e5780601f10610b3357610100808354040283529160200191610b5e565b820191906000526020600020905b815481529060010190602001808311610b4157829003601f168201915b5050505050905090565b610b8383838360405180602001604052806000815250611133565b505050565b610b99610b93611441565b82611502565b610bd8576040517f08c379a0000000000000000000000000000000000000000000000000000000008152600401610bcf906133d2565b60405180910390fd5b610be181611890565b50565b600073ffffffffffffffffffffffffffffffffffffffff163373ffffffffffffffffffffffffffffffffffffffff1603610c53576040517f08c379a0000000000000000000000000000000000000000000000000000000008152600401610c4a9061343e565b60405180910390fd5b600960009054906101000a900473ffffffffffffffffffffffffffffffffffffffff1673ffffffffffffffffffffffffffffffffffffffff163373ffffffffffffffffffffffffffffffffffffffff1603610ce3576040517f08c379a0000000000000000000000000000000000000000000000000000000008152600401610cda906134aa565b60405180910390fd5b60018114610d26576040517f08c379a0000000000000000000000000000000000000000000000000000000008152600401610d1d90613516565b60405180910390fd5b600b54341015610d6b576040517f08c379a0000000000000000000000000000000000000000000000000000000008152600401610d62906135a8565b60405180910390fd5b610d98600960009054906101000a900473ffffffffffffffffffffffffffffffffffffffff163383611597565b33600960006101000a81548173ffffffffffffffffffffffffffffffffffffffff021916908373ffffffffffffffffffffffffffffffffffffffff160217905550600960009054906101000a900473ffffffffffffffffffffffffffffffffffffffff1673ffffffffffffffffffffffffffffffffffffffff166108fc349081150290604051600060405180830381858888f19350505050158015610e41573d6000803e3d6000fd5b5050565b600080610e5183611913565b9050600073ffffffffffffffffffffffffffffffffffffffff168173ffffffffffffffffffffffffffffffffffffffff1603610ec2576040517f08c379a0000000000000000000000000000000000000000000000000000000008152600401610eb990613614565b60405180910390fd5b80915050919050565b60008073ffffffffffffffffffffffffffffffffffffffff168273ffffffffffffffffffffffffffffffffffffffff1603610f3b576040517f08c379a0000000000000000000000000000000000000000000000000000000008152600401610f32906136a6565b60405180910390fd5b600360008373ffffffffffffffffffffffffffffffffffffffff1673ffffffffffffffffffffffffffffffffffffffff168152602001908152602001600020549050919050565b610f8c6001610e45565b73ffffffffffffffffffffffffffffffffffffffff163373ffffffffffffffffffffffffffffffffffffffff1614610ff9576040517f08c379a0000000000000000000000000000000000000000000000000000000008152600401610ff090613712565b60405180910390fd5b600081101561103d576040517f08c379a00000000000000000000000000000000000000000000000000000000081526004016110349061377e565b60405180910390fd5b600b548103611081576040517f08c379a0000000000000000000000000000000000000000000000000000000008152600401611078906137ea565b60405180910390fd5b80600b8190555050565b60606001805461109a90612ec6565b80601f01602080910402602001604051908101604052809291908181526020018280546110c690612ec6565b80156111135780601f106110e857610100808354040283529160200191611113565b820191906000526020600020905b8154815290600101906020018083116110f657829003601f168201915b5050505050905090565b61112f611128611441565b8383611950565b5050565b61114461113e611441565b83611502565b611183576040517f08c379a000000000000000000000000000000000000000000000000000000000815260040161117a906133d2565b60405180910390fd5b61118f84848484611abc565b50505050565b60606111a082611b18565b9050919050565b6060600880546111b690612ec6565b80601f01602080910402602001604051908101604052809291908181526020018280546111e290612ec6565b801561122f5780601f106112045761010080835404028352916020019161122f565b820191906000526020600020905b81548152906001019060200180831161121257829003601f168201915b5050505050905090565b60006001821461127e576040517f08c379a000000000000000000000000000000000000000000000000000000000815260040161127590613856565b60405180910390fd5b61128782610e45565b9050919050565b6000600560008473ffffffffffffffffffffffffffffffffffffffff1673ffffffffffffffffffffffffffffffffffffffff16815260200190815260200160002060008373ffffffffffffffffffffffffffffffffffffffff1673ffffffffffffffffffffffffffffffffffffffff16815260200190815260200160002060009054906101000a900460ff16905092915050565b600c60009054906101000a900460ff1615611372576040517f08c379a000000000000000000000000000000000000000000000000000000000815260040161136990612e6c565b60405180910390fd5b61137d826001611c2a565b611388600182611c48565b5050565b60007f01ffc9a7000000000000000000000000000000000000000000000000000000007bffffffffffffffffffffffffffffffffffffffffffffffffffffffff1916827bffffffffffffffffffffffffffffffffffffffffffffffffffffffff1916149050919050565b6113ff81611cb5565b61143e576040517f08c379a000000000000000000000000000000000000000000000000000000000815260040161143590613614565b60405180910390fd5b50565b600033905090565b816004600083815260200190815260200160002060006101000a81548173ffffffffffffffffffffffffffffffffffffffff021916908373ffffffffffffffffffffffffffffffffffffffff160217905550808273ffffffffffffffffffffffffffffffffffffffff166114bc83610e45565b73ffffffffffffffffffffffffffffffffffffffff167f8c5be1e5ebec7d5bd14f71427d1e84f3dd0314c0f7b2291e5b200ac8c7c3b92560405160405180910390a45050565b60008061150e83610e45565b90508073ffffffffffffffffffffffffffffffffffffffff168473ffffffffffffffffffffffffffffffffffffffff161480611550575061154f818561128e565b5b8061158e57508373ffffffffffffffffffffffffffffffffffffffff166115768461090f565b73ffffffffffffffffffffffffffffffffffffffff16145b91505092915050565b8273ffffffffffffffffffffffffffffffffffffffff166115b782610e45565b73ffffffffffffffffffffffffffffffffffffffff161461160d576040517f08c379a0000000000000000000000000000000000000000000000000000000008152600401611604906138e8565b60405180910390fd5b600073ffffffffffffffffffffffffffffffffffffffff168273ffffffffffffffffffffffffffffffffffffffff160361167c576040517f08c379a00000000000000000000000000000000000000000000000000000000081526004016116739061397a565b60405180910390fd5b6116898383836001611cf6565b8273ffffffffffffffffffffffffffffffffffffffff166116a982610e45565b73ffffffffffffffffffffffffffffffffffffffff16146116ff576040517f08c379a00000000000000000000000000000000000000000000000000000000081526004016116f6906138e8565b60405180910390fd5b6004600082815260200190815260200160002060006101000a81549073ffffffffffffffffffffffffffffffffffffffff02191690556001600360008573ffffffffffffffffffffffffffffffffffffffff1673ffffffffffffffffffffffffffffffffffffffff168152602001908152602001600020600082825403925050819055506001600360008473ffffffffffffffffffffffffffffffffffffffff1673ffffffffffffffffffffffffffffffffffffffff16815260200190815260200160002060008282540192505081905550816002600083815260200190815260200160002060006101000a81548173ffffffffffffffffffffffffffffffffffffffff021916908373ffffffffffffffffffffffffffffffffffffffff160217905550808273ffffffffffffffffffffffffffffffffffffffff168473ffffffffffffffffffffffffffffffffffffffff167fddf252ad1be2c89b69c2b068fc378daa952ba7f163c4a11628f55a4df523b3ef60405160405180910390a461188b8383836001611cfc565b505050565b61189a6001610e45565b73ffffffffffffffffffffffffffffffffffffffff163373ffffffffffffffffffffffffffffffffffffffff1614611907576040517f08c379a00000000000000000000000000000000000000000000000000000000081526004016118fe90613712565b60405180910390fd5b61191081611d02565b50565b60006002600083815260200190815260200160002060009054906101000a900473ffffffffffffffffffffffffffffffffffffffff169050919050565b8173ffffffffffffffffffffffffffffffffffffffff168373ffffffffffffffffffffffffffffffffffffffff16036119be576040517f08c379a00000000000000000000000000000000000000000000000000000000081526004016119b5906139e6565b60405180910390fd5b80600560008573ffffffffffffffffffffffffffffffffffffffff1673ffffffffffffffffffffffffffffffffffffffff16815260200190815260200160002060008473ffffffffffffffffffffffffffffffffffffffff1673ffffffffffffffffffffffffffffffffffffffff16815260200190815260200160002060006101000a81548160ff0219169083151502179055508173ffffffffffffffffffffffffffffffffffffffff168373ffffffffffffffffffffffffffffffffffffffff167f17307eab39ab6107e8899845ad3d59bd9653f200f220920489ca2b5937696c3183604051611aaf9190612916565b60405180910390a3505050565b611ac7848484611597565b611ad384848484611d55565b611b12576040517f08c379a0000000000000000000000000000000000000000000000000000000008152600401611b0990613a78565b60405180910390fd5b50505050565b6060611b23826113f6565b6000600660008481526020019081526020016000208054611b4390612ec6565b80601f0160208091040260200160405190810160405280929190818152602001828054611b6f90612ec6565b8015611bbc5780601f10611b9157610100808354040283529160200191611bbc565b820191906000526020600020905b815481529060010190602001808311611b9f57829003601f168201915b505050505090506000611bcd611edc565b90506000815103611be2578192505050611c25565b600082511115611c17578082604051602001611bff929190613ad4565b60405160208183030381529060405292505050611c25565b611c2084611ef3565b925050505b919050565b611c44828260405180602001604052806000815250611f5b565b5050565b611c5182611cb5565b611c90576040517f08c379a0000000000000000000000000000000000000000000000000000000008152600401611c8790613b6a565b60405180910390fd5b80600660008481526020019081526020016000209081611cb09190613b8a565b505050565b60008073ffffffffffffffffffffffffffffffffffffffff16611cd783611913565b73ffffffffffffffffffffffffffffffffffffffff1614159050919050565b50505050565b50505050565b611d0b81611fb6565b6000600660008381526020019081526020016000208054611d2b90612ec6565b905014611d5257600660008281526020019081526020016000206000611d519190612565565b5b50565b6000611d768473ffffffffffffffffffffffffffffffffffffffff16612104565b15611ecf578373ffffffffffffffffffffffffffffffffffffffff1663150b7a02611d9f611441565b8786866040518563ffffffff1660e01b8152600401611dc19493929190613cb1565b6020604051808303816000875af1925050508015611dfd57506040513d601f19601f82011682018060405250810190611dfa9190613d12565b60015b611e7f573d8060008114611e2d576040519150601f19603f3d011682016040523d82523d6000602084013e611e32565b606091505b506000815103611e77576040517f08c379a0000000000000000000000000000000000000000000000000000000008152600401611e6e90613a78565b60405180910390fd5b805181602001fd5b63150b7a0260e01b7bffffffffffffffffffffffffffffffffffffffffffffffffffffffff1916817bffffffffffffffffffffffffffffffffffffffffffffffffffffffff191614915050611ed4565b600190505b949350505050565b606060405180602001604052806000815250905090565b6060611efe826113f6565b6000611f08611edc565b90506000815111611f285760405180602001604052806000815250611f53565b80611f3284612127565b604051602001611f43929190613ad4565b6040516020818303038152906040525b915050919050565b611f6583836121f5565b611f726000848484611d55565b611fb1576040517f08c379a0000000000000000000000000000000000000000000000000000000008152600401611fa890613a78565b60405180910390fd5b505050565b6000611fc182610e45565b9050611fd1816000846001611cf6565b611fda82610e45565b90506004600083815260200190815260200160002060006101000a81549073ffffffffffffffffffffffffffffffffffffffff02191690556001600360008373ffffffffffffffffffffffffffffffffffffffff1673ffffffffffffffffffffffffffffffffffffffff168152602001908152602001600020600082825403925050819055506002600083815260200190815260200160002060006101000a81549073ffffffffffffffffffffffffffffffffffffffff021916905581600073ffffffffffffffffffffffffffffffffffffffff168273ffffffffffffffffffffffffffffffffffffffff167fddf252ad1be2c89b69c2b068fc378daa952ba7f163c4a11628f55a4df523b3ef60405160405180910390a4612100816000846001611cfc565b5050565b6000808273ffffffffffffffffffffffffffffffffffffffff163b119050919050565b60606000600161213684612412565b01905060008167ffffffffffffffff811115612155576121546126af565b5b6040519080825280601f01601f1916602001820160405280156121875781602001600182028036833780820191505090505b509050600082602001820190505b6001156121ea578080600190039150507f3031323334353637383961626364656600000000000000000000000000000000600a86061a8153600a85816121de576121dd613d3f565b5b04945060008503612195575b819350505050919050565b600073ffffffffffffffffffffffffffffffffffffffff168273ffffffffffffffffffffffffffffffffffffffff1603612264576040517f08c379a000000000000000000000000000000000000000000000000000000000815260040161225b90613dba565b60405180910390fd5b61226d81611cb5565b156122ad576040517f08c379a00000000000000000000000000000000000000000000000000000000081526004016122a490613e26565b60405180910390fd5b6122bb600083836001611cf6565b6122c481611cb5565b15612304576040517f08c379a00000000000000000000000000000000000000000000000000000000081526004016122fb90613e26565b60405180910390fd5b6001600360008473ffffffffffffffffffffffffffffffffffffffff1673ffffffffffffffffffffffffffffffffffffffff16815260200190815260200160002060008282540192505081905550816002600083815260200190815260200160002060006101000a81548173ffffffffffffffffffffffffffffffffffffffff021916908373ffffffffffffffffffffffffffffffffffffffff160217905550808273ffffffffffffffffffffffffffffffffffffffff16600073ffffffffffffffffffffffffffffffffffffffff167fddf252ad1be2c89b69c2b068fc378daa952ba7f163c4a11628f55a4df523b3ef60405160405180910390a461240e600083836001611cfc565b5050565b600080600090507a184f03e93ff9f4daa797ed6e38ed64bf6a1f0100000000000000008310612470577a184f03e93ff9f4daa797ed6e38ed64bf6a1f010000000000000000838161246657612465613d3f565b5b0492506040810190505b6d04ee2d6d415b85acef810000000083106124ad576d04ee2d6d415b85acef810000000083816124a3576124a2613d3f565b5b0492506020810190505b662386f26fc1000083106124dc57662386f26fc1000083816124d2576124d1613d3f565b5b0492506010810190505b6305f5e1008310612505576305f5e10083816124fb576124fa613d3f565b5b0492506008810190505b612710831061252a5761271083816125205761251f613d3f565b5b0492506004810190505b6064831061254d576064838161254357612542613d3f565b5b0492506002810190505b600a831061255c576001810190505b80915050919050565b50805461257190612ec6565b6000825580601f1061258357506125a2565b601f0160209004906000526020600020908101906125a191906125a5565b5b50565b5b808211156125be5760008160009055506001016125a6565b5090565b6000604051905090565b600080fd5b600080fd5b600073ffffffffffffffffffffffffffffffffffffffff82169050919050565b6000612601826125d6565b9050919050565b612611816125f6565b811461261c57600080fd5b50565b60008135905061262e81612608565b92915050565b600080fd5b600080fd5b600080fd5b60008083601f84011261265957612658612634565b5b8235905067ffffffffffffffff81111561267657612675612639565b5b6020830191508360018202830111156126925761269161263e565b5b9250929050565b600080fd5b6000601f19601f8301169050919050565b7f4e487b7100000000000000000000000000000000000000000000000000000000600052604160045260246000fd5b6126e78261269e565b810181811067ffffffffffffffff82111715612706576127056126af565b5b80604052505050565b60006127196125c2565b905061272582826126de565b919050565b600067ffffffffffffffff821115612745576127446126af565b5b61274e8261269e565b9050602081019050919050565b82818337600083830152505050565b600061277d6127788461272a565b61270f565b90508281526020810184848401111561279957612798612699565b5b6127a484828561275b565b509392505050565b600082601f8301126127c1576127c0612634565b5b81356127d184826020860161276a565b91505092915050565b6000819050919050565b6127ed816127da565b81146127f857600080fd5b50565b60008135905061280a816127e4565b92915050565b60008060008060008060008060c0898b0312156128305761282f6125cc565b5b600061283e8b828c0161261f565b985050602089013567ffffffffffffffff81111561285f5761285e6125d1565b5b61286b8b828c01612643565b9750975050604089013567ffffffffffffffff81111561288e5761288d6125d1565b5b61289a8b828c01612643565b955095505060606128ad8b828c0161261f565b935050608089013567ffffffffffffffff8111156128ce576128cd6125d1565b5b6128da8b828c016127ac565b92505060a06128eb8b828c016127fb565b9150509295985092959890939650565b60008115159050919050565b612910816128fb565b82525050565b600060208201905061292b6000830184612907565b92915050565b60007fffffffff0000000000000000000000000000000000000000000000000000000082169050919050565b61296681612931565b811461297157600080fd5b50565b6000813590506129838161295d565b92915050565b60006020828403121561299f5761299e6125cc565b5b60006129ad84828501612974565b91505092915050565b600081519050919050565b600082825260208201905092915050565b60005b838110156129f05780820151818401526020810190506129d5565b60008484015250505050565b6000612a07826129b6565b612a1181856129c1565b9350612a218185602086016129d2565b612a2a8161269e565b840191505092915050565b60006020820190508181036000830152612a4f81846129fc565b905092915050565b600060208284031215612a6d57612a6c6125cc565b5b6000612a7b848285016127fb565b91505092915050565b612a8d816125f6565b82525050565b6000602082019050612aa86000830184612a84565b92915050565b60008060408385031215612ac557612ac46125cc565b5b6000612ad38582860161261f565b9250506020612ae4858286016127fb565b9150509250929050565b612af7816127da565b82525050565b6000602082019050612b126000830184612aee565b92915050565b600080600060608486031215612b3157612b306125cc565b5b6000612b3f8682870161261f565b9350506020612b508682870161261f565b9250506040612b61868287016127fb565b9150509250925092565b600060208284031215612b8157612b806125cc565b5b6000612b8f8482850161261f565b91505092915050565b612ba1816128fb565b8114612bac57600080fd5b50565b600081359050612bbe81612b98565b92915050565b60008060408385031215612bdb57612bda6125cc565b5b6000612be98582860161261f565b9250506020612bfa85828601612baf565b9150509250929050565b600067ffffffffffffffff821115612c1f57612c1e6126af565b5b612c288261269e565b9050602081019050919050565b6000612c48612c4384612c04565b61270f565b905082815260208101848484011115612c6457612c63612699565b5b612c6f84828561275b565b509392505050565b600082601f830112612c8c57612c8b612634565b5b8135612c9c848260208601612c35565b91505092915050565b60008060008060808587031215612cbf57612cbe6125cc565b5b6000612ccd8782880161261f565b9450506020612cde8782880161261f565b9350506040612cef878288016127fb565b925050606085013567ffffffffffffffff811115612d1057612d0f6125d1565b5b612d1c87828801612c77565b91505092959194509250565b60008060408385031215612d3f57612d3e6125cc565b5b6000612d4d8582860161261f565b9250506020612d5e8582860161261f565b9150509250929050565b7f496e76616c6964204e4654206f776e65723a207a65726f20616464726573732060008201527f6e6f742076616c69642100000000000000000000000000000000000000000000602082015250565b6000612dc4602a836129c1565b9150612dcf82612d68565b604082019050919050565b60006020820190508181036000830152612df381612db7565b9050919050565b7f45524337323120546f6b656e20696e7374616e636520616c726561647920696e60008201527f697469616c697a65640000000000000000000000000000000000000000000000602082015250565b6000612e566029836129c1565b9150612e6182612dfa565b604082019050919050565b60006020820190508181036000830152612e8581612e49565b9050919050565b600082905092915050565b7f4e487b7100000000000000000000000000000000000000000000000000000000600052602260045260246000fd5b60006002820490506001821680612ede57607f821691505b602082108103612ef157612ef0612e97565b5b50919050565b60008190508160005260206000209050919050565b60006020601f8301049050919050565b600082821b905092915050565b600060088302612f597fffffffffffffffffffffffffffffffffffffffffffffffffffffffffffffffff82612f1c565b612f638683612f1c565b95508019841693508086168417925050509392505050565b6000819050919050565b6000612fa0612f9b612f96846127da565b612f7b565b6127da565b9050919050565b6000819050919050565b612fba83612f85565b612fce612fc682612fa7565b848454612f29565b825550505050565b600090565b612fe3612fd6565b612fee818484612fb1565b505050565b5b8181101561301257613007600082612fdb565b600181019050612ff4565b5050565b601f8211156130575761302881612ef7565b61303184612f0c565b81016020851015613040578190505b61305461304c85612f0c565b830182612ff3565b50505b505050565b600082821c905092915050565b600061307a6000198460080261305c565b1980831691505092915050565b60006130938383613069565b9150826002028217905092915050565b6130ad8383612e8c565b67ffffffffffffffff8111156130c6576130c56126af565b5b6130d08254612ec6565b6130db828285613016565b6000601f83116001811461310a57600084156130f8578287013590505b6131028582613087565b86555061316a565b601f19841661311886612ef7565b60005b828110156131405784890135825560018201915060208501945060208101905061311b565b8683101561315d5784890135613159601f891682613069565b8355505b6001600288020188555050505b50505050505050565b6000815461318081612ec6565b61318a81866129c1565b945060018216600081146131a557600181146131bb576131ee565b60ff1983168652811515602002860193506131ee565b6131c485612ef7565b60005b838110156131e6578154818901526001820191506020810190506131c7565b808801955050505b50505092915050565b600060608201905081810360008301526132118186613173565b905081810360208301526132258185613173565b90506132346040830184612a84565b949350505050565b7f4552433732313a20617070726f76616c20746f2063757272656e74206f776e6560008201527f7200000000000000000000000000000000000000000000000000000000000000602082015250565b60006132986021836129c1565b91506132a38261323c565b604082019050919050565b600060208201905081810360008301526132c78161328b565b9050919050565b7f4552433732313a20617070726f76652063616c6c6572206973206e6f7420746f60008201527f6b656e206f776e6572206f7220617070726f76656420666f7220616c6c000000602082015250565b600061332a603d836129c1565b9150613335826132ce565b604082019050919050565b600060208201905081810360008301526133598161331d565b9050919050565b7f4552433732313a2063616c6c6572206973206e6f7420746f6b656e206f776e6560008201527f72206f7220617070726f76656400000000000000000000000000000000000000602082015250565b60006133bc602d836129c1565b91506133c782613360565b604082019050919050565b600060208201905081810360008301526133eb816133af565b9050919050565b7f496e76616c696420416464726573732830290000000000000000000000000000600082015250565b60006134286012836129c1565b9150613433826133f2565b602082019050919050565b600060208201905081810360008301526134578161341b565b9050919050565b7f43616e6e6f742073656c6c204e465420746f206d7973656c6600000000000000600082015250565b60006134946019836129c1565b915061349f8261345e565b602082019050919050565b600060208201905081810360008301526134c381613487565b9050919050565b7f43616e6e6f74207472616e73666572207468697320746f6b656e496400000000600082015250565b6000613500601c836129c1565b915061350b826134ca565b602082019050919050565b6000602082019050818103600083015261352f816134f3565b9050919050565b7f4e6f7420656e6f7567682066756e647320746f2062757920746869732061776560008201527f736f6d65204e4654000000000000000000000000000000000000000000000000602082015250565b60006135926028836129c1565b915061359d82613536565b604082019050919050565b600060208201905081810360008301526135c181613585565b9050919050565b7f4552433732313a20696e76616c696420746f6b656e2049440000000000000000600082015250565b60006135fe6018836129c1565b9150613609826135c8565b602082019050919050565b6000602082019050818103600083015261362d816135f1565b9050919050565b7f4552433732313a2061646472657373207a65726f206973206e6f74206120766160008201527f6c6964206f776e65720000000000000000000000000000000000000000000000602082015250565b60006136906029836129c1565b915061369b82613634565b604082019050919050565b600060208201905081810360008301526136bf81613683565b9050919050565b7f4e6f7420746865204e4654206f776e6572210000000000000000000000000000600082015250565b60006136fc6012836129c1565b9150613707826136c6565b602082019050919050565b6000602082019050818103600083015261372b816136ef565b9050919050565b7f4e465420636f73742063616e6e6f74206265206e656761746976650000000000600082015250565b6000613768601b836129c1565b915061377382613732565b602082019050919050565b600060208201905081810360008301526137978161375b565b9050919050565b7f4e657720707269636520657175616c20746f206f6c6420707269636521000000600082015250565b60006137d4601d836129c1565b91506137df8261379e565b602082019050919050565b60006020820190508181036000830152613803816137c7565b9050919050565b7f496e76616c6964204e465420746f6b656e204944000000000000000000000000600082015250565b60006138406014836129c1565b915061384b8261380a565b602082019050919050565b6000602082019050818103600083015261386f81613833565b9050919050565b7f4552433732313a207472616e736665722066726f6d20696e636f72726563742060008201527f6f776e6572000000000000000000000000000000000000000000000000000000602082015250565b60006138d26025836129c1565b91506138dd82613876565b604082019050919050565b60006020820190508181036000830152613901816138c5565b9050919050565b7f4552433732313a207472616e7366657220746f20746865207a65726f2061646460008201527f7265737300000000000000000000000000000000000000000000000000000000602082015250565b60006139646024836129c1565b915061396f82613908565b604082019050919050565b6000602082019050818103600083015261399381613957565b9050919050565b7f4552433732313a20617070726f766520746f2063616c6c657200000000000000600082015250565b60006139d06019836129c1565b91506139db8261399a565b602082019050919050565b600060208201905081810360008301526139ff816139c3565b9050919050565b7f4552433732313a207472616e7366657220746f206e6f6e20455243373231526560008201527f63656976657220696d706c656d656e7465720000000000000000000000000000602082015250565b6000613a626032836129c1565b9150613a6d82613a06565b604082019050919050565b60006020820190508181036000830152613a9181613a55565b9050919050565b600081905092915050565b6000613aae826129b6565b613ab88185613a98565b9350613ac88185602086016129d2565b80840191505092915050565b6000613ae08285613aa3565b9150613aec8284613aa3565b91508190509392505050565b7f45524337323155524953746f726167653a2055524920736574206f66206e6f6e60008201527f6578697374656e7420746f6b656e000000000000000000000000000000000000602082015250565b6000613b54602e836129c1565b9150613b5f82613af8565b604082019050919050565b60006020820190508181036000830152613b8381613b47565b9050919050565b613b93826129b6565b67ffffffffffffffff811115613bac57613bab6126af565b5b613bb68254612ec6565b613bc1828285613016565b600060209050601f831160018114613bf45760008415613be2578287015190505b613bec8582613087565b865550613c54565b601f198416613c0286612ef7565b60005b82811015613c2a57848901518255600182019150602085019450602081019050613c05565b86831015613c475784890151613c43601f891682613069565b8355505b6001600288020188555050505b505050505050565b600081519050919050565b600082825260208201905092915050565b6000613c8382613c5c565b613c8d8185613c67565b9350613c9d8185602086016129d2565b613ca68161269e565b840191505092915050565b6000608082019050613cc66000830187612a84565b613cd36020830186612a84565b613ce06040830185612aee565b8181036060830152613cf28184613c78565b905095945050505050565b600081519050613d0c8161295d565b92915050565b600060208284031215613d2857613d276125cc565b5b6000613d3684828501613cfd565b91505092915050565b7f4e487b7100000000000000000000000000000000000000000000000000000000600052601260045260246000fd5b7f4552433732313a206d696e7420746f20746865207a65726f2061646472657373600082015250565b6000613da46020836129c1565b9150613daf82613d6e565b602082019050919050565b60006020820190508181036000830152613dd381613d97565b9050919050565b7f4552433732313a20746f6b656e20616c7265616479206d696e74656400000000600082015250565b6000613e10601c836129c1565b9150613e1b82613dda565b602082019050919050565b60006020820190508181036000830152613e3f81613e03565b905091905056fea2646970667358221220f892b8ade69cc04c92295ecfe28fcf2590225f3f0f9afccc9dad479cd62eaa1f64736f6c63430008120033",
  "linkReferences": {},
  "deployedLinkReferences": {}
}