{
  "_format": "hh-sol-artifact-1",
  "contractName": "ERC721Base",
  "sourceName": "contracts/ERC721Base.sol",
  "abi": [
    {
      "anonymous": false,
      "inputs": [
        {
          "indexed": true,
          "internalType": "address",
          "name": "owner",
          "type": "address"
        },
        {
          "indexed": true,
          "internalType": "address",
          "name": "approved",
          "type": "address"
        },
        {
          "indexed": true,
          "internalType": "uint256",
          "name": "tokenId",
          "type": "uint256"
        }
      ],
      "name": "Approval",
      "type": "event"
    },
    {
      "anonymous": false,
      "inputs": [
        {
          "indexed": true,
          "internalType": "address",
          "name": "owner",
          "type": "address"
        },
        {
          "indexed": true,
          "internalType": "address",
          "name": "operator",
          "type": "address"
        },
        {
          "indexed": false,
          "internalType": "bool",
          "name": "approved",
          "type": "bool"
        }
      ],
      "name": "ApprovalForAll",
      "type": "event"
    },
    {
      "anonymous": false,
      "inputs": [
        {
          "indexed": false,
          "internalType": "uint8",
          "name": "version",
          "type": "uint8"
        }
      ],
      "name": "Initialized",
      "type": "event"
    },
    {
      "anonymous": false,
      "inputs": [
        {
          "indexed": true,
          "internalType": "address",
          "name": "owner",
          "type": "address"
        },
        {
          "indexed": false,
          "internalType": "string",
          "name": "name",
          "type": "string"
        },
        {
          "indexed": false,
          "internalType": "string",
          "name": "symbol",
          "type": "string"
        },
        {
          "indexed": false,
          "internalType": "address",
          "name": "factory",
          "type": "address"
        }
      ],
      "name": "NFTminted",
      "type": "event"
    },
    {
      "anonymous": false,
      "inputs": [
        {
          "indexed": true,
          "internalType": "address",
          "name": "owner",
          "type": "address"
        },
        {
          "indexed": false,
          "internalType": "string",
          "name": "name",
          "type": "string"
        },
        {
          "indexed": false,
          "internalType": "string",
          "name": "symbol",
          "type": "string"
        },
        {
          "indexed": false,
          "internalType": "uint256",
          "name": "oldPrice",
          "type": "uint256"
        },
        {
          "indexed": false,
          "internalType": "uint256",
          "name": "newPrice",
          "type": "uint256"
        }
      ],
      "name": "NFTpriceUpdated",
      "type": "event"
    },
    {
      "anonymous": false,
      "inputs": [
        {
          "indexed": false,
          "internalType": "string",
          "name": "name",
          "type": "string"
        },
        {
          "indexed": false,
          "internalType": "string",
          "name": "symbol",
          "type": "string"
        },
        {
          "indexed": false,
          "internalType": "address",
          "name": "owner",
          "type": "address"
        },
        {
          "indexed": false,
          "internalType": "address",
          "name": "erc721address_",
          "type": "address"
        },
        {
          "indexed": false,
          "internalType": "address",
          "name": "newERC20Address",
          "type": "address"
        },
        {
          "indexed": false,
          "internalType": "uint256",
          "name": "maxSupply_",
          "type": "uint256"
        },
        {
          "indexed": false,
          "internalType": "uint256",
          "name": "initialSupply_",
          "type": "uint256"
        }
      ],
      "name": "TokenCreated",
      "type": "event"
    },
    {
      "anonymous": false,
      "inputs": [
        {
          "indexed": true,
          "internalType": "address",
          "name": "from",
          "type": "address"
        },
        {
          "indexed": true,
          "internalType": "address",
          "name": "to",
          "type": "address"
        },
        {
          "indexed": true,
          "internalType": "uint256",
          "name": "tokenId",
          "type": "uint256"
        }
      ],
      "name": "Transfer",
      "type": "event"
    },
    {
      "stateMutability": "payable",
      "type": "fallback"
    },
    {
      "inputs": [
        {
          "internalType": "address",
          "name": "to",
          "type": "address"
        },
        {
          "internalType": "uint256",
          "name": "tokenId",
          "type": "uint256"
        }
      ],
      "name": "approve",
      "outputs": [],
      "stateMutability": "nonpayable",
      "type": "function"
    },
    {
      "inputs": [
        {
          "internalType": "address",
          "name": "owner",
          "type": "address"
        }
      ],
      "name": "balanceOf",
      "outputs": [
        {
          "internalType": "uint256",
          "name": "",
          "type": "uint256"
        }
      ],
      "stateMutability": "view",
      "type": "function"
    },
    {
      "inputs": [
        {
          "internalType": "uint256",
          "name": "tokenId",
          "type": "uint256"
        }
      ],
      "name": "burn",
      "outputs": [],
      "stateMutability": "nonpayable",
      "type": "function"
    },
    {
      "inputs": [
        {
          "internalType": "uint256",
          "name": "tokenId",
          "type": "uint256"
        }
      ],
      "name": "buyNFT",
      "outputs": [],
      "stateMutability": "payable",
      "type": "function"
    },
    {
      "inputs": [
        {
          "internalType": "string",
          "name": "name",
          "type": "string"
        },
        {
          "internalType": "string",
          "name": "symbol",
          "type": "string"
        },
        {
          "internalType": "uint256",
          "name": "maxSupply_",
          "type": "uint256"
        }
      ],
      "name": "createDataToken",
      "outputs": [
        {
          "internalType": "address",
          "name": "erc20token",
          "type": "address"
        }
      ],
      "stateMutability": "nonpayable",
      "type": "function"
    },
    {
      "inputs": [
        {
          "internalType": "uint256",
          "name": "tokenId",
          "type": "uint256"
        }
      ],
      "name": "getApproved",
      "outputs": [
        {
          "internalType": "address",
          "name": "",
          "type": "address"
        }
      ],
      "stateMutability": "view",
      "type": "function"
    },
    {
      "inputs": [],
      "name": "getDTaddress",
      "outputs": [
        {
          "internalType": "address",
          "name": "erc20address",
          "type": "address"
        }
      ],
      "stateMutability": "view",
      "type": "function"
    },
    {
      "inputs": [],
      "name": "getNFTowner",
      "outputs": [
        {
          "internalType": "address",
          "name": "owner",
          "type": "address"
        }
      ],
      "stateMutability": "view",
      "type": "function"
    },
    {
      "inputs": [],
      "name": "getNFTprice",
      "outputs": [
        {
          "internalType": "uint256",
          "name": "",
          "type": "uint256"
        }
      ],
      "stateMutability": "view",
      "type": "function"
    },
    {
      "inputs": [
        {
          "internalType": "address",
          "name": "owner",
          "type": "address"
        },
        {
          "internalType": "string",
          "name": "name_",
          "type": "string"
        },
        {
          "internalType": "string",
          "name": "symbol_",
          "type": "string"
        },
        {
          "internalType": "address",
          "name": "factory",
          "type": "address"
        },
        {
          "internalType": "string",
          "name": "_tokenURI",
          "type": "string"
        },
        {
          "internalType": "uint256",
          "name": "initialPrice",
          "type": "uint256"
        }
      ],
      "name": "initialize",
      "outputs": [
        {
          "internalType": "bool",
          "name": "",
          "type": "bool"
        }
      ],
      "stateMutability": "nonpayable",
      "type": "function"
    },
    {
      "inputs": [
        {
          "internalType": "address",
          "name": "owner",
          "type": "address"
        },
        {
          "internalType": "address",
          "name": "operator",
          "type": "address"
        }
      ],
      "name": "isApprovedForAll",
      "outputs": [
        {
          "internalType": "bool",
          "name": "",
          "type": "bool"
        }
      ],
      "stateMutability": "view",
      "type": "function"
    },
    {
      "inputs": [],
      "name": "name",
      "outputs": [
        {
          "internalType": "string",
          "name": "",
          "type": "string"
        }
      ],
      "stateMutability": "view",
      "type": "function"
    },
    {
      "inputs": [
        {
          "internalType": "uint256",
          "name": "tokenId",
          "type": "uint256"
        }
      ],
      "name": "ownerOf",
      "outputs": [
        {
          "internalType": "address",
          "name": "",
          "type": "address"
        }
      ],
      "stateMutability": "view",
      "type": "function"
    },
    {
      "inputs": [
        {
          "internalType": "address",
          "name": "from",
          "type": "address"
        },
        {
          "internalType": "address",
          "name": "to",
          "type": "address"
        },
        {
          "internalType": "uint256",
          "name": "tokenId",
          "type": "uint256"
        }
      ],
      "name": "safeTransferFrom",
      "outputs": [],
      "stateMutability": "nonpayable",
      "type": "function"
    },
    {
      "inputs": [
        {
          "internalType": "address",
          "name": "from",
          "type": "address"
        },
        {
          "internalType": "address",
          "name": "to",
          "type": "address"
        },
        {
          "internalType": "uint256",
          "name": "tokenId",
          "type": "uint256"
        },
        {
          "internalType": "bytes",
          "name": "data",
          "type": "bytes"
        }
      ],
      "name": "safeTransferFrom",
      "outputs": [],
      "stateMutability": "nonpayable",
      "type": "function"
    },
    {
      "inputs": [
        {
          "internalType": "address",
          "name": "operator",
          "type": "address"
        },
        {
          "internalType": "bool",
          "name": "approved",
          "type": "bool"
        }
      ],
      "name": "setApprovalForAll",
      "outputs": [],
      "stateMutability": "nonpayable",
      "type": "function"
    },
    {
      "inputs": [
        {
          "internalType": "uint256",
          "name": "price_",
          "type": "uint256"
        }
      ],
      "name": "setPrice",
      "outputs": [],
      "stateMutability": "nonpayable",
      "type": "function"
    },
    {
      "inputs": [
        {
          "internalType": "bytes4",
          "name": "interfaceId",
          "type": "bytes4"
        }
      ],
      "name": "supportsInterface",
      "outputs": [
        {
          "internalType": "bool",
          "name": "",
          "type": "bool"
        }
      ],
      "stateMutability": "view",
      "type": "function"
    },
    {
      "inputs": [],
      "name": "symbol",
      "outputs": [
        {
          "internalType": "string",
          "name": "",
          "type": "string"
        }
      ],
      "stateMutability": "view",
      "type": "function"
    },
    {
      "inputs": [
        {
          "internalType": "uint256",
          "name": "tokenId",
          "type": "uint256"
        }
      ],
      "name": "tokenURI",
      "outputs": [
        {
          "internalType": "string",
          "name": "",
          "type": "string"
        }
      ],
      "stateMutability": "view",
      "type": "function"
    },
    {
      "inputs": [
        {
          "internalType": "address",
          "name": "from",
          "type": "address"
        },
        {
          "internalType": "address",
          "name": "to",
          "type": "address"
        },
        {
          "internalType": "uint256",
          "name": "tokenId",
          "type": "uint256"
        }
      ],
      "name": "transferFrom",
      "outputs": [],
      "stateMutability": "nonpayable",
      "type": "function"
    },
    {
      "stateMutability": "payable",
      "type": "receive"
    }
  ],
  "bytecode": "0x608060405234801561001057600080fd5b50614321806100206000396000f3fe60806040526004361061012e5760003560e01c80635245f3bd116100ab57806395d89b411161006f57806395d89b41146103fd578063a22cb46514610428578063b88d4fde14610451578063bdf0ef591461047a578063c87b56dd146104b7578063e985e9c5146104f457610135565b80635245f3bd14610304578063601cc24b1461032f5780636352211e1461035a57806370a082311461039757806391b7f5ed146103d457610135565b80631ff95da9116100f25780631ff95da91461024257806323b872dd1461026d57806342842e0e1461029657806342966c68146102bf57806351ed8288146102e857610135565b806301eaaea21461013757806301ffc9a71461017457806306fdde03146101b1578063081812fc146101dc578063095ea7b31461021957610135565b3661013557005b005b34801561014357600080fd5b5061015e60048036038101906101599190612a82565b610531565b60405161016b9190612b88565b60405180910390f35b34801561018057600080fd5b5061019b60048036038101906101969190612bfb565b610856565b6040516101a89190612b88565b60405180910390f35b3480156101bd57600080fd5b506101c6610938565b6040516101d39190612ca7565b60405180910390f35b3480156101e857600080fd5b5061020360048036038101906101fe9190612cc9565b6109ca565b6040516102109190612d05565b60405180910390f35b34801561022557600080fd5b50610240600480360381019061023b9190612d20565b610a10565b005b34801561024e57600080fd5b50610257610b27565b6040516102649190612d6f565b60405180910390f35b34801561027957600080fd5b50610294600480360381019061028f9190612d8a565b610b31565b005b3480156102a257600080fd5b506102bd60048036038101906102b89190612d8a565b610b91565b005b3480156102cb57600080fd5b506102e660048036038101906102e19190612cc9565b610bb1565b005b61030260048036038101906102fd9190612cc9565b610c34565b005b34801561031057600080fd5b50610319610e00565b6040516103269190612d05565b60405180910390f35b34801561033b57600080fd5b50610344610e11565b6040516103519190612d05565b60405180910390f35b34801561036657600080fd5b50610381600480360381019061037c9190612cc9565b610e58565b60405161038e9190612d05565b60405180910390f35b3480156103a357600080fd5b506103be60048036038101906103b99190612ddd565b610ede565b6040516103cb9190612d6f565b60405180910390f35b3480156103e057600080fd5b506103fb60048036038101906103f69190612cc9565b610f95565b005b34801561040957600080fd5b50610412611113565b60405161041f9190612ca7565b60405180910390f35b34801561043457600080fd5b5061044f600480360381019061044a9190612e36565b6111a5565b005b34801561045d57600080fd5b5061047860048036038101906104739190612f17565b6111bb565b005b34801561048657600080fd5b506104a1600480360381019061049c9190612f9a565b61121d565b6040516104ae9190612d05565b60405180910390f35b3480156104c357600080fd5b506104de60048036038101906104d99190612cc9565b611437565b6040516104eb9190612ca7565b60405180910390f35b34801561050057600080fd5b5061051b6004803603810190610516919061302f565b611449565b6040516105289190612b88565b60405180910390f35b600080600060019054906101000a900460ff161590508080156105645750600160008054906101000a900460ff1660ff16105b806105915750610573306114dd565b1580156105905750600160008054906101000a900460ff1660ff16145b5b6105d0576040517f08c379a00000000000000000000000000000000000000000000000000000000081526004016105c7906130e1565b60405180910390fd5b60016000806101000a81548160ff021916908360ff160217905550801561060d576001600060016101000a81548160ff0219169083151502179055505b600073ffffffffffffffffffffffffffffffffffffffff168a73ffffffffffffffffffffffffffffffffffffffff160361067c576040517f08c379a000000000000000000000000000000000000000000000000000000000815260040161067390613173565b60405180910390fd5b61070e89898080601f016020809104026020016040519081016040528093929190818152602001838380828437600081840152601f19601f8201169050808301925050505050505088888080601f016020809104026020016040519081016040528093929190818152602001838380828437600081840152601f19601f82011690508083019250505050505050611500565b61071661155d565b8460c960006101000a81548173ffffffffffffffffffffffffffffffffffffffff021916908373ffffffffffffffffffffffffffffffffffffffff1602179055508260ca819055506107698a60016115ae565b6107746001856115cc565b8973ffffffffffffffffffffffffffffffffffffffff167fd133d105f7b44671ec3a00c607590e7154adaafd2e0e9542b201374f293585198a8a8a8a60c960009054906101000a900473ffffffffffffffffffffffffffffffffffffffff166040516107e49594939291906131c0565b60405180910390a26001915080156108495760008060016101000a81548160ff0219169083151502179055507f7f26b83ff96e1f2b6a682f133852f6798a09c465da95921460cefb38474024986001604051610840919061325b565b60405180910390a15b5098975050505050505050565b60007f80ac58cd000000000000000000000000000000000000000000000000000000007bffffffffffffffffffffffffffffffffffffffffffffffffffffffff1916827bffffffffffffffffffffffffffffffffffffffffffffffffffffffff1916148061092157507f5b5e139f000000000000000000000000000000000000000000000000000000007bffffffffffffffffffffffffffffffffffffffffffffffffffffffff1916827bffffffffffffffffffffffffffffffffffffffffffffffffffffffff1916145b80610931575061093082611639565b5b9050919050565b606060658054610947906132a5565b80601f0160208091040260200160405190810160405280929190818152602001828054610973906132a5565b80156109c05780601f10610995576101008083540402835291602001916109c0565b820191906000526020600020905b8154815290600101906020018083116109a357829003601f168201915b5050505050905090565b60006109d5826116a3565b6069600083815260200190815260200160002060009054906101000a900473ffffffffffffffffffffffffffffffffffffffff169050919050565b6000610a1b82610e58565b90508073ffffffffffffffffffffffffffffffffffffffff168373ffffffffffffffffffffffffffffffffffffffff1603610a8b576040517f08c379a0000000000000000000000000000000000000000000000000000000008152600401610a8290613348565b60405180910390fd5b8073ffffffffffffffffffffffffffffffffffffffff16610aaa6116ee565b73ffffffffffffffffffffffffffffffffffffffff161480610ad95750610ad881610ad36116ee565b611449565b5b610b18576040517f08c379a0000000000000000000000000000000000000000000000000000000008152600401610b0f906133da565b60405180910390fd5b610b2283836116f6565b505050565b600060ca54905090565b610b42610b3c6116ee565b826117af565b610b81576040517f08c379a0000000000000000000000000000000000000000000000000000000008152600401610b789061346c565b60405180910390fd5b610b8c838383611844565b505050565b610bac838383604051806020016040528060008152506111bb565b505050565b610bbb6001610e58565b73ffffffffffffffffffffffffffffffffffffffff163373ffffffffffffffffffffffffffffffffffffffff1614610c28576040517f08c379a0000000000000000000000000000000000000000000000000000000008152600401610c1f906134d8565b60405180910390fd5b610c3181611b3d565b50565b6000610c406001610e58565b9050600073ffffffffffffffffffffffffffffffffffffffff163373ffffffffffffffffffffffffffffffffffffffff1603610cb1576040517f08c379a0000000000000000000000000000000000000000000000000000000008152600401610ca890613544565b60405180910390fd5b8073ffffffffffffffffffffffffffffffffffffffff163373ffffffffffffffffffffffffffffffffffffffff1603610d1f576040517f08c379a0000000000000000000000000000000000000000000000000000000008152600401610d16906135b0565b60405180910390fd5b60018214610d62576040517f08c379a0000000000000000000000000000000000000000000000000000000008152600401610d599061361c565b60405180910390fd5b60ca54341015610da7576040517f08c379a0000000000000000000000000000000000000000000000000000000008152600401610d9e906136ae565b60405180910390fd5b610db2813384611844565b3390508073ffffffffffffffffffffffffffffffffffffffff166108fc349081150290604051600060405180830381858888f19350505050158015610dfb573d6000803e3d6000fd5b505050565b6000610e0c6001610e58565b905090565b600060cb600081548110610e2857610e276136ce565b5b9060005260206000200160009054906101000a900473ffffffffffffffffffffffffffffffffffffffff16905090565b600080610e6483611bc0565b9050600073ffffffffffffffffffffffffffffffffffffffff168173ffffffffffffffffffffffffffffffffffffffff1603610ed5576040517f08c379a0000000000000000000000000000000000000000000000000000000008152600401610ecc90613749565b60405180910390fd5b80915050919050565b60008073ffffffffffffffffffffffffffffffffffffffff168273ffffffffffffffffffffffffffffffffffffffff1603610f4e576040517f08c379a0000000000000000000000000000000000000000000000000000000008152600401610f45906137db565b60405180910390fd5b606860008373ffffffffffffffffffffffffffffffffffffffff1673ffffffffffffffffffffffffffffffffffffffff168152602001908152602001600020549050919050565b610f9f6001610e58565b73ffffffffffffffffffffffffffffffffffffffff163373ffffffffffffffffffffffffffffffffffffffff161461100c576040517f08c379a0000000000000000000000000000000000000000000000000000000008152600401611003906134d8565b60405180910390fd5b6000811015611050576040517f08c379a000000000000000000000000000000000000000000000000000000000815260040161104790613847565b60405180910390fd5b60ca548103611094576040517f08c379a000000000000000000000000000000000000000000000000000000000815260040161108b906138b3565b60405180910390fd5b600060ca5490508160ca819055506110ac6001610e58565b73ffffffffffffffffffffffffffffffffffffffff167ff3d52d1a60d7d0ee4e16f5b72624fa05a825fdd27ea948202af49055aaa6064b6110eb610938565b6110f3611113565b8460ca5460405161110794939291906138d3565b60405180910390a25050565b606060668054611122906132a5565b80601f016020809104026020016040519081016040528092919081815260200182805461114e906132a5565b801561119b5780601f106111705761010080835404028352916020019161119b565b820191906000526020600020905b81548152906001019060200180831161117e57829003601f168201915b5050505050905090565b6111b76111b06116ee565b8383611bfd565b5050565b6111cc6111c66116ee565b836117af565b61120b576040517f08c379a00000000000000000000000000000000000000000000000000000000081526004016112029061346c565b60405180910390fd5b61121784848484611d69565b50505050565b60006112296001610e58565b73ffffffffffffffffffffffffffffffffffffffff163373ffffffffffffffffffffffffffffffffffffffff1614611296576040517f08c379a000000000000000000000000000000000000000000000000000000000815260040161128d906134d8565b60405180910390fd5b600082116112d9576040517f08c379a00000000000000000000000000000000000000000000000000000000081526004016112d090613972565b60405180910390fd5b60c960009054906101000a900473ffffffffffffffffffffffffffffffffffffffff1673ffffffffffffffffffffffffffffffffffffffff166334cdb4cc8787878733886040518763ffffffff1660e01b815260040161133e96959493929190613992565b6020604051808303816000875af115801561135d573d6000803e3d6000fd5b505050506040513d601f19601f8201168201806040525081019061138191906139fe565b905060cb819080600181540180825580915050600190039060005260206000200160009091909190916101000a81548173ffffffffffffffffffffffffffffffffffffffff021916908373ffffffffffffffffffffffffffffffffffffffff1602179055507f7ded605ee5eb960743663ce41947ea21cc226061bd4323712c0cfd89117c5fc68686868633308760008a60405161142699989796959493929190613a66565b60405180910390a195945050505050565b606061144282611dc5565b9050919050565b6000606a60008473ffffffffffffffffffffffffffffffffffffffff1673ffffffffffffffffffffffffffffffffffffffff16815260200190815260200160002060008373ffffffffffffffffffffffffffffffffffffffff1673ffffffffffffffffffffffffffffffffffffffff16815260200190815260200160002060009054906101000a900460ff16905092915050565b6000808273ffffffffffffffffffffffffffffffffffffffff163b119050919050565b600060019054906101000a900460ff1661154f576040517f08c379a000000000000000000000000000000000000000000000000000000000815260040161154690613b59565b60405180910390fd5b6115598282611ed7565b5050565b600060019054906101000a900460ff166115ac576040517f08c379a00000000000000000000000000000000000000000000000000000000081526004016115a390613b59565b60405180910390fd5b565b6115c8828260405180602001604052806000815250611f4a565b5050565b6115d582611fa5565b611614576040517f08c379a000000000000000000000000000000000000000000000000000000000815260040161160b90613beb565b60405180910390fd5b806097600084815260200190815260200160002090816116349190613dad565b505050565b60007f01ffc9a7000000000000000000000000000000000000000000000000000000007bffffffffffffffffffffffffffffffffffffffffffffffffffffffff1916827bffffffffffffffffffffffffffffffffffffffffffffffffffffffff1916149050919050565b6116ac81611fa5565b6116eb576040517f08c379a00000000000000000000000000000000000000000000000000000000081526004016116e290613749565b60405180910390fd5b50565b600033905090565b816069600083815260200190815260200160002060006101000a81548173ffffffffffffffffffffffffffffffffffffffff021916908373ffffffffffffffffffffffffffffffffffffffff160217905550808273ffffffffffffffffffffffffffffffffffffffff1661176983610e58565b73ffffffffffffffffffffffffffffffffffffffff167f8c5be1e5ebec7d5bd14f71427d1e84f3dd0314c0f7b2291e5b200ac8c7c3b92560405160405180910390a45050565b6000806117bb83610e58565b90508073ffffffffffffffffffffffffffffffffffffffff168473ffffffffffffffffffffffffffffffffffffffff1614806117fd57506117fc8185611449565b5b8061183b57508373ffffffffffffffffffffffffffffffffffffffff16611823846109ca565b73ffffffffffffffffffffffffffffffffffffffff16145b91505092915050565b8273ffffffffffffffffffffffffffffffffffffffff1661186482610e58565b73ffffffffffffffffffffffffffffffffffffffff16146118ba576040517f08c379a00000000000000000000000000000000000000000000000000000000081526004016118b190613ef1565b60405180910390fd5b600073ffffffffffffffffffffffffffffffffffffffff168273ffffffffffffffffffffffffffffffffffffffff1603611929576040517f08c379a000000000000000000000000000000000000000000000000000000000815260040161192090613f83565b60405180910390fd5b6119368383836001611fe6565b8273ffffffffffffffffffffffffffffffffffffffff1661195682610e58565b73ffffffffffffffffffffffffffffffffffffffff16146119ac576040517f08c379a00000000000000000000000000000000000000000000000000000000081526004016119a390613ef1565b60405180910390fd5b6069600082815260200190815260200160002060006101000a81549073ffffffffffffffffffffffffffffffffffffffff02191690556001606860008573ffffffffffffffffffffffffffffffffffffffff1673ffffffffffffffffffffffffffffffffffffffff168152602001908152602001600020600082825403925050819055506001606860008473ffffffffffffffffffffffffffffffffffffffff1673ffffffffffffffffffffffffffffffffffffffff16815260200190815260200160002060008282540192505081905550816067600083815260200190815260200160002060006101000a81548173ffffffffffffffffffffffffffffffffffffffff021916908373ffffffffffffffffffffffffffffffffffffffff160217905550808273ffffffffffffffffffffffffffffffffffffffff168473ffffffffffffffffffffffffffffffffffffffff167fddf252ad1be2c89b69c2b068fc378daa952ba7f163c4a11628f55a4df523b3ef60405160405180910390a4611b388383836001611fec565b505050565b611b476001610e58565b73ffffffffffffffffffffffffffffffffffffffff163373ffffffffffffffffffffffffffffffffffffffff1614611bb4576040517f08c379a0000000000000000000000000000000000000000000000000000000008152600401611bab906134d8565b60405180910390fd5b611bbd81611ff2565b50565b60006067600083815260200190815260200160002060009054906101000a900473ffffffffffffffffffffffffffffffffffffffff169050919050565b8173ffffffffffffffffffffffffffffffffffffffff168373ffffffffffffffffffffffffffffffffffffffff1603611c6b576040517f08c379a0000000000000000000000000000000000000000000000000000000008152600401611c6290613fef565b60405180910390fd5b80606a60008573ffffffffffffffffffffffffffffffffffffffff1673ffffffffffffffffffffffffffffffffffffffff16815260200190815260200160002060008473ffffffffffffffffffffffffffffffffffffffff1673ffffffffffffffffffffffffffffffffffffffff16815260200190815260200160002060006101000a81548160ff0219169083151502179055508173ffffffffffffffffffffffffffffffffffffffff168373ffffffffffffffffffffffffffffffffffffffff167f17307eab39ab6107e8899845ad3d59bd9653f200f220920489ca2b5937696c3183604051611d5c9190612b88565b60405180910390a3505050565b611d74848484611844565b611d8084848484612045565b611dbf576040517f08c379a0000000000000000000000000000000000000000000000000000000008152600401611db690614081565b60405180910390fd5b50505050565b6060611dd0826116a3565b6000609760008481526020019081526020016000208054611df0906132a5565b80601f0160208091040260200160405190810160405280929190818152602001828054611e1c906132a5565b8015611e695780601f10611e3e57610100808354040283529160200191611e69565b820191906000526020600020905b815481529060010190602001808311611e4c57829003601f168201915b505050505090506000611e7a6121cc565b90506000815103611e8f578192505050611ed2565b600082511115611ec4578082604051602001611eac9291906140dd565b60405160208183030381529060405292505050611ed2565b611ecd846121e3565b925050505b919050565b600060019054906101000a900460ff16611f26576040517f08c379a0000000000000000000000000000000000000000000000000000000008152600401611f1d90613b59565b60405180910390fd5b8160659081611f359190613dad565b508060669081611f459190613dad565b505050565b611f54838361224b565b611f616000848484612045565b611fa0576040517f08c379a0000000000000000000000000000000000000000000000000000000008152600401611f9790614081565b60405180910390fd5b505050565b60008073ffffffffffffffffffffffffffffffffffffffff16611fc783611bc0565b73ffffffffffffffffffffffffffffffffffffffff1614159050919050565b50505050565b50505050565b611ffb81612468565b600060976000838152602001908152602001600020805461201b906132a5565b9050146120425760976000828152602001908152602001600020600061204191906127d7565b5b50565b60006120668473ffffffffffffffffffffffffffffffffffffffff166114dd565b156121bf578373ffffffffffffffffffffffffffffffffffffffff1663150b7a0261208f6116ee565b8786866040518563ffffffff1660e01b81526004016120b19493929190614156565b6020604051808303816000875af19250505080156120ed57506040513d601f19601f820116820180604052508101906120ea91906141b7565b60015b61216f573d806000811461211d576040519150601f19603f3d011682016040523d82523d6000602084013e612122565b606091505b506000815103612167576040517f08c379a000000000000000000000000000000000000000000000000000000000815260040161215e90614081565b60405180910390fd5b805181602001fd5b63150b7a0260e01b7bffffffffffffffffffffffffffffffffffffffffffffffffffffffff1916817bffffffffffffffffffffffffffffffffffffffffffffffffffffffff1916149150506121c4565b600190505b949350505050565b606060405180602001604052806000815250905090565b60606121ee826116a3565b60006121f86121cc565b905060008151116122185760405180602001604052806000815250612243565b80612222846125b6565b6040516020016122339291906140dd565b6040516020818303038152906040525b915050919050565b600073ffffffffffffffffffffffffffffffffffffffff168273ffffffffffffffffffffffffffffffffffffffff16036122ba576040517f08c379a00000000000000000000000000000000000000000000000000000000081526004016122b190614230565b60405180910390fd5b6122c381611fa5565b15612303576040517f08c379a00000000000000000000000000000000000000000000000000000000081526004016122fa9061429c565b60405180910390fd5b612311600083836001611fe6565b61231a81611fa5565b1561235a576040517f08c379a00000000000000000000000000000000000000000000000000000000081526004016123519061429c565b60405180910390fd5b6001606860008473ffffffffffffffffffffffffffffffffffffffff1673ffffffffffffffffffffffffffffffffffffffff16815260200190815260200160002060008282540192505081905550816067600083815260200190815260200160002060006101000a81548173ffffffffffffffffffffffffffffffffffffffff021916908373ffffffffffffffffffffffffffffffffffffffff160217905550808273ffffffffffffffffffffffffffffffffffffffff16600073ffffffffffffffffffffffffffffffffffffffff167fddf252ad1be2c89b69c2b068fc378daa952ba7f163c4a11628f55a4df523b3ef60405160405180910390a4612464600083836001611fec565b5050565b600061247382610e58565b9050612483816000846001611fe6565b61248c82610e58565b90506069600083815260200190815260200160002060006101000a81549073ffffffffffffffffffffffffffffffffffffffff02191690556001606860008373ffffffffffffffffffffffffffffffffffffffff1673ffffffffffffffffffffffffffffffffffffffff168152602001908152602001600020600082825403925050819055506067600083815260200190815260200160002060006101000a81549073ffffffffffffffffffffffffffffffffffffffff021916905581600073ffffffffffffffffffffffffffffffffffffffff168273ffffffffffffffffffffffffffffffffffffffff167fddf252ad1be2c89b69c2b068fc378daa952ba7f163c4a11628f55a4df523b3ef60405160405180910390a46125b2816000846001611fec565b5050565b6060600060016125c584612684565b01905060008167ffffffffffffffff8111156125e4576125e3612921565b5b6040519080825280601f01601f1916602001820160405280156126165781602001600182028036833780820191505090505b509050600082602001820190505b600115612679578080600190039150507f3031323334353637383961626364656600000000000000000000000000000000600a86061a8153600a858161266d5761266c6142bc565b5b04945060008503612624575b819350505050919050565b600080600090507a184f03e93ff9f4daa797ed6e38ed64bf6a1f01000000000000000083106126e2577a184f03e93ff9f4daa797ed6e38ed64bf6a1f01000000000000000083816126d8576126d76142bc565b5b0492506040810190505b6d04ee2d6d415b85acef8100000000831061271f576d04ee2d6d415b85acef81000000008381612715576127146142bc565b5b0492506020810190505b662386f26fc10000831061274e57662386f26fc100008381612744576127436142bc565b5b0492506010810190505b6305f5e1008310612777576305f5e100838161276d5761276c6142bc565b5b0492506008810190505b612710831061279c576127108381612792576127916142bc565b5b0492506004810190505b606483106127bf57606483816127b5576127b46142bc565b5b0492506002810190505b600a83106127ce576001810190505b80915050919050565b5080546127e3906132a5565b6000825580601f106127f55750612814565b601f0160209004906000526020600020908101906128139190612817565b5b50565b5b80821115612830576000816000905550600101612818565b5090565b6000604051905090565b600080fd5b600080fd5b600073ffffffffffffffffffffffffffffffffffffffff82169050919050565b600061287382612848565b9050919050565b61288381612868565b811461288e57600080fd5b50565b6000813590506128a08161287a565b92915050565b600080fd5b600080fd5b600080fd5b60008083601f8401126128cb576128ca6128a6565b5b8235905067ffffffffffffffff8111156128e8576128e76128ab565b5b602083019150836001820283011115612904576129036128b0565b5b9250929050565b600080fd5b6000601f19601f8301169050919050565b7f4e487b7100000000000000000000000000000000000000000000000000000000600052604160045260246000fd5b61295982612910565b810181811067ffffffffffffffff8211171561297857612977612921565b5b80604052505050565b600061298b612834565b90506129978282612950565b919050565b600067ffffffffffffffff8211156129b7576129b6612921565b5b6129c082612910565b9050602081019050919050565b82818337600083830152505050565b60006129ef6129ea8461299c565b612981565b905082815260208101848484011115612a0b57612a0a61290b565b5b612a168482856129cd565b509392505050565b600082601f830112612a3357612a326128a6565b5b8135612a438482602086016129dc565b91505092915050565b6000819050919050565b612a5f81612a4c565b8114612a6a57600080fd5b50565b600081359050612a7c81612a56565b92915050565b60008060008060008060008060c0898b031215612aa257612aa161283e565b5b6000612ab08b828c01612891565b985050602089013567ffffffffffffffff811115612ad157612ad0612843565b5b612add8b828c016128b5565b9750975050604089013567ffffffffffffffff811115612b0057612aff612843565b5b612b0c8b828c016128b5565b95509550506060612b1f8b828c01612891565b935050608089013567ffffffffffffffff811115612b4057612b3f612843565b5b612b4c8b828c01612a1e565b92505060a0612b5d8b828c01612a6d565b9150509295985092959890939650565b60008115159050919050565b612b8281612b6d565b82525050565b6000602082019050612b9d6000830184612b79565b92915050565b60007fffffffff0000000000000000000000000000000000000000000000000000000082169050919050565b612bd881612ba3565b8114612be357600080fd5b50565b600081359050612bf581612bcf565b92915050565b600060208284031215612c1157612c1061283e565b5b6000612c1f84828501612be6565b91505092915050565b600081519050919050565b600082825260208201905092915050565b60005b83811015612c62578082015181840152602081019050612c47565b60008484015250505050565b6000612c7982612c28565b612c838185612c33565b9350612c93818560208601612c44565b612c9c81612910565b840191505092915050565b60006020820190508181036000830152612cc18184612c6e565b905092915050565b600060208284031215612cdf57612cde61283e565b5b6000612ced84828501612a6d565b91505092915050565b612cff81612868565b82525050565b6000602082019050612d1a6000830184612cf6565b92915050565b60008060408385031215612d3757612d3661283e565b5b6000612d4585828601612891565b9250506020612d5685828601612a6d565b9150509250929050565b612d6981612a4c565b82525050565b6000602082019050612d846000830184612d60565b92915050565b600080600060608486031215612da357612da261283e565b5b6000612db186828701612891565b9350506020612dc286828701612891565b9250506040612dd386828701612a6d565b9150509250925092565b600060208284031215612df357612df261283e565b5b6000612e0184828501612891565b91505092915050565b612e1381612b6d565b8114612e1e57600080fd5b50565b600081359050612e3081612e0a565b92915050565b60008060408385031215612e4d57612e4c61283e565b5b6000612e5b85828601612891565b9250506020612e6c85828601612e21565b9150509250929050565b600067ffffffffffffffff821115612e9157612e90612921565b5b612e9a82612910565b9050602081019050919050565b6000612eba612eb584612e76565b612981565b905082815260208101848484011115612ed657612ed561290b565b5b612ee18482856129cd565b509392505050565b600082601f830112612efe57612efd6128a6565b5b8135612f0e848260208601612ea7565b91505092915050565b60008060008060808587031215612f3157612f3061283e565b5b6000612f3f87828801612891565b9450506020612f5087828801612891565b9350506040612f6187828801612a6d565b925050606085013567ffffffffffffffff811115612f8257612f81612843565b5b612f8e87828801612ee9565b91505092959194509250565b600080600080600060608688031215612fb657612fb561283e565b5b600086013567ffffffffffffffff811115612fd457612fd3612843565b5b612fe0888289016128b5565b9550955050602086013567ffffffffffffffff81111561300357613002612843565b5b61300f888289016128b5565b9350935050604061302288828901612a6d565b9150509295509295909350565b600080604083850312156130465761304561283e565b5b600061305485828601612891565b925050602061306585828601612891565b9150509250929050565b7f496e697469616c697a61626c653a20636f6e747261637420697320616c72656160008201527f647920696e697469616c697a6564000000000000000000000000000000000000602082015250565b60006130cb602e83612c33565b91506130d68261306f565b604082019050919050565b600060208201905081810360008301526130fa816130be565b9050919050565b7f496e76616c6964204e4654206f776e65723a207a65726f20616464726573732060008201527f6e6f742076616c69642100000000000000000000000000000000000000000000602082015250565b600061315d602a83612c33565b915061316882613101565b604082019050919050565b6000602082019050818103600083015261318c81613150565b9050919050565b600061319f8385612c33565b93506131ac8385846129cd565b6131b583612910565b840190509392505050565b600060608201905081810360008301526131db818789613193565b905081810360208301526131f0818587613193565b90506131ff6040830184612cf6565b9695505050505050565b6000819050919050565b600060ff82169050919050565b6000819050919050565b600061324561324061323b84613209565b613220565b613213565b9050919050565b6132558161322a565b82525050565b6000602082019050613270600083018461324c565b92915050565b7f4e487b7100000000000000000000000000000000000000000000000000000000600052602260045260246000fd5b600060028204905060018216806132bd57607f821691505b6020821081036132d0576132cf613276565b5b50919050565b7f4552433732313a20617070726f76616c20746f2063757272656e74206f776e6560008201527f7200000000000000000000000000000000000000000000000000000000000000602082015250565b6000613332602183612c33565b915061333d826132d6565b604082019050919050565b6000602082019050818103600083015261336181613325565b9050919050565b7f4552433732313a20617070726f76652063616c6c6572206973206e6f7420746f60008201527f6b656e206f776e6572206f7220617070726f76656420666f7220616c6c000000602082015250565b60006133c4603d83612c33565b91506133cf82613368565b604082019050919050565b600060208201905081810360008301526133f3816133b7565b9050919050565b7f4552433732313a2063616c6c6572206973206e6f7420746f6b656e206f776e6560008201527f72206f7220617070726f76656400000000000000000000000000000000000000602082015250565b6000613456602d83612c33565b9150613461826133fa565b604082019050919050565b6000602082019050818103600083015261348581613449565b9050919050565b7f4e6f7420746865204e4654206f776e6572210000000000000000000000000000600082015250565b60006134c2601283612c33565b91506134cd8261348c565b602082019050919050565b600060208201905081810360008301526134f1816134b5565b9050919050565b7f496e76616c696420416464726573732830290000000000000000000000000000600082015250565b600061352e601283612c33565b9150613539826134f8565b602082019050919050565b6000602082019050818103600083015261355d81613521565b9050919050565b7f43616e6e6f742073656c6c204e465420746f206d7973656c6600000000000000600082015250565b600061359a601983612c33565b91506135a582613564565b602082019050919050565b600060208201905081810360008301526135c98161358d565b9050919050565b7f43616e6e6f74207472616e73666572207468697320746f6b656e496400000000600082015250565b6000613606601c83612c33565b9150613611826135d0565b602082019050919050565b60006020820190508181036000830152613635816135f9565b9050919050565b7f4e6f7420656e6f7567682066756e647320746f2062757920746869732061776560008201527f736f6d65204e4654000000000000000000000000000000000000000000000000602082015250565b6000613698602883612c33565b91506136a38261363c565b604082019050919050565b600060208201905081810360008301526136c78161368b565b9050919050565b7f4e487b7100000000000000000000000000000000000000000000000000000000600052603260045260246000fd5b7f4552433732313a20696e76616c696420746f6b656e2049440000000000000000600082015250565b6000613733601883612c33565b915061373e826136fd565b602082019050919050565b6000602082019050818103600083015261376281613726565b9050919050565b7f4552433732313a2061646472657373207a65726f206973206e6f74206120766160008201527f6c6964206f776e65720000000000000000000000000000000000000000000000602082015250565b60006137c5602983612c33565b91506137d082613769565b604082019050919050565b600060208201905081810360008301526137f4816137b8565b9050919050565b7f4e465420636f73742063616e6e6f74206265206e656761746976650000000000600082015250565b6000613831601b83612c33565b915061383c826137fb565b602082019050919050565b6000602082019050818103600083015261386081613824565b9050919050565b7f4e657720707269636520657175616c20746f206f6c6420707269636521000000600082015250565b600061389d601d83612c33565b91506138a882613867565b602082019050919050565b600060208201905081810360008301526138cc81613890565b9050919050565b600060808201905081810360008301526138ed8187612c6e565b905081810360208301526139018186612c6e565b90506139106040830185612d60565b61391d6060830184612d60565b95945050505050565b7f43617020616e6420696e697469616c20737570706c79206e6f742076616c6964600082015250565b600061395c602083612c33565b915061396782613926565b602082019050919050565b6000602082019050818103600083015261398b8161394f565b9050919050565b600060808201905081810360008301526139ad81888a613193565b905081810360208301526139c2818688613193565b90506139d16040830185612cf6565b6139de6060830184612d60565b979650505050505050565b6000815190506139f88161287a565b92915050565b600060208284031215613a1457613a1361283e565b5b6000613a22848285016139e9565b91505092915050565b6000819050919050565b6000613a50613a4b613a4684613a2b565b613220565b612a4c565b9050919050565b613a6081613a35565b82525050565b600060e0820190508181036000830152613a81818b8d613193565b90508181036020830152613a9681898b613193565b9050613aa56040830188612cf6565b613ab26060830187612cf6565b613abf6080830186612cf6565b613acc60a0830185613a57565b613ad960c0830184612d60565b9a9950505050505050505050565b7f496e697469616c697a61626c653a20636f6e7472616374206973206e6f74206960008201527f6e697469616c697a696e67000000000000000000000000000000000000000000602082015250565b6000613b43602b83612c33565b9150613b4e82613ae7565b604082019050919050565b60006020820190508181036000830152613b7281613b36565b9050919050565b7f45524337323155524953746f726167653a2055524920736574206f66206e6f6e60008201527f6578697374656e7420746f6b656e000000000000000000000000000000000000602082015250565b6000613bd5602e83612c33565b9150613be082613b79565b604082019050919050565b60006020820190508181036000830152613c0481613bc8565b9050919050565b60008190508160005260206000209050919050565b60006020601f8301049050919050565b600082821b905092915050565b600060088302613c6d7fffffffffffffffffffffffffffffffffffffffffffffffffffffffffffffffff82613c30565b613c778683613c30565b95508019841693508086168417925050509392505050565b6000613caa613ca5613ca084612a4c565b613220565b612a4c565b9050919050565b6000819050919050565b613cc483613c8f565b613cd8613cd082613cb1565b848454613c3d565b825550505050565b600090565b613ced613ce0565b613cf8818484613cbb565b505050565b5b81811015613d1c57613d11600082613ce5565b600181019050613cfe565b5050565b601f821115613d6157613d3281613c0b565b613d3b84613c20565b81016020851015613d4a578190505b613d5e613d5685613c20565b830182613cfd565b50505b505050565b600082821c905092915050565b6000613d8460001984600802613d66565b1980831691505092915050565b6000613d9d8383613d73565b9150826002028217905092915050565b613db682612c28565b67ffffffffffffffff811115613dcf57613dce612921565b5b613dd982546132a5565b613de4828285613d20565b600060209050601f831160018114613e175760008415613e05578287015190505b613e0f8582613d91565b865550613e77565b601f198416613e2586613c0b565b60005b82811015613e4d57848901518255600182019150602085019450602081019050613e28565b86831015613e6a5784890151613e66601f891682613d73565b8355505b6001600288020188555050505b505050505050565b7f4552433732313a207472616e736665722066726f6d20696e636f72726563742060008201527f6f776e6572000000000000000000000000000000000000000000000000000000602082015250565b6000613edb602583612c33565b9150613ee682613e7f565b604082019050919050565b60006020820190508181036000830152613f0a81613ece565b9050919050565b7f4552433732313a207472616e7366657220746f20746865207a65726f2061646460008201527f7265737300000000000000000000000000000000000000000000000000000000602082015250565b6000613f6d602483612c33565b9150613f7882613f11565b604082019050919050565b60006020820190508181036000830152613f9c81613f60565b9050919050565b7f4552433732313a20617070726f766520746f2063616c6c657200000000000000600082015250565b6000613fd9601983612c33565b9150613fe482613fa3565b602082019050919050565b6000602082019050818103600083015261400881613fcc565b9050919050565b7f4552433732313a207472616e7366657220746f206e6f6e20455243373231526560008201527f63656976657220696d706c656d656e7465720000000000000000000000000000602082015250565b600061406b603283612c33565b91506140768261400f565b604082019050919050565b6000602082019050818103600083015261409a8161405e565b9050919050565b600081905092915050565b60006140b782612c28565b6140c181856140a1565b93506140d1818560208601612c44565b80840191505092915050565b60006140e982856140ac565b91506140f582846140ac565b91508190509392505050565b600081519050919050565b600082825260208201905092915050565b600061412882614101565b614132818561410c565b9350614142818560208601612c44565b61414b81612910565b840191505092915050565b600060808201905061416b6000830187612cf6565b6141786020830186612cf6565b6141856040830185612d60565b8181036060830152614197818461411d565b905095945050505050565b6000815190506141b181612bcf565b92915050565b6000602082840312156141cd576141cc61283e565b5b60006141db848285016141a2565b91505092915050565b7f4552433732313a206d696e7420746f20746865207a65726f2061646472657373600082015250565b600061421a602083612c33565b9150614225826141e4565b602082019050919050565b600060208201905081810360008301526142498161420d565b9050919050565b7f4552433732313a20746f6b656e20616c7265616479206d696e74656400000000600082015250565b6000614286601c83612c33565b915061429182614250565b602082019050919050565b600060208201905081810360008301526142b581614279565b9050919050565b7f4e487b7100000000000000000000000000000000000000000000000000000000600052601260045260246000fdfea2646970667358221220b695368f6618441274361452b84ee8a5a8e50c34efed59d40055623dee02d5ef64736f6c63430008120033",
  "linkReferences": {},
  "deployedLinkReferences": {}
}