{
  "_format": "hh-sol-artifact-1",
  "contractName": "ERC721Base",
  "sourceName": "contracts/ERC721Base.sol",
  "abi": [
    {
      "anonymous": false,
      "inputs": [
        {
          "indexed": true,
          "internalType": "address",
          "name": "owner",
          "type": "address"
        },
        {
          "indexed": true,
          "internalType": "address",
          "name": "approved",
          "type": "address"
        },
        {
          "indexed": true,
          "internalType": "uint256",
          "name": "tokenId",
          "type": "uint256"
        }
      ],
      "name": "Approval",
      "type": "event"
    },
    {
      "anonymous": false,
      "inputs": [
        {
          "indexed": true,
          "internalType": "address",
          "name": "owner",
          "type": "address"
        },
        {
          "indexed": true,
          "internalType": "address",
          "name": "operator",
          "type": "address"
        },
        {
          "indexed": false,
          "internalType": "bool",
          "name": "approved",
          "type": "bool"
        }
      ],
      "name": "ApprovalForAll",
      "type": "event"
    },
    {
      "anonymous": false,
      "inputs": [
        {
          "indexed": false,
          "internalType": "uint8",
          "name": "version",
          "type": "uint8"
        }
      ],
      "name": "Initialized",
      "type": "event"
    },
    {
      "anonymous": false,
      "inputs": [
        {
          "indexed": true,
          "internalType": "address",
          "name": "owner",
          "type": "address"
        },
        {
          "indexed": false,
          "internalType": "string",
          "name": "name",
          "type": "string"
        },
        {
          "indexed": false,
          "internalType": "string",
          "name": "symbol",
          "type": "string"
        },
        {
          "indexed": false,
          "internalType": "address",
          "name": "factory",
          "type": "address"
        }
      ],
      "name": "NFTminted",
      "type": "event"
    },
    {
      "anonymous": false,
      "inputs": [
        {
          "indexed": true,
          "internalType": "address",
          "name": "owner",
          "type": "address"
        },
        {
          "indexed": false,
          "internalType": "string",
          "name": "name",
          "type": "string"
        },
        {
          "indexed": false,
          "internalType": "string",
          "name": "symbol",
          "type": "string"
        },
        {
          "indexed": false,
          "internalType": "uint256",
          "name": "oldPrice",
          "type": "uint256"
        },
        {
          "indexed": false,
          "internalType": "uint256",
          "name": "newPrice",
          "type": "uint256"
        }
      ],
      "name": "NFTpriceUpdated",
      "type": "event"
    },
    {
      "anonymous": false,
      "inputs": [
        {
          "indexed": true,
          "internalType": "address",
          "name": "from",
          "type": "address"
        },
        {
          "indexed": true,
          "internalType": "address",
          "name": "to",
          "type": "address"
        },
        {
          "indexed": true,
          "internalType": "uint256",
          "name": "tokenId",
          "type": "uint256"
        }
      ],
      "name": "Transfer",
      "type": "event"
    },
    {
      "stateMutability": "payable",
      "type": "fallback"
    },
    {
      "inputs": [
        {
          "internalType": "address",
          "name": "to",
          "type": "address"
        },
        {
          "internalType": "uint256",
          "name": "tokenId",
          "type": "uint256"
        }
      ],
      "name": "approve",
      "outputs": [],
      "stateMutability": "nonpayable",
      "type": "function"
    },
    {
      "inputs": [
        {
          "internalType": "address",
          "name": "owner",
          "type": "address"
        }
      ],
      "name": "balanceOf",
      "outputs": [
        {
          "internalType": "uint256",
          "name": "",
          "type": "uint256"
        }
      ],
      "stateMutability": "view",
      "type": "function"
    },
    {
      "inputs": [
        {
          "internalType": "uint256",
          "name": "tokenId",
          "type": "uint256"
        }
      ],
      "name": "buyNFT",
      "outputs": [],
      "stateMutability": "payable",
      "type": "function"
    },
    {
      "inputs": [
        {
          "internalType": "uint256",
          "name": "tokenId",
          "type": "uint256"
        }
      ],
      "name": "getApproved",
      "outputs": [
        {
          "internalType": "address",
          "name": "",
          "type": "address"
        }
      ],
      "stateMutability": "view",
      "type": "function"
    },
    {
      "inputs": [],
      "name": "getNFTname",
      "outputs": [
        {
          "internalType": "string",
          "name": "",
          "type": "string"
        }
      ],
      "stateMutability": "view",
      "type": "function"
    },
    {
      "inputs": [],
      "name": "getNFTowner",
      "outputs": [
        {
          "internalType": "address",
          "name": "owner",
          "type": "address"
        }
      ],
      "stateMutability": "view",
      "type": "function"
    },
    {
      "inputs": [],
      "name": "getNFTprice",
      "outputs": [
        {
          "internalType": "uint256",
          "name": "",
          "type": "uint256"
        }
      ],
      "stateMutability": "view",
      "type": "function"
    },
    {
      "inputs": [],
      "name": "getNFTsymbol",
      "outputs": [
        {
          "internalType": "string",
          "name": "",
          "type": "string"
        }
      ],
      "stateMutability": "view",
      "type": "function"
    },
    {
      "inputs": [
        {
          "internalType": "address",
          "name": "owner",
          "type": "address"
        },
        {
          "internalType": "string",
          "name": "name",
          "type": "string"
        },
        {
          "internalType": "string",
          "name": "symbol",
          "type": "string"
        },
        {
          "internalType": "address",
          "name": "factory",
          "type": "address"
        },
        {
          "internalType": "string",
          "name": "_tokenURI",
          "type": "string"
        },
        {
          "internalType": "uint256",
          "name": "initialPrice",
          "type": "uint256"
        }
      ],
      "name": "initialize",
      "outputs": [],
      "stateMutability": "nonpayable",
      "type": "function"
    },
    {
      "inputs": [
        {
          "internalType": "address",
          "name": "owner",
          "type": "address"
        },
        {
          "internalType": "address",
          "name": "operator",
          "type": "address"
        }
      ],
      "name": "isApprovedForAll",
      "outputs": [
        {
          "internalType": "bool",
          "name": "",
          "type": "bool"
        }
      ],
      "stateMutability": "view",
      "type": "function"
    },
    {
      "inputs": [],
      "name": "name",
      "outputs": [
        {
          "internalType": "string",
          "name": "",
          "type": "string"
        }
      ],
      "stateMutability": "view",
      "type": "function"
    },
    {
      "inputs": [
        {
          "internalType": "uint256",
          "name": "tokenId",
          "type": "uint256"
        }
      ],
      "name": "ownerOf",
      "outputs": [
        {
          "internalType": "address",
          "name": "",
          "type": "address"
        }
      ],
      "stateMutability": "view",
      "type": "function"
    },
    {
      "inputs": [
        {
          "internalType": "address",
          "name": "from",
          "type": "address"
        },
        {
          "internalType": "address",
          "name": "to",
          "type": "address"
        },
        {
          "internalType": "uint256",
          "name": "tokenId",
          "type": "uint256"
        }
      ],
      "name": "safeTransferFrom",
      "outputs": [],
      "stateMutability": "nonpayable",
      "type": "function"
    },
    {
      "inputs": [
        {
          "internalType": "address",
          "name": "from",
          "type": "address"
        },
        {
          "internalType": "address",
          "name": "to",
          "type": "address"
        },
        {
          "internalType": "uint256",
          "name": "tokenId",
          "type": "uint256"
        },
        {
          "internalType": "bytes",
          "name": "data",
          "type": "bytes"
        }
      ],
      "name": "safeTransferFrom",
      "outputs": [],
      "stateMutability": "nonpayable",
      "type": "function"
    },
    {
      "inputs": [
        {
          "internalType": "address",
          "name": "operator",
          "type": "address"
        },
        {
          "internalType": "bool",
          "name": "approved",
          "type": "bool"
        }
      ],
      "name": "setApprovalForAll",
      "outputs": [],
      "stateMutability": "nonpayable",
      "type": "function"
    },
    {
      "inputs": [
        {
          "internalType": "uint256",
          "name": "price_",
          "type": "uint256"
        }
      ],
      "name": "setPrice",
      "outputs": [],
      "stateMutability": "nonpayable",
      "type": "function"
    },
    {
      "inputs": [
        {
          "internalType": "bytes4",
          "name": "interfaceId",
          "type": "bytes4"
        }
      ],
      "name": "supportsInterface",
      "outputs": [
        {
          "internalType": "bool",
          "name": "",
          "type": "bool"
        }
      ],
      "stateMutability": "view",
      "type": "function"
    },
    {
      "inputs": [],
      "name": "symbol",
      "outputs": [
        {
          "internalType": "string",
          "name": "",
          "type": "string"
        }
      ],
      "stateMutability": "view",
      "type": "function"
    },
    {
      "inputs": [
        {
          "internalType": "uint256",
          "name": "tokenId",
          "type": "uint256"
        }
      ],
      "name": "tokenURI",
      "outputs": [
        {
          "internalType": "string",
          "name": "",
          "type": "string"
        }
      ],
      "stateMutability": "view",
      "type": "function"
    },
    {
      "inputs": [
        {
          "internalType": "address",
          "name": "from",
          "type": "address"
        },
        {
          "internalType": "address",
          "name": "to",
          "type": "address"
        },
        {
          "internalType": "uint256",
          "name": "tokenId",
          "type": "uint256"
        }
      ],
      "name": "transferFrom",
      "outputs": [],
      "stateMutability": "nonpayable",
      "type": "function"
    },
    {
      "stateMutability": "payable",
      "type": "receive"
    }
  ],
  "bytecode": "0x608060405234801561001057600080fd5b50613aa8806100206000396000f3fe6080604052600436106101235760003560e01c80635245f3bd116100a0578063a22cb46511610064578063a22cb465146103e0578063b88d4fde14610409578063c87b56dd14610432578063de9fdebe1461046f578063e985e9c51461049a5761012a565b80635245f3bd146102e75780636352211e1461031257806370a082311461034f57806391b7f5ed1461038c57806395d89b41146103b55761012a565b80631ff95da9116100e75780631ff95da91461022357806323b872dd1461024e5780633d38edac1461027757806342842e0e146102a257806351ed8288146102cb5761012a565b806301eaaea21461012c57806301ffc9a71461015557806306fdde0314610192578063081812fc146101bd578063095ea7b3146101fa5761012a565b3661012a57005b005b34801561013857600080fd5b50610153600480360381019061014e919061248e565b6104d7565b005b34801561016157600080fd5b5061017c600480360381019061017791906125d1565b6107e0565b6040516101899190612619565b60405180910390f35b34801561019e57600080fd5b506101a76108c2565b6040516101b491906126b3565b60405180910390f35b3480156101c957600080fd5b506101e460048036038101906101df91906126d5565b610954565b6040516101f19190612711565b60405180910390f35b34801561020657600080fd5b50610221600480360381019061021c919061272c565b61099a565b005b34801561022f57600080fd5b50610238610ab1565b604051610245919061277b565b60405180910390f35b34801561025a57600080fd5b5061027560048036038101906102709190612796565b610abb565b005b34801561028357600080fd5b5061028c610b1b565b60405161029991906126b3565b60405180910390f35b3480156102ae57600080fd5b506102c960048036038101906102c49190612796565b610b2a565b005b6102e560048036038101906102e091906126d5565b610b4a565b005b3480156102f357600080fd5b506102fc610d16565b6040516103099190612711565b60405180910390f35b34801561031e57600080fd5b50610339600480360381019061033491906126d5565b610d27565b6040516103469190612711565b60405180910390f35b34801561035b57600080fd5b50610376600480360381019061037191906127e9565b610dad565b604051610383919061277b565b60405180910390f35b34801561039857600080fd5b506103b360048036038101906103ae91906126d5565b610e64565b005b3480156103c157600080fd5b506103ca610fe2565b6040516103d791906126b3565b60405180910390f35b3480156103ec57600080fd5b5061040760048036038101906104029190612842565b611074565b005b34801561041557600080fd5b50610430600480360381019061042b9190612923565b61108a565b005b34801561043e57600080fd5b50610459600480360381019061045491906126d5565b6110ec565b60405161046691906126b3565b60405180910390f35b34801561047b57600080fd5b506104846110fe565b60405161049191906126b3565b60405180910390f35b3480156104a657600080fd5b506104c160048036038101906104bc91906129a6565b61110d565b6040516104ce9190612619565b60405180910390f35b60008060019054906101000a900460ff161590508080156105085750600160008054906101000a900460ff1660ff16105b806105355750610517306111a1565b1580156105345750600160008054906101000a900460ff1660ff16145b5b610574576040517f08c379a000000000000000000000000000000000000000000000000000000000815260040161056b90612a58565b60405180910390fd5b60016000806101000a81548160ff021916908360ff16021790555080156105b1576001600060016101000a81548160ff0219169083151502179055505b600073ffffffffffffffffffffffffffffffffffffffff168973ffffffffffffffffffffffffffffffffffffffff1603610620576040517f08c379a000000000000000000000000000000000000000000000000000000000815260040161061790612aea565b60405180910390fd5b6106b288888080601f016020809104026020016040519081016040528093929190818152602001838380828437600081840152601f19601f8201169050808301925050505050505087878080601f016020809104026020016040519081016040528093929190818152602001838380828437600081840152601f19601f820116905080830192505050505050506111c4565b8360c960006101000a81548173ffffffffffffffffffffffffffffffffffffffff021916908373ffffffffffffffffffffffffffffffffffffffff1602179055508160ca819055506107048984611221565b8873ffffffffffffffffffffffffffffffffffffffff167fd133d105f7b44671ec3a00c607590e7154adaafd2e0e9542b201374f293585198989898960c960009054906101000a900473ffffffffffffffffffffffffffffffffffffffff16604051610774959493929190612b37565b60405180910390a280156107d55760008060016101000a81548160ff0219169083151502179055507f7f26b83ff96e1f2b6a682f133852f6798a09c465da95921460cefb384740249860016040516107cc9190612bd2565b60405180910390a15b505050505050505050565b60007f80ac58cd000000000000000000000000000000000000000000000000000000007bffffffffffffffffffffffffffffffffffffffffffffffffffffffff1916827bffffffffffffffffffffffffffffffffffffffffffffffffffffffff191614806108ab57507f5b5e139f000000000000000000000000000000000000000000000000000000007bffffffffffffffffffffffffffffffffffffffffffffffffffffffff1916827bffffffffffffffffffffffffffffffffffffffffffffffffffffffff1916145b806108bb57506108ba8261123b565b5b9050919050565b6060606580546108d190612c1c565b80601f01602080910402602001604051908101604052809291908181526020018280546108fd90612c1c565b801561094a5780601f1061091f5761010080835404028352916020019161094a565b820191906000526020600020905b81548152906001019060200180831161092d57829003601f168201915b5050505050905090565b600061095f826112a5565b6069600083815260200190815260200160002060009054906101000a900473ffffffffffffffffffffffffffffffffffffffff169050919050565b60006109a582610d27565b90508073ffffffffffffffffffffffffffffffffffffffff168373ffffffffffffffffffffffffffffffffffffffff1603610a15576040517f08c379a0000000000000000000000000000000000000000000000000000000008152600401610a0c90612cbf565b60405180910390fd5b8073ffffffffffffffffffffffffffffffffffffffff16610a346112f0565b73ffffffffffffffffffffffffffffffffffffffff161480610a635750610a6281610a5d6112f0565b61110d565b5b610aa2576040517f08c379a0000000000000000000000000000000000000000000000000000000008152600401610a9990612d51565b60405180910390fd5b610aac83836112f8565b505050565b600060ca54905090565b610acc610ac66112f0565b826113b1565b610b0b576040517f08c379a0000000000000000000000000000000000000000000000000000000008152600401610b0290612de3565b60405180910390fd5b610b16838383611446565b505050565b6060610b256108c2565b905090565b610b458383836040518060200160405280600081525061108a565b505050565b6000610b566001610d27565b9050600073ffffffffffffffffffffffffffffffffffffffff163373ffffffffffffffffffffffffffffffffffffffff1603610bc7576040517f08c379a0000000000000000000000000000000000000000000000000000000008152600401610bbe90612e4f565b60405180910390fd5b8073ffffffffffffffffffffffffffffffffffffffff163373ffffffffffffffffffffffffffffffffffffffff1603610c35576040517f08c379a0000000000000000000000000000000000000000000000000000000008152600401610c2c90612ebb565b60405180910390fd5b60018214610c78576040517f08c379a0000000000000000000000000000000000000000000000000000000008152600401610c6f90612f27565b60405180910390fd5b60ca54341015610cbd576040517f08c379a0000000000000000000000000000000000000000000000000000000008152600401610cb490612fb9565b60405180910390fd5b610cc8813384611446565b3390508073ffffffffffffffffffffffffffffffffffffffff166108fc349081150290604051600060405180830381858888f19350505050158015610d11573d6000803e3d6000fd5b505050565b6000610d226001610d27565b905090565b600080610d338361173f565b9050600073ffffffffffffffffffffffffffffffffffffffff168173ffffffffffffffffffffffffffffffffffffffff1603610da4576040517f08c379a0000000000000000000000000000000000000000000000000000000008152600401610d9b90613025565b60405180910390fd5b80915050919050565b60008073ffffffffffffffffffffffffffffffffffffffff168273ffffffffffffffffffffffffffffffffffffffff1603610e1d576040517f08c379a0000000000000000000000000000000000000000000000000000000008152600401610e14906130b7565b60405180910390fd5b606860008373ffffffffffffffffffffffffffffffffffffffff1673ffffffffffffffffffffffffffffffffffffffff168152602001908152602001600020549050919050565b610e6e6001610d27565b73ffffffffffffffffffffffffffffffffffffffff163373ffffffffffffffffffffffffffffffffffffffff1614610edb576040517f08c379a0000000000000000000000000000000000000000000000000000000008152600401610ed290613123565b60405180910390fd5b6000811015610f1f576040517f08c379a0000000000000000000000000000000000000000000000000000000008152600401610f169061318f565b60405180910390fd5b60ca548103610f63576040517f08c379a0000000000000000000000000000000000000000000000000000000008152600401610f5a906131fb565b60405180910390fd5b600060ca5490508160ca81905550610f7b6001610d27565b73ffffffffffffffffffffffffffffffffffffffff167ff3d52d1a60d7d0ee4e16f5b72624fa05a825fdd27ea948202af49055aaa6064b610fba6108c2565b610fc2610fe2565b8460ca54604051610fd6949392919061321b565b60405180910390a25050565b606060668054610ff190612c1c565b80601f016020809104026020016040519081016040528092919081815260200182805461101d90612c1c565b801561106a5780601f1061103f5761010080835404028352916020019161106a565b820191906000526020600020905b81548152906001019060200180831161104d57829003601f168201915b5050505050905090565b61108661107f6112f0565b838361177c565b5050565b61109b6110956112f0565b836113b1565b6110da576040517f08c379a00000000000000000000000000000000000000000000000000000000081526004016110d190612de3565b60405180910390fd5b6110e6848484846118e8565b50505050565b60606110f782611944565b9050919050565b6060611108610fe2565b905090565b6000606a60008473ffffffffffffffffffffffffffffffffffffffff1673ffffffffffffffffffffffffffffffffffffffff16815260200190815260200160002060008373ffffffffffffffffffffffffffffffffffffffff1673ffffffffffffffffffffffffffffffffffffffff16815260200190815260200160002060009054906101000a900460ff16905092915050565b6000808273ffffffffffffffffffffffffffffffffffffffff163b119050919050565b600060019054906101000a900460ff16611213576040517f08c379a000000000000000000000000000000000000000000000000000000000815260040161120a906132e0565b60405180910390fd5b61121d8282611a56565b5050565b61122c826001611ac9565b611237600182611ae7565b5050565b60007f01ffc9a7000000000000000000000000000000000000000000000000000000007bffffffffffffffffffffffffffffffffffffffffffffffffffffffff1916827bffffffffffffffffffffffffffffffffffffffffffffffffffffffff1916149050919050565b6112ae81611b54565b6112ed576040517f08c379a00000000000000000000000000000000000000000000000000000000081526004016112e490613025565b60405180910390fd5b50565b600033905090565b816069600083815260200190815260200160002060006101000a81548173ffffffffffffffffffffffffffffffffffffffff021916908373ffffffffffffffffffffffffffffffffffffffff160217905550808273ffffffffffffffffffffffffffffffffffffffff1661136b83610d27565b73ffffffffffffffffffffffffffffffffffffffff167f8c5be1e5ebec7d5bd14f71427d1e84f3dd0314c0f7b2291e5b200ac8c7c3b92560405160405180910390a45050565b6000806113bd83610d27565b90508073ffffffffffffffffffffffffffffffffffffffff168473ffffffffffffffffffffffffffffffffffffffff1614806113ff57506113fe818561110d565b5b8061143d57508373ffffffffffffffffffffffffffffffffffffffff1661142584610954565b73ffffffffffffffffffffffffffffffffffffffff16145b91505092915050565b8273ffffffffffffffffffffffffffffffffffffffff1661146682610d27565b73ffffffffffffffffffffffffffffffffffffffff16146114bc576040517f08c379a00000000000000000000000000000000000000000000000000000000081526004016114b390613372565b60405180910390fd5b600073ffffffffffffffffffffffffffffffffffffffff168273ffffffffffffffffffffffffffffffffffffffff160361152b576040517f08c379a000000000000000000000000000000000000000000000000000000000815260040161152290613404565b60405180910390fd5b6115388383836001611b95565b8273ffffffffffffffffffffffffffffffffffffffff1661155882610d27565b73ffffffffffffffffffffffffffffffffffffffff16146115ae576040517f08c379a00000000000000000000000000000000000000000000000000000000081526004016115a590613372565b60405180910390fd5b6069600082815260200190815260200160002060006101000a81549073ffffffffffffffffffffffffffffffffffffffff02191690556001606860008573ffffffffffffffffffffffffffffffffffffffff1673ffffffffffffffffffffffffffffffffffffffff168152602001908152602001600020600082825403925050819055506001606860008473ffffffffffffffffffffffffffffffffffffffff1673ffffffffffffffffffffffffffffffffffffffff16815260200190815260200160002060008282540192505081905550816067600083815260200190815260200160002060006101000a81548173ffffffffffffffffffffffffffffffffffffffff021916908373ffffffffffffffffffffffffffffffffffffffff160217905550808273ffffffffffffffffffffffffffffffffffffffff168473ffffffffffffffffffffffffffffffffffffffff167fddf252ad1be2c89b69c2b068fc378daa952ba7f163c4a11628f55a4df523b3ef60405160405180910390a461173a8383836001611b9b565b505050565b60006067600083815260200190815260200160002060009054906101000a900473ffffffffffffffffffffffffffffffffffffffff169050919050565b8173ffffffffffffffffffffffffffffffffffffffff168373ffffffffffffffffffffffffffffffffffffffff16036117ea576040517f08c379a00000000000000000000000000000000000000000000000000000000081526004016117e190613470565b60405180910390fd5b80606a60008573ffffffffffffffffffffffffffffffffffffffff1673ffffffffffffffffffffffffffffffffffffffff16815260200190815260200160002060008473ffffffffffffffffffffffffffffffffffffffff1673ffffffffffffffffffffffffffffffffffffffff16815260200190815260200160002060006101000a81548160ff0219169083151502179055508173ffffffffffffffffffffffffffffffffffffffff168373ffffffffffffffffffffffffffffffffffffffff167f17307eab39ab6107e8899845ad3d59bd9653f200f220920489ca2b5937696c31836040516118db9190612619565b60405180910390a3505050565b6118f3848484611446565b6118ff84848484611ba1565b61193e576040517f08c379a000000000000000000000000000000000000000000000000000000000815260040161193590613502565b60405180910390fd5b50505050565b606061194f826112a5565b600060976000848152602001908152602001600020805461196f90612c1c565b80601f016020809104026020016040519081016040528092919081815260200182805461199b90612c1c565b80156119e85780601f106119bd576101008083540402835291602001916119e8565b820191906000526020600020905b8154815290600101906020018083116119cb57829003601f168201915b5050505050905060006119f9611d28565b90506000815103611a0e578192505050611a51565b600082511115611a43578082604051602001611a2b92919061355e565b60405160208183030381529060405292505050611a51565b611a4c84611d3f565b925050505b919050565b600060019054906101000a900460ff16611aa5576040517f08c379a0000000000000000000000000000000000000000000000000000000008152600401611a9c906132e0565b60405180910390fd5b8160659081611ab49190613724565b508060669081611ac49190613724565b505050565b611ae3828260405180602001604052806000815250611da7565b5050565b611af082611b54565b611b2f576040517f08c379a0000000000000000000000000000000000000000000000000000000008152600401611b2690613868565b60405180910390fd5b80609760008481526020019081526020016000209081611b4f9190613724565b505050565b60008073ffffffffffffffffffffffffffffffffffffffff16611b768361173f565b73ffffffffffffffffffffffffffffffffffffffff1614159050919050565b50505050565b50505050565b6000611bc28473ffffffffffffffffffffffffffffffffffffffff166111a1565b15611d1b578373ffffffffffffffffffffffffffffffffffffffff1663150b7a02611beb6112f0565b8786866040518563ffffffff1660e01b8152600401611c0d94939291906138dd565b6020604051808303816000875af1925050508015611c4957506040513d601f19601f82011682018060405250810190611c46919061393e565b60015b611ccb573d8060008114611c79576040519150601f19603f3d011682016040523d82523d6000602084013e611c7e565b606091505b506000815103611cc3576040517f08c379a0000000000000000000000000000000000000000000000000000000008152600401611cba90613502565b60405180910390fd5b805181602001fd5b63150b7a0260e01b7bffffffffffffffffffffffffffffffffffffffffffffffffffffffff1916817bffffffffffffffffffffffffffffffffffffffffffffffffffffffff191614915050611d20565b600190505b949350505050565b606060405180602001604052806000815250905090565b6060611d4a826112a5565b6000611d54611d28565b90506000815111611d745760405180602001604052806000815250611d9f565b80611d7e84611e02565b604051602001611d8f92919061355e565b6040516020818303038152906040525b915050919050565b611db18383611ed0565b611dbe6000848484611ba1565b611dfd576040517f08c379a0000000000000000000000000000000000000000000000000000000008152600401611df490613502565b60405180910390fd5b505050565b606060006001611e11846120ed565b01905060008167ffffffffffffffff811115611e3057611e2f61232d565b5b6040519080825280601f01601f191660200182016040528015611e625781602001600182028036833780820191505090505b509050600082602001820190505b600115611ec5578080600190039150507f3031323334353637383961626364656600000000000000000000000000000000600a86061a8153600a8581611eb957611eb861396b565b5b04945060008503611e70575b819350505050919050565b600073ffffffffffffffffffffffffffffffffffffffff168273ffffffffffffffffffffffffffffffffffffffff1603611f3f576040517f08c379a0000000000000000000000000000000000000000000000000000000008152600401611f36906139e6565b60405180910390fd5b611f4881611b54565b15611f88576040517f08c379a0000000000000000000000000000000000000000000000000000000008152600401611f7f90613a52565b60405180910390fd5b611f96600083836001611b95565b611f9f81611b54565b15611fdf576040517f08c379a0000000000000000000000000000000000000000000000000000000008152600401611fd690613a52565b60405180910390fd5b6001606860008473ffffffffffffffffffffffffffffffffffffffff1673ffffffffffffffffffffffffffffffffffffffff16815260200190815260200160002060008282540192505081905550816067600083815260200190815260200160002060006101000a81548173ffffffffffffffffffffffffffffffffffffffff021916908373ffffffffffffffffffffffffffffffffffffffff160217905550808273ffffffffffffffffffffffffffffffffffffffff16600073ffffffffffffffffffffffffffffffffffffffff167fddf252ad1be2c89b69c2b068fc378daa952ba7f163c4a11628f55a4df523b3ef60405160405180910390a46120e9600083836001611b9b565b5050565b600080600090507a184f03e93ff9f4daa797ed6e38ed64bf6a1f010000000000000000831061214b577a184f03e93ff9f4daa797ed6e38ed64bf6a1f01000000000000000083816121415761214061396b565b5b0492506040810190505b6d04ee2d6d415b85acef81000000008310612188576d04ee2d6d415b85acef8100000000838161217e5761217d61396b565b5b0492506020810190505b662386f26fc1000083106121b757662386f26fc1000083816121ad576121ac61396b565b5b0492506010810190505b6305f5e10083106121e0576305f5e10083816121d6576121d561396b565b5b0492506008810190505b61271083106122055761271083816121fb576121fa61396b565b5b0492506004810190505b60648310612228576064838161221e5761221d61396b565b5b0492506002810190505b600a8310612237576001810190505b80915050919050565b6000604051905090565b600080fd5b600080fd5b600073ffffffffffffffffffffffffffffffffffffffff82169050919050565b600061227f82612254565b9050919050565b61228f81612274565b811461229a57600080fd5b50565b6000813590506122ac81612286565b92915050565b600080fd5b600080fd5b600080fd5b60008083601f8401126122d7576122d66122b2565b5b8235905067ffffffffffffffff8111156122f4576122f36122b7565b5b6020830191508360018202830111156123105761230f6122bc565b5b9250929050565b600080fd5b6000601f19601f8301169050919050565b7f4e487b7100000000000000000000000000000000000000000000000000000000600052604160045260246000fd5b6123658261231c565b810181811067ffffffffffffffff821117156123845761238361232d565b5b80604052505050565b6000612397612240565b90506123a3828261235c565b919050565b600067ffffffffffffffff8211156123c3576123c261232d565b5b6123cc8261231c565b9050602081019050919050565b82818337600083830152505050565b60006123fb6123f6846123a8565b61238d565b90508281526020810184848401111561241757612416612317565b5b6124228482856123d9565b509392505050565b600082601f83011261243f5761243e6122b2565b5b813561244f8482602086016123e8565b91505092915050565b6000819050919050565b61246b81612458565b811461247657600080fd5b50565b60008135905061248881612462565b92915050565b60008060008060008060008060c0898b0312156124ae576124ad61224a565b5b60006124bc8b828c0161229d565b985050602089013567ffffffffffffffff8111156124dd576124dc61224f565b5b6124e98b828c016122c1565b9750975050604089013567ffffffffffffffff81111561250c5761250b61224f565b5b6125188b828c016122c1565b9550955050606061252b8b828c0161229d565b935050608089013567ffffffffffffffff81111561254c5761254b61224f565b5b6125588b828c0161242a565b92505060a06125698b828c01612479565b9150509295985092959890939650565b60007fffffffff0000000000000000000000000000000000000000000000000000000082169050919050565b6125ae81612579565b81146125b957600080fd5b50565b6000813590506125cb816125a5565b92915050565b6000602082840312156125e7576125e661224a565b5b60006125f5848285016125bc565b91505092915050565b60008115159050919050565b612613816125fe565b82525050565b600060208201905061262e600083018461260a565b92915050565b600081519050919050565b600082825260208201905092915050565b60005b8381101561266e578082015181840152602081019050612653565b60008484015250505050565b600061268582612634565b61268f818561263f565b935061269f818560208601612650565b6126a88161231c565b840191505092915050565b600060208201905081810360008301526126cd818461267a565b905092915050565b6000602082840312156126eb576126ea61224a565b5b60006126f984828501612479565b91505092915050565b61270b81612274565b82525050565b60006020820190506127266000830184612702565b92915050565b600080604083850312156127435761274261224a565b5b60006127518582860161229d565b925050602061276285828601612479565b9150509250929050565b61277581612458565b82525050565b6000602082019050612790600083018461276c565b92915050565b6000806000606084860312156127af576127ae61224a565b5b60006127bd8682870161229d565b93505060206127ce8682870161229d565b92505060406127df86828701612479565b9150509250925092565b6000602082840312156127ff576127fe61224a565b5b600061280d8482850161229d565b91505092915050565b61281f816125fe565b811461282a57600080fd5b50565b60008135905061283c81612816565b92915050565b600080604083850312156128595761285861224a565b5b60006128678582860161229d565b92505060206128788582860161282d565b9150509250929050565b600067ffffffffffffffff82111561289d5761289c61232d565b5b6128a68261231c565b9050602081019050919050565b60006128c66128c184612882565b61238d565b9050828152602081018484840111156128e2576128e1612317565b5b6128ed8482856123d9565b509392505050565b600082601f83011261290a576129096122b2565b5b813561291a8482602086016128b3565b91505092915050565b6000806000806080858703121561293d5761293c61224a565b5b600061294b8782880161229d565b945050602061295c8782880161229d565b935050604061296d87828801612479565b925050606085013567ffffffffffffffff81111561298e5761298d61224f565b5b61299a878288016128f5565b91505092959194509250565b600080604083850312156129bd576129bc61224a565b5b60006129cb8582860161229d565b92505060206129dc8582860161229d565b9150509250929050565b7f496e697469616c697a61626c653a20636f6e747261637420697320616c72656160008201527f647920696e697469616c697a6564000000000000000000000000000000000000602082015250565b6000612a42602e8361263f565b9150612a4d826129e6565b604082019050919050565b60006020820190508181036000830152612a7181612a35565b9050919050565b7f496e76616c6964204e4654206f776e65723a207a65726f20616464726573732060008201527f6e6f742076616c69642100000000000000000000000000000000000000000000602082015250565b6000612ad4602a8361263f565b9150612adf82612a78565b604082019050919050565b60006020820190508181036000830152612b0381612ac7565b9050919050565b6000612b16838561263f565b9350612b238385846123d9565b612b2c8361231c565b840190509392505050565b60006060820190508181036000830152612b52818789612b0a565b90508181036020830152612b67818587612b0a565b9050612b766040830184612702565b9695505050505050565b6000819050919050565b600060ff82169050919050565b6000819050919050565b6000612bbc612bb7612bb284612b80565b612b97565b612b8a565b9050919050565b612bcc81612ba1565b82525050565b6000602082019050612be76000830184612bc3565b92915050565b7f4e487b7100000000000000000000000000000000000000000000000000000000600052602260045260246000fd5b60006002820490506001821680612c3457607f821691505b602082108103612c4757612c46612bed565b5b50919050565b7f4552433732313a20617070726f76616c20746f2063757272656e74206f776e6560008201527f7200000000000000000000000000000000000000000000000000000000000000602082015250565b6000612ca960218361263f565b9150612cb482612c4d565b604082019050919050565b60006020820190508181036000830152612cd881612c9c565b9050919050565b7f4552433732313a20617070726f76652063616c6c6572206973206e6f7420746f60008201527f6b656e206f776e6572206f7220617070726f76656420666f7220616c6c000000602082015250565b6000612d3b603d8361263f565b9150612d4682612cdf565b604082019050919050565b60006020820190508181036000830152612d6a81612d2e565b9050919050565b7f4552433732313a2063616c6c6572206973206e6f7420746f6b656e206f776e6560008201527f72206f7220617070726f76656400000000000000000000000000000000000000602082015250565b6000612dcd602d8361263f565b9150612dd882612d71565b604082019050919050565b60006020820190508181036000830152612dfc81612dc0565b9050919050565b7f496e76616c696420416464726573732830290000000000000000000000000000600082015250565b6000612e3960128361263f565b9150612e4482612e03565b602082019050919050565b60006020820190508181036000830152612e6881612e2c565b9050919050565b7f43616e6e6f742073656c6c204e465420746f206d7973656c6600000000000000600082015250565b6000612ea560198361263f565b9150612eb082612e6f565b602082019050919050565b60006020820190508181036000830152612ed481612e98565b9050919050565b7f43616e6e6f74207472616e73666572207468697320746f6b656e496400000000600082015250565b6000612f11601c8361263f565b9150612f1c82612edb565b602082019050919050565b60006020820190508181036000830152612f4081612f04565b9050919050565b7f4e6f7420656e6f7567682066756e647320746f2062757920746869732061776560008201527f736f6d65204e4654000000000000000000000000000000000000000000000000602082015250565b6000612fa360288361263f565b9150612fae82612f47565b604082019050919050565b60006020820190508181036000830152612fd281612f96565b9050919050565b7f4552433732313a20696e76616c696420746f6b656e2049440000000000000000600082015250565b600061300f60188361263f565b915061301a82612fd9565b602082019050919050565b6000602082019050818103600083015261303e81613002565b9050919050565b7f4552433732313a2061646472657373207a65726f206973206e6f74206120766160008201527f6c6964206f776e65720000000000000000000000000000000000000000000000602082015250565b60006130a160298361263f565b91506130ac82613045565b604082019050919050565b600060208201905081810360008301526130d081613094565b9050919050565b7f4e6f7420746865204e4654206f776e6572210000000000000000000000000000600082015250565b600061310d60128361263f565b9150613118826130d7565b602082019050919050565b6000602082019050818103600083015261313c81613100565b9050919050565b7f4e465420636f73742063616e6e6f74206265206e656761746976650000000000600082015250565b6000613179601b8361263f565b915061318482613143565b602082019050919050565b600060208201905081810360008301526131a88161316c565b9050919050565b7f4e657720707269636520657175616c20746f206f6c6420707269636521000000600082015250565b60006131e5601d8361263f565b91506131f0826131af565b602082019050919050565b60006020820190508181036000830152613214816131d8565b9050919050565b60006080820190508181036000830152613235818761267a565b90508181036020830152613249818661267a565b9050613258604083018561276c565b613265606083018461276c565b95945050505050565b7f496e697469616c697a61626c653a20636f6e7472616374206973206e6f74206960008201527f6e697469616c697a696e67000000000000000000000000000000000000000000602082015250565b60006132ca602b8361263f565b91506132d58261326e565b604082019050919050565b600060208201905081810360008301526132f9816132bd565b9050919050565b7f4552433732313a207472616e736665722066726f6d20696e636f72726563742060008201527f6f776e6572000000000000000000000000000000000000000000000000000000602082015250565b600061335c60258361263f565b915061336782613300565b604082019050919050565b6000602082019050818103600083015261338b8161334f565b9050919050565b7f4552433732313a207472616e7366657220746f20746865207a65726f2061646460008201527f7265737300000000000000000000000000000000000000000000000000000000602082015250565b60006133ee60248361263f565b91506133f982613392565b604082019050919050565b6000602082019050818103600083015261341d816133e1565b9050919050565b7f4552433732313a20617070726f766520746f2063616c6c657200000000000000600082015250565b600061345a60198361263f565b915061346582613424565b602082019050919050565b600060208201905081810360008301526134898161344d565b9050919050565b7f4552433732313a207472616e7366657220746f206e6f6e20455243373231526560008201527f63656976657220696d706c656d656e7465720000000000000000000000000000602082015250565b60006134ec60328361263f565b91506134f782613490565b604082019050919050565b6000602082019050818103600083015261351b816134df565b9050919050565b600081905092915050565b600061353882612634565b6135428185613522565b9350613552818560208601612650565b80840191505092915050565b600061356a828561352d565b9150613576828461352d565b91508190509392505050565b60008190508160005260206000209050919050565b60006020601f8301049050919050565b600082821b905092915050565b6000600883026135e47fffffffffffffffffffffffffffffffffffffffffffffffffffffffffffffffff826135a7565b6135ee86836135a7565b95508019841693508086168417925050509392505050565b600061362161361c61361784612458565b612b97565b612458565b9050919050565b6000819050919050565b61363b83613606565b61364f61364782613628565b8484546135b4565b825550505050565b600090565b613664613657565b61366f818484613632565b505050565b5b818110156136935761368860008261365c565b600181019050613675565b5050565b601f8211156136d8576136a981613582565b6136b284613597565b810160208510156136c1578190505b6136d56136cd85613597565b830182613674565b50505b505050565b600082821c905092915050565b60006136fb600019846008026136dd565b1980831691505092915050565b600061371483836136ea565b9150826002028217905092915050565b61372d82612634565b67ffffffffffffffff8111156137465761374561232d565b5b6137508254612c1c565b61375b828285613697565b600060209050601f83116001811461378e576000841561377c578287015190505b6137868582613708565b8655506137ee565b601f19841661379c86613582565b60005b828110156137c45784890151825560018201915060208501945060208101905061379f565b868310156137e157848901516137dd601f8916826136ea565b8355505b6001600288020188555050505b505050505050565b7f45524337323155524953746f726167653a2055524920736574206f66206e6f6e60008201527f6578697374656e7420746f6b656e000000000000000000000000000000000000602082015250565b6000613852602e8361263f565b915061385d826137f6565b604082019050919050565b6000602082019050818103600083015261388181613845565b9050919050565b600081519050919050565b600082825260208201905092915050565b60006138af82613888565b6138b98185613893565b93506138c9818560208601612650565b6138d28161231c565b840191505092915050565b60006080820190506138f26000830187612702565b6138ff6020830186612702565b61390c604083018561276c565b818103606083015261391e81846138a4565b905095945050505050565b600081519050613938816125a5565b92915050565b6000602082840312156139545761395361224a565b5b600061396284828501613929565b91505092915050565b7f4e487b7100000000000000000000000000000000000000000000000000000000600052601260045260246000fd5b7f4552433732313a206d696e7420746f20746865207a65726f2061646472657373600082015250565b60006139d060208361263f565b91506139db8261399a565b602082019050919050565b600060208201905081810360008301526139ff816139c3565b9050919050565b7f4552433732313a20746f6b656e20616c7265616479206d696e74656400000000600082015250565b6000613a3c601c8361263f565b9150613a4782613a06565b602082019050919050565b60006020820190508181036000830152613a6b81613a2f565b905091905056fea26469706673582212208a943d47f7fe94a0c46fbf8a759b51c8d5d6dc4f71a44f75f0b711e56a7986dd64736f6c63430008120033",
  "linkReferences": {},
  "deployedLinkReferences": {}
}