{
  "_format": "hh-sol-artifact-1",
  "contractName": "ERC721Base",
  "sourceName": "contracts/ERC721Base.sol",
  "abi": [
    {
      "anonymous": false,
      "inputs": [
        {
          "indexed": true,
          "internalType": "address",
          "name": "owner",
          "type": "address"
        },
        {
          "indexed": true,
          "internalType": "address",
          "name": "approved",
          "type": "address"
        },
        {
          "indexed": true,
          "internalType": "uint256",
          "name": "tokenId",
          "type": "uint256"
        }
      ],
      "name": "Approval",
      "type": "event"
    },
    {
      "anonymous": false,
      "inputs": [
        {
          "indexed": true,
          "internalType": "address",
          "name": "owner",
          "type": "address"
        },
        {
          "indexed": true,
          "internalType": "address",
          "name": "operator",
          "type": "address"
        },
        {
          "indexed": false,
          "internalType": "bool",
          "name": "approved",
          "type": "bool"
        }
      ],
      "name": "ApprovalForAll",
      "type": "event"
    },
    {
      "anonymous": false,
      "inputs": [
        {
          "indexed": false,
          "internalType": "uint8",
          "name": "version",
          "type": "uint8"
        }
      ],
      "name": "Initialized",
      "type": "event"
    },
    {
      "anonymous": false,
      "inputs": [
        {
          "indexed": true,
          "internalType": "address",
          "name": "owner",
          "type": "address"
        },
        {
          "indexed": false,
          "internalType": "string",
          "name": "name",
          "type": "string"
        },
        {
          "indexed": false,
          "internalType": "string",
          "name": "symbol",
          "type": "string"
        },
        {
          "indexed": false,
          "internalType": "address",
          "name": "factory",
          "type": "address"
        }
      ],
      "name": "NFTminted",
      "type": "event"
    },
    {
      "anonymous": false,
      "inputs": [
        {
          "indexed": false,
          "internalType": "string",
          "name": "name",
          "type": "string"
        },
        {
          "indexed": false,
          "internalType": "string",
          "name": "symbol",
          "type": "string"
        },
        {
          "indexed": false,
          "internalType": "address",
          "name": "owner",
          "type": "address"
        },
        {
          "indexed": false,
          "internalType": "address",
          "name": "erc721address_",
          "type": "address"
        },
        {
          "indexed": false,
          "internalType": "address",
          "name": "newERC20Address",
          "type": "address"
        },
        {
          "indexed": false,
          "internalType": "uint256",
          "name": "maxSupply_",
          "type": "uint256"
        },
        {
          "indexed": false,
          "internalType": "uint256",
          "name": "initialSupply_",
          "type": "uint256"
        }
      ],
      "name": "TokenCreated",
      "type": "event"
    },
    {
      "anonymous": false,
      "inputs": [
        {
          "indexed": true,
          "internalType": "address",
          "name": "from",
          "type": "address"
        },
        {
          "indexed": true,
          "internalType": "address",
          "name": "to",
          "type": "address"
        },
        {
          "indexed": true,
          "internalType": "uint256",
          "name": "tokenId",
          "type": "uint256"
        }
      ],
      "name": "Transfer",
      "type": "event"
    },
    {
      "stateMutability": "payable",
      "type": "fallback"
    },
    {
      "inputs": [
        {
          "internalType": "address",
          "name": "to",
          "type": "address"
        },
        {
          "internalType": "uint256",
          "name": "tokenId",
          "type": "uint256"
        }
      ],
      "name": "approve",
      "outputs": [],
      "stateMutability": "nonpayable",
      "type": "function"
    },
    {
      "inputs": [
        {
          "internalType": "address",
          "name": "owner",
          "type": "address"
        }
      ],
      "name": "balanceOf",
      "outputs": [
        {
          "internalType": "uint256",
          "name": "",
          "type": "uint256"
        }
      ],
      "stateMutability": "view",
      "type": "function"
    },
    {
      "inputs": [
        {
          "internalType": "uint256",
          "name": "tokenId",
          "type": "uint256"
        }
      ],
      "name": "burn",
      "outputs": [],
      "stateMutability": "nonpayable",
      "type": "function"
    },
    {
      "inputs": [
        {
          "internalType": "string",
          "name": "name",
          "type": "string"
        },
        {
          "internalType": "string",
          "name": "symbol",
          "type": "string"
        },
        {
          "internalType": "uint256",
          "name": "maxSupply_",
          "type": "uint256"
        }
      ],
      "name": "createDataToken",
      "outputs": [
        {
          "internalType": "address",
          "name": "erc20token",
          "type": "address"
        }
      ],
      "stateMutability": "nonpayable",
      "type": "function"
    },
    {
      "inputs": [
        {
          "internalType": "uint256",
          "name": "tokenId",
          "type": "uint256"
        }
      ],
      "name": "getApproved",
      "outputs": [
        {
          "internalType": "address",
          "name": "",
          "type": "address"
        }
      ],
      "stateMutability": "view",
      "type": "function"
    },
    {
      "inputs": [],
      "name": "getDTaddresses",
      "outputs": [
        {
          "internalType": "address[]",
          "name": "",
          "type": "address[]"
        }
      ],
      "stateMutability": "view",
      "type": "function"
    },
    {
      "inputs": [],
      "name": "getNFTowner",
      "outputs": [
        {
          "internalType": "address",
          "name": "owner",
          "type": "address"
        }
      ],
      "stateMutability": "view",
      "type": "function"
    },
    {
      "inputs": [
        {
          "internalType": "address",
          "name": "owner",
          "type": "address"
        },
        {
          "internalType": "string",
          "name": "name_",
          "type": "string"
        },
        {
          "internalType": "string",
          "name": "symbol_",
          "type": "string"
        },
        {
          "internalType": "address",
          "name": "factory",
          "type": "address"
        },
        {
          "internalType": "string",
          "name": "_tokenURI",
          "type": "string"
        }
      ],
      "name": "initialize",
      "outputs": [
        {
          "internalType": "bool",
          "name": "",
          "type": "bool"
        }
      ],
      "stateMutability": "nonpayable",
      "type": "function"
    },
    {
      "inputs": [
        {
          "internalType": "address",
          "name": "owner",
          "type": "address"
        },
        {
          "internalType": "address",
          "name": "operator",
          "type": "address"
        }
      ],
      "name": "isApprovedForAll",
      "outputs": [
        {
          "internalType": "bool",
          "name": "",
          "type": "bool"
        }
      ],
      "stateMutability": "view",
      "type": "function"
    },
    {
      "inputs": [],
      "name": "name",
      "outputs": [
        {
          "internalType": "string",
          "name": "",
          "type": "string"
        }
      ],
      "stateMutability": "view",
      "type": "function"
    },
    {
      "inputs": [
        {
          "internalType": "uint256",
          "name": "tokenId",
          "type": "uint256"
        }
      ],
      "name": "ownerOf",
      "outputs": [
        {
          "internalType": "address",
          "name": "",
          "type": "address"
        }
      ],
      "stateMutability": "view",
      "type": "function"
    },
    {
      "inputs": [
        {
          "internalType": "address",
          "name": "from",
          "type": "address"
        },
        {
          "internalType": "address",
          "name": "to",
          "type": "address"
        },
        {
          "internalType": "uint256",
          "name": "tokenId",
          "type": "uint256"
        }
      ],
      "name": "safeTransferFrom",
      "outputs": [],
      "stateMutability": "nonpayable",
      "type": "function"
    },
    {
      "inputs": [
        {
          "internalType": "address",
          "name": "from",
          "type": "address"
        },
        {
          "internalType": "address",
          "name": "to",
          "type": "address"
        },
        {
          "internalType": "uint256",
          "name": "tokenId",
          "type": "uint256"
        },
        {
          "internalType": "bytes",
          "name": "data",
          "type": "bytes"
        }
      ],
      "name": "safeTransferFrom",
      "outputs": [],
      "stateMutability": "nonpayable",
      "type": "function"
    },
    {
      "inputs": [
        {
          "internalType": "address",
          "name": "operator",
          "type": "address"
        },
        {
          "internalType": "bool",
          "name": "approved",
          "type": "bool"
        }
      ],
      "name": "setApprovalForAll",
      "outputs": [],
      "stateMutability": "nonpayable",
      "type": "function"
    },
    {
      "inputs": [
        {
          "internalType": "bytes4",
          "name": "interfaceId",
          "type": "bytes4"
        }
      ],
      "name": "supportsInterface",
      "outputs": [
        {
          "internalType": "bool",
          "name": "",
          "type": "bool"
        }
      ],
      "stateMutability": "view",
      "type": "function"
    },
    {
      "inputs": [],
      "name": "symbol",
      "outputs": [
        {
          "internalType": "string",
          "name": "",
          "type": "string"
        }
      ],
      "stateMutability": "view",
      "type": "function"
    },
    {
      "inputs": [
        {
          "internalType": "uint256",
          "name": "tokenId",
          "type": "uint256"
        }
      ],
      "name": "tokenURI",
      "outputs": [
        {
          "internalType": "string",
          "name": "",
          "type": "string"
        }
      ],
      "stateMutability": "view",
      "type": "function"
    },
    {
      "inputs": [
        {
          "internalType": "address",
          "name": "from",
          "type": "address"
        },
        {
          "internalType": "address",
          "name": "to",
          "type": "address"
        },
        {
          "internalType": "uint256",
          "name": "tokenId",
          "type": "uint256"
        }
      ],
      "name": "transferFrom",
      "outputs": [],
      "stateMutability": "nonpayable",
      "type": "function"
    },
    {
      "stateMutability": "payable",
      "type": "receive"
    }
  ],
  "bytecode": "0x608060405234801561001057600080fd5b50613d18806100206000396000f3fe60806040526004361061010d5760003560e01c80636352211e11610095578063b6d3a1d211610064578063b6d3a1d214610395578063b88d4fde146103c0578063bdf0ef59146103e9578063c87b56dd14610426578063e985e9c51461046357610114565b80636352211e146102c757806370a082311461030457806395d89b4114610341578063a22cb4651461036c57610114565b80631ed4fb2c116100dc5780631ed4fb2c146101e457806323b872dd1461022157806342842e0e1461024a57806342966c68146102735780635245f3bd1461029c57610114565b806301ffc9a71461011657806306fdde0314610153578063081812fc1461017e578063095ea7b3146101bb57610114565b3661011457005b005b34801561012257600080fd5b5061013d600480360381019061013891906124fa565b6104a0565b60405161014a9190612542565b60405180910390f35b34801561015f57600080fd5b50610168610582565b60405161017591906125ed565b60405180910390f35b34801561018a57600080fd5b506101a560048036038101906101a09190612645565b610614565b6040516101b291906126b3565b60405180910390f35b3480156101c757600080fd5b506101e260048036038101906101dd91906126fa565b61065a565b005b3480156101f057600080fd5b5061020b600480360381019061020691906128cf565b610771565b6040516102189190612542565b60405180910390f35b34801561022d57600080fd5b50610248600480360381019061024391906129a7565b610a8e565b005b34801561025657600080fd5b50610271600480360381019061026c91906129a7565b610aee565b005b34801561027f57600080fd5b5061029a60048036038101906102959190612645565b610b0e565b005b3480156102a857600080fd5b506102b1610b91565b6040516102be91906126b3565b60405180910390f35b3480156102d357600080fd5b506102ee60048036038101906102e99190612645565b610ba2565b6040516102fb91906126b3565b60405180910390f35b34801561031057600080fd5b5061032b600480360381019061032691906129fa565b610c28565b6040516103389190612a36565b60405180910390f35b34801561034d57600080fd5b50610356610cdf565b60405161036391906125ed565b60405180910390f35b34801561037857600080fd5b50610393600480360381019061038e9190612a7d565b610d71565b005b3480156103a157600080fd5b506103aa610d87565b6040516103b79190612b7b565b60405180910390f35b3480156103cc57600080fd5b506103e760048036038101906103e29190612c3e565b610e15565b005b3480156103f557600080fd5b50610410600480360381019061040b9190612cc1565b610e77565b60405161041d91906126b3565b60405180910390f35b34801561043257600080fd5b5061044d60048036038101906104489190612645565b611091565b60405161045a91906125ed565b60405180910390f35b34801561046f57600080fd5b5061048a60048036038101906104859190612d56565b6110a3565b6040516104979190612542565b60405180910390f35b60007f80ac58cd000000000000000000000000000000000000000000000000000000007bffffffffffffffffffffffffffffffffffffffffffffffffffffffff1916827bffffffffffffffffffffffffffffffffffffffffffffffffffffffff1916148061056b57507f5b5e139f000000000000000000000000000000000000000000000000000000007bffffffffffffffffffffffffffffffffffffffffffffffffffffffff1916827bffffffffffffffffffffffffffffffffffffffffffffffffffffffff1916145b8061057b575061057a82611137565b5b9050919050565b60606065805461059190612dc5565b80601f01602080910402602001604051908101604052809291908181526020018280546105bd90612dc5565b801561060a5780601f106105df5761010080835404028352916020019161060a565b820191906000526020600020905b8154815290600101906020018083116105ed57829003601f168201915b5050505050905090565b600061061f826111a1565b6069600083815260200190815260200160002060009054906101000a900473ffffffffffffffffffffffffffffffffffffffff169050919050565b600061066582610ba2565b90508073ffffffffffffffffffffffffffffffffffffffff168373ffffffffffffffffffffffffffffffffffffffff16036106d5576040517f08c379a00000000000000000000000000000000000000000000000000000000081526004016106cc90612e68565b60405180910390fd5b8073ffffffffffffffffffffffffffffffffffffffff166106f46111ec565b73ffffffffffffffffffffffffffffffffffffffff16148061072357506107228161071d6111ec565b6110a3565b5b610762576040517f08c379a000000000000000000000000000000000000000000000000000000000815260040161075990612efa565b60405180910390fd5b61076c83836111f4565b505050565b600080600060019054906101000a900460ff161590508080156107a45750600160008054906101000a900460ff1660ff16105b806107d157506107b3306112ad565b1580156107d05750600160008054906101000a900460ff1660ff16145b5b610810576040517f08c379a000000000000000000000000000000000000000000000000000000000815260040161080790612f8c565b60405180910390fd5b60016000806101000a81548160ff021916908360ff160217905550801561084d576001600060016101000a81548160ff0219169083151502179055505b600073ffffffffffffffffffffffffffffffffffffffff168973ffffffffffffffffffffffffffffffffffffffff16036108bc576040517f08c379a00000000000000000000000000000000000000000000000000000000081526004016108b39061301e565b60405180910390fd5b61094e88888080601f016020809104026020016040519081016040528093929190818152602001838380828437600081840152601f19601f8201169050808301925050505050505087878080601f016020809104026020016040519081016040528093929190818152602001838380828437600081840152601f19601f820116905080830192505050505050506112d0565b61095661132d565b8360c960006101000a81548173ffffffffffffffffffffffffffffffffffffffff021916908373ffffffffffffffffffffffffffffffffffffffff1602179055506109a289600161137e565b6109ad60018461139c565b8873ffffffffffffffffffffffffffffffffffffffff167fd133d105f7b44671ec3a00c607590e7154adaafd2e0e9542b201374f293585198989898960c960009054906101000a900473ffffffffffffffffffffffffffffffffffffffff16604051610a1d95949392919061306b565b60405180910390a2600191508015610a825760008060016101000a81548160ff0219169083151502179055507f7f26b83ff96e1f2b6a682f133852f6798a09c465da95921460cefb38474024986001604051610a799190613106565b60405180910390a15b50979650505050505050565b610a9f610a996111ec565b82611409565b610ade576040517f08c379a0000000000000000000000000000000000000000000000000000000008152600401610ad590613193565b60405180910390fd5b610ae983838361149e565b505050565b610b0983838360405180602001604052806000815250610e15565b505050565b610b186001610ba2565b73ffffffffffffffffffffffffffffffffffffffff163373ffffffffffffffffffffffffffffffffffffffff1614610b85576040517f08c379a0000000000000000000000000000000000000000000000000000000008152600401610b7c906131ff565b60405180910390fd5b610b8e81611797565b50565b6000610b9d6001610ba2565b905090565b600080610bae8361181a565b9050600073ffffffffffffffffffffffffffffffffffffffff168173ffffffffffffffffffffffffffffffffffffffff1603610c1f576040517f08c379a0000000000000000000000000000000000000000000000000000000008152600401610c169061326b565b60405180910390fd5b80915050919050565b60008073ffffffffffffffffffffffffffffffffffffffff168273ffffffffffffffffffffffffffffffffffffffff1603610c98576040517f08c379a0000000000000000000000000000000000000000000000000000000008152600401610c8f906132fd565b60405180910390fd5b606860008373ffffffffffffffffffffffffffffffffffffffff1673ffffffffffffffffffffffffffffffffffffffff168152602001908152602001600020549050919050565b606060668054610cee90612dc5565b80601f0160208091040260200160405190810160405280929190818152602001828054610d1a90612dc5565b8015610d675780601f10610d3c57610100808354040283529160200191610d67565b820191906000526020600020905b815481529060010190602001808311610d4a57829003601f168201915b5050505050905090565b610d83610d7c6111ec565b8383611857565b5050565b606060ca805480602002602001604051908101604052809291908181526020018280548015610e0b57602002820191906000526020600020905b8160009054906101000a900473ffffffffffffffffffffffffffffffffffffffff1673ffffffffffffffffffffffffffffffffffffffff1681526020019060010190808311610dc1575b5050505050905090565b610e26610e206111ec565b83611409565b610e65576040517f08c379a0000000000000000000000000000000000000000000000000000000008152600401610e5c90613193565b60405180910390fd5b610e71848484846119c3565b50505050565b6000610e836001610ba2565b73ffffffffffffffffffffffffffffffffffffffff163373ffffffffffffffffffffffffffffffffffffffff1614610ef0576040517f08c379a0000000000000000000000000000000000000000000000000000000008152600401610ee7906131ff565b60405180910390fd5b60008211610f33576040517f08c379a0000000000000000000000000000000000000000000000000000000008152600401610f2a90613369565b60405180910390fd5b60c960009054906101000a900473ffffffffffffffffffffffffffffffffffffffff1673ffffffffffffffffffffffffffffffffffffffff166334cdb4cc8787878733886040518763ffffffff1660e01b8152600401610f9896959493929190613389565b6020604051808303816000875af1158015610fb7573d6000803e3d6000fd5b505050506040513d601f19601f82011682018060405250810190610fdb91906133f5565b905060ca819080600181540180825580915050600190039060005260206000200160009091909190916101000a81548173ffffffffffffffffffffffffffffffffffffffff021916908373ffffffffffffffffffffffffffffffffffffffff1602179055507f7ded605ee5eb960743663ce41947ea21cc226061bd4323712c0cfd89117c5fc68686868633308760008a6040516110809998979695949392919061345d565b60405180910390a195945050505050565b606061109c82611a1f565b9050919050565b6000606a60008473ffffffffffffffffffffffffffffffffffffffff1673ffffffffffffffffffffffffffffffffffffffff16815260200190815260200160002060008373ffffffffffffffffffffffffffffffffffffffff1673ffffffffffffffffffffffffffffffffffffffff16815260200190815260200160002060009054906101000a900460ff16905092915050565b60007f01ffc9a7000000000000000000000000000000000000000000000000000000007bffffffffffffffffffffffffffffffffffffffffffffffffffffffff1916827bffffffffffffffffffffffffffffffffffffffffffffffffffffffff1916149050919050565b6111aa81611b31565b6111e9576040517f08c379a00000000000000000000000000000000000000000000000000000000081526004016111e09061326b565b60405180910390fd5b50565b600033905090565b816069600083815260200190815260200160002060006101000a81548173ffffffffffffffffffffffffffffffffffffffff021916908373ffffffffffffffffffffffffffffffffffffffff160217905550808273ffffffffffffffffffffffffffffffffffffffff1661126783610ba2565b73ffffffffffffffffffffffffffffffffffffffff167f8c5be1e5ebec7d5bd14f71427d1e84f3dd0314c0f7b2291e5b200ac8c7c3b92560405160405180910390a45050565b6000808273ffffffffffffffffffffffffffffffffffffffff163b119050919050565b600060019054906101000a900460ff1661131f576040517f08c379a000000000000000000000000000000000000000000000000000000000815260040161131690613550565b60405180910390fd5b6113298282611b72565b5050565b600060019054906101000a900460ff1661137c576040517f08c379a000000000000000000000000000000000000000000000000000000000815260040161137390613550565b60405180910390fd5b565b611398828260405180602001604052806000815250611be5565b5050565b6113a582611b31565b6113e4576040517f08c379a00000000000000000000000000000000000000000000000000000000081526004016113db906135e2565b60405180910390fd5b8060976000848152602001908152602001600020908161140491906137a4565b505050565b60008061141583610ba2565b90508073ffffffffffffffffffffffffffffffffffffffff168473ffffffffffffffffffffffffffffffffffffffff161480611457575061145681856110a3565b5b8061149557508373ffffffffffffffffffffffffffffffffffffffff1661147d84610614565b73ffffffffffffffffffffffffffffffffffffffff16145b91505092915050565b8273ffffffffffffffffffffffffffffffffffffffff166114be82610ba2565b73ffffffffffffffffffffffffffffffffffffffff1614611514576040517f08c379a000000000000000000000000000000000000000000000000000000000815260040161150b906138e8565b60405180910390fd5b600073ffffffffffffffffffffffffffffffffffffffff168273ffffffffffffffffffffffffffffffffffffffff1603611583576040517f08c379a000000000000000000000000000000000000000000000000000000000815260040161157a9061397a565b60405180910390fd5b6115908383836001611c40565b8273ffffffffffffffffffffffffffffffffffffffff166115b082610ba2565b73ffffffffffffffffffffffffffffffffffffffff1614611606576040517f08c379a00000000000000000000000000000000000000000000000000000000081526004016115fd906138e8565b60405180910390fd5b6069600082815260200190815260200160002060006101000a81549073ffffffffffffffffffffffffffffffffffffffff02191690556001606860008573ffffffffffffffffffffffffffffffffffffffff1673ffffffffffffffffffffffffffffffffffffffff168152602001908152602001600020600082825403925050819055506001606860008473ffffffffffffffffffffffffffffffffffffffff1673ffffffffffffffffffffffffffffffffffffffff16815260200190815260200160002060008282540192505081905550816067600083815260200190815260200160002060006101000a81548173ffffffffffffffffffffffffffffffffffffffff021916908373ffffffffffffffffffffffffffffffffffffffff160217905550808273ffffffffffffffffffffffffffffffffffffffff168473ffffffffffffffffffffffffffffffffffffffff167fddf252ad1be2c89b69c2b068fc378daa952ba7f163c4a11628f55a4df523b3ef60405160405180910390a46117928383836001611c46565b505050565b6117a16001610ba2565b73ffffffffffffffffffffffffffffffffffffffff163373ffffffffffffffffffffffffffffffffffffffff161461180e576040517f08c379a0000000000000000000000000000000000000000000000000000000008152600401611805906131ff565b60405180910390fd5b61181781611c4c565b50565b60006067600083815260200190815260200160002060009054906101000a900473ffffffffffffffffffffffffffffffffffffffff169050919050565b8173ffffffffffffffffffffffffffffffffffffffff168373ffffffffffffffffffffffffffffffffffffffff16036118c5576040517f08c379a00000000000000000000000000000000000000000000000000000000081526004016118bc906139e6565b60405180910390fd5b80606a60008573ffffffffffffffffffffffffffffffffffffffff1673ffffffffffffffffffffffffffffffffffffffff16815260200190815260200160002060008473ffffffffffffffffffffffffffffffffffffffff1673ffffffffffffffffffffffffffffffffffffffff16815260200190815260200160002060006101000a81548160ff0219169083151502179055508173ffffffffffffffffffffffffffffffffffffffff168373ffffffffffffffffffffffffffffffffffffffff167f17307eab39ab6107e8899845ad3d59bd9653f200f220920489ca2b5937696c31836040516119b69190612542565b60405180910390a3505050565b6119ce84848461149e565b6119da84848484611c9f565b611a19576040517f08c379a0000000000000000000000000000000000000000000000000000000008152600401611a1090613a78565b60405180910390fd5b50505050565b6060611a2a826111a1565b6000609760008481526020019081526020016000208054611a4a90612dc5565b80601f0160208091040260200160405190810160405280929190818152602001828054611a7690612dc5565b8015611ac35780601f10611a9857610100808354040283529160200191611ac3565b820191906000526020600020905b815481529060010190602001808311611aa657829003601f168201915b505050505090506000611ad4611e26565b90506000815103611ae9578192505050611b2c565b600082511115611b1e578082604051602001611b06929190613ad4565b60405160208183030381529060405292505050611b2c565b611b2784611e3d565b925050505b919050565b60008073ffffffffffffffffffffffffffffffffffffffff16611b538361181a565b73ffffffffffffffffffffffffffffffffffffffff1614159050919050565b600060019054906101000a900460ff16611bc1576040517f08c379a0000000000000000000000000000000000000000000000000000000008152600401611bb890613550565b60405180910390fd5b8160659081611bd091906137a4565b508060669081611be091906137a4565b505050565b611bef8383611ea5565b611bfc6000848484611c9f565b611c3b576040517f08c379a0000000000000000000000000000000000000000000000000000000008152600401611c3290613a78565b60405180910390fd5b505050565b50505050565b50505050565b611c55816120c2565b6000609760008381526020019081526020016000208054611c7590612dc5565b905014611c9c57609760008281526020019081526020016000206000611c9b9190612431565b5b50565b6000611cc08473ffffffffffffffffffffffffffffffffffffffff166112ad565b15611e19578373ffffffffffffffffffffffffffffffffffffffff1663150b7a02611ce96111ec565b8786866040518563ffffffff1660e01b8152600401611d0b9493929190613b4d565b6020604051808303816000875af1925050508015611d4757506040513d601f19601f82011682018060405250810190611d449190613bae565b60015b611dc9573d8060008114611d77576040519150601f19603f3d011682016040523d82523d6000602084013e611d7c565b606091505b506000815103611dc1576040517f08c379a0000000000000000000000000000000000000000000000000000000008152600401611db890613a78565b60405180910390fd5b805181602001fd5b63150b7a0260e01b7bffffffffffffffffffffffffffffffffffffffffffffffffffffffff1916817bffffffffffffffffffffffffffffffffffffffffffffffffffffffff191614915050611e1e565b600190505b949350505050565b606060405180602001604052806000815250905090565b6060611e48826111a1565b6000611e52611e26565b90506000815111611e725760405180602001604052806000815250611e9d565b80611e7c84612210565b604051602001611e8d929190613ad4565b6040516020818303038152906040525b915050919050565b600073ffffffffffffffffffffffffffffffffffffffff168273ffffffffffffffffffffffffffffffffffffffff1603611f14576040517f08c379a0000000000000000000000000000000000000000000000000000000008152600401611f0b90613c27565b60405180910390fd5b611f1d81611b31565b15611f5d576040517f08c379a0000000000000000000000000000000000000000000000000000000008152600401611f5490613c93565b60405180910390fd5b611f6b600083836001611c40565b611f7481611b31565b15611fb4576040517f08c379a0000000000000000000000000000000000000000000000000000000008152600401611fab90613c93565b60405180910390fd5b6001606860008473ffffffffffffffffffffffffffffffffffffffff1673ffffffffffffffffffffffffffffffffffffffff16815260200190815260200160002060008282540192505081905550816067600083815260200190815260200160002060006101000a81548173ffffffffffffffffffffffffffffffffffffffff021916908373ffffffffffffffffffffffffffffffffffffffff160217905550808273ffffffffffffffffffffffffffffffffffffffff16600073ffffffffffffffffffffffffffffffffffffffff167fddf252ad1be2c89b69c2b068fc378daa952ba7f163c4a11628f55a4df523b3ef60405160405180910390a46120be600083836001611c46565b5050565b60006120cd82610ba2565b90506120dd816000846001611c40565b6120e682610ba2565b90506069600083815260200190815260200160002060006101000a81549073ffffffffffffffffffffffffffffffffffffffff02191690556001606860008373ffffffffffffffffffffffffffffffffffffffff1673ffffffffffffffffffffffffffffffffffffffff168152602001908152602001600020600082825403925050819055506067600083815260200190815260200160002060006101000a81549073ffffffffffffffffffffffffffffffffffffffff021916905581600073ffffffffffffffffffffffffffffffffffffffff168273ffffffffffffffffffffffffffffffffffffffff167fddf252ad1be2c89b69c2b068fc378daa952ba7f163c4a11628f55a4df523b3ef60405160405180910390a461220c816000846001611c46565b5050565b60606000600161221f846122de565b01905060008167ffffffffffffffff81111561223e5761223d6127a4565b5b6040519080825280601f01601f1916602001820160405280156122705781602001600182028036833780820191505090505b509050600082602001820190505b6001156122d3578080600190039150507f3031323334353637383961626364656600000000000000000000000000000000600a86061a8153600a85816122c7576122c6613cb3565b5b0494506000850361227e575b819350505050919050565b600080600090507a184f03e93ff9f4daa797ed6e38ed64bf6a1f010000000000000000831061233c577a184f03e93ff9f4daa797ed6e38ed64bf6a1f010000000000000000838161233257612331613cb3565b5b0492506040810190505b6d04ee2d6d415b85acef81000000008310612379576d04ee2d6d415b85acef8100000000838161236f5761236e613cb3565b5b0492506020810190505b662386f26fc1000083106123a857662386f26fc10000838161239e5761239d613cb3565b5b0492506010810190505b6305f5e10083106123d1576305f5e10083816123c7576123c6613cb3565b5b0492506008810190505b61271083106123f65761271083816123ec576123eb613cb3565b5b0492506004810190505b60648310612419576064838161240f5761240e613cb3565b5b0492506002810190505b600a8310612428576001810190505b80915050919050565b50805461243d90612dc5565b6000825580601f1061244f575061246e565b601f01602090049060005260206000209081019061246d9190612471565b5b50565b5b8082111561248a576000816000905550600101612472565b5090565b6000604051905090565b600080fd5b600080fd5b60007fffffffff0000000000000000000000000000000000000000000000000000000082169050919050565b6124d7816124a2565b81146124e257600080fd5b50565b6000813590506124f4816124ce565b92915050565b6000602082840312156125105761250f612498565b5b600061251e848285016124e5565b91505092915050565b60008115159050919050565b61253c81612527565b82525050565b60006020820190506125576000830184612533565b92915050565b600081519050919050565b600082825260208201905092915050565b60005b8381101561259757808201518184015260208101905061257c565b60008484015250505050565b6000601f19601f8301169050919050565b60006125bf8261255d565b6125c98185612568565b93506125d9818560208601612579565b6125e2816125a3565b840191505092915050565b6000602082019050818103600083015261260781846125b4565b905092915050565b6000819050919050565b6126228161260f565b811461262d57600080fd5b50565b60008135905061263f81612619565b92915050565b60006020828403121561265b5761265a612498565b5b600061266984828501612630565b91505092915050565b600073ffffffffffffffffffffffffffffffffffffffff82169050919050565b600061269d82612672565b9050919050565b6126ad81612692565b82525050565b60006020820190506126c860008301846126a4565b92915050565b6126d781612692565b81146126e257600080fd5b50565b6000813590506126f4816126ce565b92915050565b6000806040838503121561271157612710612498565b5b600061271f858286016126e5565b925050602061273085828601612630565b9150509250929050565b600080fd5b600080fd5b600080fd5b60008083601f84011261275f5761275e61273a565b5b8235905067ffffffffffffffff81111561277c5761277b61273f565b5b60208301915083600182028301111561279857612797612744565b5b9250929050565b600080fd5b7f4e487b7100000000000000000000000000000000000000000000000000000000600052604160045260246000fd5b6127dc826125a3565b810181811067ffffffffffffffff821117156127fb576127fa6127a4565b5b80604052505050565b600061280e61248e565b905061281a82826127d3565b919050565b600067ffffffffffffffff82111561283a576128396127a4565b5b612843826125a3565b9050602081019050919050565b82818337600083830152505050565b600061287261286d8461281f565b612804565b90508281526020810184848401111561288e5761288d61279f565b5b612899848285612850565b509392505050565b600082601f8301126128b6576128b561273a565b5b81356128c684826020860161285f565b91505092915050565b600080600080600080600060a0888a0312156128ee576128ed612498565b5b60006128fc8a828b016126e5565b975050602088013567ffffffffffffffff81111561291d5761291c61249d565b5b6129298a828b01612749565b9650965050604088013567ffffffffffffffff81111561294c5761294b61249d565b5b6129588a828b01612749565b9450945050606061296b8a828b016126e5565b925050608088013567ffffffffffffffff81111561298c5761298b61249d565b5b6129988a828b016128a1565b91505092959891949750929550565b6000806000606084860312156129c0576129bf612498565b5b60006129ce868287016126e5565b93505060206129df868287016126e5565b92505060406129f086828701612630565b9150509250925092565b600060208284031215612a1057612a0f612498565b5b6000612a1e848285016126e5565b91505092915050565b612a308161260f565b82525050565b6000602082019050612a4b6000830184612a27565b92915050565b612a5a81612527565b8114612a6557600080fd5b50565b600081359050612a7781612a51565b92915050565b60008060408385031215612a9457612a93612498565b5b6000612aa2858286016126e5565b9250506020612ab385828601612a68565b9150509250929050565b600081519050919050565b600082825260208201905092915050565b6000819050602082019050919050565b612af281612692565b82525050565b6000612b048383612ae9565b60208301905092915050565b6000602082019050919050565b6000612b2882612abd565b612b328185612ac8565b9350612b3d83612ad9565b8060005b83811015612b6e578151612b558882612af8565b9750612b6083612b10565b925050600181019050612b41565b5085935050505092915050565b60006020820190508181036000830152612b958184612b1d565b905092915050565b600067ffffffffffffffff821115612bb857612bb76127a4565b5b612bc1826125a3565b9050602081019050919050565b6000612be1612bdc84612b9d565b612804565b905082815260208101848484011115612bfd57612bfc61279f565b5b612c08848285612850565b509392505050565b600082601f830112612c2557612c2461273a565b5b8135612c35848260208601612bce565b91505092915050565b60008060008060808587031215612c5857612c57612498565b5b6000612c66878288016126e5565b9450506020612c77878288016126e5565b9350506040612c8887828801612630565b925050606085013567ffffffffffffffff811115612ca957612ca861249d565b5b612cb587828801612c10565b91505092959194509250565b600080600080600060608688031215612cdd57612cdc612498565b5b600086013567ffffffffffffffff811115612cfb57612cfa61249d565b5b612d0788828901612749565b9550955050602086013567ffffffffffffffff811115612d2a57612d2961249d565b5b612d3688828901612749565b93509350506040612d4988828901612630565b9150509295509295909350565b60008060408385031215612d6d57612d6c612498565b5b6000612d7b858286016126e5565b9250506020612d8c858286016126e5565b9150509250929050565b7f4e487b7100000000000000000000000000000000000000000000000000000000600052602260045260246000fd5b60006002820490506001821680612ddd57607f821691505b602082108103612df057612def612d96565b5b50919050565b7f4552433732313a20617070726f76616c20746f2063757272656e74206f776e6560008201527f7200000000000000000000000000000000000000000000000000000000000000602082015250565b6000612e52602183612568565b9150612e5d82612df6565b604082019050919050565b60006020820190508181036000830152612e8181612e45565b9050919050565b7f4552433732313a20617070726f76652063616c6c6572206973206e6f7420746f60008201527f6b656e206f776e6572206f7220617070726f76656420666f7220616c6c000000602082015250565b6000612ee4603d83612568565b9150612eef82612e88565b604082019050919050565b60006020820190508181036000830152612f1381612ed7565b9050919050565b7f496e697469616c697a61626c653a20636f6e747261637420697320616c72656160008201527f647920696e697469616c697a6564000000000000000000000000000000000000602082015250565b6000612f76602e83612568565b9150612f8182612f1a565b604082019050919050565b60006020820190508181036000830152612fa581612f69565b9050919050565b7f496e76616c6964204e4654206f776e65723a207a65726f20616464726573732060008201527f6e6f742076616c69642100000000000000000000000000000000000000000000602082015250565b6000613008602a83612568565b915061301382612fac565b604082019050919050565b6000602082019050818103600083015261303781612ffb565b9050919050565b600061304a8385612568565b9350613057838584612850565b613060836125a3565b840190509392505050565b6000606082019050818103600083015261308681878961303e565b9050818103602083015261309b81858761303e565b90506130aa60408301846126a4565b9695505050505050565b6000819050919050565b600060ff82169050919050565b6000819050919050565b60006130f06130eb6130e6846130b4565b6130cb565b6130be565b9050919050565b613100816130d5565b82525050565b600060208201905061311b60008301846130f7565b92915050565b7f4552433732313a2063616c6c6572206973206e6f7420746f6b656e206f776e6560008201527f72206f7220617070726f76656400000000000000000000000000000000000000602082015250565b600061317d602d83612568565b915061318882613121565b604082019050919050565b600060208201905081810360008301526131ac81613170565b9050919050565b7f4e6f7420746865204e4654206f776e6572210000000000000000000000000000600082015250565b60006131e9601283612568565b91506131f4826131b3565b602082019050919050565b60006020820190508181036000830152613218816131dc565b9050919050565b7f4552433732313a20696e76616c696420746f6b656e2049440000000000000000600082015250565b6000613255601883612568565b91506132608261321f565b602082019050919050565b6000602082019050818103600083015261328481613248565b9050919050565b7f4552433732313a2061646472657373207a65726f206973206e6f74206120766160008201527f6c6964206f776e65720000000000000000000000000000000000000000000000602082015250565b60006132e7602983612568565b91506132f28261328b565b604082019050919050565b60006020820190508181036000830152613316816132da565b9050919050565b7f43617020616e6420696e697469616c20737570706c79206e6f742076616c6964600082015250565b6000613353602083612568565b915061335e8261331d565b602082019050919050565b6000602082019050818103600083015261338281613346565b9050919050565b600060808201905081810360008301526133a481888a61303e565b905081810360208301526133b981868861303e565b90506133c860408301856126a4565b6133d56060830184612a27565b979650505050505050565b6000815190506133ef816126ce565b92915050565b60006020828403121561340b5761340a612498565b5b6000613419848285016133e0565b91505092915050565b6000819050919050565b600061344761344261343d84613422565b6130cb565b61260f565b9050919050565b6134578161342c565b82525050565b600060e0820190508181036000830152613478818b8d61303e565b9050818103602083015261348d81898b61303e565b905061349c60408301886126a4565b6134a960608301876126a4565b6134b660808301866126a4565b6134c360a083018561344e565b6134d060c0830184612a27565b9a9950505050505050505050565b7f496e697469616c697a61626c653a20636f6e7472616374206973206e6f74206960008201527f6e697469616c697a696e67000000000000000000000000000000000000000000602082015250565b600061353a602b83612568565b9150613545826134de565b604082019050919050565b600060208201905081810360008301526135698161352d565b9050919050565b7f45524337323155524953746f726167653a2055524920736574206f66206e6f6e60008201527f6578697374656e7420746f6b656e000000000000000000000000000000000000602082015250565b60006135cc602e83612568565b91506135d782613570565b604082019050919050565b600060208201905081810360008301526135fb816135bf565b9050919050565b60008190508160005260206000209050919050565b60006020601f8301049050919050565b600082821b905092915050565b6000600883026136647fffffffffffffffffffffffffffffffffffffffffffffffffffffffffffffffff82613627565b61366e8683613627565b95508019841693508086168417925050509392505050565b60006136a161369c6136978461260f565b6130cb565b61260f565b9050919050565b6000819050919050565b6136bb83613686565b6136cf6136c7826136a8565b848454613634565b825550505050565b600090565b6136e46136d7565b6136ef8184846136b2565b505050565b5b81811015613713576137086000826136dc565b6001810190506136f5565b5050565b601f8211156137585761372981613602565b61373284613617565b81016020851015613741578190505b61375561374d85613617565b8301826136f4565b50505b505050565b600082821c905092915050565b600061377b6000198460080261375d565b1980831691505092915050565b6000613794838361376a565b9150826002028217905092915050565b6137ad8261255d565b67ffffffffffffffff8111156137c6576137c56127a4565b5b6137d08254612dc5565b6137db828285613717565b600060209050601f83116001811461380e57600084156137fc578287015190505b6138068582613788565b86555061386e565b601f19841661381c86613602565b60005b828110156138445784890151825560018201915060208501945060208101905061381f565b86831015613861578489015161385d601f89168261376a565b8355505b6001600288020188555050505b505050505050565b7f4552433732313a207472616e736665722066726f6d20696e636f72726563742060008201527f6f776e6572000000000000000000000000000000000000000000000000000000602082015250565b60006138d2602583612568565b91506138dd82613876565b604082019050919050565b60006020820190508181036000830152613901816138c5565b9050919050565b7f4552433732313a207472616e7366657220746f20746865207a65726f2061646460008201527f7265737300000000000000000000000000000000000000000000000000000000602082015250565b6000613964602483612568565b915061396f82613908565b604082019050919050565b6000602082019050818103600083015261399381613957565b9050919050565b7f4552433732313a20617070726f766520746f2063616c6c657200000000000000600082015250565b60006139d0601983612568565b91506139db8261399a565b602082019050919050565b600060208201905081810360008301526139ff816139c3565b9050919050565b7f4552433732313a207472616e7366657220746f206e6f6e20455243373231526560008201527f63656976657220696d706c656d656e7465720000000000000000000000000000602082015250565b6000613a62603283612568565b9150613a6d82613a06565b604082019050919050565b60006020820190508181036000830152613a9181613a55565b9050919050565b600081905092915050565b6000613aae8261255d565b613ab88185613a98565b9350613ac8818560208601612579565b80840191505092915050565b6000613ae08285613aa3565b9150613aec8284613aa3565b91508190509392505050565b600081519050919050565b600082825260208201905092915050565b6000613b1f82613af8565b613b298185613b03565b9350613b39818560208601612579565b613b42816125a3565b840191505092915050565b6000608082019050613b6260008301876126a4565b613b6f60208301866126a4565b613b7c6040830185612a27565b8181036060830152613b8e8184613b14565b905095945050505050565b600081519050613ba8816124ce565b92915050565b600060208284031215613bc457613bc3612498565b5b6000613bd284828501613b99565b91505092915050565b7f4552433732313a206d696e7420746f20746865207a65726f2061646472657373600082015250565b6000613c11602083612568565b9150613c1c82613bdb565b602082019050919050565b60006020820190508181036000830152613c4081613c04565b9050919050565b7f4552433732313a20746f6b656e20616c7265616479206d696e74656400000000600082015250565b6000613c7d601c83612568565b9150613c8882613c47565b602082019050919050565b60006020820190508181036000830152613cac81613c70565b9050919050565b7f4e487b7100000000000000000000000000000000000000000000000000000000600052601260045260246000fdfea2646970667358221220d523fa47ef062535def007b831b26e0eca2754350c25b9331d9269f1bbb9018764736f6c63430008120033",
  "linkReferences": {},
  "deployedLinkReferences": {}
}