{
  "_format": "hh-sol-artifact-1",
  "contractName": "ERC721Base",
  "sourceName": "contracts/ERC721Base.sol",
  "abi": [
    {
      "anonymous": false,
      "inputs": [
        {
          "indexed": true,
          "internalType": "address",
          "name": "owner",
          "type": "address"
        },
        {
          "indexed": true,
          "internalType": "address",
          "name": "approved",
          "type": "address"
        },
        {
          "indexed": true,
          "internalType": "uint256",
          "name": "tokenId",
          "type": "uint256"
        }
      ],
      "name": "Approval",
      "type": "event"
    },
    {
      "anonymous": false,
      "inputs": [
        {
          "indexed": true,
          "internalType": "address",
          "name": "owner",
          "type": "address"
        },
        {
          "indexed": true,
          "internalType": "address",
          "name": "operator",
          "type": "address"
        },
        {
          "indexed": false,
          "internalType": "bool",
          "name": "approved",
          "type": "bool"
        }
      ],
      "name": "ApprovalForAll",
      "type": "event"
    },
    {
      "anonymous": false,
      "inputs": [
        {
          "indexed": false,
          "internalType": "uint8",
          "name": "version",
          "type": "uint8"
        }
      ],
      "name": "Initialized",
      "type": "event"
    },
    {
      "anonymous": false,
      "inputs": [
        {
          "indexed": true,
          "internalType": "address",
          "name": "owner",
          "type": "address"
        },
        {
          "indexed": false,
          "internalType": "string",
          "name": "name",
          "type": "string"
        },
        {
          "indexed": false,
          "internalType": "string",
          "name": "symbol",
          "type": "string"
        },
        {
          "indexed": false,
          "internalType": "address",
          "name": "factory",
          "type": "address"
        }
      ],
      "name": "NFTminted",
      "type": "event"
    },
    {
      "anonymous": false,
      "inputs": [
        {
          "indexed": true,
          "internalType": "address",
          "name": "owner",
          "type": "address"
        },
        {
          "indexed": false,
          "internalType": "string",
          "name": "name",
          "type": "string"
        },
        {
          "indexed": false,
          "internalType": "string",
          "name": "symbol",
          "type": "string"
        },
        {
          "indexed": false,
          "internalType": "uint256",
          "name": "oldPrice",
          "type": "uint256"
        },
        {
          "indexed": false,
          "internalType": "uint256",
          "name": "newPrice",
          "type": "uint256"
        }
      ],
      "name": "NFTpriceUpdated",
      "type": "event"
    },
    {
      "anonymous": false,
      "inputs": [
        {
          "indexed": false,
          "internalType": "string",
          "name": "name",
          "type": "string"
        },
        {
          "indexed": false,
          "internalType": "string",
          "name": "symbol",
          "type": "string"
        },
        {
          "indexed": false,
          "internalType": "address",
          "name": "owner",
          "type": "address"
        },
        {
          "indexed": false,
          "internalType": "address",
          "name": "erc721address_",
          "type": "address"
        },
        {
          "indexed": false,
          "internalType": "address",
          "name": "newERC20Address",
          "type": "address"
        },
        {
          "indexed": false,
          "internalType": "uint256",
          "name": "maxSupply_",
          "type": "uint256"
        },
        {
          "indexed": false,
          "internalType": "uint256",
          "name": "initialSupply_",
          "type": "uint256"
        }
      ],
      "name": "TokenCreated",
      "type": "event"
    },
    {
      "anonymous": false,
      "inputs": [
        {
          "indexed": true,
          "internalType": "address",
          "name": "from",
          "type": "address"
        },
        {
          "indexed": true,
          "internalType": "address",
          "name": "to",
          "type": "address"
        },
        {
          "indexed": true,
          "internalType": "uint256",
          "name": "tokenId",
          "type": "uint256"
        }
      ],
      "name": "Transfer",
      "type": "event"
    },
    {
      "stateMutability": "payable",
      "type": "fallback"
    },
    {
      "inputs": [
        {
          "internalType": "address",
          "name": "to",
          "type": "address"
        },
        {
          "internalType": "uint256",
          "name": "tokenId",
          "type": "uint256"
        }
      ],
      "name": "approve",
      "outputs": [],
      "stateMutability": "nonpayable",
      "type": "function"
    },
    {
      "inputs": [
        {
          "internalType": "address",
          "name": "owner",
          "type": "address"
        }
      ],
      "name": "balanceOf",
      "outputs": [
        {
          "internalType": "uint256",
          "name": "",
          "type": "uint256"
        }
      ],
      "stateMutability": "view",
      "type": "function"
    },
    {
      "inputs": [
        {
          "internalType": "uint256",
          "name": "tokenId",
          "type": "uint256"
        }
      ],
      "name": "buyNFT",
      "outputs": [],
      "stateMutability": "payable",
      "type": "function"
    },
    {
      "inputs": [
        {
          "internalType": "string",
          "name": "name",
          "type": "string"
        },
        {
          "internalType": "string",
          "name": "symbol",
          "type": "string"
        },
        {
          "internalType": "uint256",
          "name": "maxSupply_",
          "type": "uint256"
        },
        {
          "internalType": "uint256",
          "name": "initialSupply_",
          "type": "uint256"
        }
      ],
      "name": "createDataToken",
      "outputs": [
        {
          "internalType": "address",
          "name": "erc20token",
          "type": "address"
        }
      ],
      "stateMutability": "nonpayable",
      "type": "function"
    },
    {
      "inputs": [
        {
          "internalType": "uint256",
          "name": "tokenId",
          "type": "uint256"
        }
      ],
      "name": "getApproved",
      "outputs": [
        {
          "internalType": "address",
          "name": "",
          "type": "address"
        }
      ],
      "stateMutability": "view",
      "type": "function"
    },
    {
      "inputs": [],
      "name": "getDTaddress",
      "outputs": [
        {
          "internalType": "address",
          "name": "erc20address",
          "type": "address"
        }
      ],
      "stateMutability": "view",
      "type": "function"
    },
    {
      "inputs": [],
      "name": "getNFTname",
      "outputs": [
        {
          "internalType": "string",
          "name": "",
          "type": "string"
        }
      ],
      "stateMutability": "view",
      "type": "function"
    },
    {
      "inputs": [],
      "name": "getNFTowner",
      "outputs": [
        {
          "internalType": "address",
          "name": "owner",
          "type": "address"
        }
      ],
      "stateMutability": "view",
      "type": "function"
    },
    {
      "inputs": [],
      "name": "getNFTprice",
      "outputs": [
        {
          "internalType": "uint256",
          "name": "",
          "type": "uint256"
        }
      ],
      "stateMutability": "view",
      "type": "function"
    },
    {
      "inputs": [],
      "name": "getNFTsymbol",
      "outputs": [
        {
          "internalType": "string",
          "name": "",
          "type": "string"
        }
      ],
      "stateMutability": "view",
      "type": "function"
    },
    {
      "inputs": [
        {
          "internalType": "address",
          "name": "owner",
          "type": "address"
        },
        {
          "internalType": "string",
          "name": "name",
          "type": "string"
        },
        {
          "internalType": "string",
          "name": "symbol",
          "type": "string"
        },
        {
          "internalType": "address",
          "name": "factory",
          "type": "address"
        },
        {
          "internalType": "string",
          "name": "_tokenURI",
          "type": "string"
        },
        {
          "internalType": "uint256",
          "name": "initialPrice",
          "type": "uint256"
        }
      ],
      "name": "initialize",
      "outputs": [],
      "stateMutability": "nonpayable",
      "type": "function"
    },
    {
      "inputs": [
        {
          "internalType": "address",
          "name": "owner",
          "type": "address"
        },
        {
          "internalType": "address",
          "name": "operator",
          "type": "address"
        }
      ],
      "name": "isApprovedForAll",
      "outputs": [
        {
          "internalType": "bool",
          "name": "",
          "type": "bool"
        }
      ],
      "stateMutability": "view",
      "type": "function"
    },
    {
      "inputs": [],
      "name": "name",
      "outputs": [
        {
          "internalType": "string",
          "name": "",
          "type": "string"
        }
      ],
      "stateMutability": "view",
      "type": "function"
    },
    {
      "inputs": [
        {
          "internalType": "uint256",
          "name": "tokenId",
          "type": "uint256"
        }
      ],
      "name": "ownerOf",
      "outputs": [
        {
          "internalType": "address",
          "name": "",
          "type": "address"
        }
      ],
      "stateMutability": "view",
      "type": "function"
    },
    {
      "inputs": [
        {
          "internalType": "address",
          "name": "from",
          "type": "address"
        },
        {
          "internalType": "address",
          "name": "to",
          "type": "address"
        },
        {
          "internalType": "uint256",
          "name": "tokenId",
          "type": "uint256"
        }
      ],
      "name": "safeTransferFrom",
      "outputs": [],
      "stateMutability": "nonpayable",
      "type": "function"
    },
    {
      "inputs": [
        {
          "internalType": "address",
          "name": "from",
          "type": "address"
        },
        {
          "internalType": "address",
          "name": "to",
          "type": "address"
        },
        {
          "internalType": "uint256",
          "name": "tokenId",
          "type": "uint256"
        },
        {
          "internalType": "bytes",
          "name": "data",
          "type": "bytes"
        }
      ],
      "name": "safeTransferFrom",
      "outputs": [],
      "stateMutability": "nonpayable",
      "type": "function"
    },
    {
      "inputs": [
        {
          "internalType": "address",
          "name": "operator",
          "type": "address"
        },
        {
          "internalType": "bool",
          "name": "approved",
          "type": "bool"
        }
      ],
      "name": "setApprovalForAll",
      "outputs": [],
      "stateMutability": "nonpayable",
      "type": "function"
    },
    {
      "inputs": [
        {
          "internalType": "uint256",
          "name": "price_",
          "type": "uint256"
        }
      ],
      "name": "setPrice",
      "outputs": [],
      "stateMutability": "nonpayable",
      "type": "function"
    },
    {
      "inputs": [
        {
          "internalType": "bytes4",
          "name": "interfaceId",
          "type": "bytes4"
        }
      ],
      "name": "supportsInterface",
      "outputs": [
        {
          "internalType": "bool",
          "name": "",
          "type": "bool"
        }
      ],
      "stateMutability": "view",
      "type": "function"
    },
    {
      "inputs": [],
      "name": "symbol",
      "outputs": [
        {
          "internalType": "string",
          "name": "",
          "type": "string"
        }
      ],
      "stateMutability": "view",
      "type": "function"
    },
    {
      "inputs": [
        {
          "internalType": "uint256",
          "name": "tokenId",
          "type": "uint256"
        }
      ],
      "name": "tokenURI",
      "outputs": [
        {
          "internalType": "string",
          "name": "",
          "type": "string"
        }
      ],
      "stateMutability": "view",
      "type": "function"
    },
    {
      "inputs": [
        {
          "internalType": "address",
          "name": "from",
          "type": "address"
        },
        {
          "internalType": "address",
          "name": "to",
          "type": "address"
        },
        {
          "internalType": "uint256",
          "name": "tokenId",
          "type": "uint256"
        }
      ],
      "name": "transferFrom",
      "outputs": [],
      "stateMutability": "nonpayable",
      "type": "function"
    },
    {
      "stateMutability": "payable",
      "type": "receive"
    }
  ],
  "bytecode": "0x608060405234801561001057600080fd5b50613fe6806100206000396000f3fe6080604052600436106101395760003560e01c8063601cc24b116100ab578063a22cb4651161006f578063a22cb46514610421578063b0c5a7e51461044a578063b88d4fde14610487578063c87b56dd146104b0578063de9fdebe146104ed578063e985e9c51461051857610140565b8063601cc24b146103285780636352211e1461035357806370a082311461039057806391b7f5ed146103cd57806395d89b41146103f657610140565b80631ff95da9116100fd5780631ff95da91461023957806323b872dd146102645780633d38edac1461028d57806342842e0e146102b857806351ed8288146102e15780635245f3bd146102fd57610140565b806301eaaea21461014257806301ffc9a71461016b57806306fdde03146101a8578063081812fc146101d3578063095ea7b31461021057610140565b3661014057005b005b34801561014e57600080fd5b5061016960048036038101906101649190612772565b610555565b005b34801561017757600080fd5b50610192600480360381019061018d91906128b5565b61085e565b60405161019f91906128fd565b60405180910390f35b3480156101b457600080fd5b506101bd610940565b6040516101ca9190612997565b60405180910390f35b3480156101df57600080fd5b506101fa60048036038101906101f591906129b9565b6109d2565b60405161020791906129f5565b60405180910390f35b34801561021c57600080fd5b5061023760048036038101906102329190612a10565b610a18565b005b34801561024557600080fd5b5061024e610b2f565b60405161025b9190612a5f565b60405180910390f35b34801561027057600080fd5b5061028b60048036038101906102869190612a7a565b610b39565b005b34801561029957600080fd5b506102a2610b99565b6040516102af9190612997565b60405180910390f35b3480156102c457600080fd5b506102df60048036038101906102da9190612a7a565b610ba8565b005b6102fb60048036038101906102f691906129b9565b610bc8565b005b34801561030957600080fd5b50610312610d94565b60405161031f91906129f5565b60405180910390f35b34801561033457600080fd5b5061033d610da5565b60405161034a91906129f5565b60405180910390f35b34801561035f57600080fd5b5061037a600480360381019061037591906129b9565b610dec565b60405161038791906129f5565b60405180910390f35b34801561039c57600080fd5b506103b760048036038101906103b29190612acd565b610e72565b6040516103c49190612a5f565b60405180910390f35b3480156103d957600080fd5b506103f460048036038101906103ef91906129b9565b610f29565b005b34801561040257600080fd5b5061040b6110a7565b6040516104189190612997565b60405180910390f35b34801561042d57600080fd5b5061044860048036038101906104439190612b26565b611139565b005b34801561045657600080fd5b50610471600480360381019061046c9190612b66565b61114f565b60405161047e91906129f5565b60405180910390f35b34801561049357600080fd5b506104ae60048036038101906104a99190612ca6565b61136e565b005b3480156104bc57600080fd5b506104d760048036038101906104d291906129b9565b6113d0565b6040516104e49190612997565b60405180910390f35b3480156104f957600080fd5b506105026113e2565b60405161050f9190612997565b60405180910390f35b34801561052457600080fd5b5061053f600480360381019061053a9190612d29565b6113f1565b60405161054c91906128fd565b60405180910390f35b60008060019054906101000a900460ff161590508080156105865750600160008054906101000a900460ff1660ff16105b806105b3575061059530611485565b1580156105b25750600160008054906101000a900460ff1660ff16145b5b6105f2576040517f08c379a00000000000000000000000000000000000000000000000000000000081526004016105e990612ddb565b60405180910390fd5b60016000806101000a81548160ff021916908360ff160217905550801561062f576001600060016101000a81548160ff0219169083151502179055505b600073ffffffffffffffffffffffffffffffffffffffff168973ffffffffffffffffffffffffffffffffffffffff160361069e576040517f08c379a000000000000000000000000000000000000000000000000000000000815260040161069590612e6d565b60405180910390fd5b61073088888080601f016020809104026020016040519081016040528093929190818152602001838380828437600081840152601f19601f8201169050808301925050505050505087878080601f016020809104026020016040519081016040528093929190818152602001838380828437600081840152601f19601f820116905080830192505050505050506114a8565b8360c960006101000a81548173ffffffffffffffffffffffffffffffffffffffff021916908373ffffffffffffffffffffffffffffffffffffffff1602179055508160ca819055506107828984611505565b8873ffffffffffffffffffffffffffffffffffffffff167fd133d105f7b44671ec3a00c607590e7154adaafd2e0e9542b201374f293585198989898960c960009054906101000a900473ffffffffffffffffffffffffffffffffffffffff166040516107f2959493929190612eba565b60405180910390a280156108535760008060016101000a81548160ff0219169083151502179055507f7f26b83ff96e1f2b6a682f133852f6798a09c465da95921460cefb3847402498600160405161084a9190612f55565b60405180910390a15b505050505050505050565b60007f80ac58cd000000000000000000000000000000000000000000000000000000007bffffffffffffffffffffffffffffffffffffffffffffffffffffffff1916827bffffffffffffffffffffffffffffffffffffffffffffffffffffffff1916148061092957507f5b5e139f000000000000000000000000000000000000000000000000000000007bffffffffffffffffffffffffffffffffffffffffffffffffffffffff1916827bffffffffffffffffffffffffffffffffffffffffffffffffffffffff1916145b8061093957506109388261151f565b5b9050919050565b60606065805461094f90612f9f565b80601f016020809104026020016040519081016040528092919081815260200182805461097b90612f9f565b80156109c85780601f1061099d576101008083540402835291602001916109c8565b820191906000526020600020905b8154815290600101906020018083116109ab57829003601f168201915b5050505050905090565b60006109dd82611589565b6069600083815260200190815260200160002060009054906101000a900473ffffffffffffffffffffffffffffffffffffffff169050919050565b6000610a2382610dec565b90508073ffffffffffffffffffffffffffffffffffffffff168373ffffffffffffffffffffffffffffffffffffffff1603610a93576040517f08c379a0000000000000000000000000000000000000000000000000000000008152600401610a8a90613042565b60405180910390fd5b8073ffffffffffffffffffffffffffffffffffffffff16610ab26115d4565b73ffffffffffffffffffffffffffffffffffffffff161480610ae15750610ae081610adb6115d4565b6113f1565b5b610b20576040517f08c379a0000000000000000000000000000000000000000000000000000000008152600401610b17906130d4565b60405180910390fd5b610b2a83836115dc565b505050565b600060ca54905090565b610b4a610b446115d4565b82611695565b610b89576040517f08c379a0000000000000000000000000000000000000000000000000000000008152600401610b8090613166565b60405180910390fd5b610b9483838361172a565b505050565b6060610ba3610940565b905090565b610bc38383836040518060200160405280600081525061136e565b505050565b6000610bd46001610dec565b9050600073ffffffffffffffffffffffffffffffffffffffff163373ffffffffffffffffffffffffffffffffffffffff1603610c45576040517f08c379a0000000000000000000000000000000000000000000000000000000008152600401610c3c906131d2565b60405180910390fd5b8073ffffffffffffffffffffffffffffffffffffffff163373ffffffffffffffffffffffffffffffffffffffff1603610cb3576040517f08c379a0000000000000000000000000000000000000000000000000000000008152600401610caa9061323e565b60405180910390fd5b60018214610cf6576040517f08c379a0000000000000000000000000000000000000000000000000000000008152600401610ced906132aa565b60405180910390fd5b60ca54341015610d3b576040517f08c379a0000000000000000000000000000000000000000000000000000000008152600401610d329061333c565b60405180910390fd5b610d4681338461172a565b3390508073ffffffffffffffffffffffffffffffffffffffff166108fc349081150290604051600060405180830381858888f19350505050158015610d8f573d6000803e3d6000fd5b505050565b6000610da06001610dec565b905090565b600060cb600081548110610dbc57610dbb61335c565b5b9060005260206000200160009054906101000a900473ffffffffffffffffffffffffffffffffffffffff16905090565b600080610df883611a23565b9050600073ffffffffffffffffffffffffffffffffffffffff168173ffffffffffffffffffffffffffffffffffffffff1603610e69576040517f08c379a0000000000000000000000000000000000000000000000000000000008152600401610e60906133d7565b60405180910390fd5b80915050919050565b60008073ffffffffffffffffffffffffffffffffffffffff168273ffffffffffffffffffffffffffffffffffffffff1603610ee2576040517f08c379a0000000000000000000000000000000000000000000000000000000008152600401610ed990613469565b60405180910390fd5b606860008373ffffffffffffffffffffffffffffffffffffffff1673ffffffffffffffffffffffffffffffffffffffff168152602001908152602001600020549050919050565b610f336001610dec565b73ffffffffffffffffffffffffffffffffffffffff163373ffffffffffffffffffffffffffffffffffffffff1614610fa0576040517f08c379a0000000000000000000000000000000000000000000000000000000008152600401610f97906134d5565b60405180910390fd5b6000811015610fe4576040517f08c379a0000000000000000000000000000000000000000000000000000000008152600401610fdb90613541565b60405180910390fd5b60ca548103611028576040517f08c379a000000000000000000000000000000000000000000000000000000000815260040161101f906135ad565b60405180910390fd5b600060ca5490508160ca819055506110406001610dec565b73ffffffffffffffffffffffffffffffffffffffff167ff3d52d1a60d7d0ee4e16f5b72624fa05a825fdd27ea948202af49055aaa6064b61107f610940565b6110876110a7565b8460ca5460405161109b94939291906135cd565b60405180910390a25050565b6060606680546110b690612f9f565b80601f01602080910402602001604051908101604052809291908181526020018280546110e290612f9f565b801561112f5780601f106111045761010080835404028352916020019161112f565b820191906000526020600020905b81548152906001019060200180831161111257829003601f168201915b5050505050905090565b61114b6111446115d4565b8383611a60565b5050565b600061115b6001610dec565b73ffffffffffffffffffffffffffffffffffffffff163373ffffffffffffffffffffffffffffffffffffffff16146111c8576040517f08c379a00000000000000000000000000000000000000000000000000000000081526004016111bf906134d5565b60405180910390fd5b6000831180156111d9575060008210155b611218576040517f08c379a000000000000000000000000000000000000000000000000000000000815260040161120f9061366c565b60405180910390fd5b60c960009054906101000a900473ffffffffffffffffffffffffffffffffffffffff1673ffffffffffffffffffffffffffffffffffffffff1663afd69c8f86863386886040518663ffffffff1660e01b815260040161127b95949392919061368c565b6020604051808303816000875af115801561129a573d6000803e3d6000fd5b505050506040513d601f19601f820116820180604052508101906112be9190613702565b905060cb819080600181540180825580915050600190039060005260206000200160009091909190916101000a81548173ffffffffffffffffffffffffffffffffffffffff021916908373ffffffffffffffffffffffffffffffffffffffff1602179055507f7ded605ee5eb960743663ce41947ea21cc226061bd4323712c0cfd89117c5fc68585333085878960405161135e979695949392919061372f565b60405180910390a1949350505050565b61137f6113796115d4565b83611695565b6113be576040517f08c379a00000000000000000000000000000000000000000000000000000000081526004016113b590613166565b60405180910390fd5b6113ca84848484611bcc565b50505050565b60606113db82611c28565b9050919050565b60606113ec6110a7565b905090565b6000606a60008473ffffffffffffffffffffffffffffffffffffffff1673ffffffffffffffffffffffffffffffffffffffff16815260200190815260200160002060008373ffffffffffffffffffffffffffffffffffffffff1673ffffffffffffffffffffffffffffffffffffffff16815260200190815260200160002060009054906101000a900460ff16905092915050565b6000808273ffffffffffffffffffffffffffffffffffffffff163b119050919050565b600060019054906101000a900460ff166114f7576040517f08c379a00000000000000000000000000000000000000000000000000000000081526004016114ee9061381e565b60405180910390fd5b6115018282611d3a565b5050565b611510826001611dad565b61151b600182611dcb565b5050565b60007f01ffc9a7000000000000000000000000000000000000000000000000000000007bffffffffffffffffffffffffffffffffffffffffffffffffffffffff1916827bffffffffffffffffffffffffffffffffffffffffffffffffffffffff1916149050919050565b61159281611e38565b6115d1576040517f08c379a00000000000000000000000000000000000000000000000000000000081526004016115c8906133d7565b60405180910390fd5b50565b600033905090565b816069600083815260200190815260200160002060006101000a81548173ffffffffffffffffffffffffffffffffffffffff021916908373ffffffffffffffffffffffffffffffffffffffff160217905550808273ffffffffffffffffffffffffffffffffffffffff1661164f83610dec565b73ffffffffffffffffffffffffffffffffffffffff167f8c5be1e5ebec7d5bd14f71427d1e84f3dd0314c0f7b2291e5b200ac8c7c3b92560405160405180910390a45050565b6000806116a183610dec565b90508073ffffffffffffffffffffffffffffffffffffffff168473ffffffffffffffffffffffffffffffffffffffff1614806116e357506116e281856113f1565b5b8061172157508373ffffffffffffffffffffffffffffffffffffffff16611709846109d2565b73ffffffffffffffffffffffffffffffffffffffff16145b91505092915050565b8273ffffffffffffffffffffffffffffffffffffffff1661174a82610dec565b73ffffffffffffffffffffffffffffffffffffffff16146117a0576040517f08c379a0000000000000000000000000000000000000000000000000000000008152600401611797906138b0565b60405180910390fd5b600073ffffffffffffffffffffffffffffffffffffffff168273ffffffffffffffffffffffffffffffffffffffff160361180f576040517f08c379a000000000000000000000000000000000000000000000000000000000815260040161180690613942565b60405180910390fd5b61181c8383836001611e79565b8273ffffffffffffffffffffffffffffffffffffffff1661183c82610dec565b73ffffffffffffffffffffffffffffffffffffffff1614611892576040517f08c379a0000000000000000000000000000000000000000000000000000000008152600401611889906138b0565b60405180910390fd5b6069600082815260200190815260200160002060006101000a81549073ffffffffffffffffffffffffffffffffffffffff02191690556001606860008573ffffffffffffffffffffffffffffffffffffffff1673ffffffffffffffffffffffffffffffffffffffff168152602001908152602001600020600082825403925050819055506001606860008473ffffffffffffffffffffffffffffffffffffffff1673ffffffffffffffffffffffffffffffffffffffff16815260200190815260200160002060008282540192505081905550816067600083815260200190815260200160002060006101000a81548173ffffffffffffffffffffffffffffffffffffffff021916908373ffffffffffffffffffffffffffffffffffffffff160217905550808273ffffffffffffffffffffffffffffffffffffffff168473ffffffffffffffffffffffffffffffffffffffff167fddf252ad1be2c89b69c2b068fc378daa952ba7f163c4a11628f55a4df523b3ef60405160405180910390a4611a1e8383836001611e7f565b505050565b60006067600083815260200190815260200160002060009054906101000a900473ffffffffffffffffffffffffffffffffffffffff169050919050565b8173ffffffffffffffffffffffffffffffffffffffff168373ffffffffffffffffffffffffffffffffffffffff1603611ace576040517f08c379a0000000000000000000000000000000000000000000000000000000008152600401611ac5906139ae565b60405180910390fd5b80606a60008573ffffffffffffffffffffffffffffffffffffffff1673ffffffffffffffffffffffffffffffffffffffff16815260200190815260200160002060008473ffffffffffffffffffffffffffffffffffffffff1673ffffffffffffffffffffffffffffffffffffffff16815260200190815260200160002060006101000a81548160ff0219169083151502179055508173ffffffffffffffffffffffffffffffffffffffff168373ffffffffffffffffffffffffffffffffffffffff167f17307eab39ab6107e8899845ad3d59bd9653f200f220920489ca2b5937696c3183604051611bbf91906128fd565b60405180910390a3505050565b611bd784848461172a565b611be384848484611e85565b611c22576040517f08c379a0000000000000000000000000000000000000000000000000000000008152600401611c1990613a40565b60405180910390fd5b50505050565b6060611c3382611589565b6000609760008481526020019081526020016000208054611c5390612f9f565b80601f0160208091040260200160405190810160405280929190818152602001828054611c7f90612f9f565b8015611ccc5780601f10611ca157610100808354040283529160200191611ccc565b820191906000526020600020905b815481529060010190602001808311611caf57829003601f168201915b505050505090506000611cdd61200c565b90506000815103611cf2578192505050611d35565b600082511115611d27578082604051602001611d0f929190613a9c565b60405160208183030381529060405292505050611d35565b611d3084612023565b925050505b919050565b600060019054906101000a900460ff16611d89576040517f08c379a0000000000000000000000000000000000000000000000000000000008152600401611d809061381e565b60405180910390fd5b8160659081611d989190613c62565b508060669081611da89190613c62565b505050565b611dc782826040518060200160405280600081525061208b565b5050565b611dd482611e38565b611e13576040517f08c379a0000000000000000000000000000000000000000000000000000000008152600401611e0a90613da6565b60405180910390fd5b80609760008481526020019081526020016000209081611e339190613c62565b505050565b60008073ffffffffffffffffffffffffffffffffffffffff16611e5a83611a23565b73ffffffffffffffffffffffffffffffffffffffff1614159050919050565b50505050565b50505050565b6000611ea68473ffffffffffffffffffffffffffffffffffffffff16611485565b15611fff578373ffffffffffffffffffffffffffffffffffffffff1663150b7a02611ecf6115d4565b8786866040518563ffffffff1660e01b8152600401611ef19493929190613e1b565b6020604051808303816000875af1925050508015611f2d57506040513d601f19601f82011682018060405250810190611f2a9190613e7c565b60015b611faf573d8060008114611f5d576040519150601f19603f3d011682016040523d82523d6000602084013e611f62565b606091505b506000815103611fa7576040517f08c379a0000000000000000000000000000000000000000000000000000000008152600401611f9e90613a40565b60405180910390fd5b805181602001fd5b63150b7a0260e01b7bffffffffffffffffffffffffffffffffffffffffffffffffffffffff1916817bffffffffffffffffffffffffffffffffffffffffffffffffffffffff191614915050612004565b600190505b949350505050565b606060405180602001604052806000815250905090565b606061202e82611589565b600061203861200c565b905060008151116120585760405180602001604052806000815250612083565b80612062846120e6565b604051602001612073929190613a9c565b6040516020818303038152906040525b915050919050565b61209583836121b4565b6120a26000848484611e85565b6120e1576040517f08c379a00000000000000000000000000000000000000000000000000000000081526004016120d890613a40565b60405180910390fd5b505050565b6060600060016120f5846123d1565b01905060008167ffffffffffffffff81111561211457612113612611565b5b6040519080825280601f01601f1916602001820160405280156121465781602001600182028036833780820191505090505b509050600082602001820190505b6001156121a9578080600190039150507f3031323334353637383961626364656600000000000000000000000000000000600a86061a8153600a858161219d5761219c613ea9565b5b04945060008503612154575b819350505050919050565b600073ffffffffffffffffffffffffffffffffffffffff168273ffffffffffffffffffffffffffffffffffffffff1603612223576040517f08c379a000000000000000000000000000000000000000000000000000000000815260040161221a90613f24565b60405180910390fd5b61222c81611e38565b1561226c576040517f08c379a000000000000000000000000000000000000000000000000000000000815260040161226390613f90565b60405180910390fd5b61227a600083836001611e79565b61228381611e38565b156122c3576040517f08c379a00000000000000000000000000000000000000000000000000000000081526004016122ba90613f90565b60405180910390fd5b6001606860008473ffffffffffffffffffffffffffffffffffffffff1673ffffffffffffffffffffffffffffffffffffffff16815260200190815260200160002060008282540192505081905550816067600083815260200190815260200160002060006101000a81548173ffffffffffffffffffffffffffffffffffffffff021916908373ffffffffffffffffffffffffffffffffffffffff160217905550808273ffffffffffffffffffffffffffffffffffffffff16600073ffffffffffffffffffffffffffffffffffffffff167fddf252ad1be2c89b69c2b068fc378daa952ba7f163c4a11628f55a4df523b3ef60405160405180910390a46123cd600083836001611e7f565b5050565b600080600090507a184f03e93ff9f4daa797ed6e38ed64bf6a1f010000000000000000831061242f577a184f03e93ff9f4daa797ed6e38ed64bf6a1f010000000000000000838161242557612424613ea9565b5b0492506040810190505b6d04ee2d6d415b85acef8100000000831061246c576d04ee2d6d415b85acef8100000000838161246257612461613ea9565b5b0492506020810190505b662386f26fc10000831061249b57662386f26fc10000838161249157612490613ea9565b5b0492506010810190505b6305f5e10083106124c4576305f5e10083816124ba576124b9613ea9565b5b0492506008810190505b61271083106124e95761271083816124df576124de613ea9565b5b0492506004810190505b6064831061250c576064838161250257612501613ea9565b5b0492506002810190505b600a831061251b576001810190505b80915050919050565b6000604051905090565b600080fd5b600080fd5b600073ffffffffffffffffffffffffffffffffffffffff82169050919050565b600061256382612538565b9050919050565b61257381612558565b811461257e57600080fd5b50565b6000813590506125908161256a565b92915050565b600080fd5b600080fd5b600080fd5b60008083601f8401126125bb576125ba612596565b5b8235905067ffffffffffffffff8111156125d8576125d761259b565b5b6020830191508360018202830111156125f4576125f36125a0565b5b9250929050565b600080fd5b6000601f19601f8301169050919050565b7f4e487b7100000000000000000000000000000000000000000000000000000000600052604160045260246000fd5b61264982612600565b810181811067ffffffffffffffff8211171561266857612667612611565b5b80604052505050565b600061267b612524565b90506126878282612640565b919050565b600067ffffffffffffffff8211156126a7576126a6612611565b5b6126b082612600565b9050602081019050919050565b82818337600083830152505050565b60006126df6126da8461268c565b612671565b9050828152602081018484840111156126fb576126fa6125fb565b5b6127068482856126bd565b509392505050565b600082601f83011261272357612722612596565b5b81356127338482602086016126cc565b91505092915050565b6000819050919050565b61274f8161273c565b811461275a57600080fd5b50565b60008135905061276c81612746565b92915050565b60008060008060008060008060c0898b0312156127925761279161252e565b5b60006127a08b828c01612581565b985050602089013567ffffffffffffffff8111156127c1576127c0612533565b5b6127cd8b828c016125a5565b9750975050604089013567ffffffffffffffff8111156127f0576127ef612533565b5b6127fc8b828c016125a5565b9550955050606061280f8b828c01612581565b935050608089013567ffffffffffffffff8111156128305761282f612533565b5b61283c8b828c0161270e565b92505060a061284d8b828c0161275d565b9150509295985092959890939650565b60007fffffffff0000000000000000000000000000000000000000000000000000000082169050919050565b6128928161285d565b811461289d57600080fd5b50565b6000813590506128af81612889565b92915050565b6000602082840312156128cb576128ca61252e565b5b60006128d9848285016128a0565b91505092915050565b60008115159050919050565b6128f7816128e2565b82525050565b600060208201905061291260008301846128ee565b92915050565b600081519050919050565b600082825260208201905092915050565b60005b83811015612952578082015181840152602081019050612937565b60008484015250505050565b600061296982612918565b6129738185612923565b9350612983818560208601612934565b61298c81612600565b840191505092915050565b600060208201905081810360008301526129b1818461295e565b905092915050565b6000602082840312156129cf576129ce61252e565b5b60006129dd8482850161275d565b91505092915050565b6129ef81612558565b82525050565b6000602082019050612a0a60008301846129e6565b92915050565b60008060408385031215612a2757612a2661252e565b5b6000612a3585828601612581565b9250506020612a468582860161275d565b9150509250929050565b612a598161273c565b82525050565b6000602082019050612a746000830184612a50565b92915050565b600080600060608486031215612a9357612a9261252e565b5b6000612aa186828701612581565b9350506020612ab286828701612581565b9250506040612ac38682870161275d565b9150509250925092565b600060208284031215612ae357612ae261252e565b5b6000612af184828501612581565b91505092915050565b612b03816128e2565b8114612b0e57600080fd5b50565b600081359050612b2081612afa565b92915050565b60008060408385031215612b3d57612b3c61252e565b5b6000612b4b85828601612581565b9250506020612b5c85828601612b11565b9150509250929050565b60008060008060808587031215612b8057612b7f61252e565b5b600085013567ffffffffffffffff811115612b9e57612b9d612533565b5b612baa8782880161270e565b945050602085013567ffffffffffffffff811115612bcb57612bca612533565b5b612bd78782880161270e565b9350506040612be88782880161275d565b9250506060612bf98782880161275d565b91505092959194509250565b600067ffffffffffffffff821115612c2057612c1f612611565b5b612c2982612600565b9050602081019050919050565b6000612c49612c4484612c05565b612671565b905082815260208101848484011115612c6557612c646125fb565b5b612c708482856126bd565b509392505050565b600082601f830112612c8d57612c8c612596565b5b8135612c9d848260208601612c36565b91505092915050565b60008060008060808587031215612cc057612cbf61252e565b5b6000612cce87828801612581565b9450506020612cdf87828801612581565b9350506040612cf08782880161275d565b925050606085013567ffffffffffffffff811115612d1157612d10612533565b5b612d1d87828801612c78565b91505092959194509250565b60008060408385031215612d4057612d3f61252e565b5b6000612d4e85828601612581565b9250506020612d5f85828601612581565b9150509250929050565b7f496e697469616c697a61626c653a20636f6e747261637420697320616c72656160008201527f647920696e697469616c697a6564000000000000000000000000000000000000602082015250565b6000612dc5602e83612923565b9150612dd082612d69565b604082019050919050565b60006020820190508181036000830152612df481612db8565b9050919050565b7f496e76616c6964204e4654206f776e65723a207a65726f20616464726573732060008201527f6e6f742076616c69642100000000000000000000000000000000000000000000602082015250565b6000612e57602a83612923565b9150612e6282612dfb565b604082019050919050565b60006020820190508181036000830152612e8681612e4a565b9050919050565b6000612e998385612923565b9350612ea68385846126bd565b612eaf83612600565b840190509392505050565b60006060820190508181036000830152612ed5818789612e8d565b90508181036020830152612eea818587612e8d565b9050612ef960408301846129e6565b9695505050505050565b6000819050919050565b600060ff82169050919050565b6000819050919050565b6000612f3f612f3a612f3584612f03565b612f1a565b612f0d565b9050919050565b612f4f81612f24565b82525050565b6000602082019050612f6a6000830184612f46565b92915050565b7f4e487b7100000000000000000000000000000000000000000000000000000000600052602260045260246000fd5b60006002820490506001821680612fb757607f821691505b602082108103612fca57612fc9612f70565b5b50919050565b7f4552433732313a20617070726f76616c20746f2063757272656e74206f776e6560008201527f7200000000000000000000000000000000000000000000000000000000000000602082015250565b600061302c602183612923565b915061303782612fd0565b604082019050919050565b6000602082019050818103600083015261305b8161301f565b9050919050565b7f4552433732313a20617070726f76652063616c6c6572206973206e6f7420746f60008201527f6b656e206f776e6572206f7220617070726f76656420666f7220616c6c000000602082015250565b60006130be603d83612923565b91506130c982613062565b604082019050919050565b600060208201905081810360008301526130ed816130b1565b9050919050565b7f4552433732313a2063616c6c6572206973206e6f7420746f6b656e206f776e6560008201527f72206f7220617070726f76656400000000000000000000000000000000000000602082015250565b6000613150602d83612923565b915061315b826130f4565b604082019050919050565b6000602082019050818103600083015261317f81613143565b9050919050565b7f496e76616c696420416464726573732830290000000000000000000000000000600082015250565b60006131bc601283612923565b91506131c782613186565b602082019050919050565b600060208201905081810360008301526131eb816131af565b9050919050565b7f43616e6e6f742073656c6c204e465420746f206d7973656c6600000000000000600082015250565b6000613228601983612923565b9150613233826131f2565b602082019050919050565b600060208201905081810360008301526132578161321b565b9050919050565b7f43616e6e6f74207472616e73666572207468697320746f6b656e496400000000600082015250565b6000613294601c83612923565b915061329f8261325e565b602082019050919050565b600060208201905081810360008301526132c381613287565b9050919050565b7f4e6f7420656e6f7567682066756e647320746f2062757920746869732061776560008201527f736f6d65204e4654000000000000000000000000000000000000000000000000602082015250565b6000613326602883612923565b9150613331826132ca565b604082019050919050565b6000602082019050818103600083015261335581613319565b9050919050565b7f4e487b7100000000000000000000000000000000000000000000000000000000600052603260045260246000fd5b7f4552433732313a20696e76616c696420746f6b656e2049440000000000000000600082015250565b60006133c1601883612923565b91506133cc8261338b565b602082019050919050565b600060208201905081810360008301526133f0816133b4565b9050919050565b7f4552433732313a2061646472657373207a65726f206973206e6f74206120766160008201527f6c6964206f776e65720000000000000000000000000000000000000000000000602082015250565b6000613453602983612923565b915061345e826133f7565b604082019050919050565b6000602082019050818103600083015261348281613446565b9050919050565b7f4e6f7420746865204e4654206f776e6572210000000000000000000000000000600082015250565b60006134bf601283612923565b91506134ca82613489565b602082019050919050565b600060208201905081810360008301526134ee816134b2565b9050919050565b7f4e465420636f73742063616e6e6f74206265206e656761746976650000000000600082015250565b600061352b601b83612923565b9150613536826134f5565b602082019050919050565b6000602082019050818103600083015261355a8161351e565b9050919050565b7f4e657720707269636520657175616c20746f206f6c6420707269636521000000600082015250565b6000613597601d83612923565b91506135a282613561565b602082019050919050565b600060208201905081810360008301526135c68161358a565b9050919050565b600060808201905081810360008301526135e7818761295e565b905081810360208301526135fb818661295e565b905061360a6040830185612a50565b6136176060830184612a50565b95945050505050565b7f43617020616e6420696e697469616c20737570706c79206e6f742076616c6964600082015250565b6000613656602083612923565b915061366182613620565b602082019050919050565b6000602082019050818103600083015261368581613649565b9050919050565b600060a08201905081810360008301526136a6818861295e565b905081810360208301526136ba818761295e565b90506136c960408301866129e6565b6136d66060830185612a50565b6136e36080830184612a50565b9695505050505050565b6000815190506136fc8161256a565b92915050565b6000602082840312156137185761371761252e565b5b6000613726848285016136ed565b91505092915050565b600060e0820190508181036000830152613749818a61295e565b9050818103602083015261375d818961295e565b905061376c60408301886129e6565b61377960608301876129e6565b61378660808301866129e6565b61379360a0830185612a50565b6137a060c0830184612a50565b98975050505050505050565b7f496e697469616c697a61626c653a20636f6e7472616374206973206e6f74206960008201527f6e697469616c697a696e67000000000000000000000000000000000000000000602082015250565b6000613808602b83612923565b9150613813826137ac565b604082019050919050565b60006020820190508181036000830152613837816137fb565b9050919050565b7f4552433732313a207472616e736665722066726f6d20696e636f72726563742060008201527f6f776e6572000000000000000000000000000000000000000000000000000000602082015250565b600061389a602583612923565b91506138a58261383e565b604082019050919050565b600060208201905081810360008301526138c98161388d565b9050919050565b7f4552433732313a207472616e7366657220746f20746865207a65726f2061646460008201527f7265737300000000000000000000000000000000000000000000000000000000602082015250565b600061392c602483612923565b9150613937826138d0565b604082019050919050565b6000602082019050818103600083015261395b8161391f565b9050919050565b7f4552433732313a20617070726f766520746f2063616c6c657200000000000000600082015250565b6000613998601983612923565b91506139a382613962565b602082019050919050565b600060208201905081810360008301526139c78161398b565b9050919050565b7f4552433732313a207472616e7366657220746f206e6f6e20455243373231526560008201527f63656976657220696d706c656d656e7465720000000000000000000000000000602082015250565b6000613a2a603283612923565b9150613a35826139ce565b604082019050919050565b60006020820190508181036000830152613a5981613a1d565b9050919050565b600081905092915050565b6000613a7682612918565b613a808185613a60565b9350613a90818560208601612934565b80840191505092915050565b6000613aa88285613a6b565b9150613ab48284613a6b565b91508190509392505050565b60008190508160005260206000209050919050565b60006020601f8301049050919050565b600082821b905092915050565b600060088302613b227fffffffffffffffffffffffffffffffffffffffffffffffffffffffffffffffff82613ae5565b613b2c8683613ae5565b95508019841693508086168417925050509392505050565b6000613b5f613b5a613b558461273c565b612f1a565b61273c565b9050919050565b6000819050919050565b613b7983613b44565b613b8d613b8582613b66565b848454613af2565b825550505050565b600090565b613ba2613b95565b613bad818484613b70565b505050565b5b81811015613bd157613bc6600082613b9a565b600181019050613bb3565b5050565b601f821115613c1657613be781613ac0565b613bf084613ad5565b81016020851015613bff578190505b613c13613c0b85613ad5565b830182613bb2565b50505b505050565b600082821c905092915050565b6000613c3960001984600802613c1b565b1980831691505092915050565b6000613c528383613c28565b9150826002028217905092915050565b613c6b82612918565b67ffffffffffffffff811115613c8457613c83612611565b5b613c8e8254612f9f565b613c99828285613bd5565b600060209050601f831160018114613ccc5760008415613cba578287015190505b613cc48582613c46565b865550613d2c565b601f198416613cda86613ac0565b60005b82811015613d0257848901518255600182019150602085019450602081019050613cdd565b86831015613d1f5784890151613d1b601f891682613c28565b8355505b6001600288020188555050505b505050505050565b7f45524337323155524953746f726167653a2055524920736574206f66206e6f6e60008201527f6578697374656e7420746f6b656e000000000000000000000000000000000000602082015250565b6000613d90602e83612923565b9150613d9b82613d34565b604082019050919050565b60006020820190508181036000830152613dbf81613d83565b9050919050565b600081519050919050565b600082825260208201905092915050565b6000613ded82613dc6565b613df78185613dd1565b9350613e07818560208601612934565b613e1081612600565b840191505092915050565b6000608082019050613e3060008301876129e6565b613e3d60208301866129e6565b613e4a6040830185612a50565b8181036060830152613e5c8184613de2565b905095945050505050565b600081519050613e7681612889565b92915050565b600060208284031215613e9257613e9161252e565b5b6000613ea084828501613e67565b91505092915050565b7f4e487b7100000000000000000000000000000000000000000000000000000000600052601260045260246000fd5b7f4552433732313a206d696e7420746f20746865207a65726f2061646472657373600082015250565b6000613f0e602083612923565b9150613f1982613ed8565b602082019050919050565b60006020820190508181036000830152613f3d81613f01565b9050919050565b7f4552433732313a20746f6b656e20616c7265616479206d696e74656400000000600082015250565b6000613f7a601c83612923565b9150613f8582613f44565b602082019050919050565b60006020820190508181036000830152613fa981613f6d565b905091905056fea2646970667358221220b0908715e03c5e1ef0b207546ba331045a2fb6ad1a01987b3aa474dfd6b2b5e364736f6c63430008120033",
  "linkReferences": {},
  "deployedLinkReferences": {}
}