{
  "_format": "hh-sol-artifact-1",
  "contractName": "ERC721Base",
  "sourceName": "contracts/ERC721Base.sol",
  "abi": [
    {
      "anonymous": false,
      "inputs": [
        {
          "indexed": true,
          "internalType": "address",
          "name": "owner",
          "type": "address"
        },
        {
          "indexed": true,
          "internalType": "address",
          "name": "approved",
          "type": "address"
        },
        {
          "indexed": true,
          "internalType": "uint256",
          "name": "tokenId",
          "type": "uint256"
        }
      ],
      "name": "Approval",
      "type": "event"
    },
    {
      "anonymous": false,
      "inputs": [
        {
          "indexed": true,
          "internalType": "address",
          "name": "owner",
          "type": "address"
        },
        {
          "indexed": true,
          "internalType": "address",
          "name": "operator",
          "type": "address"
        },
        {
          "indexed": false,
          "internalType": "bool",
          "name": "approved",
          "type": "bool"
        }
      ],
      "name": "ApprovalForAll",
      "type": "event"
    },
    {
      "anonymous": false,
      "inputs": [
        {
          "indexed": false,
          "internalType": "uint8",
          "name": "version",
          "type": "uint8"
        }
      ],
      "name": "Initialized",
      "type": "event"
    },
    {
      "anonymous": false,
      "inputs": [
        {
          "indexed": true,
          "internalType": "address",
          "name": "owner",
          "type": "address"
        },
        {
          "indexed": false,
          "internalType": "string",
          "name": "name",
          "type": "string"
        },
        {
          "indexed": false,
          "internalType": "string",
          "name": "symbol",
          "type": "string"
        },
        {
          "indexed": false,
          "internalType": "address",
          "name": "factory",
          "type": "address"
        }
      ],
      "name": "NFTminted",
      "type": "event"
    },
    {
      "anonymous": false,
      "inputs": [
        {
          "indexed": true,
          "internalType": "address",
          "name": "owner",
          "type": "address"
        },
        {
          "indexed": false,
          "internalType": "string",
          "name": "name",
          "type": "string"
        },
        {
          "indexed": false,
          "internalType": "string",
          "name": "symbol",
          "type": "string"
        },
        {
          "indexed": false,
          "internalType": "uint256",
          "name": "oldPrice",
          "type": "uint256"
        },
        {
          "indexed": false,
          "internalType": "uint256",
          "name": "newPrice",
          "type": "uint256"
        }
      ],
      "name": "NFTpriceUpdated",
      "type": "event"
    },
    {
      "anonymous": false,
      "inputs": [
        {
          "indexed": true,
          "internalType": "address",
          "name": "from",
          "type": "address"
        },
        {
          "indexed": true,
          "internalType": "address",
          "name": "to",
          "type": "address"
        },
        {
          "indexed": true,
          "internalType": "uint256",
          "name": "tokenId",
          "type": "uint256"
        }
      ],
      "name": "Transfer",
      "type": "event"
    },
    {
      "stateMutability": "payable",
      "type": "fallback"
    },
    {
      "inputs": [
        {
          "internalType": "address",
          "name": "to",
          "type": "address"
        },
        {
          "internalType": "uint256",
          "name": "tokenId",
          "type": "uint256"
        }
      ],
      "name": "approve",
      "outputs": [],
      "stateMutability": "nonpayable",
      "type": "function"
    },
    {
      "inputs": [
        {
          "internalType": "address",
          "name": "owner",
          "type": "address"
        }
      ],
      "name": "balanceOf",
      "outputs": [
        {
          "internalType": "uint256",
          "name": "",
          "type": "uint256"
        }
      ],
      "stateMutability": "view",
      "type": "function"
    },
    {
      "inputs": [
        {
          "internalType": "uint256",
          "name": "tokenId",
          "type": "uint256"
        }
      ],
      "name": "buyNFT",
      "outputs": [],
      "stateMutability": "payable",
      "type": "function"
    },
    {
      "inputs": [
        {
          "internalType": "string",
          "name": "name",
          "type": "string"
        },
        {
          "internalType": "string",
          "name": "symbol",
          "type": "string"
        },
        {
          "internalType": "uint256",
          "name": "maxSupply_",
          "type": "uint256"
        },
        {
          "internalType": "uint256",
          "name": "initialSupply_",
          "type": "uint256"
        }
      ],
      "name": "createDataToken",
      "outputs": [
        {
          "internalType": "address",
          "name": "erc20token",
          "type": "address"
        }
      ],
      "stateMutability": "nonpayable",
      "type": "function"
    },
    {
      "inputs": [
        {
          "internalType": "uint256",
          "name": "tokenId",
          "type": "uint256"
        }
      ],
      "name": "getApproved",
      "outputs": [
        {
          "internalType": "address",
          "name": "",
          "type": "address"
        }
      ],
      "stateMutability": "view",
      "type": "function"
    },
    {
      "inputs": [],
      "name": "getNFTname",
      "outputs": [
        {
          "internalType": "string",
          "name": "",
          "type": "string"
        }
      ],
      "stateMutability": "view",
      "type": "function"
    },
    {
      "inputs": [],
      "name": "getNFTowner",
      "outputs": [
        {
          "internalType": "address",
          "name": "owner",
          "type": "address"
        }
      ],
      "stateMutability": "view",
      "type": "function"
    },
    {
      "inputs": [],
      "name": "getNFTprice",
      "outputs": [
        {
          "internalType": "uint256",
          "name": "",
          "type": "uint256"
        }
      ],
      "stateMutability": "view",
      "type": "function"
    },
    {
      "inputs": [],
      "name": "getNFTsymbol",
      "outputs": [
        {
          "internalType": "string",
          "name": "",
          "type": "string"
        }
      ],
      "stateMutability": "view",
      "type": "function"
    },
    {
      "inputs": [
        {
          "internalType": "address",
          "name": "owner",
          "type": "address"
        },
        {
          "internalType": "string",
          "name": "name",
          "type": "string"
        },
        {
          "internalType": "string",
          "name": "symbol",
          "type": "string"
        },
        {
          "internalType": "address",
          "name": "factory",
          "type": "address"
        },
        {
          "internalType": "string",
          "name": "_tokenURI",
          "type": "string"
        },
        {
          "internalType": "uint256",
          "name": "initialPrice",
          "type": "uint256"
        }
      ],
      "name": "initialize",
      "outputs": [],
      "stateMutability": "nonpayable",
      "type": "function"
    },
    {
      "inputs": [
        {
          "internalType": "address",
          "name": "owner",
          "type": "address"
        },
        {
          "internalType": "address",
          "name": "operator",
          "type": "address"
        }
      ],
      "name": "isApprovedForAll",
      "outputs": [
        {
          "internalType": "bool",
          "name": "",
          "type": "bool"
        }
      ],
      "stateMutability": "view",
      "type": "function"
    },
    {
      "inputs": [],
      "name": "name",
      "outputs": [
        {
          "internalType": "string",
          "name": "",
          "type": "string"
        }
      ],
      "stateMutability": "view",
      "type": "function"
    },
    {
      "inputs": [
        {
          "internalType": "uint256",
          "name": "tokenId",
          "type": "uint256"
        }
      ],
      "name": "ownerOf",
      "outputs": [
        {
          "internalType": "address",
          "name": "",
          "type": "address"
        }
      ],
      "stateMutability": "view",
      "type": "function"
    },
    {
      "inputs": [
        {
          "internalType": "address",
          "name": "from",
          "type": "address"
        },
        {
          "internalType": "address",
          "name": "to",
          "type": "address"
        },
        {
          "internalType": "uint256",
          "name": "tokenId",
          "type": "uint256"
        }
      ],
      "name": "safeTransferFrom",
      "outputs": [],
      "stateMutability": "nonpayable",
      "type": "function"
    },
    {
      "inputs": [
        {
          "internalType": "address",
          "name": "from",
          "type": "address"
        },
        {
          "internalType": "address",
          "name": "to",
          "type": "address"
        },
        {
          "internalType": "uint256",
          "name": "tokenId",
          "type": "uint256"
        },
        {
          "internalType": "bytes",
          "name": "data",
          "type": "bytes"
        }
      ],
      "name": "safeTransferFrom",
      "outputs": [],
      "stateMutability": "nonpayable",
      "type": "function"
    },
    {
      "inputs": [
        {
          "internalType": "address",
          "name": "operator",
          "type": "address"
        },
        {
          "internalType": "bool",
          "name": "approved",
          "type": "bool"
        }
      ],
      "name": "setApprovalForAll",
      "outputs": [],
      "stateMutability": "nonpayable",
      "type": "function"
    },
    {
      "inputs": [
        {
          "internalType": "uint256",
          "name": "price_",
          "type": "uint256"
        }
      ],
      "name": "setPrice",
      "outputs": [],
      "stateMutability": "nonpayable",
      "type": "function"
    },
    {
      "inputs": [
        {
          "internalType": "bytes4",
          "name": "interfaceId",
          "type": "bytes4"
        }
      ],
      "name": "supportsInterface",
      "outputs": [
        {
          "internalType": "bool",
          "name": "",
          "type": "bool"
        }
      ],
      "stateMutability": "view",
      "type": "function"
    },
    {
      "inputs": [],
      "name": "symbol",
      "outputs": [
        {
          "internalType": "string",
          "name": "",
          "type": "string"
        }
      ],
      "stateMutability": "view",
      "type": "function"
    },
    {
      "inputs": [
        {
          "internalType": "uint256",
          "name": "tokenId",
          "type": "uint256"
        }
      ],
      "name": "tokenURI",
      "outputs": [
        {
          "internalType": "string",
          "name": "",
          "type": "string"
        }
      ],
      "stateMutability": "view",
      "type": "function"
    },
    {
      "inputs": [
        {
          "internalType": "address",
          "name": "from",
          "type": "address"
        },
        {
          "internalType": "address",
          "name": "to",
          "type": "address"
        },
        {
          "internalType": "uint256",
          "name": "tokenId",
          "type": "uint256"
        }
      ],
      "name": "transferFrom",
      "outputs": [],
      "stateMutability": "nonpayable",
      "type": "function"
    },
    {
      "stateMutability": "payable",
      "type": "receive"
    }
  ],
  "bytecode": "0x608060405234801561001057600080fd5b50613e7a806100206000396000f3fe60806040526004361061012e5760003560e01c80635245f3bd116100ab578063a22cb4651161006f578063a22cb465146103eb578063b0c5a7e514610414578063b88d4fde14610451578063c87b56dd1461047a578063de9fdebe146104b7578063e985e9c5146104e257610135565b80635245f3bd146102f25780636352211e1461031d57806370a082311461035a57806391b7f5ed1461039757806395d89b41146103c057610135565b80631ff95da9116100f25780631ff95da91461022e57806323b872dd146102595780633d38edac1461028257806342842e0e146102ad57806351ed8288146102d657610135565b806301eaaea21461013757806301ffc9a71461016057806306fdde031461019d578063081812fc146101c8578063095ea7b31461020557610135565b3661013557005b005b34801561014357600080fd5b5061015e600480360381019061015991906126b2565b61051f565b005b34801561016c57600080fd5b50610187600480360381019061018291906127f5565b610828565b604051610194919061283d565b60405180910390f35b3480156101a957600080fd5b506101b261090a565b6040516101bf91906128d7565b60405180910390f35b3480156101d457600080fd5b506101ef60048036038101906101ea91906128f9565b61099c565b6040516101fc9190612935565b60405180910390f35b34801561021157600080fd5b5061022c60048036038101906102279190612950565b6109e2565b005b34801561023a57600080fd5b50610243610af9565b604051610250919061299f565b60405180910390f35b34801561026557600080fd5b50610280600480360381019061027b91906129ba565b610b03565b005b34801561028e57600080fd5b50610297610b63565b6040516102a491906128d7565b60405180910390f35b3480156102b957600080fd5b506102d460048036038101906102cf91906129ba565b610b72565b005b6102f060048036038101906102eb91906128f9565b610b92565b005b3480156102fe57600080fd5b50610307610d5e565b6040516103149190612935565b60405180910390f35b34801561032957600080fd5b50610344600480360381019061033f91906128f9565b610d6f565b6040516103519190612935565b60405180910390f35b34801561036657600080fd5b50610381600480360381019061037c9190612a0d565b610df5565b60405161038e919061299f565b60405180910390f35b3480156103a357600080fd5b506103be60048036038101906103b991906128f9565b610eac565b005b3480156103cc57600080fd5b506103d561102a565b6040516103e291906128d7565b60405180910390f35b3480156103f757600080fd5b50610412600480360381019061040d9190612a66565b6110bc565b005b34801561042057600080fd5b5061043b60048036038101906104369190612aa6565b6110d2565b6040516104489190612935565b60405180910390f35b34801561045d57600080fd5b5061047860048036038101906104739190612be6565b6112ae565b005b34801561048657600080fd5b506104a1600480360381019061049c91906128f9565b611310565b6040516104ae91906128d7565b60405180910390f35b3480156104c357600080fd5b506104cc611322565b6040516104d991906128d7565b60405180910390f35b3480156104ee57600080fd5b5061050960048036038101906105049190612c69565b611331565b604051610516919061283d565b60405180910390f35b60008060019054906101000a900460ff161590508080156105505750600160008054906101000a900460ff1660ff16105b8061057d575061055f306113c5565b15801561057c5750600160008054906101000a900460ff1660ff16145b5b6105bc576040517f08c379a00000000000000000000000000000000000000000000000000000000081526004016105b390612d1b565b60405180910390fd5b60016000806101000a81548160ff021916908360ff16021790555080156105f9576001600060016101000a81548160ff0219169083151502179055505b600073ffffffffffffffffffffffffffffffffffffffff168973ffffffffffffffffffffffffffffffffffffffff1603610668576040517f08c379a000000000000000000000000000000000000000000000000000000000815260040161065f90612dad565b60405180910390fd5b6106fa88888080601f016020809104026020016040519081016040528093929190818152602001838380828437600081840152601f19601f8201169050808301925050505050505087878080601f016020809104026020016040519081016040528093929190818152602001838380828437600081840152601f19601f820116905080830192505050505050506113e8565b8360c960006101000a81548173ffffffffffffffffffffffffffffffffffffffff021916908373ffffffffffffffffffffffffffffffffffffffff1602179055508160ca8190555061074c8984611445565b8873ffffffffffffffffffffffffffffffffffffffff167fd133d105f7b44671ec3a00c607590e7154adaafd2e0e9542b201374f293585198989898960c960009054906101000a900473ffffffffffffffffffffffffffffffffffffffff166040516107bc959493929190612dfa565b60405180910390a2801561081d5760008060016101000a81548160ff0219169083151502179055507f7f26b83ff96e1f2b6a682f133852f6798a09c465da95921460cefb384740249860016040516108149190612e95565b60405180910390a15b505050505050505050565b60007f80ac58cd000000000000000000000000000000000000000000000000000000007bffffffffffffffffffffffffffffffffffffffffffffffffffffffff1916827bffffffffffffffffffffffffffffffffffffffffffffffffffffffff191614806108f357507f5b5e139f000000000000000000000000000000000000000000000000000000007bffffffffffffffffffffffffffffffffffffffffffffffffffffffff1916827bffffffffffffffffffffffffffffffffffffffffffffffffffffffff1916145b8061090357506109028261145f565b5b9050919050565b60606065805461091990612edf565b80601f016020809104026020016040519081016040528092919081815260200182805461094590612edf565b80156109925780601f1061096757610100808354040283529160200191610992565b820191906000526020600020905b81548152906001019060200180831161097557829003601f168201915b5050505050905090565b60006109a7826114c9565b6069600083815260200190815260200160002060009054906101000a900473ffffffffffffffffffffffffffffffffffffffff169050919050565b60006109ed82610d6f565b90508073ffffffffffffffffffffffffffffffffffffffff168373ffffffffffffffffffffffffffffffffffffffff1603610a5d576040517f08c379a0000000000000000000000000000000000000000000000000000000008152600401610a5490612f82565b60405180910390fd5b8073ffffffffffffffffffffffffffffffffffffffff16610a7c611514565b73ffffffffffffffffffffffffffffffffffffffff161480610aab5750610aaa81610aa5611514565b611331565b5b610aea576040517f08c379a0000000000000000000000000000000000000000000000000000000008152600401610ae190613014565b60405180910390fd5b610af4838361151c565b505050565b600060ca54905090565b610b14610b0e611514565b826115d5565b610b53576040517f08c379a0000000000000000000000000000000000000000000000000000000008152600401610b4a906130a6565b60405180910390fd5b610b5e83838361166a565b505050565b6060610b6d61090a565b905090565b610b8d838383604051806020016040528060008152506112ae565b505050565b6000610b9e6001610d6f565b9050600073ffffffffffffffffffffffffffffffffffffffff163373ffffffffffffffffffffffffffffffffffffffff1603610c0f576040517f08c379a0000000000000000000000000000000000000000000000000000000008152600401610c0690613112565b60405180910390fd5b8073ffffffffffffffffffffffffffffffffffffffff163373ffffffffffffffffffffffffffffffffffffffff1603610c7d576040517f08c379a0000000000000000000000000000000000000000000000000000000008152600401610c749061317e565b60405180910390fd5b60018214610cc0576040517f08c379a0000000000000000000000000000000000000000000000000000000008152600401610cb7906131ea565b60405180910390fd5b60ca54341015610d05576040517f08c379a0000000000000000000000000000000000000000000000000000000008152600401610cfc9061327c565b60405180910390fd5b610d1081338461166a565b3390508073ffffffffffffffffffffffffffffffffffffffff166108fc349081150290604051600060405180830381858888f19350505050158015610d59573d6000803e3d6000fd5b505050565b6000610d6a6001610d6f565b905090565b600080610d7b83611963565b9050600073ffffffffffffffffffffffffffffffffffffffff168173ffffffffffffffffffffffffffffffffffffffff1603610dec576040517f08c379a0000000000000000000000000000000000000000000000000000000008152600401610de3906132e8565b60405180910390fd5b80915050919050565b60008073ffffffffffffffffffffffffffffffffffffffff168273ffffffffffffffffffffffffffffffffffffffff1603610e65576040517f08c379a0000000000000000000000000000000000000000000000000000000008152600401610e5c9061337a565b60405180910390fd5b606860008373ffffffffffffffffffffffffffffffffffffffff1673ffffffffffffffffffffffffffffffffffffffff168152602001908152602001600020549050919050565b610eb66001610d6f565b73ffffffffffffffffffffffffffffffffffffffff163373ffffffffffffffffffffffffffffffffffffffff1614610f23576040517f08c379a0000000000000000000000000000000000000000000000000000000008152600401610f1a906133e6565b60405180910390fd5b6000811015610f67576040517f08c379a0000000000000000000000000000000000000000000000000000000008152600401610f5e90613452565b60405180910390fd5b60ca548103610fab576040517f08c379a0000000000000000000000000000000000000000000000000000000008152600401610fa2906134be565b60405180910390fd5b600060ca5490508160ca81905550610fc36001610d6f565b73ffffffffffffffffffffffffffffffffffffffff167ff3d52d1a60d7d0ee4e16f5b72624fa05a825fdd27ea948202af49055aaa6064b61100261090a565b61100a61102a565b8460ca5460405161101e94939291906134de565b60405180910390a25050565b60606066805461103990612edf565b80601f016020809104026020016040519081016040528092919081815260200182805461106590612edf565b80156110b25780601f10611087576101008083540402835291602001916110b2565b820191906000526020600020905b81548152906001019060200180831161109557829003601f168201915b5050505050905090565b6110ce6110c7611514565b83836119a0565b5050565b60006110de6001610d6f565b73ffffffffffffffffffffffffffffffffffffffff163373ffffffffffffffffffffffffffffffffffffffff161461114b576040517f08c379a0000000000000000000000000000000000000000000000000000000008152600401611142906133e6565b60405180910390fd5b60008311801561115c575060008210155b61119b576040517f08c379a00000000000000000000000000000000000000000000000000000000081526004016111929061357d565b60405180910390fd5b60c960009054906101000a900473ffffffffffffffffffffffffffffffffffffffff1673ffffffffffffffffffffffffffffffffffffffff1663afd69c8f86863387876040518663ffffffff1660e01b81526004016111fe95949392919061359d565b6020604051808303816000875af115801561121d573d6000803e3d6000fd5b505050506040513d601f19601f820116820180604052508101906112419190613613565b905060cb819080600181540180825580915050600190039060005260206000200160009091909190916101000a81548173ffffffffffffffffffffffffffffffffffffffff021916908373ffffffffffffffffffffffffffffffffffffffff160217905550949350505050565b6112bf6112b9611514565b836115d5565b6112fe576040517f08c379a00000000000000000000000000000000000000000000000000000000081526004016112f5906130a6565b60405180910390fd5b61130a84848484611b0c565b50505050565b606061131b82611b68565b9050919050565b606061132c61102a565b905090565b6000606a60008473ffffffffffffffffffffffffffffffffffffffff1673ffffffffffffffffffffffffffffffffffffffff16815260200190815260200160002060008373ffffffffffffffffffffffffffffffffffffffff1673ffffffffffffffffffffffffffffffffffffffff16815260200190815260200160002060009054906101000a900460ff16905092915050565b6000808273ffffffffffffffffffffffffffffffffffffffff163b119050919050565b600060019054906101000a900460ff16611437576040517f08c379a000000000000000000000000000000000000000000000000000000000815260040161142e906136b2565b60405180910390fd5b6114418282611c7a565b5050565b611450826001611ced565b61145b600182611d0b565b5050565b60007f01ffc9a7000000000000000000000000000000000000000000000000000000007bffffffffffffffffffffffffffffffffffffffffffffffffffffffff1916827bffffffffffffffffffffffffffffffffffffffffffffffffffffffff1916149050919050565b6114d281611d78565b611511576040517f08c379a0000000000000000000000000000000000000000000000000000000008152600401611508906132e8565b60405180910390fd5b50565b600033905090565b816069600083815260200190815260200160002060006101000a81548173ffffffffffffffffffffffffffffffffffffffff021916908373ffffffffffffffffffffffffffffffffffffffff160217905550808273ffffffffffffffffffffffffffffffffffffffff1661158f83610d6f565b73ffffffffffffffffffffffffffffffffffffffff167f8c5be1e5ebec7d5bd14f71427d1e84f3dd0314c0f7b2291e5b200ac8c7c3b92560405160405180910390a45050565b6000806115e183610d6f565b90508073ffffffffffffffffffffffffffffffffffffffff168473ffffffffffffffffffffffffffffffffffffffff16148061162357506116228185611331565b5b8061166157508373ffffffffffffffffffffffffffffffffffffffff166116498461099c565b73ffffffffffffffffffffffffffffffffffffffff16145b91505092915050565b8273ffffffffffffffffffffffffffffffffffffffff1661168a82610d6f565b73ffffffffffffffffffffffffffffffffffffffff16146116e0576040517f08c379a00000000000000000000000000000000000000000000000000000000081526004016116d790613744565b60405180910390fd5b600073ffffffffffffffffffffffffffffffffffffffff168273ffffffffffffffffffffffffffffffffffffffff160361174f576040517f08c379a0000000000000000000000000000000000000000000000000000000008152600401611746906137d6565b60405180910390fd5b61175c8383836001611db9565b8273ffffffffffffffffffffffffffffffffffffffff1661177c82610d6f565b73ffffffffffffffffffffffffffffffffffffffff16146117d2576040517f08c379a00000000000000000000000000000000000000000000000000000000081526004016117c990613744565b60405180910390fd5b6069600082815260200190815260200160002060006101000a81549073ffffffffffffffffffffffffffffffffffffffff02191690556001606860008573ffffffffffffffffffffffffffffffffffffffff1673ffffffffffffffffffffffffffffffffffffffff168152602001908152602001600020600082825403925050819055506001606860008473ffffffffffffffffffffffffffffffffffffffff1673ffffffffffffffffffffffffffffffffffffffff16815260200190815260200160002060008282540192505081905550816067600083815260200190815260200160002060006101000a81548173ffffffffffffffffffffffffffffffffffffffff021916908373ffffffffffffffffffffffffffffffffffffffff160217905550808273ffffffffffffffffffffffffffffffffffffffff168473ffffffffffffffffffffffffffffffffffffffff167fddf252ad1be2c89b69c2b068fc378daa952ba7f163c4a11628f55a4df523b3ef60405160405180910390a461195e8383836001611dbf565b505050565b60006067600083815260200190815260200160002060009054906101000a900473ffffffffffffffffffffffffffffffffffffffff169050919050565b8173ffffffffffffffffffffffffffffffffffffffff168373ffffffffffffffffffffffffffffffffffffffff1603611a0e576040517f08c379a0000000000000000000000000000000000000000000000000000000008152600401611a0590613842565b60405180910390fd5b80606a60008573ffffffffffffffffffffffffffffffffffffffff1673ffffffffffffffffffffffffffffffffffffffff16815260200190815260200160002060008473ffffffffffffffffffffffffffffffffffffffff1673ffffffffffffffffffffffffffffffffffffffff16815260200190815260200160002060006101000a81548160ff0219169083151502179055508173ffffffffffffffffffffffffffffffffffffffff168373ffffffffffffffffffffffffffffffffffffffff167f17307eab39ab6107e8899845ad3d59bd9653f200f220920489ca2b5937696c3183604051611aff919061283d565b60405180910390a3505050565b611b1784848461166a565b611b2384848484611dc5565b611b62576040517f08c379a0000000000000000000000000000000000000000000000000000000008152600401611b59906138d4565b60405180910390fd5b50505050565b6060611b73826114c9565b6000609760008481526020019081526020016000208054611b9390612edf565b80601f0160208091040260200160405190810160405280929190818152602001828054611bbf90612edf565b8015611c0c5780601f10611be157610100808354040283529160200191611c0c565b820191906000526020600020905b815481529060010190602001808311611bef57829003601f168201915b505050505090506000611c1d611f4c565b90506000815103611c32578192505050611c75565b600082511115611c67578082604051602001611c4f929190613930565b60405160208183030381529060405292505050611c75565b611c7084611f63565b925050505b919050565b600060019054906101000a900460ff16611cc9576040517f08c379a0000000000000000000000000000000000000000000000000000000008152600401611cc0906136b2565b60405180910390fd5b8160659081611cd89190613af6565b508060669081611ce89190613af6565b505050565b611d07828260405180602001604052806000815250611fcb565b5050565b611d1482611d78565b611d53576040517f08c379a0000000000000000000000000000000000000000000000000000000008152600401611d4a90613c3a565b60405180910390fd5b80609760008481526020019081526020016000209081611d739190613af6565b505050565b60008073ffffffffffffffffffffffffffffffffffffffff16611d9a83611963565b73ffffffffffffffffffffffffffffffffffffffff1614159050919050565b50505050565b50505050565b6000611de68473ffffffffffffffffffffffffffffffffffffffff166113c5565b15611f3f578373ffffffffffffffffffffffffffffffffffffffff1663150b7a02611e0f611514565b8786866040518563ffffffff1660e01b8152600401611e319493929190613caf565b6020604051808303816000875af1925050508015611e6d57506040513d601f19601f82011682018060405250810190611e6a9190613d10565b60015b611eef573d8060008114611e9d576040519150601f19603f3d011682016040523d82523d6000602084013e611ea2565b606091505b506000815103611ee7576040517f08c379a0000000000000000000000000000000000000000000000000000000008152600401611ede906138d4565b60405180910390fd5b805181602001fd5b63150b7a0260e01b7bffffffffffffffffffffffffffffffffffffffffffffffffffffffff1916817bffffffffffffffffffffffffffffffffffffffffffffffffffffffff191614915050611f44565b600190505b949350505050565b606060405180602001604052806000815250905090565b6060611f6e826114c9565b6000611f78611f4c565b90506000815111611f985760405180602001604052806000815250611fc3565b80611fa284612026565b604051602001611fb3929190613930565b6040516020818303038152906040525b915050919050565b611fd583836120f4565b611fe26000848484611dc5565b612021576040517f08c379a0000000000000000000000000000000000000000000000000000000008152600401612018906138d4565b60405180910390fd5b505050565b60606000600161203584612311565b01905060008167ffffffffffffffff81111561205457612053612551565b5b6040519080825280601f01601f1916602001820160405280156120865781602001600182028036833780820191505090505b509050600082602001820190505b6001156120e9578080600190039150507f3031323334353637383961626364656600000000000000000000000000000000600a86061a8153600a85816120dd576120dc613d3d565b5b04945060008503612094575b819350505050919050565b600073ffffffffffffffffffffffffffffffffffffffff168273ffffffffffffffffffffffffffffffffffffffff1603612163576040517f08c379a000000000000000000000000000000000000000000000000000000000815260040161215a90613db8565b60405180910390fd5b61216c81611d78565b156121ac576040517f08c379a00000000000000000000000000000000000000000000000000000000081526004016121a390613e24565b60405180910390fd5b6121ba600083836001611db9565b6121c381611d78565b15612203576040517f08c379a00000000000000000000000000000000000000000000000000000000081526004016121fa90613e24565b60405180910390fd5b6001606860008473ffffffffffffffffffffffffffffffffffffffff1673ffffffffffffffffffffffffffffffffffffffff16815260200190815260200160002060008282540192505081905550816067600083815260200190815260200160002060006101000a81548173ffffffffffffffffffffffffffffffffffffffff021916908373ffffffffffffffffffffffffffffffffffffffff160217905550808273ffffffffffffffffffffffffffffffffffffffff16600073ffffffffffffffffffffffffffffffffffffffff167fddf252ad1be2c89b69c2b068fc378daa952ba7f163c4a11628f55a4df523b3ef60405160405180910390a461230d600083836001611dbf565b5050565b600080600090507a184f03e93ff9f4daa797ed6e38ed64bf6a1f010000000000000000831061236f577a184f03e93ff9f4daa797ed6e38ed64bf6a1f010000000000000000838161236557612364613d3d565b5b0492506040810190505b6d04ee2d6d415b85acef810000000083106123ac576d04ee2d6d415b85acef810000000083816123a2576123a1613d3d565b5b0492506020810190505b662386f26fc1000083106123db57662386f26fc1000083816123d1576123d0613d3d565b5b0492506010810190505b6305f5e1008310612404576305f5e10083816123fa576123f9613d3d565b5b0492506008810190505b612710831061242957612710838161241f5761241e613d3d565b5b0492506004810190505b6064831061244c576064838161244257612441613d3d565b5b0492506002810190505b600a831061245b576001810190505b80915050919050565b6000604051905090565b600080fd5b600080fd5b600073ffffffffffffffffffffffffffffffffffffffff82169050919050565b60006124a382612478565b9050919050565b6124b381612498565b81146124be57600080fd5b50565b6000813590506124d0816124aa565b92915050565b600080fd5b600080fd5b600080fd5b60008083601f8401126124fb576124fa6124d6565b5b8235905067ffffffffffffffff811115612518576125176124db565b5b602083019150836001820283011115612534576125336124e0565b5b9250929050565b600080fd5b6000601f19601f8301169050919050565b7f4e487b7100000000000000000000000000000000000000000000000000000000600052604160045260246000fd5b61258982612540565b810181811067ffffffffffffffff821117156125a8576125a7612551565b5b80604052505050565b60006125bb612464565b90506125c78282612580565b919050565b600067ffffffffffffffff8211156125e7576125e6612551565b5b6125f082612540565b9050602081019050919050565b82818337600083830152505050565b600061261f61261a846125cc565b6125b1565b90508281526020810184848401111561263b5761263a61253b565b5b6126468482856125fd565b509392505050565b600082601f830112612663576126626124d6565b5b813561267384826020860161260c565b91505092915050565b6000819050919050565b61268f8161267c565b811461269a57600080fd5b50565b6000813590506126ac81612686565b92915050565b60008060008060008060008060c0898b0312156126d2576126d161246e565b5b60006126e08b828c016124c1565b985050602089013567ffffffffffffffff81111561270157612700612473565b5b61270d8b828c016124e5565b9750975050604089013567ffffffffffffffff8111156127305761272f612473565b5b61273c8b828c016124e5565b9550955050606061274f8b828c016124c1565b935050608089013567ffffffffffffffff8111156127705761276f612473565b5b61277c8b828c0161264e565b92505060a061278d8b828c0161269d565b9150509295985092959890939650565b60007fffffffff0000000000000000000000000000000000000000000000000000000082169050919050565b6127d28161279d565b81146127dd57600080fd5b50565b6000813590506127ef816127c9565b92915050565b60006020828403121561280b5761280a61246e565b5b6000612819848285016127e0565b91505092915050565b60008115159050919050565b61283781612822565b82525050565b6000602082019050612852600083018461282e565b92915050565b600081519050919050565b600082825260208201905092915050565b60005b83811015612892578082015181840152602081019050612877565b60008484015250505050565b60006128a982612858565b6128b38185612863565b93506128c3818560208601612874565b6128cc81612540565b840191505092915050565b600060208201905081810360008301526128f1818461289e565b905092915050565b60006020828403121561290f5761290e61246e565b5b600061291d8482850161269d565b91505092915050565b61292f81612498565b82525050565b600060208201905061294a6000830184612926565b92915050565b600080604083850312156129675761296661246e565b5b6000612975858286016124c1565b92505060206129868582860161269d565b9150509250929050565b6129998161267c565b82525050565b60006020820190506129b46000830184612990565b92915050565b6000806000606084860312156129d3576129d261246e565b5b60006129e1868287016124c1565b93505060206129f2868287016124c1565b9250506040612a038682870161269d565b9150509250925092565b600060208284031215612a2357612a2261246e565b5b6000612a31848285016124c1565b91505092915050565b612a4381612822565b8114612a4e57600080fd5b50565b600081359050612a6081612a3a565b92915050565b60008060408385031215612a7d57612a7c61246e565b5b6000612a8b858286016124c1565b9250506020612a9c85828601612a51565b9150509250929050565b60008060008060808587031215612ac057612abf61246e565b5b600085013567ffffffffffffffff811115612ade57612add612473565b5b612aea8782880161264e565b945050602085013567ffffffffffffffff811115612b0b57612b0a612473565b5b612b178782880161264e565b9350506040612b288782880161269d565b9250506060612b398782880161269d565b91505092959194509250565b600067ffffffffffffffff821115612b6057612b5f612551565b5b612b6982612540565b9050602081019050919050565b6000612b89612b8484612b45565b6125b1565b905082815260208101848484011115612ba557612ba461253b565b5b612bb08482856125fd565b509392505050565b600082601f830112612bcd57612bcc6124d6565b5b8135612bdd848260208601612b76565b91505092915050565b60008060008060808587031215612c0057612bff61246e565b5b6000612c0e878288016124c1565b9450506020612c1f878288016124c1565b9350506040612c308782880161269d565b925050606085013567ffffffffffffffff811115612c5157612c50612473565b5b612c5d87828801612bb8565b91505092959194509250565b60008060408385031215612c8057612c7f61246e565b5b6000612c8e858286016124c1565b9250506020612c9f858286016124c1565b9150509250929050565b7f496e697469616c697a61626c653a20636f6e747261637420697320616c72656160008201527f647920696e697469616c697a6564000000000000000000000000000000000000602082015250565b6000612d05602e83612863565b9150612d1082612ca9565b604082019050919050565b60006020820190508181036000830152612d3481612cf8565b9050919050565b7f496e76616c6964204e4654206f776e65723a207a65726f20616464726573732060008201527f6e6f742076616c69642100000000000000000000000000000000000000000000602082015250565b6000612d97602a83612863565b9150612da282612d3b565b604082019050919050565b60006020820190508181036000830152612dc681612d8a565b9050919050565b6000612dd98385612863565b9350612de68385846125fd565b612def83612540565b840190509392505050565b60006060820190508181036000830152612e15818789612dcd565b90508181036020830152612e2a818587612dcd565b9050612e396040830184612926565b9695505050505050565b6000819050919050565b600060ff82169050919050565b6000819050919050565b6000612e7f612e7a612e7584612e43565b612e5a565b612e4d565b9050919050565b612e8f81612e64565b82525050565b6000602082019050612eaa6000830184612e86565b92915050565b7f4e487b7100000000000000000000000000000000000000000000000000000000600052602260045260246000fd5b60006002820490506001821680612ef757607f821691505b602082108103612f0a57612f09612eb0565b5b50919050565b7f4552433732313a20617070726f76616c20746f2063757272656e74206f776e6560008201527f7200000000000000000000000000000000000000000000000000000000000000602082015250565b6000612f6c602183612863565b9150612f7782612f10565b604082019050919050565b60006020820190508181036000830152612f9b81612f5f565b9050919050565b7f4552433732313a20617070726f76652063616c6c6572206973206e6f7420746f60008201527f6b656e206f776e6572206f7220617070726f76656420666f7220616c6c000000602082015250565b6000612ffe603d83612863565b915061300982612fa2565b604082019050919050565b6000602082019050818103600083015261302d81612ff1565b9050919050565b7f4552433732313a2063616c6c6572206973206e6f7420746f6b656e206f776e6560008201527f72206f7220617070726f76656400000000000000000000000000000000000000602082015250565b6000613090602d83612863565b915061309b82613034565b604082019050919050565b600060208201905081810360008301526130bf81613083565b9050919050565b7f496e76616c696420416464726573732830290000000000000000000000000000600082015250565b60006130fc601283612863565b9150613107826130c6565b602082019050919050565b6000602082019050818103600083015261312b816130ef565b9050919050565b7f43616e6e6f742073656c6c204e465420746f206d7973656c6600000000000000600082015250565b6000613168601983612863565b915061317382613132565b602082019050919050565b600060208201905081810360008301526131978161315b565b9050919050565b7f43616e6e6f74207472616e73666572207468697320746f6b656e496400000000600082015250565b60006131d4601c83612863565b91506131df8261319e565b602082019050919050565b60006020820190508181036000830152613203816131c7565b9050919050565b7f4e6f7420656e6f7567682066756e647320746f2062757920746869732061776560008201527f736f6d65204e4654000000000000000000000000000000000000000000000000602082015250565b6000613266602883612863565b91506132718261320a565b604082019050919050565b6000602082019050818103600083015261329581613259565b9050919050565b7f4552433732313a20696e76616c696420746f6b656e2049440000000000000000600082015250565b60006132d2601883612863565b91506132dd8261329c565b602082019050919050565b60006020820190508181036000830152613301816132c5565b9050919050565b7f4552433732313a2061646472657373207a65726f206973206e6f74206120766160008201527f6c6964206f776e65720000000000000000000000000000000000000000000000602082015250565b6000613364602983612863565b915061336f82613308565b604082019050919050565b6000602082019050818103600083015261339381613357565b9050919050565b7f4e6f7420746865204e4654206f776e6572210000000000000000000000000000600082015250565b60006133d0601283612863565b91506133db8261339a565b602082019050919050565b600060208201905081810360008301526133ff816133c3565b9050919050565b7f4e465420636f73742063616e6e6f74206265206e656761746976650000000000600082015250565b600061343c601b83612863565b915061344782613406565b602082019050919050565b6000602082019050818103600083015261346b8161342f565b9050919050565b7f4e657720707269636520657175616c20746f206f6c6420707269636521000000600082015250565b60006134a8601d83612863565b91506134b382613472565b602082019050919050565b600060208201905081810360008301526134d78161349b565b9050919050565b600060808201905081810360008301526134f8818761289e565b9050818103602083015261350c818661289e565b905061351b6040830185612990565b6135286060830184612990565b95945050505050565b7f43617020616e6420696e697469616c20737570706c79206e6f742076616c6964600082015250565b6000613567602083612863565b915061357282613531565b602082019050919050565b600060208201905081810360008301526135968161355a565b9050919050565b600060a08201905081810360008301526135b7818861289e565b905081810360208301526135cb818761289e565b90506135da6040830186612926565b6135e76060830185612990565b6135f46080830184612990565b9695505050505050565b60008151905061360d816124aa565b92915050565b6000602082840312156136295761362861246e565b5b6000613637848285016135fe565b91505092915050565b7f496e697469616c697a61626c653a20636f6e7472616374206973206e6f74206960008201527f6e697469616c697a696e67000000000000000000000000000000000000000000602082015250565b600061369c602b83612863565b91506136a782613640565b604082019050919050565b600060208201905081810360008301526136cb8161368f565b9050919050565b7f4552433732313a207472616e736665722066726f6d20696e636f72726563742060008201527f6f776e6572000000000000000000000000000000000000000000000000000000602082015250565b600061372e602583612863565b9150613739826136d2565b604082019050919050565b6000602082019050818103600083015261375d81613721565b9050919050565b7f4552433732313a207472616e7366657220746f20746865207a65726f2061646460008201527f7265737300000000000000000000000000000000000000000000000000000000602082015250565b60006137c0602483612863565b91506137cb82613764565b604082019050919050565b600060208201905081810360008301526137ef816137b3565b9050919050565b7f4552433732313a20617070726f766520746f2063616c6c657200000000000000600082015250565b600061382c601983612863565b9150613837826137f6565b602082019050919050565b6000602082019050818103600083015261385b8161381f565b9050919050565b7f4552433732313a207472616e7366657220746f206e6f6e20455243373231526560008201527f63656976657220696d706c656d656e7465720000000000000000000000000000602082015250565b60006138be603283612863565b91506138c982613862565b604082019050919050565b600060208201905081810360008301526138ed816138b1565b9050919050565b600081905092915050565b600061390a82612858565b61391481856138f4565b9350613924818560208601612874565b80840191505092915050565b600061393c82856138ff565b915061394882846138ff565b91508190509392505050565b60008190508160005260206000209050919050565b60006020601f8301049050919050565b600082821b905092915050565b6000600883026139b67fffffffffffffffffffffffffffffffffffffffffffffffffffffffffffffffff82613979565b6139c08683613979565b95508019841693508086168417925050509392505050565b60006139f36139ee6139e98461267c565b612e5a565b61267c565b9050919050565b6000819050919050565b613a0d836139d8565b613a21613a19826139fa565b848454613986565b825550505050565b600090565b613a36613a29565b613a41818484613a04565b505050565b5b81811015613a6557613a5a600082613a2e565b600181019050613a47565b5050565b601f821115613aaa57613a7b81613954565b613a8484613969565b81016020851015613a93578190505b613aa7613a9f85613969565b830182613a46565b50505b505050565b600082821c905092915050565b6000613acd60001984600802613aaf565b1980831691505092915050565b6000613ae68383613abc565b9150826002028217905092915050565b613aff82612858565b67ffffffffffffffff811115613b1857613b17612551565b5b613b228254612edf565b613b2d828285613a69565b600060209050601f831160018114613b605760008415613b4e578287015190505b613b588582613ada565b865550613bc0565b601f198416613b6e86613954565b60005b82811015613b9657848901518255600182019150602085019450602081019050613b71565b86831015613bb35784890151613baf601f891682613abc565b8355505b6001600288020188555050505b505050505050565b7f45524337323155524953746f726167653a2055524920736574206f66206e6f6e60008201527f6578697374656e7420746f6b656e000000000000000000000000000000000000602082015250565b6000613c24602e83612863565b9150613c2f82613bc8565b604082019050919050565b60006020820190508181036000830152613c5381613c17565b9050919050565b600081519050919050565b600082825260208201905092915050565b6000613c8182613c5a565b613c8b8185613c65565b9350613c9b818560208601612874565b613ca481612540565b840191505092915050565b6000608082019050613cc46000830187612926565b613cd16020830186612926565b613cde6040830185612990565b8181036060830152613cf08184613c76565b905095945050505050565b600081519050613d0a816127c9565b92915050565b600060208284031215613d2657613d2561246e565b5b6000613d3484828501613cfb565b91505092915050565b7f4e487b7100000000000000000000000000000000000000000000000000000000600052601260045260246000fd5b7f4552433732313a206d696e7420746f20746865207a65726f2061646472657373600082015250565b6000613da2602083612863565b9150613dad82613d6c565b602082019050919050565b60006020820190508181036000830152613dd181613d95565b9050919050565b7f4552433732313a20746f6b656e20616c7265616479206d696e74656400000000600082015250565b6000613e0e601c83612863565b9150613e1982613dd8565b602082019050919050565b60006020820190508181036000830152613e3d81613e01565b905091905056fea2646970667358221220b9cbbb7ea9a71cda16998e5358816230a9f719d309f6be9e71f2835c74cd06c664736f6c63430008120033",
  "linkReferences": {},
  "deployedLinkReferences": {}
}