{
  "_format": "hh-sol-artifact-1",
  "contractName": "FixedRateExchange",
  "sourceName": "contracts/FixedRateExchange.sol",
  "abi": [
    {
      "inputs": [
        {
          "internalType": "address",
          "name": "router_",
          "type": "address"
        }
      ],
      "stateMutability": "nonpayable",
      "type": "constructor"
    },
    {
      "anonymous": false,
      "inputs": [
        {
          "indexed": false,
          "internalType": "bytes32",
          "name": "exchangeId",
          "type": "bytes32"
        },
        {
          "indexed": false,
          "internalType": "address",
          "name": "datatoken",
          "type": "address"
        },
        {
          "indexed": false,
          "internalType": "address",
          "name": "exchangeowner",
          "type": "address"
        },
        {
          "indexed": false,
          "internalType": "uint256",
          "name": "fixedRate",
          "type": "uint256"
        }
      ],
      "name": "ExchangeCreated",
      "type": "event"
    },
    {
      "anonymous": false,
      "inputs": [
        {
          "indexed": false,
          "internalType": "bytes32",
          "name": "exchangeID",
          "type": "bytes32"
        },
        {
          "indexed": false,
          "internalType": "address",
          "name": "buyer",
          "type": "address"
        },
        {
          "indexed": false,
          "internalType": "address",
          "name": "exchangeOwner",
          "type": "address"
        },
        {
          "indexed": false,
          "internalType": "uint256",
          "name": "dtamountBougth",
          "type": "uint256"
        },
        {
          "indexed": false,
          "internalType": "uint256",
          "name": "smrReceived",
          "type": "uint256"
        }
      ],
      "name": "SuccessfulSwap",
      "type": "event"
    },
    {
      "stateMutability": "payable",
      "type": "fallback"
    },
    {
      "inputs": [],
      "name": "MIN_RATE",
      "outputs": [
        {
          "internalType": "uint256",
          "name": "",
          "type": "uint256"
        }
      ],
      "stateMutability": "view",
      "type": "function"
    },
    {
      "inputs": [
        {
          "internalType": "bytes32",
          "name": "exchangeId",
          "type": "bytes32"
        }
      ],
      "name": "buyDT",
      "outputs": [],
      "stateMutability": "nonpayable",
      "type": "function"
    },
    {
      "inputs": [
        {
          "internalType": "bytes32",
          "name": "exchangeId",
          "type": "bytes32"
        }
      ],
      "name": "disactivateExchange",
      "outputs": [],
      "stateMutability": "nonpayable",
      "type": "function"
    },
    {
      "inputs": [
        {
          "internalType": "bytes32",
          "name": "exchangeId",
          "type": "bytes32"
        }
      ],
      "name": "getExchangeFixedRate",
      "outputs": [
        {
          "internalType": "uint256",
          "name": "",
          "type": "uint256"
        }
      ],
      "stateMutability": "view",
      "type": "function"
    },
    {
      "inputs": [
        {
          "internalType": "bytes32",
          "name": "exchangeId",
          "type": "bytes32"
        }
      ],
      "name": "getSMRcostFor1DT",
      "outputs": [
        {
          "internalType": "uint256",
          "name": "",
          "type": "uint256"
        }
      ],
      "stateMutability": "view",
      "type": "function"
    },
    {
      "inputs": [
        {
          "internalType": "bytes32",
          "name": "exchangeId",
          "type": "bytes32"
        }
      ],
      "name": "reactivateExchange",
      "outputs": [],
      "stateMutability": "nonpayable",
      "type": "function"
    },
    {
      "inputs": [
        {
          "internalType": "address",
          "name": "dtaddress_",
          "type": "address"
        },
        {
          "internalType": "uint8",
          "name": "v",
          "type": "uint8"
        },
        {
          "internalType": "bytes32",
          "name": "r",
          "type": "bytes32"
        },
        {
          "internalType": "bytes32",
          "name": "s",
          "type": "bytes32"
        },
        {
          "internalType": "bytes32",
          "name": "exchangeId",
          "type": "bytes32"
        },
        {
          "internalType": "uint256",
          "name": "amount",
          "type": "uint256"
        }
      ],
      "name": "safeDeposit",
      "outputs": [
        {
          "internalType": "bool",
          "name": "",
          "type": "bool"
        }
      ],
      "stateMutability": "nonpayable",
      "type": "function"
    },
    {
      "inputs": [
        {
          "internalType": "bytes32",
          "name": "exchangeId",
          "type": "bytes32"
        },
        {
          "internalType": "uint256",
          "name": "dtamount",
          "type": "uint256"
        }
      ],
      "name": "sellDT",
      "outputs": [],
      "stateMutability": "payable",
      "type": "function"
    },
    {
      "inputs": [
        {
          "internalType": "address",
          "name": "datatokenAddress_",
          "type": "address"
        },
        {
          "internalType": "address",
          "name": "owner_",
          "type": "address"
        },
        {
          "internalType": "uint256",
          "name": "fixedRate_",
          "type": "uint256"
        },
        {
          "internalType": "uint256",
          "name": "dataTokenDecimals_",
          "type": "uint256"
        },
        {
          "internalType": "uint256",
          "name": "giveMintPerm_to_Exch_",
          "type": "uint256"
        }
      ],
      "name": "setupSMRExchange_for_datatoken",
      "outputs": [
        {
          "internalType": "bytes32",
          "name": "exchangeID",
          "type": "bytes32"
        }
      ],
      "stateMutability": "nonpayable",
      "type": "function"
    },
    {
      "stateMutability": "payable",
      "type": "receive"
    }
  ],
  "bytecode": "0x60806040523480156200001157600080fd5b50604051620025f7380380620025f78339818101604052810190620000379190620000e8565b806000806101000a81548173ffffffffffffffffffffffffffffffffffffffff021916908373ffffffffffffffffffffffffffffffffffffffff160217905550506200011a565b600080fd5b600073ffffffffffffffffffffffffffffffffffffffff82169050919050565b6000620000b08262000083565b9050919050565b620000c281620000a3565b8114620000ce57600080fd5b50565b600081519050620000e281620000b7565b92915050565b6000602082840312156200010157620001006200007e565b5b60006200011184828501620000d1565b91505092915050565b6124cd806200012a6000396000f3fe60806040526004361061008a5760003560e01c80637e0fdb76116100595780637e0fdb7614610166578063973fdf95146101a3578063af0e5dd9146101cc578063d819bfef146101f5578063d90df6ba1461022057610091565b80632929d00f146100935780632cca41de146100af578063407f5a2e146100ec5780634d9109e41461012957610091565b3661009157005b005b6100ad60048036038101906100a891906115e2565b610249565b005b3480156100bb57600080fd5b506100d660048036038101906100d19190611622565b610746565b6040516100e3919061165e565b60405180910390f35b3480156100f857600080fd5b50610113600480360381019061010e9190611710565b6107cb565b60405161012091906117b8565b60405180910390f35b34801561013557600080fd5b50610150600480360381019061014b9190611622565b6109a5565b60405161015d919061165e565b60405180910390f35b34801561017257600080fd5b5061018d600480360381019061018891906117d3565b610a4b565b60405161019a919061185d565b60405180910390f35b3480156101af57600080fd5b506101ca60048036038101906101c59190611622565b610d89565b005b3480156101d857600080fd5b506101f360048036038101906101ee9190611622565b610e61565b005b34801561020157600080fd5b5061020a610ec9565b604051610217919061165e565b60405180910390f35b34801561022c57600080fd5b5061024760048036038101906102429190611622565b610ed2565b005b816002600082815260200190815260200160002060000160009054906101000a900460ff166102ad576040517f08c379a00000000000000000000000000000000000000000000000000000000081526004016102a4906118d5565b60405180910390fd5b600082116102f0576040517f08c379a00000000000000000000000000000000000000000000000000000000081526004016102e790611967565b60405180910390fd5b60006102fc8484610faa565b905060008111610341576040517f08c379a0000000000000000000000000000000000000000000000000000000008152600401610338906119f9565b60405180910390fd5b80341015610384576040517f08c379a000000000000000000000000000000000000000000000000000000000815260040161037b90611a8b565b60405180910390fd5b60026000858152602001908152602001600020600401548311156105a9576002600085815260200190815260200160002060000160019054906101000a900460ff16801561047e57506002600085815260200190815260200160002060010160009054906101000a900473ffffffffffffffffffffffffffffffffffffffff1673ffffffffffffffffffffffffffffffffffffffff1663aa271e1a306040518263ffffffff1660e01b815260040161043c9190611aba565b602060405180830381865afa158015610459573d6000803e3d6000fd5b505050506040513d601f19601f8201168201806040525081019061047d9190611b01565b5b1561052b576002600085815260200190815260200160002060010160009054906101000a900473ffffffffffffffffffffffffffffffffffffffff1673ffffffffffffffffffffffffffffffffffffffff166340c10f1933856040518363ffffffff1660e01b81526004016104f4929190611b2e565b600060405180830381600087803b15801561050e57600080fd5b505af1158015610522573d6000803e3d6000fd5b505050506105a4565b6105a36002600086815260200190815260200160002060010160009054906101000a900473ffffffffffffffffffffffffffffffffffffffff166002600087815260200190815260200160002060000160029054906101000a900473ffffffffffffffffffffffffffffffffffffffff163386610ff7565b5b61064e565b6105d28360026000878152602001908152602001600020600401546111cb90919063ffffffff16565b600260008681526020019081526020016000206004018190555061064d33846002600088815260200190815260200160002060010160009054906101000a900473ffffffffffffffffffffffffffffffffffffffff1673ffffffffffffffffffffffffffffffffffffffff166111e19092919063ffffffff16565b5b6002600085815260200190815260200160002060000160029054906101000a900473ffffffffffffffffffffffffffffffffffffffff1673ffffffffffffffffffffffffffffffffffffffff166108fc349081150290604051600060405180830381858888f193505050501580156106ca573d6000803e3d6000fd5b507f4c9b3b1530f84cc9e644382e10c5e9e4881677ca68b906b2bbcda9aa8dd339ad84336002600088815260200190815260200160002060000160029054906101000a900473ffffffffffffffffffffffffffffffffffffffff168634604051610738959493929190611b57565b60405180910390a150505050565b6000816002600082815260200190815260200160002060000160009054906101000a900460ff166107ac576040517f08c379a00000000000000000000000000000000000000000000000000000000081526004016107a3906118d5565b60405180910390fd5b6002600084815260200190815260200160002060020154915050919050565b6000826002600082815260200190815260200160002060000160009054906101000a900460ff16610831576040517f08c379a0000000000000000000000000000000000000000000000000000000008152600401610828906118d5565b60405180910390fd5b8773ffffffffffffffffffffffffffffffffffffffff1663d505accf3330867fffffffffffffffffffffffffffffffffffffffffffffffffffffffffffffffff8c8c8c6040518863ffffffff1660e01b81526004016108969796959493929190611bb9565b600060405180830381600087803b1580156108b057600080fd5b505af11580156108c4573d6000803e3d6000fd5b5050505060008873ffffffffffffffffffffffffffffffffffffffff166323b872dd3330876040518463ffffffff1660e01b815260040161090793929190611c28565b6020604051808303816000875af1158015610926573d6000803e3d6000fd5b505050506040513d601f19601f8201168201806040525081019061094a9190611b01565b905080156109965761097b84600260008881526020019081526020016000206004015461126790919063ffffffff16565b60026000878152602001908152602001600020600401819055505b80925050509695505050505050565b6000816002600082815260200190815260200160002060000160009054906101000a900460ff16610a0b576040517f08c379a0000000000000000000000000000000000000000000000000000000008152600401610a02906118d5565b60405180910390fd5b610a43836002600086815260200190815260200160002060030154600a610a329190611dc1565b6001610a3e9190611e0c565b610faa565b915050919050565b60008060009054906101000a900473ffffffffffffffffffffffffffffffffffffffff1673ffffffffffffffffffffffffffffffffffffffff163373ffffffffffffffffffffffffffffffffffffffff1614610adc576040517f08c379a0000000000000000000000000000000000000000000000000000000008152600401610ad390611e9a565b60405180910390fd5b600073ffffffffffffffffffffffffffffffffffffffff168673ffffffffffffffffffffffffffffffffffffffff1603610b4b576040517f08c379a0000000000000000000000000000000000000000000000000000000008152600401610b4290611f2c565b60405180910390fd5b6402540be400841015610b93576040517f08c379a0000000000000000000000000000000000000000000000000000000008152600401610b8a90611f98565b60405180910390fd5b610b9d868661127d565b905060006001905060008303610bb257600090505b6040518060e0016040528060011515815260200182151581526020018773ffffffffffffffffffffffffffffffffffffffff1681526020018873ffffffffffffffffffffffffffffffffffffffff16815260200186815260200185815260200160008152506002600084815260200190815260200160002060008201518160000160006101000a81548160ff02191690831515021790555060208201518160000160016101000a81548160ff02191690831515021790555060408201518160000160026101000a81548173ffffffffffffffffffffffffffffffffffffffff021916908373ffffffffffffffffffffffffffffffffffffffff16021790555060608201518160010160006101000a81548173ffffffffffffffffffffffffffffffffffffffff021916908373ffffffffffffffffffffffffffffffffffffffff1602179055506080820151816002015560a0820151816003015560c0820151816004015590505060018290806001815401808255809150506001900390600052602060002001600090919091909150557fd742ce2ca68312806ac54c1118c83a81ee1c3fba9a19e48fbdf02a803ec889b782888888604051610d779493929190611fb8565b60405180910390a15095945050505050565b806002600082815260200190815260200160002060000160029054906101000a900473ffffffffffffffffffffffffffffffffffffffff1673ffffffffffffffffffffffffffffffffffffffff163373ffffffffffffffffffffffffffffffffffffffff1614610e2e576040517f08c379a0000000000000000000000000000000000000000000000000000000008152600401610e2590612049565b60405180910390fd5b60006002600084815260200190815260200160002060000160006101000a81548160ff0219169083151502179055505050565b806002600082815260200190815260200160002060000160009054906101000a900460ff16610ec5576040517f08c379a0000000000000000000000000000000000000000000000000000000008152600401610ebc906118d5565b60405180910390fd5b5050565b6402540be40081565b806002600082815260200190815260200160002060000160029054906101000a900473ffffffffffffffffffffffffffffffffffffffff1673ffffffffffffffffffffffffffffffffffffffff163373ffffffffffffffffffffffffffffffffffffffff1614610f77576040517f08c379a0000000000000000000000000000000000000000000000000000000008152600401610f6e90612049565b60405180910390fd5b60016002600084815260200190815260200160002060000160006101000a81548160ff0219169083151502179055505050565b6000610fef670de0b6b3a7640000610fe16002600087815260200190815260200160002060020154856112b090919063ffffffff16565b6112c690919063ffffffff16565b905092915050565b60008473ffffffffffffffffffffffffffffffffffffffff166370a08231846040518263ffffffff1660e01b81526004016110329190611aba565b602060405180830381865afa15801561104f573d6000803e3d6000fd5b505050506040513d601f19601f82011682018060405250810190611073919061207e565b90508473ffffffffffffffffffffffffffffffffffffffff166323b872dd8585856040518463ffffffff1660e01b81526004016110b293929190611c28565b6020604051808303816000875af11580156110d1573d6000803e3d6000fd5b505050506040513d601f19601f820116820180604052508101906110f59190611b01565b50611109828261126790919063ffffffff16565b8573ffffffffffffffffffffffffffffffffffffffff166370a08231856040518263ffffffff1660e01b81526004016111429190611aba565b602060405180830381865afa15801561115f573d6000803e3d6000fd5b505050506040513d601f19601f82011682018060405250810190611183919061207e565b10156111c4576040517f08c379a00000000000000000000000000000000000000000000000000000000081526004016111bb906120f7565b60405180910390fd5b5050505050565b600081836111d99190612117565b905092915050565b6112628363a9059cbb60e01b8484604051602401611200929190611b2e565b604051602081830303815290604052907bffffffffffffffffffffffffffffffffffffffffffffffffffffffff19166020820180517bffffffffffffffffffffffffffffffffffffffffffffffffffffffff83818316178352505050506112dc565b505050565b60008183611275919061214b565b905092915050565b6000828260405160200161129292919061217f565b60405160208183030381529060405280519060200120905092915050565b600081836112be9190611e0c565b905092915050565b600081836112d491906121d7565b905092915050565b600061133e826040518060400160405280602081526020017f5361666545524332303a206c6f772d6c6576656c2063616c6c206661696c65648152508573ffffffffffffffffffffffffffffffffffffffff166113a49092919063ffffffff16565b905060008151148061136057508080602001905181019061135f9190611b01565b5b61139f576040517f08c379a00000000000000000000000000000000000000000000000000000000081526004016113969061227a565b60405180910390fd5b505050565b60606113b384846000856113bc565b90509392505050565b606082471015611401576040517f08c379a00000000000000000000000000000000000000000000000000000000081526004016113f89061230c565b60405180910390fd5b6000808673ffffffffffffffffffffffffffffffffffffffff16858760405161142a919061239d565b60006040518083038185875af1925050503d8060008114611467576040519150601f19603f3d011682016040523d82523d6000602084013e61146c565b606091505b509150915061147d87838387611489565b92505050949350505050565b606083156114eb5760008351036114e3576114a3856114fe565b6114e2576040517f08c379a00000000000000000000000000000000000000000000000000000000081526004016114d990612400565b60405180910390fd5b5b8290506114f6565b6114f58383611521565b5b949350505050565b6000808273ffffffffffffffffffffffffffffffffffffffff163b119050919050565b6000825111156115345781518083602001fd5b806040517f08c379a00000000000000000000000000000000000000000000000000000000081526004016115689190612475565b60405180910390fd5b600080fd5b6000819050919050565b61158981611576565b811461159457600080fd5b50565b6000813590506115a681611580565b92915050565b6000819050919050565b6115bf816115ac565b81146115ca57600080fd5b50565b6000813590506115dc816115b6565b92915050565b600080604083850312156115f9576115f8611571565b5b600061160785828601611597565b9250506020611618858286016115cd565b9150509250929050565b60006020828403121561163857611637611571565b5b600061164684828501611597565b91505092915050565b611658816115ac565b82525050565b6000602082019050611673600083018461164f565b92915050565b600073ffffffffffffffffffffffffffffffffffffffff82169050919050565b60006116a482611679565b9050919050565b6116b481611699565b81146116bf57600080fd5b50565b6000813590506116d1816116ab565b92915050565b600060ff82169050919050565b6116ed816116d7565b81146116f857600080fd5b50565b60008135905061170a816116e4565b92915050565b60008060008060008060c0878903121561172d5761172c611571565b5b600061173b89828a016116c2565b965050602061174c89828a016116fb565b955050604061175d89828a01611597565b945050606061176e89828a01611597565b935050608061177f89828a01611597565b92505060a061179089828a016115cd565b9150509295509295509295565b60008115159050919050565b6117b28161179d565b82525050565b60006020820190506117cd60008301846117a9565b92915050565b600080600080600060a086880312156117ef576117ee611571565b5b60006117fd888289016116c2565b955050602061180e888289016116c2565b945050604061181f888289016115cd565b9350506060611830888289016115cd565b9250506080611841888289016115cd565b9150509295509295909350565b61185781611576565b82525050565b6000602082019050611872600083018461184e565b92915050565b600082825260208201905092915050565b7f45584348414e4745204953204e4f542041435449564500000000000000000000600082015250565b60006118bf601683611878565b91506118ca82611889565b602082019050919050565b600060208201905081810360008301526118ee816118b2565b9050919050565b7f4649584544524154453a2050524f56494445442041203020445420414d4f554e60008201527f5400000000000000000000000000000000000000000000000000000000000000602082015250565b6000611951602183611878565b915061195c826118f5565b604082019050919050565b6000602082019050818103600083015261198081611944565b9050919050565b7f4649584544524154453a2043414c55434c41544544205357415020505249434560008201527f2049532030210000000000000000000000000000000000000000000000000000602082015250565b60006119e3602683611878565b91506119ee82611987565b604082019050919050565b60006020820190508181036000830152611a12816119d6565b9050919050565b7f4649584544524154453a2053454e542046554e445320415245204e4f5420454e60008201527f4f55474800000000000000000000000000000000000000000000000000000000602082015250565b6000611a75602483611878565b9150611a8082611a19565b604082019050919050565b60006020820190508181036000830152611aa481611a68565b9050919050565b611ab481611699565b82525050565b6000602082019050611acf6000830184611aab565b92915050565b611ade8161179d565b8114611ae957600080fd5b50565b600081519050611afb81611ad5565b92915050565b600060208284031215611b1757611b16611571565b5b6000611b2584828501611aec565b91505092915050565b6000604082019050611b436000830185611aab565b611b50602083018461164f565b9392505050565b600060a082019050611b6c600083018861184e565b611b796020830187611aab565b611b866040830186611aab565b611b93606083018561164f565b611ba0608083018461164f565b9695505050505050565b611bb3816116d7565b82525050565b600060e082019050611bce600083018a611aab565b611bdb6020830189611aab565b611be8604083018861164f565b611bf5606083018761164f565b611c026080830186611baa565b611c0f60a083018561184e565b611c1c60c083018461184e565b98975050505050505050565b6000606082019050611c3d6000830186611aab565b611c4a6020830185611aab565b611c57604083018461164f565b949350505050565b7f4e487b7100000000000000000000000000000000000000000000000000000000600052601160045260246000fd5b60008160011c9050919050565b6000808291508390505b6001851115611ce557808604811115611cc157611cc0611c5f565b5b6001851615611cd05780820291505b8081029050611cde85611c8e565b9450611ca5565b94509492505050565b600082611cfe5760019050611dba565b81611d0c5760009050611dba565b8160018114611d225760028114611d2c57611d5b565b6001915050611dba565b60ff841115611d3e57611d3d611c5f565b5b8360020a915084821115611d5557611d54611c5f565b5b50611dba565b5060208310610133831016604e8410600b8410161715611d905782820a905083811115611d8b57611d8a611c5f565b5b611dba565b611d9d8484846001611c9b565b92509050818404811115611db457611db3611c5f565b5b81810290505b9392505050565b6000611dcc826115ac565b9150611dd7836115ac565b9250611e047fffffffffffffffffffffffffffffffffffffffffffffffffffffffffffffffff8484611cee565b905092915050565b6000611e17826115ac565b9150611e22836115ac565b9250828202611e30816115ac565b91508282048414831517611e4757611e46611c5f565b5b5092915050565b7f43414c4c4552204e4f54205448452056414c494420524f555445520000000000600082015250565b6000611e84601b83611878565b9150611e8f82611e4e565b602082019050919050565b60006020820190508181036000830152611eb381611e77565b9050919050565b7f4649584544524154453a20494e56414c49442044415441544f4b454e2041444460008201527f5245535300000000000000000000000000000000000000000000000000000000602082015250565b6000611f16602483611878565b9150611f2182611eba565b604082019050919050565b60006020820190508181036000830152611f4581611f09565b9050919050565b7f4649584544524154453a205241544520495320544f4f204c4f57000000000000600082015250565b6000611f82601a83611878565b9150611f8d82611f4c565b602082019050919050565b60006020820190508181036000830152611fb181611f75565b9050919050565b6000608082019050611fcd600083018761184e565b611fda6020830186611aab565b611fe76040830185611aab565b611ff4606083018461164f565b95945050505050565b7f43414c4c4552204e4f54205448452045584348414e4745204f574e4552000000600082015250565b6000612033601d83611878565b915061203e82611ffd565b602082019050919050565b6000602082019050818103600083015261206281612026565b9050919050565b600081519050612078816115b6565b92915050565b60006020828403121561209457612093611571565b5b60006120a284828501612069565b91505092915050565b7f5472616e7366657220616d6f756e7420697320746f6f206c6f77000000000000600082015250565b60006120e1601a83611878565b91506120ec826120ab565b602082019050919050565b60006020820190508181036000830152612110816120d4565b9050919050565b6000612122826115ac565b915061212d836115ac565b925082820390508181111561214557612144611c5f565b5b92915050565b6000612156826115ac565b9150612161836115ac565b925082820190508082111561217957612178611c5f565b5b92915050565b60006040820190506121946000830185611aab565b6121a16020830184611aab565b9392505050565b7f4e487b7100000000000000000000000000000000000000000000000000000000600052601260045260246000fd5b60006121e2826115ac565b91506121ed836115ac565b9250826121fd576121fc6121a8565b5b828204905092915050565b7f5361666545524332303a204552433230206f7065726174696f6e20646964206e60008201527f6f74207375636365656400000000000000000000000000000000000000000000602082015250565b6000612264602a83611878565b915061226f82612208565b604082019050919050565b6000602082019050818103600083015261229381612257565b9050919050565b7f416464726573733a20696e73756666696369656e742062616c616e636520666f60008201527f722063616c6c0000000000000000000000000000000000000000000000000000602082015250565b60006122f6602683611878565b91506123018261229a565b604082019050919050565b60006020820190508181036000830152612325816122e9565b9050919050565b600081519050919050565b600081905092915050565b60005b83811015612360578082015181840152602081019050612345565b60008484015250505050565b60006123778261232c565b6123818185612337565b9350612391818560208601612342565b80840191505092915050565b60006123a9828461236c565b915081905092915050565b7f416464726573733a2063616c6c20746f206e6f6e2d636f6e7472616374000000600082015250565b60006123ea601d83611878565b91506123f5826123b4565b602082019050919050565b60006020820190508181036000830152612419816123dd565b9050919050565b600081519050919050565b6000601f19601f8301169050919050565b600061244782612420565b6124518185611878565b9350612461818560208601612342565b61246a8161242b565b840191505092915050565b6000602082019050818103600083015261248f818461243c565b90509291505056fea2646970667358221220bc4da3463d6867612607e356b2afa4d05b55f8a6a8a8978c4abe8b21c048501f64736f6c63430008120033",
  "linkReferences": {},
  "deployedLinkReferences": {}
}