{
  "_format": "hh-sol-artifact-1",
  "contractName": "FixedRateExchange",
  "sourceName": "contracts/FixedRateExchange.sol",
  "abi": [
    {
      "inputs": [
        {
          "internalType": "address",
          "name": "router_",
          "type": "address"
        }
      ],
      "stateMutability": "nonpayable",
      "type": "constructor"
    },
    {
      "anonymous": false,
      "inputs": [
        {
          "indexed": false,
          "internalType": "bytes32",
          "name": "exchangeId",
          "type": "bytes32"
        },
        {
          "indexed": false,
          "internalType": "address",
          "name": "datatoken",
          "type": "address"
        },
        {
          "indexed": false,
          "internalType": "address",
          "name": "exchangeowner",
          "type": "address"
        },
        {
          "indexed": false,
          "internalType": "uint256",
          "name": "fixedRate",
          "type": "uint256"
        }
      ],
      "name": "ExchangeCreated",
      "type": "event"
    },
    {
      "anonymous": false,
      "inputs": [
        {
          "indexed": false,
          "internalType": "bytes32",
          "name": "exchangeID",
          "type": "bytes32"
        },
        {
          "indexed": false,
          "internalType": "address",
          "name": "buyer",
          "type": "address"
        },
        {
          "indexed": false,
          "internalType": "address",
          "name": "exchangeOwner",
          "type": "address"
        },
        {
          "indexed": false,
          "internalType": "uint256",
          "name": "dtamountBougth",
          "type": "uint256"
        },
        {
          "indexed": false,
          "internalType": "uint256",
          "name": "smrReceived",
          "type": "uint256"
        }
      ],
      "name": "SuccessfulSwap",
      "type": "event"
    },
    {
      "stateMutability": "payable",
      "type": "fallback"
    },
    {
      "inputs": [],
      "name": "MIN_RATE",
      "outputs": [
        {
          "internalType": "uint256",
          "name": "",
          "type": "uint256"
        }
      ],
      "stateMutability": "view",
      "type": "function"
    },
    {
      "inputs": [
        {
          "internalType": "bytes32",
          "name": "exchangeId",
          "type": "bytes32"
        }
      ],
      "name": "buyDT",
      "outputs": [],
      "stateMutability": "nonpayable",
      "type": "function"
    },
    {
      "inputs": [
        {
          "internalType": "bytes32",
          "name": "exchangeId",
          "type": "bytes32"
        }
      ],
      "name": "disactivateExchange",
      "outputs": [],
      "stateMutability": "nonpayable",
      "type": "function"
    },
    {
      "inputs": [
        {
          "internalType": "bytes32",
          "name": "exchangeId",
          "type": "bytes32"
        }
      ],
      "name": "getExchangeFixedRate",
      "outputs": [
        {
          "internalType": "uint256",
          "name": "",
          "type": "uint256"
        }
      ],
      "stateMutability": "view",
      "type": "function"
    },
    {
      "inputs": [
        {
          "internalType": "bytes32",
          "name": "exchangeId",
          "type": "bytes32"
        }
      ],
      "name": "getSMRcostFor1DT",
      "outputs": [
        {
          "internalType": "uint256",
          "name": "",
          "type": "uint256"
        }
      ],
      "stateMutability": "view",
      "type": "function"
    },
    {
      "inputs": [
        {
          "internalType": "bytes32",
          "name": "exchangeID",
          "type": "bytes32"
        }
      ],
      "name": "isExchangeActive",
      "outputs": [
        {
          "internalType": "bool",
          "name": "",
          "type": "bool"
        }
      ],
      "stateMutability": "view",
      "type": "function"
    },
    {
      "inputs": [
        {
          "internalType": "bytes32",
          "name": "exchangeId",
          "type": "bytes32"
        }
      ],
      "name": "reactivateExchange",
      "outputs": [],
      "stateMutability": "nonpayable",
      "type": "function"
    },
    {
      "inputs": [
        {
          "internalType": "address",
          "name": "dtaddress_",
          "type": "address"
        },
        {
          "internalType": "uint8",
          "name": "v",
          "type": "uint8"
        },
        {
          "internalType": "bytes32",
          "name": "r",
          "type": "bytes32"
        },
        {
          "internalType": "bytes32",
          "name": "s",
          "type": "bytes32"
        },
        {
          "internalType": "bytes32",
          "name": "exchangeId",
          "type": "bytes32"
        },
        {
          "internalType": "uint256",
          "name": "amount",
          "type": "uint256"
        }
      ],
      "name": "safeDeposit",
      "outputs": [
        {
          "internalType": "bool",
          "name": "",
          "type": "bool"
        }
      ],
      "stateMutability": "nonpayable",
      "type": "function"
    },
    {
      "inputs": [
        {
          "internalType": "bytes32",
          "name": "exchangeId",
          "type": "bytes32"
        },
        {
          "internalType": "uint256",
          "name": "dtamount",
          "type": "uint256"
        }
      ],
      "name": "sellDT",
      "outputs": [],
      "stateMutability": "payable",
      "type": "function"
    },
    {
      "inputs": [
        {
          "internalType": "address",
          "name": "datatokenAddress_",
          "type": "address"
        },
        {
          "internalType": "address",
          "name": "owner_",
          "type": "address"
        },
        {
          "internalType": "uint256",
          "name": "fixedRate_",
          "type": "uint256"
        },
        {
          "internalType": "uint256",
          "name": "dataTokenDecimals_",
          "type": "uint256"
        },
        {
          "internalType": "uint256",
          "name": "giveMintPerm_to_Exch_",
          "type": "uint256"
        }
      ],
      "name": "setupSMRExchange_for_datatoken",
      "outputs": [
        {
          "internalType": "bytes32",
          "name": "exchangeID",
          "type": "bytes32"
        }
      ],
      "stateMutability": "nonpayable",
      "type": "function"
    },
    {
      "stateMutability": "payable",
      "type": "receive"
    }
  ],
  "bytecode": "0x60806040523480156200001157600080fd5b506040516200266c3803806200266c8339818101604052810190620000379190620000e8565b806000806101000a81548173ffffffffffffffffffffffffffffffffffffffff021916908373ffffffffffffffffffffffffffffffffffffffff160217905550506200011a565b600080fd5b600073ffffffffffffffffffffffffffffffffffffffff82169050919050565b6000620000b08262000083565b9050919050565b620000c281620000a3565b8114620000ce57600080fd5b50565b600081519050620000e281620000b7565b92915050565b6000602082840312156200010157620001006200007e565b5b60006200011184828501620000d1565b91505092915050565b612542806200012a6000396000f3fe6080604052600436106100955760003560e01c80637e0fdb76116100595780637e0fdb76146101ae578063973fdf95146101eb578063af0e5dd914610214578063d819bfef1461023d578063d90df6ba146102685761009c565b80632929d00f1461009e5780632cca41de146100ba578063407f5a2e146100f75780634d9109e4146101345780636b027bfa146101715761009c565b3661009c57005b005b6100b860048036038101906100b39190611657565b610291565b005b3480156100c657600080fd5b506100e160048036038101906100dc9190611697565b61078e565b6040516100ee91906116d3565b60405180910390f35b34801561010357600080fd5b5061011e60048036038101906101199190611785565b610813565b60405161012b919061182d565b60405180910390f35b34801561014057600080fd5b5061015b60048036038101906101569190611697565b6109ed565b60405161016891906116d3565b60405180910390f35b34801561017d57600080fd5b5061019860048036038101906101939190611697565b610a93565b6040516101a5919061182d565b60405180910390f35b3480156101ba57600080fd5b506101d560048036038101906101d09190611848565b610ac0565b6040516101e291906118d2565b60405180910390f35b3480156101f757600080fd5b50610212600480360381019061020d9190611697565b610dfe565b005b34801561022057600080fd5b5061023b60048036038101906102369190611697565b610ed6565b005b34801561024957600080fd5b50610252610f3e565b60405161025f91906116d3565b60405180910390f35b34801561027457600080fd5b5061028f600480360381019061028a9190611697565b610f47565b005b816002600082815260200190815260200160002060000160009054906101000a900460ff166102f5576040517f08c379a00000000000000000000000000000000000000000000000000000000081526004016102ec9061194a565b60405180910390fd5b60008211610338576040517f08c379a000000000000000000000000000000000000000000000000000000000815260040161032f906119dc565b60405180910390fd5b6000610344848461101f565b905060008111610389576040517f08c379a000000000000000000000000000000000000000000000000000000000815260040161038090611a6e565b60405180910390fd5b803410156103cc576040517f08c379a00000000000000000000000000000000000000000000000000000000081526004016103c390611b00565b60405180910390fd5b60026000858152602001908152602001600020600401548311156105f1576002600085815260200190815260200160002060000160019054906101000a900460ff1680156104c657506002600085815260200190815260200160002060010160009054906101000a900473ffffffffffffffffffffffffffffffffffffffff1673ffffffffffffffffffffffffffffffffffffffff1663aa271e1a306040518263ffffffff1660e01b81526004016104849190611b2f565b602060405180830381865afa1580156104a1573d6000803e3d6000fd5b505050506040513d601f19601f820116820180604052508101906104c59190611b76565b5b15610573576002600085815260200190815260200160002060010160009054906101000a900473ffffffffffffffffffffffffffffffffffffffff1673ffffffffffffffffffffffffffffffffffffffff166340c10f1933856040518363ffffffff1660e01b815260040161053c929190611ba3565b600060405180830381600087803b15801561055657600080fd5b505af115801561056a573d6000803e3d6000fd5b505050506105ec565b6105eb6002600086815260200190815260200160002060010160009054906101000a900473ffffffffffffffffffffffffffffffffffffffff166002600087815260200190815260200160002060000160029054906101000a900473ffffffffffffffffffffffffffffffffffffffff16338661106c565b5b610696565b61061a83600260008781526020019081526020016000206004015461124090919063ffffffff16565b600260008681526020019081526020016000206004018190555061069533846002600088815260200190815260200160002060010160009054906101000a900473ffffffffffffffffffffffffffffffffffffffff1673ffffffffffffffffffffffffffffffffffffffff166112569092919063ffffffff16565b5b6002600085815260200190815260200160002060000160029054906101000a900473ffffffffffffffffffffffffffffffffffffffff1673ffffffffffffffffffffffffffffffffffffffff166108fc349081150290604051600060405180830381858888f19350505050158015610712573d6000803e3d6000fd5b507f4c9b3b1530f84cc9e644382e10c5e9e4881677ca68b906b2bbcda9aa8dd339ad84336002600088815260200190815260200160002060000160029054906101000a900473ffffffffffffffffffffffffffffffffffffffff168634604051610780959493929190611bcc565b60405180910390a150505050565b6000816002600082815260200190815260200160002060000160009054906101000a900460ff166107f4576040517f08c379a00000000000000000000000000000000000000000000000000000000081526004016107eb9061194a565b60405180910390fd5b6002600084815260200190815260200160002060020154915050919050565b6000826002600082815260200190815260200160002060000160009054906101000a900460ff16610879576040517f08c379a00000000000000000000000000000000000000000000000000000000081526004016108709061194a565b60405180910390fd5b8773ffffffffffffffffffffffffffffffffffffffff1663d505accf3330867fffffffffffffffffffffffffffffffffffffffffffffffffffffffffffffffff8c8c8c6040518863ffffffff1660e01b81526004016108de9796959493929190611c2e565b600060405180830381600087803b1580156108f857600080fd5b505af115801561090c573d6000803e3d6000fd5b5050505060008873ffffffffffffffffffffffffffffffffffffffff166323b872dd3330876040518463ffffffff1660e01b815260040161094f93929190611c9d565b6020604051808303816000875af115801561096e573d6000803e3d6000fd5b505050506040513d601f19601f820116820180604052508101906109929190611b76565b905080156109de576109c38460026000888152602001908152602001600020600401546112dc90919063ffffffff16565b60026000878152602001908152602001600020600401819055505b80925050509695505050505050565b6000816002600082815260200190815260200160002060000160009054906101000a900460ff16610a53576040517f08c379a0000000000000000000000000000000000000000000000000000000008152600401610a4a9061194a565b60405180910390fd5b610a8b836002600086815260200190815260200160002060030154600a610a7a9190611e36565b6001610a869190611e81565b61101f565b915050919050565b60006002600083815260200190815260200160002060000160009054906101000a900460ff169050919050565b60008060009054906101000a900473ffffffffffffffffffffffffffffffffffffffff1673ffffffffffffffffffffffffffffffffffffffff163373ffffffffffffffffffffffffffffffffffffffff1614610b51576040517f08c379a0000000000000000000000000000000000000000000000000000000008152600401610b4890611f0f565b60405180910390fd5b600073ffffffffffffffffffffffffffffffffffffffff168673ffffffffffffffffffffffffffffffffffffffff1603610bc0576040517f08c379a0000000000000000000000000000000000000000000000000000000008152600401610bb790611fa1565b60405180910390fd5b6402540be400841015610c08576040517f08c379a0000000000000000000000000000000000000000000000000000000008152600401610bff9061200d565b60405180910390fd5b610c1286866112f2565b905060006001905060008303610c2757600090505b6040518060e0016040528060011515815260200182151581526020018773ffffffffffffffffffffffffffffffffffffffff1681526020018873ffffffffffffffffffffffffffffffffffffffff16815260200186815260200185815260200160008152506002600084815260200190815260200160002060008201518160000160006101000a81548160ff02191690831515021790555060208201518160000160016101000a81548160ff02191690831515021790555060408201518160000160026101000a81548173ffffffffffffffffffffffffffffffffffffffff021916908373ffffffffffffffffffffffffffffffffffffffff16021790555060608201518160010160006101000a81548173ffffffffffffffffffffffffffffffffffffffff021916908373ffffffffffffffffffffffffffffffffffffffff1602179055506080820151816002015560a0820151816003015560c0820151816004015590505060018290806001815401808255809150506001900390600052602060002001600090919091909150557fd742ce2ca68312806ac54c1118c83a81ee1c3fba9a19e48fbdf02a803ec889b782888888604051610dec949392919061202d565b60405180910390a15095945050505050565b806002600082815260200190815260200160002060000160029054906101000a900473ffffffffffffffffffffffffffffffffffffffff1673ffffffffffffffffffffffffffffffffffffffff163373ffffffffffffffffffffffffffffffffffffffff1614610ea3576040517f08c379a0000000000000000000000000000000000000000000000000000000008152600401610e9a906120be565b60405180910390fd5b60006002600084815260200190815260200160002060000160006101000a81548160ff0219169083151502179055505050565b806002600082815260200190815260200160002060000160009054906101000a900460ff16610f3a576040517f08c379a0000000000000000000000000000000000000000000000000000000008152600401610f319061194a565b60405180910390fd5b5050565b6402540be40081565b806002600082815260200190815260200160002060000160029054906101000a900473ffffffffffffffffffffffffffffffffffffffff1673ffffffffffffffffffffffffffffffffffffffff163373ffffffffffffffffffffffffffffffffffffffff1614610fec576040517f08c379a0000000000000000000000000000000000000000000000000000000008152600401610fe3906120be565b60405180910390fd5b60016002600084815260200190815260200160002060000160006101000a81548160ff0219169083151502179055505050565b6000611064670de0b6b3a764000061105660026000878152602001908152602001600020600201548561132590919063ffffffff16565b61133b90919063ffffffff16565b905092915050565b60008473ffffffffffffffffffffffffffffffffffffffff166370a08231846040518263ffffffff1660e01b81526004016110a79190611b2f565b602060405180830381865afa1580156110c4573d6000803e3d6000fd5b505050506040513d601f19601f820116820180604052508101906110e891906120f3565b90508473ffffffffffffffffffffffffffffffffffffffff166323b872dd8585856040518463ffffffff1660e01b815260040161112793929190611c9d565b6020604051808303816000875af1158015611146573d6000803e3d6000fd5b505050506040513d601f19601f8201168201806040525081019061116a9190611b76565b5061117e82826112dc90919063ffffffff16565b8573ffffffffffffffffffffffffffffffffffffffff166370a08231856040518263ffffffff1660e01b81526004016111b79190611b2f565b602060405180830381865afa1580156111d4573d6000803e3d6000fd5b505050506040513d601f19601f820116820180604052508101906111f891906120f3565b1015611239576040517f08c379a00000000000000000000000000000000000000000000000000000000081526004016112309061216c565b60405180910390fd5b5050505050565b6000818361124e919061218c565b905092915050565b6112d78363a9059cbb60e01b8484604051602401611275929190611ba3565b604051602081830303815290604052907bffffffffffffffffffffffffffffffffffffffffffffffffffffffff19166020820180517bffffffffffffffffffffffffffffffffffffffffffffffffffffffff8381831617835250505050611351565b505050565b600081836112ea91906121c0565b905092915050565b600082826040516020016113079291906121f4565b60405160208183030381529060405280519060200120905092915050565b600081836113339190611e81565b905092915050565b60008183611349919061224c565b905092915050565b60006113b3826040518060400160405280602081526020017f5361666545524332303a206c6f772d6c6576656c2063616c6c206661696c65648152508573ffffffffffffffffffffffffffffffffffffffff166114199092919063ffffffff16565b90506000815114806113d55750808060200190518101906113d49190611b76565b5b611414576040517f08c379a000000000000000000000000000000000000000000000000000000000815260040161140b906122ef565b60405180910390fd5b505050565b60606114288484600085611431565b90509392505050565b606082471015611476576040517f08c379a000000000000000000000000000000000000000000000000000000000815260040161146d90612381565b60405180910390fd5b6000808673ffffffffffffffffffffffffffffffffffffffff16858760405161149f9190612412565b60006040518083038185875af1925050503d80600081146114dc576040519150601f19603f3d011682016040523d82523d6000602084013e6114e1565b606091505b50915091506114f2878383876114fe565b92505050949350505050565b606083156115605760008351036115585761151885611573565b611557576040517f08c379a000000000000000000000000000000000000000000000000000000000815260040161154e90612475565b60405180910390fd5b5b82905061156b565b61156a8383611596565b5b949350505050565b6000808273ffffffffffffffffffffffffffffffffffffffff163b119050919050565b6000825111156115a95781518083602001fd5b806040517f08c379a00000000000000000000000000000000000000000000000000000000081526004016115dd91906124ea565b60405180910390fd5b600080fd5b6000819050919050565b6115fe816115eb565b811461160957600080fd5b50565b60008135905061161b816115f5565b92915050565b6000819050919050565b61163481611621565b811461163f57600080fd5b50565b6000813590506116518161162b565b92915050565b6000806040838503121561166e5761166d6115e6565b5b600061167c8582860161160c565b925050602061168d85828601611642565b9150509250929050565b6000602082840312156116ad576116ac6115e6565b5b60006116bb8482850161160c565b91505092915050565b6116cd81611621565b82525050565b60006020820190506116e860008301846116c4565b92915050565b600073ffffffffffffffffffffffffffffffffffffffff82169050919050565b6000611719826116ee565b9050919050565b6117298161170e565b811461173457600080fd5b50565b60008135905061174681611720565b92915050565b600060ff82169050919050565b6117628161174c565b811461176d57600080fd5b50565b60008135905061177f81611759565b92915050565b60008060008060008060c087890312156117a2576117a16115e6565b5b60006117b089828a01611737565b96505060206117c189828a01611770565b95505060406117d289828a0161160c565b94505060606117e389828a0161160c565b93505060806117f489828a0161160c565b92505060a061180589828a01611642565b9150509295509295509295565b60008115159050919050565b61182781611812565b82525050565b6000602082019050611842600083018461181e565b92915050565b600080600080600060a08688031215611864576118636115e6565b5b600061187288828901611737565b955050602061188388828901611737565b945050604061189488828901611642565b93505060606118a588828901611642565b92505060806118b688828901611642565b9150509295509295909350565b6118cc816115eb565b82525050565b60006020820190506118e760008301846118c3565b92915050565b600082825260208201905092915050565b7f45584348414e4745204953204e4f542041435449564500000000000000000000600082015250565b60006119346016836118ed565b915061193f826118fe565b602082019050919050565b6000602082019050818103600083015261196381611927565b9050919050565b7f4649584544524154453a2050524f56494445442041203020445420414d4f554e60008201527f5400000000000000000000000000000000000000000000000000000000000000602082015250565b60006119c66021836118ed565b91506119d18261196a565b604082019050919050565b600060208201905081810360008301526119f5816119b9565b9050919050565b7f4649584544524154453a2043414c55434c41544544205357415020505249434560008201527f2049532030210000000000000000000000000000000000000000000000000000602082015250565b6000611a586026836118ed565b9150611a63826119fc565b604082019050919050565b60006020820190508181036000830152611a8781611a4b565b9050919050565b7f4649584544524154453a2053454e542046554e445320415245204e4f5420454e60008201527f4f55474800000000000000000000000000000000000000000000000000000000602082015250565b6000611aea6024836118ed565b9150611af582611a8e565b604082019050919050565b60006020820190508181036000830152611b1981611add565b9050919050565b611b298161170e565b82525050565b6000602082019050611b446000830184611b20565b92915050565b611b5381611812565b8114611b5e57600080fd5b50565b600081519050611b7081611b4a565b92915050565b600060208284031215611b8c57611b8b6115e6565b5b6000611b9a84828501611b61565b91505092915050565b6000604082019050611bb86000830185611b20565b611bc560208301846116c4565b9392505050565b600060a082019050611be160008301886118c3565b611bee6020830187611b20565b611bfb6040830186611b20565b611c0860608301856116c4565b611c1560808301846116c4565b9695505050505050565b611c288161174c565b82525050565b600060e082019050611c43600083018a611b20565b611c506020830189611b20565b611c5d60408301886116c4565b611c6a60608301876116c4565b611c776080830186611c1f565b611c8460a08301856118c3565b611c9160c08301846118c3565b98975050505050505050565b6000606082019050611cb26000830186611b20565b611cbf6020830185611b20565b611ccc60408301846116c4565b949350505050565b7f4e487b7100000000000000000000000000000000000000000000000000000000600052601160045260246000fd5b60008160011c9050919050565b6000808291508390505b6001851115611d5a57808604811115611d3657611d35611cd4565b5b6001851615611d455780820291505b8081029050611d5385611d03565b9450611d1a565b94509492505050565b600082611d735760019050611e2f565b81611d815760009050611e2f565b8160018114611d975760028114611da157611dd0565b6001915050611e2f565b60ff841115611db357611db2611cd4565b5b8360020a915084821115611dca57611dc9611cd4565b5b50611e2f565b5060208310610133831016604e8410600b8410161715611e055782820a905083811115611e0057611dff611cd4565b5b611e2f565b611e128484846001611d10565b92509050818404811115611e2957611e28611cd4565b5b81810290505b9392505050565b6000611e4182611621565b9150611e4c83611621565b9250611e797fffffffffffffffffffffffffffffffffffffffffffffffffffffffffffffffff8484611d63565b905092915050565b6000611e8c82611621565b9150611e9783611621565b9250828202611ea581611621565b91508282048414831517611ebc57611ebb611cd4565b5b5092915050565b7f43414c4c4552204e4f54205448452056414c494420524f555445520000000000600082015250565b6000611ef9601b836118ed565b9150611f0482611ec3565b602082019050919050565b60006020820190508181036000830152611f2881611eec565b9050919050565b7f4649584544524154453a20494e56414c49442044415441544f4b454e2041444460008201527f5245535300000000000000000000000000000000000000000000000000000000602082015250565b6000611f8b6024836118ed565b9150611f9682611f2f565b604082019050919050565b60006020820190508181036000830152611fba81611f7e565b9050919050565b7f4649584544524154453a205241544520495320544f4f204c4f57000000000000600082015250565b6000611ff7601a836118ed565b915061200282611fc1565b602082019050919050565b6000602082019050818103600083015261202681611fea565b9050919050565b600060808201905061204260008301876118c3565b61204f6020830186611b20565b61205c6040830185611b20565b61206960608301846116c4565b95945050505050565b7f43414c4c4552204e4f54205448452045584348414e4745204f574e4552000000600082015250565b60006120a8601d836118ed565b91506120b382612072565b602082019050919050565b600060208201905081810360008301526120d78161209b565b9050919050565b6000815190506120ed8161162b565b92915050565b600060208284031215612109576121086115e6565b5b6000612117848285016120de565b91505092915050565b7f5472616e7366657220616d6f756e7420697320746f6f206c6f77000000000000600082015250565b6000612156601a836118ed565b915061216182612120565b602082019050919050565b6000602082019050818103600083015261218581612149565b9050919050565b600061219782611621565b91506121a283611621565b92508282039050818111156121ba576121b9611cd4565b5b92915050565b60006121cb82611621565b91506121d683611621565b92508282019050808211156121ee576121ed611cd4565b5b92915050565b60006040820190506122096000830185611b20565b6122166020830184611b20565b9392505050565b7f4e487b7100000000000000000000000000000000000000000000000000000000600052601260045260246000fd5b600061225782611621565b915061226283611621565b9250826122725761227161221d565b5b828204905092915050565b7f5361666545524332303a204552433230206f7065726174696f6e20646964206e60008201527f6f74207375636365656400000000000000000000000000000000000000000000602082015250565b60006122d9602a836118ed565b91506122e48261227d565b604082019050919050565b60006020820190508181036000830152612308816122cc565b9050919050565b7f416464726573733a20696e73756666696369656e742062616c616e636520666f60008201527f722063616c6c0000000000000000000000000000000000000000000000000000602082015250565b600061236b6026836118ed565b91506123768261230f565b604082019050919050565b6000602082019050818103600083015261239a8161235e565b9050919050565b600081519050919050565b600081905092915050565b60005b838110156123d55780820151818401526020810190506123ba565b60008484015250505050565b60006123ec826123a1565b6123f681856123ac565b93506124068185602086016123b7565b80840191505092915050565b600061241e82846123e1565b915081905092915050565b7f416464726573733a2063616c6c20746f206e6f6e2d636f6e7472616374000000600082015250565b600061245f601d836118ed565b915061246a82612429565b602082019050919050565b6000602082019050818103600083015261248e81612452565b9050919050565b600081519050919050565b6000601f19601f8301169050919050565b60006124bc82612495565b6124c681856118ed565b93506124d68185602086016123b7565b6124df816124a0565b840191505092915050565b6000602082019050818103600083015261250481846124b1565b90509291505056fea2646970667358221220272af227ebce45958671c1158b77768caf5648bfdf6c0260844ab631c7737dce64736f6c63430008120033",
  "linkReferences": {},
  "deployedLinkReferences": {}
}