{"contracts/ERC721Base.sol":{"ERC721Base":{"abi":[{"anonymous":false,"inputs":[{"indexed":true,"internalType":"address","name":"owner","type":"address"},{"indexed":true,"internalType":"address","name":"approved","type":"address"},{"indexed":true,"internalType":"uint256","name":"tokenId","type":"uint256"}],"name":"Approval","type":"event"},{"anonymous":false,"inputs":[{"indexed":true,"internalType":"address","name":"owner","type":"address"},{"indexed":true,"internalType":"address","name":"operator","type":"address"},{"indexed":false,"internalType":"bool","name":"approved","type":"bool"}],"name":"ApprovalForAll","type":"event"},{"anonymous":false,"inputs":[{"indexed":true,"internalType":"address","name":"owner","type":"address"},{"indexed":false,"internalType":"string","name":"name","type":"string"},{"indexed":false,"internalType":"string","name":"symbol","type":"string"},{"indexed":false,"internalType":"address","name":"factory","type":"address"}],"name":"NFTminted","type":"event"},{"anonymous":false,"inputs":[{"indexed":true,"internalType":"address","name":"owner","type":"address"},{"indexed":false,"internalType":"string","name":"name","type":"string"},{"indexed":false,"internalType":"string","name":"symbol","type":"string"},{"indexed":false,"internalType":"uint256","name":"oldPrice","type":"uint256"},{"indexed":false,"internalType":"uint256","name":"newPrice","type":"uint256"}],"name":"NFTpriceUpdated","type":"event"},{"anonymous":false,"inputs":[{"indexed":true,"internalType":"address","name":"from","type":"address"},{"indexed":true,"internalType":"address","name":"to","type":"address"},{"indexed":true,"internalType":"uint256","name":"tokenId","type":"uint256"}],"name":"Transfer","type":"event"},{"stateMutability":"payable","type":"fallback"},{"inputs":[{"internalType":"address","name":"to","type":"address"},{"internalType":"uint256","name":"tokenId","type":"uint256"}],"name":"approve","outputs":[],"stateMutability":"nonpayable","type":"function"},{"inputs":[{"internalType":"address","name":"owner","type":"address"}],"name":"balanceOf","outputs":[{"internalType":"uint256","name":"","type":"uint256"}],"stateMutability":"view","type":"function"},{"inputs":[{"internalType":"uint256","name":"tokenId","type":"uint256"}],"name":"burn","outputs":[],"stateMutability":"nonpayable","type":"function"},{"inputs":[{"internalType":"uint256","name":"tokenId","type":"uint256"}],"name":"buyNFT","outputs":[],"stateMutability":"payable","type":"function"},{"inputs":[{"internalType":"uint256","name":"tokenId","type":"uint256"}],"name":"getApproved","outputs":[{"internalType":"address","name":"","type":"address"}],"stateMutability":"view","type":"function"},{"inputs":[{"internalType":"uint256","name":"tokenID","type":"uint256"}],"name":"getNFTOwner","outputs":[{"internalType":"address","name":"","type":"address"}],"stateMutability":"view","type":"function"},{"inputs":[],"name":"getNFTname","outputs":[{"internalType":"string","name":"","type":"string"}],"stateMutability":"view","type":"function"},{"inputs":[],"name":"getNFTprice","outputs":[{"internalType":"uint256","name":"","type":"uint256"}],"stateMutability":"view","type":"function"},{"inputs":[],"name":"getNFTsymbol","outputs":[{"internalType":"string","name":"","type":"string"}],"stateMutability":"view","type":"function"},{"inputs":[{"internalType":"address","name":"owner","type":"address"},{"internalType":"string","name":"name","type":"string"},{"internalType":"string","name":"symbol","type":"string"},{"internalType":"address","name":"factory","type":"address"},{"internalType":"string","name":"_tokenURI","type":"string"},{"internalType":"uint256","name":"initialPrice","type":"uint256"}],"name":"initialize","outputs":[{"internalType":"bool","name":"","type":"bool"}],"stateMutability":"nonpayable","type":"function"},{"inputs":[{"internalType":"address","name":"owner","type":"address"},{"internalType":"address","name":"operator","type":"address"}],"name":"isApprovedForAll","outputs":[{"internalType":"bool","name":"","type":"bool"}],"stateMutability":"view","type":"function"},{"inputs":[],"name":"name","outputs":[{"internalType":"string","name":"","type":"string"}],"stateMutability":"view","type":"function"},{"inputs":[{"internalType":"uint256","name":"tokenId","type":"uint256"}],"name":"ownerOf","outputs":[{"internalType":"address","name":"","type":"address"}],"stateMutability":"view","type":"function"},{"inputs":[{"internalType":"address","name":"from","type":"address"},{"internalType":"address","name":"to","type":"address"},{"internalType":"uint256","name":"tokenId","type":"uint256"}],"name":"safeTransferFrom","outputs":[],"stateMutability":"nonpayable","type":"function"},{"inputs":[{"internalType":"address","name":"from","type":"address"},{"internalType":"address","name":"to","type":"address"},{"internalType":"uint256","name":"tokenId","type":"uint256"},{"internalType":"bytes","name":"data","type":"bytes"}],"name":"safeTransferFrom","outputs":[],"stateMutability":"nonpayable","type":"function"},{"inputs":[{"internalType":"address","name":"operator","type":"address"},{"internalType":"bool","name":"approved","type":"bool"}],"name":"setApprovalForAll","outputs":[],"stateMutability":"nonpayable","type":"function"},{"inputs":[{"internalType":"uint256","name":"price_","type":"uint256"}],"name":"setPrice","outputs":[],"stateMutability":"nonpayable","type":"function"},{"inputs":[{"internalType":"bytes4","name":"interfaceId","type":"bytes4"}],"name":"supportsInterface","outputs":[{"internalType":"bool","name":"","type":"bool"}],"stateMutability":"view","type":"function"},{"inputs":[],"name":"symbol","outputs":[{"internalType":"string","name":"","type":"string"}],"stateMutability":"view","type":"function"},{"inputs":[{"internalType":"uint256","name":"tokenId","type":"uint256"}],"name":"tokenURI","outputs":[{"internalType":"string","name":"","type":"string"}],"stateMutability":"view","type":"function"},{"inputs":[{"internalType":"address","name":"from","type":"address"},{"internalType":"address","name":"to","type":"address"},{"internalType":"uint256","name":"tokenId","type":"uint256"}],"name":"transferFrom","outputs":[],"stateMutability":"nonpayable","type":"function"},{"stateMutability":"payable","type":"receive"}],"evm":{"bytecode":{"linkReferences":{},"object":"60806040526000600c60006101000a81548160ff0219169083151502179055503480156200002c57600080fd5b506040518060400160405280600481526020017f42617365000000000000000000000000000000000000000000000000000000008152506040518060400160405280600a81526020017f4261736553796d626f6c000000000000000000000000000000000000000000008152508160009081620000aa91906200033f565b508060019081620000bc91906200033f565b50505062000426565b600081519050919050565b7f4e487b7100000000000000000000000000000000000000000000000000000000600052604160045260246000fd5b7f4e487b7100000000000000000000000000000000000000000000000000000000600052602260045260246000fd5b600060028204905060018216806200014757607f821691505b6020821081036200015d576200015c620000ff565b5b50919050565b60008190508160005260206000209050919050565b60006020601f8301049050919050565b600082821b905092915050565b600060088302620001c77fffffffffffffffffffffffffffffffffffffffffffffffffffffffffffffffff8262000188565b620001d3868362000188565b95508019841693508086168417925050509392505050565b6000819050919050565b6000819050919050565b6000620002206200021a6200021484620001eb565b620001f5565b620001eb565b9050919050565b6000819050919050565b6200023c83620001ff565b620002546200024b8262000227565b84845462000195565b825550505050565b600090565b6200026b6200025c565b6200027881848462000231565b505050565b5b81811015620002a0576200029460008262000261565b6001810190506200027e565b5050565b601f821115620002ef57620002b98162000163565b620002c48462000178565b81016020851015620002d4578190505b620002ec620002e38562000178565b8301826200027d565b50505b505050565b600082821c905092915050565b60006200031460001984600802620002f4565b1980831691505092915050565b60006200032f838362000301565b9150826002028217905092915050565b6200034a82620000c5565b67ffffffffffffffff811115620003665762000365620000d0565b5b6200037282546200012e565b6200037f828285620002a4565b600060209050601f831160018114620003b75760008415620003a2578287015190505b620003ae858262000321565b8655506200041e565b601f198416620003c78662000163565b60005b82811015620003f157848901518255600182019150602085019450602081019050620003ca565b868310156200041157848901516200040d601f89168262000301565b8355505b6001600288020188555050505b505050505050565b613e7c80620004366000396000f3fe60806040526004361061012e5760003560e01c806351ed8288116100ab578063a22cb4651161006f578063a22cb465146103fd578063b88d4fde14610426578063c87b56dd1461044f578063de9fdebe1461048c578063deaea2e3146104b7578063e985e9c5146104f457610135565b806351ed8288146103135780636352211e1461032f57806370a082311461036c57806391b7f5ed146103a957806395d89b41146103d257610135565b80631ff95da9116100f25780631ff95da91461024257806323b872dd1461026d5780633d38edac1461029657806342842e0e146102c157806342966c68146102ea57610135565b806301eaaea21461013757806301ffc9a71461017457806306fdde03146101b1578063081812fc146101dc578063095ea7b31461021957610135565b3661013557005b005b34801561014357600080fd5b5061015e60048036038101906101599190612810565b610531565b60405161016b9190612916565b60405180910390f35b34801561018057600080fd5b5061019b60048036038101906101969190612989565b61079b565b6040516101a89190612916565b60405180910390f35b3480156101bd57600080fd5b506101c661087d565b6040516101d39190612a35565b60405180910390f35b3480156101e857600080fd5b5061020360048036038101906101fe9190612a57565b61090f565b6040516102109190612a93565b60405180910390f35b34801561022557600080fd5b50610240600480360381019061023b9190612aae565b610955565b005b34801561024e57600080fd5b50610257610a6c565b6040516102649190612afd565b60405180910390f35b34801561027957600080fd5b50610294600480360381019061028f9190612b18565b610a76565b005b3480156102a257600080fd5b506102ab610ad6565b6040516102b89190612a35565b60405180910390f35b3480156102cd57600080fd5b506102e860048036038101906102e39190612b18565b610b68565b005b3480156102f657600080fd5b50610311600480360381019061030c9190612a57565b610b88565b005b61032d60048036038101906103289190612a57565b610be4565b005b34801561033b57600080fd5b5061035660048036038101906103519190612a57565b610e45565b6040516103639190612a93565b60405180910390f35b34801561037857600080fd5b50610393600480360381019061038e9190612b6b565b610ecb565b6040516103a09190612afd565b60405180910390f35b3480156103b557600080fd5b506103d060048036038101906103cb9190612a57565b610f82565b005b3480156103de57600080fd5b506103e761108b565b6040516103f49190612a35565b60405180910390f35b34801561040957600080fd5b50610424600480360381019061041f9190612bc4565b61111d565b005b34801561043257600080fd5b5061044d60048036038101906104489190612ca5565b611133565b005b34801561045b57600080fd5b5061047660048036038101906104719190612a57565b611195565b6040516104839190612a35565b60405180910390f35b34801561049857600080fd5b506104a16111a7565b6040516104ae9190612a35565b60405180910390f35b3480156104c357600080fd5b506104de60048036038101906104d99190612a57565b611239565b6040516104eb9190612a93565b60405180910390f35b34801561050057600080fd5b5061051b60048036038101906105169190612d28565b61128e565b6040516105289190612916565b60405180910390f35b60008073ffffffffffffffffffffffffffffffffffffffff168973ffffffffffffffffffffffffffffffffffffffff16036105a1576040517f08c379a000000000000000000000000000000000000000000000000000000000815260040161059890612dda565b60405180910390fd5b600c60009054906101000a900460ff16156105f1576040517f08c379a00000000000000000000000000000000000000000000000000000000081526004016105e890612e6c565b60405180910390fd5b8787600791826106029291906130a3565b508585600891826106149291906130a3565b5088600960006101000a81548173ffffffffffffffffffffffffffffffffffffffff021916908373ffffffffffffffffffffffffffffffffffffffff16021790555083600a60006101000a81548173ffffffffffffffffffffffffffffffffffffffff021916908373ffffffffffffffffffffffffffffffffffffffff16021790555081600b819055506106ca600960009054906101000a900473ffffffffffffffffffffffffffffffffffffffff1684611322565b6001600c60006101000a81548160ff021916908315150217905550600960009054906101000a900473ffffffffffffffffffffffffffffffffffffffff1673ffffffffffffffffffffffffffffffffffffffff167fd133d105f7b44671ec3a00c607590e7154adaafd2e0e9542b201374f2935851960076008600a60009054906101000a900473ffffffffffffffffffffffffffffffffffffffff16604051610775939291906131f7565b60405180910390a2600c60009054906101000a900460ff16905098975050505050505050565b60007f80ac58cd000000000000000000000000000000000000000000000000000000007bffffffffffffffffffffffffffffffffffffffffffffffffffffffff1916827bffffffffffffffffffffffffffffffffffffffffffffffffffffffff1916148061086657507f5b5e139f000000000000000000000000000000000000000000000000000000007bffffffffffffffffffffffffffffffffffffffffffffffffffffffff1916827bffffffffffffffffffffffffffffffffffffffffffffffffffffffff1916145b8061087657506108758261138c565b5b9050919050565b60606000805461088c90612ec6565b80601f01602080910402602001604051908101604052809291908181526020018280546108b890612ec6565b80156109055780601f106108da57610100808354040283529160200191610905565b820191906000526020600020905b8154815290600101906020018083116108e857829003601f168201915b5050505050905090565b600061091a826113f6565b6004600083815260200190815260200160002060009054906101000a900473ffffffffffffffffffffffffffffffffffffffff169050919050565b600061096082610e45565b90508073ffffffffffffffffffffffffffffffffffffffff168373ffffffffffffffffffffffffffffffffffffffff16036109d0576040517f08c379a00000000000000000000000000000000000000000000000000000000081526004016109c7906132ae565b60405180910390fd5b8073ffffffffffffffffffffffffffffffffffffffff166109ef611441565b73ffffffffffffffffffffffffffffffffffffffff161480610a1e5750610a1d81610a18611441565b61128e565b5b610a5d576040517f08c379a0000000000000000000000000000000000000000000000000000000008152600401610a5490613340565b60405180910390fd5b610a678383611449565b505050565b6000600b54905090565b610a87610a81611441565b82611502565b610ac6576040517f08c379a0000000000000000000000000000000000000000000000000000000008152600401610abd906133d2565b60405180910390fd5b610ad1838383611597565b505050565b606060078054610ae590612ec6565b80601f0160208091040260200160405190810160405280929190818152602001828054610b1190612ec6565b8015610b5e5780601f10610b3357610100808354040283529160200191610b5e565b820191906000526020600020905b815481529060010190602001808311610b4157829003601f168201915b5050505050905090565b610b8383838360405180602001604052806000815250611133565b505050565b610b99610b93611441565b82611502565b610bd8576040517f08c379a0000000000000000000000000000000000000000000000000000000008152600401610bcf906133d2565b60405180910390fd5b610be181611890565b50565b600073ffffffffffffffffffffffffffffffffffffffff163373ffffffffffffffffffffffffffffffffffffffff1603610c53576040517f08c379a0000000000000000000000000000000000000000000000000000000008152600401610c4a9061343e565b60405180910390fd5b600960009054906101000a900473ffffffffffffffffffffffffffffffffffffffff1673ffffffffffffffffffffffffffffffffffffffff163373ffffffffffffffffffffffffffffffffffffffff1603610ce3576040517f08c379a0000000000000000000000000000000000000000000000000000000008152600401610cda906134aa565b60405180910390fd5b60018114610d26576040517f08c379a0000000000000000000000000000000000000000000000000000000008152600401610d1d90613516565b60405180910390fd5b600b54341015610d6b576040517f08c379a0000000000000000000000000000000000000000000000000000000008152600401610d62906135a8565b60405180910390fd5b610d98600960009054906101000a900473ffffffffffffffffffffffffffffffffffffffff163383611597565b33600960006101000a81548173ffffffffffffffffffffffffffffffffffffffff021916908373ffffffffffffffffffffffffffffffffffffffff160217905550600960009054906101000a900473ffffffffffffffffffffffffffffffffffffffff1673ffffffffffffffffffffffffffffffffffffffff166108fc349081150290604051600060405180830381858888f19350505050158015610e41573d6000803e3d6000fd5b5050565b600080610e5183611913565b9050600073ffffffffffffffffffffffffffffffffffffffff168173ffffffffffffffffffffffffffffffffffffffff1603610ec2576040517f08c379a0000000000000000000000000000000000000000000000000000000008152600401610eb990613614565b60405180910390fd5b80915050919050565b60008073ffffffffffffffffffffffffffffffffffffffff168273ffffffffffffffffffffffffffffffffffffffff1603610f3b576040517f08c379a0000000000000000000000000000000000000000000000000000000008152600401610f32906136a6565b60405180910390fd5b600360008373ffffffffffffffffffffffffffffffffffffffff1673ffffffffffffffffffffffffffffffffffffffff168152602001908152602001600020549050919050565b610f8c6001610e45565b73ffffffffffffffffffffffffffffffffffffffff163373ffffffffffffffffffffffffffffffffffffffff1614610ff9576040517f08c379a0000000000000000000000000000000000000000000000000000000008152600401610ff090613712565b60405180910390fd5b600081101561103d576040517f08c379a00000000000000000000000000000000000000000000000000000000081526004016110349061377e565b60405180910390fd5b600b548103611081576040517f08c379a0000000000000000000000000000000000000000000000000000000008152600401611078906137ea565b60405180910390fd5b80600b8190555050565b60606001805461109a90612ec6565b80601f01602080910402602001604051908101604052809291908181526020018280546110c690612ec6565b80156111135780601f106110e857610100808354040283529160200191611113565b820191906000526020600020905b8154815290600101906020018083116110f657829003601f168201915b5050505050905090565b61112f611128611441565b8383611950565b5050565b61114461113e611441565b83611502565b611183576040517f08c379a000000000000000000000000000000000000000000000000000000000815260040161117a906133d2565b60405180910390fd5b61118f84848484611abc565b50505050565b60606111a082611b18565b9050919050565b6060600880546111b690612ec6565b80601f01602080910402602001604051908101604052809291908181526020018280546111e290612ec6565b801561122f5780601f106112045761010080835404028352916020019161122f565b820191906000526020600020905b81548152906001019060200180831161121257829003601f168201915b5050505050905090565b60006001821461127e576040517f08c379a000000000000000000000000000000000000000000000000000000000815260040161127590613856565b60405180910390fd5b61128782610e45565b9050919050565b6000600560008473ffffffffffffffffffffffffffffffffffffffff1673ffffffffffffffffffffffffffffffffffffffff16815260200190815260200160002060008373ffffffffffffffffffffffffffffffffffffffff1673ffffffffffffffffffffffffffffffffffffffff16815260200190815260200160002060009054906101000a900460ff16905092915050565b600c60009054906101000a900460ff1615611372576040517f08c379a000000000000000000000000000000000000000000000000000000000815260040161136990612e6c565b60405180910390fd5b61137d826001611c2a565b611388600182611c48565b5050565b60007f01ffc9a7000000000000000000000000000000000000000000000000000000007bffffffffffffffffffffffffffffffffffffffffffffffffffffffff1916827bffffffffffffffffffffffffffffffffffffffffffffffffffffffff1916149050919050565b6113ff81611cb5565b61143e576040517f08c379a000000000000000000000000000000000000000000000000000000000815260040161143590613614565b60405180910390fd5b50565b600033905090565b816004600083815260200190815260200160002060006101000a81548173ffffffffffffffffffffffffffffffffffffffff021916908373ffffffffffffffffffffffffffffffffffffffff160217905550808273ffffffffffffffffffffffffffffffffffffffff166114bc83610e45565b73ffffffffffffffffffffffffffffffffffffffff167f8c5be1e5ebec7d5bd14f71427d1e84f3dd0314c0f7b2291e5b200ac8c7c3b92560405160405180910390a45050565b60008061150e83610e45565b90508073ffffffffffffffffffffffffffffffffffffffff168473ffffffffffffffffffffffffffffffffffffffff161480611550575061154f818561128e565b5b8061158e57508373ffffffffffffffffffffffffffffffffffffffff166115768461090f565b73ffffffffffffffffffffffffffffffffffffffff16145b91505092915050565b8273ffffffffffffffffffffffffffffffffffffffff166115b782610e45565b73ffffffffffffffffffffffffffffffffffffffff161461160d576040517f08c379a0000000000000000000000000000000000000000000000000000000008152600401611604906138e8565b60405180910390fd5b600073ffffffffffffffffffffffffffffffffffffffff168273ffffffffffffffffffffffffffffffffffffffff160361167c576040517f08c379a00000000000000000000000000000000000000000000000000000000081526004016116739061397a565b60405180910390fd5b6116898383836001611cf6565b8273ffffffffffffffffffffffffffffffffffffffff166116a982610e45565b73ffffffffffffffffffffffffffffffffffffffff16146116ff576040517f08c379a00000000000000000000000000000000000000000000000000000000081526004016116f6906138e8565b60405180910390fd5b6004600082815260200190815260200160002060006101000a81549073ffffffffffffffffffffffffffffffffffffffff02191690556001600360008573ffffffffffffffffffffffffffffffffffffffff1673ffffffffffffffffffffffffffffffffffffffff168152602001908152602001600020600082825403925050819055506001600360008473ffffffffffffffffffffffffffffffffffffffff1673ffffffffffffffffffffffffffffffffffffffff16815260200190815260200160002060008282540192505081905550816002600083815260200190815260200160002060006101000a81548173ffffffffffffffffffffffffffffffffffffffff021916908373ffffffffffffffffffffffffffffffffffffffff160217905550808273ffffffffffffffffffffffffffffffffffffffff168473ffffffffffffffffffffffffffffffffffffffff167fddf252ad1be2c89b69c2b068fc378daa952ba7f163c4a11628f55a4df523b3ef60405160405180910390a461188b8383836001611cfc565b505050565b61189a6001610e45565b73ffffffffffffffffffffffffffffffffffffffff163373ffffffffffffffffffffffffffffffffffffffff1614611907576040517f08c379a00000000000000000000000000000000000000000000000000000000081526004016118fe90613712565b60405180910390fd5b61191081611d02565b50565b60006002600083815260200190815260200160002060009054906101000a900473ffffffffffffffffffffffffffffffffffffffff169050919050565b8173ffffffffffffffffffffffffffffffffffffffff168373ffffffffffffffffffffffffffffffffffffffff16036119be576040517f08c379a00000000000000000000000000000000000000000000000000000000081526004016119b5906139e6565b60405180910390fd5b80600560008573ffffffffffffffffffffffffffffffffffffffff1673ffffffffffffffffffffffffffffffffffffffff16815260200190815260200160002060008473ffffffffffffffffffffffffffffffffffffffff1673ffffffffffffffffffffffffffffffffffffffff16815260200190815260200160002060006101000a81548160ff0219169083151502179055508173ffffffffffffffffffffffffffffffffffffffff168373ffffffffffffffffffffffffffffffffffffffff167f17307eab39ab6107e8899845ad3d59bd9653f200f220920489ca2b5937696c3183604051611aaf9190612916565b60405180910390a3505050565b611ac7848484611597565b611ad384848484611d55565b611b12576040517f08c379a0000000000000000000000000000000000000000000000000000000008152600401611b0990613a78565b60405180910390fd5b50505050565b6060611b23826113f6565b6000600660008481526020019081526020016000208054611b4390612ec6565b80601f0160208091040260200160405190810160405280929190818152602001828054611b6f90612ec6565b8015611bbc5780601f10611b9157610100808354040283529160200191611bbc565b820191906000526020600020905b815481529060010190602001808311611b9f57829003601f168201915b505050505090506000611bcd611edc565b90506000815103611be2578192505050611c25565b600082511115611c17578082604051602001611bff929190613ad4565b60405160208183030381529060405292505050611c25565b611c2084611ef3565b925050505b919050565b611c44828260405180602001604052806000815250611f5b565b5050565b611c5182611cb5565b611c90576040517f08c379a0000000000000000000000000000000000000000000000000000000008152600401611c8790613b6a565b60405180910390fd5b80600660008481526020019081526020016000209081611cb09190613b8a565b505050565b60008073ffffffffffffffffffffffffffffffffffffffff16611cd783611913565b73ffffffffffffffffffffffffffffffffffffffff1614159050919050565b50505050565b50505050565b611d0b81611fb6565b6000600660008381526020019081526020016000208054611d2b90612ec6565b905014611d5257600660008281526020019081526020016000206000611d519190612565565b5b50565b6000611d768473ffffffffffffffffffffffffffffffffffffffff16612104565b15611ecf578373ffffffffffffffffffffffffffffffffffffffff1663150b7a02611d9f611441565b8786866040518563ffffffff1660e01b8152600401611dc19493929190613cb1565b6020604051808303816000875af1925050508015611dfd57506040513d601f19601f82011682018060405250810190611dfa9190613d12565b60015b611e7f573d8060008114611e2d576040519150601f19603f3d011682016040523d82523d6000602084013e611e32565b606091505b506000815103611e77576040517f08c379a0000000000000000000000000000000000000000000000000000000008152600401611e6e90613a78565b60405180910390fd5b805181602001fd5b63150b7a0260e01b7bffffffffffffffffffffffffffffffffffffffffffffffffffffffff1916817bffffffffffffffffffffffffffffffffffffffffffffffffffffffff191614915050611ed4565b600190505b949350505050565b606060405180602001604052806000815250905090565b6060611efe826113f6565b6000611f08611edc565b90506000815111611f285760405180602001604052806000815250611f53565b80611f3284612127565b604051602001611f43929190613ad4565b6040516020818303038152906040525b915050919050565b611f6583836121f5565b611f726000848484611d55565b611fb1576040517f08c379a0000000000000000000000000000000000000000000000000000000008152600401611fa890613a78565b60405180910390fd5b505050565b6000611fc182610e45565b9050611fd1816000846001611cf6565b611fda82610e45565b90506004600083815260200190815260200160002060006101000a81549073ffffffffffffffffffffffffffffffffffffffff02191690556001600360008373ffffffffffffffffffffffffffffffffffffffff1673ffffffffffffffffffffffffffffffffffffffff168152602001908152602001600020600082825403925050819055506002600083815260200190815260200160002060006101000a81549073ffffffffffffffffffffffffffffffffffffffff021916905581600073ffffffffffffffffffffffffffffffffffffffff168273ffffffffffffffffffffffffffffffffffffffff167fddf252ad1be2c89b69c2b068fc378daa952ba7f163c4a11628f55a4df523b3ef60405160405180910390a4612100816000846001611cfc565b5050565b6000808273ffffffffffffffffffffffffffffffffffffffff163b119050919050565b60606000600161213684612412565b01905060008167ffffffffffffffff811115612155576121546126af565b5b6040519080825280601f01601f1916602001820160405280156121875781602001600182028036833780820191505090505b509050600082602001820190505b6001156121ea578080600190039150507f3031323334353637383961626364656600000000000000000000000000000000600a86061a8153600a85816121de576121dd613d3f565b5b04945060008503612195575b819350505050919050565b600073ffffffffffffffffffffffffffffffffffffffff168273ffffffffffffffffffffffffffffffffffffffff1603612264576040517f08c379a000000000000000000000000000000000000000000000000000000000815260040161225b90613dba565b60405180910390fd5b61226d81611cb5565b156122ad576040517f08c379a00000000000000000000000000000000000000000000000000000000081526004016122a490613e26565b60405180910390fd5b6122bb600083836001611cf6565b6122c481611cb5565b15612304576040517f08c379a00000000000000000000000000000000000000000000000000000000081526004016122fb90613e26565b60405180910390fd5b6001600360008473ffffffffffffffffffffffffffffffffffffffff1673ffffffffffffffffffffffffffffffffffffffff16815260200190815260200160002060008282540192505081905550816002600083815260200190815260200160002060006101000a81548173ffffffffffffffffffffffffffffffffffffffff021916908373ffffffffffffffffffffffffffffffffffffffff160217905550808273ffffffffffffffffffffffffffffffffffffffff16600073ffffffffffffffffffffffffffffffffffffffff167fddf252ad1be2c89b69c2b068fc378daa952ba7f163c4a11628f55a4df523b3ef60405160405180910390a461240e600083836001611cfc565b5050565b600080600090507a184f03e93ff9f4daa797ed6e38ed64bf6a1f0100000000000000008310612470577a184f03e93ff9f4daa797ed6e38ed64bf6a1f010000000000000000838161246657612465613d3f565b5b0492506040810190505b6d04ee2d6d415b85acef810000000083106124ad576d04ee2d6d415b85acef810000000083816124a3576124a2613d3f565b5b0492506020810190505b662386f26fc1000083106124dc57662386f26fc1000083816124d2576124d1613d3f565b5b0492506010810190505b6305f5e1008310612505576305f5e10083816124fb576124fa613d3f565b5b0492506008810190505b612710831061252a5761271083816125205761251f613d3f565b5b0492506004810190505b6064831061254d576064838161254357612542613d3f565b5b0492506002810190505b600a831061255c576001810190505b80915050919050565b50805461257190612ec6565b6000825580601f1061258357506125a2565b601f0160209004906000526020600020908101906125a191906125a5565b5b50565b5b808211156125be5760008160009055506001016125a6565b5090565b6000604051905090565b600080fd5b600080fd5b600073ffffffffffffffffffffffffffffffffffffffff82169050919050565b6000612601826125d6565b9050919050565b612611816125f6565b811461261c57600080fd5b50565b60008135905061262e81612608565b92915050565b600080fd5b600080fd5b600080fd5b60008083601f84011261265957612658612634565b5b8235905067ffffffffffffffff81111561267657612675612639565b5b6020830191508360018202830111156126925761269161263e565b5b9250929050565b600080fd5b6000601f19601f8301169050919050565b7f4e487b7100000000000000000000000000000000000000000000000000000000600052604160045260246000fd5b6126e78261269e565b810181811067ffffffffffffffff82111715612706576127056126af565b5b80604052505050565b60006127196125c2565b905061272582826126de565b919050565b600067ffffffffffffffff821115612745576127446126af565b5b61274e8261269e565b9050602081019050919050565b82818337600083830152505050565b600061277d6127788461272a565b61270f565b90508281526020810184848401111561279957612798612699565b5b6127a484828561275b565b509392505050565b600082601f8301126127c1576127c0612634565b5b81356127d184826020860161276a565b91505092915050565b6000819050919050565b6127ed816127da565b81146127f857600080fd5b50565b60008135905061280a816127e4565b92915050565b60008060008060008060008060c0898b0312156128305761282f6125cc565b5b600061283e8b828c0161261f565b985050602089013567ffffffffffffffff81111561285f5761285e6125d1565b5b61286b8b828c01612643565b9750975050604089013567ffffffffffffffff81111561288e5761288d6125d1565b5b61289a8b828c01612643565b955095505060606128ad8b828c0161261f565b935050608089013567ffffffffffffffff8111156128ce576128cd6125d1565b5b6128da8b828c016127ac565b92505060a06128eb8b828c016127fb565b9150509295985092959890939650565b60008115159050919050565b612910816128fb565b82525050565b600060208201905061292b6000830184612907565b92915050565b60007fffffffff0000000000000000000000000000000000000000000000000000000082169050919050565b61296681612931565b811461297157600080fd5b50565b6000813590506129838161295d565b92915050565b60006020828403121561299f5761299e6125cc565b5b60006129ad84828501612974565b91505092915050565b600081519050919050565b600082825260208201905092915050565b60005b838110156129f05780820151818401526020810190506129d5565b60008484015250505050565b6000612a07826129b6565b612a1181856129c1565b9350612a218185602086016129d2565b612a2a8161269e565b840191505092915050565b60006020820190508181036000830152612a4f81846129fc565b905092915050565b600060208284031215612a6d57612a6c6125cc565b5b6000612a7b848285016127fb565b91505092915050565b612a8d816125f6565b82525050565b6000602082019050612aa86000830184612a84565b92915050565b60008060408385031215612ac557612ac46125cc565b5b6000612ad38582860161261f565b9250506020612ae4858286016127fb565b9150509250929050565b612af7816127da565b82525050565b6000602082019050612b126000830184612aee565b92915050565b600080600060608486031215612b3157612b306125cc565b5b6000612b3f8682870161261f565b9350506020612b508682870161261f565b9250506040612b61868287016127fb565b9150509250925092565b600060208284031215612b8157612b806125cc565b5b6000612b8f8482850161261f565b91505092915050565b612ba1816128fb565b8114612bac57600080fd5b50565b600081359050612bbe81612b98565b92915050565b60008060408385031215612bdb57612bda6125cc565b5b6000612be98582860161261f565b9250506020612bfa85828601612baf565b9150509250929050565b600067ffffffffffffffff821115612c1f57612c1e6126af565b5b612c288261269e565b9050602081019050919050565b6000612c48612c4384612c04565b61270f565b905082815260208101848484011115612c6457612c63612699565b5b612c6f84828561275b565b509392505050565b600082601f830112612c8c57612c8b612634565b5b8135612c9c848260208601612c35565b91505092915050565b60008060008060808587031215612cbf57612cbe6125cc565b5b6000612ccd8782880161261f565b9450506020612cde8782880161261f565b9350506040612cef878288016127fb565b925050606085013567ffffffffffffffff811115612d1057612d0f6125d1565b5b612d1c87828801612c77565b91505092959194509250565b60008060408385031215612d3f57612d3e6125cc565b5b6000612d4d8582860161261f565b9250506020612d5e8582860161261f565b9150509250929050565b7f496e76616c6964204e4654206f776e65723a207a65726f20616464726573732060008201527f6e6f742076616c69642100000000000000000000000000000000000000000000602082015250565b6000612dc4602a836129c1565b9150612dcf82612d68565b604082019050919050565b60006020820190508181036000830152612df381612db7565b9050919050565b7f45524337323120546f6b656e20696e7374616e636520616c726561647920696e60008201527f697469616c697a65640000000000000000000000000000000000000000000000602082015250565b6000612e566029836129c1565b9150612e6182612dfa565b604082019050919050565b60006020820190508181036000830152612e8581612e49565b9050919050565b600082905092915050565b7f4e487b7100000000000000000000000000000000000000000000000000000000600052602260045260246000fd5b60006002820490506001821680612ede57607f821691505b602082108103612ef157612ef0612e97565b5b50919050565b60008190508160005260206000209050919050565b60006020601f8301049050919050565b600082821b905092915050565b600060088302612f597fffffffffffffffffffffffffffffffffffffffffffffffffffffffffffffffff82612f1c565b612f638683612f1c565b95508019841693508086168417925050509392505050565b6000819050919050565b6000612fa0612f9b612f96846127da565b612f7b565b6127da565b9050919050565b6000819050919050565b612fba83612f85565b612fce612fc682612fa7565b848454612f29565b825550505050565b600090565b612fe3612fd6565b612fee818484612fb1565b505050565b5b8181101561301257613007600082612fdb565b600181019050612ff4565b5050565b601f8211156130575761302881612ef7565b61303184612f0c565b81016020851015613040578190505b61305461304c85612f0c565b830182612ff3565b50505b505050565b600082821c905092915050565b600061307a6000198460080261305c565b1980831691505092915050565b60006130938383613069565b9150826002028217905092915050565b6130ad8383612e8c565b67ffffffffffffffff8111156130c6576130c56126af565b5b6130d08254612ec6565b6130db828285613016565b6000601f83116001811461310a57600084156130f8578287013590505b6131028582613087565b86555061316a565b601f19841661311886612ef7565b60005b828110156131405784890135825560018201915060208501945060208101905061311b565b8683101561315d5784890135613159601f891682613069565b8355505b6001600288020188555050505b50505050505050565b6000815461318081612ec6565b61318a81866129c1565b945060018216600081146131a557600181146131bb576131ee565b60ff1983168652811515602002860193506131ee565b6131c485612ef7565b60005b838110156131e6578154818901526001820191506020810190506131c7565b808801955050505b50505092915050565b600060608201905081810360008301526132118186613173565b905081810360208301526132258185613173565b90506132346040830184612a84565b949350505050565b7f4552433732313a20617070726f76616c20746f2063757272656e74206f776e6560008201527f7200000000000000000000000000000000000000000000000000000000000000602082015250565b60006132986021836129c1565b91506132a38261323c565b604082019050919050565b600060208201905081810360008301526132c78161328b565b9050919050565b7f4552433732313a20617070726f76652063616c6c6572206973206e6f7420746f60008201527f6b656e206f776e6572206f7220617070726f76656420666f7220616c6c000000602082015250565b600061332a603d836129c1565b9150613335826132ce565b604082019050919050565b600060208201905081810360008301526133598161331d565b9050919050565b7f4552433732313a2063616c6c6572206973206e6f7420746f6b656e206f776e6560008201527f72206f7220617070726f76656400000000000000000000000000000000000000602082015250565b60006133bc602d836129c1565b91506133c782613360565b604082019050919050565b600060208201905081810360008301526133eb816133af565b9050919050565b7f496e76616c696420416464726573732830290000000000000000000000000000600082015250565b60006134286012836129c1565b9150613433826133f2565b602082019050919050565b600060208201905081810360008301526134578161341b565b9050919050565b7f43616e6e6f742073656c6c204e465420746f206d7973656c6600000000000000600082015250565b60006134946019836129c1565b915061349f8261345e565b602082019050919050565b600060208201905081810360008301526134c381613487565b9050919050565b7f43616e6e6f74207472616e73666572207468697320746f6b656e496400000000600082015250565b6000613500601c836129c1565b915061350b826134ca565b602082019050919050565b6000602082019050818103600083015261352f816134f3565b9050919050565b7f4e6f7420656e6f7567682066756e647320746f2062757920746869732061776560008201527f736f6d65204e4654000000000000000000000000000000000000000000000000602082015250565b60006135926028836129c1565b915061359d82613536565b604082019050919050565b600060208201905081810360008301526135c181613585565b9050919050565b7f4552433732313a20696e76616c696420746f6b656e2049440000000000000000600082015250565b60006135fe6018836129c1565b9150613609826135c8565b602082019050919050565b6000602082019050818103600083015261362d816135f1565b9050919050565b7f4552433732313a2061646472657373207a65726f206973206e6f74206120766160008201527f6c6964206f776e65720000000000000000000000000000000000000000000000602082015250565b60006136906029836129c1565b915061369b82613634565b604082019050919050565b600060208201905081810360008301526136bf81613683565b9050919050565b7f4e6f7420746865204e4654206f776e6572210000000000000000000000000000600082015250565b60006136fc6012836129c1565b9150613707826136c6565b602082019050919050565b6000602082019050818103600083015261372b816136ef565b9050919050565b7f4e465420636f73742063616e6e6f74206265206e656761746976650000000000600082015250565b6000613768601b836129c1565b915061377382613732565b602082019050919050565b600060208201905081810360008301526137978161375b565b9050919050565b7f4e657720707269636520657175616c20746f206f6c6420707269636521000000600082015250565b60006137d4601d836129c1565b91506137df8261379e565b602082019050919050565b60006020820190508181036000830152613803816137c7565b9050919050565b7f496e76616c6964204e465420746f6b656e204944000000000000000000000000600082015250565b60006138406014836129c1565b915061384b8261380a565b602082019050919050565b6000602082019050818103600083015261386f81613833565b9050919050565b7f4552433732313a207472616e736665722066726f6d20696e636f72726563742060008201527f6f776e6572000000000000000000000000000000000000000000000000000000602082015250565b60006138d26025836129c1565b91506138dd82613876565b604082019050919050565b60006020820190508181036000830152613901816138c5565b9050919050565b7f4552433732313a207472616e7366657220746f20746865207a65726f2061646460008201527f7265737300000000000000000000000000000000000000000000000000000000602082015250565b60006139646024836129c1565b915061396f82613908565b604082019050919050565b6000602082019050818103600083015261399381613957565b9050919050565b7f4552433732313a20617070726f766520746f2063616c6c657200000000000000600082015250565b60006139d06019836129c1565b91506139db8261399a565b602082019050919050565b600060208201905081810360008301526139ff816139c3565b9050919050565b7f4552433732313a207472616e7366657220746f206e6f6e20455243373231526560008201527f63656976657220696d706c656d656e7465720000000000000000000000000000602082015250565b6000613a626032836129c1565b9150613a6d82613a06565b604082019050919050565b60006020820190508181036000830152613a9181613a55565b9050919050565b600081905092915050565b6000613aae826129b6565b613ab88185613a98565b9350613ac88185602086016129d2565b80840191505092915050565b6000613ae08285613aa3565b9150613aec8284613aa3565b91508190509392505050565b7f45524337323155524953746f726167653a2055524920736574206f66206e6f6e60008201527f6578697374656e7420746f6b656e000000000000000000000000000000000000602082015250565b6000613b54602e836129c1565b9150613b5f82613af8565b604082019050919050565b60006020820190508181036000830152613b8381613b47565b9050919050565b613b93826129b6565b67ffffffffffffffff811115613bac57613bab6126af565b5b613bb68254612ec6565b613bc1828285613016565b600060209050601f831160018114613bf45760008415613be2578287015190505b613bec8582613087565b865550613c54565b601f198416613c0286612ef7565b60005b82811015613c2a57848901518255600182019150602085019450602081019050613c05565b86831015613c475784890151613c43601f891682613069565b8355505b6001600288020188555050505b505050505050565b600081519050919050565b600082825260208201905092915050565b6000613c8382613c5c565b613c8d8185613c67565b9350613c9d8185602086016129d2565b613ca68161269e565b840191505092915050565b6000608082019050613cc66000830187612a84565b613cd36020830186612a84565b613ce06040830185612aee565b8181036060830152613cf28184613c78565b905095945050505050565b600081519050613d0c8161295d565b92915050565b600060208284031215613d2857613d276125cc565b5b6000613d3684828501613cfd565b91505092915050565b7f4e487b7100000000000000000000000000000000000000000000000000000000600052601260045260246000fd5b7f4552433732313a206d696e7420746f20746865207a65726f2061646472657373600082015250565b6000613da46020836129c1565b9150613daf82613d6e565b602082019050919050565b60006020820190508181036000830152613dd381613d97565b9050919050565b7f4552433732313a20746f6b656e20616c7265616479206d696e74656400000000600082015250565b6000613e10601c836129c1565b9150613e1b82613dda565b602082019050919050565b60006020820190508181036000830152613e3f81613e03565b905091905056fea2646970667358221220f892b8ade69cc04c92295ecfe28fcf2590225f3f0f9afccc9dad479cd62eaa1f64736f6c63430008120033","opcodes":"PUSH1 0x80 PUSH1 0x40 MSTORE PUSH1 0x0 PUSH1 0xC PUSH1 0x0 PUSH2 0x100 EXP DUP2 SLOAD DUP2 PUSH1 0xFF MUL NOT AND SWAP1 DUP4 ISZERO ISZERO MUL OR SWAP1 SSTORE POP CALLVALUE DUP1 ISZERO PUSH3 0x2C JUMPI PUSH1 0x0 DUP1 REVERT JUMPDEST POP PUSH1 0x40 MLOAD DUP1 PUSH1 0x40 ADD PUSH1 0x40 MSTORE DUP1 PUSH1 0x4 DUP2 MSTORE PUSH1 0x20 ADD PUSH32 0x4261736500000000000000000000000000000000000000000000000000000000 DUP2 MSTORE POP PUSH1 0x40 MLOAD DUP1 PUSH1 0x40 ADD PUSH1 0x40 MSTORE DUP1 PUSH1 0xA DUP2 MSTORE PUSH1 0x20 ADD PUSH32 0x4261736553796D626F6C00000000000000000000000000000000000000000000 DUP2 MSTORE POP DUP2 PUSH1 0x0 SWAP1 DUP2 PUSH3 0xAA SWAP2 SWAP1 PUSH3 0x33F JUMP JUMPDEST POP DUP1 PUSH1 0x1 SWAP1 DUP2 PUSH3 0xBC SWAP2 SWAP1 PUSH3 0x33F JUMP JUMPDEST POP POP POP PUSH3 0x426 JUMP JUMPDEST PUSH1 0x0 DUP2 MLOAD SWAP1 POP SWAP2 SWAP1 POP JUMP JUMPDEST PUSH32 0x4E487B7100000000000000000000000000000000000000000000000000000000 PUSH1 0x0 MSTORE PUSH1 0x41 PUSH1 0x4 MSTORE PUSH1 0x24 PUSH1 0x0 REVERT JUMPDEST PUSH32 0x4E487B7100000000000000000000000000000000000000000000000000000000 PUSH1 0x0 MSTORE PUSH1 0x22 PUSH1 0x4 MSTORE PUSH1 0x24 PUSH1 0x0 REVERT JUMPDEST PUSH1 0x0 PUSH1 0x2 DUP3 DIV SWAP1 POP PUSH1 0x1 DUP3 AND DUP1 PUSH3 0x147 JUMPI PUSH1 0x7F DUP3 AND SWAP2 POP JUMPDEST PUSH1 0x20 DUP3 LT DUP2 SUB PUSH3 0x15D JUMPI PUSH3 0x15C PUSH3 0xFF JUMP JUMPDEST JUMPDEST POP SWAP2 SWAP1 POP JUMP JUMPDEST PUSH1 0x0 DUP2 SWAP1 POP DUP2 PUSH1 0x0 MSTORE PUSH1 0x20 PUSH1 0x0 KECCAK256 SWAP1 POP SWAP2 SWAP1 POP JUMP JUMPDEST PUSH1 0x0 PUSH1 0x20 PUSH1 0x1F DUP4 ADD DIV SWAP1 POP SWAP2 SWAP1 POP JUMP JUMPDEST PUSH1 0x0 DUP3 DUP3 SHL SWAP1 POP SWAP3 SWAP2 POP POP JUMP JUMPDEST PUSH1 0x0 PUSH1 0x8 DUP4 MUL PUSH3 0x1C7 PUSH32 0xFFFFFFFFFFFFFFFFFFFFFFFFFFFFFFFFFFFFFFFFFFFFFFFFFFFFFFFFFFFFFFFF DUP3 PUSH3 0x188 JUMP JUMPDEST PUSH3 0x1D3 DUP7 DUP4 PUSH3 0x188 JUMP JUMPDEST SWAP6 POP DUP1 NOT DUP5 AND SWAP4 POP DUP1 DUP7 AND DUP5 OR SWAP3 POP POP POP SWAP4 SWAP3 POP POP POP JUMP JUMPDEST PUSH1 0x0 DUP2 SWAP1 POP SWAP2 SWAP1 POP JUMP JUMPDEST PUSH1 0x0 DUP2 SWAP1 POP SWAP2 SWAP1 POP JUMP JUMPDEST PUSH1 0x0 PUSH3 0x220 PUSH3 0x21A PUSH3 0x214 DUP5 PUSH3 0x1EB JUMP JUMPDEST PUSH3 0x1F5 JUMP JUMPDEST PUSH3 0x1EB JUMP JUMPDEST SWAP1 POP SWAP2 SWAP1 POP JUMP JUMPDEST PUSH1 0x0 DUP2 SWAP1 POP SWAP2 SWAP1 POP JUMP JUMPDEST PUSH3 0x23C DUP4 PUSH3 0x1FF JUMP JUMPDEST PUSH3 0x254 PUSH3 0x24B DUP3 PUSH3 0x227 JUMP JUMPDEST DUP5 DUP5 SLOAD PUSH3 0x195 JUMP JUMPDEST DUP3 SSTORE POP POP POP POP JUMP JUMPDEST PUSH1 0x0 SWAP1 JUMP JUMPDEST PUSH3 0x26B PUSH3 0x25C JUMP JUMPDEST PUSH3 0x278 DUP2 DUP5 DUP5 PUSH3 0x231 JUMP JUMPDEST POP POP POP JUMP JUMPDEST JUMPDEST DUP2 DUP2 LT ISZERO PUSH3 0x2A0 JUMPI PUSH3 0x294 PUSH1 0x0 DUP3 PUSH3 0x261 JUMP JUMPDEST PUSH1 0x1 DUP2 ADD SWAP1 POP PUSH3 0x27E JUMP JUMPDEST POP POP JUMP JUMPDEST PUSH1 0x1F DUP3 GT ISZERO PUSH3 0x2EF JUMPI PUSH3 0x2B9 DUP2 PUSH3 0x163 JUMP JUMPDEST PUSH3 0x2C4 DUP5 PUSH3 0x178 JUMP JUMPDEST DUP2 ADD PUSH1 0x20 DUP6 LT ISZERO PUSH3 0x2D4 JUMPI DUP2 SWAP1 POP JUMPDEST PUSH3 0x2EC PUSH3 0x2E3 DUP6 PUSH3 0x178 JUMP JUMPDEST DUP4 ADD DUP3 PUSH3 0x27D JUMP JUMPDEST POP POP JUMPDEST POP POP POP JUMP JUMPDEST PUSH1 0x0 DUP3 DUP3 SHR SWAP1 POP SWAP3 SWAP2 POP POP JUMP JUMPDEST PUSH1 0x0 PUSH3 0x314 PUSH1 0x0 NOT DUP5 PUSH1 0x8 MUL PUSH3 0x2F4 JUMP JUMPDEST NOT DUP1 DUP4 AND SWAP2 POP POP SWAP3 SWAP2 POP POP JUMP JUMPDEST PUSH1 0x0 PUSH3 0x32F DUP4 DUP4 PUSH3 0x301 JUMP JUMPDEST SWAP2 POP DUP3 PUSH1 0x2 MUL DUP3 OR SWAP1 POP SWAP3 SWAP2 POP POP JUMP JUMPDEST PUSH3 0x34A DUP3 PUSH3 0xC5 JUMP JUMPDEST PUSH8 0xFFFFFFFFFFFFFFFF DUP2 GT ISZERO PUSH3 0x366 JUMPI PUSH3 0x365 PUSH3 0xD0 JUMP JUMPDEST JUMPDEST PUSH3 0x372 DUP3 SLOAD PUSH3 0x12E JUMP JUMPDEST PUSH3 0x37F DUP3 DUP3 DUP6 PUSH3 0x2A4 JUMP JUMPDEST PUSH1 0x0 PUSH1 0x20 SWAP1 POP PUSH1 0x1F DUP4 GT PUSH1 0x1 DUP2 EQ PUSH3 0x3B7 JUMPI PUSH1 0x0 DUP5 ISZERO PUSH3 0x3A2 JUMPI DUP3 DUP8 ADD MLOAD SWAP1 POP JUMPDEST PUSH3 0x3AE DUP6 DUP3 PUSH3 0x321 JUMP JUMPDEST DUP7 SSTORE POP PUSH3 0x41E JUMP JUMPDEST PUSH1 0x1F NOT DUP5 AND PUSH3 0x3C7 DUP7 PUSH3 0x163 JUMP JUMPDEST PUSH1 0x0 JUMPDEST DUP3 DUP2 LT ISZERO PUSH3 0x3F1 JUMPI DUP5 DUP10 ADD MLOAD DUP3 SSTORE PUSH1 0x1 DUP3 ADD SWAP2 POP PUSH1 0x20 DUP6 ADD SWAP5 POP PUSH1 0x20 DUP2 ADD SWAP1 POP PUSH3 0x3CA JUMP JUMPDEST DUP7 DUP4 LT ISZERO PUSH3 0x411 JUMPI DUP5 DUP10 ADD MLOAD PUSH3 0x40D PUSH1 0x1F DUP10 AND DUP3 PUSH3 0x301 JUMP JUMPDEST DUP4 SSTORE POP JUMPDEST PUSH1 0x1 PUSH1 0x2 DUP9 MUL ADD DUP9 SSTORE POP POP POP JUMPDEST POP POP POP POP POP POP JUMP JUMPDEST PUSH2 0x3E7C DUP1 PUSH3 0x436 PUSH1 0x0 CODECOPY PUSH1 0x0 RETURN INVALID PUSH1 0x80 PUSH1 0x40 MSTORE PUSH1 0x4 CALLDATASIZE LT PUSH2 0x12E JUMPI PUSH1 0x0 CALLDATALOAD PUSH1 0xE0 SHR DUP1 PUSH4 0x51ED8288 GT PUSH2 0xAB JUMPI DUP1 PUSH4 0xA22CB465 GT PUSH2 0x6F JUMPI DUP1 PUSH4 0xA22CB465 EQ PUSH2 0x3FD JUMPI DUP1 PUSH4 0xB88D4FDE EQ PUSH2 0x426 JUMPI DUP1 PUSH4 0xC87B56DD EQ PUSH2 0x44F JUMPI DUP1 PUSH4 0xDE9FDEBE EQ PUSH2 0x48C JUMPI DUP1 PUSH4 0xDEAEA2E3 EQ PUSH2 0x4B7 JUMPI DUP1 PUSH4 0xE985E9C5 EQ PUSH2 0x4F4 JUMPI PUSH2 0x135 JUMP JUMPDEST DUP1 PUSH4 0x51ED8288 EQ PUSH2 0x313 JUMPI DUP1 PUSH4 0x6352211E EQ PUSH2 0x32F JUMPI DUP1 PUSH4 0x70A08231 EQ PUSH2 0x36C JUMPI DUP1 PUSH4 0x91B7F5ED EQ PUSH2 0x3A9 JUMPI DUP1 PUSH4 0x95D89B41 EQ PUSH2 0x3D2 JUMPI PUSH2 0x135 JUMP JUMPDEST DUP1 PUSH4 0x1FF95DA9 GT PUSH2 0xF2 JUMPI DUP1 PUSH4 0x1FF95DA9 EQ PUSH2 0x242 JUMPI DUP1 PUSH4 0x23B872DD EQ PUSH2 0x26D JUMPI DUP1 PUSH4 0x3D38EDAC EQ PUSH2 0x296 JUMPI DUP1 PUSH4 0x42842E0E EQ PUSH2 0x2C1 JUMPI DUP1 PUSH4 0x42966C68 EQ PUSH2 0x2EA JUMPI PUSH2 0x135 JUMP JUMPDEST DUP1 PUSH4 0x1EAAEA2 EQ PUSH2 0x137 JUMPI DUP1 PUSH4 0x1FFC9A7 EQ PUSH2 0x174 JUMPI DUP1 PUSH4 0x6FDDE03 EQ PUSH2 0x1B1 JUMPI DUP1 PUSH4 0x81812FC EQ PUSH2 0x1DC JUMPI DUP1 PUSH4 0x95EA7B3 EQ PUSH2 0x219 JUMPI PUSH2 0x135 JUMP JUMPDEST CALLDATASIZE PUSH2 0x135 JUMPI STOP JUMPDEST STOP JUMPDEST CALLVALUE DUP1 ISZERO PUSH2 0x143 JUMPI PUSH1 0x0 DUP1 REVERT JUMPDEST POP PUSH2 0x15E PUSH1 0x4 DUP1 CALLDATASIZE SUB DUP2 ADD SWAP1 PUSH2 0x159 SWAP2 SWAP1 PUSH2 0x2810 JUMP JUMPDEST PUSH2 0x531 JUMP JUMPDEST PUSH1 0x40 MLOAD PUSH2 0x16B SWAP2 SWAP1 PUSH2 0x2916 JUMP JUMPDEST PUSH1 0x40 MLOAD DUP1 SWAP2 SUB SWAP1 RETURN JUMPDEST CALLVALUE DUP1 ISZERO PUSH2 0x180 JUMPI PUSH1 0x0 DUP1 REVERT JUMPDEST POP PUSH2 0x19B PUSH1 0x4 DUP1 CALLDATASIZE SUB DUP2 ADD SWAP1 PUSH2 0x196 SWAP2 SWAP1 PUSH2 0x2989 JUMP JUMPDEST PUSH2 0x79B JUMP JUMPDEST PUSH1 0x40 MLOAD PUSH2 0x1A8 SWAP2 SWAP1 PUSH2 0x2916 JUMP JUMPDEST PUSH1 0x40 MLOAD DUP1 SWAP2 SUB SWAP1 RETURN JUMPDEST CALLVALUE DUP1 ISZERO PUSH2 0x1BD JUMPI PUSH1 0x0 DUP1 REVERT JUMPDEST POP PUSH2 0x1C6 PUSH2 0x87D JUMP JUMPDEST PUSH1 0x40 MLOAD PUSH2 0x1D3 SWAP2 SWAP1 PUSH2 0x2A35 JUMP JUMPDEST PUSH1 0x40 MLOAD DUP1 SWAP2 SUB SWAP1 RETURN JUMPDEST CALLVALUE DUP1 ISZERO PUSH2 0x1E8 JUMPI PUSH1 0x0 DUP1 REVERT JUMPDEST POP PUSH2 0x203 PUSH1 0x4 DUP1 CALLDATASIZE SUB DUP2 ADD SWAP1 PUSH2 0x1FE SWAP2 SWAP1 PUSH2 0x2A57 JUMP JUMPDEST PUSH2 0x90F JUMP JUMPDEST PUSH1 0x40 MLOAD PUSH2 0x210 SWAP2 SWAP1 PUSH2 0x2A93 JUMP JUMPDEST PUSH1 0x40 MLOAD DUP1 SWAP2 SUB SWAP1 RETURN JUMPDEST CALLVALUE DUP1 ISZERO PUSH2 0x225 JUMPI PUSH1 0x0 DUP1 REVERT JUMPDEST POP PUSH2 0x240 PUSH1 0x4 DUP1 CALLDATASIZE SUB DUP2 ADD SWAP1 PUSH2 0x23B SWAP2 SWAP1 PUSH2 0x2AAE JUMP JUMPDEST PUSH2 0x955 JUMP JUMPDEST STOP JUMPDEST CALLVALUE DUP1 ISZERO PUSH2 0x24E JUMPI PUSH1 0x0 DUP1 REVERT JUMPDEST POP PUSH2 0x257 PUSH2 0xA6C JUMP JUMPDEST PUSH1 0x40 MLOAD PUSH2 0x264 SWAP2 SWAP1 PUSH2 0x2AFD JUMP JUMPDEST PUSH1 0x40 MLOAD DUP1 SWAP2 SUB SWAP1 RETURN JUMPDEST CALLVALUE DUP1 ISZERO PUSH2 0x279 JUMPI PUSH1 0x0 DUP1 REVERT JUMPDEST POP PUSH2 0x294 PUSH1 0x4 DUP1 CALLDATASIZE SUB DUP2 ADD SWAP1 PUSH2 0x28F SWAP2 SWAP1 PUSH2 0x2B18 JUMP JUMPDEST PUSH2 0xA76 JUMP JUMPDEST STOP JUMPDEST CALLVALUE DUP1 ISZERO PUSH2 0x2A2 JUMPI PUSH1 0x0 DUP1 REVERT JUMPDEST POP PUSH2 0x2AB PUSH2 0xAD6 JUMP JUMPDEST PUSH1 0x40 MLOAD PUSH2 0x2B8 SWAP2 SWAP1 PUSH2 0x2A35 JUMP JUMPDEST PUSH1 0x40 MLOAD DUP1 SWAP2 SUB SWAP1 RETURN JUMPDEST CALLVALUE DUP1 ISZERO PUSH2 0x2CD JUMPI PUSH1 0x0 DUP1 REVERT JUMPDEST POP PUSH2 0x2E8 PUSH1 0x4 DUP1 CALLDATASIZE SUB DUP2 ADD SWAP1 PUSH2 0x2E3 SWAP2 SWAP1 PUSH2 0x2B18 JUMP JUMPDEST PUSH2 0xB68 JUMP JUMPDEST STOP JUMPDEST CALLVALUE DUP1 ISZERO PUSH2 0x2F6 JUMPI PUSH1 0x0 DUP1 REVERT JUMPDEST POP PUSH2 0x311 PUSH1 0x4 DUP1 CALLDATASIZE SUB DUP2 ADD SWAP1 PUSH2 0x30C SWAP2 SWAP1 PUSH2 0x2A57 JUMP JUMPDEST PUSH2 0xB88 JUMP JUMPDEST STOP JUMPDEST PUSH2 0x32D PUSH1 0x4 DUP1 CALLDATASIZE SUB DUP2 ADD SWAP1 PUSH2 0x328 SWAP2 SWAP1 PUSH2 0x2A57 JUMP JUMPDEST PUSH2 0xBE4 JUMP JUMPDEST STOP JUMPDEST CALLVALUE DUP1 ISZERO PUSH2 0x33B JUMPI PUSH1 0x0 DUP1 REVERT JUMPDEST POP PUSH2 0x356 PUSH1 0x4 DUP1 CALLDATASIZE SUB DUP2 ADD SWAP1 PUSH2 0x351 SWAP2 SWAP1 PUSH2 0x2A57 JUMP JUMPDEST PUSH2 0xE45 JUMP JUMPDEST PUSH1 0x40 MLOAD PUSH2 0x363 SWAP2 SWAP1 PUSH2 0x2A93 JUMP JUMPDEST PUSH1 0x40 MLOAD DUP1 SWAP2 SUB SWAP1 RETURN JUMPDEST CALLVALUE DUP1 ISZERO PUSH2 0x378 JUMPI PUSH1 0x0 DUP1 REVERT JUMPDEST POP PUSH2 0x393 PUSH1 0x4 DUP1 CALLDATASIZE SUB DUP2 ADD SWAP1 PUSH2 0x38E SWAP2 SWAP1 PUSH2 0x2B6B JUMP JUMPDEST PUSH2 0xECB JUMP JUMPDEST PUSH1 0x40 MLOAD PUSH2 0x3A0 SWAP2 SWAP1 PUSH2 0x2AFD JUMP JUMPDEST PUSH1 0x40 MLOAD DUP1 SWAP2 SUB SWAP1 RETURN JUMPDEST CALLVALUE DUP1 ISZERO PUSH2 0x3B5 JUMPI PUSH1 0x0 DUP1 REVERT JUMPDEST POP PUSH2 0x3D0 PUSH1 0x4 DUP1 CALLDATASIZE SUB DUP2 ADD SWAP1 PUSH2 0x3CB SWAP2 SWAP1 PUSH2 0x2A57 JUMP JUMPDEST PUSH2 0xF82 JUMP JUMPDEST STOP JUMPDEST CALLVALUE DUP1 ISZERO PUSH2 0x3DE JUMPI PUSH1 0x0 DUP1 REVERT JUMPDEST POP PUSH2 0x3E7 PUSH2 0x108B JUMP JUMPDEST PUSH1 0x40 MLOAD PUSH2 0x3F4 SWAP2 SWAP1 PUSH2 0x2A35 JUMP JUMPDEST PUSH1 0x40 MLOAD DUP1 SWAP2 SUB SWAP1 RETURN JUMPDEST CALLVALUE DUP1 ISZERO PUSH2 0x409 JUMPI PUSH1 0x0 DUP1 REVERT JUMPDEST POP PUSH2 0x424 PUSH1 0x4 DUP1 CALLDATASIZE SUB DUP2 ADD SWAP1 PUSH2 0x41F SWAP2 SWAP1 PUSH2 0x2BC4 JUMP JUMPDEST PUSH2 0x111D JUMP JUMPDEST STOP JUMPDEST CALLVALUE DUP1 ISZERO PUSH2 0x432 JUMPI PUSH1 0x0 DUP1 REVERT JUMPDEST POP PUSH2 0x44D PUSH1 0x4 DUP1 CALLDATASIZE SUB DUP2 ADD SWAP1 PUSH2 0x448 SWAP2 SWAP1 PUSH2 0x2CA5 JUMP JUMPDEST PUSH2 0x1133 JUMP JUMPDEST STOP JUMPDEST CALLVALUE DUP1 ISZERO PUSH2 0x45B JUMPI PUSH1 0x0 DUP1 REVERT JUMPDEST POP PUSH2 0x476 PUSH1 0x4 DUP1 CALLDATASIZE SUB DUP2 ADD SWAP1 PUSH2 0x471 SWAP2 SWAP1 PUSH2 0x2A57 JUMP JUMPDEST PUSH2 0x1195 JUMP JUMPDEST PUSH1 0x40 MLOAD PUSH2 0x483 SWAP2 SWAP1 PUSH2 0x2A35 JUMP JUMPDEST PUSH1 0x40 MLOAD DUP1 SWAP2 SUB SWAP1 RETURN JUMPDEST CALLVALUE DUP1 ISZERO PUSH2 0x498 JUMPI PUSH1 0x0 DUP1 REVERT JUMPDEST POP PUSH2 0x4A1 PUSH2 0x11A7 JUMP JUMPDEST PUSH1 0x40 MLOAD PUSH2 0x4AE SWAP2 SWAP1 PUSH2 0x2A35 JUMP JUMPDEST PUSH1 0x40 MLOAD DUP1 SWAP2 SUB SWAP1 RETURN JUMPDEST CALLVALUE DUP1 ISZERO PUSH2 0x4C3 JUMPI PUSH1 0x0 DUP1 REVERT JUMPDEST POP PUSH2 0x4DE PUSH1 0x4 DUP1 CALLDATASIZE SUB DUP2 ADD SWAP1 PUSH2 0x4D9 SWAP2 SWAP1 PUSH2 0x2A57 JUMP JUMPDEST PUSH2 0x1239 JUMP JUMPDEST PUSH1 0x40 MLOAD PUSH2 0x4EB SWAP2 SWAP1 PUSH2 0x2A93 JUMP JUMPDEST PUSH1 0x40 MLOAD DUP1 SWAP2 SUB SWAP1 RETURN JUMPDEST CALLVALUE DUP1 ISZERO PUSH2 0x500 JUMPI PUSH1 0x0 DUP1 REVERT JUMPDEST POP PUSH2 0x51B PUSH1 0x4 DUP1 CALLDATASIZE SUB DUP2 ADD SWAP1 PUSH2 0x516 SWAP2 SWAP1 PUSH2 0x2D28 JUMP JUMPDEST PUSH2 0x128E JUMP JUMPDEST PUSH1 0x40 MLOAD PUSH2 0x528 SWAP2 SWAP1 PUSH2 0x2916 JUMP JUMPDEST PUSH1 0x40 MLOAD DUP1 SWAP2 SUB SWAP1 RETURN JUMPDEST PUSH1 0x0 DUP1 PUSH20 0xFFFFFFFFFFFFFFFFFFFFFFFFFFFFFFFFFFFFFFFF AND DUP10 PUSH20 0xFFFFFFFFFFFFFFFFFFFFFFFFFFFFFFFFFFFFFFFF AND SUB PUSH2 0x5A1 JUMPI PUSH1 0x40 MLOAD PUSH32 0x8C379A000000000000000000000000000000000000000000000000000000000 DUP2 MSTORE PUSH1 0x4 ADD PUSH2 0x598 SWAP1 PUSH2 0x2DDA JUMP JUMPDEST PUSH1 0x40 MLOAD DUP1 SWAP2 SUB SWAP1 REVERT JUMPDEST PUSH1 0xC PUSH1 0x0 SWAP1 SLOAD SWAP1 PUSH2 0x100 EXP SWAP1 DIV PUSH1 0xFF AND ISZERO PUSH2 0x5F1 JUMPI PUSH1 0x40 MLOAD PUSH32 0x8C379A000000000000000000000000000000000000000000000000000000000 DUP2 MSTORE PUSH1 0x4 ADD PUSH2 0x5E8 SWAP1 PUSH2 0x2E6C JUMP JUMPDEST PUSH1 0x40 MLOAD DUP1 SWAP2 SUB SWAP1 REVERT JUMPDEST DUP8 DUP8 PUSH1 0x7 SWAP2 DUP3 PUSH2 0x602 SWAP3 SWAP2 SWAP1 PUSH2 0x30A3 JUMP JUMPDEST POP DUP6 DUP6 PUSH1 0x8 SWAP2 DUP3 PUSH2 0x614 SWAP3 SWAP2 SWAP1 PUSH2 0x30A3 JUMP JUMPDEST POP DUP9 PUSH1 0x9 PUSH1 0x0 PUSH2 0x100 EXP DUP2 SLOAD DUP2 PUSH20 0xFFFFFFFFFFFFFFFFFFFFFFFFFFFFFFFFFFFFFFFF MUL NOT AND SWAP1 DUP4 PUSH20 0xFFFFFFFFFFFFFFFFFFFFFFFFFFFFFFFFFFFFFFFF AND MUL OR SWAP1 SSTORE POP DUP4 PUSH1 0xA PUSH1 0x0 PUSH2 0x100 EXP DUP2 SLOAD DUP2 PUSH20 0xFFFFFFFFFFFFFFFFFFFFFFFFFFFFFFFFFFFFFFFF MUL NOT AND SWAP1 DUP4 PUSH20 0xFFFFFFFFFFFFFFFFFFFFFFFFFFFFFFFFFFFFFFFF AND MUL OR SWAP1 SSTORE POP DUP2 PUSH1 0xB DUP2 SWAP1 SSTORE POP PUSH2 0x6CA PUSH1 0x9 PUSH1 0x0 SWAP1 SLOAD SWAP1 PUSH2 0x100 EXP SWAP1 DIV PUSH20 0xFFFFFFFFFFFFFFFFFFFFFFFFFFFFFFFFFFFFFFFF AND DUP5 PUSH2 0x1322 JUMP JUMPDEST PUSH1 0x1 PUSH1 0xC PUSH1 0x0 PUSH2 0x100 EXP DUP2 SLOAD DUP2 PUSH1 0xFF MUL NOT AND SWAP1 DUP4 ISZERO ISZERO MUL OR SWAP1 SSTORE POP PUSH1 0x9 PUSH1 0x0 SWAP1 SLOAD SWAP1 PUSH2 0x100 EXP SWAP1 DIV PUSH20 0xFFFFFFFFFFFFFFFFFFFFFFFFFFFFFFFFFFFFFFFF AND PUSH20 0xFFFFFFFFFFFFFFFFFFFFFFFFFFFFFFFFFFFFFFFF AND PUSH32 0xD133D105F7B44671EC3A00C607590E7154ADAAFD2E0E9542B201374F29358519 PUSH1 0x7 PUSH1 0x8 PUSH1 0xA PUSH1 0x0 SWAP1 SLOAD SWAP1 PUSH2 0x100 EXP SWAP1 DIV PUSH20 0xFFFFFFFFFFFFFFFFFFFFFFFFFFFFFFFFFFFFFFFF AND PUSH1 0x40 MLOAD PUSH2 0x775 SWAP4 SWAP3 SWAP2 SWAP1 PUSH2 0x31F7 JUMP JUMPDEST PUSH1 0x40 MLOAD DUP1 SWAP2 SUB SWAP1 LOG2 PUSH1 0xC PUSH1 0x0 SWAP1 SLOAD SWAP1 PUSH2 0x100 EXP SWAP1 DIV PUSH1 0xFF AND SWAP1 POP SWAP9 SWAP8 POP POP POP POP POP POP POP POP JUMP JUMPDEST PUSH1 0x0 PUSH32 0x80AC58CD00000000000000000000000000000000000000000000000000000000 PUSH28 0xFFFFFFFFFFFFFFFFFFFFFFFFFFFFFFFFFFFFFFFFFFFFFFFFFFFFFFFF NOT AND DUP3 PUSH28 0xFFFFFFFFFFFFFFFFFFFFFFFFFFFFFFFFFFFFFFFFFFFFFFFFFFFFFFFF NOT AND EQ DUP1 PUSH2 0x866 JUMPI POP PUSH32 0x5B5E139F00000000000000000000000000000000000000000000000000000000 PUSH28 0xFFFFFFFFFFFFFFFFFFFFFFFFFFFFFFFFFFFFFFFFFFFFFFFFFFFFFFFF NOT AND DUP3 PUSH28 0xFFFFFFFFFFFFFFFFFFFFFFFFFFFFFFFFFFFFFFFFFFFFFFFFFFFFFFFF NOT AND EQ JUMPDEST DUP1 PUSH2 0x876 JUMPI POP PUSH2 0x875 DUP3 PUSH2 0x138C JUMP JUMPDEST JUMPDEST SWAP1 POP SWAP2 SWAP1 POP JUMP JUMPDEST PUSH1 0x60 PUSH1 0x0 DUP1 SLOAD PUSH2 0x88C SWAP1 PUSH2 0x2EC6 JUMP JUMPDEST DUP1 PUSH1 0x1F ADD PUSH1 0x20 DUP1 SWAP2 DIV MUL PUSH1 0x20 ADD PUSH1 0x40 MLOAD SWAP1 DUP2 ADD PUSH1 0x40 MSTORE DUP1 SWAP3 SWAP2 SWAP1 DUP2 DUP2 MSTORE PUSH1 0x20 ADD DUP3 DUP1 SLOAD PUSH2 0x8B8 SWAP1 PUSH2 0x2EC6 JUMP JUMPDEST DUP1 ISZERO PUSH2 0x905 JUMPI DUP1 PUSH1 0x1F LT PUSH2 0x8DA JUMPI PUSH2 0x100 DUP1 DUP4 SLOAD DIV MUL DUP4 MSTORE SWAP2 PUSH1 0x20 ADD SWAP2 PUSH2 0x905 JUMP JUMPDEST DUP3 ADD SWAP2 SWAP1 PUSH1 0x0 MSTORE PUSH1 0x20 PUSH1 0x0 KECCAK256 SWAP1 JUMPDEST DUP2 SLOAD DUP2 MSTORE SWAP1 PUSH1 0x1 ADD SWAP1 PUSH1 0x20 ADD DUP1 DUP4 GT PUSH2 0x8E8 JUMPI DUP3 SWAP1 SUB PUSH1 0x1F AND DUP3 ADD SWAP2 JUMPDEST POP POP POP POP POP SWAP1 POP SWAP1 JUMP JUMPDEST PUSH1 0x0 PUSH2 0x91A DUP3 PUSH2 0x13F6 JUMP JUMPDEST PUSH1 0x4 PUSH1 0x0 DUP4 DUP2 MSTORE PUSH1 0x20 ADD SWAP1 DUP2 MSTORE PUSH1 0x20 ADD PUSH1 0x0 KECCAK256 PUSH1 0x0 SWAP1 SLOAD SWAP1 PUSH2 0x100 EXP SWAP1 DIV PUSH20 0xFFFFFFFFFFFFFFFFFFFFFFFFFFFFFFFFFFFFFFFF AND SWAP1 POP SWAP2 SWAP1 POP JUMP JUMPDEST PUSH1 0x0 PUSH2 0x960 DUP3 PUSH2 0xE45 JUMP JUMPDEST SWAP1 POP DUP1 PUSH20 0xFFFFFFFFFFFFFFFFFFFFFFFFFFFFFFFFFFFFFFFF AND DUP4 PUSH20 0xFFFFFFFFFFFFFFFFFFFFFFFFFFFFFFFFFFFFFFFF AND SUB PUSH2 0x9D0 JUMPI PUSH1 0x40 MLOAD PUSH32 0x8C379A000000000000000000000000000000000000000000000000000000000 DUP2 MSTORE PUSH1 0x4 ADD PUSH2 0x9C7 SWAP1 PUSH2 0x32AE JUMP JUMPDEST PUSH1 0x40 MLOAD DUP1 SWAP2 SUB SWAP1 REVERT JUMPDEST DUP1 PUSH20 0xFFFFFFFFFFFFFFFFFFFFFFFFFFFFFFFFFFFFFFFF AND PUSH2 0x9EF PUSH2 0x1441 JUMP JUMPDEST PUSH20 0xFFFFFFFFFFFFFFFFFFFFFFFFFFFFFFFFFFFFFFFF AND EQ DUP1 PUSH2 0xA1E JUMPI POP PUSH2 0xA1D DUP2 PUSH2 0xA18 PUSH2 0x1441 JUMP JUMPDEST PUSH2 0x128E JUMP JUMPDEST JUMPDEST PUSH2 0xA5D JUMPI PUSH1 0x40 MLOAD PUSH32 0x8C379A000000000000000000000000000000000000000000000000000000000 DUP2 MSTORE PUSH1 0x4 ADD PUSH2 0xA54 SWAP1 PUSH2 0x3340 JUMP JUMPDEST PUSH1 0x40 MLOAD DUP1 SWAP2 SUB SWAP1 REVERT JUMPDEST PUSH2 0xA67 DUP4 DUP4 PUSH2 0x1449 JUMP JUMPDEST POP POP POP JUMP JUMPDEST PUSH1 0x0 PUSH1 0xB SLOAD SWAP1 POP SWAP1 JUMP JUMPDEST PUSH2 0xA87 PUSH2 0xA81 PUSH2 0x1441 JUMP JUMPDEST DUP3 PUSH2 0x1502 JUMP JUMPDEST PUSH2 0xAC6 JUMPI PUSH1 0x40 MLOAD PUSH32 0x8C379A000000000000000000000000000000000000000000000000000000000 DUP2 MSTORE PUSH1 0x4 ADD PUSH2 0xABD SWAP1 PUSH2 0x33D2 JUMP JUMPDEST PUSH1 0x40 MLOAD DUP1 SWAP2 SUB SWAP1 REVERT JUMPDEST PUSH2 0xAD1 DUP4 DUP4 DUP4 PUSH2 0x1597 JUMP JUMPDEST POP POP POP JUMP JUMPDEST PUSH1 0x60 PUSH1 0x7 DUP1 SLOAD PUSH2 0xAE5 SWAP1 PUSH2 0x2EC6 JUMP JUMPDEST DUP1 PUSH1 0x1F ADD PUSH1 0x20 DUP1 SWAP2 DIV MUL PUSH1 0x20 ADD PUSH1 0x40 MLOAD SWAP1 DUP2 ADD PUSH1 0x40 MSTORE DUP1 SWAP3 SWAP2 SWAP1 DUP2 DUP2 MSTORE PUSH1 0x20 ADD DUP3 DUP1 SLOAD PUSH2 0xB11 SWAP1 PUSH2 0x2EC6 JUMP JUMPDEST DUP1 ISZERO PUSH2 0xB5E JUMPI DUP1 PUSH1 0x1F LT PUSH2 0xB33 JUMPI PUSH2 0x100 DUP1 DUP4 SLOAD DIV MUL DUP4 MSTORE SWAP2 PUSH1 0x20 ADD SWAP2 PUSH2 0xB5E JUMP JUMPDEST DUP3 ADD SWAP2 SWAP1 PUSH1 0x0 MSTORE PUSH1 0x20 PUSH1 0x0 KECCAK256 SWAP1 JUMPDEST DUP2 SLOAD DUP2 MSTORE SWAP1 PUSH1 0x1 ADD SWAP1 PUSH1 0x20 ADD DUP1 DUP4 GT PUSH2 0xB41 JUMPI DUP3 SWAP1 SUB PUSH1 0x1F AND DUP3 ADD SWAP2 JUMPDEST POP POP POP POP POP SWAP1 POP SWAP1 JUMP JUMPDEST PUSH2 0xB83 DUP4 DUP4 DUP4 PUSH1 0x40 MLOAD DUP1 PUSH1 0x20 ADD PUSH1 0x40 MSTORE DUP1 PUSH1 0x0 DUP2 MSTORE POP PUSH2 0x1133 JUMP JUMPDEST POP POP POP JUMP JUMPDEST PUSH2 0xB99 PUSH2 0xB93 PUSH2 0x1441 JUMP JUMPDEST DUP3 PUSH2 0x1502 JUMP JUMPDEST PUSH2 0xBD8 JUMPI PUSH1 0x40 MLOAD PUSH32 0x8C379A000000000000000000000000000000000000000000000000000000000 DUP2 MSTORE PUSH1 0x4 ADD PUSH2 0xBCF SWAP1 PUSH2 0x33D2 JUMP JUMPDEST PUSH1 0x40 MLOAD DUP1 SWAP2 SUB SWAP1 REVERT JUMPDEST PUSH2 0xBE1 DUP2 PUSH2 0x1890 JUMP JUMPDEST POP JUMP JUMPDEST PUSH1 0x0 PUSH20 0xFFFFFFFFFFFFFFFFFFFFFFFFFFFFFFFFFFFFFFFF AND CALLER PUSH20 0xFFFFFFFFFFFFFFFFFFFFFFFFFFFFFFFFFFFFFFFF AND SUB PUSH2 0xC53 JUMPI PUSH1 0x40 MLOAD PUSH32 0x8C379A000000000000000000000000000000000000000000000000000000000 DUP2 MSTORE PUSH1 0x4 ADD PUSH2 0xC4A SWAP1 PUSH2 0x343E JUMP JUMPDEST PUSH1 0x40 MLOAD DUP1 SWAP2 SUB SWAP1 REVERT JUMPDEST PUSH1 0x9 PUSH1 0x0 SWAP1 SLOAD SWAP1 PUSH2 0x100 EXP SWAP1 DIV PUSH20 0xFFFFFFFFFFFFFFFFFFFFFFFFFFFFFFFFFFFFFFFF AND PUSH20 0xFFFFFFFFFFFFFFFFFFFFFFFFFFFFFFFFFFFFFFFF AND CALLER PUSH20 0xFFFFFFFFFFFFFFFFFFFFFFFFFFFFFFFFFFFFFFFF AND SUB PUSH2 0xCE3 JUMPI PUSH1 0x40 MLOAD PUSH32 0x8C379A000000000000000000000000000000000000000000000000000000000 DUP2 MSTORE PUSH1 0x4 ADD PUSH2 0xCDA SWAP1 PUSH2 0x34AA JUMP JUMPDEST PUSH1 0x40 MLOAD DUP1 SWAP2 SUB SWAP1 REVERT JUMPDEST PUSH1 0x1 DUP2 EQ PUSH2 0xD26 JUMPI PUSH1 0x40 MLOAD PUSH32 0x8C379A000000000000000000000000000000000000000000000000000000000 DUP2 MSTORE PUSH1 0x4 ADD PUSH2 0xD1D SWAP1 PUSH2 0x3516 JUMP JUMPDEST PUSH1 0x40 MLOAD DUP1 SWAP2 SUB SWAP1 REVERT JUMPDEST PUSH1 0xB SLOAD CALLVALUE LT ISZERO PUSH2 0xD6B JUMPI PUSH1 0x40 MLOAD PUSH32 0x8C379A000000000000000000000000000000000000000000000000000000000 DUP2 MSTORE PUSH1 0x4 ADD PUSH2 0xD62 SWAP1 PUSH2 0x35A8 JUMP JUMPDEST PUSH1 0x40 MLOAD DUP1 SWAP2 SUB SWAP1 REVERT JUMPDEST PUSH2 0xD98 PUSH1 0x9 PUSH1 0x0 SWAP1 SLOAD SWAP1 PUSH2 0x100 EXP SWAP1 DIV PUSH20 0xFFFFFFFFFFFFFFFFFFFFFFFFFFFFFFFFFFFFFFFF AND CALLER DUP4 PUSH2 0x1597 JUMP JUMPDEST CALLER PUSH1 0x9 PUSH1 0x0 PUSH2 0x100 EXP DUP2 SLOAD DUP2 PUSH20 0xFFFFFFFFFFFFFFFFFFFFFFFFFFFFFFFFFFFFFFFF MUL NOT AND SWAP1 DUP4 PUSH20 0xFFFFFFFFFFFFFFFFFFFFFFFFFFFFFFFFFFFFFFFF AND MUL OR SWAP1 SSTORE POP PUSH1 0x9 PUSH1 0x0 SWAP1 SLOAD SWAP1 PUSH2 0x100 EXP SWAP1 DIV PUSH20 0xFFFFFFFFFFFFFFFFFFFFFFFFFFFFFFFFFFFFFFFF AND PUSH20 0xFFFFFFFFFFFFFFFFFFFFFFFFFFFFFFFFFFFFFFFF AND PUSH2 0x8FC CALLVALUE SWAP1 DUP2 ISZERO MUL SWAP1 PUSH1 0x40 MLOAD PUSH1 0x0 PUSH1 0x40 MLOAD DUP1 DUP4 SUB DUP2 DUP6 DUP9 DUP9 CALL SWAP4 POP POP POP POP ISZERO DUP1 ISZERO PUSH2 0xE41 JUMPI RETURNDATASIZE PUSH1 0x0 DUP1 RETURNDATACOPY RETURNDATASIZE PUSH1 0x0 REVERT JUMPDEST POP POP JUMP JUMPDEST PUSH1 0x0 DUP1 PUSH2 0xE51 DUP4 PUSH2 0x1913 JUMP JUMPDEST SWAP1 POP PUSH1 0x0 PUSH20 0xFFFFFFFFFFFFFFFFFFFFFFFFFFFFFFFFFFFFFFFF AND DUP2 PUSH20 0xFFFFFFFFFFFFFFFFFFFFFFFFFFFFFFFFFFFFFFFF AND SUB PUSH2 0xEC2 JUMPI PUSH1 0x40 MLOAD PUSH32 0x8C379A000000000000000000000000000000000000000000000000000000000 DUP2 MSTORE PUSH1 0x4 ADD PUSH2 0xEB9 SWAP1 PUSH2 0x3614 JUMP JUMPDEST PUSH1 0x40 MLOAD DUP1 SWAP2 SUB SWAP1 REVERT JUMPDEST DUP1 SWAP2 POP POP SWAP2 SWAP1 POP JUMP JUMPDEST PUSH1 0x0 DUP1 PUSH20 0xFFFFFFFFFFFFFFFFFFFFFFFFFFFFFFFFFFFFFFFF AND DUP3 PUSH20 0xFFFFFFFFFFFFFFFFFFFFFFFFFFFFFFFFFFFFFFFF AND SUB PUSH2 0xF3B JUMPI PUSH1 0x40 MLOAD PUSH32 0x8C379A000000000000000000000000000000000000000000000000000000000 DUP2 MSTORE PUSH1 0x4 ADD PUSH2 0xF32 SWAP1 PUSH2 0x36A6 JUMP JUMPDEST PUSH1 0x40 MLOAD DUP1 SWAP2 SUB SWAP1 REVERT JUMPDEST PUSH1 0x3 PUSH1 0x0 DUP4 PUSH20 0xFFFFFFFFFFFFFFFFFFFFFFFFFFFFFFFFFFFFFFFF AND PUSH20 0xFFFFFFFFFFFFFFFFFFFFFFFFFFFFFFFFFFFFFFFF AND DUP2 MSTORE PUSH1 0x20 ADD SWAP1 DUP2 MSTORE PUSH1 0x20 ADD PUSH1 0x0 KECCAK256 SLOAD SWAP1 POP SWAP2 SWAP1 POP JUMP JUMPDEST PUSH2 0xF8C PUSH1 0x1 PUSH2 0xE45 JUMP JUMPDEST PUSH20 0xFFFFFFFFFFFFFFFFFFFFFFFFFFFFFFFFFFFFFFFF AND CALLER PUSH20 0xFFFFFFFFFFFFFFFFFFFFFFFFFFFFFFFFFFFFFFFF AND EQ PUSH2 0xFF9 JUMPI PUSH1 0x40 MLOAD PUSH32 0x8C379A000000000000000000000000000000000000000000000000000000000 DUP2 MSTORE PUSH1 0x4 ADD PUSH2 0xFF0 SWAP1 PUSH2 0x3712 JUMP JUMPDEST PUSH1 0x40 MLOAD DUP1 SWAP2 SUB SWAP1 REVERT JUMPDEST PUSH1 0x0 DUP2 LT ISZERO PUSH2 0x103D JUMPI PUSH1 0x40 MLOAD PUSH32 0x8C379A000000000000000000000000000000000000000000000000000000000 DUP2 MSTORE PUSH1 0x4 ADD PUSH2 0x1034 SWAP1 PUSH2 0x377E JUMP JUMPDEST PUSH1 0x40 MLOAD DUP1 SWAP2 SUB SWAP1 REVERT JUMPDEST PUSH1 0xB SLOAD DUP2 SUB PUSH2 0x1081 JUMPI PUSH1 0x40 MLOAD PUSH32 0x8C379A000000000000000000000000000000000000000000000000000000000 DUP2 MSTORE PUSH1 0x4 ADD PUSH2 0x1078 SWAP1 PUSH2 0x37EA JUMP JUMPDEST PUSH1 0x40 MLOAD DUP1 SWAP2 SUB SWAP1 REVERT JUMPDEST DUP1 PUSH1 0xB DUP2 SWAP1 SSTORE POP POP JUMP JUMPDEST PUSH1 0x60 PUSH1 0x1 DUP1 SLOAD PUSH2 0x109A SWAP1 PUSH2 0x2EC6 JUMP JUMPDEST DUP1 PUSH1 0x1F ADD PUSH1 0x20 DUP1 SWAP2 DIV MUL PUSH1 0x20 ADD PUSH1 0x40 MLOAD SWAP1 DUP2 ADD PUSH1 0x40 MSTORE DUP1 SWAP3 SWAP2 SWAP1 DUP2 DUP2 MSTORE PUSH1 0x20 ADD DUP3 DUP1 SLOAD PUSH2 0x10C6 SWAP1 PUSH2 0x2EC6 JUMP JUMPDEST DUP1 ISZERO PUSH2 0x1113 JUMPI DUP1 PUSH1 0x1F LT PUSH2 0x10E8 JUMPI PUSH2 0x100 DUP1 DUP4 SLOAD DIV MUL DUP4 MSTORE SWAP2 PUSH1 0x20 ADD SWAP2 PUSH2 0x1113 JUMP JUMPDEST DUP3 ADD SWAP2 SWAP1 PUSH1 0x0 MSTORE PUSH1 0x20 PUSH1 0x0 KECCAK256 SWAP1 JUMPDEST DUP2 SLOAD DUP2 MSTORE SWAP1 PUSH1 0x1 ADD SWAP1 PUSH1 0x20 ADD DUP1 DUP4 GT PUSH2 0x10F6 JUMPI DUP3 SWAP1 SUB PUSH1 0x1F AND DUP3 ADD SWAP2 JUMPDEST POP POP POP POP POP SWAP1 POP SWAP1 JUMP JUMPDEST PUSH2 0x112F PUSH2 0x1128 PUSH2 0x1441 JUMP JUMPDEST DUP4 DUP4 PUSH2 0x1950 JUMP JUMPDEST POP POP JUMP JUMPDEST PUSH2 0x1144 PUSH2 0x113E PUSH2 0x1441 JUMP JUMPDEST DUP4 PUSH2 0x1502 JUMP JUMPDEST PUSH2 0x1183 JUMPI PUSH1 0x40 MLOAD PUSH32 0x8C379A000000000000000000000000000000000000000000000000000000000 DUP2 MSTORE PUSH1 0x4 ADD PUSH2 0x117A SWAP1 PUSH2 0x33D2 JUMP JUMPDEST PUSH1 0x40 MLOAD DUP1 SWAP2 SUB SWAP1 REVERT JUMPDEST PUSH2 0x118F DUP5 DUP5 DUP5 DUP5 PUSH2 0x1ABC JUMP JUMPDEST POP POP POP POP JUMP JUMPDEST PUSH1 0x60 PUSH2 0x11A0 DUP3 PUSH2 0x1B18 JUMP JUMPDEST SWAP1 POP SWAP2 SWAP1 POP JUMP JUMPDEST PUSH1 0x60 PUSH1 0x8 DUP1 SLOAD PUSH2 0x11B6 SWAP1 PUSH2 0x2EC6 JUMP JUMPDEST DUP1 PUSH1 0x1F ADD PUSH1 0x20 DUP1 SWAP2 DIV MUL PUSH1 0x20 ADD PUSH1 0x40 MLOAD SWAP1 DUP2 ADD PUSH1 0x40 MSTORE DUP1 SWAP3 SWAP2 SWAP1 DUP2 DUP2 MSTORE PUSH1 0x20 ADD DUP3 DUP1 SLOAD PUSH2 0x11E2 SWAP1 PUSH2 0x2EC6 JUMP JUMPDEST DUP1 ISZERO PUSH2 0x122F JUMPI DUP1 PUSH1 0x1F LT PUSH2 0x1204 JUMPI PUSH2 0x100 DUP1 DUP4 SLOAD DIV MUL DUP4 MSTORE SWAP2 PUSH1 0x20 ADD SWAP2 PUSH2 0x122F JUMP JUMPDEST DUP3 ADD SWAP2 SWAP1 PUSH1 0x0 MSTORE PUSH1 0x20 PUSH1 0x0 KECCAK256 SWAP1 JUMPDEST DUP2 SLOAD DUP2 MSTORE SWAP1 PUSH1 0x1 ADD SWAP1 PUSH1 0x20 ADD DUP1 DUP4 GT PUSH2 0x1212 JUMPI DUP3 SWAP1 SUB PUSH1 0x1F AND DUP3 ADD SWAP2 JUMPDEST POP POP POP POP POP SWAP1 POP SWAP1 JUMP JUMPDEST PUSH1 0x0 PUSH1 0x1 DUP3 EQ PUSH2 0x127E JUMPI PUSH1 0x40 MLOAD PUSH32 0x8C379A000000000000000000000000000000000000000000000000000000000 DUP2 MSTORE PUSH1 0x4 ADD PUSH2 0x1275 SWAP1 PUSH2 0x3856 JUMP JUMPDEST PUSH1 0x40 MLOAD DUP1 SWAP2 SUB SWAP1 REVERT JUMPDEST PUSH2 0x1287 DUP3 PUSH2 0xE45 JUMP JUMPDEST SWAP1 POP SWAP2 SWAP1 POP JUMP JUMPDEST PUSH1 0x0 PUSH1 0x5 PUSH1 0x0 DUP5 PUSH20 0xFFFFFFFFFFFFFFFFFFFFFFFFFFFFFFFFFFFFFFFF AND PUSH20 0xFFFFFFFFFFFFFFFFFFFFFFFFFFFFFFFFFFFFFFFF AND DUP2 MSTORE PUSH1 0x20 ADD SWAP1 DUP2 MSTORE PUSH1 0x20 ADD PUSH1 0x0 KECCAK256 PUSH1 0x0 DUP4 PUSH20 0xFFFFFFFFFFFFFFFFFFFFFFFFFFFFFFFFFFFFFFFF AND PUSH20 0xFFFFFFFFFFFFFFFFFFFFFFFFFFFFFFFFFFFFFFFF AND DUP2 MSTORE PUSH1 0x20 ADD SWAP1 DUP2 MSTORE PUSH1 0x20 ADD PUSH1 0x0 KECCAK256 PUSH1 0x0 SWAP1 SLOAD SWAP1 PUSH2 0x100 EXP SWAP1 DIV PUSH1 0xFF AND SWAP1 POP SWAP3 SWAP2 POP POP JUMP JUMPDEST PUSH1 0xC PUSH1 0x0 SWAP1 SLOAD SWAP1 PUSH2 0x100 EXP SWAP1 DIV PUSH1 0xFF AND ISZERO PUSH2 0x1372 JUMPI PUSH1 0x40 MLOAD PUSH32 0x8C379A000000000000000000000000000000000000000000000000000000000 DUP2 MSTORE PUSH1 0x4 ADD PUSH2 0x1369 SWAP1 PUSH2 0x2E6C JUMP JUMPDEST PUSH1 0x40 MLOAD DUP1 SWAP2 SUB SWAP1 REVERT JUMPDEST PUSH2 0x137D DUP3 PUSH1 0x1 PUSH2 0x1C2A JUMP JUMPDEST PUSH2 0x1388 PUSH1 0x1 DUP3 PUSH2 0x1C48 JUMP JUMPDEST POP POP JUMP JUMPDEST PUSH1 0x0 PUSH32 0x1FFC9A700000000000000000000000000000000000000000000000000000000 PUSH28 0xFFFFFFFFFFFFFFFFFFFFFFFFFFFFFFFFFFFFFFFFFFFFFFFFFFFFFFFF NOT AND DUP3 PUSH28 0xFFFFFFFFFFFFFFFFFFFFFFFFFFFFFFFFFFFFFFFFFFFFFFFFFFFFFFFF NOT AND EQ SWAP1 POP SWAP2 SWAP1 POP JUMP JUMPDEST PUSH2 0x13FF DUP2 PUSH2 0x1CB5 JUMP JUMPDEST PUSH2 0x143E JUMPI PUSH1 0x40 MLOAD PUSH32 0x8C379A000000000000000000000000000000000000000000000000000000000 DUP2 MSTORE PUSH1 0x4 ADD PUSH2 0x1435 SWAP1 PUSH2 0x3614 JUMP JUMPDEST PUSH1 0x40 MLOAD DUP1 SWAP2 SUB SWAP1 REVERT JUMPDEST POP JUMP JUMPDEST PUSH1 0x0 CALLER SWAP1 POP SWAP1 JUMP JUMPDEST DUP2 PUSH1 0x4 PUSH1 0x0 DUP4 DUP2 MSTORE PUSH1 0x20 ADD SWAP1 DUP2 MSTORE PUSH1 0x20 ADD PUSH1 0x0 KECCAK256 PUSH1 0x0 PUSH2 0x100 EXP DUP2 SLOAD DUP2 PUSH20 0xFFFFFFFFFFFFFFFFFFFFFFFFFFFFFFFFFFFFFFFF MUL NOT AND SWAP1 DUP4 PUSH20 0xFFFFFFFFFFFFFFFFFFFFFFFFFFFFFFFFFFFFFFFF AND MUL OR SWAP1 SSTORE POP DUP1 DUP3 PUSH20 0xFFFFFFFFFFFFFFFFFFFFFFFFFFFFFFFFFFFFFFFF AND PUSH2 0x14BC DUP4 PUSH2 0xE45 JUMP JUMPDEST PUSH20 0xFFFFFFFFFFFFFFFFFFFFFFFFFFFFFFFFFFFFFFFF AND PUSH32 0x8C5BE1E5EBEC7D5BD14F71427D1E84F3DD0314C0F7B2291E5B200AC8C7C3B925 PUSH1 0x40 MLOAD PUSH1 0x40 MLOAD DUP1 SWAP2 SUB SWAP1 LOG4 POP POP JUMP JUMPDEST PUSH1 0x0 DUP1 PUSH2 0x150E DUP4 PUSH2 0xE45 JUMP JUMPDEST SWAP1 POP DUP1 PUSH20 0xFFFFFFFFFFFFFFFFFFFFFFFFFFFFFFFFFFFFFFFF AND DUP5 PUSH20 0xFFFFFFFFFFFFFFFFFFFFFFFFFFFFFFFFFFFFFFFF AND EQ DUP1 PUSH2 0x1550 JUMPI POP PUSH2 0x154F DUP2 DUP6 PUSH2 0x128E JUMP JUMPDEST JUMPDEST DUP1 PUSH2 0x158E JUMPI POP DUP4 PUSH20 0xFFFFFFFFFFFFFFFFFFFFFFFFFFFFFFFFFFFFFFFF AND PUSH2 0x1576 DUP5 PUSH2 0x90F JUMP JUMPDEST PUSH20 0xFFFFFFFFFFFFFFFFFFFFFFFFFFFFFFFFFFFFFFFF AND EQ JUMPDEST SWAP2 POP POP SWAP3 SWAP2 POP POP JUMP JUMPDEST DUP3 PUSH20 0xFFFFFFFFFFFFFFFFFFFFFFFFFFFFFFFFFFFFFFFF AND PUSH2 0x15B7 DUP3 PUSH2 0xE45 JUMP JUMPDEST PUSH20 0xFFFFFFFFFFFFFFFFFFFFFFFFFFFFFFFFFFFFFFFF AND EQ PUSH2 0x160D JUMPI PUSH1 0x40 MLOAD PUSH32 0x8C379A000000000000000000000000000000000000000000000000000000000 DUP2 MSTORE PUSH1 0x4 ADD PUSH2 0x1604 SWAP1 PUSH2 0x38E8 JUMP JUMPDEST PUSH1 0x40 MLOAD DUP1 SWAP2 SUB SWAP1 REVERT JUMPDEST PUSH1 0x0 PUSH20 0xFFFFFFFFFFFFFFFFFFFFFFFFFFFFFFFFFFFFFFFF AND DUP3 PUSH20 0xFFFFFFFFFFFFFFFFFFFFFFFFFFFFFFFFFFFFFFFF AND SUB PUSH2 0x167C JUMPI PUSH1 0x40 MLOAD PUSH32 0x8C379A000000000000000000000000000000000000000000000000000000000 DUP2 MSTORE PUSH1 0x4 ADD PUSH2 0x1673 SWAP1 PUSH2 0x397A JUMP JUMPDEST PUSH1 0x40 MLOAD DUP1 SWAP2 SUB SWAP1 REVERT JUMPDEST PUSH2 0x1689 DUP4 DUP4 DUP4 PUSH1 0x1 PUSH2 0x1CF6 JUMP JUMPDEST DUP3 PUSH20 0xFFFFFFFFFFFFFFFFFFFFFFFFFFFFFFFFFFFFFFFF AND PUSH2 0x16A9 DUP3 PUSH2 0xE45 JUMP JUMPDEST PUSH20 0xFFFFFFFFFFFFFFFFFFFFFFFFFFFFFFFFFFFFFFFF AND EQ PUSH2 0x16FF JUMPI PUSH1 0x40 MLOAD PUSH32 0x8C379A000000000000000000000000000000000000000000000000000000000 DUP2 MSTORE PUSH1 0x4 ADD PUSH2 0x16F6 SWAP1 PUSH2 0x38E8 JUMP JUMPDEST PUSH1 0x40 MLOAD DUP1 SWAP2 SUB SWAP1 REVERT JUMPDEST PUSH1 0x4 PUSH1 0x0 DUP3 DUP2 MSTORE PUSH1 0x20 ADD SWAP1 DUP2 MSTORE PUSH1 0x20 ADD PUSH1 0x0 KECCAK256 PUSH1 0x0 PUSH2 0x100 EXP DUP2 SLOAD SWAP1 PUSH20 0xFFFFFFFFFFFFFFFFFFFFFFFFFFFFFFFFFFFFFFFF MUL NOT AND SWAP1 SSTORE PUSH1 0x1 PUSH1 0x3 PUSH1 0x0 DUP6 PUSH20 0xFFFFFFFFFFFFFFFFFFFFFFFFFFFFFFFFFFFFFFFF AND PUSH20 0xFFFFFFFFFFFFFFFFFFFFFFFFFFFFFFFFFFFFFFFF AND DUP2 MSTORE PUSH1 0x20 ADD SWAP1 DUP2 MSTORE PUSH1 0x20 ADD PUSH1 0x0 KECCAK256 PUSH1 0x0 DUP3 DUP3 SLOAD SUB SWAP3 POP POP DUP2 SWAP1 SSTORE POP PUSH1 0x1 PUSH1 0x3 PUSH1 0x0 DUP5 PUSH20 0xFFFFFFFFFFFFFFFFFFFFFFFFFFFFFFFFFFFFFFFF AND PUSH20 0xFFFFFFFFFFFFFFFFFFFFFFFFFFFFFFFFFFFFFFFF AND DUP2 MSTORE PUSH1 0x20 ADD SWAP1 DUP2 MSTORE PUSH1 0x20 ADD PUSH1 0x0 KECCAK256 PUSH1 0x0 DUP3 DUP3 SLOAD ADD SWAP3 POP POP DUP2 SWAP1 SSTORE POP DUP2 PUSH1 0x2 PUSH1 0x0 DUP4 DUP2 MSTORE PUSH1 0x20 ADD SWAP1 DUP2 MSTORE PUSH1 0x20 ADD PUSH1 0x0 KECCAK256 PUSH1 0x0 PUSH2 0x100 EXP DUP2 SLOAD DUP2 PUSH20 0xFFFFFFFFFFFFFFFFFFFFFFFFFFFFFFFFFFFFFFFF MUL NOT AND SWAP1 DUP4 PUSH20 0xFFFFFFFFFFFFFFFFFFFFFFFFFFFFFFFFFFFFFFFF AND MUL OR SWAP1 SSTORE POP DUP1 DUP3 PUSH20 0xFFFFFFFFFFFFFFFFFFFFFFFFFFFFFFFFFFFFFFFF AND DUP5 PUSH20 0xFFFFFFFFFFFFFFFFFFFFFFFFFFFFFFFFFFFFFFFF AND PUSH32 0xDDF252AD1BE2C89B69C2B068FC378DAA952BA7F163C4A11628F55A4DF523B3EF PUSH1 0x40 MLOAD PUSH1 0x40 MLOAD DUP1 SWAP2 SUB SWAP1 LOG4 PUSH2 0x188B DUP4 DUP4 DUP4 PUSH1 0x1 PUSH2 0x1CFC JUMP JUMPDEST POP POP POP JUMP JUMPDEST PUSH2 0x189A PUSH1 0x1 PUSH2 0xE45 JUMP JUMPDEST PUSH20 0xFFFFFFFFFFFFFFFFFFFFFFFFFFFFFFFFFFFFFFFF AND CALLER PUSH20 0xFFFFFFFFFFFFFFFFFFFFFFFFFFFFFFFFFFFFFFFF AND EQ PUSH2 0x1907 JUMPI PUSH1 0x40 MLOAD PUSH32 0x8C379A000000000000000000000000000000000000000000000000000000000 DUP2 MSTORE PUSH1 0x4 ADD PUSH2 0x18FE SWAP1 PUSH2 0x3712 JUMP JUMPDEST PUSH1 0x40 MLOAD DUP1 SWAP2 SUB SWAP1 REVERT JUMPDEST PUSH2 0x1910 DUP2 PUSH2 0x1D02 JUMP JUMPDEST POP JUMP JUMPDEST PUSH1 0x0 PUSH1 0x2 PUSH1 0x0 DUP4 DUP2 MSTORE PUSH1 0x20 ADD SWAP1 DUP2 MSTORE PUSH1 0x20 ADD PUSH1 0x0 KECCAK256 PUSH1 0x0 SWAP1 SLOAD SWAP1 PUSH2 0x100 EXP SWAP1 DIV PUSH20 0xFFFFFFFFFFFFFFFFFFFFFFFFFFFFFFFFFFFFFFFF AND SWAP1 POP SWAP2 SWAP1 POP JUMP JUMPDEST DUP2 PUSH20 0xFFFFFFFFFFFFFFFFFFFFFFFFFFFFFFFFFFFFFFFF AND DUP4 PUSH20 0xFFFFFFFFFFFFFFFFFFFFFFFFFFFFFFFFFFFFFFFF AND SUB PUSH2 0x19BE JUMPI PUSH1 0x40 MLOAD PUSH32 0x8C379A000000000000000000000000000000000000000000000000000000000 DUP2 MSTORE PUSH1 0x4 ADD PUSH2 0x19B5 SWAP1 PUSH2 0x39E6 JUMP JUMPDEST PUSH1 0x40 MLOAD DUP1 SWAP2 SUB SWAP1 REVERT JUMPDEST DUP1 PUSH1 0x5 PUSH1 0x0 DUP6 PUSH20 0xFFFFFFFFFFFFFFFFFFFFFFFFFFFFFFFFFFFFFFFF AND PUSH20 0xFFFFFFFFFFFFFFFFFFFFFFFFFFFFFFFFFFFFFFFF AND DUP2 MSTORE PUSH1 0x20 ADD SWAP1 DUP2 MSTORE PUSH1 0x20 ADD PUSH1 0x0 KECCAK256 PUSH1 0x0 DUP5 PUSH20 0xFFFFFFFFFFFFFFFFFFFFFFFFFFFFFFFFFFFFFFFF AND PUSH20 0xFFFFFFFFFFFFFFFFFFFFFFFFFFFFFFFFFFFFFFFF AND DUP2 MSTORE PUSH1 0x20 ADD SWAP1 DUP2 MSTORE PUSH1 0x20 ADD PUSH1 0x0 KECCAK256 PUSH1 0x0 PUSH2 0x100 EXP DUP2 SLOAD DUP2 PUSH1 0xFF MUL NOT AND SWAP1 DUP4 ISZERO ISZERO MUL OR SWAP1 SSTORE POP DUP2 PUSH20 0xFFFFFFFFFFFFFFFFFFFFFFFFFFFFFFFFFFFFFFFF AND DUP4 PUSH20 0xFFFFFFFFFFFFFFFFFFFFFFFFFFFFFFFFFFFFFFFF AND PUSH32 0x17307EAB39AB6107E8899845AD3D59BD9653F200F220920489CA2B5937696C31 DUP4 PUSH1 0x40 MLOAD PUSH2 0x1AAF SWAP2 SWAP1 PUSH2 0x2916 JUMP JUMPDEST PUSH1 0x40 MLOAD DUP1 SWAP2 SUB SWAP1 LOG3 POP POP POP JUMP JUMPDEST PUSH2 0x1AC7 DUP5 DUP5 DUP5 PUSH2 0x1597 JUMP JUMPDEST PUSH2 0x1AD3 DUP5 DUP5 DUP5 DUP5 PUSH2 0x1D55 JUMP JUMPDEST PUSH2 0x1B12 JUMPI PUSH1 0x40 MLOAD PUSH32 0x8C379A000000000000000000000000000000000000000000000000000000000 DUP2 MSTORE PUSH1 0x4 ADD PUSH2 0x1B09 SWAP1 PUSH2 0x3A78 JUMP JUMPDEST PUSH1 0x40 MLOAD DUP1 SWAP2 SUB SWAP1 REVERT JUMPDEST POP POP POP POP JUMP JUMPDEST PUSH1 0x60 PUSH2 0x1B23 DUP3 PUSH2 0x13F6 JUMP JUMPDEST PUSH1 0x0 PUSH1 0x6 PUSH1 0x0 DUP5 DUP2 MSTORE PUSH1 0x20 ADD SWAP1 DUP2 MSTORE PUSH1 0x20 ADD PUSH1 0x0 KECCAK256 DUP1 SLOAD PUSH2 0x1B43 SWAP1 PUSH2 0x2EC6 JUMP JUMPDEST DUP1 PUSH1 0x1F ADD PUSH1 0x20 DUP1 SWAP2 DIV MUL PUSH1 0x20 ADD PUSH1 0x40 MLOAD SWAP1 DUP2 ADD PUSH1 0x40 MSTORE DUP1 SWAP3 SWAP2 SWAP1 DUP2 DUP2 MSTORE PUSH1 0x20 ADD DUP3 DUP1 SLOAD PUSH2 0x1B6F SWAP1 PUSH2 0x2EC6 JUMP JUMPDEST DUP1 ISZERO PUSH2 0x1BBC JUMPI DUP1 PUSH1 0x1F LT PUSH2 0x1B91 JUMPI PUSH2 0x100 DUP1 DUP4 SLOAD DIV MUL DUP4 MSTORE SWAP2 PUSH1 0x20 ADD SWAP2 PUSH2 0x1BBC JUMP JUMPDEST DUP3 ADD SWAP2 SWAP1 PUSH1 0x0 MSTORE PUSH1 0x20 PUSH1 0x0 KECCAK256 SWAP1 JUMPDEST DUP2 SLOAD DUP2 MSTORE SWAP1 PUSH1 0x1 ADD SWAP1 PUSH1 0x20 ADD DUP1 DUP4 GT PUSH2 0x1B9F JUMPI DUP3 SWAP1 SUB PUSH1 0x1F AND DUP3 ADD SWAP2 JUMPDEST POP POP POP POP POP SWAP1 POP PUSH1 0x0 PUSH2 0x1BCD PUSH2 0x1EDC JUMP JUMPDEST SWAP1 POP PUSH1 0x0 DUP2 MLOAD SUB PUSH2 0x1BE2 JUMPI DUP2 SWAP3 POP POP POP PUSH2 0x1C25 JUMP JUMPDEST PUSH1 0x0 DUP3 MLOAD GT ISZERO PUSH2 0x1C17 JUMPI DUP1 DUP3 PUSH1 0x40 MLOAD PUSH1 0x20 ADD PUSH2 0x1BFF SWAP3 SWAP2 SWAP1 PUSH2 0x3AD4 JUMP JUMPDEST PUSH1 0x40 MLOAD PUSH1 0x20 DUP2 DUP4 SUB SUB DUP2 MSTORE SWAP1 PUSH1 0x40 MSTORE SWAP3 POP POP POP PUSH2 0x1C25 JUMP JUMPDEST PUSH2 0x1C20 DUP5 PUSH2 0x1EF3 JUMP JUMPDEST SWAP3 POP POP POP JUMPDEST SWAP2 SWAP1 POP JUMP JUMPDEST PUSH2 0x1C44 DUP3 DUP3 PUSH1 0x40 MLOAD DUP1 PUSH1 0x20 ADD PUSH1 0x40 MSTORE DUP1 PUSH1 0x0 DUP2 MSTORE POP PUSH2 0x1F5B JUMP JUMPDEST POP POP JUMP JUMPDEST PUSH2 0x1C51 DUP3 PUSH2 0x1CB5 JUMP JUMPDEST PUSH2 0x1C90 JUMPI PUSH1 0x40 MLOAD PUSH32 0x8C379A000000000000000000000000000000000000000000000000000000000 DUP2 MSTORE PUSH1 0x4 ADD PUSH2 0x1C87 SWAP1 PUSH2 0x3B6A JUMP JUMPDEST PUSH1 0x40 MLOAD DUP1 SWAP2 SUB SWAP1 REVERT JUMPDEST DUP1 PUSH1 0x6 PUSH1 0x0 DUP5 DUP2 MSTORE PUSH1 0x20 ADD SWAP1 DUP2 MSTORE PUSH1 0x20 ADD PUSH1 0x0 KECCAK256 SWAP1 DUP2 PUSH2 0x1CB0 SWAP2 SWAP1 PUSH2 0x3B8A JUMP JUMPDEST POP POP POP JUMP JUMPDEST PUSH1 0x0 DUP1 PUSH20 0xFFFFFFFFFFFFFFFFFFFFFFFFFFFFFFFFFFFFFFFF AND PUSH2 0x1CD7 DUP4 PUSH2 0x1913 JUMP JUMPDEST PUSH20 0xFFFFFFFFFFFFFFFFFFFFFFFFFFFFFFFFFFFFFFFF AND EQ ISZERO SWAP1 POP SWAP2 SWAP1 POP JUMP JUMPDEST POP POP POP POP JUMP JUMPDEST POP POP POP POP JUMP JUMPDEST PUSH2 0x1D0B DUP2 PUSH2 0x1FB6 JUMP JUMPDEST PUSH1 0x0 PUSH1 0x6 PUSH1 0x0 DUP4 DUP2 MSTORE PUSH1 0x20 ADD SWAP1 DUP2 MSTORE PUSH1 0x20 ADD PUSH1 0x0 KECCAK256 DUP1 SLOAD PUSH2 0x1D2B SWAP1 PUSH2 0x2EC6 JUMP JUMPDEST SWAP1 POP EQ PUSH2 0x1D52 JUMPI PUSH1 0x6 PUSH1 0x0 DUP3 DUP2 MSTORE PUSH1 0x20 ADD SWAP1 DUP2 MSTORE PUSH1 0x20 ADD PUSH1 0x0 KECCAK256 PUSH1 0x0 PUSH2 0x1D51 SWAP2 SWAP1 PUSH2 0x2565 JUMP JUMPDEST JUMPDEST POP JUMP JUMPDEST PUSH1 0x0 PUSH2 0x1D76 DUP5 PUSH20 0xFFFFFFFFFFFFFFFFFFFFFFFFFFFFFFFFFFFFFFFF AND PUSH2 0x2104 JUMP JUMPDEST ISZERO PUSH2 0x1ECF JUMPI DUP4 PUSH20 0xFFFFFFFFFFFFFFFFFFFFFFFFFFFFFFFFFFFFFFFF AND PUSH4 0x150B7A02 PUSH2 0x1D9F PUSH2 0x1441 JUMP JUMPDEST DUP8 DUP7 DUP7 PUSH1 0x40 MLOAD DUP6 PUSH4 0xFFFFFFFF AND PUSH1 0xE0 SHL DUP2 MSTORE PUSH1 0x4 ADD PUSH2 0x1DC1 SWAP5 SWAP4 SWAP3 SWAP2 SWAP1 PUSH2 0x3CB1 JUMP JUMPDEST PUSH1 0x20 PUSH1 0x40 MLOAD DUP1 DUP4 SUB DUP2 PUSH1 0x0 DUP8 GAS CALL SWAP3 POP POP POP DUP1 ISZERO PUSH2 0x1DFD JUMPI POP PUSH1 0x40 MLOAD RETURNDATASIZE PUSH1 0x1F NOT PUSH1 0x1F DUP3 ADD AND DUP3 ADD DUP1 PUSH1 0x40 MSTORE POP DUP2 ADD SWAP1 PUSH2 0x1DFA SWAP2 SWAP1 PUSH2 0x3D12 JUMP JUMPDEST PUSH1 0x1 JUMPDEST PUSH2 0x1E7F JUMPI RETURNDATASIZE DUP1 PUSH1 0x0 DUP2 EQ PUSH2 0x1E2D JUMPI PUSH1 0x40 MLOAD SWAP2 POP PUSH1 0x1F NOT PUSH1 0x3F RETURNDATASIZE ADD AND DUP3 ADD PUSH1 0x40 MSTORE RETURNDATASIZE DUP3 MSTORE RETURNDATASIZE PUSH1 0x0 PUSH1 0x20 DUP5 ADD RETURNDATACOPY PUSH2 0x1E32 JUMP JUMPDEST PUSH1 0x60 SWAP2 POP JUMPDEST POP PUSH1 0x0 DUP2 MLOAD SUB PUSH2 0x1E77 JUMPI PUSH1 0x40 MLOAD PUSH32 0x8C379A000000000000000000000000000000000000000000000000000000000 DUP2 MSTORE PUSH1 0x4 ADD PUSH2 0x1E6E SWAP1 PUSH2 0x3A78 JUMP JUMPDEST PUSH1 0x40 MLOAD DUP1 SWAP2 SUB SWAP1 REVERT JUMPDEST DUP1 MLOAD DUP2 PUSH1 0x20 ADD REVERT JUMPDEST PUSH4 0x150B7A02 PUSH1 0xE0 SHL PUSH28 0xFFFFFFFFFFFFFFFFFFFFFFFFFFFFFFFFFFFFFFFFFFFFFFFFFFFFFFFF NOT AND DUP2 PUSH28 0xFFFFFFFFFFFFFFFFFFFFFFFFFFFFFFFFFFFFFFFFFFFFFFFFFFFFFFFF NOT AND EQ SWAP2 POP POP PUSH2 0x1ED4 JUMP JUMPDEST PUSH1 0x1 SWAP1 POP JUMPDEST SWAP5 SWAP4 POP POP POP POP JUMP JUMPDEST PUSH1 0x60 PUSH1 0x40 MLOAD DUP1 PUSH1 0x20 ADD PUSH1 0x40 MSTORE DUP1 PUSH1 0x0 DUP2 MSTORE POP SWAP1 POP SWAP1 JUMP JUMPDEST PUSH1 0x60 PUSH2 0x1EFE DUP3 PUSH2 0x13F6 JUMP JUMPDEST PUSH1 0x0 PUSH2 0x1F08 PUSH2 0x1EDC JUMP JUMPDEST SWAP1 POP PUSH1 0x0 DUP2 MLOAD GT PUSH2 0x1F28 JUMPI PUSH1 0x40 MLOAD DUP1 PUSH1 0x20 ADD PUSH1 0x40 MSTORE DUP1 PUSH1 0x0 DUP2 MSTORE POP PUSH2 0x1F53 JUMP JUMPDEST DUP1 PUSH2 0x1F32 DUP5 PUSH2 0x2127 JUMP JUMPDEST PUSH1 0x40 MLOAD PUSH1 0x20 ADD PUSH2 0x1F43 SWAP3 SWAP2 SWAP1 PUSH2 0x3AD4 JUMP JUMPDEST PUSH1 0x40 MLOAD PUSH1 0x20 DUP2 DUP4 SUB SUB DUP2 MSTORE SWAP1 PUSH1 0x40 MSTORE JUMPDEST SWAP2 POP POP SWAP2 SWAP1 POP JUMP JUMPDEST PUSH2 0x1F65 DUP4 DUP4 PUSH2 0x21F5 JUMP JUMPDEST PUSH2 0x1F72 PUSH1 0x0 DUP5 DUP5 DUP5 PUSH2 0x1D55 JUMP JUMPDEST PUSH2 0x1FB1 JUMPI PUSH1 0x40 MLOAD PUSH32 0x8C379A000000000000000000000000000000000000000000000000000000000 DUP2 MSTORE PUSH1 0x4 ADD PUSH2 0x1FA8 SWAP1 PUSH2 0x3A78 JUMP JUMPDEST PUSH1 0x40 MLOAD DUP1 SWAP2 SUB SWAP1 REVERT JUMPDEST POP POP POP JUMP JUMPDEST PUSH1 0x0 PUSH2 0x1FC1 DUP3 PUSH2 0xE45 JUMP JUMPDEST SWAP1 POP PUSH2 0x1FD1 DUP2 PUSH1 0x0 DUP5 PUSH1 0x1 PUSH2 0x1CF6 JUMP JUMPDEST PUSH2 0x1FDA DUP3 PUSH2 0xE45 JUMP JUMPDEST SWAP1 POP PUSH1 0x4 PUSH1 0x0 DUP4 DUP2 MSTORE PUSH1 0x20 ADD SWAP1 DUP2 MSTORE PUSH1 0x20 ADD PUSH1 0x0 KECCAK256 PUSH1 0x0 PUSH2 0x100 EXP DUP2 SLOAD SWAP1 PUSH20 0xFFFFFFFFFFFFFFFFFFFFFFFFFFFFFFFFFFFFFFFF MUL NOT AND SWAP1 SSTORE PUSH1 0x1 PUSH1 0x3 PUSH1 0x0 DUP4 PUSH20 0xFFFFFFFFFFFFFFFFFFFFFFFFFFFFFFFFFFFFFFFF AND PUSH20 0xFFFFFFFFFFFFFFFFFFFFFFFFFFFFFFFFFFFFFFFF AND DUP2 MSTORE PUSH1 0x20 ADD SWAP1 DUP2 MSTORE PUSH1 0x20 ADD PUSH1 0x0 KECCAK256 PUSH1 0x0 DUP3 DUP3 SLOAD SUB SWAP3 POP POP DUP2 SWAP1 SSTORE POP PUSH1 0x2 PUSH1 0x0 DUP4 DUP2 MSTORE PUSH1 0x20 ADD SWAP1 DUP2 MSTORE PUSH1 0x20 ADD PUSH1 0x0 KECCAK256 PUSH1 0x0 PUSH2 0x100 EXP DUP2 SLOAD SWAP1 PUSH20 0xFFFFFFFFFFFFFFFFFFFFFFFFFFFFFFFFFFFFFFFF MUL NOT AND SWAP1 SSTORE DUP2 PUSH1 0x0 PUSH20 0xFFFFFFFFFFFFFFFFFFFFFFFFFFFFFFFFFFFFFFFF AND DUP3 PUSH20 0xFFFFFFFFFFFFFFFFFFFFFFFFFFFFFFFFFFFFFFFF AND PUSH32 0xDDF252AD1BE2C89B69C2B068FC378DAA952BA7F163C4A11628F55A4DF523B3EF PUSH1 0x40 MLOAD PUSH1 0x40 MLOAD DUP1 SWAP2 SUB SWAP1 LOG4 PUSH2 0x2100 DUP2 PUSH1 0x0 DUP5 PUSH1 0x1 PUSH2 0x1CFC JUMP JUMPDEST POP POP JUMP JUMPDEST PUSH1 0x0 DUP1 DUP3 PUSH20 0xFFFFFFFFFFFFFFFFFFFFFFFFFFFFFFFFFFFFFFFF AND EXTCODESIZE GT SWAP1 POP SWAP2 SWAP1 POP JUMP JUMPDEST PUSH1 0x60 PUSH1 0x0 PUSH1 0x1 PUSH2 0x2136 DUP5 PUSH2 0x2412 JUMP JUMPDEST ADD SWAP1 POP PUSH1 0x0 DUP2 PUSH8 0xFFFFFFFFFFFFFFFF DUP2 GT ISZERO PUSH2 0x2155 JUMPI PUSH2 0x2154 PUSH2 0x26AF JUMP JUMPDEST JUMPDEST PUSH1 0x40 MLOAD SWAP1 DUP1 DUP3 MSTORE DUP1 PUSH1 0x1F ADD PUSH1 0x1F NOT AND PUSH1 0x20 ADD DUP3 ADD PUSH1 0x40 MSTORE DUP1 ISZERO PUSH2 0x2187 JUMPI DUP2 PUSH1 0x20 ADD PUSH1 0x1 DUP3 MUL DUP1 CALLDATASIZE DUP4 CALLDATACOPY DUP1 DUP3 ADD SWAP2 POP POP SWAP1 POP JUMPDEST POP SWAP1 POP PUSH1 0x0 DUP3 PUSH1 0x20 ADD DUP3 ADD SWAP1 POP JUMPDEST PUSH1 0x1 ISZERO PUSH2 0x21EA JUMPI DUP1 DUP1 PUSH1 0x1 SWAP1 SUB SWAP2 POP POP PUSH32 0x3031323334353637383961626364656600000000000000000000000000000000 PUSH1 0xA DUP7 MOD BYTE DUP2 MSTORE8 PUSH1 0xA DUP6 DUP2 PUSH2 0x21DE JUMPI PUSH2 0x21DD PUSH2 0x3D3F JUMP JUMPDEST JUMPDEST DIV SWAP5 POP PUSH1 0x0 DUP6 SUB PUSH2 0x2195 JUMPI JUMPDEST DUP2 SWAP4 POP POP POP POP SWAP2 SWAP1 POP JUMP JUMPDEST PUSH1 0x0 PUSH20 0xFFFFFFFFFFFFFFFFFFFFFFFFFFFFFFFFFFFFFFFF AND DUP3 PUSH20 0xFFFFFFFFFFFFFFFFFFFFFFFFFFFFFFFFFFFFFFFF AND SUB PUSH2 0x2264 JUMPI PUSH1 0x40 MLOAD PUSH32 0x8C379A000000000000000000000000000000000000000000000000000000000 DUP2 MSTORE PUSH1 0x4 ADD PUSH2 0x225B SWAP1 PUSH2 0x3DBA JUMP JUMPDEST PUSH1 0x40 MLOAD DUP1 SWAP2 SUB SWAP1 REVERT JUMPDEST PUSH2 0x226D DUP2 PUSH2 0x1CB5 JUMP JUMPDEST ISZERO PUSH2 0x22AD JUMPI PUSH1 0x40 MLOAD PUSH32 0x8C379A000000000000000000000000000000000000000000000000000000000 DUP2 MSTORE PUSH1 0x4 ADD PUSH2 0x22A4 SWAP1 PUSH2 0x3E26 JUMP JUMPDEST PUSH1 0x40 MLOAD DUP1 SWAP2 SUB SWAP1 REVERT JUMPDEST PUSH2 0x22BB PUSH1 0x0 DUP4 DUP4 PUSH1 0x1 PUSH2 0x1CF6 JUMP JUMPDEST PUSH2 0x22C4 DUP2 PUSH2 0x1CB5 JUMP JUMPDEST ISZERO PUSH2 0x2304 JUMPI PUSH1 0x40 MLOAD PUSH32 0x8C379A000000000000000000000000000000000000000000000000000000000 DUP2 MSTORE PUSH1 0x4 ADD PUSH2 0x22FB SWAP1 PUSH2 0x3E26 JUMP JUMPDEST PUSH1 0x40 MLOAD DUP1 SWAP2 SUB SWAP1 REVERT JUMPDEST PUSH1 0x1 PUSH1 0x3 PUSH1 0x0 DUP5 PUSH20 0xFFFFFFFFFFFFFFFFFFFFFFFFFFFFFFFFFFFFFFFF AND PUSH20 0xFFFFFFFFFFFFFFFFFFFFFFFFFFFFFFFFFFFFFFFF AND DUP2 MSTORE PUSH1 0x20 ADD SWAP1 DUP2 MSTORE PUSH1 0x20 ADD PUSH1 0x0 KECCAK256 PUSH1 0x0 DUP3 DUP3 SLOAD ADD SWAP3 POP POP DUP2 SWAP1 SSTORE POP DUP2 PUSH1 0x2 PUSH1 0x0 DUP4 DUP2 MSTORE PUSH1 0x20 ADD SWAP1 DUP2 MSTORE PUSH1 0x20 ADD PUSH1 0x0 KECCAK256 PUSH1 0x0 PUSH2 0x100 EXP DUP2 SLOAD DUP2 PUSH20 0xFFFFFFFFFFFFFFFFFFFFFFFFFFFFFFFFFFFFFFFF MUL NOT AND SWAP1 DUP4 PUSH20 0xFFFFFFFFFFFFFFFFFFFFFFFFFFFFFFFFFFFFFFFF AND MUL OR SWAP1 SSTORE POP DUP1 DUP3 PUSH20 0xFFFFFFFFFFFFFFFFFFFFFFFFFFFFFFFFFFFFFFFF AND PUSH1 0x0 PUSH20 0xFFFFFFFFFFFFFFFFFFFFFFFFFFFFFFFFFFFFFFFF AND PUSH32 0xDDF252AD1BE2C89B69C2B068FC378DAA952BA7F163C4A11628F55A4DF523B3EF PUSH1 0x40 MLOAD PUSH1 0x40 MLOAD DUP1 SWAP2 SUB SWAP1 LOG4 PUSH2 0x240E PUSH1 0x0 DUP4 DUP4 PUSH1 0x1 PUSH2 0x1CFC JUMP JUMPDEST POP POP JUMP JUMPDEST PUSH1 0x0 DUP1 PUSH1 0x0 SWAP1 POP PUSH27 0x184F03E93FF9F4DAA797ED6E38ED64BF6A1F010000000000000000 DUP4 LT PUSH2 0x2470 JUMPI PUSH27 0x184F03E93FF9F4DAA797ED6E38ED64BF6A1F010000000000000000 DUP4 DUP2 PUSH2 0x2466 JUMPI PUSH2 0x2465 PUSH2 0x3D3F JUMP JUMPDEST JUMPDEST DIV SWAP3 POP PUSH1 0x40 DUP2 ADD SWAP1 POP JUMPDEST PUSH14 0x4EE2D6D415B85ACEF8100000000 DUP4 LT PUSH2 0x24AD JUMPI PUSH14 0x4EE2D6D415B85ACEF8100000000 DUP4 DUP2 PUSH2 0x24A3 JUMPI PUSH2 0x24A2 PUSH2 0x3D3F JUMP JUMPDEST JUMPDEST DIV SWAP3 POP PUSH1 0x20 DUP2 ADD SWAP1 POP JUMPDEST PUSH7 0x2386F26FC10000 DUP4 LT PUSH2 0x24DC JUMPI PUSH7 0x2386F26FC10000 DUP4 DUP2 PUSH2 0x24D2 JUMPI PUSH2 0x24D1 PUSH2 0x3D3F JUMP JUMPDEST JUMPDEST DIV SWAP3 POP PUSH1 0x10 DUP2 ADD SWAP1 POP JUMPDEST PUSH4 0x5F5E100 DUP4 LT PUSH2 0x2505 JUMPI PUSH4 0x5F5E100 DUP4 DUP2 PUSH2 0x24FB JUMPI PUSH2 0x24FA PUSH2 0x3D3F JUMP JUMPDEST JUMPDEST DIV SWAP3 POP PUSH1 0x8 DUP2 ADD SWAP1 POP JUMPDEST PUSH2 0x2710 DUP4 LT PUSH2 0x252A JUMPI PUSH2 0x2710 DUP4 DUP2 PUSH2 0x2520 JUMPI PUSH2 0x251F PUSH2 0x3D3F JUMP JUMPDEST JUMPDEST DIV SWAP3 POP PUSH1 0x4 DUP2 ADD SWAP1 POP JUMPDEST PUSH1 0x64 DUP4 LT PUSH2 0x254D JUMPI PUSH1 0x64 DUP4 DUP2 PUSH2 0x2543 JUMPI PUSH2 0x2542 PUSH2 0x3D3F JUMP JUMPDEST JUMPDEST DIV SWAP3 POP PUSH1 0x2 DUP2 ADD SWAP1 POP JUMPDEST PUSH1 0xA DUP4 LT PUSH2 0x255C JUMPI PUSH1 0x1 DUP2 ADD SWAP1 POP JUMPDEST DUP1 SWAP2 POP POP SWAP2 SWAP1 POP JUMP JUMPDEST POP DUP1 SLOAD PUSH2 0x2571 SWAP1 PUSH2 0x2EC6 JUMP JUMPDEST PUSH1 0x0 DUP3 SSTORE DUP1 PUSH1 0x1F LT PUSH2 0x2583 JUMPI POP PUSH2 0x25A2 JUMP JUMPDEST PUSH1 0x1F ADD PUSH1 0x20 SWAP1 DIV SWAP1 PUSH1 0x0 MSTORE PUSH1 0x20 PUSH1 0x0 KECCAK256 SWAP1 DUP2 ADD SWAP1 PUSH2 0x25A1 SWAP2 SWAP1 PUSH2 0x25A5 JUMP JUMPDEST JUMPDEST POP JUMP JUMPDEST JUMPDEST DUP1 DUP3 GT ISZERO PUSH2 0x25BE JUMPI PUSH1 0x0 DUP2 PUSH1 0x0 SWAP1 SSTORE POP PUSH1 0x1 ADD PUSH2 0x25A6 JUMP JUMPDEST POP SWAP1 JUMP JUMPDEST PUSH1 0x0 PUSH1 0x40 MLOAD SWAP1 POP SWAP1 JUMP JUMPDEST PUSH1 0x0 DUP1 REVERT JUMPDEST PUSH1 0x0 DUP1 REVERT JUMPDEST PUSH1 0x0 PUSH20 0xFFFFFFFFFFFFFFFFFFFFFFFFFFFFFFFFFFFFFFFF DUP3 AND SWAP1 POP SWAP2 SWAP1 POP JUMP JUMPDEST PUSH1 0x0 PUSH2 0x2601 DUP3 PUSH2 0x25D6 JUMP JUMPDEST SWAP1 POP SWAP2 SWAP1 POP JUMP JUMPDEST PUSH2 0x2611 DUP2 PUSH2 0x25F6 JUMP JUMPDEST DUP2 EQ PUSH2 0x261C JUMPI PUSH1 0x0 DUP1 REVERT JUMPDEST POP JUMP JUMPDEST PUSH1 0x0 DUP2 CALLDATALOAD SWAP1 POP PUSH2 0x262E DUP2 PUSH2 0x2608 JUMP JUMPDEST SWAP3 SWAP2 POP POP JUMP JUMPDEST PUSH1 0x0 DUP1 REVERT JUMPDEST PUSH1 0x0 DUP1 REVERT JUMPDEST PUSH1 0x0 DUP1 REVERT JUMPDEST PUSH1 0x0 DUP1 DUP4 PUSH1 0x1F DUP5 ADD SLT PUSH2 0x2659 JUMPI PUSH2 0x2658 PUSH2 0x2634 JUMP JUMPDEST JUMPDEST DUP3 CALLDATALOAD SWAP1 POP PUSH8 0xFFFFFFFFFFFFFFFF DUP2 GT ISZERO PUSH2 0x2676 JUMPI PUSH2 0x2675 PUSH2 0x2639 JUMP JUMPDEST JUMPDEST PUSH1 0x20 DUP4 ADD SWAP2 POP DUP4 PUSH1 0x1 DUP3 MUL DUP4 ADD GT ISZERO PUSH2 0x2692 JUMPI PUSH2 0x2691 PUSH2 0x263E JUMP JUMPDEST JUMPDEST SWAP3 POP SWAP3 SWAP1 POP JUMP JUMPDEST PUSH1 0x0 DUP1 REVERT JUMPDEST PUSH1 0x0 PUSH1 0x1F NOT PUSH1 0x1F DUP4 ADD AND SWAP1 POP SWAP2 SWAP1 POP JUMP JUMPDEST PUSH32 0x4E487B7100000000000000000000000000000000000000000000000000000000 PUSH1 0x0 MSTORE PUSH1 0x41 PUSH1 0x4 MSTORE PUSH1 0x24 PUSH1 0x0 REVERT JUMPDEST PUSH2 0x26E7 DUP3 PUSH2 0x269E JUMP JUMPDEST DUP2 ADD DUP2 DUP2 LT PUSH8 0xFFFFFFFFFFFFFFFF DUP3 GT OR ISZERO PUSH2 0x2706 JUMPI PUSH2 0x2705 PUSH2 0x26AF JUMP JUMPDEST JUMPDEST DUP1 PUSH1 0x40 MSTORE POP POP POP JUMP JUMPDEST PUSH1 0x0 PUSH2 0x2719 PUSH2 0x25C2 JUMP JUMPDEST SWAP1 POP PUSH2 0x2725 DUP3 DUP3 PUSH2 0x26DE JUMP JUMPDEST SWAP2 SWAP1 POP JUMP JUMPDEST PUSH1 0x0 PUSH8 0xFFFFFFFFFFFFFFFF DUP3 GT ISZERO PUSH2 0x2745 JUMPI PUSH2 0x2744 PUSH2 0x26AF JUMP JUMPDEST JUMPDEST PUSH2 0x274E DUP3 PUSH2 0x269E JUMP JUMPDEST SWAP1 POP PUSH1 0x20 DUP2 ADD SWAP1 POP SWAP2 SWAP1 POP JUMP JUMPDEST DUP3 DUP2 DUP4 CALLDATACOPY PUSH1 0x0 DUP4 DUP4 ADD MSTORE POP POP POP JUMP JUMPDEST PUSH1 0x0 PUSH2 0x277D PUSH2 0x2778 DUP5 PUSH2 0x272A JUMP JUMPDEST PUSH2 0x270F JUMP JUMPDEST SWAP1 POP DUP3 DUP2 MSTORE PUSH1 0x20 DUP2 ADD DUP5 DUP5 DUP5 ADD GT ISZERO PUSH2 0x2799 JUMPI PUSH2 0x2798 PUSH2 0x2699 JUMP JUMPDEST JUMPDEST PUSH2 0x27A4 DUP5 DUP3 DUP6 PUSH2 0x275B JUMP JUMPDEST POP SWAP4 SWAP3 POP POP POP JUMP JUMPDEST PUSH1 0x0 DUP3 PUSH1 0x1F DUP4 ADD SLT PUSH2 0x27C1 JUMPI PUSH2 0x27C0 PUSH2 0x2634 JUMP JUMPDEST JUMPDEST DUP2 CALLDATALOAD PUSH2 0x27D1 DUP5 DUP3 PUSH1 0x20 DUP7 ADD PUSH2 0x276A JUMP JUMPDEST SWAP2 POP POP SWAP3 SWAP2 POP POP JUMP JUMPDEST PUSH1 0x0 DUP2 SWAP1 POP SWAP2 SWAP1 POP JUMP JUMPDEST PUSH2 0x27ED DUP2 PUSH2 0x27DA JUMP JUMPDEST DUP2 EQ PUSH2 0x27F8 JUMPI PUSH1 0x0 DUP1 REVERT JUMPDEST POP JUMP JUMPDEST PUSH1 0x0 DUP2 CALLDATALOAD SWAP1 POP PUSH2 0x280A DUP2 PUSH2 0x27E4 JUMP JUMPDEST SWAP3 SWAP2 POP POP JUMP JUMPDEST PUSH1 0x0 DUP1 PUSH1 0x0 DUP1 PUSH1 0x0 DUP1 PUSH1 0x0 DUP1 PUSH1 0xC0 DUP10 DUP12 SUB SLT ISZERO PUSH2 0x2830 JUMPI PUSH2 0x282F PUSH2 0x25CC JUMP JUMPDEST JUMPDEST PUSH1 0x0 PUSH2 0x283E DUP12 DUP3 DUP13 ADD PUSH2 0x261F JUMP JUMPDEST SWAP9 POP POP PUSH1 0x20 DUP10 ADD CALLDATALOAD PUSH8 0xFFFFFFFFFFFFFFFF DUP2 GT ISZERO PUSH2 0x285F JUMPI PUSH2 0x285E PUSH2 0x25D1 JUMP JUMPDEST JUMPDEST PUSH2 0x286B DUP12 DUP3 DUP13 ADD PUSH2 0x2643 JUMP JUMPDEST SWAP8 POP SWAP8 POP POP PUSH1 0x40 DUP10 ADD CALLDATALOAD PUSH8 0xFFFFFFFFFFFFFFFF DUP2 GT ISZERO PUSH2 0x288E JUMPI PUSH2 0x288D PUSH2 0x25D1 JUMP JUMPDEST JUMPDEST PUSH2 0x289A DUP12 DUP3 DUP13 ADD PUSH2 0x2643 JUMP JUMPDEST SWAP6 POP SWAP6 POP POP PUSH1 0x60 PUSH2 0x28AD DUP12 DUP3 DUP13 ADD PUSH2 0x261F JUMP JUMPDEST SWAP4 POP POP PUSH1 0x80 DUP10 ADD CALLDATALOAD PUSH8 0xFFFFFFFFFFFFFFFF DUP2 GT ISZERO PUSH2 0x28CE JUMPI PUSH2 0x28CD PUSH2 0x25D1 JUMP JUMPDEST JUMPDEST PUSH2 0x28DA DUP12 DUP3 DUP13 ADD PUSH2 0x27AC JUMP JUMPDEST SWAP3 POP POP PUSH1 0xA0 PUSH2 0x28EB DUP12 DUP3 DUP13 ADD PUSH2 0x27FB JUMP JUMPDEST SWAP2 POP POP SWAP3 SWAP6 SWAP9 POP SWAP3 SWAP6 SWAP9 SWAP1 SWAP4 SWAP7 POP JUMP JUMPDEST PUSH1 0x0 DUP2 ISZERO ISZERO SWAP1 POP SWAP2 SWAP1 POP JUMP JUMPDEST PUSH2 0x2910 DUP2 PUSH2 0x28FB JUMP JUMPDEST DUP3 MSTORE POP POP JUMP JUMPDEST PUSH1 0x0 PUSH1 0x20 DUP3 ADD SWAP1 POP PUSH2 0x292B PUSH1 0x0 DUP4 ADD DUP5 PUSH2 0x2907 JUMP JUMPDEST SWAP3 SWAP2 POP POP JUMP JUMPDEST PUSH1 0x0 PUSH32 0xFFFFFFFF00000000000000000000000000000000000000000000000000000000 DUP3 AND SWAP1 POP SWAP2 SWAP1 POP JUMP JUMPDEST PUSH2 0x2966 DUP2 PUSH2 0x2931 JUMP JUMPDEST DUP2 EQ PUSH2 0x2971 JUMPI PUSH1 0x0 DUP1 REVERT JUMPDEST POP JUMP JUMPDEST PUSH1 0x0 DUP2 CALLDATALOAD SWAP1 POP PUSH2 0x2983 DUP2 PUSH2 0x295D JUMP JUMPDEST SWAP3 SWAP2 POP POP JUMP JUMPDEST PUSH1 0x0 PUSH1 0x20 DUP3 DUP5 SUB SLT ISZERO PUSH2 0x299F JUMPI PUSH2 0x299E PUSH2 0x25CC JUMP JUMPDEST JUMPDEST PUSH1 0x0 PUSH2 0x29AD DUP5 DUP3 DUP6 ADD PUSH2 0x2974 JUMP JUMPDEST SWAP2 POP POP SWAP3 SWAP2 POP POP JUMP JUMPDEST PUSH1 0x0 DUP2 MLOAD SWAP1 POP SWAP2 SWAP1 POP JUMP JUMPDEST PUSH1 0x0 DUP3 DUP3 MSTORE PUSH1 0x20 DUP3 ADD SWAP1 POP SWAP3 SWAP2 POP POP JUMP JUMPDEST PUSH1 0x0 JUMPDEST DUP4 DUP2 LT ISZERO PUSH2 0x29F0 JUMPI DUP1 DUP3 ADD MLOAD DUP2 DUP5 ADD MSTORE PUSH1 0x20 DUP2 ADD SWAP1 POP PUSH2 0x29D5 JUMP JUMPDEST PUSH1 0x0 DUP5 DUP5 ADD MSTORE POP POP POP POP JUMP JUMPDEST PUSH1 0x0 PUSH2 0x2A07 DUP3 PUSH2 0x29B6 JUMP JUMPDEST PUSH2 0x2A11 DUP2 DUP6 PUSH2 0x29C1 JUMP JUMPDEST SWAP4 POP PUSH2 0x2A21 DUP2 DUP6 PUSH1 0x20 DUP7 ADD PUSH2 0x29D2 JUMP JUMPDEST PUSH2 0x2A2A DUP2 PUSH2 0x269E JUMP JUMPDEST DUP5 ADD SWAP2 POP POP SWAP3 SWAP2 POP POP JUMP JUMPDEST PUSH1 0x0 PUSH1 0x20 DUP3 ADD SWAP1 POP DUP2 DUP2 SUB PUSH1 0x0 DUP4 ADD MSTORE PUSH2 0x2A4F DUP2 DUP5 PUSH2 0x29FC JUMP JUMPDEST SWAP1 POP SWAP3 SWAP2 POP POP JUMP JUMPDEST PUSH1 0x0 PUSH1 0x20 DUP3 DUP5 SUB SLT ISZERO PUSH2 0x2A6D JUMPI PUSH2 0x2A6C PUSH2 0x25CC JUMP JUMPDEST JUMPDEST PUSH1 0x0 PUSH2 0x2A7B DUP5 DUP3 DUP6 ADD PUSH2 0x27FB JUMP JUMPDEST SWAP2 POP POP SWAP3 SWAP2 POP POP JUMP JUMPDEST PUSH2 0x2A8D DUP2 PUSH2 0x25F6 JUMP JUMPDEST DUP3 MSTORE POP POP JUMP JUMPDEST PUSH1 0x0 PUSH1 0x20 DUP3 ADD SWAP1 POP PUSH2 0x2AA8 PUSH1 0x0 DUP4 ADD DUP5 PUSH2 0x2A84 JUMP JUMPDEST SWAP3 SWAP2 POP POP JUMP JUMPDEST PUSH1 0x0 DUP1 PUSH1 0x40 DUP4 DUP6 SUB SLT ISZERO PUSH2 0x2AC5 JUMPI PUSH2 0x2AC4 PUSH2 0x25CC JUMP JUMPDEST JUMPDEST PUSH1 0x0 PUSH2 0x2AD3 DUP6 DUP3 DUP7 ADD PUSH2 0x261F JUMP JUMPDEST SWAP3 POP POP PUSH1 0x20 PUSH2 0x2AE4 DUP6 DUP3 DUP7 ADD PUSH2 0x27FB JUMP JUMPDEST SWAP2 POP POP SWAP3 POP SWAP3 SWAP1 POP JUMP JUMPDEST PUSH2 0x2AF7 DUP2 PUSH2 0x27DA JUMP JUMPDEST DUP3 MSTORE POP POP JUMP JUMPDEST PUSH1 0x0 PUSH1 0x20 DUP3 ADD SWAP1 POP PUSH2 0x2B12 PUSH1 0x0 DUP4 ADD DUP5 PUSH2 0x2AEE JUMP JUMPDEST SWAP3 SWAP2 POP POP JUMP JUMPDEST PUSH1 0x0 DUP1 PUSH1 0x0 PUSH1 0x60 DUP5 DUP7 SUB SLT ISZERO PUSH2 0x2B31 JUMPI PUSH2 0x2B30 PUSH2 0x25CC JUMP JUMPDEST JUMPDEST PUSH1 0x0 PUSH2 0x2B3F DUP7 DUP3 DUP8 ADD PUSH2 0x261F JUMP JUMPDEST SWAP4 POP POP PUSH1 0x20 PUSH2 0x2B50 DUP7 DUP3 DUP8 ADD PUSH2 0x261F JUMP JUMPDEST SWAP3 POP POP PUSH1 0x40 PUSH2 0x2B61 DUP7 DUP3 DUP8 ADD PUSH2 0x27FB JUMP JUMPDEST SWAP2 POP POP SWAP3 POP SWAP3 POP SWAP3 JUMP JUMPDEST PUSH1 0x0 PUSH1 0x20 DUP3 DUP5 SUB SLT ISZERO PUSH2 0x2B81 JUMPI PUSH2 0x2B80 PUSH2 0x25CC JUMP JUMPDEST JUMPDEST PUSH1 0x0 PUSH2 0x2B8F DUP5 DUP3 DUP6 ADD PUSH2 0x261F JUMP JUMPDEST SWAP2 POP POP SWAP3 SWAP2 POP POP JUMP JUMPDEST PUSH2 0x2BA1 DUP2 PUSH2 0x28FB JUMP JUMPDEST DUP2 EQ PUSH2 0x2BAC JUMPI PUSH1 0x0 DUP1 REVERT JUMPDEST POP JUMP JUMPDEST PUSH1 0x0 DUP2 CALLDATALOAD SWAP1 POP PUSH2 0x2BBE DUP2 PUSH2 0x2B98 JUMP JUMPDEST SWAP3 SWAP2 POP POP JUMP JUMPDEST PUSH1 0x0 DUP1 PUSH1 0x40 DUP4 DUP6 SUB SLT ISZERO PUSH2 0x2BDB JUMPI PUSH2 0x2BDA PUSH2 0x25CC JUMP JUMPDEST JUMPDEST PUSH1 0x0 PUSH2 0x2BE9 DUP6 DUP3 DUP7 ADD PUSH2 0x261F JUMP JUMPDEST SWAP3 POP POP PUSH1 0x20 PUSH2 0x2BFA DUP6 DUP3 DUP7 ADD PUSH2 0x2BAF JUMP JUMPDEST SWAP2 POP POP SWAP3 POP SWAP3 SWAP1 POP JUMP JUMPDEST PUSH1 0x0 PUSH8 0xFFFFFFFFFFFFFFFF DUP3 GT ISZERO PUSH2 0x2C1F JUMPI PUSH2 0x2C1E PUSH2 0x26AF JUMP JUMPDEST JUMPDEST PUSH2 0x2C28 DUP3 PUSH2 0x269E JUMP JUMPDEST SWAP1 POP PUSH1 0x20 DUP2 ADD SWAP1 POP SWAP2 SWAP1 POP JUMP JUMPDEST PUSH1 0x0 PUSH2 0x2C48 PUSH2 0x2C43 DUP5 PUSH2 0x2C04 JUMP JUMPDEST PUSH2 0x270F JUMP JUMPDEST SWAP1 POP DUP3 DUP2 MSTORE PUSH1 0x20 DUP2 ADD DUP5 DUP5 DUP5 ADD GT ISZERO PUSH2 0x2C64 JUMPI PUSH2 0x2C63 PUSH2 0x2699 JUMP JUMPDEST JUMPDEST PUSH2 0x2C6F DUP5 DUP3 DUP6 PUSH2 0x275B JUMP JUMPDEST POP SWAP4 SWAP3 POP POP POP JUMP JUMPDEST PUSH1 0x0 DUP3 PUSH1 0x1F DUP4 ADD SLT PUSH2 0x2C8C JUMPI PUSH2 0x2C8B PUSH2 0x2634 JUMP JUMPDEST JUMPDEST DUP2 CALLDATALOAD PUSH2 0x2C9C DUP5 DUP3 PUSH1 0x20 DUP7 ADD PUSH2 0x2C35 JUMP JUMPDEST SWAP2 POP POP SWAP3 SWAP2 POP POP JUMP JUMPDEST PUSH1 0x0 DUP1 PUSH1 0x0 DUP1 PUSH1 0x80 DUP6 DUP8 SUB SLT ISZERO PUSH2 0x2CBF JUMPI PUSH2 0x2CBE PUSH2 0x25CC JUMP JUMPDEST JUMPDEST PUSH1 0x0 PUSH2 0x2CCD DUP8 DUP3 DUP9 ADD PUSH2 0x261F JUMP JUMPDEST SWAP5 POP POP PUSH1 0x20 PUSH2 0x2CDE DUP8 DUP3 DUP9 ADD PUSH2 0x261F JUMP JUMPDEST SWAP4 POP POP PUSH1 0x40 PUSH2 0x2CEF DUP8 DUP3 DUP9 ADD PUSH2 0x27FB JUMP JUMPDEST SWAP3 POP POP PUSH1 0x60 DUP6 ADD CALLDATALOAD PUSH8 0xFFFFFFFFFFFFFFFF DUP2 GT ISZERO PUSH2 0x2D10 JUMPI PUSH2 0x2D0F PUSH2 0x25D1 JUMP JUMPDEST JUMPDEST PUSH2 0x2D1C DUP8 DUP3 DUP9 ADD PUSH2 0x2C77 JUMP JUMPDEST SWAP2 POP POP SWAP3 SWAP6 SWAP2 SWAP5 POP SWAP3 POP JUMP JUMPDEST PUSH1 0x0 DUP1 PUSH1 0x40 DUP4 DUP6 SUB SLT ISZERO PUSH2 0x2D3F JUMPI PUSH2 0x2D3E PUSH2 0x25CC JUMP JUMPDEST JUMPDEST PUSH1 0x0 PUSH2 0x2D4D DUP6 DUP3 DUP7 ADD PUSH2 0x261F JUMP JUMPDEST SWAP3 POP POP PUSH1 0x20 PUSH2 0x2D5E DUP6 DUP3 DUP7 ADD PUSH2 0x261F JUMP JUMPDEST SWAP2 POP POP SWAP3 POP SWAP3 SWAP1 POP JUMP JUMPDEST PUSH32 0x496E76616C6964204E4654206F776E65723A207A65726F206164647265737320 PUSH1 0x0 DUP3 ADD MSTORE PUSH32 0x6E6F742076616C69642100000000000000000000000000000000000000000000 PUSH1 0x20 DUP3 ADD MSTORE POP JUMP JUMPDEST PUSH1 0x0 PUSH2 0x2DC4 PUSH1 0x2A DUP4 PUSH2 0x29C1 JUMP JUMPDEST SWAP2 POP PUSH2 0x2DCF DUP3 PUSH2 0x2D68 JUMP JUMPDEST PUSH1 0x40 DUP3 ADD SWAP1 POP SWAP2 SWAP1 POP JUMP JUMPDEST PUSH1 0x0 PUSH1 0x20 DUP3 ADD SWAP1 POP DUP2 DUP2 SUB PUSH1 0x0 DUP4 ADD MSTORE PUSH2 0x2DF3 DUP2 PUSH2 0x2DB7 JUMP JUMPDEST SWAP1 POP SWAP2 SWAP1 POP JUMP JUMPDEST PUSH32 0x45524337323120546F6B656E20696E7374616E636520616C726561647920696E PUSH1 0x0 DUP3 ADD MSTORE PUSH32 0x697469616C697A65640000000000000000000000000000000000000000000000 PUSH1 0x20 DUP3 ADD MSTORE POP JUMP JUMPDEST PUSH1 0x0 PUSH2 0x2E56 PUSH1 0x29 DUP4 PUSH2 0x29C1 JUMP JUMPDEST SWAP2 POP PUSH2 0x2E61 DUP3 PUSH2 0x2DFA JUMP JUMPDEST PUSH1 0x40 DUP3 ADD SWAP1 POP SWAP2 SWAP1 POP JUMP JUMPDEST PUSH1 0x0 PUSH1 0x20 DUP3 ADD SWAP1 POP DUP2 DUP2 SUB PUSH1 0x0 DUP4 ADD MSTORE PUSH2 0x2E85 DUP2 PUSH2 0x2E49 JUMP JUMPDEST SWAP1 POP SWAP2 SWAP1 POP JUMP JUMPDEST PUSH1 0x0 DUP3 SWAP1 POP SWAP3 SWAP2 POP POP JUMP JUMPDEST PUSH32 0x4E487B7100000000000000000000000000000000000000000000000000000000 PUSH1 0x0 MSTORE PUSH1 0x22 PUSH1 0x4 MSTORE PUSH1 0x24 PUSH1 0x0 REVERT JUMPDEST PUSH1 0x0 PUSH1 0x2 DUP3 DIV SWAP1 POP PUSH1 0x1 DUP3 AND DUP1 PUSH2 0x2EDE JUMPI PUSH1 0x7F DUP3 AND SWAP2 POP JUMPDEST PUSH1 0x20 DUP3 LT DUP2 SUB PUSH2 0x2EF1 JUMPI PUSH2 0x2EF0 PUSH2 0x2E97 JUMP JUMPDEST JUMPDEST POP SWAP2 SWAP1 POP JUMP JUMPDEST PUSH1 0x0 DUP2 SWAP1 POP DUP2 PUSH1 0x0 MSTORE PUSH1 0x20 PUSH1 0x0 KECCAK256 SWAP1 POP SWAP2 SWAP1 POP JUMP JUMPDEST PUSH1 0x0 PUSH1 0x20 PUSH1 0x1F DUP4 ADD DIV SWAP1 POP SWAP2 SWAP1 POP JUMP JUMPDEST PUSH1 0x0 DUP3 DUP3 SHL SWAP1 POP SWAP3 SWAP2 POP POP JUMP JUMPDEST PUSH1 0x0 PUSH1 0x8 DUP4 MUL PUSH2 0x2F59 PUSH32 0xFFFFFFFFFFFFFFFFFFFFFFFFFFFFFFFFFFFFFFFFFFFFFFFFFFFFFFFFFFFFFFFF DUP3 PUSH2 0x2F1C JUMP JUMPDEST PUSH2 0x2F63 DUP7 DUP4 PUSH2 0x2F1C JUMP JUMPDEST SWAP6 POP DUP1 NOT DUP5 AND SWAP4 POP DUP1 DUP7 AND DUP5 OR SWAP3 POP POP POP SWAP4 SWAP3 POP POP POP JUMP JUMPDEST PUSH1 0x0 DUP2 SWAP1 POP SWAP2 SWAP1 POP JUMP JUMPDEST PUSH1 0x0 PUSH2 0x2FA0 PUSH2 0x2F9B PUSH2 0x2F96 DUP5 PUSH2 0x27DA JUMP JUMPDEST PUSH2 0x2F7B JUMP JUMPDEST PUSH2 0x27DA JUMP JUMPDEST SWAP1 POP SWAP2 SWAP1 POP JUMP JUMPDEST PUSH1 0x0 DUP2 SWAP1 POP SWAP2 SWAP1 POP JUMP JUMPDEST PUSH2 0x2FBA DUP4 PUSH2 0x2F85 JUMP JUMPDEST PUSH2 0x2FCE PUSH2 0x2FC6 DUP3 PUSH2 0x2FA7 JUMP JUMPDEST DUP5 DUP5 SLOAD PUSH2 0x2F29 JUMP JUMPDEST DUP3 SSTORE POP POP POP POP JUMP JUMPDEST PUSH1 0x0 SWAP1 JUMP JUMPDEST PUSH2 0x2FE3 PUSH2 0x2FD6 JUMP JUMPDEST PUSH2 0x2FEE DUP2 DUP5 DUP5 PUSH2 0x2FB1 JUMP JUMPDEST POP POP POP JUMP JUMPDEST JUMPDEST DUP2 DUP2 LT ISZERO PUSH2 0x3012 JUMPI PUSH2 0x3007 PUSH1 0x0 DUP3 PUSH2 0x2FDB JUMP JUMPDEST PUSH1 0x1 DUP2 ADD SWAP1 POP PUSH2 0x2FF4 JUMP JUMPDEST POP POP JUMP JUMPDEST PUSH1 0x1F DUP3 GT ISZERO PUSH2 0x3057 JUMPI PUSH2 0x3028 DUP2 PUSH2 0x2EF7 JUMP JUMPDEST PUSH2 0x3031 DUP5 PUSH2 0x2F0C JUMP JUMPDEST DUP2 ADD PUSH1 0x20 DUP6 LT ISZERO PUSH2 0x3040 JUMPI DUP2 SWAP1 POP JUMPDEST PUSH2 0x3054 PUSH2 0x304C DUP6 PUSH2 0x2F0C JUMP JUMPDEST DUP4 ADD DUP3 PUSH2 0x2FF3 JUMP JUMPDEST POP POP JUMPDEST POP POP POP JUMP JUMPDEST PUSH1 0x0 DUP3 DUP3 SHR SWAP1 POP SWAP3 SWAP2 POP POP JUMP JUMPDEST PUSH1 0x0 PUSH2 0x307A PUSH1 0x0 NOT DUP5 PUSH1 0x8 MUL PUSH2 0x305C JUMP JUMPDEST NOT DUP1 DUP4 AND SWAP2 POP POP SWAP3 SWAP2 POP POP JUMP JUMPDEST PUSH1 0x0 PUSH2 0x3093 DUP4 DUP4 PUSH2 0x3069 JUMP JUMPDEST SWAP2 POP DUP3 PUSH1 0x2 MUL DUP3 OR SWAP1 POP SWAP3 SWAP2 POP POP JUMP JUMPDEST PUSH2 0x30AD DUP4 DUP4 PUSH2 0x2E8C JUMP JUMPDEST PUSH8 0xFFFFFFFFFFFFFFFF DUP2 GT ISZERO PUSH2 0x30C6 JUMPI PUSH2 0x30C5 PUSH2 0x26AF JUMP JUMPDEST JUMPDEST PUSH2 0x30D0 DUP3 SLOAD PUSH2 0x2EC6 JUMP JUMPDEST PUSH2 0x30DB DUP3 DUP3 DUP6 PUSH2 0x3016 JUMP JUMPDEST PUSH1 0x0 PUSH1 0x1F DUP4 GT PUSH1 0x1 DUP2 EQ PUSH2 0x310A JUMPI PUSH1 0x0 DUP5 ISZERO PUSH2 0x30F8 JUMPI DUP3 DUP8 ADD CALLDATALOAD SWAP1 POP JUMPDEST PUSH2 0x3102 DUP6 DUP3 PUSH2 0x3087 JUMP JUMPDEST DUP7 SSTORE POP PUSH2 0x316A JUMP JUMPDEST PUSH1 0x1F NOT DUP5 AND PUSH2 0x3118 DUP7 PUSH2 0x2EF7 JUMP JUMPDEST PUSH1 0x0 JUMPDEST DUP3 DUP2 LT ISZERO PUSH2 0x3140 JUMPI DUP5 DUP10 ADD CALLDATALOAD DUP3 SSTORE PUSH1 0x1 DUP3 ADD SWAP2 POP PUSH1 0x20 DUP6 ADD SWAP5 POP PUSH1 0x20 DUP2 ADD SWAP1 POP PUSH2 0x311B JUMP JUMPDEST DUP7 DUP4 LT ISZERO PUSH2 0x315D JUMPI DUP5 DUP10 ADD CALLDATALOAD PUSH2 0x3159 PUSH1 0x1F DUP10 AND DUP3 PUSH2 0x3069 JUMP JUMPDEST DUP4 SSTORE POP JUMPDEST PUSH1 0x1 PUSH1 0x2 DUP9 MUL ADD DUP9 SSTORE POP POP POP JUMPDEST POP POP POP POP POP POP POP JUMP JUMPDEST PUSH1 0x0 DUP2 SLOAD PUSH2 0x3180 DUP2 PUSH2 0x2EC6 JUMP JUMPDEST PUSH2 0x318A DUP2 DUP7 PUSH2 0x29C1 JUMP JUMPDEST SWAP5 POP PUSH1 0x1 DUP3 AND PUSH1 0x0 DUP2 EQ PUSH2 0x31A5 JUMPI PUSH1 0x1 DUP2 EQ PUSH2 0x31BB JUMPI PUSH2 0x31EE JUMP JUMPDEST PUSH1 0xFF NOT DUP4 AND DUP7 MSTORE DUP2 ISZERO ISZERO PUSH1 0x20 MUL DUP7 ADD SWAP4 POP PUSH2 0x31EE JUMP JUMPDEST PUSH2 0x31C4 DUP6 PUSH2 0x2EF7 JUMP JUMPDEST PUSH1 0x0 JUMPDEST DUP4 DUP2 LT ISZERO PUSH2 0x31E6 JUMPI DUP2 SLOAD DUP2 DUP10 ADD MSTORE PUSH1 0x1 DUP3 ADD SWAP2 POP PUSH1 0x20 DUP2 ADD SWAP1 POP PUSH2 0x31C7 JUMP JUMPDEST DUP1 DUP9 ADD SWAP6 POP POP POP JUMPDEST POP POP POP SWAP3 SWAP2 POP POP JUMP JUMPDEST PUSH1 0x0 PUSH1 0x60 DUP3 ADD SWAP1 POP DUP2 DUP2 SUB PUSH1 0x0 DUP4 ADD MSTORE PUSH2 0x3211 DUP2 DUP7 PUSH2 0x3173 JUMP JUMPDEST SWAP1 POP DUP2 DUP2 SUB PUSH1 0x20 DUP4 ADD MSTORE PUSH2 0x3225 DUP2 DUP6 PUSH2 0x3173 JUMP JUMPDEST SWAP1 POP PUSH2 0x3234 PUSH1 0x40 DUP4 ADD DUP5 PUSH2 0x2A84 JUMP JUMPDEST SWAP5 SWAP4 POP POP POP POP JUMP JUMPDEST PUSH32 0x4552433732313A20617070726F76616C20746F2063757272656E74206F776E65 PUSH1 0x0 DUP3 ADD MSTORE PUSH32 0x7200000000000000000000000000000000000000000000000000000000000000 PUSH1 0x20 DUP3 ADD MSTORE POP JUMP JUMPDEST PUSH1 0x0 PUSH2 0x3298 PUSH1 0x21 DUP4 PUSH2 0x29C1 JUMP JUMPDEST SWAP2 POP PUSH2 0x32A3 DUP3 PUSH2 0x323C JUMP JUMPDEST PUSH1 0x40 DUP3 ADD SWAP1 POP SWAP2 SWAP1 POP JUMP JUMPDEST PUSH1 0x0 PUSH1 0x20 DUP3 ADD SWAP1 POP DUP2 DUP2 SUB PUSH1 0x0 DUP4 ADD MSTORE PUSH2 0x32C7 DUP2 PUSH2 0x328B JUMP JUMPDEST SWAP1 POP SWAP2 SWAP1 POP JUMP JUMPDEST PUSH32 0x4552433732313A20617070726F76652063616C6C6572206973206E6F7420746F PUSH1 0x0 DUP3 ADD MSTORE PUSH32 0x6B656E206F776E6572206F7220617070726F76656420666F7220616C6C000000 PUSH1 0x20 DUP3 ADD MSTORE POP JUMP JUMPDEST PUSH1 0x0 PUSH2 0x332A PUSH1 0x3D DUP4 PUSH2 0x29C1 JUMP JUMPDEST SWAP2 POP PUSH2 0x3335 DUP3 PUSH2 0x32CE JUMP JUMPDEST PUSH1 0x40 DUP3 ADD SWAP1 POP SWAP2 SWAP1 POP JUMP JUMPDEST PUSH1 0x0 PUSH1 0x20 DUP3 ADD SWAP1 POP DUP2 DUP2 SUB PUSH1 0x0 DUP4 ADD MSTORE PUSH2 0x3359 DUP2 PUSH2 0x331D JUMP JUMPDEST SWAP1 POP SWAP2 SWAP1 POP JUMP JUMPDEST PUSH32 0x4552433732313A2063616C6C6572206973206E6F7420746F6B656E206F776E65 PUSH1 0x0 DUP3 ADD MSTORE PUSH32 0x72206F7220617070726F76656400000000000000000000000000000000000000 PUSH1 0x20 DUP3 ADD MSTORE POP JUMP JUMPDEST PUSH1 0x0 PUSH2 0x33BC PUSH1 0x2D DUP4 PUSH2 0x29C1 JUMP JUMPDEST SWAP2 POP PUSH2 0x33C7 DUP3 PUSH2 0x3360 JUMP JUMPDEST PUSH1 0x40 DUP3 ADD SWAP1 POP SWAP2 SWAP1 POP JUMP JUMPDEST PUSH1 0x0 PUSH1 0x20 DUP3 ADD SWAP1 POP DUP2 DUP2 SUB PUSH1 0x0 DUP4 ADD MSTORE PUSH2 0x33EB DUP2 PUSH2 0x33AF JUMP JUMPDEST SWAP1 POP SWAP2 SWAP1 POP JUMP JUMPDEST PUSH32 0x496E76616C696420416464726573732830290000000000000000000000000000 PUSH1 0x0 DUP3 ADD MSTORE POP JUMP JUMPDEST PUSH1 0x0 PUSH2 0x3428 PUSH1 0x12 DUP4 PUSH2 0x29C1 JUMP JUMPDEST SWAP2 POP PUSH2 0x3433 DUP3 PUSH2 0x33F2 JUMP JUMPDEST PUSH1 0x20 DUP3 ADD SWAP1 POP SWAP2 SWAP1 POP JUMP JUMPDEST PUSH1 0x0 PUSH1 0x20 DUP3 ADD SWAP1 POP DUP2 DUP2 SUB PUSH1 0x0 DUP4 ADD MSTORE PUSH2 0x3457 DUP2 PUSH2 0x341B JUMP JUMPDEST SWAP1 POP SWAP2 SWAP1 POP JUMP JUMPDEST PUSH32 0x43616E6E6F742073656C6C204E465420746F206D7973656C6600000000000000 PUSH1 0x0 DUP3 ADD MSTORE POP JUMP JUMPDEST PUSH1 0x0 PUSH2 0x3494 PUSH1 0x19 DUP4 PUSH2 0x29C1 JUMP JUMPDEST SWAP2 POP PUSH2 0x349F DUP3 PUSH2 0x345E JUMP JUMPDEST PUSH1 0x20 DUP3 ADD SWAP1 POP SWAP2 SWAP1 POP JUMP JUMPDEST PUSH1 0x0 PUSH1 0x20 DUP3 ADD SWAP1 POP DUP2 DUP2 SUB PUSH1 0x0 DUP4 ADD MSTORE PUSH2 0x34C3 DUP2 PUSH2 0x3487 JUMP JUMPDEST SWAP1 POP SWAP2 SWAP1 POP JUMP JUMPDEST PUSH32 0x43616E6E6F74207472616E73666572207468697320746F6B656E496400000000 PUSH1 0x0 DUP3 ADD MSTORE POP JUMP JUMPDEST PUSH1 0x0 PUSH2 0x3500 PUSH1 0x1C DUP4 PUSH2 0x29C1 JUMP JUMPDEST SWAP2 POP PUSH2 0x350B DUP3 PUSH2 0x34CA JUMP JUMPDEST PUSH1 0x20 DUP3 ADD SWAP1 POP SWAP2 SWAP1 POP JUMP JUMPDEST PUSH1 0x0 PUSH1 0x20 DUP3 ADD SWAP1 POP DUP2 DUP2 SUB PUSH1 0x0 DUP4 ADD MSTORE PUSH2 0x352F DUP2 PUSH2 0x34F3 JUMP JUMPDEST SWAP1 POP SWAP2 SWAP1 POP JUMP JUMPDEST PUSH32 0x4E6F7420656E6F7567682066756E647320746F20627579207468697320617765 PUSH1 0x0 DUP3 ADD MSTORE PUSH32 0x736F6D65204E4654000000000000000000000000000000000000000000000000 PUSH1 0x20 DUP3 ADD MSTORE POP JUMP JUMPDEST PUSH1 0x0 PUSH2 0x3592 PUSH1 0x28 DUP4 PUSH2 0x29C1 JUMP JUMPDEST SWAP2 POP PUSH2 0x359D DUP3 PUSH2 0x3536 JUMP JUMPDEST PUSH1 0x40 DUP3 ADD SWAP1 POP SWAP2 SWAP1 POP JUMP JUMPDEST PUSH1 0x0 PUSH1 0x20 DUP3 ADD SWAP1 POP DUP2 DUP2 SUB PUSH1 0x0 DUP4 ADD MSTORE PUSH2 0x35C1 DUP2 PUSH2 0x3585 JUMP JUMPDEST SWAP1 POP SWAP2 SWAP1 POP JUMP JUMPDEST PUSH32 0x4552433732313A20696E76616C696420746F6B656E2049440000000000000000 PUSH1 0x0 DUP3 ADD MSTORE POP JUMP JUMPDEST PUSH1 0x0 PUSH2 0x35FE PUSH1 0x18 DUP4 PUSH2 0x29C1 JUMP JUMPDEST SWAP2 POP PUSH2 0x3609 DUP3 PUSH2 0x35C8 JUMP JUMPDEST PUSH1 0x20 DUP3 ADD SWAP1 POP SWAP2 SWAP1 POP JUMP JUMPDEST PUSH1 0x0 PUSH1 0x20 DUP3 ADD SWAP1 POP DUP2 DUP2 SUB PUSH1 0x0 DUP4 ADD MSTORE PUSH2 0x362D DUP2 PUSH2 0x35F1 JUMP JUMPDEST SWAP1 POP SWAP2 SWAP1 POP JUMP JUMPDEST PUSH32 0x4552433732313A2061646472657373207A65726F206973206E6F742061207661 PUSH1 0x0 DUP3 ADD MSTORE PUSH32 0x6C6964206F776E65720000000000000000000000000000000000000000000000 PUSH1 0x20 DUP3 ADD MSTORE POP JUMP JUMPDEST PUSH1 0x0 PUSH2 0x3690 PUSH1 0x29 DUP4 PUSH2 0x29C1 JUMP JUMPDEST SWAP2 POP PUSH2 0x369B DUP3 PUSH2 0x3634 JUMP JUMPDEST PUSH1 0x40 DUP3 ADD SWAP1 POP SWAP2 SWAP1 POP JUMP JUMPDEST PUSH1 0x0 PUSH1 0x20 DUP3 ADD SWAP1 POP DUP2 DUP2 SUB PUSH1 0x0 DUP4 ADD MSTORE PUSH2 0x36BF DUP2 PUSH2 0x3683 JUMP JUMPDEST SWAP1 POP SWAP2 SWAP1 POP JUMP JUMPDEST PUSH32 0x4E6F7420746865204E4654206F776E6572210000000000000000000000000000 PUSH1 0x0 DUP3 ADD MSTORE POP JUMP JUMPDEST PUSH1 0x0 PUSH2 0x36FC PUSH1 0x12 DUP4 PUSH2 0x29C1 JUMP JUMPDEST SWAP2 POP PUSH2 0x3707 DUP3 PUSH2 0x36C6 JUMP JUMPDEST PUSH1 0x20 DUP3 ADD SWAP1 POP SWAP2 SWAP1 POP JUMP JUMPDEST PUSH1 0x0 PUSH1 0x20 DUP3 ADD SWAP1 POP DUP2 DUP2 SUB PUSH1 0x0 DUP4 ADD MSTORE PUSH2 0x372B DUP2 PUSH2 0x36EF JUMP JUMPDEST SWAP1 POP SWAP2 SWAP1 POP JUMP JUMPDEST PUSH32 0x4E465420636F73742063616E6E6F74206265206E656761746976650000000000 PUSH1 0x0 DUP3 ADD MSTORE POP JUMP JUMPDEST PUSH1 0x0 PUSH2 0x3768 PUSH1 0x1B DUP4 PUSH2 0x29C1 JUMP JUMPDEST SWAP2 POP PUSH2 0x3773 DUP3 PUSH2 0x3732 JUMP JUMPDEST PUSH1 0x20 DUP3 ADD SWAP1 POP SWAP2 SWAP1 POP JUMP JUMPDEST PUSH1 0x0 PUSH1 0x20 DUP3 ADD SWAP1 POP DUP2 DUP2 SUB PUSH1 0x0 DUP4 ADD MSTORE PUSH2 0x3797 DUP2 PUSH2 0x375B JUMP JUMPDEST SWAP1 POP SWAP2 SWAP1 POP JUMP JUMPDEST PUSH32 0x4E657720707269636520657175616C20746F206F6C6420707269636521000000 PUSH1 0x0 DUP3 ADD MSTORE POP JUMP JUMPDEST PUSH1 0x0 PUSH2 0x37D4 PUSH1 0x1D DUP4 PUSH2 0x29C1 JUMP JUMPDEST SWAP2 POP PUSH2 0x37DF DUP3 PUSH2 0x379E JUMP JUMPDEST PUSH1 0x20 DUP3 ADD SWAP1 POP SWAP2 SWAP1 POP JUMP JUMPDEST PUSH1 0x0 PUSH1 0x20 DUP3 ADD SWAP1 POP DUP2 DUP2 SUB PUSH1 0x0 DUP4 ADD MSTORE PUSH2 0x3803 DUP2 PUSH2 0x37C7 JUMP JUMPDEST SWAP1 POP SWAP2 SWAP1 POP JUMP JUMPDEST PUSH32 0x496E76616C6964204E465420746F6B656E204944000000000000000000000000 PUSH1 0x0 DUP3 ADD MSTORE POP JUMP JUMPDEST PUSH1 0x0 PUSH2 0x3840 PUSH1 0x14 DUP4 PUSH2 0x29C1 JUMP JUMPDEST SWAP2 POP PUSH2 0x384B DUP3 PUSH2 0x380A JUMP JUMPDEST PUSH1 0x20 DUP3 ADD SWAP1 POP SWAP2 SWAP1 POP JUMP JUMPDEST PUSH1 0x0 PUSH1 0x20 DUP3 ADD SWAP1 POP DUP2 DUP2 SUB PUSH1 0x0 DUP4 ADD MSTORE PUSH2 0x386F DUP2 PUSH2 0x3833 JUMP JUMPDEST SWAP1 POP SWAP2 SWAP1 POP JUMP JUMPDEST PUSH32 0x4552433732313A207472616E736665722066726F6D20696E636F727265637420 PUSH1 0x0 DUP3 ADD MSTORE PUSH32 0x6F776E6572000000000000000000000000000000000000000000000000000000 PUSH1 0x20 DUP3 ADD MSTORE POP JUMP JUMPDEST PUSH1 0x0 PUSH2 0x38D2 PUSH1 0x25 DUP4 PUSH2 0x29C1 JUMP JUMPDEST SWAP2 POP PUSH2 0x38DD DUP3 PUSH2 0x3876 JUMP JUMPDEST PUSH1 0x40 DUP3 ADD SWAP1 POP SWAP2 SWAP1 POP JUMP JUMPDEST PUSH1 0x0 PUSH1 0x20 DUP3 ADD SWAP1 POP DUP2 DUP2 SUB PUSH1 0x0 DUP4 ADD MSTORE PUSH2 0x3901 DUP2 PUSH2 0x38C5 JUMP JUMPDEST SWAP1 POP SWAP2 SWAP1 POP JUMP JUMPDEST PUSH32 0x4552433732313A207472616E7366657220746F20746865207A65726F20616464 PUSH1 0x0 DUP3 ADD MSTORE PUSH32 0x7265737300000000000000000000000000000000000000000000000000000000 PUSH1 0x20 DUP3 ADD MSTORE POP JUMP JUMPDEST PUSH1 0x0 PUSH2 0x3964 PUSH1 0x24 DUP4 PUSH2 0x29C1 JUMP JUMPDEST SWAP2 POP PUSH2 0x396F DUP3 PUSH2 0x3908 JUMP JUMPDEST PUSH1 0x40 DUP3 ADD SWAP1 POP SWAP2 SWAP1 POP JUMP JUMPDEST PUSH1 0x0 PUSH1 0x20 DUP3 ADD SWAP1 POP DUP2 DUP2 SUB PUSH1 0x0 DUP4 ADD MSTORE PUSH2 0x3993 DUP2 PUSH2 0x3957 JUMP JUMPDEST SWAP1 POP SWAP2 SWAP1 POP JUMP JUMPDEST PUSH32 0x4552433732313A20617070726F766520746F2063616C6C657200000000000000 PUSH1 0x0 DUP3 ADD MSTORE POP JUMP JUMPDEST PUSH1 0x0 PUSH2 0x39D0 PUSH1 0x19 DUP4 PUSH2 0x29C1 JUMP JUMPDEST SWAP2 POP PUSH2 0x39DB DUP3 PUSH2 0x399A JUMP JUMPDEST PUSH1 0x20 DUP3 ADD SWAP1 POP SWAP2 SWAP1 POP JUMP JUMPDEST PUSH1 0x0 PUSH1 0x20 DUP3 ADD SWAP1 POP DUP2 DUP2 SUB PUSH1 0x0 DUP4 ADD MSTORE PUSH2 0x39FF DUP2 PUSH2 0x39C3 JUMP JUMPDEST SWAP1 POP SWAP2 SWAP1 POP JUMP JUMPDEST PUSH32 0x4552433732313A207472616E7366657220746F206E6F6E204552433732315265 PUSH1 0x0 DUP3 ADD MSTORE PUSH32 0x63656976657220696D706C656D656E7465720000000000000000000000000000 PUSH1 0x20 DUP3 ADD MSTORE POP JUMP JUMPDEST PUSH1 0x0 PUSH2 0x3A62 PUSH1 0x32 DUP4 PUSH2 0x29C1 JUMP JUMPDEST SWAP2 POP PUSH2 0x3A6D DUP3 PUSH2 0x3A06 JUMP JUMPDEST PUSH1 0x40 DUP3 ADD SWAP1 POP SWAP2 SWAP1 POP JUMP JUMPDEST PUSH1 0x0 PUSH1 0x20 DUP3 ADD SWAP1 POP DUP2 DUP2 SUB PUSH1 0x0 DUP4 ADD MSTORE PUSH2 0x3A91 DUP2 PUSH2 0x3A55 JUMP JUMPDEST SWAP1 POP SWAP2 SWAP1 POP JUMP JUMPDEST PUSH1 0x0 DUP2 SWAP1 POP SWAP3 SWAP2 POP POP JUMP JUMPDEST PUSH1 0x0 PUSH2 0x3AAE DUP3 PUSH2 0x29B6 JUMP JUMPDEST PUSH2 0x3AB8 DUP2 DUP6 PUSH2 0x3A98 JUMP JUMPDEST SWAP4 POP PUSH2 0x3AC8 DUP2 DUP6 PUSH1 0x20 DUP7 ADD PUSH2 0x29D2 JUMP JUMPDEST DUP1 DUP5 ADD SWAP2 POP POP SWAP3 SWAP2 POP POP JUMP JUMPDEST PUSH1 0x0 PUSH2 0x3AE0 DUP3 DUP6 PUSH2 0x3AA3 JUMP JUMPDEST SWAP2 POP PUSH2 0x3AEC DUP3 DUP5 PUSH2 0x3AA3 JUMP JUMPDEST SWAP2 POP DUP2 SWAP1 POP SWAP4 SWAP3 POP POP POP JUMP JUMPDEST PUSH32 0x45524337323155524953746F726167653A2055524920736574206F66206E6F6E PUSH1 0x0 DUP3 ADD MSTORE PUSH32 0x6578697374656E7420746F6B656E000000000000000000000000000000000000 PUSH1 0x20 DUP3 ADD MSTORE POP JUMP JUMPDEST PUSH1 0x0 PUSH2 0x3B54 PUSH1 0x2E DUP4 PUSH2 0x29C1 JUMP JUMPDEST SWAP2 POP PUSH2 0x3B5F DUP3 PUSH2 0x3AF8 JUMP JUMPDEST PUSH1 0x40 DUP3 ADD SWAP1 POP SWAP2 SWAP1 POP JUMP JUMPDEST PUSH1 0x0 PUSH1 0x20 DUP3 ADD SWAP1 POP DUP2 DUP2 SUB PUSH1 0x0 DUP4 ADD MSTORE PUSH2 0x3B83 DUP2 PUSH2 0x3B47 JUMP JUMPDEST SWAP1 POP SWAP2 SWAP1 POP JUMP JUMPDEST PUSH2 0x3B93 DUP3 PUSH2 0x29B6 JUMP JUMPDEST PUSH8 0xFFFFFFFFFFFFFFFF DUP2 GT ISZERO PUSH2 0x3BAC JUMPI PUSH2 0x3BAB PUSH2 0x26AF JUMP JUMPDEST JUMPDEST PUSH2 0x3BB6 DUP3 SLOAD PUSH2 0x2EC6 JUMP JUMPDEST PUSH2 0x3BC1 DUP3 DUP3 DUP6 PUSH2 0x3016 JUMP JUMPDEST PUSH1 0x0 PUSH1 0x20 SWAP1 POP PUSH1 0x1F DUP4 GT PUSH1 0x1 DUP2 EQ PUSH2 0x3BF4 JUMPI PUSH1 0x0 DUP5 ISZERO PUSH2 0x3BE2 JUMPI DUP3 DUP8 ADD MLOAD SWAP1 POP JUMPDEST PUSH2 0x3BEC DUP6 DUP3 PUSH2 0x3087 JUMP JUMPDEST DUP7 SSTORE POP PUSH2 0x3C54 JUMP JUMPDEST PUSH1 0x1F NOT DUP5 AND PUSH2 0x3C02 DUP7 PUSH2 0x2EF7 JUMP JUMPDEST PUSH1 0x0 JUMPDEST DUP3 DUP2 LT ISZERO PUSH2 0x3C2A JUMPI DUP5 DUP10 ADD MLOAD DUP3 SSTORE PUSH1 0x1 DUP3 ADD SWAP2 POP PUSH1 0x20 DUP6 ADD SWAP5 POP PUSH1 0x20 DUP2 ADD SWAP1 POP PUSH2 0x3C05 JUMP JUMPDEST DUP7 DUP4 LT ISZERO PUSH2 0x3C47 JUMPI DUP5 DUP10 ADD MLOAD PUSH2 0x3C43 PUSH1 0x1F DUP10 AND DUP3 PUSH2 0x3069 JUMP JUMPDEST DUP4 SSTORE POP JUMPDEST PUSH1 0x1 PUSH1 0x2 DUP9 MUL ADD DUP9 SSTORE POP POP POP JUMPDEST POP POP POP POP POP POP JUMP JUMPDEST PUSH1 0x0 DUP2 MLOAD SWAP1 POP SWAP2 SWAP1 POP JUMP JUMPDEST PUSH1 0x0 DUP3 DUP3 MSTORE PUSH1 0x20 DUP3 ADD SWAP1 POP SWAP3 SWAP2 POP POP JUMP JUMPDEST PUSH1 0x0 PUSH2 0x3C83 DUP3 PUSH2 0x3C5C JUMP JUMPDEST PUSH2 0x3C8D DUP2 DUP6 PUSH2 0x3C67 JUMP JUMPDEST SWAP4 POP PUSH2 0x3C9D DUP2 DUP6 PUSH1 0x20 DUP7 ADD PUSH2 0x29D2 JUMP JUMPDEST PUSH2 0x3CA6 DUP2 PUSH2 0x269E JUMP JUMPDEST DUP5 ADD SWAP2 POP POP SWAP3 SWAP2 POP POP JUMP JUMPDEST PUSH1 0x0 PUSH1 0x80 DUP3 ADD SWAP1 POP PUSH2 0x3CC6 PUSH1 0x0 DUP4 ADD DUP8 PUSH2 0x2A84 JUMP JUMPDEST PUSH2 0x3CD3 PUSH1 0x20 DUP4 ADD DUP7 PUSH2 0x2A84 JUMP JUMPDEST PUSH2 0x3CE0 PUSH1 0x40 DUP4 ADD DUP6 PUSH2 0x2AEE JUMP JUMPDEST DUP2 DUP2 SUB PUSH1 0x60 DUP4 ADD MSTORE PUSH2 0x3CF2 DUP2 DUP5 PUSH2 0x3C78 JUMP JUMPDEST SWAP1 POP SWAP6 SWAP5 POP POP POP POP POP JUMP JUMPDEST PUSH1 0x0 DUP2 MLOAD SWAP1 POP PUSH2 0x3D0C DUP2 PUSH2 0x295D JUMP JUMPDEST SWAP3 SWAP2 POP POP JUMP JUMPDEST PUSH1 0x0 PUSH1 0x20 DUP3 DUP5 SUB SLT ISZERO PUSH2 0x3D28 JUMPI PUSH2 0x3D27 PUSH2 0x25CC JUMP JUMPDEST JUMPDEST PUSH1 0x0 PUSH2 0x3D36 DUP5 DUP3 DUP6 ADD PUSH2 0x3CFD JUMP JUMPDEST SWAP2 POP POP SWAP3 SWAP2 POP POP JUMP JUMPDEST PUSH32 0x4E487B7100000000000000000000000000000000000000000000000000000000 PUSH1 0x0 MSTORE PUSH1 0x12 PUSH1 0x4 MSTORE PUSH1 0x24 PUSH1 0x0 REVERT JUMPDEST PUSH32 0x4552433732313A206D696E7420746F20746865207A65726F2061646472657373 PUSH1 0x0 DUP3 ADD MSTORE POP JUMP JUMPDEST PUSH1 0x0 PUSH2 0x3DA4 PUSH1 0x20 DUP4 PUSH2 0x29C1 JUMP JUMPDEST SWAP2 POP PUSH2 0x3DAF DUP3 PUSH2 0x3D6E JUMP JUMPDEST PUSH1 0x20 DUP3 ADD SWAP1 POP SWAP2 SWAP1 POP JUMP JUMPDEST PUSH1 0x0 PUSH1 0x20 DUP3 ADD SWAP1 POP DUP2 DUP2 SUB PUSH1 0x0 DUP4 ADD MSTORE PUSH2 0x3DD3 DUP2 PUSH2 0x3D97 JUMP JUMPDEST SWAP1 POP SWAP2 SWAP1 POP JUMP JUMPDEST PUSH32 0x4552433732313A20746F6B656E20616C7265616479206D696E74656400000000 PUSH1 0x0 DUP3 ADD MSTORE POP JUMP JUMPDEST PUSH1 0x0 PUSH2 0x3E10 PUSH1 0x1C DUP4 PUSH2 0x29C1 JUMP JUMPDEST SWAP2 POP PUSH2 0x3E1B DUP3 PUSH2 0x3DDA JUMP JUMPDEST PUSH1 0x20 DUP3 ADD SWAP1 POP SWAP2 SWAP1 POP JUMP JUMPDEST PUSH1 0x0 PUSH1 0x20 DUP3 ADD SWAP1 POP DUP2 DUP2 SUB PUSH1 0x0 DUP4 ADD MSTORE PUSH2 0x3E3F DUP2 PUSH2 0x3E03 JUMP JUMPDEST SWAP1 POP SWAP2 SWAP1 POP JUMP INVALID LOG2 PUSH5 0x6970667358 0x22 SLT KECCAK256 0xF8 SWAP3 0xB8 0xAD 0xE6 SWAP13 0xC0 0x4C SWAP3 0x29 0x5E 0xCF 0xE2 DUP16 0xCF 0x25 SWAP1 0x22 0x5F EXTCODEHASH 0xF SWAP11 0xFC 0xCC SWAP14 0xAD SELFBALANCE SWAP13 0xD6 0x2E 0xAA 0x1F PUSH5 0x736F6C6343 STOP ADDMOD SLT STOP CALLER "},"methodIdentifiers":{"approve(address,uint256)":"095ea7b3","balanceOf(address)":"70a08231","burn(uint256)":"42966c68","buyNFT(uint256)":"51ed8288","getApproved(uint256)":"081812fc","getNFTOwner(uint256)":"deaea2e3","getNFTname()":"3d38edac","getNFTprice()":"1ff95da9","getNFTsymbol()":"de9fdebe","initialize(address,string,string,address,string,uint256)":"01eaaea2","isApprovedForAll(address,address)":"e985e9c5","name()":"06fdde03","ownerOf(uint256)":"6352211e","safeTransferFrom(address,address,uint256)":"42842e0e","safeTransferFrom(address,address,uint256,bytes)":"b88d4fde","setApprovalForAll(address,bool)":"a22cb465","setPrice(uint256)":"91b7f5ed","supportsInterface(bytes4)":"01ffc9a7","symbol()":"95d89b41","tokenURI(uint256)":"c87b56dd","transferFrom(address,address,uint256)":"23b872dd"}}}}}