{"contracts/ERC20Base.sol":{"ERC20Base":{"abi":[{"anonymous":false,"inputs":[{"indexed":true,"internalType":"address","name":"owner","type":"address"},{"indexed":true,"internalType":"address","name":"spender","type":"address"},{"indexed":false,"internalType":"uint256","name":"value","type":"uint256"}],"name":"Approval","type":"event"},{"anonymous":false,"inputs":[{"indexed":false,"internalType":"address","name":"from","type":"address"},{"indexed":false,"internalType":"address","name":"buyer","type":"address"},{"indexed":false,"internalType":"uint256","name":"amountOfSMR","type":"uint256"},{"indexed":false,"internalType":"uint256","name":"amountOfTokens","type":"uint256"}],"name":"BuyDT","type":"event"},{"anonymous":false,"inputs":[{"indexed":false,"internalType":"uint8","name":"version","type":"uint8"}],"name":"Initialized","type":"event"},{"anonymous":false,"inputs":[{"indexed":false,"internalType":"string","name":"name","type":"string"},{"indexed":false,"internalType":"string","name":"symbol","type":"string"},{"indexed":false,"internalType":"address","name":"owner","type":"address"},{"indexed":false,"internalType":"uint256","name":"initialSupply","type":"uint256"}],"name":"InitializedDT","type":"event"},{"anonymous":false,"inputs":[{"indexed":false,"internalType":"address","name":"to","type":"address"},{"indexed":false,"internalType":"uint256","name":"amount","type":"uint256"}],"name":"NewMint","type":"event"},{"anonymous":false,"inputs":[{"indexed":true,"internalType":"address","name":"from","type":"address"},{"indexed":true,"internalType":"address","name":"to","type":"address"},{"indexed":false,"internalType":"uint256","name":"value","type":"uint256"}],"name":"Transfer","type":"event"},{"stateMutability":"payable","type":"fallback"},{"inputs":[{"internalType":"address","name":"owner","type":"address"},{"internalType":"address","name":"spender","type":"address"}],"name":"allowance","outputs":[{"internalType":"uint256","name":"","type":"uint256"}],"stateMutability":"view","type":"function"},{"inputs":[{"internalType":"address","name":"spender","type":"address"},{"internalType":"uint256","name":"amount","type":"uint256"}],"name":"approve","outputs":[{"internalType":"bool","name":"","type":"bool"}],"stateMutability":"nonpayable","type":"function"},{"inputs":[{"internalType":"address","name":"account","type":"address"}],"name":"balanceOf","outputs":[{"internalType":"uint256","name":"","type":"uint256"}],"stateMutability":"view","type":"function"},{"inputs":[{"internalType":"uint256","name":"amount","type":"uint256"}],"name":"burn","outputs":[],"stateMutability":"nonpayable","type":"function"},{"inputs":[],"name":"buyDT","outputs":[{"internalType":"uint256","name":"amountToBuy","type":"uint256"}],"stateMutability":"payable","type":"function"},{"inputs":[],"name":"decimals","outputs":[{"internalType":"uint8","name":"","type":"uint8"}],"stateMutability":"view","type":"function"},{"inputs":[{"internalType":"address","name":"spender","type":"address"},{"internalType":"uint256","name":"subtractedValue","type":"uint256"}],"name":"decreaseAllowance","outputs":[{"internalType":"bool","name":"","type":"bool"}],"stateMutability":"nonpayable","type":"function"},{"inputs":[],"name":"getAllowedMinter","outputs":[{"internalType":"address","name":"","type":"address"}],"stateMutability":"view","type":"function"},{"inputs":[{"internalType":"address","name":"spender","type":"address"},{"internalType":"uint256","name":"addedValue","type":"uint256"}],"name":"increaseAllowance","outputs":[{"internalType":"bool","name":"","type":"bool"}],"stateMutability":"nonpayable","type":"function"},{"inputs":[{"internalType":"string","name":"name_","type":"string"},{"internalType":"string","name":"symbol_","type":"string"},{"internalType":"address","name":"minter_","type":"address"},{"internalType":"address","name":"erc721address_","type":"address"},{"internalType":"uint256","name":"maxSupply_","type":"uint256"},{"internalType":"uint256","name":"initialSupply_","type":"uint256"}],"name":"initialize","outputs":[{"internalType":"bool","name":"","type":"bool"}],"stateMutability":"nonpayable","type":"function"},{"inputs":[{"internalType":"address","name":"account","type":"address"},{"internalType":"uint256","name":"amount","type":"uint256"}],"name":"myMint","outputs":[],"stateMutability":"nonpayable","type":"function"},{"inputs":[],"name":"name","outputs":[{"internalType":"string","name":"","type":"string"}],"stateMutability":"view","type":"function"},{"inputs":[{"internalType":"address","name":"","type":"address"}],"name":"nonces_","outputs":[{"internalType":"uint256","name":"","type":"uint256"}],"stateMutability":"view","type":"function"},{"inputs":[{"internalType":"address","name":"owner","type":"address"},{"internalType":"address","name":"spender","type":"address"},{"internalType":"uint256","name":"value","type":"uint256"},{"internalType":"uint256","name":"deadline","type":"uint256"},{"internalType":"uint8","name":"v","type":"uint8"},{"internalType":"bytes32","name":"r","type":"bytes32"},{"internalType":"bytes32","name":"s","type":"bytes32"}],"name":"permit","outputs":[],"stateMutability":"nonpayable","type":"function"},{"inputs":[],"name":"symbol","outputs":[{"internalType":"string","name":"","type":"string"}],"stateMutability":"view","type":"function"},{"inputs":[],"name":"tokensPerSMR","outputs":[{"internalType":"uint256","name":"","type":"uint256"}],"stateMutability":"view","type":"function"},{"inputs":[],"name":"totalSupply","outputs":[{"internalType":"uint256","name":"","type":"uint256"}],"stateMutability":"view","type":"function"},{"inputs":[{"internalType":"address","name":"to","type":"address"},{"internalType":"uint256","name":"amount","type":"uint256"}],"name":"transfer","outputs":[{"internalType":"bool","name":"","type":"bool"}],"stateMutability":"nonpayable","type":"function"},{"inputs":[{"internalType":"address","name":"from","type":"address"},{"internalType":"address","name":"to","type":"address"},{"internalType":"uint256","name":"amount","type":"uint256"}],"name":"transferFrom","outputs":[{"internalType":"bool","name":"","type":"bool"}],"stateMutability":"nonpayable","type":"function"},{"inputs":[],"name":"withdraw","outputs":[],"stateMutability":"nonpayable","type":"function"},{"stateMutability":"payable","type":"receive"}],"evm":{"bytecode":{"linkReferences":{},"object":"6080604052606460685534801561001557600080fd5b5061431d806100256000396000f3fe6080604052600436106101235760003560e01c806342966c68116100a0578063a457c2d711610064578063a457c2d7146103f8578063a9059cbb14610435578063d505accf14610472578063dd62ed3e1461049b578063f0e9ffa9146104d85761012a565b806342966c68146102ed57806370a082311461031657806373c84f741461035357806374e87e1e1461039057806395d89b41146103cd5761012a565b806323b872dd116100e757806323b872dd14610206578063313ce56714610243578063395093511461026e5780633ccfd60b146102ab578063410a1095146102c25761012a565b80630334a4e41461012c57806306fdde0314610155578063095ea7b3146101805780631016e822146101bd57806318160ddd146101db5761012a565b3661012a57005b005b34801561013857600080fd5b50610153600480360381019061014e919061237c565b610503565b005b34801561016157600080fd5b5061016a6106c4565b604051610177919061244c565b60405180910390f35b34801561018c57600080fd5b506101a760048036038101906101a2919061237c565b610756565b6040516101b49190612489565b60405180910390f35b6101c5610779565b6040516101d291906124b3565b60405180910390f35b3480156101e757600080fd5b506101f061095a565b6040516101fd91906124b3565b60405180910390f35b34801561021257600080fd5b5061022d600480360381019061022891906124ce565b610964565b60405161023a9190612489565b60405180910390f35b34801561024f57600080fd5b50610258610993565b604051610265919061253d565b60405180910390f35b34801561027a57600080fd5b506102956004803603810190610290919061237c565b61099c565b6040516102a29190612489565b60405180910390f35b3480156102b757600080fd5b506102c06109d3565b005b3480156102ce57600080fd5b506102d7610b8d565b6040516102e49190612567565b60405180910390f35b3480156102f957600080fd5b50610314600480360381019061030f9190612582565b610bb7565b005b34801561032257600080fd5b5061033d600480360381019061033891906125af565b610c54565b60405161034a91906124b3565b60405180910390f35b34801561035f57600080fd5b5061037a600480360381019061037591906125af565b610c9d565b60405161038791906124b3565b60405180910390f35b34801561039c57600080fd5b506103b760048036038101906103b29190612711565b610cb5565b6040516103c49190612489565b60405180910390f35b3480156103d957600080fd5b506103e261135d565b6040516103ef919061244c565b60405180910390f35b34801561040457600080fd5b5061041f600480360381019061041a919061237c565b6113ef565b60405161042c9190612489565b60405180910390f35b34801561044157600080fd5b5061045c6004803603810190610457919061237c565b611466565b6040516104699190612489565b60405180910390f35b34801561047e57600080fd5b5061049960048036038101906104949190612838565b611489565b005b3480156104a757600080fd5b506104c260048036038101906104bd91906128da565b61188d565b6040516104cf91906124b3565b60405180910390f35b3480156104e457600080fd5b506104ed611914565b6040516104fa91906124b3565b60405180910390f35b606560009054906101000a900473ffffffffffffffffffffffffffffffffffffffff1673ffffffffffffffffffffffffffffffffffffffff16635245f3bd6040518163ffffffff1660e01b8152600401602060405180830381865afa158015610570573d6000803e3d6000fd5b505050506040513d601f19601f82011682018060405250810190610594919061292f565b73ffffffffffffffffffffffffffffffffffffffff168273ffffffffffffffffffffffffffffffffffffffff1614610601576040517f08c379a00000000000000000000000000000000000000000000000000000000081526004016105f8906129a8565b60405180910390fd5b60675461061e8261061061095a565b61191a90919063ffffffff16565b111561065f576040517f08c379a000000000000000000000000000000000000000000000000000000000815260040161065690612a14565b60405180910390fd5b6106878261066b610993565b600a6106779190612b96565b836106829190612be1565b611930565b7f52277f0b4a9b555c5aa96900a13546f972bda413737ec164aac947c87eec602482826040516106b8929190612c23565b60405180910390a15050565b6060603680546106d390612c7b565b80601f01602080910402602001604051908101604052809291908181526020018280546106ff90612c7b565b801561074c5780601f106107215761010080835404028352916020019161074c565b820191906000526020600020905b81548152906001019060200180831161072f57829003601f168201915b5050505050905090565b600080610761611a87565b905061076e818585611a8f565b600191505092915050565b60008073ffffffffffffffffffffffffffffffffffffffff163373ffffffffffffffffffffffffffffffffffffffff16036107e9576040517f08c379a00000000000000000000000000000000000000000000000000000000081526004016107e090612cf8565b60405180910390fd5b6000341161082c576040517f08c379a000000000000000000000000000000000000000000000000000000000815260040161082390612d8a565b60405180910390fd5b6068543461083a9190612be1565b905080610868606660009054906101000a900473ffffffffffffffffffffffffffffffffffffffff16610c54565b10156108a9576040517f08c379a00000000000000000000000000000000000000000000000000000000081526004016108a090612e42565b60405180910390fd5b60006108b53383611466565b9050806108f7576040517f08c379a00000000000000000000000000000000000000000000000000000000081526004016108ee90612ed4565b60405180910390fd5b7f2b76c454c9582688e8088feb2d79a17148947856d1890aa012ce16ef8289ad85606660009054906101000a900473ffffffffffffffffffffffffffffffffffffffff1633348560405161094e9493929190612ef4565b60405180910390a15090565b6000603554905090565b60008061096f611a87565b905061097c858285611c58565b610987858585611ce4565b60019150509392505050565b60006012905090565b6000806109a7611a87565b90506109c88185856109b9858961188d565b6109c39190612f39565b611a8f565b600191505092915050565b606560009054906101000a900473ffffffffffffffffffffffffffffffffffffffff1673ffffffffffffffffffffffffffffffffffffffff16635245f3bd6040518163ffffffff1660e01b8152600401602060405180830381865afa158015610a40573d6000803e3d6000fd5b505050506040513d601f19601f82011682018060405250810190610a64919061292f565b73ffffffffffffffffffffffffffffffffffffffff163373ffffffffffffffffffffffffffffffffffffffff1614610a9b57600080fd5b60004711610ade576040517f08c379a0000000000000000000000000000000000000000000000000000000008152600401610ad590612fb9565b60405180910390fd5b60003373ffffffffffffffffffffffffffffffffffffffff1647604051610b049061300a565b60006040518083038185875af1925050503d8060008114610b41576040519150601f19603f3d011682016040523d82523d6000602084013e610b46565b606091505b5050905080610b8a576040517f08c379a0000000000000000000000000000000000000000000000000000000008152600401610b819061306b565b60405180910390fd5b50565b6000606660009054906101000a900473ffffffffffffffffffffffffffffffffffffffff16905090565b606660009054906101000a900473ffffffffffffffffffffffffffffffffffffffff1673ffffffffffffffffffffffffffffffffffffffff163373ffffffffffffffffffffffffffffffffffffffff1614610c47576040517f08c379a0000000000000000000000000000000000000000000000000000000008152600401610c3e906130d7565b60405180910390fd5b610c513382611f5d565b50565b6000603360008373ffffffffffffffffffffffffffffffffffffffff1673ffffffffffffffffffffffffffffffffffffffff168152602001908152602001600020549050919050565b60696020528060005260406000206000915090505481565b600080600060019054906101000a900460ff16159050808015610ce85750600160008054906101000a900460ff1660ff16105b80610d155750610cf73061212c565b158015610d145750600160008054906101000a900460ff1660ff16145b5b610d54576040517f08c379a0000000000000000000000000000000000000000000000000000000008152600401610d4b90613169565b60405180910390fd5b60016000806101000a81548160ff021916908360ff1602179055508015610d91576001600060016101000a81548160ff0219169083151502179055505b600073ffffffffffffffffffffffffffffffffffffffff168673ffffffffffffffffffffffffffffffffffffffff1603610e00576040517f08c379a0000000000000000000000000000000000000000000000000000000008152600401610df7906131d5565b60405180910390fd5b3073ffffffffffffffffffffffffffffffffffffffff168673ffffffffffffffffffffffffffffffffffffffff1603610e6e576040517f08c379a0000000000000000000000000000000000000000000000000000000008152600401610e6590613267565b60405180910390fd5b8473ffffffffffffffffffffffffffffffffffffffff16635245f3bd6040518163ffffffff1660e01b8152600401602060405180830381865afa158015610eb9573d6000803e3d6000fd5b505050506040513d601f19601f82011682018060405250810190610edd919061292f565b73ffffffffffffffffffffffffffffffffffffffff168673ffffffffffffffffffffffffffffffffffffffff1614610f4a576040517f08c379a0000000000000000000000000000000000000000000000000000000008152600401610f41906132d3565b60405180910390fd5b600073ffffffffffffffffffffffffffffffffffffffff168573ffffffffffffffffffffffffffffffffffffffff1603610fb9576040517f08c379a0000000000000000000000000000000000000000000000000000000008152600401610fb090613365565b60405180910390fd5b60008411610ffc576040517f08c379a0000000000000000000000000000000000000000000000000000000008152600401610ff3906133d1565b60405180910390fd5b6000831015611040576040517f08c379a000000000000000000000000000000000000000000000000000000000815260040161103790613463565b60405180910390fd5b83831115611083576040517f08c379a000000000000000000000000000000000000000000000000000000000815260040161107a906134f5565b60405180910390fd5b61108d888861214f565b84606560006101000a81548173ffffffffffffffffffffffffffffffffffffffff021916908373ffffffffffffffffffffffffffffffffffffffff16021790555085606660006101000a81548173ffffffffffffffffffffffffffffffffffffffff021916908373ffffffffffffffffffffffffffffffffffffffff16021790555083606781905550611160606660009054906101000a900473ffffffffffffffffffffffffffffffffffffffff16611144610993565b600a6111509190612b96565b8561115b9190612be1565b611930565b611168610993565b600a6111749190612b96565b8361117f9190612be1565b61118761095a565b146111c7576040517f08c379a00000000000000000000000000000000000000000000000000000000081526004016111be90613587565b60405180910390fd5b6111cf610993565b600a6111db9190612b96565b836111e69190612be1565b611211606660009054906101000a900473ffffffffffffffffffffffffffffffffffffffff16610c54565b14611251576040517f08c379a0000000000000000000000000000000000000000000000000000000008152600401611248906135f3565b60405180910390fd5b600060696000606660009054906101000a900473ffffffffffffffffffffffffffffffffffffffff1673ffffffffffffffffffffffffffffffffffffffff1673ffffffffffffffffffffffffffffffffffffffff168152602001908152602001600020819055507f321f9e8cb5e8cc3bc115d8cd4e1ab42538d6ae9308998e65a66c65e11a6b7e1c888888866040516112ed9493929190613613565b60405180910390a16001915080156113525760008060016101000a81548160ff0219169083151502179055507f7f26b83ff96e1f2b6a682f133852f6798a09c465da95921460cefb3847402498600160405161134991906136ab565b60405180910390a15b509695505050505050565b60606037805461136c90612c7b565b80601f016020809104026020016040519081016040528092919081815260200182805461139890612c7b565b80156113e55780601f106113ba576101008083540402835291602001916113e5565b820191906000526020600020905b8154815290600101906020018083116113c857829003601f168201915b5050505050905090565b6000806113fa611a87565b90506000611408828661188d565b90508381101561144d576040517f08c379a000000000000000000000000000000000000000000000000000000000815260040161144490613738565b60405180910390fd5b61145a8286868403611a8f565b60019250505092915050565b600080611471611a87565b905061147e818585611ce4565b600191505092915050565b438410156114cc576040517f08c379a00000000000000000000000000000000000000000000000000000000081526004016114c3906137a4565b60405180910390fd5b606560009054906101000a900473ffffffffffffffffffffffffffffffffffffffff1673ffffffffffffffffffffffffffffffffffffffff16635245f3bd6040518163ffffffff1660e01b8152600401602060405180830381865afa158015611539573d6000803e3d6000fd5b505050506040513d601f19601f8201168201806040525081019061155d919061292f565b73ffffffffffffffffffffffffffffffffffffffff168773ffffffffffffffffffffffffffffffffffffffff16146115ca576040517f08c379a00000000000000000000000000000000000000000000000000000000081526004016115c190613810565b60405180910390fd5b6000606960008973ffffffffffffffffffffffffffffffffffffffff1673ffffffffffffffffffffffffffffffffffffffff16815260200190815260200160002054905060006116186121ac565b90506000817f6e71edae12b1b97f4d1f60370fef10105fa2faae0126114a169c64845d6126c98b8b8b878c6040516020016116589695949392919061383f565b6040516020818303038152906040528051906020012060405160200161167f929190613918565b6040516020818303038152906040528051906020012090506001606960008c73ffffffffffffffffffffffffffffffffffffffff1673ffffffffffffffffffffffffffffffffffffffff16815260200190815260200160002060008282546116e79190612f39565b925050819055506001836116fb9190612f39565b606960008c73ffffffffffffffffffffffffffffffffffffffff1673ffffffffffffffffffffffffffffffffffffffff168152602001908152602001600020541461177b576040517f08c379a0000000000000000000000000000000000000000000000000000000008152600401611772906139c1565b60405180910390fd5b6000600182888888604051600081526020016040526040516117a094939291906139e1565b6020604051602081039080840390855afa1580156117c2573d6000803e3d6000fd5b505050602060405103519050600073ffffffffffffffffffffffffffffffffffffffff168173ffffffffffffffffffffffffffffffffffffffff161415801561183657508a73ffffffffffffffffffffffffffffffffffffffff168173ffffffffffffffffffffffffffffffffffffffff16145b611875576040517f08c379a000000000000000000000000000000000000000000000000000000000815260040161186c90613a98565b60405180910390fd5b6118808b8b8b611a8f565b5050505050505050505050565b6000603460008473ffffffffffffffffffffffffffffffffffffffff1673ffffffffffffffffffffffffffffffffffffffff16815260200190815260200160002060008373ffffffffffffffffffffffffffffffffffffffff1673ffffffffffffffffffffffffffffffffffffffff16815260200190815260200160002054905092915050565b60685481565b600081836119289190612f39565b905092915050565b600073ffffffffffffffffffffffffffffffffffffffff168273ffffffffffffffffffffffffffffffffffffffff160361199f576040517f08c379a000000000000000000000000000000000000000000000000000000000815260040161199690613b04565b60405180910390fd5b6119ab60008383612257565b80603560008282546119bd9190612f39565b9250508190555080603360008473ffffffffffffffffffffffffffffffffffffffff1673ffffffffffffffffffffffffffffffffffffffff168152602001908152602001600020600082825401925050819055508173ffffffffffffffffffffffffffffffffffffffff16600073ffffffffffffffffffffffffffffffffffffffff167fddf252ad1be2c89b69c2b068fc378daa952ba7f163c4a11628f55a4df523b3ef83604051611a6f91906124b3565b60405180910390a3611a836000838361225c565b5050565b600033905090565b600073ffffffffffffffffffffffffffffffffffffffff168373ffffffffffffffffffffffffffffffffffffffff1603611afe576040517f08c379a0000000000000000000000000000000000000000000000000000000008152600401611af590613b96565b60405180910390fd5b600073ffffffffffffffffffffffffffffffffffffffff168273ffffffffffffffffffffffffffffffffffffffff1603611b6d576040517f08c379a0000000000000000000000000000000000000000000000000000000008152600401611b6490613c28565b60405180910390fd5b80603460008573ffffffffffffffffffffffffffffffffffffffff1673ffffffffffffffffffffffffffffffffffffffff16815260200190815260200160002060008473ffffffffffffffffffffffffffffffffffffffff1673ffffffffffffffffffffffffffffffffffffffff168152602001908152602001600020819055508173ffffffffffffffffffffffffffffffffffffffff168373ffffffffffffffffffffffffffffffffffffffff167f8c5be1e5ebec7d5bd14f71427d1e84f3dd0314c0f7b2291e5b200ac8c7c3b92583604051611c4b91906124b3565b60405180910390a3505050565b6000611c64848461188d565b90507fffffffffffffffffffffffffffffffffffffffffffffffffffffffffffffffff8114611cde5781811015611cd0576040517f08c379a0000000000000000000000000000000000000000000000000000000008152600401611cc790613c94565b60405180910390fd5b611cdd8484848403611a8f565b5b50505050565b600073ffffffffffffffffffffffffffffffffffffffff168373ffffffffffffffffffffffffffffffffffffffff1603611d53576040517f08c379a0000000000000000000000000000000000000000000000000000000008152600401611d4a90613d26565b60405180910390fd5b600073ffffffffffffffffffffffffffffffffffffffff168273ffffffffffffffffffffffffffffffffffffffff1603611dc2576040517f08c379a0000000000000000000000000000000000000000000000000000000008152600401611db990613db8565b60405180910390fd5b611dcd838383612257565b6000603360008573ffffffffffffffffffffffffffffffffffffffff1673ffffffffffffffffffffffffffffffffffffffff16815260200190815260200160002054905081811015611e54576040517f08c379a0000000000000000000000000000000000000000000000000000000008152600401611e4b90613e4a565b60405180910390fd5b818103603360008673ffffffffffffffffffffffffffffffffffffffff1673ffffffffffffffffffffffffffffffffffffffff1681526020019081526020016000208190555081603360008573ffffffffffffffffffffffffffffffffffffffff1673ffffffffffffffffffffffffffffffffffffffff168152602001908152602001600020600082825401925050819055508273ffffffffffffffffffffffffffffffffffffffff168473ffffffffffffffffffffffffffffffffffffffff167fddf252ad1be2c89b69c2b068fc378daa952ba7f163c4a11628f55a4df523b3ef84604051611f4491906124b3565b60405180910390a3611f5784848461225c565b50505050565b600073ffffffffffffffffffffffffffffffffffffffff168273ffffffffffffffffffffffffffffffffffffffff1603611fcc576040517f08c379a0000000000000000000000000000000000000000000000000000000008152600401611fc390613edc565b60405180910390fd5b611fd882600083612257565b6000603360008473ffffffffffffffffffffffffffffffffffffffff1673ffffffffffffffffffffffffffffffffffffffff1681526020019081526020016000205490508181101561205f576040517f08c379a000000000000000000000000000000000000000000000000000000000815260040161205690613f6e565b60405180910390fd5b818103603360008573ffffffffffffffffffffffffffffffffffffffff1673ffffffffffffffffffffffffffffffffffffffff1681526020019081526020016000208190555081603560008282540392505081905550600073ffffffffffffffffffffffffffffffffffffffff168373ffffffffffffffffffffffffffffffffffffffff167fddf252ad1be2c89b69c2b068fc378daa952ba7f163c4a11628f55a4df523b3ef8460405161211391906124b3565b60405180910390a36121278360008461225c565b505050565b6000808273ffffffffffffffffffffffffffffffffffffffff163b119050919050565b600060019054906101000a900460ff1661219e576040517f08c379a000000000000000000000000000000000000000000000000000000000815260040161219590614000565b60405180910390fd5b6121a88282612261565b5050565b60008046905060007f8b73c3c69bb8fe3d512ecc4cf759cc79239f7b179b0ffacaa9a75d522b39400f6121dd6106c4565b805190602001206040518060400160405280600181526020017f3100000000000000000000000000000000000000000000000000000000000000815250805190602001208430604051602001612237959493929190614020565b604051602081830303815290604052805190602001209050809250505090565b505050565b505050565b600060019054906101000a900460ff166122b0576040517f08c379a00000000000000000000000000000000000000000000000000000000081526004016122a790614000565b60405180910390fd5b81603690816122bf9190614215565b5080603790816122cf9190614215565b505050565b6000604051905090565b600080fd5b600080fd5b600073ffffffffffffffffffffffffffffffffffffffff82169050919050565b6000612313826122e8565b9050919050565b61232381612308565b811461232e57600080fd5b50565b6000813590506123408161231a565b92915050565b6000819050919050565b61235981612346565b811461236457600080fd5b50565b60008135905061237681612350565b92915050565b60008060408385031215612393576123926122de565b5b60006123a185828601612331565b92505060206123b285828601612367565b9150509250929050565b600081519050919050565b600082825260208201905092915050565b60005b838110156123f65780820151818401526020810190506123db565b60008484015250505050565b6000601f19601f8301169050919050565b600061241e826123bc565b61242881856123c7565b93506124388185602086016123d8565b61244181612402565b840191505092915050565b600060208201905081810360008301526124668184612413565b905092915050565b60008115159050919050565b6124838161246e565b82525050565b600060208201905061249e600083018461247a565b92915050565b6124ad81612346565b82525050565b60006020820190506124c860008301846124a4565b92915050565b6000806000606084860312156124e7576124e66122de565b5b60006124f586828701612331565b935050602061250686828701612331565b925050604061251786828701612367565b9150509250925092565b600060ff82169050919050565b61253781612521565b82525050565b6000602082019050612552600083018461252e565b92915050565b61256181612308565b82525050565b600060208201905061257c6000830184612558565b92915050565b600060208284031215612598576125976122de565b5b60006125a684828501612367565b91505092915050565b6000602082840312156125c5576125c46122de565b5b60006125d384828501612331565b91505092915050565b600080fd5b600080fd5b7f4e487b7100000000000000000000000000000000000000000000000000000000600052604160045260246000fd5b61261e82612402565b810181811067ffffffffffffffff8211171561263d5761263c6125e6565b5b80604052505050565b60006126506122d4565b905061265c8282612615565b919050565b600067ffffffffffffffff82111561267c5761267b6125e6565b5b61268582612402565b9050602081019050919050565b82818337600083830152505050565b60006126b46126af84612661565b612646565b9050828152602081018484840111156126d0576126cf6125e1565b5b6126db848285612692565b509392505050565b600082601f8301126126f8576126f76125dc565b5b81356127088482602086016126a1565b91505092915050565b60008060008060008060c0878903121561272e5761272d6122de565b5b600087013567ffffffffffffffff81111561274c5761274b6122e3565b5b61275889828a016126e3565b965050602087013567ffffffffffffffff811115612779576127786122e3565b5b61278589828a016126e3565b955050604061279689828a01612331565b94505060606127a789828a01612331565b93505060806127b889828a01612367565b92505060a06127c989828a01612367565b9150509295509295509295565b6127df81612521565b81146127ea57600080fd5b50565b6000813590506127fc816127d6565b92915050565b6000819050919050565b61281581612802565b811461282057600080fd5b50565b6000813590506128328161280c565b92915050565b600080600080600080600060e0888a031215612857576128566122de565b5b60006128658a828b01612331565b97505060206128768a828b01612331565b96505060406128878a828b01612367565b95505060606128988a828b01612367565b94505060806128a98a828b016127ed565b93505060a06128ba8a828b01612823565b92505060c06128cb8a828b01612823565b91505092959891949750929550565b600080604083850312156128f1576128f06122de565b5b60006128ff85828601612331565b925050602061291085828601612331565b9150509250929050565b6000815190506129298161231a565b92915050565b600060208284031215612945576129446122de565b5b60006129538482850161291a565b91505092915050565b7f4e4f5420544845204e4654204f574e4552203d204e4f542041204d494e544552600082015250565b60006129926020836123c7565b915061299d8261295c565b602082019050919050565b600060208201905081810360008301526129c181612985565b9050919050565b7f43616e6e6f742065786565642074686520636170000000000000000000000000600082015250565b60006129fe6014836123c7565b9150612a09826129c8565b602082019050919050565b60006020820190508181036000830152612a2d816129f1565b9050919050565b7f4e487b7100000000000000000000000000000000000000000000000000000000600052601160045260246000fd5b60008160011c9050919050565b6000808291508390505b6001851115612aba57808604811115612a9657612a95612a34565b5b6001851615612aa55780820291505b8081029050612ab385612a63565b9450612a7a565b94509492505050565b600082612ad35760019050612b8f565b81612ae15760009050612b8f565b8160018114612af75760028114612b0157612b30565b6001915050612b8f565b60ff841115612b1357612b12612a34565b5b8360020a915084821115612b2a57612b29612a34565b5b50612b8f565b5060208310610133831016604e8410600b8410161715612b655782820a905083811115612b6057612b5f612a34565b5b612b8f565b612b728484846001612a70565b92509050818404811115612b8957612b88612a34565b5b81810290505b9392505050565b6000612ba182612346565b9150612bac83612521565b9250612bd97fffffffffffffffffffffffffffffffffffffffffffffffffffffffffffffffff8484612ac3565b905092915050565b6000612bec82612346565b9150612bf783612346565b9250828202612c0581612346565b91508282048414831517612c1c57612c1b612a34565b5b5092915050565b6000604082019050612c386000830185612558565b612c4560208301846124a4565b9392505050565b7f4e487b7100000000000000000000000000000000000000000000000000000000600052602260045260246000fd5b60006002820490506001821680612c9357607f821691505b602082108103612ca657612ca5612c4c565b5b50919050565b7f496e76616c696420302061646472657373000000000000000000000000000000600082015250565b6000612ce26011836123c7565b9150612ced82612cac565b602082019050919050565b60006020820190508181036000830152612d1181612cd5565b9050919050565b7f53656e6420534d5220746f20627579204461746120546f6b656e732e2052656360008201527f6569766564203020534d52000000000000000000000000000000000000000000602082015250565b6000612d74602b836123c7565b9150612d7f82612d18565b604082019050919050565b60006020820190508181036000830152612da381612d67565b9050919050565b7f4e6f7420656e6f7567682072656d61696e6564206d696e74656420446174612060008201527f546f6b656e732e2043616e6e6f742073656c6c2075736572277320726571756560208201527f7374656420616d6f756e74000000000000000000000000000000000000000000604082015250565b6000612e2c604b836123c7565b9150612e3782612daa565b606082019050919050565b60006020820190508181036000830152612e5b81612e1f565b9050919050565b7f4661696c656420746f207472616e73666572204461746120546f6b656e73207460008201527f6f20757365720000000000000000000000000000000000000000000000000000602082015250565b6000612ebe6026836123c7565b9150612ec982612e62565b604082019050919050565b60006020820190508181036000830152612eed81612eb1565b9050919050565b6000608082019050612f096000830187612558565b612f166020830186612558565b612f2360408301856124a4565b612f3060608301846124a4565b95945050505050565b6000612f4482612346565b9150612f4f83612346565b9250828201905080821115612f6757612f66612a34565b5b92915050565b7f4e6f2062616c616e636520746f20776974686472617700000000000000000000600082015250565b6000612fa36016836123c7565b9150612fae82612f6d565b602082019050919050565b60006020820190508181036000830152612fd281612f96565b9050919050565b600081905092915050565b50565b6000612ff4600083612fd9565b9150612fff82612fe4565b600082019050919050565b600061301582612fe7565b9150819050919050565b7f4661696c656420746f2077697468647261770000000000000000000000000000600082015250565b60006130556012836123c7565b91506130608261301f565b602082019050919050565b6000602082019050818103600083015261308481613048565b9050919050565b7f4e4f5420414c4c4f57454420544f204255524e00000000000000000000000000600082015250565b60006130c16013836123c7565b91506130cc8261308b565b602082019050919050565b600060208201905081810360008301526130f0816130b4565b9050919050565b7f496e697469616c697a61626c653a20636f6e747261637420697320616c72656160008201527f647920696e697469616c697a6564000000000000000000000000000000000000602082015250565b6000613153602e836123c7565b915061315e826130f7565b604082019050919050565b6000602082019050818103600083015261318281613146565b9050919050565b7f4d696e7465722063616e6e6f7420626520307830302100000000000000000000600082015250565b60006131bf6016836123c7565b91506131ca82613189565b602082019050919050565b600060208201905081810360008301526131ee816131b2565b9050919050565b7f4d696e7465722063616e6e6f742062652074686520636f6e747261637420616460008201527f647265737320697473656c660000000000000000000000000000000000000000602082015250565b6000613251602c836123c7565b915061325c826131f5565b604082019050919050565b6000602082019050818103600083015261328081613244565b9050919050565b7f4e4f5420544845204e4654204f574e4552000000000000000000000000000000600082015250565b60006132bd6011836123c7565b91506132c882613287565b602082019050919050565b600060208201905081810360008301526132ec816132b0565b9050919050565b7f455243373231466163746f727920616464726573732063616e6e6f742062652060008201527f3078303021000000000000000000000000000000000000000000000000000000602082015250565b600061334f6025836123c7565b915061335a826132f3565b604082019050919050565b6000602082019050818103600083015261337e81613342565b9050919050565b7f546865206d6178696d756d20737570706c79206d757374206265203e20300000600082015250565b60006133bb601e836123c7565b91506133c682613385565b602082019050919050565b600060208201905081810360008301526133ea816133ae565b9050919050565b7f54686520696e697469616c20737570706c792063616e6e6f74206265206e656760008201527f6174697665000000000000000000000000000000000000000000000000000000602082015250565b600061344d6025836123c7565b9150613458826133f1565b604082019050919050565b6000602082019050818103600083015261347c81613440565b9050919050565b7f54686520696e697469616c20737570706c792063616e6e6f742065786565642060008201527f74686520746f74616c2063617000000000000000000000000000000000000000602082015250565b60006134df602d836123c7565b91506134ea82613483565b604082019050919050565b6000602082019050818103600083015261350e816134d2565b9050919050565b7f496e697469616c206d696e74696e67206572726f723a20746f74616c5375707060008201527f6c7920646f6573206e6f74206d6174636820696e697469616c537570706c7900602082015250565b6000613571603f836123c7565b915061357c82613515565b604082019050919050565b600060208201905081810360008301526135a081613564565b9050919050565b7f4d696e74696e67206f662064617461746f6b656e206661696c65640000000000600082015250565b60006135dd601b836123c7565b91506135e8826135a7565b602082019050919050565b6000602082019050818103600083015261360c816135d0565b9050919050565b6000608082019050818103600083015261362d8187612413565b905081810360208301526136418186612413565b90506136506040830185612558565b61365d60608301846124a4565b95945050505050565b6000819050919050565b6000819050919050565b600061369561369061368b84613666565b613670565b612521565b9050919050565b6136a58161367a565b82525050565b60006020820190506136c0600083018461369c565b92915050565b7f45524332303a2064656372656173656420616c6c6f77616e63652062656c6f7760008201527f207a65726f000000000000000000000000000000000000000000000000000000602082015250565b60006137226025836123c7565b915061372d826136c6565b604082019050919050565b6000602082019050818103600083015261375181613715565b9050919050565b7f4552433230445420455850495245440000000000000000000000000000000000600082015250565b600061378e600f836123c7565b915061379982613758565b602082019050919050565b600060208201905081810360008301526137bd81613781565b9050919050565b7f4f776e6572206e6f7420746865204e4654206f776e6572000000000000000000600082015250565b60006137fa6017836123c7565b9150613805826137c4565b602082019050919050565b60006020820190508181036000830152613829816137ed565b9050919050565b61383981612802565b82525050565b600060c0820190506138546000830189613830565b6138616020830188612558565b61386e6040830187612558565b61387b60608301866124a4565b61388860808301856124a4565b61389560a08301846124a4565b979650505050505050565b600081905092915050565b7f1901000000000000000000000000000000000000000000000000000000000000600082015250565b60006138e16002836138a0565b91506138ec826138ab565b600282019050919050565b6000819050919050565b61391261390d82612802565b6138f7565b82525050565b6000613923826138d4565b915061392f8285613901565b60208201915061393f8284613901565b6020820191508190509392505050565b7f4552433230426173653a207065726d697420646964206e6f742073756363656560008201527f642e204e6f6e6365206d69736d61746368210000000000000000000000000000602082015250565b60006139ab6032836123c7565b91506139b68261394f565b604082019050919050565b600060208201905081810360008301526139da8161399e565b9050919050565b60006080820190506139f66000830187613830565b613a03602083018661252e565b613a106040830185613830565b613a1d6060830184613830565b95945050505050565b7f45524332302064617461746f6b656e3a20494e56414c4944205349474e41545560008201527f524520494e2045524332302d5045524d49540000000000000000000000000000602082015250565b6000613a826032836123c7565b9150613a8d82613a26565b604082019050919050565b60006020820190508181036000830152613ab181613a75565b9050919050565b7f45524332303a206d696e7420746f20746865207a65726f206164647265737300600082015250565b6000613aee601f836123c7565b9150613af982613ab8565b602082019050919050565b60006020820190508181036000830152613b1d81613ae1565b9050919050565b7f45524332303a20617070726f76652066726f6d20746865207a65726f2061646460008201527f7265737300000000000000000000000000000000000000000000000000000000602082015250565b6000613b806024836123c7565b9150613b8b82613b24565b604082019050919050565b60006020820190508181036000830152613baf81613b73565b9050919050565b7f45524332303a20617070726f766520746f20746865207a65726f20616464726560008201527f7373000000000000000000000000000000000000000000000000000000000000602082015250565b6000613c126022836123c7565b9150613c1d82613bb6565b604082019050919050565b60006020820190508181036000830152613c4181613c05565b9050919050565b7f45524332303a20696e73756666696369656e7420616c6c6f77616e6365000000600082015250565b6000613c7e601d836123c7565b9150613c8982613c48565b602082019050919050565b60006020820190508181036000830152613cad81613c71565b9050919050565b7f45524332303a207472616e736665722066726f6d20746865207a65726f20616460008201527f6472657373000000000000000000000000000000000000000000000000000000602082015250565b6000613d106025836123c7565b9150613d1b82613cb4565b604082019050919050565b60006020820190508181036000830152613d3f81613d03565b9050919050565b7f45524332303a207472616e7366657220746f20746865207a65726f206164647260008201527f6573730000000000000000000000000000000000000000000000000000000000602082015250565b6000613da26023836123c7565b9150613dad82613d46565b604082019050919050565b60006020820190508181036000830152613dd181613d95565b9050919050565b7f45524332303a207472616e7366657220616d6f756e742065786365656473206260008201527f616c616e63650000000000000000000000000000000000000000000000000000602082015250565b6000613e346026836123c7565b9150613e3f82613dd8565b604082019050919050565b60006020820190508181036000830152613e6381613e27565b9050919050565b7f45524332303a206275726e2066726f6d20746865207a65726f2061646472657360008201527f7300000000000000000000000000000000000000000000000000000000000000602082015250565b6000613ec66021836123c7565b9150613ed182613e6a565b604082019050919050565b60006020820190508181036000830152613ef581613eb9565b9050919050565b7f45524332303a206275726e20616d6f756e7420657863656564732062616c616e60008201527f6365000000000000000000000000000000000000000000000000000000000000602082015250565b6000613f586022836123c7565b9150613f6382613efc565b604082019050919050565b60006020820190508181036000830152613f8781613f4b565b9050919050565b7f496e697469616c697a61626c653a20636f6e7472616374206973206e6f74206960008201527f6e697469616c697a696e67000000000000000000000000000000000000000000602082015250565b6000613fea602b836123c7565b9150613ff582613f8e565b604082019050919050565b6000602082019050818103600083015261401981613fdd565b9050919050565b600060a0820190506140356000830188613830565b6140426020830187613830565b61404f6040830186613830565b61405c60608301856124a4565b6140696080830184612558565b9695505050505050565b60008190508160005260206000209050919050565b60006020601f8301049050919050565b600082821b905092915050565b6000600883026140d57fffffffffffffffffffffffffffffffffffffffffffffffffffffffffffffffff82614098565b6140df8683614098565b95508019841693508086168417925050509392505050565b600061411261410d61410884612346565b613670565b612346565b9050919050565b6000819050919050565b61412c836140f7565b61414061413882614119565b8484546140a5565b825550505050565b600090565b614155614148565b614160818484614123565b505050565b5b818110156141845761417960008261414d565b600181019050614166565b5050565b601f8211156141c95761419a81614073565b6141a384614088565b810160208510156141b2578190505b6141c66141be85614088565b830182614165565b50505b505050565b600082821c905092915050565b60006141ec600019846008026141ce565b1980831691505092915050565b600061420583836141db565b9150826002028217905092915050565b61421e826123bc565b67ffffffffffffffff811115614237576142366125e6565b5b6142418254612c7b565b61424c828285614188565b600060209050601f83116001811461427f576000841561426d578287015190505b61427785826141f9565b8655506142df565b601f19841661428d86614073565b60005b828110156142b557848901518255600182019150602085019450602081019050614290565b868310156142d257848901516142ce601f8916826141db565b8355505b6001600288020188555050505b50505050505056fea26469706673582212205ea343f11ebb1448a028d72c7d4c39f7f111870255c71e665756dfb61472f14a64736f6c63430008120033","opcodes":"PUSH1 0x80 PUSH1 0x40 MSTORE PUSH1 0x64 PUSH1 0x68 SSTORE CALLVALUE DUP1 ISZERO PUSH2 0x15 JUMPI PUSH1 0x0 DUP1 REVERT JUMPDEST POP PUSH2 0x431D DUP1 PUSH2 0x25 PUSH1 0x0 CODECOPY PUSH1 0x0 RETURN INVALID PUSH1 0x80 PUSH1 0x40 MSTORE PUSH1 0x4 CALLDATASIZE LT PUSH2 0x123 JUMPI PUSH1 0x0 CALLDATALOAD PUSH1 0xE0 SHR DUP1 PUSH4 0x42966C68 GT PUSH2 0xA0 JUMPI DUP1 PUSH4 0xA457C2D7 GT PUSH2 0x64 JUMPI DUP1 PUSH4 0xA457C2D7 EQ PUSH2 0x3F8 JUMPI DUP1 PUSH4 0xA9059CBB EQ PUSH2 0x435 JUMPI DUP1 PUSH4 0xD505ACCF EQ PUSH2 0x472 JUMPI DUP1 PUSH4 0xDD62ED3E EQ PUSH2 0x49B JUMPI DUP1 PUSH4 0xF0E9FFA9 EQ PUSH2 0x4D8 JUMPI PUSH2 0x12A JUMP JUMPDEST DUP1 PUSH4 0x42966C68 EQ PUSH2 0x2ED JUMPI DUP1 PUSH4 0x70A08231 EQ PUSH2 0x316 JUMPI DUP1 PUSH4 0x73C84F74 EQ PUSH2 0x353 JUMPI DUP1 PUSH4 0x74E87E1E EQ PUSH2 0x390 JUMPI DUP1 PUSH4 0x95D89B41 EQ PUSH2 0x3CD JUMPI PUSH2 0x12A JUMP JUMPDEST DUP1 PUSH4 0x23B872DD GT PUSH2 0xE7 JUMPI DUP1 PUSH4 0x23B872DD EQ PUSH2 0x206 JUMPI DUP1 PUSH4 0x313CE567 EQ PUSH2 0x243 JUMPI DUP1 PUSH4 0x39509351 EQ PUSH2 0x26E JUMPI DUP1 PUSH4 0x3CCFD60B EQ PUSH2 0x2AB JUMPI DUP1 PUSH4 0x410A1095 EQ PUSH2 0x2C2 JUMPI PUSH2 0x12A JUMP JUMPDEST DUP1 PUSH4 0x334A4E4 EQ PUSH2 0x12C JUMPI DUP1 PUSH4 0x6FDDE03 EQ PUSH2 0x155 JUMPI DUP1 PUSH4 0x95EA7B3 EQ PUSH2 0x180 JUMPI DUP1 PUSH4 0x1016E822 EQ PUSH2 0x1BD JUMPI DUP1 PUSH4 0x18160DDD EQ PUSH2 0x1DB JUMPI PUSH2 0x12A JUMP JUMPDEST CALLDATASIZE PUSH2 0x12A JUMPI STOP JUMPDEST STOP JUMPDEST CALLVALUE DUP1 ISZERO PUSH2 0x138 JUMPI PUSH1 0x0 DUP1 REVERT JUMPDEST POP PUSH2 0x153 PUSH1 0x4 DUP1 CALLDATASIZE SUB DUP2 ADD SWAP1 PUSH2 0x14E SWAP2 SWAP1 PUSH2 0x237C JUMP JUMPDEST PUSH2 0x503 JUMP JUMPDEST STOP JUMPDEST CALLVALUE DUP1 ISZERO PUSH2 0x161 JUMPI PUSH1 0x0 DUP1 REVERT JUMPDEST POP PUSH2 0x16A PUSH2 0x6C4 JUMP JUMPDEST PUSH1 0x40 MLOAD PUSH2 0x177 SWAP2 SWAP1 PUSH2 0x244C JUMP JUMPDEST PUSH1 0x40 MLOAD DUP1 SWAP2 SUB SWAP1 RETURN JUMPDEST CALLVALUE DUP1 ISZERO PUSH2 0x18C JUMPI PUSH1 0x0 DUP1 REVERT JUMPDEST POP PUSH2 0x1A7 PUSH1 0x4 DUP1 CALLDATASIZE SUB DUP2 ADD SWAP1 PUSH2 0x1A2 SWAP2 SWAP1 PUSH2 0x237C JUMP JUMPDEST PUSH2 0x756 JUMP JUMPDEST PUSH1 0x40 MLOAD PUSH2 0x1B4 SWAP2 SWAP1 PUSH2 0x2489 JUMP JUMPDEST PUSH1 0x40 MLOAD DUP1 SWAP2 SUB SWAP1 RETURN JUMPDEST PUSH2 0x1C5 PUSH2 0x779 JUMP JUMPDEST PUSH1 0x40 MLOAD PUSH2 0x1D2 SWAP2 SWAP1 PUSH2 0x24B3 JUMP JUMPDEST PUSH1 0x40 MLOAD DUP1 SWAP2 SUB SWAP1 RETURN JUMPDEST CALLVALUE DUP1 ISZERO PUSH2 0x1E7 JUMPI PUSH1 0x0 DUP1 REVERT JUMPDEST POP PUSH2 0x1F0 PUSH2 0x95A JUMP JUMPDEST PUSH1 0x40 MLOAD PUSH2 0x1FD SWAP2 SWAP1 PUSH2 0x24B3 JUMP JUMPDEST PUSH1 0x40 MLOAD DUP1 SWAP2 SUB SWAP1 RETURN JUMPDEST CALLVALUE DUP1 ISZERO PUSH2 0x212 JUMPI PUSH1 0x0 DUP1 REVERT JUMPDEST POP PUSH2 0x22D PUSH1 0x4 DUP1 CALLDATASIZE SUB DUP2 ADD SWAP1 PUSH2 0x228 SWAP2 SWAP1 PUSH2 0x24CE JUMP JUMPDEST PUSH2 0x964 JUMP JUMPDEST PUSH1 0x40 MLOAD PUSH2 0x23A SWAP2 SWAP1 PUSH2 0x2489 JUMP JUMPDEST PUSH1 0x40 MLOAD DUP1 SWAP2 SUB SWAP1 RETURN JUMPDEST CALLVALUE DUP1 ISZERO PUSH2 0x24F JUMPI PUSH1 0x0 DUP1 REVERT JUMPDEST POP PUSH2 0x258 PUSH2 0x993 JUMP JUMPDEST PUSH1 0x40 MLOAD PUSH2 0x265 SWAP2 SWAP1 PUSH2 0x253D JUMP JUMPDEST PUSH1 0x40 MLOAD DUP1 SWAP2 SUB SWAP1 RETURN JUMPDEST CALLVALUE DUP1 ISZERO PUSH2 0x27A JUMPI PUSH1 0x0 DUP1 REVERT JUMPDEST POP PUSH2 0x295 PUSH1 0x4 DUP1 CALLDATASIZE SUB DUP2 ADD SWAP1 PUSH2 0x290 SWAP2 SWAP1 PUSH2 0x237C JUMP JUMPDEST PUSH2 0x99C JUMP JUMPDEST PUSH1 0x40 MLOAD PUSH2 0x2A2 SWAP2 SWAP1 PUSH2 0x2489 JUMP JUMPDEST PUSH1 0x40 MLOAD DUP1 SWAP2 SUB SWAP1 RETURN JUMPDEST CALLVALUE DUP1 ISZERO PUSH2 0x2B7 JUMPI PUSH1 0x0 DUP1 REVERT JUMPDEST POP PUSH2 0x2C0 PUSH2 0x9D3 JUMP JUMPDEST STOP JUMPDEST CALLVALUE DUP1 ISZERO PUSH2 0x2CE JUMPI PUSH1 0x0 DUP1 REVERT JUMPDEST POP PUSH2 0x2D7 PUSH2 0xB8D JUMP JUMPDEST PUSH1 0x40 MLOAD PUSH2 0x2E4 SWAP2 SWAP1 PUSH2 0x2567 JUMP JUMPDEST PUSH1 0x40 MLOAD DUP1 SWAP2 SUB SWAP1 RETURN JUMPDEST CALLVALUE DUP1 ISZERO PUSH2 0x2F9 JUMPI PUSH1 0x0 DUP1 REVERT JUMPDEST POP PUSH2 0x314 PUSH1 0x4 DUP1 CALLDATASIZE SUB DUP2 ADD SWAP1 PUSH2 0x30F SWAP2 SWAP1 PUSH2 0x2582 JUMP JUMPDEST PUSH2 0xBB7 JUMP JUMPDEST STOP JUMPDEST CALLVALUE DUP1 ISZERO PUSH2 0x322 JUMPI PUSH1 0x0 DUP1 REVERT JUMPDEST POP PUSH2 0x33D PUSH1 0x4 DUP1 CALLDATASIZE SUB DUP2 ADD SWAP1 PUSH2 0x338 SWAP2 SWAP1 PUSH2 0x25AF JUMP JUMPDEST PUSH2 0xC54 JUMP JUMPDEST PUSH1 0x40 MLOAD PUSH2 0x34A SWAP2 SWAP1 PUSH2 0x24B3 JUMP JUMPDEST PUSH1 0x40 MLOAD DUP1 SWAP2 SUB SWAP1 RETURN JUMPDEST CALLVALUE DUP1 ISZERO PUSH2 0x35F JUMPI PUSH1 0x0 DUP1 REVERT JUMPDEST POP PUSH2 0x37A PUSH1 0x4 DUP1 CALLDATASIZE SUB DUP2 ADD SWAP1 PUSH2 0x375 SWAP2 SWAP1 PUSH2 0x25AF JUMP JUMPDEST PUSH2 0xC9D JUMP JUMPDEST PUSH1 0x40 MLOAD PUSH2 0x387 SWAP2 SWAP1 PUSH2 0x24B3 JUMP JUMPDEST PUSH1 0x40 MLOAD DUP1 SWAP2 SUB SWAP1 RETURN JUMPDEST CALLVALUE DUP1 ISZERO PUSH2 0x39C JUMPI PUSH1 0x0 DUP1 REVERT JUMPDEST POP PUSH2 0x3B7 PUSH1 0x4 DUP1 CALLDATASIZE SUB DUP2 ADD SWAP1 PUSH2 0x3B2 SWAP2 SWAP1 PUSH2 0x2711 JUMP JUMPDEST PUSH2 0xCB5 JUMP JUMPDEST PUSH1 0x40 MLOAD PUSH2 0x3C4 SWAP2 SWAP1 PUSH2 0x2489 JUMP JUMPDEST PUSH1 0x40 MLOAD DUP1 SWAP2 SUB SWAP1 RETURN JUMPDEST CALLVALUE DUP1 ISZERO PUSH2 0x3D9 JUMPI PUSH1 0x0 DUP1 REVERT JUMPDEST POP PUSH2 0x3E2 PUSH2 0x135D JUMP JUMPDEST PUSH1 0x40 MLOAD PUSH2 0x3EF SWAP2 SWAP1 PUSH2 0x244C JUMP JUMPDEST PUSH1 0x40 MLOAD DUP1 SWAP2 SUB SWAP1 RETURN JUMPDEST CALLVALUE DUP1 ISZERO PUSH2 0x404 JUMPI PUSH1 0x0 DUP1 REVERT JUMPDEST POP PUSH2 0x41F PUSH1 0x4 DUP1 CALLDATASIZE SUB DUP2 ADD SWAP1 PUSH2 0x41A SWAP2 SWAP1 PUSH2 0x237C JUMP JUMPDEST PUSH2 0x13EF JUMP JUMPDEST PUSH1 0x40 MLOAD PUSH2 0x42C SWAP2 SWAP1 PUSH2 0x2489 JUMP JUMPDEST PUSH1 0x40 MLOAD DUP1 SWAP2 SUB SWAP1 RETURN JUMPDEST CALLVALUE DUP1 ISZERO PUSH2 0x441 JUMPI PUSH1 0x0 DUP1 REVERT JUMPDEST POP PUSH2 0x45C PUSH1 0x4 DUP1 CALLDATASIZE SUB DUP2 ADD SWAP1 PUSH2 0x457 SWAP2 SWAP1 PUSH2 0x237C JUMP JUMPDEST PUSH2 0x1466 JUMP JUMPDEST PUSH1 0x40 MLOAD PUSH2 0x469 SWAP2 SWAP1 PUSH2 0x2489 JUMP JUMPDEST PUSH1 0x40 MLOAD DUP1 SWAP2 SUB SWAP1 RETURN JUMPDEST CALLVALUE DUP1 ISZERO PUSH2 0x47E JUMPI PUSH1 0x0 DUP1 REVERT JUMPDEST POP PUSH2 0x499 PUSH1 0x4 DUP1 CALLDATASIZE SUB DUP2 ADD SWAP1 PUSH2 0x494 SWAP2 SWAP1 PUSH2 0x2838 JUMP JUMPDEST PUSH2 0x1489 JUMP JUMPDEST STOP JUMPDEST CALLVALUE DUP1 ISZERO PUSH2 0x4A7 JUMPI PUSH1 0x0 DUP1 REVERT JUMPDEST POP PUSH2 0x4C2 PUSH1 0x4 DUP1 CALLDATASIZE SUB DUP2 ADD SWAP1 PUSH2 0x4BD SWAP2 SWAP1 PUSH2 0x28DA JUMP JUMPDEST PUSH2 0x188D JUMP JUMPDEST PUSH1 0x40 MLOAD PUSH2 0x4CF SWAP2 SWAP1 PUSH2 0x24B3 JUMP JUMPDEST PUSH1 0x40 MLOAD DUP1 SWAP2 SUB SWAP1 RETURN JUMPDEST CALLVALUE DUP1 ISZERO PUSH2 0x4E4 JUMPI PUSH1 0x0 DUP1 REVERT JUMPDEST POP PUSH2 0x4ED PUSH2 0x1914 JUMP JUMPDEST PUSH1 0x40 MLOAD PUSH2 0x4FA SWAP2 SWAP1 PUSH2 0x24B3 JUMP JUMPDEST PUSH1 0x40 MLOAD DUP1 SWAP2 SUB SWAP1 RETURN JUMPDEST PUSH1 0x65 PUSH1 0x0 SWAP1 SLOAD SWAP1 PUSH2 0x100 EXP SWAP1 DIV PUSH20 0xFFFFFFFFFFFFFFFFFFFFFFFFFFFFFFFFFFFFFFFF AND PUSH20 0xFFFFFFFFFFFFFFFFFFFFFFFFFFFFFFFFFFFFFFFF AND PUSH4 0x5245F3BD PUSH1 0x40 MLOAD DUP2 PUSH4 0xFFFFFFFF AND PUSH1 0xE0 SHL DUP2 MSTORE PUSH1 0x4 ADD PUSH1 0x20 PUSH1 0x40 MLOAD DUP1 DUP4 SUB DUP2 DUP7 GAS STATICCALL ISZERO DUP1 ISZERO PUSH2 0x570 JUMPI RETURNDATASIZE PUSH1 0x0 DUP1 RETURNDATACOPY RETURNDATASIZE PUSH1 0x0 REVERT JUMPDEST POP POP POP POP PUSH1 0x40 MLOAD RETURNDATASIZE PUSH1 0x1F NOT PUSH1 0x1F DUP3 ADD AND DUP3 ADD DUP1 PUSH1 0x40 MSTORE POP DUP2 ADD SWAP1 PUSH2 0x594 SWAP2 SWAP1 PUSH2 0x292F JUMP JUMPDEST PUSH20 0xFFFFFFFFFFFFFFFFFFFFFFFFFFFFFFFFFFFFFFFF AND DUP3 PUSH20 0xFFFFFFFFFFFFFFFFFFFFFFFFFFFFFFFFFFFFFFFF AND EQ PUSH2 0x601 JUMPI PUSH1 0x40 MLOAD PUSH32 0x8C379A000000000000000000000000000000000000000000000000000000000 DUP2 MSTORE PUSH1 0x4 ADD PUSH2 0x5F8 SWAP1 PUSH2 0x29A8 JUMP JUMPDEST PUSH1 0x40 MLOAD DUP1 SWAP2 SUB SWAP1 REVERT JUMPDEST PUSH1 0x67 SLOAD PUSH2 0x61E DUP3 PUSH2 0x610 PUSH2 0x95A JUMP JUMPDEST PUSH2 0x191A SWAP1 SWAP2 SWAP1 PUSH4 0xFFFFFFFF AND JUMP JUMPDEST GT ISZERO PUSH2 0x65F JUMPI PUSH1 0x40 MLOAD PUSH32 0x8C379A000000000000000000000000000000000000000000000000000000000 DUP2 MSTORE PUSH1 0x4 ADD PUSH2 0x656 SWAP1 PUSH2 0x2A14 JUMP JUMPDEST PUSH1 0x40 MLOAD DUP1 SWAP2 SUB SWAP1 REVERT JUMPDEST PUSH2 0x687 DUP3 PUSH2 0x66B PUSH2 0x993 JUMP JUMPDEST PUSH1 0xA PUSH2 0x677 SWAP2 SWAP1 PUSH2 0x2B96 JUMP JUMPDEST DUP4 PUSH2 0x682 SWAP2 SWAP1 PUSH2 0x2BE1 JUMP JUMPDEST PUSH2 0x1930 JUMP JUMPDEST PUSH32 0x52277F0B4A9B555C5AA96900A13546F972BDA413737EC164AAC947C87EEC6024 DUP3 DUP3 PUSH1 0x40 MLOAD PUSH2 0x6B8 SWAP3 SWAP2 SWAP1 PUSH2 0x2C23 JUMP JUMPDEST PUSH1 0x40 MLOAD DUP1 SWAP2 SUB SWAP1 LOG1 POP POP JUMP JUMPDEST PUSH1 0x60 PUSH1 0x36 DUP1 SLOAD PUSH2 0x6D3 SWAP1 PUSH2 0x2C7B JUMP JUMPDEST DUP1 PUSH1 0x1F ADD PUSH1 0x20 DUP1 SWAP2 DIV MUL PUSH1 0x20 ADD PUSH1 0x40 MLOAD SWAP1 DUP2 ADD PUSH1 0x40 MSTORE DUP1 SWAP3 SWAP2 SWAP1 DUP2 DUP2 MSTORE PUSH1 0x20 ADD DUP3 DUP1 SLOAD PUSH2 0x6FF SWAP1 PUSH2 0x2C7B JUMP JUMPDEST DUP1 ISZERO PUSH2 0x74C JUMPI DUP1 PUSH1 0x1F LT PUSH2 0x721 JUMPI PUSH2 0x100 DUP1 DUP4 SLOAD DIV MUL DUP4 MSTORE SWAP2 PUSH1 0x20 ADD SWAP2 PUSH2 0x74C JUMP JUMPDEST DUP3 ADD SWAP2 SWAP1 PUSH1 0x0 MSTORE PUSH1 0x20 PUSH1 0x0 KECCAK256 SWAP1 JUMPDEST DUP2 SLOAD DUP2 MSTORE SWAP1 PUSH1 0x1 ADD SWAP1 PUSH1 0x20 ADD DUP1 DUP4 GT PUSH2 0x72F JUMPI DUP3 SWAP1 SUB PUSH1 0x1F AND DUP3 ADD SWAP2 JUMPDEST POP POP POP POP POP SWAP1 POP SWAP1 JUMP JUMPDEST PUSH1 0x0 DUP1 PUSH2 0x761 PUSH2 0x1A87 JUMP JUMPDEST SWAP1 POP PUSH2 0x76E DUP2 DUP6 DUP6 PUSH2 0x1A8F JUMP JUMPDEST PUSH1 0x1 SWAP2 POP POP SWAP3 SWAP2 POP POP JUMP JUMPDEST PUSH1 0x0 DUP1 PUSH20 0xFFFFFFFFFFFFFFFFFFFFFFFFFFFFFFFFFFFFFFFF AND CALLER PUSH20 0xFFFFFFFFFFFFFFFFFFFFFFFFFFFFFFFFFFFFFFFF AND SUB PUSH2 0x7E9 JUMPI PUSH1 0x40 MLOAD PUSH32 0x8C379A000000000000000000000000000000000000000000000000000000000 DUP2 MSTORE PUSH1 0x4 ADD PUSH2 0x7E0 SWAP1 PUSH2 0x2CF8 JUMP JUMPDEST PUSH1 0x40 MLOAD DUP1 SWAP2 SUB SWAP1 REVERT JUMPDEST PUSH1 0x0 CALLVALUE GT PUSH2 0x82C JUMPI PUSH1 0x40 MLOAD PUSH32 0x8C379A000000000000000000000000000000000000000000000000000000000 DUP2 MSTORE PUSH1 0x4 ADD PUSH2 0x823 SWAP1 PUSH2 0x2D8A JUMP JUMPDEST PUSH1 0x40 MLOAD DUP1 SWAP2 SUB SWAP1 REVERT JUMPDEST PUSH1 0x68 SLOAD CALLVALUE PUSH2 0x83A SWAP2 SWAP1 PUSH2 0x2BE1 JUMP JUMPDEST SWAP1 POP DUP1 PUSH2 0x868 PUSH1 0x66 PUSH1 0x0 SWAP1 SLOAD SWAP1 PUSH2 0x100 EXP SWAP1 DIV PUSH20 0xFFFFFFFFFFFFFFFFFFFFFFFFFFFFFFFFFFFFFFFF AND PUSH2 0xC54 JUMP JUMPDEST LT ISZERO PUSH2 0x8A9 JUMPI PUSH1 0x40 MLOAD PUSH32 0x8C379A000000000000000000000000000000000000000000000000000000000 DUP2 MSTORE PUSH1 0x4 ADD PUSH2 0x8A0 SWAP1 PUSH2 0x2E42 JUMP JUMPDEST PUSH1 0x40 MLOAD DUP1 SWAP2 SUB SWAP1 REVERT JUMPDEST PUSH1 0x0 PUSH2 0x8B5 CALLER DUP4 PUSH2 0x1466 JUMP JUMPDEST SWAP1 POP DUP1 PUSH2 0x8F7 JUMPI PUSH1 0x40 MLOAD PUSH32 0x8C379A000000000000000000000000000000000000000000000000000000000 DUP2 MSTORE PUSH1 0x4 ADD PUSH2 0x8EE SWAP1 PUSH2 0x2ED4 JUMP JUMPDEST PUSH1 0x40 MLOAD DUP1 SWAP2 SUB SWAP1 REVERT JUMPDEST PUSH32 0x2B76C454C9582688E8088FEB2D79A17148947856D1890AA012CE16EF8289AD85 PUSH1 0x66 PUSH1 0x0 SWAP1 SLOAD SWAP1 PUSH2 0x100 EXP SWAP1 DIV PUSH20 0xFFFFFFFFFFFFFFFFFFFFFFFFFFFFFFFFFFFFFFFF AND CALLER CALLVALUE DUP6 PUSH1 0x40 MLOAD PUSH2 0x94E SWAP5 SWAP4 SWAP3 SWAP2 SWAP1 PUSH2 0x2EF4 JUMP JUMPDEST PUSH1 0x40 MLOAD DUP1 SWAP2 SUB SWAP1 LOG1 POP SWAP1 JUMP JUMPDEST PUSH1 0x0 PUSH1 0x35 SLOAD SWAP1 POP SWAP1 JUMP JUMPDEST PUSH1 0x0 DUP1 PUSH2 0x96F PUSH2 0x1A87 JUMP JUMPDEST SWAP1 POP PUSH2 0x97C DUP6 DUP3 DUP6 PUSH2 0x1C58 JUMP JUMPDEST PUSH2 0x987 DUP6 DUP6 DUP6 PUSH2 0x1CE4 JUMP JUMPDEST PUSH1 0x1 SWAP2 POP POP SWAP4 SWAP3 POP POP POP JUMP JUMPDEST PUSH1 0x0 PUSH1 0x12 SWAP1 POP SWAP1 JUMP JUMPDEST PUSH1 0x0 DUP1 PUSH2 0x9A7 PUSH2 0x1A87 JUMP JUMPDEST SWAP1 POP PUSH2 0x9C8 DUP2 DUP6 DUP6 PUSH2 0x9B9 DUP6 DUP10 PUSH2 0x188D JUMP JUMPDEST PUSH2 0x9C3 SWAP2 SWAP1 PUSH2 0x2F39 JUMP JUMPDEST PUSH2 0x1A8F JUMP JUMPDEST PUSH1 0x1 SWAP2 POP POP SWAP3 SWAP2 POP POP JUMP JUMPDEST PUSH1 0x65 PUSH1 0x0 SWAP1 SLOAD SWAP1 PUSH2 0x100 EXP SWAP1 DIV PUSH20 0xFFFFFFFFFFFFFFFFFFFFFFFFFFFFFFFFFFFFFFFF AND PUSH20 0xFFFFFFFFFFFFFFFFFFFFFFFFFFFFFFFFFFFFFFFF AND PUSH4 0x5245F3BD PUSH1 0x40 MLOAD DUP2 PUSH4 0xFFFFFFFF AND PUSH1 0xE0 SHL DUP2 MSTORE PUSH1 0x4 ADD PUSH1 0x20 PUSH1 0x40 MLOAD DUP1 DUP4 SUB DUP2 DUP7 GAS STATICCALL ISZERO DUP1 ISZERO PUSH2 0xA40 JUMPI RETURNDATASIZE PUSH1 0x0 DUP1 RETURNDATACOPY RETURNDATASIZE PUSH1 0x0 REVERT JUMPDEST POP POP POP POP PUSH1 0x40 MLOAD RETURNDATASIZE PUSH1 0x1F NOT PUSH1 0x1F DUP3 ADD AND DUP3 ADD DUP1 PUSH1 0x40 MSTORE POP DUP2 ADD SWAP1 PUSH2 0xA64 SWAP2 SWAP1 PUSH2 0x292F JUMP JUMPDEST PUSH20 0xFFFFFFFFFFFFFFFFFFFFFFFFFFFFFFFFFFFFFFFF AND CALLER PUSH20 0xFFFFFFFFFFFFFFFFFFFFFFFFFFFFFFFFFFFFFFFF AND EQ PUSH2 0xA9B JUMPI PUSH1 0x0 DUP1 REVERT JUMPDEST PUSH1 0x0 SELFBALANCE GT PUSH2 0xADE JUMPI PUSH1 0x40 MLOAD PUSH32 0x8C379A000000000000000000000000000000000000000000000000000000000 DUP2 MSTORE PUSH1 0x4 ADD PUSH2 0xAD5 SWAP1 PUSH2 0x2FB9 JUMP JUMPDEST PUSH1 0x40 MLOAD DUP1 SWAP2 SUB SWAP1 REVERT JUMPDEST PUSH1 0x0 CALLER PUSH20 0xFFFFFFFFFFFFFFFFFFFFFFFFFFFFFFFFFFFFFFFF AND SELFBALANCE PUSH1 0x40 MLOAD PUSH2 0xB04 SWAP1 PUSH2 0x300A JUMP JUMPDEST PUSH1 0x0 PUSH1 0x40 MLOAD DUP1 DUP4 SUB DUP2 DUP6 DUP8 GAS CALL SWAP3 POP POP POP RETURNDATASIZE DUP1 PUSH1 0x0 DUP2 EQ PUSH2 0xB41 JUMPI PUSH1 0x40 MLOAD SWAP2 POP PUSH1 0x1F NOT PUSH1 0x3F RETURNDATASIZE ADD AND DUP3 ADD PUSH1 0x40 MSTORE RETURNDATASIZE DUP3 MSTORE RETURNDATASIZE PUSH1 0x0 PUSH1 0x20 DUP5 ADD RETURNDATACOPY PUSH2 0xB46 JUMP JUMPDEST PUSH1 0x60 SWAP2 POP JUMPDEST POP POP SWAP1 POP DUP1 PUSH2 0xB8A JUMPI PUSH1 0x40 MLOAD PUSH32 0x8C379A000000000000000000000000000000000000000000000000000000000 DUP2 MSTORE PUSH1 0x4 ADD PUSH2 0xB81 SWAP1 PUSH2 0x306B JUMP JUMPDEST PUSH1 0x40 MLOAD DUP1 SWAP2 SUB SWAP1 REVERT JUMPDEST POP JUMP JUMPDEST PUSH1 0x0 PUSH1 0x66 PUSH1 0x0 SWAP1 SLOAD SWAP1 PUSH2 0x100 EXP SWAP1 DIV PUSH20 0xFFFFFFFFFFFFFFFFFFFFFFFFFFFFFFFFFFFFFFFF AND SWAP1 POP SWAP1 JUMP JUMPDEST PUSH1 0x66 PUSH1 0x0 SWAP1 SLOAD SWAP1 PUSH2 0x100 EXP SWAP1 DIV PUSH20 0xFFFFFFFFFFFFFFFFFFFFFFFFFFFFFFFFFFFFFFFF AND PUSH20 0xFFFFFFFFFFFFFFFFFFFFFFFFFFFFFFFFFFFFFFFF AND CALLER PUSH20 0xFFFFFFFFFFFFFFFFFFFFFFFFFFFFFFFFFFFFFFFF AND EQ PUSH2 0xC47 JUMPI PUSH1 0x40 MLOAD PUSH32 0x8C379A000000000000000000000000000000000000000000000000000000000 DUP2 MSTORE PUSH1 0x4 ADD PUSH2 0xC3E SWAP1 PUSH2 0x30D7 JUMP JUMPDEST PUSH1 0x40 MLOAD DUP1 SWAP2 SUB SWAP1 REVERT JUMPDEST PUSH2 0xC51 CALLER DUP3 PUSH2 0x1F5D JUMP JUMPDEST POP JUMP JUMPDEST PUSH1 0x0 PUSH1 0x33 PUSH1 0x0 DUP4 PUSH20 0xFFFFFFFFFFFFFFFFFFFFFFFFFFFFFFFFFFFFFFFF AND PUSH20 0xFFFFFFFFFFFFFFFFFFFFFFFFFFFFFFFFFFFFFFFF AND DUP2 MSTORE PUSH1 0x20 ADD SWAP1 DUP2 MSTORE PUSH1 0x20 ADD PUSH1 0x0 KECCAK256 SLOAD SWAP1 POP SWAP2 SWAP1 POP JUMP JUMPDEST PUSH1 0x69 PUSH1 0x20 MSTORE DUP1 PUSH1 0x0 MSTORE PUSH1 0x40 PUSH1 0x0 KECCAK256 PUSH1 0x0 SWAP2 POP SWAP1 POP SLOAD DUP2 JUMP JUMPDEST PUSH1 0x0 DUP1 PUSH1 0x0 PUSH1 0x1 SWAP1 SLOAD SWAP1 PUSH2 0x100 EXP SWAP1 DIV PUSH1 0xFF AND ISZERO SWAP1 POP DUP1 DUP1 ISZERO PUSH2 0xCE8 JUMPI POP PUSH1 0x1 PUSH1 0x0 DUP1 SLOAD SWAP1 PUSH2 0x100 EXP SWAP1 DIV PUSH1 0xFF AND PUSH1 0xFF AND LT JUMPDEST DUP1 PUSH2 0xD15 JUMPI POP PUSH2 0xCF7 ADDRESS PUSH2 0x212C JUMP JUMPDEST ISZERO DUP1 ISZERO PUSH2 0xD14 JUMPI POP PUSH1 0x1 PUSH1 0x0 DUP1 SLOAD SWAP1 PUSH2 0x100 EXP SWAP1 DIV PUSH1 0xFF AND PUSH1 0xFF AND EQ JUMPDEST JUMPDEST PUSH2 0xD54 JUMPI PUSH1 0x40 MLOAD PUSH32 0x8C379A000000000000000000000000000000000000000000000000000000000 DUP2 MSTORE PUSH1 0x4 ADD PUSH2 0xD4B SWAP1 PUSH2 0x3169 JUMP JUMPDEST PUSH1 0x40 MLOAD DUP1 SWAP2 SUB SWAP1 REVERT JUMPDEST PUSH1 0x1 PUSH1 0x0 DUP1 PUSH2 0x100 EXP DUP2 SLOAD DUP2 PUSH1 0xFF MUL NOT AND SWAP1 DUP4 PUSH1 0xFF AND MUL OR SWAP1 SSTORE POP DUP1 ISZERO PUSH2 0xD91 JUMPI PUSH1 0x1 PUSH1 0x0 PUSH1 0x1 PUSH2 0x100 EXP DUP2 SLOAD DUP2 PUSH1 0xFF MUL NOT AND SWAP1 DUP4 ISZERO ISZERO MUL OR SWAP1 SSTORE POP JUMPDEST PUSH1 0x0 PUSH20 0xFFFFFFFFFFFFFFFFFFFFFFFFFFFFFFFFFFFFFFFF AND DUP7 PUSH20 0xFFFFFFFFFFFFFFFFFFFFFFFFFFFFFFFFFFFFFFFF AND SUB PUSH2 0xE00 JUMPI PUSH1 0x40 MLOAD PUSH32 0x8C379A000000000000000000000000000000000000000000000000000000000 DUP2 MSTORE PUSH1 0x4 ADD PUSH2 0xDF7 SWAP1 PUSH2 0x31D5 JUMP JUMPDEST PUSH1 0x40 MLOAD DUP1 SWAP2 SUB SWAP1 REVERT JUMPDEST ADDRESS PUSH20 0xFFFFFFFFFFFFFFFFFFFFFFFFFFFFFFFFFFFFFFFF AND DUP7 PUSH20 0xFFFFFFFFFFFFFFFFFFFFFFFFFFFFFFFFFFFFFFFF AND SUB PUSH2 0xE6E JUMPI PUSH1 0x40 MLOAD PUSH32 0x8C379A000000000000000000000000000000000000000000000000000000000 DUP2 MSTORE PUSH1 0x4 ADD PUSH2 0xE65 SWAP1 PUSH2 0x3267 JUMP JUMPDEST PUSH1 0x40 MLOAD DUP1 SWAP2 SUB SWAP1 REVERT JUMPDEST DUP5 PUSH20 0xFFFFFFFFFFFFFFFFFFFFFFFFFFFFFFFFFFFFFFFF AND PUSH4 0x5245F3BD PUSH1 0x40 MLOAD DUP2 PUSH4 0xFFFFFFFF AND PUSH1 0xE0 SHL DUP2 MSTORE PUSH1 0x4 ADD PUSH1 0x20 PUSH1 0x40 MLOAD DUP1 DUP4 SUB DUP2 DUP7 GAS STATICCALL ISZERO DUP1 ISZERO PUSH2 0xEB9 JUMPI RETURNDATASIZE PUSH1 0x0 DUP1 RETURNDATACOPY RETURNDATASIZE PUSH1 0x0 REVERT JUMPDEST POP POP POP POP PUSH1 0x40 MLOAD RETURNDATASIZE PUSH1 0x1F NOT PUSH1 0x1F DUP3 ADD AND DUP3 ADD DUP1 PUSH1 0x40 MSTORE POP DUP2 ADD SWAP1 PUSH2 0xEDD SWAP2 SWAP1 PUSH2 0x292F JUMP JUMPDEST PUSH20 0xFFFFFFFFFFFFFFFFFFFFFFFFFFFFFFFFFFFFFFFF AND DUP7 PUSH20 0xFFFFFFFFFFFFFFFFFFFFFFFFFFFFFFFFFFFFFFFF AND EQ PUSH2 0xF4A JUMPI PUSH1 0x40 MLOAD PUSH32 0x8C379A000000000000000000000000000000000000000000000000000000000 DUP2 MSTORE PUSH1 0x4 ADD PUSH2 0xF41 SWAP1 PUSH2 0x32D3 JUMP JUMPDEST PUSH1 0x40 MLOAD DUP1 SWAP2 SUB SWAP1 REVERT JUMPDEST PUSH1 0x0 PUSH20 0xFFFFFFFFFFFFFFFFFFFFFFFFFFFFFFFFFFFFFFFF AND DUP6 PUSH20 0xFFFFFFFFFFFFFFFFFFFFFFFFFFFFFFFFFFFFFFFF AND SUB PUSH2 0xFB9 JUMPI PUSH1 0x40 MLOAD PUSH32 0x8C379A000000000000000000000000000000000000000000000000000000000 DUP2 MSTORE PUSH1 0x4 ADD PUSH2 0xFB0 SWAP1 PUSH2 0x3365 JUMP JUMPDEST PUSH1 0x40 MLOAD DUP1 SWAP2 SUB SWAP1 REVERT JUMPDEST PUSH1 0x0 DUP5 GT PUSH2 0xFFC JUMPI PUSH1 0x40 MLOAD PUSH32 0x8C379A000000000000000000000000000000000000000000000000000000000 DUP2 MSTORE PUSH1 0x4 ADD PUSH2 0xFF3 SWAP1 PUSH2 0x33D1 JUMP JUMPDEST PUSH1 0x40 MLOAD DUP1 SWAP2 SUB SWAP1 REVERT JUMPDEST PUSH1 0x0 DUP4 LT ISZERO PUSH2 0x1040 JUMPI PUSH1 0x40 MLOAD PUSH32 0x8C379A000000000000000000000000000000000000000000000000000000000 DUP2 MSTORE PUSH1 0x4 ADD PUSH2 0x1037 SWAP1 PUSH2 0x3463 JUMP JUMPDEST PUSH1 0x40 MLOAD DUP1 SWAP2 SUB SWAP1 REVERT JUMPDEST DUP4 DUP4 GT ISZERO PUSH2 0x1083 JUMPI PUSH1 0x40 MLOAD PUSH32 0x8C379A000000000000000000000000000000000000000000000000000000000 DUP2 MSTORE PUSH1 0x4 ADD PUSH2 0x107A SWAP1 PUSH2 0x34F5 JUMP JUMPDEST PUSH1 0x40 MLOAD DUP1 SWAP2 SUB SWAP1 REVERT JUMPDEST PUSH2 0x108D DUP9 DUP9 PUSH2 0x214F JUMP JUMPDEST DUP5 PUSH1 0x65 PUSH1 0x0 PUSH2 0x100 EXP DUP2 SLOAD DUP2 PUSH20 0xFFFFFFFFFFFFFFFFFFFFFFFFFFFFFFFFFFFFFFFF MUL NOT AND SWAP1 DUP4 PUSH20 0xFFFFFFFFFFFFFFFFFFFFFFFFFFFFFFFFFFFFFFFF AND MUL OR SWAP1 SSTORE POP DUP6 PUSH1 0x66 PUSH1 0x0 PUSH2 0x100 EXP DUP2 SLOAD DUP2 PUSH20 0xFFFFFFFFFFFFFFFFFFFFFFFFFFFFFFFFFFFFFFFF MUL NOT AND SWAP1 DUP4 PUSH20 0xFFFFFFFFFFFFFFFFFFFFFFFFFFFFFFFFFFFFFFFF AND MUL OR SWAP1 SSTORE POP DUP4 PUSH1 0x67 DUP2 SWAP1 SSTORE POP PUSH2 0x1160 PUSH1 0x66 PUSH1 0x0 SWAP1 SLOAD SWAP1 PUSH2 0x100 EXP SWAP1 DIV PUSH20 0xFFFFFFFFFFFFFFFFFFFFFFFFFFFFFFFFFFFFFFFF AND PUSH2 0x1144 PUSH2 0x993 JUMP JUMPDEST PUSH1 0xA PUSH2 0x1150 SWAP2 SWAP1 PUSH2 0x2B96 JUMP JUMPDEST DUP6 PUSH2 0x115B SWAP2 SWAP1 PUSH2 0x2BE1 JUMP JUMPDEST PUSH2 0x1930 JUMP JUMPDEST PUSH2 0x1168 PUSH2 0x993 JUMP JUMPDEST PUSH1 0xA PUSH2 0x1174 SWAP2 SWAP1 PUSH2 0x2B96 JUMP JUMPDEST DUP4 PUSH2 0x117F SWAP2 SWAP1 PUSH2 0x2BE1 JUMP JUMPDEST PUSH2 0x1187 PUSH2 0x95A JUMP JUMPDEST EQ PUSH2 0x11C7 JUMPI PUSH1 0x40 MLOAD PUSH32 0x8C379A000000000000000000000000000000000000000000000000000000000 DUP2 MSTORE PUSH1 0x4 ADD PUSH2 0x11BE SWAP1 PUSH2 0x3587 JUMP JUMPDEST PUSH1 0x40 MLOAD DUP1 SWAP2 SUB SWAP1 REVERT JUMPDEST PUSH2 0x11CF PUSH2 0x993 JUMP JUMPDEST PUSH1 0xA PUSH2 0x11DB SWAP2 SWAP1 PUSH2 0x2B96 JUMP JUMPDEST DUP4 PUSH2 0x11E6 SWAP2 SWAP1 PUSH2 0x2BE1 JUMP JUMPDEST PUSH2 0x1211 PUSH1 0x66 PUSH1 0x0 SWAP1 SLOAD SWAP1 PUSH2 0x100 EXP SWAP1 DIV PUSH20 0xFFFFFFFFFFFFFFFFFFFFFFFFFFFFFFFFFFFFFFFF AND PUSH2 0xC54 JUMP JUMPDEST EQ PUSH2 0x1251 JUMPI PUSH1 0x40 MLOAD PUSH32 0x8C379A000000000000000000000000000000000000000000000000000000000 DUP2 MSTORE PUSH1 0x4 ADD PUSH2 0x1248 SWAP1 PUSH2 0x35F3 JUMP JUMPDEST PUSH1 0x40 MLOAD DUP1 SWAP2 SUB SWAP1 REVERT JUMPDEST PUSH1 0x0 PUSH1 0x69 PUSH1 0x0 PUSH1 0x66 PUSH1 0x0 SWAP1 SLOAD SWAP1 PUSH2 0x100 EXP SWAP1 DIV PUSH20 0xFFFFFFFFFFFFFFFFFFFFFFFFFFFFFFFFFFFFFFFF AND PUSH20 0xFFFFFFFFFFFFFFFFFFFFFFFFFFFFFFFFFFFFFFFF AND PUSH20 0xFFFFFFFFFFFFFFFFFFFFFFFFFFFFFFFFFFFFFFFF AND DUP2 MSTORE PUSH1 0x20 ADD SWAP1 DUP2 MSTORE PUSH1 0x20 ADD PUSH1 0x0 KECCAK256 DUP2 SWAP1 SSTORE POP PUSH32 0x321F9E8CB5E8CC3BC115D8CD4E1AB42538D6AE9308998E65A66C65E11A6B7E1C DUP9 DUP9 DUP9 DUP7 PUSH1 0x40 MLOAD PUSH2 0x12ED SWAP5 SWAP4 SWAP3 SWAP2 SWAP1 PUSH2 0x3613 JUMP JUMPDEST PUSH1 0x40 MLOAD DUP1 SWAP2 SUB SWAP1 LOG1 PUSH1 0x1 SWAP2 POP DUP1 ISZERO PUSH2 0x1352 JUMPI PUSH1 0x0 DUP1 PUSH1 0x1 PUSH2 0x100 EXP DUP2 SLOAD DUP2 PUSH1 0xFF MUL NOT AND SWAP1 DUP4 ISZERO ISZERO MUL OR SWAP1 SSTORE POP PUSH32 0x7F26B83FF96E1F2B6A682F133852F6798A09C465DA95921460CEFB3847402498 PUSH1 0x1 PUSH1 0x40 MLOAD PUSH2 0x1349 SWAP2 SWAP1 PUSH2 0x36AB JUMP JUMPDEST PUSH1 0x40 MLOAD DUP1 SWAP2 SUB SWAP1 LOG1 JUMPDEST POP SWAP7 SWAP6 POP POP POP POP POP POP JUMP JUMPDEST PUSH1 0x60 PUSH1 0x37 DUP1 SLOAD PUSH2 0x136C SWAP1 PUSH2 0x2C7B JUMP JUMPDEST DUP1 PUSH1 0x1F ADD PUSH1 0x20 DUP1 SWAP2 DIV MUL PUSH1 0x20 ADD PUSH1 0x40 MLOAD SWAP1 DUP2 ADD PUSH1 0x40 MSTORE DUP1 SWAP3 SWAP2 SWAP1 DUP2 DUP2 MSTORE PUSH1 0x20 ADD DUP3 DUP1 SLOAD PUSH2 0x1398 SWAP1 PUSH2 0x2C7B JUMP JUMPDEST DUP1 ISZERO PUSH2 0x13E5 JUMPI DUP1 PUSH1 0x1F LT PUSH2 0x13BA JUMPI PUSH2 0x100 DUP1 DUP4 SLOAD DIV MUL DUP4 MSTORE SWAP2 PUSH1 0x20 ADD SWAP2 PUSH2 0x13E5 JUMP JUMPDEST DUP3 ADD SWAP2 SWAP1 PUSH1 0x0 MSTORE PUSH1 0x20 PUSH1 0x0 KECCAK256 SWAP1 JUMPDEST DUP2 SLOAD DUP2 MSTORE SWAP1 PUSH1 0x1 ADD SWAP1 PUSH1 0x20 ADD DUP1 DUP4 GT PUSH2 0x13C8 JUMPI DUP3 SWAP1 SUB PUSH1 0x1F AND DUP3 ADD SWAP2 JUMPDEST POP POP POP POP POP SWAP1 POP SWAP1 JUMP JUMPDEST PUSH1 0x0 DUP1 PUSH2 0x13FA PUSH2 0x1A87 JUMP JUMPDEST SWAP1 POP PUSH1 0x0 PUSH2 0x1408 DUP3 DUP7 PUSH2 0x188D JUMP JUMPDEST SWAP1 POP DUP4 DUP2 LT ISZERO PUSH2 0x144D JUMPI PUSH1 0x40 MLOAD PUSH32 0x8C379A000000000000000000000000000000000000000000000000000000000 DUP2 MSTORE PUSH1 0x4 ADD PUSH2 0x1444 SWAP1 PUSH2 0x3738 JUMP JUMPDEST PUSH1 0x40 MLOAD DUP1 SWAP2 SUB SWAP1 REVERT JUMPDEST PUSH2 0x145A DUP3 DUP7 DUP7 DUP5 SUB PUSH2 0x1A8F JUMP JUMPDEST PUSH1 0x1 SWAP3 POP POP POP SWAP3 SWAP2 POP POP JUMP JUMPDEST PUSH1 0x0 DUP1 PUSH2 0x1471 PUSH2 0x1A87 JUMP JUMPDEST SWAP1 POP PUSH2 0x147E DUP2 DUP6 DUP6 PUSH2 0x1CE4 JUMP JUMPDEST PUSH1 0x1 SWAP2 POP POP SWAP3 SWAP2 POP POP JUMP JUMPDEST NUMBER DUP5 LT ISZERO PUSH2 0x14CC JUMPI PUSH1 0x40 MLOAD PUSH32 0x8C379A000000000000000000000000000000000000000000000000000000000 DUP2 MSTORE PUSH1 0x4 ADD PUSH2 0x14C3 SWAP1 PUSH2 0x37A4 JUMP JUMPDEST PUSH1 0x40 MLOAD DUP1 SWAP2 SUB SWAP1 REVERT JUMPDEST PUSH1 0x65 PUSH1 0x0 SWAP1 SLOAD SWAP1 PUSH2 0x100 EXP SWAP1 DIV PUSH20 0xFFFFFFFFFFFFFFFFFFFFFFFFFFFFFFFFFFFFFFFF AND PUSH20 0xFFFFFFFFFFFFFFFFFFFFFFFFFFFFFFFFFFFFFFFF AND PUSH4 0x5245F3BD PUSH1 0x40 MLOAD DUP2 PUSH4 0xFFFFFFFF AND PUSH1 0xE0 SHL DUP2 MSTORE PUSH1 0x4 ADD PUSH1 0x20 PUSH1 0x40 MLOAD DUP1 DUP4 SUB DUP2 DUP7 GAS STATICCALL ISZERO DUP1 ISZERO PUSH2 0x1539 JUMPI RETURNDATASIZE PUSH1 0x0 DUP1 RETURNDATACOPY RETURNDATASIZE PUSH1 0x0 REVERT JUMPDEST POP POP POP POP PUSH1 0x40 MLOAD RETURNDATASIZE PUSH1 0x1F NOT PUSH1 0x1F DUP3 ADD AND DUP3 ADD DUP1 PUSH1 0x40 MSTORE POP DUP2 ADD SWAP1 PUSH2 0x155D SWAP2 SWAP1 PUSH2 0x292F JUMP JUMPDEST PUSH20 0xFFFFFFFFFFFFFFFFFFFFFFFFFFFFFFFFFFFFFFFF AND DUP8 PUSH20 0xFFFFFFFFFFFFFFFFFFFFFFFFFFFFFFFFFFFFFFFF AND EQ PUSH2 0x15CA JUMPI PUSH1 0x40 MLOAD PUSH32 0x8C379A000000000000000000000000000000000000000000000000000000000 DUP2 MSTORE PUSH1 0x4 ADD PUSH2 0x15C1 SWAP1 PUSH2 0x3810 JUMP JUMPDEST PUSH1 0x40 MLOAD DUP1 SWAP2 SUB SWAP1 REVERT JUMPDEST PUSH1 0x0 PUSH1 0x69 PUSH1 0x0 DUP10 PUSH20 0xFFFFFFFFFFFFFFFFFFFFFFFFFFFFFFFFFFFFFFFF AND PUSH20 0xFFFFFFFFFFFFFFFFFFFFFFFFFFFFFFFFFFFFFFFF AND DUP2 MSTORE PUSH1 0x20 ADD SWAP1 DUP2 MSTORE PUSH1 0x20 ADD PUSH1 0x0 KECCAK256 SLOAD SWAP1 POP PUSH1 0x0 PUSH2 0x1618 PUSH2 0x21AC JUMP JUMPDEST SWAP1 POP PUSH1 0x0 DUP2 PUSH32 0x6E71EDAE12B1B97F4D1F60370FEF10105FA2FAAE0126114A169C64845D6126C9 DUP12 DUP12 DUP12 DUP8 DUP13 PUSH1 0x40 MLOAD PUSH1 0x20 ADD PUSH2 0x1658 SWAP7 SWAP6 SWAP5 SWAP4 SWAP3 SWAP2 SWAP1 PUSH2 0x383F JUMP JUMPDEST PUSH1 0x40 MLOAD PUSH1 0x20 DUP2 DUP4 SUB SUB DUP2 MSTORE SWAP1 PUSH1 0x40 MSTORE DUP1 MLOAD SWAP1 PUSH1 0x20 ADD KECCAK256 PUSH1 0x40 MLOAD PUSH1 0x20 ADD PUSH2 0x167F SWAP3 SWAP2 SWAP1 PUSH2 0x3918 JUMP JUMPDEST PUSH1 0x40 MLOAD PUSH1 0x20 DUP2 DUP4 SUB SUB DUP2 MSTORE SWAP1 PUSH1 0x40 MSTORE DUP1 MLOAD SWAP1 PUSH1 0x20 ADD KECCAK256 SWAP1 POP PUSH1 0x1 PUSH1 0x69 PUSH1 0x0 DUP13 PUSH20 0xFFFFFFFFFFFFFFFFFFFFFFFFFFFFFFFFFFFFFFFF AND PUSH20 0xFFFFFFFFFFFFFFFFFFFFFFFFFFFFFFFFFFFFFFFF AND DUP2 MSTORE PUSH1 0x20 ADD SWAP1 DUP2 MSTORE PUSH1 0x20 ADD PUSH1 0x0 KECCAK256 PUSH1 0x0 DUP3 DUP3 SLOAD PUSH2 0x16E7 SWAP2 SWAP1 PUSH2 0x2F39 JUMP JUMPDEST SWAP3 POP POP DUP2 SWAP1 SSTORE POP PUSH1 0x1 DUP4 PUSH2 0x16FB SWAP2 SWAP1 PUSH2 0x2F39 JUMP JUMPDEST PUSH1 0x69 PUSH1 0x0 DUP13 PUSH20 0xFFFFFFFFFFFFFFFFFFFFFFFFFFFFFFFFFFFFFFFF AND PUSH20 0xFFFFFFFFFFFFFFFFFFFFFFFFFFFFFFFFFFFFFFFF AND DUP2 MSTORE PUSH1 0x20 ADD SWAP1 DUP2 MSTORE PUSH1 0x20 ADD PUSH1 0x0 KECCAK256 SLOAD EQ PUSH2 0x177B JUMPI PUSH1 0x40 MLOAD PUSH32 0x8C379A000000000000000000000000000000000000000000000000000000000 DUP2 MSTORE PUSH1 0x4 ADD PUSH2 0x1772 SWAP1 PUSH2 0x39C1 JUMP JUMPDEST PUSH1 0x40 MLOAD DUP1 SWAP2 SUB SWAP1 REVERT JUMPDEST PUSH1 0x0 PUSH1 0x1 DUP3 DUP9 DUP9 DUP9 PUSH1 0x40 MLOAD PUSH1 0x0 DUP2 MSTORE PUSH1 0x20 ADD PUSH1 0x40 MSTORE PUSH1 0x40 MLOAD PUSH2 0x17A0 SWAP5 SWAP4 SWAP3 SWAP2 SWAP1 PUSH2 0x39E1 JUMP JUMPDEST PUSH1 0x20 PUSH1 0x40 MLOAD PUSH1 0x20 DUP2 SUB SWAP1 DUP1 DUP5 SUB SWAP1 DUP6 GAS STATICCALL ISZERO DUP1 ISZERO PUSH2 0x17C2 JUMPI RETURNDATASIZE PUSH1 0x0 DUP1 RETURNDATACOPY RETURNDATASIZE PUSH1 0x0 REVERT JUMPDEST POP POP POP PUSH1 0x20 PUSH1 0x40 MLOAD SUB MLOAD SWAP1 POP PUSH1 0x0 PUSH20 0xFFFFFFFFFFFFFFFFFFFFFFFFFFFFFFFFFFFFFFFF AND DUP2 PUSH20 0xFFFFFFFFFFFFFFFFFFFFFFFFFFFFFFFFFFFFFFFF AND EQ ISZERO DUP1 ISZERO PUSH2 0x1836 JUMPI POP DUP11 PUSH20 0xFFFFFFFFFFFFFFFFFFFFFFFFFFFFFFFFFFFFFFFF AND DUP2 PUSH20 0xFFFFFFFFFFFFFFFFFFFFFFFFFFFFFFFFFFFFFFFF AND EQ JUMPDEST PUSH2 0x1875 JUMPI PUSH1 0x40 MLOAD PUSH32 0x8C379A000000000000000000000000000000000000000000000000000000000 DUP2 MSTORE PUSH1 0x4 ADD PUSH2 0x186C SWAP1 PUSH2 0x3A98 JUMP JUMPDEST PUSH1 0x40 MLOAD DUP1 SWAP2 SUB SWAP1 REVERT JUMPDEST PUSH2 0x1880 DUP12 DUP12 DUP12 PUSH2 0x1A8F JUMP JUMPDEST POP POP POP POP POP POP POP POP POP POP POP JUMP JUMPDEST PUSH1 0x0 PUSH1 0x34 PUSH1 0x0 DUP5 PUSH20 0xFFFFFFFFFFFFFFFFFFFFFFFFFFFFFFFFFFFFFFFF AND PUSH20 0xFFFFFFFFFFFFFFFFFFFFFFFFFFFFFFFFFFFFFFFF AND DUP2 MSTORE PUSH1 0x20 ADD SWAP1 DUP2 MSTORE PUSH1 0x20 ADD PUSH1 0x0 KECCAK256 PUSH1 0x0 DUP4 PUSH20 0xFFFFFFFFFFFFFFFFFFFFFFFFFFFFFFFFFFFFFFFF AND PUSH20 0xFFFFFFFFFFFFFFFFFFFFFFFFFFFFFFFFFFFFFFFF AND DUP2 MSTORE PUSH1 0x20 ADD SWAP1 DUP2 MSTORE PUSH1 0x20 ADD PUSH1 0x0 KECCAK256 SLOAD SWAP1 POP SWAP3 SWAP2 POP POP JUMP JUMPDEST PUSH1 0x68 SLOAD DUP2 JUMP JUMPDEST PUSH1 0x0 DUP2 DUP4 PUSH2 0x1928 SWAP2 SWAP1 PUSH2 0x2F39 JUMP JUMPDEST SWAP1 POP SWAP3 SWAP2 POP POP JUMP JUMPDEST PUSH1 0x0 PUSH20 0xFFFFFFFFFFFFFFFFFFFFFFFFFFFFFFFFFFFFFFFF AND DUP3 PUSH20 0xFFFFFFFFFFFFFFFFFFFFFFFFFFFFFFFFFFFFFFFF AND SUB PUSH2 0x199F JUMPI PUSH1 0x40 MLOAD PUSH32 0x8C379A000000000000000000000000000000000000000000000000000000000 DUP2 MSTORE PUSH1 0x4 ADD PUSH2 0x1996 SWAP1 PUSH2 0x3B04 JUMP JUMPDEST PUSH1 0x40 MLOAD DUP1 SWAP2 SUB SWAP1 REVERT JUMPDEST PUSH2 0x19AB PUSH1 0x0 DUP4 DUP4 PUSH2 0x2257 JUMP JUMPDEST DUP1 PUSH1 0x35 PUSH1 0x0 DUP3 DUP3 SLOAD PUSH2 0x19BD SWAP2 SWAP1 PUSH2 0x2F39 JUMP JUMPDEST SWAP3 POP POP DUP2 SWAP1 SSTORE POP DUP1 PUSH1 0x33 PUSH1 0x0 DUP5 PUSH20 0xFFFFFFFFFFFFFFFFFFFFFFFFFFFFFFFFFFFFFFFF AND PUSH20 0xFFFFFFFFFFFFFFFFFFFFFFFFFFFFFFFFFFFFFFFF AND DUP2 MSTORE PUSH1 0x20 ADD SWAP1 DUP2 MSTORE PUSH1 0x20 ADD PUSH1 0x0 KECCAK256 PUSH1 0x0 DUP3 DUP3 SLOAD ADD SWAP3 POP POP DUP2 SWAP1 SSTORE POP DUP2 PUSH20 0xFFFFFFFFFFFFFFFFFFFFFFFFFFFFFFFFFFFFFFFF AND PUSH1 0x0 PUSH20 0xFFFFFFFFFFFFFFFFFFFFFFFFFFFFFFFFFFFFFFFF AND PUSH32 0xDDF252AD1BE2C89B69C2B068FC378DAA952BA7F163C4A11628F55A4DF523B3EF DUP4 PUSH1 0x40 MLOAD PUSH2 0x1A6F SWAP2 SWAP1 PUSH2 0x24B3 JUMP JUMPDEST PUSH1 0x40 MLOAD DUP1 SWAP2 SUB SWAP1 LOG3 PUSH2 0x1A83 PUSH1 0x0 DUP4 DUP4 PUSH2 0x225C JUMP JUMPDEST POP POP JUMP JUMPDEST PUSH1 0x0 CALLER SWAP1 POP SWAP1 JUMP JUMPDEST PUSH1 0x0 PUSH20 0xFFFFFFFFFFFFFFFFFFFFFFFFFFFFFFFFFFFFFFFF AND DUP4 PUSH20 0xFFFFFFFFFFFFFFFFFFFFFFFFFFFFFFFFFFFFFFFF AND SUB PUSH2 0x1AFE JUMPI PUSH1 0x40 MLOAD PUSH32 0x8C379A000000000000000000000000000000000000000000000000000000000 DUP2 MSTORE PUSH1 0x4 ADD PUSH2 0x1AF5 SWAP1 PUSH2 0x3B96 JUMP JUMPDEST PUSH1 0x40 MLOAD DUP1 SWAP2 SUB SWAP1 REVERT JUMPDEST PUSH1 0x0 PUSH20 0xFFFFFFFFFFFFFFFFFFFFFFFFFFFFFFFFFFFFFFFF AND DUP3 PUSH20 0xFFFFFFFFFFFFFFFFFFFFFFFFFFFFFFFFFFFFFFFF AND SUB PUSH2 0x1B6D JUMPI PUSH1 0x40 MLOAD PUSH32 0x8C379A000000000000000000000000000000000000000000000000000000000 DUP2 MSTORE PUSH1 0x4 ADD PUSH2 0x1B64 SWAP1 PUSH2 0x3C28 JUMP JUMPDEST PUSH1 0x40 MLOAD DUP1 SWAP2 SUB SWAP1 REVERT JUMPDEST DUP1 PUSH1 0x34 PUSH1 0x0 DUP6 PUSH20 0xFFFFFFFFFFFFFFFFFFFFFFFFFFFFFFFFFFFFFFFF AND PUSH20 0xFFFFFFFFFFFFFFFFFFFFFFFFFFFFFFFFFFFFFFFF AND DUP2 MSTORE PUSH1 0x20 ADD SWAP1 DUP2 MSTORE PUSH1 0x20 ADD PUSH1 0x0 KECCAK256 PUSH1 0x0 DUP5 PUSH20 0xFFFFFFFFFFFFFFFFFFFFFFFFFFFFFFFFFFFFFFFF AND PUSH20 0xFFFFFFFFFFFFFFFFFFFFFFFFFFFFFFFFFFFFFFFF AND DUP2 MSTORE PUSH1 0x20 ADD SWAP1 DUP2 MSTORE PUSH1 0x20 ADD PUSH1 0x0 KECCAK256 DUP2 SWAP1 SSTORE POP DUP2 PUSH20 0xFFFFFFFFFFFFFFFFFFFFFFFFFFFFFFFFFFFFFFFF AND DUP4 PUSH20 0xFFFFFFFFFFFFFFFFFFFFFFFFFFFFFFFFFFFFFFFF AND PUSH32 0x8C5BE1E5EBEC7D5BD14F71427D1E84F3DD0314C0F7B2291E5B200AC8C7C3B925 DUP4 PUSH1 0x40 MLOAD PUSH2 0x1C4B SWAP2 SWAP1 PUSH2 0x24B3 JUMP JUMPDEST PUSH1 0x40 MLOAD DUP1 SWAP2 SUB SWAP1 LOG3 POP POP POP JUMP JUMPDEST PUSH1 0x0 PUSH2 0x1C64 DUP5 DUP5 PUSH2 0x188D JUMP JUMPDEST SWAP1 POP PUSH32 0xFFFFFFFFFFFFFFFFFFFFFFFFFFFFFFFFFFFFFFFFFFFFFFFFFFFFFFFFFFFFFFFF DUP2 EQ PUSH2 0x1CDE JUMPI DUP2 DUP2 LT ISZERO PUSH2 0x1CD0 JUMPI PUSH1 0x40 MLOAD PUSH32 0x8C379A000000000000000000000000000000000000000000000000000000000 DUP2 MSTORE PUSH1 0x4 ADD PUSH2 0x1CC7 SWAP1 PUSH2 0x3C94 JUMP JUMPDEST PUSH1 0x40 MLOAD DUP1 SWAP2 SUB SWAP1 REVERT JUMPDEST PUSH2 0x1CDD DUP5 DUP5 DUP5 DUP5 SUB PUSH2 0x1A8F JUMP JUMPDEST JUMPDEST POP POP POP POP JUMP JUMPDEST PUSH1 0x0 PUSH20 0xFFFFFFFFFFFFFFFFFFFFFFFFFFFFFFFFFFFFFFFF AND DUP4 PUSH20 0xFFFFFFFFFFFFFFFFFFFFFFFFFFFFFFFFFFFFFFFF AND SUB PUSH2 0x1D53 JUMPI PUSH1 0x40 MLOAD PUSH32 0x8C379A000000000000000000000000000000000000000000000000000000000 DUP2 MSTORE PUSH1 0x4 ADD PUSH2 0x1D4A SWAP1 PUSH2 0x3D26 JUMP JUMPDEST PUSH1 0x40 MLOAD DUP1 SWAP2 SUB SWAP1 REVERT JUMPDEST PUSH1 0x0 PUSH20 0xFFFFFFFFFFFFFFFFFFFFFFFFFFFFFFFFFFFFFFFF AND DUP3 PUSH20 0xFFFFFFFFFFFFFFFFFFFFFFFFFFFFFFFFFFFFFFFF AND SUB PUSH2 0x1DC2 JUMPI PUSH1 0x40 MLOAD PUSH32 0x8C379A000000000000000000000000000000000000000000000000000000000 DUP2 MSTORE PUSH1 0x4 ADD PUSH2 0x1DB9 SWAP1 PUSH2 0x3DB8 JUMP JUMPDEST PUSH1 0x40 MLOAD DUP1 SWAP2 SUB SWAP1 REVERT JUMPDEST PUSH2 0x1DCD DUP4 DUP4 DUP4 PUSH2 0x2257 JUMP JUMPDEST PUSH1 0x0 PUSH1 0x33 PUSH1 0x0 DUP6 PUSH20 0xFFFFFFFFFFFFFFFFFFFFFFFFFFFFFFFFFFFFFFFF AND PUSH20 0xFFFFFFFFFFFFFFFFFFFFFFFFFFFFFFFFFFFFFFFF AND DUP2 MSTORE PUSH1 0x20 ADD SWAP1 DUP2 MSTORE PUSH1 0x20 ADD PUSH1 0x0 KECCAK256 SLOAD SWAP1 POP DUP2 DUP2 LT ISZERO PUSH2 0x1E54 JUMPI PUSH1 0x40 MLOAD PUSH32 0x8C379A000000000000000000000000000000000000000000000000000000000 DUP2 MSTORE PUSH1 0x4 ADD PUSH2 0x1E4B SWAP1 PUSH2 0x3E4A JUMP JUMPDEST PUSH1 0x40 MLOAD DUP1 SWAP2 SUB SWAP1 REVERT JUMPDEST DUP2 DUP2 SUB PUSH1 0x33 PUSH1 0x0 DUP7 PUSH20 0xFFFFFFFFFFFFFFFFFFFFFFFFFFFFFFFFFFFFFFFF AND PUSH20 0xFFFFFFFFFFFFFFFFFFFFFFFFFFFFFFFFFFFFFFFF AND DUP2 MSTORE PUSH1 0x20 ADD SWAP1 DUP2 MSTORE PUSH1 0x20 ADD PUSH1 0x0 KECCAK256 DUP2 SWAP1 SSTORE POP DUP2 PUSH1 0x33 PUSH1 0x0 DUP6 PUSH20 0xFFFFFFFFFFFFFFFFFFFFFFFFFFFFFFFFFFFFFFFF AND PUSH20 0xFFFFFFFFFFFFFFFFFFFFFFFFFFFFFFFFFFFFFFFF AND DUP2 MSTORE PUSH1 0x20 ADD SWAP1 DUP2 MSTORE PUSH1 0x20 ADD PUSH1 0x0 KECCAK256 PUSH1 0x0 DUP3 DUP3 SLOAD ADD SWAP3 POP POP DUP2 SWAP1 SSTORE POP DUP3 PUSH20 0xFFFFFFFFFFFFFFFFFFFFFFFFFFFFFFFFFFFFFFFF AND DUP5 PUSH20 0xFFFFFFFFFFFFFFFFFFFFFFFFFFFFFFFFFFFFFFFF AND PUSH32 0xDDF252AD1BE2C89B69C2B068FC378DAA952BA7F163C4A11628F55A4DF523B3EF DUP5 PUSH1 0x40 MLOAD PUSH2 0x1F44 SWAP2 SWAP1 PUSH2 0x24B3 JUMP JUMPDEST PUSH1 0x40 MLOAD DUP1 SWAP2 SUB SWAP1 LOG3 PUSH2 0x1F57 DUP5 DUP5 DUP5 PUSH2 0x225C JUMP JUMPDEST POP POP POP POP JUMP JUMPDEST PUSH1 0x0 PUSH20 0xFFFFFFFFFFFFFFFFFFFFFFFFFFFFFFFFFFFFFFFF AND DUP3 PUSH20 0xFFFFFFFFFFFFFFFFFFFFFFFFFFFFFFFFFFFFFFFF AND SUB PUSH2 0x1FCC JUMPI PUSH1 0x40 MLOAD PUSH32 0x8C379A000000000000000000000000000000000000000000000000000000000 DUP2 MSTORE PUSH1 0x4 ADD PUSH2 0x1FC3 SWAP1 PUSH2 0x3EDC JUMP JUMPDEST PUSH1 0x40 MLOAD DUP1 SWAP2 SUB SWAP1 REVERT JUMPDEST PUSH2 0x1FD8 DUP3 PUSH1 0x0 DUP4 PUSH2 0x2257 JUMP JUMPDEST PUSH1 0x0 PUSH1 0x33 PUSH1 0x0 DUP5 PUSH20 0xFFFFFFFFFFFFFFFFFFFFFFFFFFFFFFFFFFFFFFFF AND PUSH20 0xFFFFFFFFFFFFFFFFFFFFFFFFFFFFFFFFFFFFFFFF AND DUP2 MSTORE PUSH1 0x20 ADD SWAP1 DUP2 MSTORE PUSH1 0x20 ADD PUSH1 0x0 KECCAK256 SLOAD SWAP1 POP DUP2 DUP2 LT ISZERO PUSH2 0x205F JUMPI PUSH1 0x40 MLOAD PUSH32 0x8C379A000000000000000000000000000000000000000000000000000000000 DUP2 MSTORE PUSH1 0x4 ADD PUSH2 0x2056 SWAP1 PUSH2 0x3F6E JUMP JUMPDEST PUSH1 0x40 MLOAD DUP1 SWAP2 SUB SWAP1 REVERT JUMPDEST DUP2 DUP2 SUB PUSH1 0x33 PUSH1 0x0 DUP6 PUSH20 0xFFFFFFFFFFFFFFFFFFFFFFFFFFFFFFFFFFFFFFFF AND PUSH20 0xFFFFFFFFFFFFFFFFFFFFFFFFFFFFFFFFFFFFFFFF AND DUP2 MSTORE PUSH1 0x20 ADD SWAP1 DUP2 MSTORE PUSH1 0x20 ADD PUSH1 0x0 KECCAK256 DUP2 SWAP1 SSTORE POP DUP2 PUSH1 0x35 PUSH1 0x0 DUP3 DUP3 SLOAD SUB SWAP3 POP POP DUP2 SWAP1 SSTORE POP PUSH1 0x0 PUSH20 0xFFFFFFFFFFFFFFFFFFFFFFFFFFFFFFFFFFFFFFFF AND DUP4 PUSH20 0xFFFFFFFFFFFFFFFFFFFFFFFFFFFFFFFFFFFFFFFF AND PUSH32 0xDDF252AD1BE2C89B69C2B068FC378DAA952BA7F163C4A11628F55A4DF523B3EF DUP5 PUSH1 0x40 MLOAD PUSH2 0x2113 SWAP2 SWAP1 PUSH2 0x24B3 JUMP JUMPDEST PUSH1 0x40 MLOAD DUP1 SWAP2 SUB SWAP1 LOG3 PUSH2 0x2127 DUP4 PUSH1 0x0 DUP5 PUSH2 0x225C JUMP JUMPDEST POP POP POP JUMP JUMPDEST PUSH1 0x0 DUP1 DUP3 PUSH20 0xFFFFFFFFFFFFFFFFFFFFFFFFFFFFFFFFFFFFFFFF AND EXTCODESIZE GT SWAP1 POP SWAP2 SWAP1 POP JUMP JUMPDEST PUSH1 0x0 PUSH1 0x1 SWAP1 SLOAD SWAP1 PUSH2 0x100 EXP SWAP1 DIV PUSH1 0xFF AND PUSH2 0x219E JUMPI PUSH1 0x40 MLOAD PUSH32 0x8C379A000000000000000000000000000000000000000000000000000000000 DUP2 MSTORE PUSH1 0x4 ADD PUSH2 0x2195 SWAP1 PUSH2 0x4000 JUMP JUMPDEST PUSH1 0x40 MLOAD DUP1 SWAP2 SUB SWAP1 REVERT JUMPDEST PUSH2 0x21A8 DUP3 DUP3 PUSH2 0x2261 JUMP JUMPDEST POP POP JUMP JUMPDEST PUSH1 0x0 DUP1 CHAINID SWAP1 POP PUSH1 0x0 PUSH32 0x8B73C3C69BB8FE3D512ECC4CF759CC79239F7B179B0FFACAA9A75D522B39400F PUSH2 0x21DD PUSH2 0x6C4 JUMP JUMPDEST DUP1 MLOAD SWAP1 PUSH1 0x20 ADD KECCAK256 PUSH1 0x40 MLOAD DUP1 PUSH1 0x40 ADD PUSH1 0x40 MSTORE DUP1 PUSH1 0x1 DUP2 MSTORE PUSH1 0x20 ADD PUSH32 0x3100000000000000000000000000000000000000000000000000000000000000 DUP2 MSTORE POP DUP1 MLOAD SWAP1 PUSH1 0x20 ADD KECCAK256 DUP5 ADDRESS PUSH1 0x40 MLOAD PUSH1 0x20 ADD PUSH2 0x2237 SWAP6 SWAP5 SWAP4 SWAP3 SWAP2 SWAP1 PUSH2 0x4020 JUMP JUMPDEST PUSH1 0x40 MLOAD PUSH1 0x20 DUP2 DUP4 SUB SUB DUP2 MSTORE SWAP1 PUSH1 0x40 MSTORE DUP1 MLOAD SWAP1 PUSH1 0x20 ADD KECCAK256 SWAP1 POP DUP1 SWAP3 POP POP POP SWAP1 JUMP JUMPDEST POP POP POP JUMP JUMPDEST POP POP POP JUMP JUMPDEST PUSH1 0x0 PUSH1 0x1 SWAP1 SLOAD SWAP1 PUSH2 0x100 EXP SWAP1 DIV PUSH1 0xFF AND PUSH2 0x22B0 JUMPI PUSH1 0x40 MLOAD PUSH32 0x8C379A000000000000000000000000000000000000000000000000000000000 DUP2 MSTORE PUSH1 0x4 ADD PUSH2 0x22A7 SWAP1 PUSH2 0x4000 JUMP JUMPDEST PUSH1 0x40 MLOAD DUP1 SWAP2 SUB SWAP1 REVERT JUMPDEST DUP2 PUSH1 0x36 SWAP1 DUP2 PUSH2 0x22BF SWAP2 SWAP1 PUSH2 0x4215 JUMP JUMPDEST POP DUP1 PUSH1 0x37 SWAP1 DUP2 PUSH2 0x22CF SWAP2 SWAP1 PUSH2 0x4215 JUMP JUMPDEST POP POP POP JUMP JUMPDEST PUSH1 0x0 PUSH1 0x40 MLOAD SWAP1 POP SWAP1 JUMP JUMPDEST PUSH1 0x0 DUP1 REVERT JUMPDEST PUSH1 0x0 DUP1 REVERT JUMPDEST PUSH1 0x0 PUSH20 0xFFFFFFFFFFFFFFFFFFFFFFFFFFFFFFFFFFFFFFFF DUP3 AND SWAP1 POP SWAP2 SWAP1 POP JUMP JUMPDEST PUSH1 0x0 PUSH2 0x2313 DUP3 PUSH2 0x22E8 JUMP JUMPDEST SWAP1 POP SWAP2 SWAP1 POP JUMP JUMPDEST PUSH2 0x2323 DUP2 PUSH2 0x2308 JUMP JUMPDEST DUP2 EQ PUSH2 0x232E JUMPI PUSH1 0x0 DUP1 REVERT JUMPDEST POP JUMP JUMPDEST PUSH1 0x0 DUP2 CALLDATALOAD SWAP1 POP PUSH2 0x2340 DUP2 PUSH2 0x231A JUMP JUMPDEST SWAP3 SWAP2 POP POP JUMP JUMPDEST PUSH1 0x0 DUP2 SWAP1 POP SWAP2 SWAP1 POP JUMP JUMPDEST PUSH2 0x2359 DUP2 PUSH2 0x2346 JUMP JUMPDEST DUP2 EQ PUSH2 0x2364 JUMPI PUSH1 0x0 DUP1 REVERT JUMPDEST POP JUMP JUMPDEST PUSH1 0x0 DUP2 CALLDATALOAD SWAP1 POP PUSH2 0x2376 DUP2 PUSH2 0x2350 JUMP JUMPDEST SWAP3 SWAP2 POP POP JUMP JUMPDEST PUSH1 0x0 DUP1 PUSH1 0x40 DUP4 DUP6 SUB SLT ISZERO PUSH2 0x2393 JUMPI PUSH2 0x2392 PUSH2 0x22DE JUMP JUMPDEST JUMPDEST PUSH1 0x0 PUSH2 0x23A1 DUP6 DUP3 DUP7 ADD PUSH2 0x2331 JUMP JUMPDEST SWAP3 POP POP PUSH1 0x20 PUSH2 0x23B2 DUP6 DUP3 DUP7 ADD PUSH2 0x2367 JUMP JUMPDEST SWAP2 POP POP SWAP3 POP SWAP3 SWAP1 POP JUMP JUMPDEST PUSH1 0x0 DUP2 MLOAD SWAP1 POP SWAP2 SWAP1 POP JUMP JUMPDEST PUSH1 0x0 DUP3 DUP3 MSTORE PUSH1 0x20 DUP3 ADD SWAP1 POP SWAP3 SWAP2 POP POP JUMP JUMPDEST PUSH1 0x0 JUMPDEST DUP4 DUP2 LT ISZERO PUSH2 0x23F6 JUMPI DUP1 DUP3 ADD MLOAD DUP2 DUP5 ADD MSTORE PUSH1 0x20 DUP2 ADD SWAP1 POP PUSH2 0x23DB JUMP JUMPDEST PUSH1 0x0 DUP5 DUP5 ADD MSTORE POP POP POP POP JUMP JUMPDEST PUSH1 0x0 PUSH1 0x1F NOT PUSH1 0x1F DUP4 ADD AND SWAP1 POP SWAP2 SWAP1 POP JUMP JUMPDEST PUSH1 0x0 PUSH2 0x241E DUP3 PUSH2 0x23BC JUMP JUMPDEST PUSH2 0x2428 DUP2 DUP6 PUSH2 0x23C7 JUMP JUMPDEST SWAP4 POP PUSH2 0x2438 DUP2 DUP6 PUSH1 0x20 DUP7 ADD PUSH2 0x23D8 JUMP JUMPDEST PUSH2 0x2441 DUP2 PUSH2 0x2402 JUMP JUMPDEST DUP5 ADD SWAP2 POP POP SWAP3 SWAP2 POP POP JUMP JUMPDEST PUSH1 0x0 PUSH1 0x20 DUP3 ADD SWAP1 POP DUP2 DUP2 SUB PUSH1 0x0 DUP4 ADD MSTORE PUSH2 0x2466 DUP2 DUP5 PUSH2 0x2413 JUMP JUMPDEST SWAP1 POP SWAP3 SWAP2 POP POP JUMP JUMPDEST PUSH1 0x0 DUP2 ISZERO ISZERO SWAP1 POP SWAP2 SWAP1 POP JUMP JUMPDEST PUSH2 0x2483 DUP2 PUSH2 0x246E JUMP JUMPDEST DUP3 MSTORE POP POP JUMP JUMPDEST PUSH1 0x0 PUSH1 0x20 DUP3 ADD SWAP1 POP PUSH2 0x249E PUSH1 0x0 DUP4 ADD DUP5 PUSH2 0x247A JUMP JUMPDEST SWAP3 SWAP2 POP POP JUMP JUMPDEST PUSH2 0x24AD DUP2 PUSH2 0x2346 JUMP JUMPDEST DUP3 MSTORE POP POP JUMP JUMPDEST PUSH1 0x0 PUSH1 0x20 DUP3 ADD SWAP1 POP PUSH2 0x24C8 PUSH1 0x0 DUP4 ADD DUP5 PUSH2 0x24A4 JUMP JUMPDEST SWAP3 SWAP2 POP POP JUMP JUMPDEST PUSH1 0x0 DUP1 PUSH1 0x0 PUSH1 0x60 DUP5 DUP7 SUB SLT ISZERO PUSH2 0x24E7 JUMPI PUSH2 0x24E6 PUSH2 0x22DE JUMP JUMPDEST JUMPDEST PUSH1 0x0 PUSH2 0x24F5 DUP7 DUP3 DUP8 ADD PUSH2 0x2331 JUMP JUMPDEST SWAP4 POP POP PUSH1 0x20 PUSH2 0x2506 DUP7 DUP3 DUP8 ADD PUSH2 0x2331 JUMP JUMPDEST SWAP3 POP POP PUSH1 0x40 PUSH2 0x2517 DUP7 DUP3 DUP8 ADD PUSH2 0x2367 JUMP JUMPDEST SWAP2 POP POP SWAP3 POP SWAP3 POP SWAP3 JUMP JUMPDEST PUSH1 0x0 PUSH1 0xFF DUP3 AND SWAP1 POP SWAP2 SWAP1 POP JUMP JUMPDEST PUSH2 0x2537 DUP2 PUSH2 0x2521 JUMP JUMPDEST DUP3 MSTORE POP POP JUMP JUMPDEST PUSH1 0x0 PUSH1 0x20 DUP3 ADD SWAP1 POP PUSH2 0x2552 PUSH1 0x0 DUP4 ADD DUP5 PUSH2 0x252E JUMP JUMPDEST SWAP3 SWAP2 POP POP JUMP JUMPDEST PUSH2 0x2561 DUP2 PUSH2 0x2308 JUMP JUMPDEST DUP3 MSTORE POP POP JUMP JUMPDEST PUSH1 0x0 PUSH1 0x20 DUP3 ADD SWAP1 POP PUSH2 0x257C PUSH1 0x0 DUP4 ADD DUP5 PUSH2 0x2558 JUMP JUMPDEST SWAP3 SWAP2 POP POP JUMP JUMPDEST PUSH1 0x0 PUSH1 0x20 DUP3 DUP5 SUB SLT ISZERO PUSH2 0x2598 JUMPI PUSH2 0x2597 PUSH2 0x22DE JUMP JUMPDEST JUMPDEST PUSH1 0x0 PUSH2 0x25A6 DUP5 DUP3 DUP6 ADD PUSH2 0x2367 JUMP JUMPDEST SWAP2 POP POP SWAP3 SWAP2 POP POP JUMP JUMPDEST PUSH1 0x0 PUSH1 0x20 DUP3 DUP5 SUB SLT ISZERO PUSH2 0x25C5 JUMPI PUSH2 0x25C4 PUSH2 0x22DE JUMP JUMPDEST JUMPDEST PUSH1 0x0 PUSH2 0x25D3 DUP5 DUP3 DUP6 ADD PUSH2 0x2331 JUMP JUMPDEST SWAP2 POP POP SWAP3 SWAP2 POP POP JUMP JUMPDEST PUSH1 0x0 DUP1 REVERT JUMPDEST PUSH1 0x0 DUP1 REVERT JUMPDEST PUSH32 0x4E487B7100000000000000000000000000000000000000000000000000000000 PUSH1 0x0 MSTORE PUSH1 0x41 PUSH1 0x4 MSTORE PUSH1 0x24 PUSH1 0x0 REVERT JUMPDEST PUSH2 0x261E DUP3 PUSH2 0x2402 JUMP JUMPDEST DUP2 ADD DUP2 DUP2 LT PUSH8 0xFFFFFFFFFFFFFFFF DUP3 GT OR ISZERO PUSH2 0x263D JUMPI PUSH2 0x263C PUSH2 0x25E6 JUMP JUMPDEST JUMPDEST DUP1 PUSH1 0x40 MSTORE POP POP POP JUMP JUMPDEST PUSH1 0x0 PUSH2 0x2650 PUSH2 0x22D4 JUMP JUMPDEST SWAP1 POP PUSH2 0x265C DUP3 DUP3 PUSH2 0x2615 JUMP JUMPDEST SWAP2 SWAP1 POP JUMP JUMPDEST PUSH1 0x0 PUSH8 0xFFFFFFFFFFFFFFFF DUP3 GT ISZERO PUSH2 0x267C JUMPI PUSH2 0x267B PUSH2 0x25E6 JUMP JUMPDEST JUMPDEST PUSH2 0x2685 DUP3 PUSH2 0x2402 JUMP JUMPDEST SWAP1 POP PUSH1 0x20 DUP2 ADD SWAP1 POP SWAP2 SWAP1 POP JUMP JUMPDEST DUP3 DUP2 DUP4 CALLDATACOPY PUSH1 0x0 DUP4 DUP4 ADD MSTORE POP POP POP JUMP JUMPDEST PUSH1 0x0 PUSH2 0x26B4 PUSH2 0x26AF DUP5 PUSH2 0x2661 JUMP JUMPDEST PUSH2 0x2646 JUMP JUMPDEST SWAP1 POP DUP3 DUP2 MSTORE PUSH1 0x20 DUP2 ADD DUP5 DUP5 DUP5 ADD GT ISZERO PUSH2 0x26D0 JUMPI PUSH2 0x26CF PUSH2 0x25E1 JUMP JUMPDEST JUMPDEST PUSH2 0x26DB DUP5 DUP3 DUP6 PUSH2 0x2692 JUMP JUMPDEST POP SWAP4 SWAP3 POP POP POP JUMP JUMPDEST PUSH1 0x0 DUP3 PUSH1 0x1F DUP4 ADD SLT PUSH2 0x26F8 JUMPI PUSH2 0x26F7 PUSH2 0x25DC JUMP JUMPDEST JUMPDEST DUP2 CALLDATALOAD PUSH2 0x2708 DUP5 DUP3 PUSH1 0x20 DUP7 ADD PUSH2 0x26A1 JUMP JUMPDEST SWAP2 POP POP SWAP3 SWAP2 POP POP JUMP JUMPDEST PUSH1 0x0 DUP1 PUSH1 0x0 DUP1 PUSH1 0x0 DUP1 PUSH1 0xC0 DUP8 DUP10 SUB SLT ISZERO PUSH2 0x272E JUMPI PUSH2 0x272D PUSH2 0x22DE JUMP JUMPDEST JUMPDEST PUSH1 0x0 DUP8 ADD CALLDATALOAD PUSH8 0xFFFFFFFFFFFFFFFF DUP2 GT ISZERO PUSH2 0x274C JUMPI PUSH2 0x274B PUSH2 0x22E3 JUMP JUMPDEST JUMPDEST PUSH2 0x2758 DUP10 DUP3 DUP11 ADD PUSH2 0x26E3 JUMP JUMPDEST SWAP7 POP POP PUSH1 0x20 DUP8 ADD CALLDATALOAD PUSH8 0xFFFFFFFFFFFFFFFF DUP2 GT ISZERO PUSH2 0x2779 JUMPI PUSH2 0x2778 PUSH2 0x22E3 JUMP JUMPDEST JUMPDEST PUSH2 0x2785 DUP10 DUP3 DUP11 ADD PUSH2 0x26E3 JUMP JUMPDEST SWAP6 POP POP PUSH1 0x40 PUSH2 0x2796 DUP10 DUP3 DUP11 ADD PUSH2 0x2331 JUMP JUMPDEST SWAP5 POP POP PUSH1 0x60 PUSH2 0x27A7 DUP10 DUP3 DUP11 ADD PUSH2 0x2331 JUMP JUMPDEST SWAP4 POP POP PUSH1 0x80 PUSH2 0x27B8 DUP10 DUP3 DUP11 ADD PUSH2 0x2367 JUMP JUMPDEST SWAP3 POP POP PUSH1 0xA0 PUSH2 0x27C9 DUP10 DUP3 DUP11 ADD PUSH2 0x2367 JUMP JUMPDEST SWAP2 POP POP SWAP3 SWAP6 POP SWAP3 SWAP6 POP SWAP3 SWAP6 JUMP JUMPDEST PUSH2 0x27DF DUP2 PUSH2 0x2521 JUMP JUMPDEST DUP2 EQ PUSH2 0x27EA JUMPI PUSH1 0x0 DUP1 REVERT JUMPDEST POP JUMP JUMPDEST PUSH1 0x0 DUP2 CALLDATALOAD SWAP1 POP PUSH2 0x27FC DUP2 PUSH2 0x27D6 JUMP JUMPDEST SWAP3 SWAP2 POP POP JUMP JUMPDEST PUSH1 0x0 DUP2 SWAP1 POP SWAP2 SWAP1 POP JUMP JUMPDEST PUSH2 0x2815 DUP2 PUSH2 0x2802 JUMP JUMPDEST DUP2 EQ PUSH2 0x2820 JUMPI PUSH1 0x0 DUP1 REVERT JUMPDEST POP JUMP JUMPDEST PUSH1 0x0 DUP2 CALLDATALOAD SWAP1 POP PUSH2 0x2832 DUP2 PUSH2 0x280C JUMP JUMPDEST SWAP3 SWAP2 POP POP JUMP JUMPDEST PUSH1 0x0 DUP1 PUSH1 0x0 DUP1 PUSH1 0x0 DUP1 PUSH1 0x0 PUSH1 0xE0 DUP9 DUP11 SUB SLT ISZERO PUSH2 0x2857 JUMPI PUSH2 0x2856 PUSH2 0x22DE JUMP JUMPDEST JUMPDEST PUSH1 0x0 PUSH2 0x2865 DUP11 DUP3 DUP12 ADD PUSH2 0x2331 JUMP JUMPDEST SWAP8 POP POP PUSH1 0x20 PUSH2 0x2876 DUP11 DUP3 DUP12 ADD PUSH2 0x2331 JUMP JUMPDEST SWAP7 POP POP PUSH1 0x40 PUSH2 0x2887 DUP11 DUP3 DUP12 ADD PUSH2 0x2367 JUMP JUMPDEST SWAP6 POP POP PUSH1 0x60 PUSH2 0x2898 DUP11 DUP3 DUP12 ADD PUSH2 0x2367 JUMP JUMPDEST SWAP5 POP POP PUSH1 0x80 PUSH2 0x28A9 DUP11 DUP3 DUP12 ADD PUSH2 0x27ED JUMP JUMPDEST SWAP4 POP POP PUSH1 0xA0 PUSH2 0x28BA DUP11 DUP3 DUP12 ADD PUSH2 0x2823 JUMP JUMPDEST SWAP3 POP POP PUSH1 0xC0 PUSH2 0x28CB DUP11 DUP3 DUP12 ADD PUSH2 0x2823 JUMP JUMPDEST SWAP2 POP POP SWAP3 SWAP6 SWAP9 SWAP2 SWAP5 SWAP8 POP SWAP3 SWAP6 POP JUMP JUMPDEST PUSH1 0x0 DUP1 PUSH1 0x40 DUP4 DUP6 SUB SLT ISZERO PUSH2 0x28F1 JUMPI PUSH2 0x28F0 PUSH2 0x22DE JUMP JUMPDEST JUMPDEST PUSH1 0x0 PUSH2 0x28FF DUP6 DUP3 DUP7 ADD PUSH2 0x2331 JUMP JUMPDEST SWAP3 POP POP PUSH1 0x20 PUSH2 0x2910 DUP6 DUP3 DUP7 ADD PUSH2 0x2331 JUMP JUMPDEST SWAP2 POP POP SWAP3 POP SWAP3 SWAP1 POP JUMP JUMPDEST PUSH1 0x0 DUP2 MLOAD SWAP1 POP PUSH2 0x2929 DUP2 PUSH2 0x231A JUMP JUMPDEST SWAP3 SWAP2 POP POP JUMP JUMPDEST PUSH1 0x0 PUSH1 0x20 DUP3 DUP5 SUB SLT ISZERO PUSH2 0x2945 JUMPI PUSH2 0x2944 PUSH2 0x22DE JUMP JUMPDEST JUMPDEST PUSH1 0x0 PUSH2 0x2953 DUP5 DUP3 DUP6 ADD PUSH2 0x291A JUMP JUMPDEST SWAP2 POP POP SWAP3 SWAP2 POP POP JUMP JUMPDEST PUSH32 0x4E4F5420544845204E4654204F574E4552203D204E4F542041204D494E544552 PUSH1 0x0 DUP3 ADD MSTORE POP JUMP JUMPDEST PUSH1 0x0 PUSH2 0x2992 PUSH1 0x20 DUP4 PUSH2 0x23C7 JUMP JUMPDEST SWAP2 POP PUSH2 0x299D DUP3 PUSH2 0x295C JUMP JUMPDEST PUSH1 0x20 DUP3 ADD SWAP1 POP SWAP2 SWAP1 POP JUMP JUMPDEST PUSH1 0x0 PUSH1 0x20 DUP3 ADD SWAP1 POP DUP2 DUP2 SUB PUSH1 0x0 DUP4 ADD MSTORE PUSH2 0x29C1 DUP2 PUSH2 0x2985 JUMP JUMPDEST SWAP1 POP SWAP2 SWAP1 POP JUMP JUMPDEST PUSH32 0x43616E6E6F742065786565642074686520636170000000000000000000000000 PUSH1 0x0 DUP3 ADD MSTORE POP JUMP JUMPDEST PUSH1 0x0 PUSH2 0x29FE PUSH1 0x14 DUP4 PUSH2 0x23C7 JUMP JUMPDEST SWAP2 POP PUSH2 0x2A09 DUP3 PUSH2 0x29C8 JUMP JUMPDEST PUSH1 0x20 DUP3 ADD SWAP1 POP SWAP2 SWAP1 POP JUMP JUMPDEST PUSH1 0x0 PUSH1 0x20 DUP3 ADD SWAP1 POP DUP2 DUP2 SUB PUSH1 0x0 DUP4 ADD MSTORE PUSH2 0x2A2D DUP2 PUSH2 0x29F1 JUMP JUMPDEST SWAP1 POP SWAP2 SWAP1 POP JUMP JUMPDEST PUSH32 0x4E487B7100000000000000000000000000000000000000000000000000000000 PUSH1 0x0 MSTORE PUSH1 0x11 PUSH1 0x4 MSTORE PUSH1 0x24 PUSH1 0x0 REVERT JUMPDEST PUSH1 0x0 DUP2 PUSH1 0x1 SHR SWAP1 POP SWAP2 SWAP1 POP JUMP JUMPDEST PUSH1 0x0 DUP1 DUP3 SWAP2 POP DUP4 SWAP1 POP JUMPDEST PUSH1 0x1 DUP6 GT ISZERO PUSH2 0x2ABA JUMPI DUP1 DUP7 DIV DUP2 GT ISZERO PUSH2 0x2A96 JUMPI PUSH2 0x2A95 PUSH2 0x2A34 JUMP JUMPDEST JUMPDEST PUSH1 0x1 DUP6 AND ISZERO PUSH2 0x2AA5 JUMPI DUP1 DUP3 MUL SWAP2 POP JUMPDEST DUP1 DUP2 MUL SWAP1 POP PUSH2 0x2AB3 DUP6 PUSH2 0x2A63 JUMP JUMPDEST SWAP5 POP PUSH2 0x2A7A JUMP JUMPDEST SWAP5 POP SWAP5 SWAP3 POP POP POP JUMP JUMPDEST PUSH1 0x0 DUP3 PUSH2 0x2AD3 JUMPI PUSH1 0x1 SWAP1 POP PUSH2 0x2B8F JUMP JUMPDEST DUP2 PUSH2 0x2AE1 JUMPI PUSH1 0x0 SWAP1 POP PUSH2 0x2B8F JUMP JUMPDEST DUP2 PUSH1 0x1 DUP2 EQ PUSH2 0x2AF7 JUMPI PUSH1 0x2 DUP2 EQ PUSH2 0x2B01 JUMPI PUSH2 0x2B30 JUMP JUMPDEST PUSH1 0x1 SWAP2 POP POP PUSH2 0x2B8F JUMP JUMPDEST PUSH1 0xFF DUP5 GT ISZERO PUSH2 0x2B13 JUMPI PUSH2 0x2B12 PUSH2 0x2A34 JUMP JUMPDEST JUMPDEST DUP4 PUSH1 0x2 EXP SWAP2 POP DUP5 DUP3 GT ISZERO PUSH2 0x2B2A JUMPI PUSH2 0x2B29 PUSH2 0x2A34 JUMP JUMPDEST JUMPDEST POP PUSH2 0x2B8F JUMP JUMPDEST POP PUSH1 0x20 DUP4 LT PUSH2 0x133 DUP4 LT AND PUSH1 0x4E DUP5 LT PUSH1 0xB DUP5 LT AND OR ISZERO PUSH2 0x2B65 JUMPI DUP3 DUP3 EXP SWAP1 POP DUP4 DUP2 GT ISZERO PUSH2 0x2B60 JUMPI PUSH2 0x2B5F PUSH2 0x2A34 JUMP JUMPDEST JUMPDEST PUSH2 0x2B8F JUMP JUMPDEST PUSH2 0x2B72 DUP5 DUP5 DUP5 PUSH1 0x1 PUSH2 0x2A70 JUMP JUMPDEST SWAP3 POP SWAP1 POP DUP2 DUP5 DIV DUP2 GT ISZERO PUSH2 0x2B89 JUMPI PUSH2 0x2B88 PUSH2 0x2A34 JUMP JUMPDEST JUMPDEST DUP2 DUP2 MUL SWAP1 POP JUMPDEST SWAP4 SWAP3 POP POP POP JUMP JUMPDEST PUSH1 0x0 PUSH2 0x2BA1 DUP3 PUSH2 0x2346 JUMP JUMPDEST SWAP2 POP PUSH2 0x2BAC DUP4 PUSH2 0x2521 JUMP JUMPDEST SWAP3 POP PUSH2 0x2BD9 PUSH32 0xFFFFFFFFFFFFFFFFFFFFFFFFFFFFFFFFFFFFFFFFFFFFFFFFFFFFFFFFFFFFFFFF DUP5 DUP5 PUSH2 0x2AC3 JUMP JUMPDEST SWAP1 POP SWAP3 SWAP2 POP POP JUMP JUMPDEST PUSH1 0x0 PUSH2 0x2BEC DUP3 PUSH2 0x2346 JUMP JUMPDEST SWAP2 POP PUSH2 0x2BF7 DUP4 PUSH2 0x2346 JUMP JUMPDEST SWAP3 POP DUP3 DUP3 MUL PUSH2 0x2C05 DUP2 PUSH2 0x2346 JUMP JUMPDEST SWAP2 POP DUP3 DUP3 DIV DUP5 EQ DUP4 ISZERO OR PUSH2 0x2C1C JUMPI PUSH2 0x2C1B PUSH2 0x2A34 JUMP JUMPDEST JUMPDEST POP SWAP3 SWAP2 POP POP JUMP JUMPDEST PUSH1 0x0 PUSH1 0x40 DUP3 ADD SWAP1 POP PUSH2 0x2C38 PUSH1 0x0 DUP4 ADD DUP6 PUSH2 0x2558 JUMP JUMPDEST PUSH2 0x2C45 PUSH1 0x20 DUP4 ADD DUP5 PUSH2 0x24A4 JUMP JUMPDEST SWAP4 SWAP3 POP POP POP JUMP JUMPDEST PUSH32 0x4E487B7100000000000000000000000000000000000000000000000000000000 PUSH1 0x0 MSTORE PUSH1 0x22 PUSH1 0x4 MSTORE PUSH1 0x24 PUSH1 0x0 REVERT JUMPDEST PUSH1 0x0 PUSH1 0x2 DUP3 DIV SWAP1 POP PUSH1 0x1 DUP3 AND DUP1 PUSH2 0x2C93 JUMPI PUSH1 0x7F DUP3 AND SWAP2 POP JUMPDEST PUSH1 0x20 DUP3 LT DUP2 SUB PUSH2 0x2CA6 JUMPI PUSH2 0x2CA5 PUSH2 0x2C4C JUMP JUMPDEST JUMPDEST POP SWAP2 SWAP1 POP JUMP JUMPDEST PUSH32 0x496E76616C696420302061646472657373000000000000000000000000000000 PUSH1 0x0 DUP3 ADD MSTORE POP JUMP JUMPDEST PUSH1 0x0 PUSH2 0x2CE2 PUSH1 0x11 DUP4 PUSH2 0x23C7 JUMP JUMPDEST SWAP2 POP PUSH2 0x2CED DUP3 PUSH2 0x2CAC JUMP JUMPDEST PUSH1 0x20 DUP3 ADD SWAP1 POP SWAP2 SWAP1 POP JUMP JUMPDEST PUSH1 0x0 PUSH1 0x20 DUP3 ADD SWAP1 POP DUP2 DUP2 SUB PUSH1 0x0 DUP4 ADD MSTORE PUSH2 0x2D11 DUP2 PUSH2 0x2CD5 JUMP JUMPDEST SWAP1 POP SWAP2 SWAP1 POP JUMP JUMPDEST PUSH32 0x53656E6420534D5220746F20627579204461746120546F6B656E732E20526563 PUSH1 0x0 DUP3 ADD MSTORE PUSH32 0x6569766564203020534D52000000000000000000000000000000000000000000 PUSH1 0x20 DUP3 ADD MSTORE POP JUMP JUMPDEST PUSH1 0x0 PUSH2 0x2D74 PUSH1 0x2B DUP4 PUSH2 0x23C7 JUMP JUMPDEST SWAP2 POP PUSH2 0x2D7F DUP3 PUSH2 0x2D18 JUMP JUMPDEST PUSH1 0x40 DUP3 ADD SWAP1 POP SWAP2 SWAP1 POP JUMP JUMPDEST PUSH1 0x0 PUSH1 0x20 DUP3 ADD SWAP1 POP DUP2 DUP2 SUB PUSH1 0x0 DUP4 ADD MSTORE PUSH2 0x2DA3 DUP2 PUSH2 0x2D67 JUMP JUMPDEST SWAP1 POP SWAP2 SWAP1 POP JUMP JUMPDEST PUSH32 0x4E6F7420656E6F7567682072656D61696E6564206D696E746564204461746120 PUSH1 0x0 DUP3 ADD MSTORE PUSH32 0x546F6B656E732E2043616E6E6F742073656C6C20757365722773207265717565 PUSH1 0x20 DUP3 ADD MSTORE PUSH32 0x7374656420616D6F756E74000000000000000000000000000000000000000000 PUSH1 0x40 DUP3 ADD MSTORE POP JUMP JUMPDEST PUSH1 0x0 PUSH2 0x2E2C PUSH1 0x4B DUP4 PUSH2 0x23C7 JUMP JUMPDEST SWAP2 POP PUSH2 0x2E37 DUP3 PUSH2 0x2DAA JUMP JUMPDEST PUSH1 0x60 DUP3 ADD SWAP1 POP SWAP2 SWAP1 POP JUMP JUMPDEST PUSH1 0x0 PUSH1 0x20 DUP3 ADD SWAP1 POP DUP2 DUP2 SUB PUSH1 0x0 DUP4 ADD MSTORE PUSH2 0x2E5B DUP2 PUSH2 0x2E1F JUMP JUMPDEST SWAP1 POP SWAP2 SWAP1 POP JUMP JUMPDEST PUSH32 0x4661696C656420746F207472616E73666572204461746120546F6B656E732074 PUSH1 0x0 DUP3 ADD MSTORE PUSH32 0x6F20757365720000000000000000000000000000000000000000000000000000 PUSH1 0x20 DUP3 ADD MSTORE POP JUMP JUMPDEST PUSH1 0x0 PUSH2 0x2EBE PUSH1 0x26 DUP4 PUSH2 0x23C7 JUMP JUMPDEST SWAP2 POP PUSH2 0x2EC9 DUP3 PUSH2 0x2E62 JUMP JUMPDEST PUSH1 0x40 DUP3 ADD SWAP1 POP SWAP2 SWAP1 POP JUMP JUMPDEST PUSH1 0x0 PUSH1 0x20 DUP3 ADD SWAP1 POP DUP2 DUP2 SUB PUSH1 0x0 DUP4 ADD MSTORE PUSH2 0x2EED DUP2 PUSH2 0x2EB1 JUMP JUMPDEST SWAP1 POP SWAP2 SWAP1 POP JUMP JUMPDEST PUSH1 0x0 PUSH1 0x80 DUP3 ADD SWAP1 POP PUSH2 0x2F09 PUSH1 0x0 DUP4 ADD DUP8 PUSH2 0x2558 JUMP JUMPDEST PUSH2 0x2F16 PUSH1 0x20 DUP4 ADD DUP7 PUSH2 0x2558 JUMP JUMPDEST PUSH2 0x2F23 PUSH1 0x40 DUP4 ADD DUP6 PUSH2 0x24A4 JUMP JUMPDEST PUSH2 0x2F30 PUSH1 0x60 DUP4 ADD DUP5 PUSH2 0x24A4 JUMP JUMPDEST SWAP6 SWAP5 POP POP POP POP POP JUMP JUMPDEST PUSH1 0x0 PUSH2 0x2F44 DUP3 PUSH2 0x2346 JUMP JUMPDEST SWAP2 POP PUSH2 0x2F4F DUP4 PUSH2 0x2346 JUMP JUMPDEST SWAP3 POP DUP3 DUP3 ADD SWAP1 POP DUP1 DUP3 GT ISZERO PUSH2 0x2F67 JUMPI PUSH2 0x2F66 PUSH2 0x2A34 JUMP JUMPDEST JUMPDEST SWAP3 SWAP2 POP POP JUMP JUMPDEST PUSH32 0x4E6F2062616C616E636520746F20776974686472617700000000000000000000 PUSH1 0x0 DUP3 ADD MSTORE POP JUMP JUMPDEST PUSH1 0x0 PUSH2 0x2FA3 PUSH1 0x16 DUP4 PUSH2 0x23C7 JUMP JUMPDEST SWAP2 POP PUSH2 0x2FAE DUP3 PUSH2 0x2F6D JUMP JUMPDEST PUSH1 0x20 DUP3 ADD SWAP1 POP SWAP2 SWAP1 POP JUMP JUMPDEST PUSH1 0x0 PUSH1 0x20 DUP3 ADD SWAP1 POP DUP2 DUP2 SUB PUSH1 0x0 DUP4 ADD MSTORE PUSH2 0x2FD2 DUP2 PUSH2 0x2F96 JUMP JUMPDEST SWAP1 POP SWAP2 SWAP1 POP JUMP JUMPDEST PUSH1 0x0 DUP2 SWAP1 POP SWAP3 SWAP2 POP POP JUMP JUMPDEST POP JUMP JUMPDEST PUSH1 0x0 PUSH2 0x2FF4 PUSH1 0x0 DUP4 PUSH2 0x2FD9 JUMP JUMPDEST SWAP2 POP PUSH2 0x2FFF DUP3 PUSH2 0x2FE4 JUMP JUMPDEST PUSH1 0x0 DUP3 ADD SWAP1 POP SWAP2 SWAP1 POP JUMP JUMPDEST PUSH1 0x0 PUSH2 0x3015 DUP3 PUSH2 0x2FE7 JUMP JUMPDEST SWAP2 POP DUP2 SWAP1 POP SWAP2 SWAP1 POP JUMP JUMPDEST PUSH32 0x4661696C656420746F2077697468647261770000000000000000000000000000 PUSH1 0x0 DUP3 ADD MSTORE POP JUMP JUMPDEST PUSH1 0x0 PUSH2 0x3055 PUSH1 0x12 DUP4 PUSH2 0x23C7 JUMP JUMPDEST SWAP2 POP PUSH2 0x3060 DUP3 PUSH2 0x301F JUMP JUMPDEST PUSH1 0x20 DUP3 ADD SWAP1 POP SWAP2 SWAP1 POP JUMP JUMPDEST PUSH1 0x0 PUSH1 0x20 DUP3 ADD SWAP1 POP DUP2 DUP2 SUB PUSH1 0x0 DUP4 ADD MSTORE PUSH2 0x3084 DUP2 PUSH2 0x3048 JUMP JUMPDEST SWAP1 POP SWAP2 SWAP1 POP JUMP JUMPDEST PUSH32 0x4E4F5420414C4C4F57454420544F204255524E00000000000000000000000000 PUSH1 0x0 DUP3 ADD MSTORE POP JUMP JUMPDEST PUSH1 0x0 PUSH2 0x30C1 PUSH1 0x13 DUP4 PUSH2 0x23C7 JUMP JUMPDEST SWAP2 POP PUSH2 0x30CC DUP3 PUSH2 0x308B JUMP JUMPDEST PUSH1 0x20 DUP3 ADD SWAP1 POP SWAP2 SWAP1 POP JUMP JUMPDEST PUSH1 0x0 PUSH1 0x20 DUP3 ADD SWAP1 POP DUP2 DUP2 SUB PUSH1 0x0 DUP4 ADD MSTORE PUSH2 0x30F0 DUP2 PUSH2 0x30B4 JUMP JUMPDEST SWAP1 POP SWAP2 SWAP1 POP JUMP JUMPDEST PUSH32 0x496E697469616C697A61626C653A20636F6E747261637420697320616C726561 PUSH1 0x0 DUP3 ADD MSTORE PUSH32 0x647920696E697469616C697A6564000000000000000000000000000000000000 PUSH1 0x20 DUP3 ADD MSTORE POP JUMP JUMPDEST PUSH1 0x0 PUSH2 0x3153 PUSH1 0x2E DUP4 PUSH2 0x23C7 JUMP JUMPDEST SWAP2 POP PUSH2 0x315E DUP3 PUSH2 0x30F7 JUMP JUMPDEST PUSH1 0x40 DUP3 ADD SWAP1 POP SWAP2 SWAP1 POP JUMP JUMPDEST PUSH1 0x0 PUSH1 0x20 DUP3 ADD SWAP1 POP DUP2 DUP2 SUB PUSH1 0x0 DUP4 ADD MSTORE PUSH2 0x3182 DUP2 PUSH2 0x3146 JUMP JUMPDEST SWAP1 POP SWAP2 SWAP1 POP JUMP JUMPDEST PUSH32 0x4D696E7465722063616E6E6F7420626520307830302100000000000000000000 PUSH1 0x0 DUP3 ADD MSTORE POP JUMP JUMPDEST PUSH1 0x0 PUSH2 0x31BF PUSH1 0x16 DUP4 PUSH2 0x23C7 JUMP JUMPDEST SWAP2 POP PUSH2 0x31CA DUP3 PUSH2 0x3189 JUMP JUMPDEST PUSH1 0x20 DUP3 ADD SWAP1 POP SWAP2 SWAP1 POP JUMP JUMPDEST PUSH1 0x0 PUSH1 0x20 DUP3 ADD SWAP1 POP DUP2 DUP2 SUB PUSH1 0x0 DUP4 ADD MSTORE PUSH2 0x31EE DUP2 PUSH2 0x31B2 JUMP JUMPDEST SWAP1 POP SWAP2 SWAP1 POP JUMP JUMPDEST PUSH32 0x4D696E7465722063616E6E6F742062652074686520636F6E7472616374206164 PUSH1 0x0 DUP3 ADD MSTORE PUSH32 0x647265737320697473656C660000000000000000000000000000000000000000 PUSH1 0x20 DUP3 ADD MSTORE POP JUMP JUMPDEST PUSH1 0x0 PUSH2 0x3251 PUSH1 0x2C DUP4 PUSH2 0x23C7 JUMP JUMPDEST SWAP2 POP PUSH2 0x325C DUP3 PUSH2 0x31F5 JUMP JUMPDEST PUSH1 0x40 DUP3 ADD SWAP1 POP SWAP2 SWAP1 POP JUMP JUMPDEST PUSH1 0x0 PUSH1 0x20 DUP3 ADD SWAP1 POP DUP2 DUP2 SUB PUSH1 0x0 DUP4 ADD MSTORE PUSH2 0x3280 DUP2 PUSH2 0x3244 JUMP JUMPDEST SWAP1 POP SWAP2 SWAP1 POP JUMP JUMPDEST PUSH32 0x4E4F5420544845204E4654204F574E4552000000000000000000000000000000 PUSH1 0x0 DUP3 ADD MSTORE POP JUMP JUMPDEST PUSH1 0x0 PUSH2 0x32BD PUSH1 0x11 DUP4 PUSH2 0x23C7 JUMP JUMPDEST SWAP2 POP PUSH2 0x32C8 DUP3 PUSH2 0x3287 JUMP JUMPDEST PUSH1 0x20 DUP3 ADD SWAP1 POP SWAP2 SWAP1 POP JUMP JUMPDEST PUSH1 0x0 PUSH1 0x20 DUP3 ADD SWAP1 POP DUP2 DUP2 SUB PUSH1 0x0 DUP4 ADD MSTORE PUSH2 0x32EC DUP2 PUSH2 0x32B0 JUMP JUMPDEST SWAP1 POP SWAP2 SWAP1 POP JUMP JUMPDEST PUSH32 0x455243373231466163746F727920616464726573732063616E6E6F7420626520 PUSH1 0x0 DUP3 ADD MSTORE PUSH32 0x3078303021000000000000000000000000000000000000000000000000000000 PUSH1 0x20 DUP3 ADD MSTORE POP JUMP JUMPDEST PUSH1 0x0 PUSH2 0x334F PUSH1 0x25 DUP4 PUSH2 0x23C7 JUMP JUMPDEST SWAP2 POP PUSH2 0x335A DUP3 PUSH2 0x32F3 JUMP JUMPDEST PUSH1 0x40 DUP3 ADD SWAP1 POP SWAP2 SWAP1 POP JUMP JUMPDEST PUSH1 0x0 PUSH1 0x20 DUP3 ADD SWAP1 POP DUP2 DUP2 SUB PUSH1 0x0 DUP4 ADD MSTORE PUSH2 0x337E DUP2 PUSH2 0x3342 JUMP JUMPDEST SWAP1 POP SWAP2 SWAP1 POP JUMP JUMPDEST PUSH32 0x546865206D6178696D756D20737570706C79206D757374206265203E20300000 PUSH1 0x0 DUP3 ADD MSTORE POP JUMP JUMPDEST PUSH1 0x0 PUSH2 0x33BB PUSH1 0x1E DUP4 PUSH2 0x23C7 JUMP JUMPDEST SWAP2 POP PUSH2 0x33C6 DUP3 PUSH2 0x3385 JUMP JUMPDEST PUSH1 0x20 DUP3 ADD SWAP1 POP SWAP2 SWAP1 POP JUMP JUMPDEST PUSH1 0x0 PUSH1 0x20 DUP3 ADD SWAP1 POP DUP2 DUP2 SUB PUSH1 0x0 DUP4 ADD MSTORE PUSH2 0x33EA DUP2 PUSH2 0x33AE JUMP JUMPDEST SWAP1 POP SWAP2 SWAP1 POP JUMP JUMPDEST PUSH32 0x54686520696E697469616C20737570706C792063616E6E6F74206265206E6567 PUSH1 0x0 DUP3 ADD MSTORE PUSH32 0x6174697665000000000000000000000000000000000000000000000000000000 PUSH1 0x20 DUP3 ADD MSTORE POP JUMP JUMPDEST PUSH1 0x0 PUSH2 0x344D PUSH1 0x25 DUP4 PUSH2 0x23C7 JUMP JUMPDEST SWAP2 POP PUSH2 0x3458 DUP3 PUSH2 0x33F1 JUMP JUMPDEST PUSH1 0x40 DUP3 ADD SWAP1 POP SWAP2 SWAP1 POP JUMP JUMPDEST PUSH1 0x0 PUSH1 0x20 DUP3 ADD SWAP1 POP DUP2 DUP2 SUB PUSH1 0x0 DUP4 ADD MSTORE PUSH2 0x347C DUP2 PUSH2 0x3440 JUMP JUMPDEST SWAP1 POP SWAP2 SWAP1 POP JUMP JUMPDEST PUSH32 0x54686520696E697469616C20737570706C792063616E6E6F7420657865656420 PUSH1 0x0 DUP3 ADD MSTORE PUSH32 0x74686520746F74616C2063617000000000000000000000000000000000000000 PUSH1 0x20 DUP3 ADD MSTORE POP JUMP JUMPDEST PUSH1 0x0 PUSH2 0x34DF PUSH1 0x2D DUP4 PUSH2 0x23C7 JUMP JUMPDEST SWAP2 POP PUSH2 0x34EA DUP3 PUSH2 0x3483 JUMP JUMPDEST PUSH1 0x40 DUP3 ADD SWAP1 POP SWAP2 SWAP1 POP JUMP JUMPDEST PUSH1 0x0 PUSH1 0x20 DUP3 ADD SWAP1 POP DUP2 DUP2 SUB PUSH1 0x0 DUP4 ADD MSTORE PUSH2 0x350E DUP2 PUSH2 0x34D2 JUMP JUMPDEST SWAP1 POP SWAP2 SWAP1 POP JUMP JUMPDEST PUSH32 0x496E697469616C206D696E74696E67206572726F723A20746F74616C53757070 PUSH1 0x0 DUP3 ADD MSTORE PUSH32 0x6C7920646F6573206E6F74206D6174636820696E697469616C537570706C7900 PUSH1 0x20 DUP3 ADD MSTORE POP JUMP JUMPDEST PUSH1 0x0 PUSH2 0x3571 PUSH1 0x3F DUP4 PUSH2 0x23C7 JUMP JUMPDEST SWAP2 POP PUSH2 0x357C DUP3 PUSH2 0x3515 JUMP JUMPDEST PUSH1 0x40 DUP3 ADD SWAP1 POP SWAP2 SWAP1 POP JUMP JUMPDEST PUSH1 0x0 PUSH1 0x20 DUP3 ADD SWAP1 POP DUP2 DUP2 SUB PUSH1 0x0 DUP4 ADD MSTORE PUSH2 0x35A0 DUP2 PUSH2 0x3564 JUMP JUMPDEST SWAP1 POP SWAP2 SWAP1 POP JUMP JUMPDEST PUSH32 0x4D696E74696E67206F662064617461746F6B656E206661696C65640000000000 PUSH1 0x0 DUP3 ADD MSTORE POP JUMP JUMPDEST PUSH1 0x0 PUSH2 0x35DD PUSH1 0x1B DUP4 PUSH2 0x23C7 JUMP JUMPDEST SWAP2 POP PUSH2 0x35E8 DUP3 PUSH2 0x35A7 JUMP JUMPDEST PUSH1 0x20 DUP3 ADD SWAP1 POP SWAP2 SWAP1 POP JUMP JUMPDEST PUSH1 0x0 PUSH1 0x20 DUP3 ADD SWAP1 POP DUP2 DUP2 SUB PUSH1 0x0 DUP4 ADD MSTORE PUSH2 0x360C DUP2 PUSH2 0x35D0 JUMP JUMPDEST SWAP1 POP SWAP2 SWAP1 POP JUMP JUMPDEST PUSH1 0x0 PUSH1 0x80 DUP3 ADD SWAP1 POP DUP2 DUP2 SUB PUSH1 0x0 DUP4 ADD MSTORE PUSH2 0x362D DUP2 DUP8 PUSH2 0x2413 JUMP JUMPDEST SWAP1 POP DUP2 DUP2 SUB PUSH1 0x20 DUP4 ADD MSTORE PUSH2 0x3641 DUP2 DUP7 PUSH2 0x2413 JUMP JUMPDEST SWAP1 POP PUSH2 0x3650 PUSH1 0x40 DUP4 ADD DUP6 PUSH2 0x2558 JUMP JUMPDEST PUSH2 0x365D PUSH1 0x60 DUP4 ADD DUP5 PUSH2 0x24A4 JUMP JUMPDEST SWAP6 SWAP5 POP POP POP POP POP JUMP JUMPDEST PUSH1 0x0 DUP2 SWAP1 POP SWAP2 SWAP1 POP JUMP JUMPDEST PUSH1 0x0 DUP2 SWAP1 POP SWAP2 SWAP1 POP JUMP JUMPDEST PUSH1 0x0 PUSH2 0x3695 PUSH2 0x3690 PUSH2 0x368B DUP5 PUSH2 0x3666 JUMP JUMPDEST PUSH2 0x3670 JUMP JUMPDEST PUSH2 0x2521 JUMP JUMPDEST SWAP1 POP SWAP2 SWAP1 POP JUMP JUMPDEST PUSH2 0x36A5 DUP2 PUSH2 0x367A JUMP JUMPDEST DUP3 MSTORE POP POP JUMP JUMPDEST PUSH1 0x0 PUSH1 0x20 DUP3 ADD SWAP1 POP PUSH2 0x36C0 PUSH1 0x0 DUP4 ADD DUP5 PUSH2 0x369C JUMP JUMPDEST SWAP3 SWAP2 POP POP JUMP JUMPDEST PUSH32 0x45524332303A2064656372656173656420616C6C6F77616E63652062656C6F77 PUSH1 0x0 DUP3 ADD MSTORE PUSH32 0x207A65726F000000000000000000000000000000000000000000000000000000 PUSH1 0x20 DUP3 ADD MSTORE POP JUMP JUMPDEST PUSH1 0x0 PUSH2 0x3722 PUSH1 0x25 DUP4 PUSH2 0x23C7 JUMP JUMPDEST SWAP2 POP PUSH2 0x372D DUP3 PUSH2 0x36C6 JUMP JUMPDEST PUSH1 0x40 DUP3 ADD SWAP1 POP SWAP2 SWAP1 POP JUMP JUMPDEST PUSH1 0x0 PUSH1 0x20 DUP3 ADD SWAP1 POP DUP2 DUP2 SUB PUSH1 0x0 DUP4 ADD MSTORE PUSH2 0x3751 DUP2 PUSH2 0x3715 JUMP JUMPDEST SWAP1 POP SWAP2 SWAP1 POP JUMP JUMPDEST PUSH32 0x4552433230445420455850495245440000000000000000000000000000000000 PUSH1 0x0 DUP3 ADD MSTORE POP JUMP JUMPDEST PUSH1 0x0 PUSH2 0x378E PUSH1 0xF DUP4 PUSH2 0x23C7 JUMP JUMPDEST SWAP2 POP PUSH2 0x3799 DUP3 PUSH2 0x3758 JUMP JUMPDEST PUSH1 0x20 DUP3 ADD SWAP1 POP SWAP2 SWAP1 POP JUMP JUMPDEST PUSH1 0x0 PUSH1 0x20 DUP3 ADD SWAP1 POP DUP2 DUP2 SUB PUSH1 0x0 DUP4 ADD MSTORE PUSH2 0x37BD DUP2 PUSH2 0x3781 JUMP JUMPDEST SWAP1 POP SWAP2 SWAP1 POP JUMP JUMPDEST PUSH32 0x4F776E6572206E6F7420746865204E4654206F776E6572000000000000000000 PUSH1 0x0 DUP3 ADD MSTORE POP JUMP JUMPDEST PUSH1 0x0 PUSH2 0x37FA PUSH1 0x17 DUP4 PUSH2 0x23C7 JUMP JUMPDEST SWAP2 POP PUSH2 0x3805 DUP3 PUSH2 0x37C4 JUMP JUMPDEST PUSH1 0x20 DUP3 ADD SWAP1 POP SWAP2 SWAP1 POP JUMP JUMPDEST PUSH1 0x0 PUSH1 0x20 DUP3 ADD SWAP1 POP DUP2 DUP2 SUB PUSH1 0x0 DUP4 ADD MSTORE PUSH2 0x3829 DUP2 PUSH2 0x37ED JUMP JUMPDEST SWAP1 POP SWAP2 SWAP1 POP JUMP JUMPDEST PUSH2 0x3839 DUP2 PUSH2 0x2802 JUMP JUMPDEST DUP3 MSTORE POP POP JUMP JUMPDEST PUSH1 0x0 PUSH1 0xC0 DUP3 ADD SWAP1 POP PUSH2 0x3854 PUSH1 0x0 DUP4 ADD DUP10 PUSH2 0x3830 JUMP JUMPDEST PUSH2 0x3861 PUSH1 0x20 DUP4 ADD DUP9 PUSH2 0x2558 JUMP JUMPDEST PUSH2 0x386E PUSH1 0x40 DUP4 ADD DUP8 PUSH2 0x2558 JUMP JUMPDEST PUSH2 0x387B PUSH1 0x60 DUP4 ADD DUP7 PUSH2 0x24A4 JUMP JUMPDEST PUSH2 0x3888 PUSH1 0x80 DUP4 ADD DUP6 PUSH2 0x24A4 JUMP JUMPDEST PUSH2 0x3895 PUSH1 0xA0 DUP4 ADD DUP5 PUSH2 0x24A4 JUMP JUMPDEST SWAP8 SWAP7 POP POP POP POP POP POP POP JUMP JUMPDEST PUSH1 0x0 DUP2 SWAP1 POP SWAP3 SWAP2 POP POP JUMP JUMPDEST PUSH32 0x1901000000000000000000000000000000000000000000000000000000000000 PUSH1 0x0 DUP3 ADD MSTORE POP JUMP JUMPDEST PUSH1 0x0 PUSH2 0x38E1 PUSH1 0x2 DUP4 PUSH2 0x38A0 JUMP JUMPDEST SWAP2 POP PUSH2 0x38EC DUP3 PUSH2 0x38AB JUMP JUMPDEST PUSH1 0x2 DUP3 ADD SWAP1 POP SWAP2 SWAP1 POP JUMP JUMPDEST PUSH1 0x0 DUP2 SWAP1 POP SWAP2 SWAP1 POP JUMP JUMPDEST PUSH2 0x3912 PUSH2 0x390D DUP3 PUSH2 0x2802 JUMP JUMPDEST PUSH2 0x38F7 JUMP JUMPDEST DUP3 MSTORE POP POP JUMP JUMPDEST PUSH1 0x0 PUSH2 0x3923 DUP3 PUSH2 0x38D4 JUMP JUMPDEST SWAP2 POP PUSH2 0x392F DUP3 DUP6 PUSH2 0x3901 JUMP JUMPDEST PUSH1 0x20 DUP3 ADD SWAP2 POP PUSH2 0x393F DUP3 DUP5 PUSH2 0x3901 JUMP JUMPDEST PUSH1 0x20 DUP3 ADD SWAP2 POP DUP2 SWAP1 POP SWAP4 SWAP3 POP POP POP JUMP JUMPDEST PUSH32 0x4552433230426173653A207065726D697420646964206E6F7420737563636565 PUSH1 0x0 DUP3 ADD MSTORE PUSH32 0x642E204E6F6E6365206D69736D61746368210000000000000000000000000000 PUSH1 0x20 DUP3 ADD MSTORE POP JUMP JUMPDEST PUSH1 0x0 PUSH2 0x39AB PUSH1 0x32 DUP4 PUSH2 0x23C7 JUMP JUMPDEST SWAP2 POP PUSH2 0x39B6 DUP3 PUSH2 0x394F JUMP JUMPDEST PUSH1 0x40 DUP3 ADD SWAP1 POP SWAP2 SWAP1 POP JUMP JUMPDEST PUSH1 0x0 PUSH1 0x20 DUP3 ADD SWAP1 POP DUP2 DUP2 SUB PUSH1 0x0 DUP4 ADD MSTORE PUSH2 0x39DA DUP2 PUSH2 0x399E JUMP JUMPDEST SWAP1 POP SWAP2 SWAP1 POP JUMP JUMPDEST PUSH1 0x0 PUSH1 0x80 DUP3 ADD SWAP1 POP PUSH2 0x39F6 PUSH1 0x0 DUP4 ADD DUP8 PUSH2 0x3830 JUMP JUMPDEST PUSH2 0x3A03 PUSH1 0x20 DUP4 ADD DUP7 PUSH2 0x252E JUMP JUMPDEST PUSH2 0x3A10 PUSH1 0x40 DUP4 ADD DUP6 PUSH2 0x3830 JUMP JUMPDEST PUSH2 0x3A1D PUSH1 0x60 DUP4 ADD DUP5 PUSH2 0x3830 JUMP JUMPDEST SWAP6 SWAP5 POP POP POP POP POP JUMP JUMPDEST PUSH32 0x45524332302064617461746F6B656E3A20494E56414C4944205349474E415455 PUSH1 0x0 DUP3 ADD MSTORE PUSH32 0x524520494E2045524332302D5045524D49540000000000000000000000000000 PUSH1 0x20 DUP3 ADD MSTORE POP JUMP JUMPDEST PUSH1 0x0 PUSH2 0x3A82 PUSH1 0x32 DUP4 PUSH2 0x23C7 JUMP JUMPDEST SWAP2 POP PUSH2 0x3A8D DUP3 PUSH2 0x3A26 JUMP JUMPDEST PUSH1 0x40 DUP3 ADD SWAP1 POP SWAP2 SWAP1 POP JUMP JUMPDEST PUSH1 0x0 PUSH1 0x20 DUP3 ADD SWAP1 POP DUP2 DUP2 SUB PUSH1 0x0 DUP4 ADD MSTORE PUSH2 0x3AB1 DUP2 PUSH2 0x3A75 JUMP JUMPDEST SWAP1 POP SWAP2 SWAP1 POP JUMP JUMPDEST PUSH32 0x45524332303A206D696E7420746F20746865207A65726F206164647265737300 PUSH1 0x0 DUP3 ADD MSTORE POP JUMP JUMPDEST PUSH1 0x0 PUSH2 0x3AEE PUSH1 0x1F DUP4 PUSH2 0x23C7 JUMP JUMPDEST SWAP2 POP PUSH2 0x3AF9 DUP3 PUSH2 0x3AB8 JUMP JUMPDEST PUSH1 0x20 DUP3 ADD SWAP1 POP SWAP2 SWAP1 POP JUMP JUMPDEST PUSH1 0x0 PUSH1 0x20 DUP3 ADD SWAP1 POP DUP2 DUP2 SUB PUSH1 0x0 DUP4 ADD MSTORE PUSH2 0x3B1D DUP2 PUSH2 0x3AE1 JUMP JUMPDEST SWAP1 POP SWAP2 SWAP1 POP JUMP JUMPDEST PUSH32 0x45524332303A20617070726F76652066726F6D20746865207A65726F20616464 PUSH1 0x0 DUP3 ADD MSTORE PUSH32 0x7265737300000000000000000000000000000000000000000000000000000000 PUSH1 0x20 DUP3 ADD MSTORE POP JUMP JUMPDEST PUSH1 0x0 PUSH2 0x3B80 PUSH1 0x24 DUP4 PUSH2 0x23C7 JUMP JUMPDEST SWAP2 POP PUSH2 0x3B8B DUP3 PUSH2 0x3B24 JUMP JUMPDEST PUSH1 0x40 DUP3 ADD SWAP1 POP SWAP2 SWAP1 POP JUMP JUMPDEST PUSH1 0x0 PUSH1 0x20 DUP3 ADD SWAP1 POP DUP2 DUP2 SUB PUSH1 0x0 DUP4 ADD MSTORE PUSH2 0x3BAF DUP2 PUSH2 0x3B73 JUMP JUMPDEST SWAP1 POP SWAP2 SWAP1 POP JUMP JUMPDEST PUSH32 0x45524332303A20617070726F766520746F20746865207A65726F206164647265 PUSH1 0x0 DUP3 ADD MSTORE PUSH32 0x7373000000000000000000000000000000000000000000000000000000000000 PUSH1 0x20 DUP3 ADD MSTORE POP JUMP JUMPDEST PUSH1 0x0 PUSH2 0x3C12 PUSH1 0x22 DUP4 PUSH2 0x23C7 JUMP JUMPDEST SWAP2 POP PUSH2 0x3C1D DUP3 PUSH2 0x3BB6 JUMP JUMPDEST PUSH1 0x40 DUP3 ADD SWAP1 POP SWAP2 SWAP1 POP JUMP JUMPDEST PUSH1 0x0 PUSH1 0x20 DUP3 ADD SWAP1 POP DUP2 DUP2 SUB PUSH1 0x0 DUP4 ADD MSTORE PUSH2 0x3C41 DUP2 PUSH2 0x3C05 JUMP JUMPDEST SWAP1 POP SWAP2 SWAP1 POP JUMP JUMPDEST PUSH32 0x45524332303A20696E73756666696369656E7420616C6C6F77616E6365000000 PUSH1 0x0 DUP3 ADD MSTORE POP JUMP JUMPDEST PUSH1 0x0 PUSH2 0x3C7E PUSH1 0x1D DUP4 PUSH2 0x23C7 JUMP JUMPDEST SWAP2 POP PUSH2 0x3C89 DUP3 PUSH2 0x3C48 JUMP JUMPDEST PUSH1 0x20 DUP3 ADD SWAP1 POP SWAP2 SWAP1 POP JUMP JUMPDEST PUSH1 0x0 PUSH1 0x20 DUP3 ADD SWAP1 POP DUP2 DUP2 SUB PUSH1 0x0 DUP4 ADD MSTORE PUSH2 0x3CAD DUP2 PUSH2 0x3C71 JUMP JUMPDEST SWAP1 POP SWAP2 SWAP1 POP JUMP JUMPDEST PUSH32 0x45524332303A207472616E736665722066726F6D20746865207A65726F206164 PUSH1 0x0 DUP3 ADD MSTORE PUSH32 0x6472657373000000000000000000000000000000000000000000000000000000 PUSH1 0x20 DUP3 ADD MSTORE POP JUMP JUMPDEST PUSH1 0x0 PUSH2 0x3D10 PUSH1 0x25 DUP4 PUSH2 0x23C7 JUMP JUMPDEST SWAP2 POP PUSH2 0x3D1B DUP3 PUSH2 0x3CB4 JUMP JUMPDEST PUSH1 0x40 DUP3 ADD SWAP1 POP SWAP2 SWAP1 POP JUMP JUMPDEST PUSH1 0x0 PUSH1 0x20 DUP3 ADD SWAP1 POP DUP2 DUP2 SUB PUSH1 0x0 DUP4 ADD MSTORE PUSH2 0x3D3F DUP2 PUSH2 0x3D03 JUMP JUMPDEST SWAP1 POP SWAP2 SWAP1 POP JUMP JUMPDEST PUSH32 0x45524332303A207472616E7366657220746F20746865207A65726F2061646472 PUSH1 0x0 DUP3 ADD MSTORE PUSH32 0x6573730000000000000000000000000000000000000000000000000000000000 PUSH1 0x20 DUP3 ADD MSTORE POP JUMP JUMPDEST PUSH1 0x0 PUSH2 0x3DA2 PUSH1 0x23 DUP4 PUSH2 0x23C7 JUMP JUMPDEST SWAP2 POP PUSH2 0x3DAD DUP3 PUSH2 0x3D46 JUMP JUMPDEST PUSH1 0x40 DUP3 ADD SWAP1 POP SWAP2 SWAP1 POP JUMP JUMPDEST PUSH1 0x0 PUSH1 0x20 DUP3 ADD SWAP1 POP DUP2 DUP2 SUB PUSH1 0x0 DUP4 ADD MSTORE PUSH2 0x3DD1 DUP2 PUSH2 0x3D95 JUMP JUMPDEST SWAP1 POP SWAP2 SWAP1 POP JUMP JUMPDEST PUSH32 0x45524332303A207472616E7366657220616D6F756E7420657863656564732062 PUSH1 0x0 DUP3 ADD MSTORE PUSH32 0x616C616E63650000000000000000000000000000000000000000000000000000 PUSH1 0x20 DUP3 ADD MSTORE POP JUMP JUMPDEST PUSH1 0x0 PUSH2 0x3E34 PUSH1 0x26 DUP4 PUSH2 0x23C7 JUMP JUMPDEST SWAP2 POP PUSH2 0x3E3F DUP3 PUSH2 0x3DD8 JUMP JUMPDEST PUSH1 0x40 DUP3 ADD SWAP1 POP SWAP2 SWAP1 POP JUMP JUMPDEST PUSH1 0x0 PUSH1 0x20 DUP3 ADD SWAP1 POP DUP2 DUP2 SUB PUSH1 0x0 DUP4 ADD MSTORE PUSH2 0x3E63 DUP2 PUSH2 0x3E27 JUMP JUMPDEST SWAP1 POP SWAP2 SWAP1 POP JUMP JUMPDEST PUSH32 0x45524332303A206275726E2066726F6D20746865207A65726F20616464726573 PUSH1 0x0 DUP3 ADD MSTORE PUSH32 0x7300000000000000000000000000000000000000000000000000000000000000 PUSH1 0x20 DUP3 ADD MSTORE POP JUMP JUMPDEST PUSH1 0x0 PUSH2 0x3EC6 PUSH1 0x21 DUP4 PUSH2 0x23C7 JUMP JUMPDEST SWAP2 POP PUSH2 0x3ED1 DUP3 PUSH2 0x3E6A JUMP JUMPDEST PUSH1 0x40 DUP3 ADD SWAP1 POP SWAP2 SWAP1 POP JUMP JUMPDEST PUSH1 0x0 PUSH1 0x20 DUP3 ADD SWAP1 POP DUP2 DUP2 SUB PUSH1 0x0 DUP4 ADD MSTORE PUSH2 0x3EF5 DUP2 PUSH2 0x3EB9 JUMP JUMPDEST SWAP1 POP SWAP2 SWAP1 POP JUMP JUMPDEST PUSH32 0x45524332303A206275726E20616D6F756E7420657863656564732062616C616E PUSH1 0x0 DUP3 ADD MSTORE PUSH32 0x6365000000000000000000000000000000000000000000000000000000000000 PUSH1 0x20 DUP3 ADD MSTORE POP JUMP JUMPDEST PUSH1 0x0 PUSH2 0x3F58 PUSH1 0x22 DUP4 PUSH2 0x23C7 JUMP JUMPDEST SWAP2 POP PUSH2 0x3F63 DUP3 PUSH2 0x3EFC JUMP JUMPDEST PUSH1 0x40 DUP3 ADD SWAP1 POP SWAP2 SWAP1 POP JUMP JUMPDEST PUSH1 0x0 PUSH1 0x20 DUP3 ADD SWAP1 POP DUP2 DUP2 SUB PUSH1 0x0 DUP4 ADD MSTORE PUSH2 0x3F87 DUP2 PUSH2 0x3F4B JUMP JUMPDEST SWAP1 POP SWAP2 SWAP1 POP JUMP JUMPDEST PUSH32 0x496E697469616C697A61626C653A20636F6E7472616374206973206E6F742069 PUSH1 0x0 DUP3 ADD MSTORE PUSH32 0x6E697469616C697A696E67000000000000000000000000000000000000000000 PUSH1 0x20 DUP3 ADD MSTORE POP JUMP JUMPDEST PUSH1 0x0 PUSH2 0x3FEA PUSH1 0x2B DUP4 PUSH2 0x23C7 JUMP JUMPDEST SWAP2 POP PUSH2 0x3FF5 DUP3 PUSH2 0x3F8E JUMP JUMPDEST PUSH1 0x40 DUP3 ADD SWAP1 POP SWAP2 SWAP1 POP JUMP JUMPDEST PUSH1 0x0 PUSH1 0x20 DUP3 ADD SWAP1 POP DUP2 DUP2 SUB PUSH1 0x0 DUP4 ADD MSTORE PUSH2 0x4019 DUP2 PUSH2 0x3FDD JUMP JUMPDEST SWAP1 POP SWAP2 SWAP1 POP JUMP JUMPDEST PUSH1 0x0 PUSH1 0xA0 DUP3 ADD SWAP1 POP PUSH2 0x4035 PUSH1 0x0 DUP4 ADD DUP9 PUSH2 0x3830 JUMP JUMPDEST PUSH2 0x4042 PUSH1 0x20 DUP4 ADD DUP8 PUSH2 0x3830 JUMP JUMPDEST PUSH2 0x404F PUSH1 0x40 DUP4 ADD DUP7 PUSH2 0x3830 JUMP JUMPDEST PUSH2 0x405C PUSH1 0x60 DUP4 ADD DUP6 PUSH2 0x24A4 JUMP JUMPDEST PUSH2 0x4069 PUSH1 0x80 DUP4 ADD DUP5 PUSH2 0x2558 JUMP JUMPDEST SWAP7 SWAP6 POP POP POP POP POP POP JUMP JUMPDEST PUSH1 0x0 DUP2 SWAP1 POP DUP2 PUSH1 0x0 MSTORE PUSH1 0x20 PUSH1 0x0 KECCAK256 SWAP1 POP SWAP2 SWAP1 POP JUMP JUMPDEST PUSH1 0x0 PUSH1 0x20 PUSH1 0x1F DUP4 ADD DIV SWAP1 POP SWAP2 SWAP1 POP JUMP JUMPDEST PUSH1 0x0 DUP3 DUP3 SHL SWAP1 POP SWAP3 SWAP2 POP POP JUMP JUMPDEST PUSH1 0x0 PUSH1 0x8 DUP4 MUL PUSH2 0x40D5 PUSH32 0xFFFFFFFFFFFFFFFFFFFFFFFFFFFFFFFFFFFFFFFFFFFFFFFFFFFFFFFFFFFFFFFF DUP3 PUSH2 0x4098 JUMP JUMPDEST PUSH2 0x40DF DUP7 DUP4 PUSH2 0x4098 JUMP JUMPDEST SWAP6 POP DUP1 NOT DUP5 AND SWAP4 POP DUP1 DUP7 AND DUP5 OR SWAP3 POP POP POP SWAP4 SWAP3 POP POP POP JUMP JUMPDEST PUSH1 0x0 PUSH2 0x4112 PUSH2 0x410D PUSH2 0x4108 DUP5 PUSH2 0x2346 JUMP JUMPDEST PUSH2 0x3670 JUMP JUMPDEST PUSH2 0x2346 JUMP JUMPDEST SWAP1 POP SWAP2 SWAP1 POP JUMP JUMPDEST PUSH1 0x0 DUP2 SWAP1 POP SWAP2 SWAP1 POP JUMP JUMPDEST PUSH2 0x412C DUP4 PUSH2 0x40F7 JUMP JUMPDEST PUSH2 0x4140 PUSH2 0x4138 DUP3 PUSH2 0x4119 JUMP JUMPDEST DUP5 DUP5 SLOAD PUSH2 0x40A5 JUMP JUMPDEST DUP3 SSTORE POP POP POP POP JUMP JUMPDEST PUSH1 0x0 SWAP1 JUMP JUMPDEST PUSH2 0x4155 PUSH2 0x4148 JUMP JUMPDEST PUSH2 0x4160 DUP2 DUP5 DUP5 PUSH2 0x4123 JUMP JUMPDEST POP POP POP JUMP JUMPDEST JUMPDEST DUP2 DUP2 LT ISZERO PUSH2 0x4184 JUMPI PUSH2 0x4179 PUSH1 0x0 DUP3 PUSH2 0x414D JUMP JUMPDEST PUSH1 0x1 DUP2 ADD SWAP1 POP PUSH2 0x4166 JUMP JUMPDEST POP POP JUMP JUMPDEST PUSH1 0x1F DUP3 GT ISZERO PUSH2 0x41C9 JUMPI PUSH2 0x419A DUP2 PUSH2 0x4073 JUMP JUMPDEST PUSH2 0x41A3 DUP5 PUSH2 0x4088 JUMP JUMPDEST DUP2 ADD PUSH1 0x20 DUP6 LT ISZERO PUSH2 0x41B2 JUMPI DUP2 SWAP1 POP JUMPDEST PUSH2 0x41C6 PUSH2 0x41BE DUP6 PUSH2 0x4088 JUMP JUMPDEST DUP4 ADD DUP3 PUSH2 0x4165 JUMP JUMPDEST POP POP JUMPDEST POP POP POP JUMP JUMPDEST PUSH1 0x0 DUP3 DUP3 SHR SWAP1 POP SWAP3 SWAP2 POP POP JUMP JUMPDEST PUSH1 0x0 PUSH2 0x41EC PUSH1 0x0 NOT DUP5 PUSH1 0x8 MUL PUSH2 0x41CE JUMP JUMPDEST NOT DUP1 DUP4 AND SWAP2 POP POP SWAP3 SWAP2 POP POP JUMP JUMPDEST PUSH1 0x0 PUSH2 0x4205 DUP4 DUP4 PUSH2 0x41DB JUMP JUMPDEST SWAP2 POP DUP3 PUSH1 0x2 MUL DUP3 OR SWAP1 POP SWAP3 SWAP2 POP POP JUMP JUMPDEST PUSH2 0x421E DUP3 PUSH2 0x23BC JUMP JUMPDEST PUSH8 0xFFFFFFFFFFFFFFFF DUP2 GT ISZERO PUSH2 0x4237 JUMPI PUSH2 0x4236 PUSH2 0x25E6 JUMP JUMPDEST JUMPDEST PUSH2 0x4241 DUP3 SLOAD PUSH2 0x2C7B JUMP JUMPDEST PUSH2 0x424C DUP3 DUP3 DUP6 PUSH2 0x4188 JUMP JUMPDEST PUSH1 0x0 PUSH1 0x20 SWAP1 POP PUSH1 0x1F DUP4 GT PUSH1 0x1 DUP2 EQ PUSH2 0x427F JUMPI PUSH1 0x0 DUP5 ISZERO PUSH2 0x426D JUMPI DUP3 DUP8 ADD MLOAD SWAP1 POP JUMPDEST PUSH2 0x4277 DUP6 DUP3 PUSH2 0x41F9 JUMP JUMPDEST DUP7 SSTORE POP PUSH2 0x42DF JUMP JUMPDEST PUSH1 0x1F NOT DUP5 AND PUSH2 0x428D DUP7 PUSH2 0x4073 JUMP JUMPDEST PUSH1 0x0 JUMPDEST DUP3 DUP2 LT ISZERO PUSH2 0x42B5 JUMPI DUP5 DUP10 ADD MLOAD DUP3 SSTORE PUSH1 0x1 DUP3 ADD SWAP2 POP PUSH1 0x20 DUP6 ADD SWAP5 POP PUSH1 0x20 DUP2 ADD SWAP1 POP PUSH2 0x4290 JUMP JUMPDEST DUP7 DUP4 LT ISZERO PUSH2 0x42D2 JUMPI DUP5 DUP10 ADD MLOAD PUSH2 0x42CE PUSH1 0x1F DUP10 AND DUP3 PUSH2 0x41DB JUMP JUMPDEST DUP4 SSTORE POP JUMPDEST PUSH1 0x1 PUSH1 0x2 DUP9 MUL ADD DUP9 SSTORE POP POP POP JUMPDEST POP POP POP POP POP POP JUMP INVALID LOG2 PUSH5 0x6970667358 0x22 SLT KECCAK256 0x5E LOG3 NUMBER CALL 0x1E 0xBB EQ BASEFEE LOG0 0x28 0xD7 0x2C PUSH30 0x4C39F7F111870255C71E665756DFB61472F14A64736F6C63430008120033 "},"methodIdentifiers":{"allowance(address,address)":"dd62ed3e","approve(address,uint256)":"095ea7b3","balanceOf(address)":"70a08231","burn(uint256)":"42966c68","buyDT()":"1016e822","decimals()":"313ce567","decreaseAllowance(address,uint256)":"a457c2d7","getAllowedMinter()":"410a1095","increaseAllowance(address,uint256)":"39509351","initialize(string,string,address,address,uint256,uint256)":"74e87e1e","myMint(address,uint256)":"0334a4e4","name()":"06fdde03","nonces_(address)":"73c84f74","permit(address,address,uint256,uint256,uint8,bytes32,bytes32)":"d505accf","symbol()":"95d89b41","tokensPerSMR()":"f0e9ffa9","totalSupply()":"18160ddd","transfer(address,uint256)":"a9059cbb","transferFrom(address,address,uint256)":"23b872dd","withdraw()":"3ccfd60b"}}}}}