{"contracts/ERC721Base.sol":{"ERC721Base":{"abi":[{"anonymous":false,"inputs":[{"indexed":true,"internalType":"address","name":"owner","type":"address"},{"indexed":true,"internalType":"address","name":"approved","type":"address"},{"indexed":true,"internalType":"uint256","name":"tokenId","type":"uint256"}],"name":"Approval","type":"event"},{"anonymous":false,"inputs":[{"indexed":true,"internalType":"address","name":"owner","type":"address"},{"indexed":true,"internalType":"address","name":"operator","type":"address"},{"indexed":false,"internalType":"bool","name":"approved","type":"bool"}],"name":"ApprovalForAll","type":"event"},{"anonymous":false,"inputs":[{"indexed":false,"internalType":"uint8","name":"version","type":"uint8"}],"name":"Initialized","type":"event"},{"anonymous":false,"inputs":[{"indexed":true,"internalType":"address","name":"owner","type":"address"},{"indexed":false,"internalType":"string","name":"name","type":"string"},{"indexed":false,"internalType":"string","name":"symbol","type":"string"},{"indexed":false,"internalType":"address","name":"factory","type":"address"}],"name":"NFTminted","type":"event"},{"anonymous":false,"inputs":[{"indexed":true,"internalType":"address","name":"owner","type":"address"},{"indexed":false,"internalType":"string","name":"name","type":"string"},{"indexed":false,"internalType":"string","name":"symbol","type":"string"},{"indexed":false,"internalType":"uint256","name":"oldPrice","type":"uint256"},{"indexed":false,"internalType":"uint256","name":"newPrice","type":"uint256"}],"name":"NFTpriceUpdated","type":"event"},{"anonymous":false,"inputs":[{"indexed":true,"internalType":"address","name":"from","type":"address"},{"indexed":true,"internalType":"address","name":"to","type":"address"},{"indexed":true,"internalType":"uint256","name":"tokenId","type":"uint256"}],"name":"Transfer","type":"event"},{"stateMutability":"payable","type":"fallback"},{"inputs":[{"internalType":"address","name":"to","type":"address"},{"internalType":"uint256","name":"tokenId","type":"uint256"}],"name":"approve","outputs":[],"stateMutability":"nonpayable","type":"function"},{"inputs":[{"internalType":"address","name":"owner","type":"address"}],"name":"balanceOf","outputs":[{"internalType":"uint256","name":"","type":"uint256"}],"stateMutability":"view","type":"function"},{"inputs":[{"internalType":"uint256","name":"tokenId","type":"uint256"}],"name":"buyNFT","outputs":[],"stateMutability":"payable","type":"function"},{"inputs":[{"internalType":"string","name":"name","type":"string"},{"internalType":"string","name":"symbol","type":"string"},{"internalType":"uint256","name":"maxSupply_","type":"uint256"},{"internalType":"uint256","name":"initialSupply_","type":"uint256"}],"name":"createDataToken","outputs":[{"internalType":"address","name":"erc20token","type":"address"}],"stateMutability":"nonpayable","type":"function"},{"inputs":[{"internalType":"uint256","name":"tokenId","type":"uint256"}],"name":"getApproved","outputs":[{"internalType":"address","name":"","type":"address"}],"stateMutability":"view","type":"function"},{"inputs":[],"name":"getNFTname","outputs":[{"internalType":"string","name":"","type":"string"}],"stateMutability":"view","type":"function"},{"inputs":[],"name":"getNFTowner","outputs":[{"internalType":"address","name":"owner","type":"address"}],"stateMutability":"view","type":"function"},{"inputs":[],"name":"getNFTprice","outputs":[{"internalType":"uint256","name":"","type":"uint256"}],"stateMutability":"view","type":"function"},{"inputs":[],"name":"getNFTsymbol","outputs":[{"internalType":"string","name":"","type":"string"}],"stateMutability":"view","type":"function"},{"inputs":[{"internalType":"address","name":"owner","type":"address"},{"internalType":"string","name":"name","type":"string"},{"internalType":"string","name":"symbol","type":"string"},{"internalType":"address","name":"factory","type":"address"},{"internalType":"string","name":"_tokenURI","type":"string"},{"internalType":"uint256","name":"initialPrice","type":"uint256"}],"name":"initialize","outputs":[],"stateMutability":"nonpayable","type":"function"},{"inputs":[{"internalType":"address","name":"owner","type":"address"},{"internalType":"address","name":"operator","type":"address"}],"name":"isApprovedForAll","outputs":[{"internalType":"bool","name":"","type":"bool"}],"stateMutability":"view","type":"function"},{"inputs":[],"name":"name","outputs":[{"internalType":"string","name":"","type":"string"}],"stateMutability":"view","type":"function"},{"inputs":[{"internalType":"uint256","name":"tokenId","type":"uint256"}],"name":"ownerOf","outputs":[{"internalType":"address","name":"","type":"address"}],"stateMutability":"view","type":"function"},{"inputs":[{"internalType":"address","name":"from","type":"address"},{"internalType":"address","name":"to","type":"address"},{"internalType":"uint256","name":"tokenId","type":"uint256"}],"name":"safeTransferFrom","outputs":[],"stateMutability":"nonpayable","type":"function"},{"inputs":[{"internalType":"address","name":"from","type":"address"},{"internalType":"address","name":"to","type":"address"},{"internalType":"uint256","name":"tokenId","type":"uint256"},{"internalType":"bytes","name":"data","type":"bytes"}],"name":"safeTransferFrom","outputs":[],"stateMutability":"nonpayable","type":"function"},{"inputs":[{"internalType":"address","name":"operator","type":"address"},{"internalType":"bool","name":"approved","type":"bool"}],"name":"setApprovalForAll","outputs":[],"stateMutability":"nonpayable","type":"function"},{"inputs":[{"internalType":"uint256","name":"price_","type":"uint256"}],"name":"setPrice","outputs":[],"stateMutability":"nonpayable","type":"function"},{"inputs":[{"internalType":"bytes4","name":"interfaceId","type":"bytes4"}],"name":"supportsInterface","outputs":[{"internalType":"bool","name":"","type":"bool"}],"stateMutability":"view","type":"function"},{"inputs":[],"name":"symbol","outputs":[{"internalType":"string","name":"","type":"string"}],"stateMutability":"view","type":"function"},{"inputs":[{"internalType":"uint256","name":"tokenId","type":"uint256"}],"name":"tokenURI","outputs":[{"internalType":"string","name":"","type":"string"}],"stateMutability":"view","type":"function"},{"inputs":[{"internalType":"address","name":"from","type":"address"},{"internalType":"address","name":"to","type":"address"},{"internalType":"uint256","name":"tokenId","type":"uint256"}],"name":"transferFrom","outputs":[],"stateMutability":"nonpayable","type":"function"},{"stateMutability":"payable","type":"receive"}],"evm":{"bytecode":{"linkReferences":{},"object":"608060405234801561001057600080fd5b50613e7a806100206000396000f3fe60806040526004361061012e5760003560e01c80635245f3bd116100ab578063a22cb4651161006f578063a22cb465146103eb578063b0c5a7e514610414578063b88d4fde14610451578063c87b56dd1461047a578063de9fdebe146104b7578063e985e9c5146104e257610135565b80635245f3bd146102f25780636352211e1461031d57806370a082311461035a57806391b7f5ed1461039757806395d89b41146103c057610135565b80631ff95da9116100f25780631ff95da91461022e57806323b872dd146102595780633d38edac1461028257806342842e0e146102ad57806351ed8288146102d657610135565b806301eaaea21461013757806301ffc9a71461016057806306fdde031461019d578063081812fc146101c8578063095ea7b31461020557610135565b3661013557005b005b34801561014357600080fd5b5061015e600480360381019061015991906126b2565b61051f565b005b34801561016c57600080fd5b50610187600480360381019061018291906127f5565b610828565b604051610194919061283d565b60405180910390f35b3480156101a957600080fd5b506101b261090a565b6040516101bf91906128d7565b60405180910390f35b3480156101d457600080fd5b506101ef60048036038101906101ea91906128f9565b61099c565b6040516101fc9190612935565b60405180910390f35b34801561021157600080fd5b5061022c60048036038101906102279190612950565b6109e2565b005b34801561023a57600080fd5b50610243610af9565b604051610250919061299f565b60405180910390f35b34801561026557600080fd5b50610280600480360381019061027b91906129ba565b610b03565b005b34801561028e57600080fd5b50610297610b63565b6040516102a491906128d7565b60405180910390f35b3480156102b957600080fd5b506102d460048036038101906102cf91906129ba565b610b72565b005b6102f060048036038101906102eb91906128f9565b610b92565b005b3480156102fe57600080fd5b50610307610d5e565b6040516103149190612935565b60405180910390f35b34801561032957600080fd5b50610344600480360381019061033f91906128f9565b610d6f565b6040516103519190612935565b60405180910390f35b34801561036657600080fd5b50610381600480360381019061037c9190612a0d565b610df5565b60405161038e919061299f565b60405180910390f35b3480156103a357600080fd5b506103be60048036038101906103b991906128f9565b610eac565b005b3480156103cc57600080fd5b506103d561102a565b6040516103e291906128d7565b60405180910390f35b3480156103f757600080fd5b50610412600480360381019061040d9190612a66565b6110bc565b005b34801561042057600080fd5b5061043b60048036038101906104369190612aa6565b6110d2565b6040516104489190612935565b60405180910390f35b34801561045d57600080fd5b5061047860048036038101906104739190612be6565b6112ae565b005b34801561048657600080fd5b506104a1600480360381019061049c91906128f9565b611310565b6040516104ae91906128d7565b60405180910390f35b3480156104c357600080fd5b506104cc611322565b6040516104d991906128d7565b60405180910390f35b3480156104ee57600080fd5b5061050960048036038101906105049190612c69565b611331565b604051610516919061283d565b60405180910390f35b60008060019054906101000a900460ff161590508080156105505750600160008054906101000a900460ff1660ff16105b8061057d575061055f306113c5565b15801561057c5750600160008054906101000a900460ff1660ff16145b5b6105bc576040517f08c379a00000000000000000000000000000000000000000000000000000000081526004016105b390612d1b565b60405180910390fd5b60016000806101000a81548160ff021916908360ff16021790555080156105f9576001600060016101000a81548160ff0219169083151502179055505b600073ffffffffffffffffffffffffffffffffffffffff168973ffffffffffffffffffffffffffffffffffffffff1603610668576040517f08c379a000000000000000000000000000000000000000000000000000000000815260040161065f90612dad565b60405180910390fd5b6106fa88888080601f016020809104026020016040519081016040528093929190818152602001838380828437600081840152601f19601f8201169050808301925050505050505087878080601f016020809104026020016040519081016040528093929190818152602001838380828437600081840152601f19601f820116905080830192505050505050506113e8565b8360c960006101000a81548173ffffffffffffffffffffffffffffffffffffffff021916908373ffffffffffffffffffffffffffffffffffffffff1602179055508160ca8190555061074c8984611445565b8873ffffffffffffffffffffffffffffffffffffffff167fd133d105f7b44671ec3a00c607590e7154adaafd2e0e9542b201374f293585198989898960c960009054906101000a900473ffffffffffffffffffffffffffffffffffffffff166040516107bc959493929190612dfa565b60405180910390a2801561081d5760008060016101000a81548160ff0219169083151502179055507f7f26b83ff96e1f2b6a682f133852f6798a09c465da95921460cefb384740249860016040516108149190612e95565b60405180910390a15b505050505050505050565b60007f80ac58cd000000000000000000000000000000000000000000000000000000007bffffffffffffffffffffffffffffffffffffffffffffffffffffffff1916827bffffffffffffffffffffffffffffffffffffffffffffffffffffffff191614806108f357507f5b5e139f000000000000000000000000000000000000000000000000000000007bffffffffffffffffffffffffffffffffffffffffffffffffffffffff1916827bffffffffffffffffffffffffffffffffffffffffffffffffffffffff1916145b8061090357506109028261145f565b5b9050919050565b60606065805461091990612edf565b80601f016020809104026020016040519081016040528092919081815260200182805461094590612edf565b80156109925780601f1061096757610100808354040283529160200191610992565b820191906000526020600020905b81548152906001019060200180831161097557829003601f168201915b5050505050905090565b60006109a7826114c9565b6069600083815260200190815260200160002060009054906101000a900473ffffffffffffffffffffffffffffffffffffffff169050919050565b60006109ed82610d6f565b90508073ffffffffffffffffffffffffffffffffffffffff168373ffffffffffffffffffffffffffffffffffffffff1603610a5d576040517f08c379a0000000000000000000000000000000000000000000000000000000008152600401610a5490612f82565b60405180910390fd5b8073ffffffffffffffffffffffffffffffffffffffff16610a7c611514565b73ffffffffffffffffffffffffffffffffffffffff161480610aab5750610aaa81610aa5611514565b611331565b5b610aea576040517f08c379a0000000000000000000000000000000000000000000000000000000008152600401610ae190613014565b60405180910390fd5b610af4838361151c565b505050565b600060ca54905090565b610b14610b0e611514565b826115d5565b610b53576040517f08c379a0000000000000000000000000000000000000000000000000000000008152600401610b4a906130a6565b60405180910390fd5b610b5e83838361166a565b505050565b6060610b6d61090a565b905090565b610b8d838383604051806020016040528060008152506112ae565b505050565b6000610b9e6001610d6f565b9050600073ffffffffffffffffffffffffffffffffffffffff163373ffffffffffffffffffffffffffffffffffffffff1603610c0f576040517f08c379a0000000000000000000000000000000000000000000000000000000008152600401610c0690613112565b60405180910390fd5b8073ffffffffffffffffffffffffffffffffffffffff163373ffffffffffffffffffffffffffffffffffffffff1603610c7d576040517f08c379a0000000000000000000000000000000000000000000000000000000008152600401610c749061317e565b60405180910390fd5b60018214610cc0576040517f08c379a0000000000000000000000000000000000000000000000000000000008152600401610cb7906131ea565b60405180910390fd5b60ca54341015610d05576040517f08c379a0000000000000000000000000000000000000000000000000000000008152600401610cfc9061327c565b60405180910390fd5b610d1081338461166a565b3390508073ffffffffffffffffffffffffffffffffffffffff166108fc349081150290604051600060405180830381858888f19350505050158015610d59573d6000803e3d6000fd5b505050565b6000610d6a6001610d6f565b905090565b600080610d7b83611963565b9050600073ffffffffffffffffffffffffffffffffffffffff168173ffffffffffffffffffffffffffffffffffffffff1603610dec576040517f08c379a0000000000000000000000000000000000000000000000000000000008152600401610de3906132e8565b60405180910390fd5b80915050919050565b60008073ffffffffffffffffffffffffffffffffffffffff168273ffffffffffffffffffffffffffffffffffffffff1603610e65576040517f08c379a0000000000000000000000000000000000000000000000000000000008152600401610e5c9061337a565b60405180910390fd5b606860008373ffffffffffffffffffffffffffffffffffffffff1673ffffffffffffffffffffffffffffffffffffffff168152602001908152602001600020549050919050565b610eb66001610d6f565b73ffffffffffffffffffffffffffffffffffffffff163373ffffffffffffffffffffffffffffffffffffffff1614610f23576040517f08c379a0000000000000000000000000000000000000000000000000000000008152600401610f1a906133e6565b60405180910390fd5b6000811015610f67576040517f08c379a0000000000000000000000000000000000000000000000000000000008152600401610f5e90613452565b60405180910390fd5b60ca548103610fab576040517f08c379a0000000000000000000000000000000000000000000000000000000008152600401610fa2906134be565b60405180910390fd5b600060ca5490508160ca81905550610fc36001610d6f565b73ffffffffffffffffffffffffffffffffffffffff167ff3d52d1a60d7d0ee4e16f5b72624fa05a825fdd27ea948202af49055aaa6064b61100261090a565b61100a61102a565b8460ca5460405161101e94939291906134de565b60405180910390a25050565b60606066805461103990612edf565b80601f016020809104026020016040519081016040528092919081815260200182805461106590612edf565b80156110b25780601f10611087576101008083540402835291602001916110b2565b820191906000526020600020905b81548152906001019060200180831161109557829003601f168201915b5050505050905090565b6110ce6110c7611514565b83836119a0565b5050565b60006110de6001610d6f565b73ffffffffffffffffffffffffffffffffffffffff163373ffffffffffffffffffffffffffffffffffffffff161461114b576040517f08c379a0000000000000000000000000000000000000000000000000000000008152600401611142906133e6565b60405180910390fd5b60008311801561115c575060008210155b61119b576040517f08c379a00000000000000000000000000000000000000000000000000000000081526004016111929061357d565b60405180910390fd5b60c960009054906101000a900473ffffffffffffffffffffffffffffffffffffffff1673ffffffffffffffffffffffffffffffffffffffff1663afd69c8f86863387876040518663ffffffff1660e01b81526004016111fe95949392919061359d565b6020604051808303816000875af115801561121d573d6000803e3d6000fd5b505050506040513d601f19601f820116820180604052508101906112419190613613565b905060cb819080600181540180825580915050600190039060005260206000200160009091909190916101000a81548173ffffffffffffffffffffffffffffffffffffffff021916908373ffffffffffffffffffffffffffffffffffffffff160217905550949350505050565b6112bf6112b9611514565b836115d5565b6112fe576040517f08c379a00000000000000000000000000000000000000000000000000000000081526004016112f5906130a6565b60405180910390fd5b61130a84848484611b0c565b50505050565b606061131b82611b68565b9050919050565b606061132c61102a565b905090565b6000606a60008473ffffffffffffffffffffffffffffffffffffffff1673ffffffffffffffffffffffffffffffffffffffff16815260200190815260200160002060008373ffffffffffffffffffffffffffffffffffffffff1673ffffffffffffffffffffffffffffffffffffffff16815260200190815260200160002060009054906101000a900460ff16905092915050565b6000808273ffffffffffffffffffffffffffffffffffffffff163b119050919050565b600060019054906101000a900460ff16611437576040517f08c379a000000000000000000000000000000000000000000000000000000000815260040161142e906136b2565b60405180910390fd5b6114418282611c7a565b5050565b611450826001611ced565b61145b600182611d0b565b5050565b60007f01ffc9a7000000000000000000000000000000000000000000000000000000007bffffffffffffffffffffffffffffffffffffffffffffffffffffffff1916827bffffffffffffffffffffffffffffffffffffffffffffffffffffffff1916149050919050565b6114d281611d78565b611511576040517f08c379a0000000000000000000000000000000000000000000000000000000008152600401611508906132e8565b60405180910390fd5b50565b600033905090565b816069600083815260200190815260200160002060006101000a81548173ffffffffffffffffffffffffffffffffffffffff021916908373ffffffffffffffffffffffffffffffffffffffff160217905550808273ffffffffffffffffffffffffffffffffffffffff1661158f83610d6f565b73ffffffffffffffffffffffffffffffffffffffff167f8c5be1e5ebec7d5bd14f71427d1e84f3dd0314c0f7b2291e5b200ac8c7c3b92560405160405180910390a45050565b6000806115e183610d6f565b90508073ffffffffffffffffffffffffffffffffffffffff168473ffffffffffffffffffffffffffffffffffffffff16148061162357506116228185611331565b5b8061166157508373ffffffffffffffffffffffffffffffffffffffff166116498461099c565b73ffffffffffffffffffffffffffffffffffffffff16145b91505092915050565b8273ffffffffffffffffffffffffffffffffffffffff1661168a82610d6f565b73ffffffffffffffffffffffffffffffffffffffff16146116e0576040517f08c379a00000000000000000000000000000000000000000000000000000000081526004016116d790613744565b60405180910390fd5b600073ffffffffffffffffffffffffffffffffffffffff168273ffffffffffffffffffffffffffffffffffffffff160361174f576040517f08c379a0000000000000000000000000000000000000000000000000000000008152600401611746906137d6565b60405180910390fd5b61175c8383836001611db9565b8273ffffffffffffffffffffffffffffffffffffffff1661177c82610d6f565b73ffffffffffffffffffffffffffffffffffffffff16146117d2576040517f08c379a00000000000000000000000000000000000000000000000000000000081526004016117c990613744565b60405180910390fd5b6069600082815260200190815260200160002060006101000a81549073ffffffffffffffffffffffffffffffffffffffff02191690556001606860008573ffffffffffffffffffffffffffffffffffffffff1673ffffffffffffffffffffffffffffffffffffffff168152602001908152602001600020600082825403925050819055506001606860008473ffffffffffffffffffffffffffffffffffffffff1673ffffffffffffffffffffffffffffffffffffffff16815260200190815260200160002060008282540192505081905550816067600083815260200190815260200160002060006101000a81548173ffffffffffffffffffffffffffffffffffffffff021916908373ffffffffffffffffffffffffffffffffffffffff160217905550808273ffffffffffffffffffffffffffffffffffffffff168473ffffffffffffffffffffffffffffffffffffffff167fddf252ad1be2c89b69c2b068fc378daa952ba7f163c4a11628f55a4df523b3ef60405160405180910390a461195e8383836001611dbf565b505050565b60006067600083815260200190815260200160002060009054906101000a900473ffffffffffffffffffffffffffffffffffffffff169050919050565b8173ffffffffffffffffffffffffffffffffffffffff168373ffffffffffffffffffffffffffffffffffffffff1603611a0e576040517f08c379a0000000000000000000000000000000000000000000000000000000008152600401611a0590613842565b60405180910390fd5b80606a60008573ffffffffffffffffffffffffffffffffffffffff1673ffffffffffffffffffffffffffffffffffffffff16815260200190815260200160002060008473ffffffffffffffffffffffffffffffffffffffff1673ffffffffffffffffffffffffffffffffffffffff16815260200190815260200160002060006101000a81548160ff0219169083151502179055508173ffffffffffffffffffffffffffffffffffffffff168373ffffffffffffffffffffffffffffffffffffffff167f17307eab39ab6107e8899845ad3d59bd9653f200f220920489ca2b5937696c3183604051611aff919061283d565b60405180910390a3505050565b611b1784848461166a565b611b2384848484611dc5565b611b62576040517f08c379a0000000000000000000000000000000000000000000000000000000008152600401611b59906138d4565b60405180910390fd5b50505050565b6060611b73826114c9565b6000609760008481526020019081526020016000208054611b9390612edf565b80601f0160208091040260200160405190810160405280929190818152602001828054611bbf90612edf565b8015611c0c5780601f10611be157610100808354040283529160200191611c0c565b820191906000526020600020905b815481529060010190602001808311611bef57829003601f168201915b505050505090506000611c1d611f4c565b90506000815103611c32578192505050611c75565b600082511115611c67578082604051602001611c4f929190613930565b60405160208183030381529060405292505050611c75565b611c7084611f63565b925050505b919050565b600060019054906101000a900460ff16611cc9576040517f08c379a0000000000000000000000000000000000000000000000000000000008152600401611cc0906136b2565b60405180910390fd5b8160659081611cd89190613af6565b508060669081611ce89190613af6565b505050565b611d07828260405180602001604052806000815250611fcb565b5050565b611d1482611d78565b611d53576040517f08c379a0000000000000000000000000000000000000000000000000000000008152600401611d4a90613c3a565b60405180910390fd5b80609760008481526020019081526020016000209081611d739190613af6565b505050565b60008073ffffffffffffffffffffffffffffffffffffffff16611d9a83611963565b73ffffffffffffffffffffffffffffffffffffffff1614159050919050565b50505050565b50505050565b6000611de68473ffffffffffffffffffffffffffffffffffffffff166113c5565b15611f3f578373ffffffffffffffffffffffffffffffffffffffff1663150b7a02611e0f611514565b8786866040518563ffffffff1660e01b8152600401611e319493929190613caf565b6020604051808303816000875af1925050508015611e6d57506040513d601f19601f82011682018060405250810190611e6a9190613d10565b60015b611eef573d8060008114611e9d576040519150601f19603f3d011682016040523d82523d6000602084013e611ea2565b606091505b506000815103611ee7576040517f08c379a0000000000000000000000000000000000000000000000000000000008152600401611ede906138d4565b60405180910390fd5b805181602001fd5b63150b7a0260e01b7bffffffffffffffffffffffffffffffffffffffffffffffffffffffff1916817bffffffffffffffffffffffffffffffffffffffffffffffffffffffff191614915050611f44565b600190505b949350505050565b606060405180602001604052806000815250905090565b6060611f6e826114c9565b6000611f78611f4c565b90506000815111611f985760405180602001604052806000815250611fc3565b80611fa284612026565b604051602001611fb3929190613930565b6040516020818303038152906040525b915050919050565b611fd583836120f4565b611fe26000848484611dc5565b612021576040517f08c379a0000000000000000000000000000000000000000000000000000000008152600401612018906138d4565b60405180910390fd5b505050565b60606000600161203584612311565b01905060008167ffffffffffffffff81111561205457612053612551565b5b6040519080825280601f01601f1916602001820160405280156120865781602001600182028036833780820191505090505b509050600082602001820190505b6001156120e9578080600190039150507f3031323334353637383961626364656600000000000000000000000000000000600a86061a8153600a85816120dd576120dc613d3d565b5b04945060008503612094575b819350505050919050565b600073ffffffffffffffffffffffffffffffffffffffff168273ffffffffffffffffffffffffffffffffffffffff1603612163576040517f08c379a000000000000000000000000000000000000000000000000000000000815260040161215a90613db8565b60405180910390fd5b61216c81611d78565b156121ac576040517f08c379a00000000000000000000000000000000000000000000000000000000081526004016121a390613e24565b60405180910390fd5b6121ba600083836001611db9565b6121c381611d78565b15612203576040517f08c379a00000000000000000000000000000000000000000000000000000000081526004016121fa90613e24565b60405180910390fd5b6001606860008473ffffffffffffffffffffffffffffffffffffffff1673ffffffffffffffffffffffffffffffffffffffff16815260200190815260200160002060008282540192505081905550816067600083815260200190815260200160002060006101000a81548173ffffffffffffffffffffffffffffffffffffffff021916908373ffffffffffffffffffffffffffffffffffffffff160217905550808273ffffffffffffffffffffffffffffffffffffffff16600073ffffffffffffffffffffffffffffffffffffffff167fddf252ad1be2c89b69c2b068fc378daa952ba7f163c4a11628f55a4df523b3ef60405160405180910390a461230d600083836001611dbf565b5050565b600080600090507a184f03e93ff9f4daa797ed6e38ed64bf6a1f010000000000000000831061236f577a184f03e93ff9f4daa797ed6e38ed64bf6a1f010000000000000000838161236557612364613d3d565b5b0492506040810190505b6d04ee2d6d415b85acef810000000083106123ac576d04ee2d6d415b85acef810000000083816123a2576123a1613d3d565b5b0492506020810190505b662386f26fc1000083106123db57662386f26fc1000083816123d1576123d0613d3d565b5b0492506010810190505b6305f5e1008310612404576305f5e10083816123fa576123f9613d3d565b5b0492506008810190505b612710831061242957612710838161241f5761241e613d3d565b5b0492506004810190505b6064831061244c576064838161244257612441613d3d565b5b0492506002810190505b600a831061245b576001810190505b80915050919050565b6000604051905090565b600080fd5b600080fd5b600073ffffffffffffffffffffffffffffffffffffffff82169050919050565b60006124a382612478565b9050919050565b6124b381612498565b81146124be57600080fd5b50565b6000813590506124d0816124aa565b92915050565b600080fd5b600080fd5b600080fd5b60008083601f8401126124fb576124fa6124d6565b5b8235905067ffffffffffffffff811115612518576125176124db565b5b602083019150836001820283011115612534576125336124e0565b5b9250929050565b600080fd5b6000601f19601f8301169050919050565b7f4e487b7100000000000000000000000000000000000000000000000000000000600052604160045260246000fd5b61258982612540565b810181811067ffffffffffffffff821117156125a8576125a7612551565b5b80604052505050565b60006125bb612464565b90506125c78282612580565b919050565b600067ffffffffffffffff8211156125e7576125e6612551565b5b6125f082612540565b9050602081019050919050565b82818337600083830152505050565b600061261f61261a846125cc565b6125b1565b90508281526020810184848401111561263b5761263a61253b565b5b6126468482856125fd565b509392505050565b600082601f830112612663576126626124d6565b5b813561267384826020860161260c565b91505092915050565b6000819050919050565b61268f8161267c565b811461269a57600080fd5b50565b6000813590506126ac81612686565b92915050565b60008060008060008060008060c0898b0312156126d2576126d161246e565b5b60006126e08b828c016124c1565b985050602089013567ffffffffffffffff81111561270157612700612473565b5b61270d8b828c016124e5565b9750975050604089013567ffffffffffffffff8111156127305761272f612473565b5b61273c8b828c016124e5565b9550955050606061274f8b828c016124c1565b935050608089013567ffffffffffffffff8111156127705761276f612473565b5b61277c8b828c0161264e565b92505060a061278d8b828c0161269d565b9150509295985092959890939650565b60007fffffffff0000000000000000000000000000000000000000000000000000000082169050919050565b6127d28161279d565b81146127dd57600080fd5b50565b6000813590506127ef816127c9565b92915050565b60006020828403121561280b5761280a61246e565b5b6000612819848285016127e0565b91505092915050565b60008115159050919050565b61283781612822565b82525050565b6000602082019050612852600083018461282e565b92915050565b600081519050919050565b600082825260208201905092915050565b60005b83811015612892578082015181840152602081019050612877565b60008484015250505050565b60006128a982612858565b6128b38185612863565b93506128c3818560208601612874565b6128cc81612540565b840191505092915050565b600060208201905081810360008301526128f1818461289e565b905092915050565b60006020828403121561290f5761290e61246e565b5b600061291d8482850161269d565b91505092915050565b61292f81612498565b82525050565b600060208201905061294a6000830184612926565b92915050565b600080604083850312156129675761296661246e565b5b6000612975858286016124c1565b92505060206129868582860161269d565b9150509250929050565b6129998161267c565b82525050565b60006020820190506129b46000830184612990565b92915050565b6000806000606084860312156129d3576129d261246e565b5b60006129e1868287016124c1565b93505060206129f2868287016124c1565b9250506040612a038682870161269d565b9150509250925092565b600060208284031215612a2357612a2261246e565b5b6000612a31848285016124c1565b91505092915050565b612a4381612822565b8114612a4e57600080fd5b50565b600081359050612a6081612a3a565b92915050565b60008060408385031215612a7d57612a7c61246e565b5b6000612a8b858286016124c1565b9250506020612a9c85828601612a51565b9150509250929050565b60008060008060808587031215612ac057612abf61246e565b5b600085013567ffffffffffffffff811115612ade57612add612473565b5b612aea8782880161264e565b945050602085013567ffffffffffffffff811115612b0b57612b0a612473565b5b612b178782880161264e565b9350506040612b288782880161269d565b9250506060612b398782880161269d565b91505092959194509250565b600067ffffffffffffffff821115612b6057612b5f612551565b5b612b6982612540565b9050602081019050919050565b6000612b89612b8484612b45565b6125b1565b905082815260208101848484011115612ba557612ba461253b565b5b612bb08482856125fd565b509392505050565b600082601f830112612bcd57612bcc6124d6565b5b8135612bdd848260208601612b76565b91505092915050565b60008060008060808587031215612c0057612bff61246e565b5b6000612c0e878288016124c1565b9450506020612c1f878288016124c1565b9350506040612c308782880161269d565b925050606085013567ffffffffffffffff811115612c5157612c50612473565b5b612c5d87828801612bb8565b91505092959194509250565b60008060408385031215612c8057612c7f61246e565b5b6000612c8e858286016124c1565b9250506020612c9f858286016124c1565b9150509250929050565b7f496e697469616c697a61626c653a20636f6e747261637420697320616c72656160008201527f647920696e697469616c697a6564000000000000000000000000000000000000602082015250565b6000612d05602e83612863565b9150612d1082612ca9565b604082019050919050565b60006020820190508181036000830152612d3481612cf8565b9050919050565b7f496e76616c6964204e4654206f776e65723a207a65726f20616464726573732060008201527f6e6f742076616c69642100000000000000000000000000000000000000000000602082015250565b6000612d97602a83612863565b9150612da282612d3b565b604082019050919050565b60006020820190508181036000830152612dc681612d8a565b9050919050565b6000612dd98385612863565b9350612de68385846125fd565b612def83612540565b840190509392505050565b60006060820190508181036000830152612e15818789612dcd565b90508181036020830152612e2a818587612dcd565b9050612e396040830184612926565b9695505050505050565b6000819050919050565b600060ff82169050919050565b6000819050919050565b6000612e7f612e7a612e7584612e43565b612e5a565b612e4d565b9050919050565b612e8f81612e64565b82525050565b6000602082019050612eaa6000830184612e86565b92915050565b7f4e487b7100000000000000000000000000000000000000000000000000000000600052602260045260246000fd5b60006002820490506001821680612ef757607f821691505b602082108103612f0a57612f09612eb0565b5b50919050565b7f4552433732313a20617070726f76616c20746f2063757272656e74206f776e6560008201527f7200000000000000000000000000000000000000000000000000000000000000602082015250565b6000612f6c602183612863565b9150612f7782612f10565b604082019050919050565b60006020820190508181036000830152612f9b81612f5f565b9050919050565b7f4552433732313a20617070726f76652063616c6c6572206973206e6f7420746f60008201527f6b656e206f776e6572206f7220617070726f76656420666f7220616c6c000000602082015250565b6000612ffe603d83612863565b915061300982612fa2565b604082019050919050565b6000602082019050818103600083015261302d81612ff1565b9050919050565b7f4552433732313a2063616c6c6572206973206e6f7420746f6b656e206f776e6560008201527f72206f7220617070726f76656400000000000000000000000000000000000000602082015250565b6000613090602d83612863565b915061309b82613034565b604082019050919050565b600060208201905081810360008301526130bf81613083565b9050919050565b7f496e76616c696420416464726573732830290000000000000000000000000000600082015250565b60006130fc601283612863565b9150613107826130c6565b602082019050919050565b6000602082019050818103600083015261312b816130ef565b9050919050565b7f43616e6e6f742073656c6c204e465420746f206d7973656c6600000000000000600082015250565b6000613168601983612863565b915061317382613132565b602082019050919050565b600060208201905081810360008301526131978161315b565b9050919050565b7f43616e6e6f74207472616e73666572207468697320746f6b656e496400000000600082015250565b60006131d4601c83612863565b91506131df8261319e565b602082019050919050565b60006020820190508181036000830152613203816131c7565b9050919050565b7f4e6f7420656e6f7567682066756e647320746f2062757920746869732061776560008201527f736f6d65204e4654000000000000000000000000000000000000000000000000602082015250565b6000613266602883612863565b91506132718261320a565b604082019050919050565b6000602082019050818103600083015261329581613259565b9050919050565b7f4552433732313a20696e76616c696420746f6b656e2049440000000000000000600082015250565b60006132d2601883612863565b91506132dd8261329c565b602082019050919050565b60006020820190508181036000830152613301816132c5565b9050919050565b7f4552433732313a2061646472657373207a65726f206973206e6f74206120766160008201527f6c6964206f776e65720000000000000000000000000000000000000000000000602082015250565b6000613364602983612863565b915061336f82613308565b604082019050919050565b6000602082019050818103600083015261339381613357565b9050919050565b7f4e6f7420746865204e4654206f776e6572210000000000000000000000000000600082015250565b60006133d0601283612863565b91506133db8261339a565b602082019050919050565b600060208201905081810360008301526133ff816133c3565b9050919050565b7f4e465420636f73742063616e6e6f74206265206e656761746976650000000000600082015250565b600061343c601b83612863565b915061344782613406565b602082019050919050565b6000602082019050818103600083015261346b8161342f565b9050919050565b7f4e657720707269636520657175616c20746f206f6c6420707269636521000000600082015250565b60006134a8601d83612863565b91506134b382613472565b602082019050919050565b600060208201905081810360008301526134d78161349b565b9050919050565b600060808201905081810360008301526134f8818761289e565b9050818103602083015261350c818661289e565b905061351b6040830185612990565b6135286060830184612990565b95945050505050565b7f43617020616e6420696e697469616c20737570706c79206e6f742076616c6964600082015250565b6000613567602083612863565b915061357282613531565b602082019050919050565b600060208201905081810360008301526135968161355a565b9050919050565b600060a08201905081810360008301526135b7818861289e565b905081810360208301526135cb818761289e565b90506135da6040830186612926565b6135e76060830185612990565b6135f46080830184612990565b9695505050505050565b60008151905061360d816124aa565b92915050565b6000602082840312156136295761362861246e565b5b6000613637848285016135fe565b91505092915050565b7f496e697469616c697a61626c653a20636f6e7472616374206973206e6f74206960008201527f6e697469616c697a696e67000000000000000000000000000000000000000000602082015250565b600061369c602b83612863565b91506136a782613640565b604082019050919050565b600060208201905081810360008301526136cb8161368f565b9050919050565b7f4552433732313a207472616e736665722066726f6d20696e636f72726563742060008201527f6f776e6572000000000000000000000000000000000000000000000000000000602082015250565b600061372e602583612863565b9150613739826136d2565b604082019050919050565b6000602082019050818103600083015261375d81613721565b9050919050565b7f4552433732313a207472616e7366657220746f20746865207a65726f2061646460008201527f7265737300000000000000000000000000000000000000000000000000000000602082015250565b60006137c0602483612863565b91506137cb82613764565b604082019050919050565b600060208201905081810360008301526137ef816137b3565b9050919050565b7f4552433732313a20617070726f766520746f2063616c6c657200000000000000600082015250565b600061382c601983612863565b9150613837826137f6565b602082019050919050565b6000602082019050818103600083015261385b8161381f565b9050919050565b7f4552433732313a207472616e7366657220746f206e6f6e20455243373231526560008201527f63656976657220696d706c656d656e7465720000000000000000000000000000602082015250565b60006138be603283612863565b91506138c982613862565b604082019050919050565b600060208201905081810360008301526138ed816138b1565b9050919050565b600081905092915050565b600061390a82612858565b61391481856138f4565b9350613924818560208601612874565b80840191505092915050565b600061393c82856138ff565b915061394882846138ff565b91508190509392505050565b60008190508160005260206000209050919050565b60006020601f8301049050919050565b600082821b905092915050565b6000600883026139b67fffffffffffffffffffffffffffffffffffffffffffffffffffffffffffffffff82613979565b6139c08683613979565b95508019841693508086168417925050509392505050565b60006139f36139ee6139e98461267c565b612e5a565b61267c565b9050919050565b6000819050919050565b613a0d836139d8565b613a21613a19826139fa565b848454613986565b825550505050565b600090565b613a36613a29565b613a41818484613a04565b505050565b5b81811015613a6557613a5a600082613a2e565b600181019050613a47565b5050565b601f821115613aaa57613a7b81613954565b613a8484613969565b81016020851015613a93578190505b613aa7613a9f85613969565b830182613a46565b50505b505050565b600082821c905092915050565b6000613acd60001984600802613aaf565b1980831691505092915050565b6000613ae68383613abc565b9150826002028217905092915050565b613aff82612858565b67ffffffffffffffff811115613b1857613b17612551565b5b613b228254612edf565b613b2d828285613a69565b600060209050601f831160018114613b605760008415613b4e578287015190505b613b588582613ada565b865550613bc0565b601f198416613b6e86613954565b60005b82811015613b9657848901518255600182019150602085019450602081019050613b71565b86831015613bb35784890151613baf601f891682613abc565b8355505b6001600288020188555050505b505050505050565b7f45524337323155524953746f726167653a2055524920736574206f66206e6f6e60008201527f6578697374656e7420746f6b656e000000000000000000000000000000000000602082015250565b6000613c24602e83612863565b9150613c2f82613bc8565b604082019050919050565b60006020820190508181036000830152613c5381613c17565b9050919050565b600081519050919050565b600082825260208201905092915050565b6000613c8182613c5a565b613c8b8185613c65565b9350613c9b818560208601612874565b613ca481612540565b840191505092915050565b6000608082019050613cc46000830187612926565b613cd16020830186612926565b613cde6040830185612990565b8181036060830152613cf08184613c76565b905095945050505050565b600081519050613d0a816127c9565b92915050565b600060208284031215613d2657613d2561246e565b5b6000613d3484828501613cfb565b91505092915050565b7f4e487b7100000000000000000000000000000000000000000000000000000000600052601260045260246000fd5b7f4552433732313a206d696e7420746f20746865207a65726f2061646472657373600082015250565b6000613da2602083612863565b9150613dad82613d6c565b602082019050919050565b60006020820190508181036000830152613dd181613d95565b9050919050565b7f4552433732313a20746f6b656e20616c7265616479206d696e74656400000000600082015250565b6000613e0e601c83612863565b9150613e1982613dd8565b602082019050919050565b60006020820190508181036000830152613e3d81613e01565b905091905056fea2646970667358221220b9cbbb7ea9a71cda16998e5358816230a9f719d309f6be9e71f2835c74cd06c664736f6c63430008120033","opcodes":"PUSH1 0x80 PUSH1 0x40 MSTORE CALLVALUE DUP1 ISZERO PUSH2 0x10 JUMPI PUSH1 0x0 DUP1 REVERT JUMPDEST POP PUSH2 0x3E7A DUP1 PUSH2 0x20 PUSH1 0x0 CODECOPY PUSH1 0x0 RETURN INVALID PUSH1 0x80 PUSH1 0x40 MSTORE PUSH1 0x4 CALLDATASIZE LT PUSH2 0x12E JUMPI PUSH1 0x0 CALLDATALOAD PUSH1 0xE0 SHR DUP1 PUSH4 0x5245F3BD GT PUSH2 0xAB JUMPI DUP1 PUSH4 0xA22CB465 GT PUSH2 0x6F JUMPI DUP1 PUSH4 0xA22CB465 EQ PUSH2 0x3EB JUMPI DUP1 PUSH4 0xB0C5A7E5 EQ PUSH2 0x414 JUMPI DUP1 PUSH4 0xB88D4FDE EQ PUSH2 0x451 JUMPI DUP1 PUSH4 0xC87B56DD EQ PUSH2 0x47A JUMPI DUP1 PUSH4 0xDE9FDEBE EQ PUSH2 0x4B7 JUMPI DUP1 PUSH4 0xE985E9C5 EQ PUSH2 0x4E2 JUMPI PUSH2 0x135 JUMP JUMPDEST DUP1 PUSH4 0x5245F3BD EQ PUSH2 0x2F2 JUMPI DUP1 PUSH4 0x6352211E EQ PUSH2 0x31D JUMPI DUP1 PUSH4 0x70A08231 EQ PUSH2 0x35A JUMPI DUP1 PUSH4 0x91B7F5ED EQ PUSH2 0x397 JUMPI DUP1 PUSH4 0x95D89B41 EQ PUSH2 0x3C0 JUMPI PUSH2 0x135 JUMP JUMPDEST DUP1 PUSH4 0x1FF95DA9 GT PUSH2 0xF2 JUMPI DUP1 PUSH4 0x1FF95DA9 EQ PUSH2 0x22E JUMPI DUP1 PUSH4 0x23B872DD EQ PUSH2 0x259 JUMPI DUP1 PUSH4 0x3D38EDAC EQ PUSH2 0x282 JUMPI DUP1 PUSH4 0x42842E0E EQ PUSH2 0x2AD JUMPI DUP1 PUSH4 0x51ED8288 EQ PUSH2 0x2D6 JUMPI PUSH2 0x135 JUMP JUMPDEST DUP1 PUSH4 0x1EAAEA2 EQ PUSH2 0x137 JUMPI DUP1 PUSH4 0x1FFC9A7 EQ PUSH2 0x160 JUMPI DUP1 PUSH4 0x6FDDE03 EQ PUSH2 0x19D JUMPI DUP1 PUSH4 0x81812FC EQ PUSH2 0x1C8 JUMPI DUP1 PUSH4 0x95EA7B3 EQ PUSH2 0x205 JUMPI PUSH2 0x135 JUMP JUMPDEST CALLDATASIZE PUSH2 0x135 JUMPI STOP JUMPDEST STOP JUMPDEST CALLVALUE DUP1 ISZERO PUSH2 0x143 JUMPI PUSH1 0x0 DUP1 REVERT JUMPDEST POP PUSH2 0x15E PUSH1 0x4 DUP1 CALLDATASIZE SUB DUP2 ADD SWAP1 PUSH2 0x159 SWAP2 SWAP1 PUSH2 0x26B2 JUMP JUMPDEST PUSH2 0x51F JUMP JUMPDEST STOP JUMPDEST CALLVALUE DUP1 ISZERO PUSH2 0x16C JUMPI PUSH1 0x0 DUP1 REVERT JUMPDEST POP PUSH2 0x187 PUSH1 0x4 DUP1 CALLDATASIZE SUB DUP2 ADD SWAP1 PUSH2 0x182 SWAP2 SWAP1 PUSH2 0x27F5 JUMP JUMPDEST PUSH2 0x828 JUMP JUMPDEST PUSH1 0x40 MLOAD PUSH2 0x194 SWAP2 SWAP1 PUSH2 0x283D JUMP JUMPDEST PUSH1 0x40 MLOAD DUP1 SWAP2 SUB SWAP1 RETURN JUMPDEST CALLVALUE DUP1 ISZERO PUSH2 0x1A9 JUMPI PUSH1 0x0 DUP1 REVERT JUMPDEST POP PUSH2 0x1B2 PUSH2 0x90A JUMP JUMPDEST PUSH1 0x40 MLOAD PUSH2 0x1BF SWAP2 SWAP1 PUSH2 0x28D7 JUMP JUMPDEST PUSH1 0x40 MLOAD DUP1 SWAP2 SUB SWAP1 RETURN JUMPDEST CALLVALUE DUP1 ISZERO PUSH2 0x1D4 JUMPI PUSH1 0x0 DUP1 REVERT JUMPDEST POP PUSH2 0x1EF PUSH1 0x4 DUP1 CALLDATASIZE SUB DUP2 ADD SWAP1 PUSH2 0x1EA SWAP2 SWAP1 PUSH2 0x28F9 JUMP JUMPDEST PUSH2 0x99C JUMP JUMPDEST PUSH1 0x40 MLOAD PUSH2 0x1FC SWAP2 SWAP1 PUSH2 0x2935 JUMP JUMPDEST PUSH1 0x40 MLOAD DUP1 SWAP2 SUB SWAP1 RETURN JUMPDEST CALLVALUE DUP1 ISZERO PUSH2 0x211 JUMPI PUSH1 0x0 DUP1 REVERT JUMPDEST POP PUSH2 0x22C PUSH1 0x4 DUP1 CALLDATASIZE SUB DUP2 ADD SWAP1 PUSH2 0x227 SWAP2 SWAP1 PUSH2 0x2950 JUMP JUMPDEST PUSH2 0x9E2 JUMP JUMPDEST STOP JUMPDEST CALLVALUE DUP1 ISZERO PUSH2 0x23A JUMPI PUSH1 0x0 DUP1 REVERT JUMPDEST POP PUSH2 0x243 PUSH2 0xAF9 JUMP JUMPDEST PUSH1 0x40 MLOAD PUSH2 0x250 SWAP2 SWAP1 PUSH2 0x299F JUMP JUMPDEST PUSH1 0x40 MLOAD DUP1 SWAP2 SUB SWAP1 RETURN JUMPDEST CALLVALUE DUP1 ISZERO PUSH2 0x265 JUMPI PUSH1 0x0 DUP1 REVERT JUMPDEST POP PUSH2 0x280 PUSH1 0x4 DUP1 CALLDATASIZE SUB DUP2 ADD SWAP1 PUSH2 0x27B SWAP2 SWAP1 PUSH2 0x29BA JUMP JUMPDEST PUSH2 0xB03 JUMP JUMPDEST STOP JUMPDEST CALLVALUE DUP1 ISZERO PUSH2 0x28E JUMPI PUSH1 0x0 DUP1 REVERT JUMPDEST POP PUSH2 0x297 PUSH2 0xB63 JUMP JUMPDEST PUSH1 0x40 MLOAD PUSH2 0x2A4 SWAP2 SWAP1 PUSH2 0x28D7 JUMP JUMPDEST PUSH1 0x40 MLOAD DUP1 SWAP2 SUB SWAP1 RETURN JUMPDEST CALLVALUE DUP1 ISZERO PUSH2 0x2B9 JUMPI PUSH1 0x0 DUP1 REVERT JUMPDEST POP PUSH2 0x2D4 PUSH1 0x4 DUP1 CALLDATASIZE SUB DUP2 ADD SWAP1 PUSH2 0x2CF SWAP2 SWAP1 PUSH2 0x29BA JUMP JUMPDEST PUSH2 0xB72 JUMP JUMPDEST STOP JUMPDEST PUSH2 0x2F0 PUSH1 0x4 DUP1 CALLDATASIZE SUB DUP2 ADD SWAP1 PUSH2 0x2EB SWAP2 SWAP1 PUSH2 0x28F9 JUMP JUMPDEST PUSH2 0xB92 JUMP JUMPDEST STOP JUMPDEST CALLVALUE DUP1 ISZERO PUSH2 0x2FE JUMPI PUSH1 0x0 DUP1 REVERT JUMPDEST POP PUSH2 0x307 PUSH2 0xD5E JUMP JUMPDEST PUSH1 0x40 MLOAD PUSH2 0x314 SWAP2 SWAP1 PUSH2 0x2935 JUMP JUMPDEST PUSH1 0x40 MLOAD DUP1 SWAP2 SUB SWAP1 RETURN JUMPDEST CALLVALUE DUP1 ISZERO PUSH2 0x329 JUMPI PUSH1 0x0 DUP1 REVERT JUMPDEST POP PUSH2 0x344 PUSH1 0x4 DUP1 CALLDATASIZE SUB DUP2 ADD SWAP1 PUSH2 0x33F SWAP2 SWAP1 PUSH2 0x28F9 JUMP JUMPDEST PUSH2 0xD6F JUMP JUMPDEST PUSH1 0x40 MLOAD PUSH2 0x351 SWAP2 SWAP1 PUSH2 0x2935 JUMP JUMPDEST PUSH1 0x40 MLOAD DUP1 SWAP2 SUB SWAP1 RETURN JUMPDEST CALLVALUE DUP1 ISZERO PUSH2 0x366 JUMPI PUSH1 0x0 DUP1 REVERT JUMPDEST POP PUSH2 0x381 PUSH1 0x4 DUP1 CALLDATASIZE SUB DUP2 ADD SWAP1 PUSH2 0x37C SWAP2 SWAP1 PUSH2 0x2A0D JUMP JUMPDEST PUSH2 0xDF5 JUMP JUMPDEST PUSH1 0x40 MLOAD PUSH2 0x38E SWAP2 SWAP1 PUSH2 0x299F JUMP JUMPDEST PUSH1 0x40 MLOAD DUP1 SWAP2 SUB SWAP1 RETURN JUMPDEST CALLVALUE DUP1 ISZERO PUSH2 0x3A3 JUMPI PUSH1 0x0 DUP1 REVERT JUMPDEST POP PUSH2 0x3BE PUSH1 0x4 DUP1 CALLDATASIZE SUB DUP2 ADD SWAP1 PUSH2 0x3B9 SWAP2 SWAP1 PUSH2 0x28F9 JUMP JUMPDEST PUSH2 0xEAC JUMP JUMPDEST STOP JUMPDEST CALLVALUE DUP1 ISZERO PUSH2 0x3CC JUMPI PUSH1 0x0 DUP1 REVERT JUMPDEST POP PUSH2 0x3D5 PUSH2 0x102A JUMP JUMPDEST PUSH1 0x40 MLOAD PUSH2 0x3E2 SWAP2 SWAP1 PUSH2 0x28D7 JUMP JUMPDEST PUSH1 0x40 MLOAD DUP1 SWAP2 SUB SWAP1 RETURN JUMPDEST CALLVALUE DUP1 ISZERO PUSH2 0x3F7 JUMPI PUSH1 0x0 DUP1 REVERT JUMPDEST POP PUSH2 0x412 PUSH1 0x4 DUP1 CALLDATASIZE SUB DUP2 ADD SWAP1 PUSH2 0x40D SWAP2 SWAP1 PUSH2 0x2A66 JUMP JUMPDEST PUSH2 0x10BC JUMP JUMPDEST STOP JUMPDEST CALLVALUE DUP1 ISZERO PUSH2 0x420 JUMPI PUSH1 0x0 DUP1 REVERT JUMPDEST POP PUSH2 0x43B PUSH1 0x4 DUP1 CALLDATASIZE SUB DUP2 ADD SWAP1 PUSH2 0x436 SWAP2 SWAP1 PUSH2 0x2AA6 JUMP JUMPDEST PUSH2 0x10D2 JUMP JUMPDEST PUSH1 0x40 MLOAD PUSH2 0x448 SWAP2 SWAP1 PUSH2 0x2935 JUMP JUMPDEST PUSH1 0x40 MLOAD DUP1 SWAP2 SUB SWAP1 RETURN JUMPDEST CALLVALUE DUP1 ISZERO PUSH2 0x45D JUMPI PUSH1 0x0 DUP1 REVERT JUMPDEST POP PUSH2 0x478 PUSH1 0x4 DUP1 CALLDATASIZE SUB DUP2 ADD SWAP1 PUSH2 0x473 SWAP2 SWAP1 PUSH2 0x2BE6 JUMP JUMPDEST PUSH2 0x12AE JUMP JUMPDEST STOP JUMPDEST CALLVALUE DUP1 ISZERO PUSH2 0x486 JUMPI PUSH1 0x0 DUP1 REVERT JUMPDEST POP PUSH2 0x4A1 PUSH1 0x4 DUP1 CALLDATASIZE SUB DUP2 ADD SWAP1 PUSH2 0x49C SWAP2 SWAP1 PUSH2 0x28F9 JUMP JUMPDEST PUSH2 0x1310 JUMP JUMPDEST PUSH1 0x40 MLOAD PUSH2 0x4AE SWAP2 SWAP1 PUSH2 0x28D7 JUMP JUMPDEST PUSH1 0x40 MLOAD DUP1 SWAP2 SUB SWAP1 RETURN JUMPDEST CALLVALUE DUP1 ISZERO PUSH2 0x4C3 JUMPI PUSH1 0x0 DUP1 REVERT JUMPDEST POP PUSH2 0x4CC PUSH2 0x1322 JUMP JUMPDEST PUSH1 0x40 MLOAD PUSH2 0x4D9 SWAP2 SWAP1 PUSH2 0x28D7 JUMP JUMPDEST PUSH1 0x40 MLOAD DUP1 SWAP2 SUB SWAP1 RETURN JUMPDEST CALLVALUE DUP1 ISZERO PUSH2 0x4EE JUMPI PUSH1 0x0 DUP1 REVERT JUMPDEST POP PUSH2 0x509 PUSH1 0x4 DUP1 CALLDATASIZE SUB DUP2 ADD SWAP1 PUSH2 0x504 SWAP2 SWAP1 PUSH2 0x2C69 JUMP JUMPDEST PUSH2 0x1331 JUMP JUMPDEST PUSH1 0x40 MLOAD PUSH2 0x516 SWAP2 SWAP1 PUSH2 0x283D JUMP JUMPDEST PUSH1 0x40 MLOAD DUP1 SWAP2 SUB SWAP1 RETURN JUMPDEST PUSH1 0x0 DUP1 PUSH1 0x1 SWAP1 SLOAD SWAP1 PUSH2 0x100 EXP SWAP1 DIV PUSH1 0xFF AND ISZERO SWAP1 POP DUP1 DUP1 ISZERO PUSH2 0x550 JUMPI POP PUSH1 0x1 PUSH1 0x0 DUP1 SLOAD SWAP1 PUSH2 0x100 EXP SWAP1 DIV PUSH1 0xFF AND PUSH1 0xFF AND LT JUMPDEST DUP1 PUSH2 0x57D JUMPI POP PUSH2 0x55F ADDRESS PUSH2 0x13C5 JUMP JUMPDEST ISZERO DUP1 ISZERO PUSH2 0x57C JUMPI POP PUSH1 0x1 PUSH1 0x0 DUP1 SLOAD SWAP1 PUSH2 0x100 EXP SWAP1 DIV PUSH1 0xFF AND PUSH1 0xFF AND EQ JUMPDEST JUMPDEST PUSH2 0x5BC JUMPI PUSH1 0x40 MLOAD PUSH32 0x8C379A000000000000000000000000000000000000000000000000000000000 DUP2 MSTORE PUSH1 0x4 ADD PUSH2 0x5B3 SWAP1 PUSH2 0x2D1B JUMP JUMPDEST PUSH1 0x40 MLOAD DUP1 SWAP2 SUB SWAP1 REVERT JUMPDEST PUSH1 0x1 PUSH1 0x0 DUP1 PUSH2 0x100 EXP DUP2 SLOAD DUP2 PUSH1 0xFF MUL NOT AND SWAP1 DUP4 PUSH1 0xFF AND MUL OR SWAP1 SSTORE POP DUP1 ISZERO PUSH2 0x5F9 JUMPI PUSH1 0x1 PUSH1 0x0 PUSH1 0x1 PUSH2 0x100 EXP DUP2 SLOAD DUP2 PUSH1 0xFF MUL NOT AND SWAP1 DUP4 ISZERO ISZERO MUL OR SWAP1 SSTORE POP JUMPDEST PUSH1 0x0 PUSH20 0xFFFFFFFFFFFFFFFFFFFFFFFFFFFFFFFFFFFFFFFF AND DUP10 PUSH20 0xFFFFFFFFFFFFFFFFFFFFFFFFFFFFFFFFFFFFFFFF AND SUB PUSH2 0x668 JUMPI PUSH1 0x40 MLOAD PUSH32 0x8C379A000000000000000000000000000000000000000000000000000000000 DUP2 MSTORE PUSH1 0x4 ADD PUSH2 0x65F SWAP1 PUSH2 0x2DAD JUMP JUMPDEST PUSH1 0x40 MLOAD DUP1 SWAP2 SUB SWAP1 REVERT JUMPDEST PUSH2 0x6FA DUP9 DUP9 DUP1 DUP1 PUSH1 0x1F ADD PUSH1 0x20 DUP1 SWAP2 DIV MUL PUSH1 0x20 ADD PUSH1 0x40 MLOAD SWAP1 DUP2 ADD PUSH1 0x40 MSTORE DUP1 SWAP4 SWAP3 SWAP2 SWAP1 DUP2 DUP2 MSTORE PUSH1 0x20 ADD DUP4 DUP4 DUP1 DUP3 DUP5 CALLDATACOPY PUSH1 0x0 DUP2 DUP5 ADD MSTORE PUSH1 0x1F NOT PUSH1 0x1F DUP3 ADD AND SWAP1 POP DUP1 DUP4 ADD SWAP3 POP POP POP POP POP POP POP DUP8 DUP8 DUP1 DUP1 PUSH1 0x1F ADD PUSH1 0x20 DUP1 SWAP2 DIV MUL PUSH1 0x20 ADD PUSH1 0x40 MLOAD SWAP1 DUP2 ADD PUSH1 0x40 MSTORE DUP1 SWAP4 SWAP3 SWAP2 SWAP1 DUP2 DUP2 MSTORE PUSH1 0x20 ADD DUP4 DUP4 DUP1 DUP3 DUP5 CALLDATACOPY PUSH1 0x0 DUP2 DUP5 ADD MSTORE PUSH1 0x1F NOT PUSH1 0x1F DUP3 ADD AND SWAP1 POP DUP1 DUP4 ADD SWAP3 POP POP POP POP POP POP POP PUSH2 0x13E8 JUMP JUMPDEST DUP4 PUSH1 0xC9 PUSH1 0x0 PUSH2 0x100 EXP DUP2 SLOAD DUP2 PUSH20 0xFFFFFFFFFFFFFFFFFFFFFFFFFFFFFFFFFFFFFFFF MUL NOT AND SWAP1 DUP4 PUSH20 0xFFFFFFFFFFFFFFFFFFFFFFFFFFFFFFFFFFFFFFFF AND MUL OR SWAP1 SSTORE POP DUP2 PUSH1 0xCA DUP2 SWAP1 SSTORE POP PUSH2 0x74C DUP10 DUP5 PUSH2 0x1445 JUMP JUMPDEST DUP9 PUSH20 0xFFFFFFFFFFFFFFFFFFFFFFFFFFFFFFFFFFFFFFFF AND PUSH32 0xD133D105F7B44671EC3A00C607590E7154ADAAFD2E0E9542B201374F29358519 DUP10 DUP10 DUP10 DUP10 PUSH1 0xC9 PUSH1 0x0 SWAP1 SLOAD SWAP1 PUSH2 0x100 EXP SWAP1 DIV PUSH20 0xFFFFFFFFFFFFFFFFFFFFFFFFFFFFFFFFFFFFFFFF AND PUSH1 0x40 MLOAD PUSH2 0x7BC SWAP6 SWAP5 SWAP4 SWAP3 SWAP2 SWAP1 PUSH2 0x2DFA JUMP JUMPDEST PUSH1 0x40 MLOAD DUP1 SWAP2 SUB SWAP1 LOG2 DUP1 ISZERO PUSH2 0x81D JUMPI PUSH1 0x0 DUP1 PUSH1 0x1 PUSH2 0x100 EXP DUP2 SLOAD DUP2 PUSH1 0xFF MUL NOT AND SWAP1 DUP4 ISZERO ISZERO MUL OR SWAP1 SSTORE POP PUSH32 0x7F26B83FF96E1F2B6A682F133852F6798A09C465DA95921460CEFB3847402498 PUSH1 0x1 PUSH1 0x40 MLOAD PUSH2 0x814 SWAP2 SWAP1 PUSH2 0x2E95 JUMP JUMPDEST PUSH1 0x40 MLOAD DUP1 SWAP2 SUB SWAP1 LOG1 JUMPDEST POP POP POP POP POP POP POP POP POP JUMP JUMPDEST PUSH1 0x0 PUSH32 0x80AC58CD00000000000000000000000000000000000000000000000000000000 PUSH28 0xFFFFFFFFFFFFFFFFFFFFFFFFFFFFFFFFFFFFFFFFFFFFFFFFFFFFFFFF NOT AND DUP3 PUSH28 0xFFFFFFFFFFFFFFFFFFFFFFFFFFFFFFFFFFFFFFFFFFFFFFFFFFFFFFFF NOT AND EQ DUP1 PUSH2 0x8F3 JUMPI POP PUSH32 0x5B5E139F00000000000000000000000000000000000000000000000000000000 PUSH28 0xFFFFFFFFFFFFFFFFFFFFFFFFFFFFFFFFFFFFFFFFFFFFFFFFFFFFFFFF NOT AND DUP3 PUSH28 0xFFFFFFFFFFFFFFFFFFFFFFFFFFFFFFFFFFFFFFFFFFFFFFFFFFFFFFFF NOT AND EQ JUMPDEST DUP1 PUSH2 0x903 JUMPI POP PUSH2 0x902 DUP3 PUSH2 0x145F JUMP JUMPDEST JUMPDEST SWAP1 POP SWAP2 SWAP1 POP JUMP JUMPDEST PUSH1 0x60 PUSH1 0x65 DUP1 SLOAD PUSH2 0x919 SWAP1 PUSH2 0x2EDF JUMP JUMPDEST DUP1 PUSH1 0x1F ADD PUSH1 0x20 DUP1 SWAP2 DIV MUL PUSH1 0x20 ADD PUSH1 0x40 MLOAD SWAP1 DUP2 ADD PUSH1 0x40 MSTORE DUP1 SWAP3 SWAP2 SWAP1 DUP2 DUP2 MSTORE PUSH1 0x20 ADD DUP3 DUP1 SLOAD PUSH2 0x945 SWAP1 PUSH2 0x2EDF JUMP JUMPDEST DUP1 ISZERO PUSH2 0x992 JUMPI DUP1 PUSH1 0x1F LT PUSH2 0x967 JUMPI PUSH2 0x100 DUP1 DUP4 SLOAD DIV MUL DUP4 MSTORE SWAP2 PUSH1 0x20 ADD SWAP2 PUSH2 0x992 JUMP JUMPDEST DUP3 ADD SWAP2 SWAP1 PUSH1 0x0 MSTORE PUSH1 0x20 PUSH1 0x0 KECCAK256 SWAP1 JUMPDEST DUP2 SLOAD DUP2 MSTORE SWAP1 PUSH1 0x1 ADD SWAP1 PUSH1 0x20 ADD DUP1 DUP4 GT PUSH2 0x975 JUMPI DUP3 SWAP1 SUB PUSH1 0x1F AND DUP3 ADD SWAP2 JUMPDEST POP POP POP POP POP SWAP1 POP SWAP1 JUMP JUMPDEST PUSH1 0x0 PUSH2 0x9A7 DUP3 PUSH2 0x14C9 JUMP JUMPDEST PUSH1 0x69 PUSH1 0x0 DUP4 DUP2 MSTORE PUSH1 0x20 ADD SWAP1 DUP2 MSTORE PUSH1 0x20 ADD PUSH1 0x0 KECCAK256 PUSH1 0x0 SWAP1 SLOAD SWAP1 PUSH2 0x100 EXP SWAP1 DIV PUSH20 0xFFFFFFFFFFFFFFFFFFFFFFFFFFFFFFFFFFFFFFFF AND SWAP1 POP SWAP2 SWAP1 POP JUMP JUMPDEST PUSH1 0x0 PUSH2 0x9ED DUP3 PUSH2 0xD6F JUMP JUMPDEST SWAP1 POP DUP1 PUSH20 0xFFFFFFFFFFFFFFFFFFFFFFFFFFFFFFFFFFFFFFFF AND DUP4 PUSH20 0xFFFFFFFFFFFFFFFFFFFFFFFFFFFFFFFFFFFFFFFF AND SUB PUSH2 0xA5D JUMPI PUSH1 0x40 MLOAD PUSH32 0x8C379A000000000000000000000000000000000000000000000000000000000 DUP2 MSTORE PUSH1 0x4 ADD PUSH2 0xA54 SWAP1 PUSH2 0x2F82 JUMP JUMPDEST PUSH1 0x40 MLOAD DUP1 SWAP2 SUB SWAP1 REVERT JUMPDEST DUP1 PUSH20 0xFFFFFFFFFFFFFFFFFFFFFFFFFFFFFFFFFFFFFFFF AND PUSH2 0xA7C PUSH2 0x1514 JUMP JUMPDEST PUSH20 0xFFFFFFFFFFFFFFFFFFFFFFFFFFFFFFFFFFFFFFFF AND EQ DUP1 PUSH2 0xAAB JUMPI POP PUSH2 0xAAA DUP2 PUSH2 0xAA5 PUSH2 0x1514 JUMP JUMPDEST PUSH2 0x1331 JUMP JUMPDEST JUMPDEST PUSH2 0xAEA JUMPI PUSH1 0x40 MLOAD PUSH32 0x8C379A000000000000000000000000000000000000000000000000000000000 DUP2 MSTORE PUSH1 0x4 ADD PUSH2 0xAE1 SWAP1 PUSH2 0x3014 JUMP JUMPDEST PUSH1 0x40 MLOAD DUP1 SWAP2 SUB SWAP1 REVERT JUMPDEST PUSH2 0xAF4 DUP4 DUP4 PUSH2 0x151C JUMP JUMPDEST POP POP POP JUMP JUMPDEST PUSH1 0x0 PUSH1 0xCA SLOAD SWAP1 POP SWAP1 JUMP JUMPDEST PUSH2 0xB14 PUSH2 0xB0E PUSH2 0x1514 JUMP JUMPDEST DUP3 PUSH2 0x15D5 JUMP JUMPDEST PUSH2 0xB53 JUMPI PUSH1 0x40 MLOAD PUSH32 0x8C379A000000000000000000000000000000000000000000000000000000000 DUP2 MSTORE PUSH1 0x4 ADD PUSH2 0xB4A SWAP1 PUSH2 0x30A6 JUMP JUMPDEST PUSH1 0x40 MLOAD DUP1 SWAP2 SUB SWAP1 REVERT JUMPDEST PUSH2 0xB5E DUP4 DUP4 DUP4 PUSH2 0x166A JUMP JUMPDEST POP POP POP JUMP JUMPDEST PUSH1 0x60 PUSH2 0xB6D PUSH2 0x90A JUMP JUMPDEST SWAP1 POP SWAP1 JUMP JUMPDEST PUSH2 0xB8D DUP4 DUP4 DUP4 PUSH1 0x40 MLOAD DUP1 PUSH1 0x20 ADD PUSH1 0x40 MSTORE DUP1 PUSH1 0x0 DUP2 MSTORE POP PUSH2 0x12AE JUMP JUMPDEST POP POP POP JUMP JUMPDEST PUSH1 0x0 PUSH2 0xB9E PUSH1 0x1 PUSH2 0xD6F JUMP JUMPDEST SWAP1 POP PUSH1 0x0 PUSH20 0xFFFFFFFFFFFFFFFFFFFFFFFFFFFFFFFFFFFFFFFF AND CALLER PUSH20 0xFFFFFFFFFFFFFFFFFFFFFFFFFFFFFFFFFFFFFFFF AND SUB PUSH2 0xC0F JUMPI PUSH1 0x40 MLOAD PUSH32 0x8C379A000000000000000000000000000000000000000000000000000000000 DUP2 MSTORE PUSH1 0x4 ADD PUSH2 0xC06 SWAP1 PUSH2 0x3112 JUMP JUMPDEST PUSH1 0x40 MLOAD DUP1 SWAP2 SUB SWAP1 REVERT JUMPDEST DUP1 PUSH20 0xFFFFFFFFFFFFFFFFFFFFFFFFFFFFFFFFFFFFFFFF AND CALLER PUSH20 0xFFFFFFFFFFFFFFFFFFFFFFFFFFFFFFFFFFFFFFFF AND SUB PUSH2 0xC7D JUMPI PUSH1 0x40 MLOAD PUSH32 0x8C379A000000000000000000000000000000000000000000000000000000000 DUP2 MSTORE PUSH1 0x4 ADD PUSH2 0xC74 SWAP1 PUSH2 0x317E JUMP JUMPDEST PUSH1 0x40 MLOAD DUP1 SWAP2 SUB SWAP1 REVERT JUMPDEST PUSH1 0x1 DUP3 EQ PUSH2 0xCC0 JUMPI PUSH1 0x40 MLOAD PUSH32 0x8C379A000000000000000000000000000000000000000000000000000000000 DUP2 MSTORE PUSH1 0x4 ADD PUSH2 0xCB7 SWAP1 PUSH2 0x31EA JUMP JUMPDEST PUSH1 0x40 MLOAD DUP1 SWAP2 SUB SWAP1 REVERT JUMPDEST PUSH1 0xCA SLOAD CALLVALUE LT ISZERO PUSH2 0xD05 JUMPI PUSH1 0x40 MLOAD PUSH32 0x8C379A000000000000000000000000000000000000000000000000000000000 DUP2 MSTORE PUSH1 0x4 ADD PUSH2 0xCFC SWAP1 PUSH2 0x327C JUMP JUMPDEST PUSH1 0x40 MLOAD DUP1 SWAP2 SUB SWAP1 REVERT JUMPDEST PUSH2 0xD10 DUP2 CALLER DUP5 PUSH2 0x166A JUMP JUMPDEST CALLER SWAP1 POP DUP1 PUSH20 0xFFFFFFFFFFFFFFFFFFFFFFFFFFFFFFFFFFFFFFFF AND PUSH2 0x8FC CALLVALUE SWAP1 DUP2 ISZERO MUL SWAP1 PUSH1 0x40 MLOAD PUSH1 0x0 PUSH1 0x40 MLOAD DUP1 DUP4 SUB DUP2 DUP6 DUP9 DUP9 CALL SWAP4 POP POP POP POP ISZERO DUP1 ISZERO PUSH2 0xD59 JUMPI RETURNDATASIZE PUSH1 0x0 DUP1 RETURNDATACOPY RETURNDATASIZE PUSH1 0x0 REVERT JUMPDEST POP POP POP JUMP JUMPDEST PUSH1 0x0 PUSH2 0xD6A PUSH1 0x1 PUSH2 0xD6F JUMP JUMPDEST SWAP1 POP SWAP1 JUMP JUMPDEST PUSH1 0x0 DUP1 PUSH2 0xD7B DUP4 PUSH2 0x1963 JUMP JUMPDEST SWAP1 POP PUSH1 0x0 PUSH20 0xFFFFFFFFFFFFFFFFFFFFFFFFFFFFFFFFFFFFFFFF AND DUP2 PUSH20 0xFFFFFFFFFFFFFFFFFFFFFFFFFFFFFFFFFFFFFFFF AND SUB PUSH2 0xDEC JUMPI PUSH1 0x40 MLOAD PUSH32 0x8C379A000000000000000000000000000000000000000000000000000000000 DUP2 MSTORE PUSH1 0x4 ADD PUSH2 0xDE3 SWAP1 PUSH2 0x32E8 JUMP JUMPDEST PUSH1 0x40 MLOAD DUP1 SWAP2 SUB SWAP1 REVERT JUMPDEST DUP1 SWAP2 POP POP SWAP2 SWAP1 POP JUMP JUMPDEST PUSH1 0x0 DUP1 PUSH20 0xFFFFFFFFFFFFFFFFFFFFFFFFFFFFFFFFFFFFFFFF AND DUP3 PUSH20 0xFFFFFFFFFFFFFFFFFFFFFFFFFFFFFFFFFFFFFFFF AND SUB PUSH2 0xE65 JUMPI PUSH1 0x40 MLOAD PUSH32 0x8C379A000000000000000000000000000000000000000000000000000000000 DUP2 MSTORE PUSH1 0x4 ADD PUSH2 0xE5C SWAP1 PUSH2 0x337A JUMP JUMPDEST PUSH1 0x40 MLOAD DUP1 SWAP2 SUB SWAP1 REVERT JUMPDEST PUSH1 0x68 PUSH1 0x0 DUP4 PUSH20 0xFFFFFFFFFFFFFFFFFFFFFFFFFFFFFFFFFFFFFFFF AND PUSH20 0xFFFFFFFFFFFFFFFFFFFFFFFFFFFFFFFFFFFFFFFF AND DUP2 MSTORE PUSH1 0x20 ADD SWAP1 DUP2 MSTORE PUSH1 0x20 ADD PUSH1 0x0 KECCAK256 SLOAD SWAP1 POP SWAP2 SWAP1 POP JUMP JUMPDEST PUSH2 0xEB6 PUSH1 0x1 PUSH2 0xD6F JUMP JUMPDEST PUSH20 0xFFFFFFFFFFFFFFFFFFFFFFFFFFFFFFFFFFFFFFFF AND CALLER PUSH20 0xFFFFFFFFFFFFFFFFFFFFFFFFFFFFFFFFFFFFFFFF AND EQ PUSH2 0xF23 JUMPI PUSH1 0x40 MLOAD PUSH32 0x8C379A000000000000000000000000000000000000000000000000000000000 DUP2 MSTORE PUSH1 0x4 ADD PUSH2 0xF1A SWAP1 PUSH2 0x33E6 JUMP JUMPDEST PUSH1 0x40 MLOAD DUP1 SWAP2 SUB SWAP1 REVERT JUMPDEST PUSH1 0x0 DUP2 LT ISZERO PUSH2 0xF67 JUMPI PUSH1 0x40 MLOAD PUSH32 0x8C379A000000000000000000000000000000000000000000000000000000000 DUP2 MSTORE PUSH1 0x4 ADD PUSH2 0xF5E SWAP1 PUSH2 0x3452 JUMP JUMPDEST PUSH1 0x40 MLOAD DUP1 SWAP2 SUB SWAP1 REVERT JUMPDEST PUSH1 0xCA SLOAD DUP2 SUB PUSH2 0xFAB JUMPI PUSH1 0x40 MLOAD PUSH32 0x8C379A000000000000000000000000000000000000000000000000000000000 DUP2 MSTORE PUSH1 0x4 ADD PUSH2 0xFA2 SWAP1 PUSH2 0x34BE JUMP JUMPDEST PUSH1 0x40 MLOAD DUP1 SWAP2 SUB SWAP1 REVERT JUMPDEST PUSH1 0x0 PUSH1 0xCA SLOAD SWAP1 POP DUP2 PUSH1 0xCA DUP2 SWAP1 SSTORE POP PUSH2 0xFC3 PUSH1 0x1 PUSH2 0xD6F JUMP JUMPDEST PUSH20 0xFFFFFFFFFFFFFFFFFFFFFFFFFFFFFFFFFFFFFFFF AND PUSH32 0xF3D52D1A60D7D0EE4E16F5B72624FA05A825FDD27EA948202AF49055AAA6064B PUSH2 0x1002 PUSH2 0x90A JUMP JUMPDEST PUSH2 0x100A PUSH2 0x102A JUMP JUMPDEST DUP5 PUSH1 0xCA SLOAD PUSH1 0x40 MLOAD PUSH2 0x101E SWAP5 SWAP4 SWAP3 SWAP2 SWAP1 PUSH2 0x34DE JUMP JUMPDEST PUSH1 0x40 MLOAD DUP1 SWAP2 SUB SWAP1 LOG2 POP POP JUMP JUMPDEST PUSH1 0x60 PUSH1 0x66 DUP1 SLOAD PUSH2 0x1039 SWAP1 PUSH2 0x2EDF JUMP JUMPDEST DUP1 PUSH1 0x1F ADD PUSH1 0x20 DUP1 SWAP2 DIV MUL PUSH1 0x20 ADD PUSH1 0x40 MLOAD SWAP1 DUP2 ADD PUSH1 0x40 MSTORE DUP1 SWAP3 SWAP2 SWAP1 DUP2 DUP2 MSTORE PUSH1 0x20 ADD DUP3 DUP1 SLOAD PUSH2 0x1065 SWAP1 PUSH2 0x2EDF JUMP JUMPDEST DUP1 ISZERO PUSH2 0x10B2 JUMPI DUP1 PUSH1 0x1F LT PUSH2 0x1087 JUMPI PUSH2 0x100 DUP1 DUP4 SLOAD DIV MUL DUP4 MSTORE SWAP2 PUSH1 0x20 ADD SWAP2 PUSH2 0x10B2 JUMP JUMPDEST DUP3 ADD SWAP2 SWAP1 PUSH1 0x0 MSTORE PUSH1 0x20 PUSH1 0x0 KECCAK256 SWAP1 JUMPDEST DUP2 SLOAD DUP2 MSTORE SWAP1 PUSH1 0x1 ADD SWAP1 PUSH1 0x20 ADD DUP1 DUP4 GT PUSH2 0x1095 JUMPI DUP3 SWAP1 SUB PUSH1 0x1F AND DUP3 ADD SWAP2 JUMPDEST POP POP POP POP POP SWAP1 POP SWAP1 JUMP JUMPDEST PUSH2 0x10CE PUSH2 0x10C7 PUSH2 0x1514 JUMP JUMPDEST DUP4 DUP4 PUSH2 0x19A0 JUMP JUMPDEST POP POP JUMP JUMPDEST PUSH1 0x0 PUSH2 0x10DE PUSH1 0x1 PUSH2 0xD6F JUMP JUMPDEST PUSH20 0xFFFFFFFFFFFFFFFFFFFFFFFFFFFFFFFFFFFFFFFF AND CALLER PUSH20 0xFFFFFFFFFFFFFFFFFFFFFFFFFFFFFFFFFFFFFFFF AND EQ PUSH2 0x114B JUMPI PUSH1 0x40 MLOAD PUSH32 0x8C379A000000000000000000000000000000000000000000000000000000000 DUP2 MSTORE PUSH1 0x4 ADD PUSH2 0x1142 SWAP1 PUSH2 0x33E6 JUMP JUMPDEST PUSH1 0x40 MLOAD DUP1 SWAP2 SUB SWAP1 REVERT JUMPDEST PUSH1 0x0 DUP4 GT DUP1 ISZERO PUSH2 0x115C JUMPI POP PUSH1 0x0 DUP3 LT ISZERO JUMPDEST PUSH2 0x119B JUMPI PUSH1 0x40 MLOAD PUSH32 0x8C379A000000000000000000000000000000000000000000000000000000000 DUP2 MSTORE PUSH1 0x4 ADD PUSH2 0x1192 SWAP1 PUSH2 0x357D JUMP JUMPDEST PUSH1 0x40 MLOAD DUP1 SWAP2 SUB SWAP1 REVERT JUMPDEST PUSH1 0xC9 PUSH1 0x0 SWAP1 SLOAD SWAP1 PUSH2 0x100 EXP SWAP1 DIV PUSH20 0xFFFFFFFFFFFFFFFFFFFFFFFFFFFFFFFFFFFFFFFF AND PUSH20 0xFFFFFFFFFFFFFFFFFFFFFFFFFFFFFFFFFFFFFFFF AND PUSH4 0xAFD69C8F DUP7 DUP7 CALLER DUP8 DUP8 PUSH1 0x40 MLOAD DUP7 PUSH4 0xFFFFFFFF AND PUSH1 0xE0 SHL DUP2 MSTORE PUSH1 0x4 ADD PUSH2 0x11FE SWAP6 SWAP5 SWAP4 SWAP3 SWAP2 SWAP1 PUSH2 0x359D JUMP JUMPDEST PUSH1 0x20 PUSH1 0x40 MLOAD DUP1 DUP4 SUB DUP2 PUSH1 0x0 DUP8 GAS CALL ISZERO DUP1 ISZERO PUSH2 0x121D JUMPI RETURNDATASIZE PUSH1 0x0 DUP1 RETURNDATACOPY RETURNDATASIZE PUSH1 0x0 REVERT JUMPDEST POP POP POP POP PUSH1 0x40 MLOAD RETURNDATASIZE PUSH1 0x1F NOT PUSH1 0x1F DUP3 ADD AND DUP3 ADD DUP1 PUSH1 0x40 MSTORE POP DUP2 ADD SWAP1 PUSH2 0x1241 SWAP2 SWAP1 PUSH2 0x3613 JUMP JUMPDEST SWAP1 POP PUSH1 0xCB DUP2 SWAP1 DUP1 PUSH1 0x1 DUP2 SLOAD ADD DUP1 DUP3 SSTORE DUP1 SWAP2 POP POP PUSH1 0x1 SWAP1 SUB SWAP1 PUSH1 0x0 MSTORE PUSH1 0x20 PUSH1 0x0 KECCAK256 ADD PUSH1 0x0 SWAP1 SWAP2 SWAP1 SWAP2 SWAP1 SWAP2 PUSH2 0x100 EXP DUP2 SLOAD DUP2 PUSH20 0xFFFFFFFFFFFFFFFFFFFFFFFFFFFFFFFFFFFFFFFF MUL NOT AND SWAP1 DUP4 PUSH20 0xFFFFFFFFFFFFFFFFFFFFFFFFFFFFFFFFFFFFFFFF AND MUL OR SWAP1 SSTORE POP SWAP5 SWAP4 POP POP POP POP JUMP JUMPDEST PUSH2 0x12BF PUSH2 0x12B9 PUSH2 0x1514 JUMP JUMPDEST DUP4 PUSH2 0x15D5 JUMP JUMPDEST PUSH2 0x12FE JUMPI PUSH1 0x40 MLOAD PUSH32 0x8C379A000000000000000000000000000000000000000000000000000000000 DUP2 MSTORE PUSH1 0x4 ADD PUSH2 0x12F5 SWAP1 PUSH2 0x30A6 JUMP JUMPDEST PUSH1 0x40 MLOAD DUP1 SWAP2 SUB SWAP1 REVERT JUMPDEST PUSH2 0x130A DUP5 DUP5 DUP5 DUP5 PUSH2 0x1B0C JUMP JUMPDEST POP POP POP POP JUMP JUMPDEST PUSH1 0x60 PUSH2 0x131B DUP3 PUSH2 0x1B68 JUMP JUMPDEST SWAP1 POP SWAP2 SWAP1 POP JUMP JUMPDEST PUSH1 0x60 PUSH2 0x132C PUSH2 0x102A JUMP JUMPDEST SWAP1 POP SWAP1 JUMP JUMPDEST PUSH1 0x0 PUSH1 0x6A PUSH1 0x0 DUP5 PUSH20 0xFFFFFFFFFFFFFFFFFFFFFFFFFFFFFFFFFFFFFFFF AND PUSH20 0xFFFFFFFFFFFFFFFFFFFFFFFFFFFFFFFFFFFFFFFF AND DUP2 MSTORE PUSH1 0x20 ADD SWAP1 DUP2 MSTORE PUSH1 0x20 ADD PUSH1 0x0 KECCAK256 PUSH1 0x0 DUP4 PUSH20 0xFFFFFFFFFFFFFFFFFFFFFFFFFFFFFFFFFFFFFFFF AND PUSH20 0xFFFFFFFFFFFFFFFFFFFFFFFFFFFFFFFFFFFFFFFF AND DUP2 MSTORE PUSH1 0x20 ADD SWAP1 DUP2 MSTORE PUSH1 0x20 ADD PUSH1 0x0 KECCAK256 PUSH1 0x0 SWAP1 SLOAD SWAP1 PUSH2 0x100 EXP SWAP1 DIV PUSH1 0xFF AND SWAP1 POP SWAP3 SWAP2 POP POP JUMP JUMPDEST PUSH1 0x0 DUP1 DUP3 PUSH20 0xFFFFFFFFFFFFFFFFFFFFFFFFFFFFFFFFFFFFFFFF AND EXTCODESIZE GT SWAP1 POP SWAP2 SWAP1 POP JUMP JUMPDEST PUSH1 0x0 PUSH1 0x1 SWAP1 SLOAD SWAP1 PUSH2 0x100 EXP SWAP1 DIV PUSH1 0xFF AND PUSH2 0x1437 JUMPI PUSH1 0x40 MLOAD PUSH32 0x8C379A000000000000000000000000000000000000000000000000000000000 DUP2 MSTORE PUSH1 0x4 ADD PUSH2 0x142E SWAP1 PUSH2 0x36B2 JUMP JUMPDEST PUSH1 0x40 MLOAD DUP1 SWAP2 SUB SWAP1 REVERT JUMPDEST PUSH2 0x1441 DUP3 DUP3 PUSH2 0x1C7A JUMP JUMPDEST POP POP JUMP JUMPDEST PUSH2 0x1450 DUP3 PUSH1 0x1 PUSH2 0x1CED JUMP JUMPDEST PUSH2 0x145B PUSH1 0x1 DUP3 PUSH2 0x1D0B JUMP JUMPDEST POP POP JUMP JUMPDEST PUSH1 0x0 PUSH32 0x1FFC9A700000000000000000000000000000000000000000000000000000000 PUSH28 0xFFFFFFFFFFFFFFFFFFFFFFFFFFFFFFFFFFFFFFFFFFFFFFFFFFFFFFFF NOT AND DUP3 PUSH28 0xFFFFFFFFFFFFFFFFFFFFFFFFFFFFFFFFFFFFFFFFFFFFFFFFFFFFFFFF NOT AND EQ SWAP1 POP SWAP2 SWAP1 POP JUMP JUMPDEST PUSH2 0x14D2 DUP2 PUSH2 0x1D78 JUMP JUMPDEST PUSH2 0x1511 JUMPI PUSH1 0x40 MLOAD PUSH32 0x8C379A000000000000000000000000000000000000000000000000000000000 DUP2 MSTORE PUSH1 0x4 ADD PUSH2 0x1508 SWAP1 PUSH2 0x32E8 JUMP JUMPDEST PUSH1 0x40 MLOAD DUP1 SWAP2 SUB SWAP1 REVERT JUMPDEST POP JUMP JUMPDEST PUSH1 0x0 CALLER SWAP1 POP SWAP1 JUMP JUMPDEST DUP2 PUSH1 0x69 PUSH1 0x0 DUP4 DUP2 MSTORE PUSH1 0x20 ADD SWAP1 DUP2 MSTORE PUSH1 0x20 ADD PUSH1 0x0 KECCAK256 PUSH1 0x0 PUSH2 0x100 EXP DUP2 SLOAD DUP2 PUSH20 0xFFFFFFFFFFFFFFFFFFFFFFFFFFFFFFFFFFFFFFFF MUL NOT AND SWAP1 DUP4 PUSH20 0xFFFFFFFFFFFFFFFFFFFFFFFFFFFFFFFFFFFFFFFF AND MUL OR SWAP1 SSTORE POP DUP1 DUP3 PUSH20 0xFFFFFFFFFFFFFFFFFFFFFFFFFFFFFFFFFFFFFFFF AND PUSH2 0x158F DUP4 PUSH2 0xD6F JUMP JUMPDEST PUSH20 0xFFFFFFFFFFFFFFFFFFFFFFFFFFFFFFFFFFFFFFFF AND PUSH32 0x8C5BE1E5EBEC7D5BD14F71427D1E84F3DD0314C0F7B2291E5B200AC8C7C3B925 PUSH1 0x40 MLOAD PUSH1 0x40 MLOAD DUP1 SWAP2 SUB SWAP1 LOG4 POP POP JUMP JUMPDEST PUSH1 0x0 DUP1 PUSH2 0x15E1 DUP4 PUSH2 0xD6F JUMP JUMPDEST SWAP1 POP DUP1 PUSH20 0xFFFFFFFFFFFFFFFFFFFFFFFFFFFFFFFFFFFFFFFF AND DUP5 PUSH20 0xFFFFFFFFFFFFFFFFFFFFFFFFFFFFFFFFFFFFFFFF AND EQ DUP1 PUSH2 0x1623 JUMPI POP PUSH2 0x1622 DUP2 DUP6 PUSH2 0x1331 JUMP JUMPDEST JUMPDEST DUP1 PUSH2 0x1661 JUMPI POP DUP4 PUSH20 0xFFFFFFFFFFFFFFFFFFFFFFFFFFFFFFFFFFFFFFFF AND PUSH2 0x1649 DUP5 PUSH2 0x99C JUMP JUMPDEST PUSH20 0xFFFFFFFFFFFFFFFFFFFFFFFFFFFFFFFFFFFFFFFF AND EQ JUMPDEST SWAP2 POP POP SWAP3 SWAP2 POP POP JUMP JUMPDEST DUP3 PUSH20 0xFFFFFFFFFFFFFFFFFFFFFFFFFFFFFFFFFFFFFFFF AND PUSH2 0x168A DUP3 PUSH2 0xD6F JUMP JUMPDEST PUSH20 0xFFFFFFFFFFFFFFFFFFFFFFFFFFFFFFFFFFFFFFFF AND EQ PUSH2 0x16E0 JUMPI PUSH1 0x40 MLOAD PUSH32 0x8C379A000000000000000000000000000000000000000000000000000000000 DUP2 MSTORE PUSH1 0x4 ADD PUSH2 0x16D7 SWAP1 PUSH2 0x3744 JUMP JUMPDEST PUSH1 0x40 MLOAD DUP1 SWAP2 SUB SWAP1 REVERT JUMPDEST PUSH1 0x0 PUSH20 0xFFFFFFFFFFFFFFFFFFFFFFFFFFFFFFFFFFFFFFFF AND DUP3 PUSH20 0xFFFFFFFFFFFFFFFFFFFFFFFFFFFFFFFFFFFFFFFF AND SUB PUSH2 0x174F JUMPI PUSH1 0x40 MLOAD PUSH32 0x8C379A000000000000000000000000000000000000000000000000000000000 DUP2 MSTORE PUSH1 0x4 ADD PUSH2 0x1746 SWAP1 PUSH2 0x37D6 JUMP JUMPDEST PUSH1 0x40 MLOAD DUP1 SWAP2 SUB SWAP1 REVERT JUMPDEST PUSH2 0x175C DUP4 DUP4 DUP4 PUSH1 0x1 PUSH2 0x1DB9 JUMP JUMPDEST DUP3 PUSH20 0xFFFFFFFFFFFFFFFFFFFFFFFFFFFFFFFFFFFFFFFF AND PUSH2 0x177C DUP3 PUSH2 0xD6F JUMP JUMPDEST PUSH20 0xFFFFFFFFFFFFFFFFFFFFFFFFFFFFFFFFFFFFFFFF AND EQ PUSH2 0x17D2 JUMPI PUSH1 0x40 MLOAD PUSH32 0x8C379A000000000000000000000000000000000000000000000000000000000 DUP2 MSTORE PUSH1 0x4 ADD PUSH2 0x17C9 SWAP1 PUSH2 0x3744 JUMP JUMPDEST PUSH1 0x40 MLOAD DUP1 SWAP2 SUB SWAP1 REVERT JUMPDEST PUSH1 0x69 PUSH1 0x0 DUP3 DUP2 MSTORE PUSH1 0x20 ADD SWAP1 DUP2 MSTORE PUSH1 0x20 ADD PUSH1 0x0 KECCAK256 PUSH1 0x0 PUSH2 0x100 EXP DUP2 SLOAD SWAP1 PUSH20 0xFFFFFFFFFFFFFFFFFFFFFFFFFFFFFFFFFFFFFFFF MUL NOT AND SWAP1 SSTORE PUSH1 0x1 PUSH1 0x68 PUSH1 0x0 DUP6 PUSH20 0xFFFFFFFFFFFFFFFFFFFFFFFFFFFFFFFFFFFFFFFF AND PUSH20 0xFFFFFFFFFFFFFFFFFFFFFFFFFFFFFFFFFFFFFFFF AND DUP2 MSTORE PUSH1 0x20 ADD SWAP1 DUP2 MSTORE PUSH1 0x20 ADD PUSH1 0x0 KECCAK256 PUSH1 0x0 DUP3 DUP3 SLOAD SUB SWAP3 POP POP DUP2 SWAP1 SSTORE POP PUSH1 0x1 PUSH1 0x68 PUSH1 0x0 DUP5 PUSH20 0xFFFFFFFFFFFFFFFFFFFFFFFFFFFFFFFFFFFFFFFF AND PUSH20 0xFFFFFFFFFFFFFFFFFFFFFFFFFFFFFFFFFFFFFFFF AND DUP2 MSTORE PUSH1 0x20 ADD SWAP1 DUP2 MSTORE PUSH1 0x20 ADD PUSH1 0x0 KECCAK256 PUSH1 0x0 DUP3 DUP3 SLOAD ADD SWAP3 POP POP DUP2 SWAP1 SSTORE POP DUP2 PUSH1 0x67 PUSH1 0x0 DUP4 DUP2 MSTORE PUSH1 0x20 ADD SWAP1 DUP2 MSTORE PUSH1 0x20 ADD PUSH1 0x0 KECCAK256 PUSH1 0x0 PUSH2 0x100 EXP DUP2 SLOAD DUP2 PUSH20 0xFFFFFFFFFFFFFFFFFFFFFFFFFFFFFFFFFFFFFFFF MUL NOT AND SWAP1 DUP4 PUSH20 0xFFFFFFFFFFFFFFFFFFFFFFFFFFFFFFFFFFFFFFFF AND MUL OR SWAP1 SSTORE POP DUP1 DUP3 PUSH20 0xFFFFFFFFFFFFFFFFFFFFFFFFFFFFFFFFFFFFFFFF AND DUP5 PUSH20 0xFFFFFFFFFFFFFFFFFFFFFFFFFFFFFFFFFFFFFFFF AND PUSH32 0xDDF252AD1BE2C89B69C2B068FC378DAA952BA7F163C4A11628F55A4DF523B3EF PUSH1 0x40 MLOAD PUSH1 0x40 MLOAD DUP1 SWAP2 SUB SWAP1 LOG4 PUSH2 0x195E DUP4 DUP4 DUP4 PUSH1 0x1 PUSH2 0x1DBF JUMP JUMPDEST POP POP POP JUMP JUMPDEST PUSH1 0x0 PUSH1 0x67 PUSH1 0x0 DUP4 DUP2 MSTORE PUSH1 0x20 ADD SWAP1 DUP2 MSTORE PUSH1 0x20 ADD PUSH1 0x0 KECCAK256 PUSH1 0x0 SWAP1 SLOAD SWAP1 PUSH2 0x100 EXP SWAP1 DIV PUSH20 0xFFFFFFFFFFFFFFFFFFFFFFFFFFFFFFFFFFFFFFFF AND SWAP1 POP SWAP2 SWAP1 POP JUMP JUMPDEST DUP2 PUSH20 0xFFFFFFFFFFFFFFFFFFFFFFFFFFFFFFFFFFFFFFFF AND DUP4 PUSH20 0xFFFFFFFFFFFFFFFFFFFFFFFFFFFFFFFFFFFFFFFF AND SUB PUSH2 0x1A0E JUMPI PUSH1 0x40 MLOAD PUSH32 0x8C379A000000000000000000000000000000000000000000000000000000000 DUP2 MSTORE PUSH1 0x4 ADD PUSH2 0x1A05 SWAP1 PUSH2 0x3842 JUMP JUMPDEST PUSH1 0x40 MLOAD DUP1 SWAP2 SUB SWAP1 REVERT JUMPDEST DUP1 PUSH1 0x6A PUSH1 0x0 DUP6 PUSH20 0xFFFFFFFFFFFFFFFFFFFFFFFFFFFFFFFFFFFFFFFF AND PUSH20 0xFFFFFFFFFFFFFFFFFFFFFFFFFFFFFFFFFFFFFFFF AND DUP2 MSTORE PUSH1 0x20 ADD SWAP1 DUP2 MSTORE PUSH1 0x20 ADD PUSH1 0x0 KECCAK256 PUSH1 0x0 DUP5 PUSH20 0xFFFFFFFFFFFFFFFFFFFFFFFFFFFFFFFFFFFFFFFF AND PUSH20 0xFFFFFFFFFFFFFFFFFFFFFFFFFFFFFFFFFFFFFFFF AND DUP2 MSTORE PUSH1 0x20 ADD SWAP1 DUP2 MSTORE PUSH1 0x20 ADD PUSH1 0x0 KECCAK256 PUSH1 0x0 PUSH2 0x100 EXP DUP2 SLOAD DUP2 PUSH1 0xFF MUL NOT AND SWAP1 DUP4 ISZERO ISZERO MUL OR SWAP1 SSTORE POP DUP2 PUSH20 0xFFFFFFFFFFFFFFFFFFFFFFFFFFFFFFFFFFFFFFFF AND DUP4 PUSH20 0xFFFFFFFFFFFFFFFFFFFFFFFFFFFFFFFFFFFFFFFF AND PUSH32 0x17307EAB39AB6107E8899845AD3D59BD9653F200F220920489CA2B5937696C31 DUP4 PUSH1 0x40 MLOAD PUSH2 0x1AFF SWAP2 SWAP1 PUSH2 0x283D JUMP JUMPDEST PUSH1 0x40 MLOAD DUP1 SWAP2 SUB SWAP1 LOG3 POP POP POP JUMP JUMPDEST PUSH2 0x1B17 DUP5 DUP5 DUP5 PUSH2 0x166A JUMP JUMPDEST PUSH2 0x1B23 DUP5 DUP5 DUP5 DUP5 PUSH2 0x1DC5 JUMP JUMPDEST PUSH2 0x1B62 JUMPI PUSH1 0x40 MLOAD PUSH32 0x8C379A000000000000000000000000000000000000000000000000000000000 DUP2 MSTORE PUSH1 0x4 ADD PUSH2 0x1B59 SWAP1 PUSH2 0x38D4 JUMP JUMPDEST PUSH1 0x40 MLOAD DUP1 SWAP2 SUB SWAP1 REVERT JUMPDEST POP POP POP POP JUMP JUMPDEST PUSH1 0x60 PUSH2 0x1B73 DUP3 PUSH2 0x14C9 JUMP JUMPDEST PUSH1 0x0 PUSH1 0x97 PUSH1 0x0 DUP5 DUP2 MSTORE PUSH1 0x20 ADD SWAP1 DUP2 MSTORE PUSH1 0x20 ADD PUSH1 0x0 KECCAK256 DUP1 SLOAD PUSH2 0x1B93 SWAP1 PUSH2 0x2EDF JUMP JUMPDEST DUP1 PUSH1 0x1F ADD PUSH1 0x20 DUP1 SWAP2 DIV MUL PUSH1 0x20 ADD PUSH1 0x40 MLOAD SWAP1 DUP2 ADD PUSH1 0x40 MSTORE DUP1 SWAP3 SWAP2 SWAP1 DUP2 DUP2 MSTORE PUSH1 0x20 ADD DUP3 DUP1 SLOAD PUSH2 0x1BBF SWAP1 PUSH2 0x2EDF JUMP JUMPDEST DUP1 ISZERO PUSH2 0x1C0C JUMPI DUP1 PUSH1 0x1F LT PUSH2 0x1BE1 JUMPI PUSH2 0x100 DUP1 DUP4 SLOAD DIV MUL DUP4 MSTORE SWAP2 PUSH1 0x20 ADD SWAP2 PUSH2 0x1C0C JUMP JUMPDEST DUP3 ADD SWAP2 SWAP1 PUSH1 0x0 MSTORE PUSH1 0x20 PUSH1 0x0 KECCAK256 SWAP1 JUMPDEST DUP2 SLOAD DUP2 MSTORE SWAP1 PUSH1 0x1 ADD SWAP1 PUSH1 0x20 ADD DUP1 DUP4 GT PUSH2 0x1BEF JUMPI DUP3 SWAP1 SUB PUSH1 0x1F AND DUP3 ADD SWAP2 JUMPDEST POP POP POP POP POP SWAP1 POP PUSH1 0x0 PUSH2 0x1C1D PUSH2 0x1F4C JUMP JUMPDEST SWAP1 POP PUSH1 0x0 DUP2 MLOAD SUB PUSH2 0x1C32 JUMPI DUP2 SWAP3 POP POP POP PUSH2 0x1C75 JUMP JUMPDEST PUSH1 0x0 DUP3 MLOAD GT ISZERO PUSH2 0x1C67 JUMPI DUP1 DUP3 PUSH1 0x40 MLOAD PUSH1 0x20 ADD PUSH2 0x1C4F SWAP3 SWAP2 SWAP1 PUSH2 0x3930 JUMP JUMPDEST PUSH1 0x40 MLOAD PUSH1 0x20 DUP2 DUP4 SUB SUB DUP2 MSTORE SWAP1 PUSH1 0x40 MSTORE SWAP3 POP POP POP PUSH2 0x1C75 JUMP JUMPDEST PUSH2 0x1C70 DUP5 PUSH2 0x1F63 JUMP JUMPDEST SWAP3 POP POP POP JUMPDEST SWAP2 SWAP1 POP JUMP JUMPDEST PUSH1 0x0 PUSH1 0x1 SWAP1 SLOAD SWAP1 PUSH2 0x100 EXP SWAP1 DIV PUSH1 0xFF AND PUSH2 0x1CC9 JUMPI PUSH1 0x40 MLOAD PUSH32 0x8C379A000000000000000000000000000000000000000000000000000000000 DUP2 MSTORE PUSH1 0x4 ADD PUSH2 0x1CC0 SWAP1 PUSH2 0x36B2 JUMP JUMPDEST PUSH1 0x40 MLOAD DUP1 SWAP2 SUB SWAP1 REVERT JUMPDEST DUP2 PUSH1 0x65 SWAP1 DUP2 PUSH2 0x1CD8 SWAP2 SWAP1 PUSH2 0x3AF6 JUMP JUMPDEST POP DUP1 PUSH1 0x66 SWAP1 DUP2 PUSH2 0x1CE8 SWAP2 SWAP1 PUSH2 0x3AF6 JUMP JUMPDEST POP POP POP JUMP JUMPDEST PUSH2 0x1D07 DUP3 DUP3 PUSH1 0x40 MLOAD DUP1 PUSH1 0x20 ADD PUSH1 0x40 MSTORE DUP1 PUSH1 0x0 DUP2 MSTORE POP PUSH2 0x1FCB JUMP JUMPDEST POP POP JUMP JUMPDEST PUSH2 0x1D14 DUP3 PUSH2 0x1D78 JUMP JUMPDEST PUSH2 0x1D53 JUMPI PUSH1 0x40 MLOAD PUSH32 0x8C379A000000000000000000000000000000000000000000000000000000000 DUP2 MSTORE PUSH1 0x4 ADD PUSH2 0x1D4A SWAP1 PUSH2 0x3C3A JUMP JUMPDEST PUSH1 0x40 MLOAD DUP1 SWAP2 SUB SWAP1 REVERT JUMPDEST DUP1 PUSH1 0x97 PUSH1 0x0 DUP5 DUP2 MSTORE PUSH1 0x20 ADD SWAP1 DUP2 MSTORE PUSH1 0x20 ADD PUSH1 0x0 KECCAK256 SWAP1 DUP2 PUSH2 0x1D73 SWAP2 SWAP1 PUSH2 0x3AF6 JUMP JUMPDEST POP POP POP JUMP JUMPDEST PUSH1 0x0 DUP1 PUSH20 0xFFFFFFFFFFFFFFFFFFFFFFFFFFFFFFFFFFFFFFFF AND PUSH2 0x1D9A DUP4 PUSH2 0x1963 JUMP JUMPDEST PUSH20 0xFFFFFFFFFFFFFFFFFFFFFFFFFFFFFFFFFFFFFFFF AND EQ ISZERO SWAP1 POP SWAP2 SWAP1 POP JUMP JUMPDEST POP POP POP POP JUMP JUMPDEST POP POP POP POP JUMP JUMPDEST PUSH1 0x0 PUSH2 0x1DE6 DUP5 PUSH20 0xFFFFFFFFFFFFFFFFFFFFFFFFFFFFFFFFFFFFFFFF AND PUSH2 0x13C5 JUMP JUMPDEST ISZERO PUSH2 0x1F3F JUMPI DUP4 PUSH20 0xFFFFFFFFFFFFFFFFFFFFFFFFFFFFFFFFFFFFFFFF AND PUSH4 0x150B7A02 PUSH2 0x1E0F PUSH2 0x1514 JUMP JUMPDEST DUP8 DUP7 DUP7 PUSH1 0x40 MLOAD DUP6 PUSH4 0xFFFFFFFF AND PUSH1 0xE0 SHL DUP2 MSTORE PUSH1 0x4 ADD PUSH2 0x1E31 SWAP5 SWAP4 SWAP3 SWAP2 SWAP1 PUSH2 0x3CAF JUMP JUMPDEST PUSH1 0x20 PUSH1 0x40 MLOAD DUP1 DUP4 SUB DUP2 PUSH1 0x0 DUP8 GAS CALL SWAP3 POP POP POP DUP1 ISZERO PUSH2 0x1E6D JUMPI POP PUSH1 0x40 MLOAD RETURNDATASIZE PUSH1 0x1F NOT PUSH1 0x1F DUP3 ADD AND DUP3 ADD DUP1 PUSH1 0x40 MSTORE POP DUP2 ADD SWAP1 PUSH2 0x1E6A SWAP2 SWAP1 PUSH2 0x3D10 JUMP JUMPDEST PUSH1 0x1 JUMPDEST PUSH2 0x1EEF JUMPI RETURNDATASIZE DUP1 PUSH1 0x0 DUP2 EQ PUSH2 0x1E9D JUMPI PUSH1 0x40 MLOAD SWAP2 POP PUSH1 0x1F NOT PUSH1 0x3F RETURNDATASIZE ADD AND DUP3 ADD PUSH1 0x40 MSTORE RETURNDATASIZE DUP3 MSTORE RETURNDATASIZE PUSH1 0x0 PUSH1 0x20 DUP5 ADD RETURNDATACOPY PUSH2 0x1EA2 JUMP JUMPDEST PUSH1 0x60 SWAP2 POP JUMPDEST POP PUSH1 0x0 DUP2 MLOAD SUB PUSH2 0x1EE7 JUMPI PUSH1 0x40 MLOAD PUSH32 0x8C379A000000000000000000000000000000000000000000000000000000000 DUP2 MSTORE PUSH1 0x4 ADD PUSH2 0x1EDE SWAP1 PUSH2 0x38D4 JUMP JUMPDEST PUSH1 0x40 MLOAD DUP1 SWAP2 SUB SWAP1 REVERT JUMPDEST DUP1 MLOAD DUP2 PUSH1 0x20 ADD REVERT JUMPDEST PUSH4 0x150B7A02 PUSH1 0xE0 SHL PUSH28 0xFFFFFFFFFFFFFFFFFFFFFFFFFFFFFFFFFFFFFFFFFFFFFFFFFFFFFFFF NOT AND DUP2 PUSH28 0xFFFFFFFFFFFFFFFFFFFFFFFFFFFFFFFFFFFFFFFFFFFFFFFFFFFFFFFF NOT AND EQ SWAP2 POP POP PUSH2 0x1F44 JUMP JUMPDEST PUSH1 0x1 SWAP1 POP JUMPDEST SWAP5 SWAP4 POP POP POP POP JUMP JUMPDEST PUSH1 0x60 PUSH1 0x40 MLOAD DUP1 PUSH1 0x20 ADD PUSH1 0x40 MSTORE DUP1 PUSH1 0x0 DUP2 MSTORE POP SWAP1 POP SWAP1 JUMP JUMPDEST PUSH1 0x60 PUSH2 0x1F6E DUP3 PUSH2 0x14C9 JUMP JUMPDEST PUSH1 0x0 PUSH2 0x1F78 PUSH2 0x1F4C JUMP JUMPDEST SWAP1 POP PUSH1 0x0 DUP2 MLOAD GT PUSH2 0x1F98 JUMPI PUSH1 0x40 MLOAD DUP1 PUSH1 0x20 ADD PUSH1 0x40 MSTORE DUP1 PUSH1 0x0 DUP2 MSTORE POP PUSH2 0x1FC3 JUMP JUMPDEST DUP1 PUSH2 0x1FA2 DUP5 PUSH2 0x2026 JUMP JUMPDEST PUSH1 0x40 MLOAD PUSH1 0x20 ADD PUSH2 0x1FB3 SWAP3 SWAP2 SWAP1 PUSH2 0x3930 JUMP JUMPDEST PUSH1 0x40 MLOAD PUSH1 0x20 DUP2 DUP4 SUB SUB DUP2 MSTORE SWAP1 PUSH1 0x40 MSTORE JUMPDEST SWAP2 POP POP SWAP2 SWAP1 POP JUMP JUMPDEST PUSH2 0x1FD5 DUP4 DUP4 PUSH2 0x20F4 JUMP JUMPDEST PUSH2 0x1FE2 PUSH1 0x0 DUP5 DUP5 DUP5 PUSH2 0x1DC5 JUMP JUMPDEST PUSH2 0x2021 JUMPI PUSH1 0x40 MLOAD PUSH32 0x8C379A000000000000000000000000000000000000000000000000000000000 DUP2 MSTORE PUSH1 0x4 ADD PUSH2 0x2018 SWAP1 PUSH2 0x38D4 JUMP JUMPDEST PUSH1 0x40 MLOAD DUP1 SWAP2 SUB SWAP1 REVERT JUMPDEST POP POP POP JUMP JUMPDEST PUSH1 0x60 PUSH1 0x0 PUSH1 0x1 PUSH2 0x2035 DUP5 PUSH2 0x2311 JUMP JUMPDEST ADD SWAP1 POP PUSH1 0x0 DUP2 PUSH8 0xFFFFFFFFFFFFFFFF DUP2 GT ISZERO PUSH2 0x2054 JUMPI PUSH2 0x2053 PUSH2 0x2551 JUMP JUMPDEST JUMPDEST PUSH1 0x40 MLOAD SWAP1 DUP1 DUP3 MSTORE DUP1 PUSH1 0x1F ADD PUSH1 0x1F NOT AND PUSH1 0x20 ADD DUP3 ADD PUSH1 0x40 MSTORE DUP1 ISZERO PUSH2 0x2086 JUMPI DUP2 PUSH1 0x20 ADD PUSH1 0x1 DUP3 MUL DUP1 CALLDATASIZE DUP4 CALLDATACOPY DUP1 DUP3 ADD SWAP2 POP POP SWAP1 POP JUMPDEST POP SWAP1 POP PUSH1 0x0 DUP3 PUSH1 0x20 ADD DUP3 ADD SWAP1 POP JUMPDEST PUSH1 0x1 ISZERO PUSH2 0x20E9 JUMPI DUP1 DUP1 PUSH1 0x1 SWAP1 SUB SWAP2 POP POP PUSH32 0x3031323334353637383961626364656600000000000000000000000000000000 PUSH1 0xA DUP7 MOD BYTE DUP2 MSTORE8 PUSH1 0xA DUP6 DUP2 PUSH2 0x20DD JUMPI PUSH2 0x20DC PUSH2 0x3D3D JUMP JUMPDEST JUMPDEST DIV SWAP5 POP PUSH1 0x0 DUP6 SUB PUSH2 0x2094 JUMPI JUMPDEST DUP2 SWAP4 POP POP POP POP SWAP2 SWAP1 POP JUMP JUMPDEST PUSH1 0x0 PUSH20 0xFFFFFFFFFFFFFFFFFFFFFFFFFFFFFFFFFFFFFFFF AND DUP3 PUSH20 0xFFFFFFFFFFFFFFFFFFFFFFFFFFFFFFFFFFFFFFFF AND SUB PUSH2 0x2163 JUMPI PUSH1 0x40 MLOAD PUSH32 0x8C379A000000000000000000000000000000000000000000000000000000000 DUP2 MSTORE PUSH1 0x4 ADD PUSH2 0x215A SWAP1 PUSH2 0x3DB8 JUMP JUMPDEST PUSH1 0x40 MLOAD DUP1 SWAP2 SUB SWAP1 REVERT JUMPDEST PUSH2 0x216C DUP2 PUSH2 0x1D78 JUMP JUMPDEST ISZERO PUSH2 0x21AC JUMPI PUSH1 0x40 MLOAD PUSH32 0x8C379A000000000000000000000000000000000000000000000000000000000 DUP2 MSTORE PUSH1 0x4 ADD PUSH2 0x21A3 SWAP1 PUSH2 0x3E24 JUMP JUMPDEST PUSH1 0x40 MLOAD DUP1 SWAP2 SUB SWAP1 REVERT JUMPDEST PUSH2 0x21BA PUSH1 0x0 DUP4 DUP4 PUSH1 0x1 PUSH2 0x1DB9 JUMP JUMPDEST PUSH2 0x21C3 DUP2 PUSH2 0x1D78 JUMP JUMPDEST ISZERO PUSH2 0x2203 JUMPI PUSH1 0x40 MLOAD PUSH32 0x8C379A000000000000000000000000000000000000000000000000000000000 DUP2 MSTORE PUSH1 0x4 ADD PUSH2 0x21FA SWAP1 PUSH2 0x3E24 JUMP JUMPDEST PUSH1 0x40 MLOAD DUP1 SWAP2 SUB SWAP1 REVERT JUMPDEST PUSH1 0x1 PUSH1 0x68 PUSH1 0x0 DUP5 PUSH20 0xFFFFFFFFFFFFFFFFFFFFFFFFFFFFFFFFFFFFFFFF AND PUSH20 0xFFFFFFFFFFFFFFFFFFFFFFFFFFFFFFFFFFFFFFFF AND DUP2 MSTORE PUSH1 0x20 ADD SWAP1 DUP2 MSTORE PUSH1 0x20 ADD PUSH1 0x0 KECCAK256 PUSH1 0x0 DUP3 DUP3 SLOAD ADD SWAP3 POP POP DUP2 SWAP1 SSTORE POP DUP2 PUSH1 0x67 PUSH1 0x0 DUP4 DUP2 MSTORE PUSH1 0x20 ADD SWAP1 DUP2 MSTORE PUSH1 0x20 ADD PUSH1 0x0 KECCAK256 PUSH1 0x0 PUSH2 0x100 EXP DUP2 SLOAD DUP2 PUSH20 0xFFFFFFFFFFFFFFFFFFFFFFFFFFFFFFFFFFFFFFFF MUL NOT AND SWAP1 DUP4 PUSH20 0xFFFFFFFFFFFFFFFFFFFFFFFFFFFFFFFFFFFFFFFF AND MUL OR SWAP1 SSTORE POP DUP1 DUP3 PUSH20 0xFFFFFFFFFFFFFFFFFFFFFFFFFFFFFFFFFFFFFFFF AND PUSH1 0x0 PUSH20 0xFFFFFFFFFFFFFFFFFFFFFFFFFFFFFFFFFFFFFFFF AND PUSH32 0xDDF252AD1BE2C89B69C2B068FC378DAA952BA7F163C4A11628F55A4DF523B3EF PUSH1 0x40 MLOAD PUSH1 0x40 MLOAD DUP1 SWAP2 SUB SWAP1 LOG4 PUSH2 0x230D PUSH1 0x0 DUP4 DUP4 PUSH1 0x1 PUSH2 0x1DBF JUMP JUMPDEST POP POP JUMP JUMPDEST PUSH1 0x0 DUP1 PUSH1 0x0 SWAP1 POP PUSH27 0x184F03E93FF9F4DAA797ED6E38ED64BF6A1F010000000000000000 DUP4 LT PUSH2 0x236F JUMPI PUSH27 0x184F03E93FF9F4DAA797ED6E38ED64BF6A1F010000000000000000 DUP4 DUP2 PUSH2 0x2365 JUMPI PUSH2 0x2364 PUSH2 0x3D3D JUMP JUMPDEST JUMPDEST DIV SWAP3 POP PUSH1 0x40 DUP2 ADD SWAP1 POP JUMPDEST PUSH14 0x4EE2D6D415B85ACEF8100000000 DUP4 LT PUSH2 0x23AC JUMPI PUSH14 0x4EE2D6D415B85ACEF8100000000 DUP4 DUP2 PUSH2 0x23A2 JUMPI PUSH2 0x23A1 PUSH2 0x3D3D JUMP JUMPDEST JUMPDEST DIV SWAP3 POP PUSH1 0x20 DUP2 ADD SWAP1 POP JUMPDEST PUSH7 0x2386F26FC10000 DUP4 LT PUSH2 0x23DB JUMPI PUSH7 0x2386F26FC10000 DUP4 DUP2 PUSH2 0x23D1 JUMPI PUSH2 0x23D0 PUSH2 0x3D3D JUMP JUMPDEST JUMPDEST DIV SWAP3 POP PUSH1 0x10 DUP2 ADD SWAP1 POP JUMPDEST PUSH4 0x5F5E100 DUP4 LT PUSH2 0x2404 JUMPI PUSH4 0x5F5E100 DUP4 DUP2 PUSH2 0x23FA JUMPI PUSH2 0x23F9 PUSH2 0x3D3D JUMP JUMPDEST JUMPDEST DIV SWAP3 POP PUSH1 0x8 DUP2 ADD SWAP1 POP JUMPDEST PUSH2 0x2710 DUP4 LT PUSH2 0x2429 JUMPI PUSH2 0x2710 DUP4 DUP2 PUSH2 0x241F JUMPI PUSH2 0x241E PUSH2 0x3D3D JUMP JUMPDEST JUMPDEST DIV SWAP3 POP PUSH1 0x4 DUP2 ADD SWAP1 POP JUMPDEST PUSH1 0x64 DUP4 LT PUSH2 0x244C JUMPI PUSH1 0x64 DUP4 DUP2 PUSH2 0x2442 JUMPI PUSH2 0x2441 PUSH2 0x3D3D JUMP JUMPDEST JUMPDEST DIV SWAP3 POP PUSH1 0x2 DUP2 ADD SWAP1 POP JUMPDEST PUSH1 0xA DUP4 LT PUSH2 0x245B JUMPI PUSH1 0x1 DUP2 ADD SWAP1 POP JUMPDEST DUP1 SWAP2 POP POP SWAP2 SWAP1 POP JUMP JUMPDEST PUSH1 0x0 PUSH1 0x40 MLOAD SWAP1 POP SWAP1 JUMP JUMPDEST PUSH1 0x0 DUP1 REVERT JUMPDEST PUSH1 0x0 DUP1 REVERT JUMPDEST PUSH1 0x0 PUSH20 0xFFFFFFFFFFFFFFFFFFFFFFFFFFFFFFFFFFFFFFFF DUP3 AND SWAP1 POP SWAP2 SWAP1 POP JUMP JUMPDEST PUSH1 0x0 PUSH2 0x24A3 DUP3 PUSH2 0x2478 JUMP JUMPDEST SWAP1 POP SWAP2 SWAP1 POP JUMP JUMPDEST PUSH2 0x24B3 DUP2 PUSH2 0x2498 JUMP JUMPDEST DUP2 EQ PUSH2 0x24BE JUMPI PUSH1 0x0 DUP1 REVERT JUMPDEST POP JUMP JUMPDEST PUSH1 0x0 DUP2 CALLDATALOAD SWAP1 POP PUSH2 0x24D0 DUP2 PUSH2 0x24AA JUMP JUMPDEST SWAP3 SWAP2 POP POP JUMP JUMPDEST PUSH1 0x0 DUP1 REVERT JUMPDEST PUSH1 0x0 DUP1 REVERT JUMPDEST PUSH1 0x0 DUP1 REVERT JUMPDEST PUSH1 0x0 DUP1 DUP4 PUSH1 0x1F DUP5 ADD SLT PUSH2 0x24FB JUMPI PUSH2 0x24FA PUSH2 0x24D6 JUMP JUMPDEST JUMPDEST DUP3 CALLDATALOAD SWAP1 POP PUSH8 0xFFFFFFFFFFFFFFFF DUP2 GT ISZERO PUSH2 0x2518 JUMPI PUSH2 0x2517 PUSH2 0x24DB JUMP JUMPDEST JUMPDEST PUSH1 0x20 DUP4 ADD SWAP2 POP DUP4 PUSH1 0x1 DUP3 MUL DUP4 ADD GT ISZERO PUSH2 0x2534 JUMPI PUSH2 0x2533 PUSH2 0x24E0 JUMP JUMPDEST JUMPDEST SWAP3 POP SWAP3 SWAP1 POP JUMP JUMPDEST PUSH1 0x0 DUP1 REVERT JUMPDEST PUSH1 0x0 PUSH1 0x1F NOT PUSH1 0x1F DUP4 ADD AND SWAP1 POP SWAP2 SWAP1 POP JUMP JUMPDEST PUSH32 0x4E487B7100000000000000000000000000000000000000000000000000000000 PUSH1 0x0 MSTORE PUSH1 0x41 PUSH1 0x4 MSTORE PUSH1 0x24 PUSH1 0x0 REVERT JUMPDEST PUSH2 0x2589 DUP3 PUSH2 0x2540 JUMP JUMPDEST DUP2 ADD DUP2 DUP2 LT PUSH8 0xFFFFFFFFFFFFFFFF DUP3 GT OR ISZERO PUSH2 0x25A8 JUMPI PUSH2 0x25A7 PUSH2 0x2551 JUMP JUMPDEST JUMPDEST DUP1 PUSH1 0x40 MSTORE POP POP POP JUMP JUMPDEST PUSH1 0x0 PUSH2 0x25BB PUSH2 0x2464 JUMP JUMPDEST SWAP1 POP PUSH2 0x25C7 DUP3 DUP3 PUSH2 0x2580 JUMP JUMPDEST SWAP2 SWAP1 POP JUMP JUMPDEST PUSH1 0x0 PUSH8 0xFFFFFFFFFFFFFFFF DUP3 GT ISZERO PUSH2 0x25E7 JUMPI PUSH2 0x25E6 PUSH2 0x2551 JUMP JUMPDEST JUMPDEST PUSH2 0x25F0 DUP3 PUSH2 0x2540 JUMP JUMPDEST SWAP1 POP PUSH1 0x20 DUP2 ADD SWAP1 POP SWAP2 SWAP1 POP JUMP JUMPDEST DUP3 DUP2 DUP4 CALLDATACOPY PUSH1 0x0 DUP4 DUP4 ADD MSTORE POP POP POP JUMP JUMPDEST PUSH1 0x0 PUSH2 0x261F PUSH2 0x261A DUP5 PUSH2 0x25CC JUMP JUMPDEST PUSH2 0x25B1 JUMP JUMPDEST SWAP1 POP DUP3 DUP2 MSTORE PUSH1 0x20 DUP2 ADD DUP5 DUP5 DUP5 ADD GT ISZERO PUSH2 0x263B JUMPI PUSH2 0x263A PUSH2 0x253B JUMP JUMPDEST JUMPDEST PUSH2 0x2646 DUP5 DUP3 DUP6 PUSH2 0x25FD JUMP JUMPDEST POP SWAP4 SWAP3 POP POP POP JUMP JUMPDEST PUSH1 0x0 DUP3 PUSH1 0x1F DUP4 ADD SLT PUSH2 0x2663 JUMPI PUSH2 0x2662 PUSH2 0x24D6 JUMP JUMPDEST JUMPDEST DUP2 CALLDATALOAD PUSH2 0x2673 DUP5 DUP3 PUSH1 0x20 DUP7 ADD PUSH2 0x260C JUMP JUMPDEST SWAP2 POP POP SWAP3 SWAP2 POP POP JUMP JUMPDEST PUSH1 0x0 DUP2 SWAP1 POP SWAP2 SWAP1 POP JUMP JUMPDEST PUSH2 0x268F DUP2 PUSH2 0x267C JUMP JUMPDEST DUP2 EQ PUSH2 0x269A JUMPI PUSH1 0x0 DUP1 REVERT JUMPDEST POP JUMP JUMPDEST PUSH1 0x0 DUP2 CALLDATALOAD SWAP1 POP PUSH2 0x26AC DUP2 PUSH2 0x2686 JUMP JUMPDEST SWAP3 SWAP2 POP POP JUMP JUMPDEST PUSH1 0x0 DUP1 PUSH1 0x0 DUP1 PUSH1 0x0 DUP1 PUSH1 0x0 DUP1 PUSH1 0xC0 DUP10 DUP12 SUB SLT ISZERO PUSH2 0x26D2 JUMPI PUSH2 0x26D1 PUSH2 0x246E JUMP JUMPDEST JUMPDEST PUSH1 0x0 PUSH2 0x26E0 DUP12 DUP3 DUP13 ADD PUSH2 0x24C1 JUMP JUMPDEST SWAP9 POP POP PUSH1 0x20 DUP10 ADD CALLDATALOAD PUSH8 0xFFFFFFFFFFFFFFFF DUP2 GT ISZERO PUSH2 0x2701 JUMPI PUSH2 0x2700 PUSH2 0x2473 JUMP JUMPDEST JUMPDEST PUSH2 0x270D DUP12 DUP3 DUP13 ADD PUSH2 0x24E5 JUMP JUMPDEST SWAP8 POP SWAP8 POP POP PUSH1 0x40 DUP10 ADD CALLDATALOAD PUSH8 0xFFFFFFFFFFFFFFFF DUP2 GT ISZERO PUSH2 0x2730 JUMPI PUSH2 0x272F PUSH2 0x2473 JUMP JUMPDEST JUMPDEST PUSH2 0x273C DUP12 DUP3 DUP13 ADD PUSH2 0x24E5 JUMP JUMPDEST SWAP6 POP SWAP6 POP POP PUSH1 0x60 PUSH2 0x274F DUP12 DUP3 DUP13 ADD PUSH2 0x24C1 JUMP JUMPDEST SWAP4 POP POP PUSH1 0x80 DUP10 ADD CALLDATALOAD PUSH8 0xFFFFFFFFFFFFFFFF DUP2 GT ISZERO PUSH2 0x2770 JUMPI PUSH2 0x276F PUSH2 0x2473 JUMP JUMPDEST JUMPDEST PUSH2 0x277C DUP12 DUP3 DUP13 ADD PUSH2 0x264E JUMP JUMPDEST SWAP3 POP POP PUSH1 0xA0 PUSH2 0x278D DUP12 DUP3 DUP13 ADD PUSH2 0x269D JUMP JUMPDEST SWAP2 POP POP SWAP3 SWAP6 SWAP9 POP SWAP3 SWAP6 SWAP9 SWAP1 SWAP4 SWAP7 POP JUMP JUMPDEST PUSH1 0x0 PUSH32 0xFFFFFFFF00000000000000000000000000000000000000000000000000000000 DUP3 AND SWAP1 POP SWAP2 SWAP1 POP JUMP JUMPDEST PUSH2 0x27D2 DUP2 PUSH2 0x279D JUMP JUMPDEST DUP2 EQ PUSH2 0x27DD JUMPI PUSH1 0x0 DUP1 REVERT JUMPDEST POP JUMP JUMPDEST PUSH1 0x0 DUP2 CALLDATALOAD SWAP1 POP PUSH2 0x27EF DUP2 PUSH2 0x27C9 JUMP JUMPDEST SWAP3 SWAP2 POP POP JUMP JUMPDEST PUSH1 0x0 PUSH1 0x20 DUP3 DUP5 SUB SLT ISZERO PUSH2 0x280B JUMPI PUSH2 0x280A PUSH2 0x246E JUMP JUMPDEST JUMPDEST PUSH1 0x0 PUSH2 0x2819 DUP5 DUP3 DUP6 ADD PUSH2 0x27E0 JUMP JUMPDEST SWAP2 POP POP SWAP3 SWAP2 POP POP JUMP JUMPDEST PUSH1 0x0 DUP2 ISZERO ISZERO SWAP1 POP SWAP2 SWAP1 POP JUMP JUMPDEST PUSH2 0x2837 DUP2 PUSH2 0x2822 JUMP JUMPDEST DUP3 MSTORE POP POP JUMP JUMPDEST PUSH1 0x0 PUSH1 0x20 DUP3 ADD SWAP1 POP PUSH2 0x2852 PUSH1 0x0 DUP4 ADD DUP5 PUSH2 0x282E JUMP JUMPDEST SWAP3 SWAP2 POP POP JUMP JUMPDEST PUSH1 0x0 DUP2 MLOAD SWAP1 POP SWAP2 SWAP1 POP JUMP JUMPDEST PUSH1 0x0 DUP3 DUP3 MSTORE PUSH1 0x20 DUP3 ADD SWAP1 POP SWAP3 SWAP2 POP POP JUMP JUMPDEST PUSH1 0x0 JUMPDEST DUP4 DUP2 LT ISZERO PUSH2 0x2892 JUMPI DUP1 DUP3 ADD MLOAD DUP2 DUP5 ADD MSTORE PUSH1 0x20 DUP2 ADD SWAP1 POP PUSH2 0x2877 JUMP JUMPDEST PUSH1 0x0 DUP5 DUP5 ADD MSTORE POP POP POP POP JUMP JUMPDEST PUSH1 0x0 PUSH2 0x28A9 DUP3 PUSH2 0x2858 JUMP JUMPDEST PUSH2 0x28B3 DUP2 DUP6 PUSH2 0x2863 JUMP JUMPDEST SWAP4 POP PUSH2 0x28C3 DUP2 DUP6 PUSH1 0x20 DUP7 ADD PUSH2 0x2874 JUMP JUMPDEST PUSH2 0x28CC DUP2 PUSH2 0x2540 JUMP JUMPDEST DUP5 ADD SWAP2 POP POP SWAP3 SWAP2 POP POP JUMP JUMPDEST PUSH1 0x0 PUSH1 0x20 DUP3 ADD SWAP1 POP DUP2 DUP2 SUB PUSH1 0x0 DUP4 ADD MSTORE PUSH2 0x28F1 DUP2 DUP5 PUSH2 0x289E JUMP JUMPDEST SWAP1 POP SWAP3 SWAP2 POP POP JUMP JUMPDEST PUSH1 0x0 PUSH1 0x20 DUP3 DUP5 SUB SLT ISZERO PUSH2 0x290F JUMPI PUSH2 0x290E PUSH2 0x246E JUMP JUMPDEST JUMPDEST PUSH1 0x0 PUSH2 0x291D DUP5 DUP3 DUP6 ADD PUSH2 0x269D JUMP JUMPDEST SWAP2 POP POP SWAP3 SWAP2 POP POP JUMP JUMPDEST PUSH2 0x292F DUP2 PUSH2 0x2498 JUMP JUMPDEST DUP3 MSTORE POP POP JUMP JUMPDEST PUSH1 0x0 PUSH1 0x20 DUP3 ADD SWAP1 POP PUSH2 0x294A PUSH1 0x0 DUP4 ADD DUP5 PUSH2 0x2926 JUMP JUMPDEST SWAP3 SWAP2 POP POP JUMP JUMPDEST PUSH1 0x0 DUP1 PUSH1 0x40 DUP4 DUP6 SUB SLT ISZERO PUSH2 0x2967 JUMPI PUSH2 0x2966 PUSH2 0x246E JUMP JUMPDEST JUMPDEST PUSH1 0x0 PUSH2 0x2975 DUP6 DUP3 DUP7 ADD PUSH2 0x24C1 JUMP JUMPDEST SWAP3 POP POP PUSH1 0x20 PUSH2 0x2986 DUP6 DUP3 DUP7 ADD PUSH2 0x269D JUMP JUMPDEST SWAP2 POP POP SWAP3 POP SWAP3 SWAP1 POP JUMP JUMPDEST PUSH2 0x2999 DUP2 PUSH2 0x267C JUMP JUMPDEST DUP3 MSTORE POP POP JUMP JUMPDEST PUSH1 0x0 PUSH1 0x20 DUP3 ADD SWAP1 POP PUSH2 0x29B4 PUSH1 0x0 DUP4 ADD DUP5 PUSH2 0x2990 JUMP JUMPDEST SWAP3 SWAP2 POP POP JUMP JUMPDEST PUSH1 0x0 DUP1 PUSH1 0x0 PUSH1 0x60 DUP5 DUP7 SUB SLT ISZERO PUSH2 0x29D3 JUMPI PUSH2 0x29D2 PUSH2 0x246E JUMP JUMPDEST JUMPDEST PUSH1 0x0 PUSH2 0x29E1 DUP7 DUP3 DUP8 ADD PUSH2 0x24C1 JUMP JUMPDEST SWAP4 POP POP PUSH1 0x20 PUSH2 0x29F2 DUP7 DUP3 DUP8 ADD PUSH2 0x24C1 JUMP JUMPDEST SWAP3 POP POP PUSH1 0x40 PUSH2 0x2A03 DUP7 DUP3 DUP8 ADD PUSH2 0x269D JUMP JUMPDEST SWAP2 POP POP SWAP3 POP SWAP3 POP SWAP3 JUMP JUMPDEST PUSH1 0x0 PUSH1 0x20 DUP3 DUP5 SUB SLT ISZERO PUSH2 0x2A23 JUMPI PUSH2 0x2A22 PUSH2 0x246E JUMP JUMPDEST JUMPDEST PUSH1 0x0 PUSH2 0x2A31 DUP5 DUP3 DUP6 ADD PUSH2 0x24C1 JUMP JUMPDEST SWAP2 POP POP SWAP3 SWAP2 POP POP JUMP JUMPDEST PUSH2 0x2A43 DUP2 PUSH2 0x2822 JUMP JUMPDEST DUP2 EQ PUSH2 0x2A4E JUMPI PUSH1 0x0 DUP1 REVERT JUMPDEST POP JUMP JUMPDEST PUSH1 0x0 DUP2 CALLDATALOAD SWAP1 POP PUSH2 0x2A60 DUP2 PUSH2 0x2A3A JUMP JUMPDEST SWAP3 SWAP2 POP POP JUMP JUMPDEST PUSH1 0x0 DUP1 PUSH1 0x40 DUP4 DUP6 SUB SLT ISZERO PUSH2 0x2A7D JUMPI PUSH2 0x2A7C PUSH2 0x246E JUMP JUMPDEST JUMPDEST PUSH1 0x0 PUSH2 0x2A8B DUP6 DUP3 DUP7 ADD PUSH2 0x24C1 JUMP JUMPDEST SWAP3 POP POP PUSH1 0x20 PUSH2 0x2A9C DUP6 DUP3 DUP7 ADD PUSH2 0x2A51 JUMP JUMPDEST SWAP2 POP POP SWAP3 POP SWAP3 SWAP1 POP JUMP JUMPDEST PUSH1 0x0 DUP1 PUSH1 0x0 DUP1 PUSH1 0x80 DUP6 DUP8 SUB SLT ISZERO PUSH2 0x2AC0 JUMPI PUSH2 0x2ABF PUSH2 0x246E JUMP JUMPDEST JUMPDEST PUSH1 0x0 DUP6 ADD CALLDATALOAD PUSH8 0xFFFFFFFFFFFFFFFF DUP2 GT ISZERO PUSH2 0x2ADE JUMPI PUSH2 0x2ADD PUSH2 0x2473 JUMP JUMPDEST JUMPDEST PUSH2 0x2AEA DUP8 DUP3 DUP9 ADD PUSH2 0x264E JUMP JUMPDEST SWAP5 POP POP PUSH1 0x20 DUP6 ADD CALLDATALOAD PUSH8 0xFFFFFFFFFFFFFFFF DUP2 GT ISZERO PUSH2 0x2B0B JUMPI PUSH2 0x2B0A PUSH2 0x2473 JUMP JUMPDEST JUMPDEST PUSH2 0x2B17 DUP8 DUP3 DUP9 ADD PUSH2 0x264E JUMP JUMPDEST SWAP4 POP POP PUSH1 0x40 PUSH2 0x2B28 DUP8 DUP3 DUP9 ADD PUSH2 0x269D JUMP JUMPDEST SWAP3 POP POP PUSH1 0x60 PUSH2 0x2B39 DUP8 DUP3 DUP9 ADD PUSH2 0x269D JUMP JUMPDEST SWAP2 POP POP SWAP3 SWAP6 SWAP2 SWAP5 POP SWAP3 POP JUMP JUMPDEST PUSH1 0x0 PUSH8 0xFFFFFFFFFFFFFFFF DUP3 GT ISZERO PUSH2 0x2B60 JUMPI PUSH2 0x2B5F PUSH2 0x2551 JUMP JUMPDEST JUMPDEST PUSH2 0x2B69 DUP3 PUSH2 0x2540 JUMP JUMPDEST SWAP1 POP PUSH1 0x20 DUP2 ADD SWAP1 POP SWAP2 SWAP1 POP JUMP JUMPDEST PUSH1 0x0 PUSH2 0x2B89 PUSH2 0x2B84 DUP5 PUSH2 0x2B45 JUMP JUMPDEST PUSH2 0x25B1 JUMP JUMPDEST SWAP1 POP DUP3 DUP2 MSTORE PUSH1 0x20 DUP2 ADD DUP5 DUP5 DUP5 ADD GT ISZERO PUSH2 0x2BA5 JUMPI PUSH2 0x2BA4 PUSH2 0x253B JUMP JUMPDEST JUMPDEST PUSH2 0x2BB0 DUP5 DUP3 DUP6 PUSH2 0x25FD JUMP JUMPDEST POP SWAP4 SWAP3 POP POP POP JUMP JUMPDEST PUSH1 0x0 DUP3 PUSH1 0x1F DUP4 ADD SLT PUSH2 0x2BCD JUMPI PUSH2 0x2BCC PUSH2 0x24D6 JUMP JUMPDEST JUMPDEST DUP2 CALLDATALOAD PUSH2 0x2BDD DUP5 DUP3 PUSH1 0x20 DUP7 ADD PUSH2 0x2B76 JUMP JUMPDEST SWAP2 POP POP SWAP3 SWAP2 POP POP JUMP JUMPDEST PUSH1 0x0 DUP1 PUSH1 0x0 DUP1 PUSH1 0x80 DUP6 DUP8 SUB SLT ISZERO PUSH2 0x2C00 JUMPI PUSH2 0x2BFF PUSH2 0x246E JUMP JUMPDEST JUMPDEST PUSH1 0x0 PUSH2 0x2C0E DUP8 DUP3 DUP9 ADD PUSH2 0x24C1 JUMP JUMPDEST SWAP5 POP POP PUSH1 0x20 PUSH2 0x2C1F DUP8 DUP3 DUP9 ADD PUSH2 0x24C1 JUMP JUMPDEST SWAP4 POP POP PUSH1 0x40 PUSH2 0x2C30 DUP8 DUP3 DUP9 ADD PUSH2 0x269D JUMP JUMPDEST SWAP3 POP POP PUSH1 0x60 DUP6 ADD CALLDATALOAD PUSH8 0xFFFFFFFFFFFFFFFF DUP2 GT ISZERO PUSH2 0x2C51 JUMPI PUSH2 0x2C50 PUSH2 0x2473 JUMP JUMPDEST JUMPDEST PUSH2 0x2C5D DUP8 DUP3 DUP9 ADD PUSH2 0x2BB8 JUMP JUMPDEST SWAP2 POP POP SWAP3 SWAP6 SWAP2 SWAP5 POP SWAP3 POP JUMP JUMPDEST PUSH1 0x0 DUP1 PUSH1 0x40 DUP4 DUP6 SUB SLT ISZERO PUSH2 0x2C80 JUMPI PUSH2 0x2C7F PUSH2 0x246E JUMP JUMPDEST JUMPDEST PUSH1 0x0 PUSH2 0x2C8E DUP6 DUP3 DUP7 ADD PUSH2 0x24C1 JUMP JUMPDEST SWAP3 POP POP PUSH1 0x20 PUSH2 0x2C9F DUP6 DUP3 DUP7 ADD PUSH2 0x24C1 JUMP JUMPDEST SWAP2 POP POP SWAP3 POP SWAP3 SWAP1 POP JUMP JUMPDEST PUSH32 0x496E697469616C697A61626C653A20636F6E747261637420697320616C726561 PUSH1 0x0 DUP3 ADD MSTORE PUSH32 0x647920696E697469616C697A6564000000000000000000000000000000000000 PUSH1 0x20 DUP3 ADD MSTORE POP JUMP JUMPDEST PUSH1 0x0 PUSH2 0x2D05 PUSH1 0x2E DUP4 PUSH2 0x2863 JUMP JUMPDEST SWAP2 POP PUSH2 0x2D10 DUP3 PUSH2 0x2CA9 JUMP JUMPDEST PUSH1 0x40 DUP3 ADD SWAP1 POP SWAP2 SWAP1 POP JUMP JUMPDEST PUSH1 0x0 PUSH1 0x20 DUP3 ADD SWAP1 POP DUP2 DUP2 SUB PUSH1 0x0 DUP4 ADD MSTORE PUSH2 0x2D34 DUP2 PUSH2 0x2CF8 JUMP JUMPDEST SWAP1 POP SWAP2 SWAP1 POP JUMP JUMPDEST PUSH32 0x496E76616C6964204E4654206F776E65723A207A65726F206164647265737320 PUSH1 0x0 DUP3 ADD MSTORE PUSH32 0x6E6F742076616C69642100000000000000000000000000000000000000000000 PUSH1 0x20 DUP3 ADD MSTORE POP JUMP JUMPDEST PUSH1 0x0 PUSH2 0x2D97 PUSH1 0x2A DUP4 PUSH2 0x2863 JUMP JUMPDEST SWAP2 POP PUSH2 0x2DA2 DUP3 PUSH2 0x2D3B JUMP JUMPDEST PUSH1 0x40 DUP3 ADD SWAP1 POP SWAP2 SWAP1 POP JUMP JUMPDEST PUSH1 0x0 PUSH1 0x20 DUP3 ADD SWAP1 POP DUP2 DUP2 SUB PUSH1 0x0 DUP4 ADD MSTORE PUSH2 0x2DC6 DUP2 PUSH2 0x2D8A JUMP JUMPDEST SWAP1 POP SWAP2 SWAP1 POP JUMP JUMPDEST PUSH1 0x0 PUSH2 0x2DD9 DUP4 DUP6 PUSH2 0x2863 JUMP JUMPDEST SWAP4 POP PUSH2 0x2DE6 DUP4 DUP6 DUP5 PUSH2 0x25FD JUMP JUMPDEST PUSH2 0x2DEF DUP4 PUSH2 0x2540 JUMP JUMPDEST DUP5 ADD SWAP1 POP SWAP4 SWAP3 POP POP POP JUMP JUMPDEST PUSH1 0x0 PUSH1 0x60 DUP3 ADD SWAP1 POP DUP2 DUP2 SUB PUSH1 0x0 DUP4 ADD MSTORE PUSH2 0x2E15 DUP2 DUP8 DUP10 PUSH2 0x2DCD JUMP JUMPDEST SWAP1 POP DUP2 DUP2 SUB PUSH1 0x20 DUP4 ADD MSTORE PUSH2 0x2E2A DUP2 DUP6 DUP8 PUSH2 0x2DCD JUMP JUMPDEST SWAP1 POP PUSH2 0x2E39 PUSH1 0x40 DUP4 ADD DUP5 PUSH2 0x2926 JUMP JUMPDEST SWAP7 SWAP6 POP POP POP POP POP POP JUMP JUMPDEST PUSH1 0x0 DUP2 SWAP1 POP SWAP2 SWAP1 POP JUMP JUMPDEST PUSH1 0x0 PUSH1 0xFF DUP3 AND SWAP1 POP SWAP2 SWAP1 POP JUMP JUMPDEST PUSH1 0x0 DUP2 SWAP1 POP SWAP2 SWAP1 POP JUMP JUMPDEST PUSH1 0x0 PUSH2 0x2E7F PUSH2 0x2E7A PUSH2 0x2E75 DUP5 PUSH2 0x2E43 JUMP JUMPDEST PUSH2 0x2E5A JUMP JUMPDEST PUSH2 0x2E4D JUMP JUMPDEST SWAP1 POP SWAP2 SWAP1 POP JUMP JUMPDEST PUSH2 0x2E8F DUP2 PUSH2 0x2E64 JUMP JUMPDEST DUP3 MSTORE POP POP JUMP JUMPDEST PUSH1 0x0 PUSH1 0x20 DUP3 ADD SWAP1 POP PUSH2 0x2EAA PUSH1 0x0 DUP4 ADD DUP5 PUSH2 0x2E86 JUMP JUMPDEST SWAP3 SWAP2 POP POP JUMP JUMPDEST PUSH32 0x4E487B7100000000000000000000000000000000000000000000000000000000 PUSH1 0x0 MSTORE PUSH1 0x22 PUSH1 0x4 MSTORE PUSH1 0x24 PUSH1 0x0 REVERT JUMPDEST PUSH1 0x0 PUSH1 0x2 DUP3 DIV SWAP1 POP PUSH1 0x1 DUP3 AND DUP1 PUSH2 0x2EF7 JUMPI PUSH1 0x7F DUP3 AND SWAP2 POP JUMPDEST PUSH1 0x20 DUP3 LT DUP2 SUB PUSH2 0x2F0A JUMPI PUSH2 0x2F09 PUSH2 0x2EB0 JUMP JUMPDEST JUMPDEST POP SWAP2 SWAP1 POP JUMP JUMPDEST PUSH32 0x4552433732313A20617070726F76616C20746F2063757272656E74206F776E65 PUSH1 0x0 DUP3 ADD MSTORE PUSH32 0x7200000000000000000000000000000000000000000000000000000000000000 PUSH1 0x20 DUP3 ADD MSTORE POP JUMP JUMPDEST PUSH1 0x0 PUSH2 0x2F6C PUSH1 0x21 DUP4 PUSH2 0x2863 JUMP JUMPDEST SWAP2 POP PUSH2 0x2F77 DUP3 PUSH2 0x2F10 JUMP JUMPDEST PUSH1 0x40 DUP3 ADD SWAP1 POP SWAP2 SWAP1 POP JUMP JUMPDEST PUSH1 0x0 PUSH1 0x20 DUP3 ADD SWAP1 POP DUP2 DUP2 SUB PUSH1 0x0 DUP4 ADD MSTORE PUSH2 0x2F9B DUP2 PUSH2 0x2F5F JUMP JUMPDEST SWAP1 POP SWAP2 SWAP1 POP JUMP JUMPDEST PUSH32 0x4552433732313A20617070726F76652063616C6C6572206973206E6F7420746F PUSH1 0x0 DUP3 ADD MSTORE PUSH32 0x6B656E206F776E6572206F7220617070726F76656420666F7220616C6C000000 PUSH1 0x20 DUP3 ADD MSTORE POP JUMP JUMPDEST PUSH1 0x0 PUSH2 0x2FFE PUSH1 0x3D DUP4 PUSH2 0x2863 JUMP JUMPDEST SWAP2 POP PUSH2 0x3009 DUP3 PUSH2 0x2FA2 JUMP JUMPDEST PUSH1 0x40 DUP3 ADD SWAP1 POP SWAP2 SWAP1 POP JUMP JUMPDEST PUSH1 0x0 PUSH1 0x20 DUP3 ADD SWAP1 POP DUP2 DUP2 SUB PUSH1 0x0 DUP4 ADD MSTORE PUSH2 0x302D DUP2 PUSH2 0x2FF1 JUMP JUMPDEST SWAP1 POP SWAP2 SWAP1 POP JUMP JUMPDEST PUSH32 0x4552433732313A2063616C6C6572206973206E6F7420746F6B656E206F776E65 PUSH1 0x0 DUP3 ADD MSTORE PUSH32 0x72206F7220617070726F76656400000000000000000000000000000000000000 PUSH1 0x20 DUP3 ADD MSTORE POP JUMP JUMPDEST PUSH1 0x0 PUSH2 0x3090 PUSH1 0x2D DUP4 PUSH2 0x2863 JUMP JUMPDEST SWAP2 POP PUSH2 0x309B DUP3 PUSH2 0x3034 JUMP JUMPDEST PUSH1 0x40 DUP3 ADD SWAP1 POP SWAP2 SWAP1 POP JUMP JUMPDEST PUSH1 0x0 PUSH1 0x20 DUP3 ADD SWAP1 POP DUP2 DUP2 SUB PUSH1 0x0 DUP4 ADD MSTORE PUSH2 0x30BF DUP2 PUSH2 0x3083 JUMP JUMPDEST SWAP1 POP SWAP2 SWAP1 POP JUMP JUMPDEST PUSH32 0x496E76616C696420416464726573732830290000000000000000000000000000 PUSH1 0x0 DUP3 ADD MSTORE POP JUMP JUMPDEST PUSH1 0x0 PUSH2 0x30FC PUSH1 0x12 DUP4 PUSH2 0x2863 JUMP JUMPDEST SWAP2 POP PUSH2 0x3107 DUP3 PUSH2 0x30C6 JUMP JUMPDEST PUSH1 0x20 DUP3 ADD SWAP1 POP SWAP2 SWAP1 POP JUMP JUMPDEST PUSH1 0x0 PUSH1 0x20 DUP3 ADD SWAP1 POP DUP2 DUP2 SUB PUSH1 0x0 DUP4 ADD MSTORE PUSH2 0x312B DUP2 PUSH2 0x30EF JUMP JUMPDEST SWAP1 POP SWAP2 SWAP1 POP JUMP JUMPDEST PUSH32 0x43616E6E6F742073656C6C204E465420746F206D7973656C6600000000000000 PUSH1 0x0 DUP3 ADD MSTORE POP JUMP JUMPDEST PUSH1 0x0 PUSH2 0x3168 PUSH1 0x19 DUP4 PUSH2 0x2863 JUMP JUMPDEST SWAP2 POP PUSH2 0x3173 DUP3 PUSH2 0x3132 JUMP JUMPDEST PUSH1 0x20 DUP3 ADD SWAP1 POP SWAP2 SWAP1 POP JUMP JUMPDEST PUSH1 0x0 PUSH1 0x20 DUP3 ADD SWAP1 POP DUP2 DUP2 SUB PUSH1 0x0 DUP4 ADD MSTORE PUSH2 0x3197 DUP2 PUSH2 0x315B JUMP JUMPDEST SWAP1 POP SWAP2 SWAP1 POP JUMP JUMPDEST PUSH32 0x43616E6E6F74207472616E73666572207468697320746F6B656E496400000000 PUSH1 0x0 DUP3 ADD MSTORE POP JUMP JUMPDEST PUSH1 0x0 PUSH2 0x31D4 PUSH1 0x1C DUP4 PUSH2 0x2863 JUMP JUMPDEST SWAP2 POP PUSH2 0x31DF DUP3 PUSH2 0x319E JUMP JUMPDEST PUSH1 0x20 DUP3 ADD SWAP1 POP SWAP2 SWAP1 POP JUMP JUMPDEST PUSH1 0x0 PUSH1 0x20 DUP3 ADD SWAP1 POP DUP2 DUP2 SUB PUSH1 0x0 DUP4 ADD MSTORE PUSH2 0x3203 DUP2 PUSH2 0x31C7 JUMP JUMPDEST SWAP1 POP SWAP2 SWAP1 POP JUMP JUMPDEST PUSH32 0x4E6F7420656E6F7567682066756E647320746F20627579207468697320617765 PUSH1 0x0 DUP3 ADD MSTORE PUSH32 0x736F6D65204E4654000000000000000000000000000000000000000000000000 PUSH1 0x20 DUP3 ADD MSTORE POP JUMP JUMPDEST PUSH1 0x0 PUSH2 0x3266 PUSH1 0x28 DUP4 PUSH2 0x2863 JUMP JUMPDEST SWAP2 POP PUSH2 0x3271 DUP3 PUSH2 0x320A JUMP JUMPDEST PUSH1 0x40 DUP3 ADD SWAP1 POP SWAP2 SWAP1 POP JUMP JUMPDEST PUSH1 0x0 PUSH1 0x20 DUP3 ADD SWAP1 POP DUP2 DUP2 SUB PUSH1 0x0 DUP4 ADD MSTORE PUSH2 0x3295 DUP2 PUSH2 0x3259 JUMP JUMPDEST SWAP1 POP SWAP2 SWAP1 POP JUMP JUMPDEST PUSH32 0x4552433732313A20696E76616C696420746F6B656E2049440000000000000000 PUSH1 0x0 DUP3 ADD MSTORE POP JUMP JUMPDEST PUSH1 0x0 PUSH2 0x32D2 PUSH1 0x18 DUP4 PUSH2 0x2863 JUMP JUMPDEST SWAP2 POP PUSH2 0x32DD DUP3 PUSH2 0x329C JUMP JUMPDEST PUSH1 0x20 DUP3 ADD SWAP1 POP SWAP2 SWAP1 POP JUMP JUMPDEST PUSH1 0x0 PUSH1 0x20 DUP3 ADD SWAP1 POP DUP2 DUP2 SUB PUSH1 0x0 DUP4 ADD MSTORE PUSH2 0x3301 DUP2 PUSH2 0x32C5 JUMP JUMPDEST SWAP1 POP SWAP2 SWAP1 POP JUMP JUMPDEST PUSH32 0x4552433732313A2061646472657373207A65726F206973206E6F742061207661 PUSH1 0x0 DUP3 ADD MSTORE PUSH32 0x6C6964206F776E65720000000000000000000000000000000000000000000000 PUSH1 0x20 DUP3 ADD MSTORE POP JUMP JUMPDEST PUSH1 0x0 PUSH2 0x3364 PUSH1 0x29 DUP4 PUSH2 0x2863 JUMP JUMPDEST SWAP2 POP PUSH2 0x336F DUP3 PUSH2 0x3308 JUMP JUMPDEST PUSH1 0x40 DUP3 ADD SWAP1 POP SWAP2 SWAP1 POP JUMP JUMPDEST PUSH1 0x0 PUSH1 0x20 DUP3 ADD SWAP1 POP DUP2 DUP2 SUB PUSH1 0x0 DUP4 ADD MSTORE PUSH2 0x3393 DUP2 PUSH2 0x3357 JUMP JUMPDEST SWAP1 POP SWAP2 SWAP1 POP JUMP JUMPDEST PUSH32 0x4E6F7420746865204E4654206F776E6572210000000000000000000000000000 PUSH1 0x0 DUP3 ADD MSTORE POP JUMP JUMPDEST PUSH1 0x0 PUSH2 0x33D0 PUSH1 0x12 DUP4 PUSH2 0x2863 JUMP JUMPDEST SWAP2 POP PUSH2 0x33DB DUP3 PUSH2 0x339A JUMP JUMPDEST PUSH1 0x20 DUP3 ADD SWAP1 POP SWAP2 SWAP1 POP JUMP JUMPDEST PUSH1 0x0 PUSH1 0x20 DUP3 ADD SWAP1 POP DUP2 DUP2 SUB PUSH1 0x0 DUP4 ADD MSTORE PUSH2 0x33FF DUP2 PUSH2 0x33C3 JUMP JUMPDEST SWAP1 POP SWAP2 SWAP1 POP JUMP JUMPDEST PUSH32 0x4E465420636F73742063616E6E6F74206265206E656761746976650000000000 PUSH1 0x0 DUP3 ADD MSTORE POP JUMP JUMPDEST PUSH1 0x0 PUSH2 0x343C PUSH1 0x1B DUP4 PUSH2 0x2863 JUMP JUMPDEST SWAP2 POP PUSH2 0x3447 DUP3 PUSH2 0x3406 JUMP JUMPDEST PUSH1 0x20 DUP3 ADD SWAP1 POP SWAP2 SWAP1 POP JUMP JUMPDEST PUSH1 0x0 PUSH1 0x20 DUP3 ADD SWAP1 POP DUP2 DUP2 SUB PUSH1 0x0 DUP4 ADD MSTORE PUSH2 0x346B DUP2 PUSH2 0x342F JUMP JUMPDEST SWAP1 POP SWAP2 SWAP1 POP JUMP JUMPDEST PUSH32 0x4E657720707269636520657175616C20746F206F6C6420707269636521000000 PUSH1 0x0 DUP3 ADD MSTORE POP JUMP JUMPDEST PUSH1 0x0 PUSH2 0x34A8 PUSH1 0x1D DUP4 PUSH2 0x2863 JUMP JUMPDEST SWAP2 POP PUSH2 0x34B3 DUP3 PUSH2 0x3472 JUMP JUMPDEST PUSH1 0x20 DUP3 ADD SWAP1 POP SWAP2 SWAP1 POP JUMP JUMPDEST PUSH1 0x0 PUSH1 0x20 DUP3 ADD SWAP1 POP DUP2 DUP2 SUB PUSH1 0x0 DUP4 ADD MSTORE PUSH2 0x34D7 DUP2 PUSH2 0x349B JUMP JUMPDEST SWAP1 POP SWAP2 SWAP1 POP JUMP JUMPDEST PUSH1 0x0 PUSH1 0x80 DUP3 ADD SWAP1 POP DUP2 DUP2 SUB PUSH1 0x0 DUP4 ADD MSTORE PUSH2 0x34F8 DUP2 DUP8 PUSH2 0x289E JUMP JUMPDEST SWAP1 POP DUP2 DUP2 SUB PUSH1 0x20 DUP4 ADD MSTORE PUSH2 0x350C DUP2 DUP7 PUSH2 0x289E JUMP JUMPDEST SWAP1 POP PUSH2 0x351B PUSH1 0x40 DUP4 ADD DUP6 PUSH2 0x2990 JUMP JUMPDEST PUSH2 0x3528 PUSH1 0x60 DUP4 ADD DUP5 PUSH2 0x2990 JUMP JUMPDEST SWAP6 SWAP5 POP POP POP POP POP JUMP JUMPDEST PUSH32 0x43617020616E6420696E697469616C20737570706C79206E6F742076616C6964 PUSH1 0x0 DUP3 ADD MSTORE POP JUMP JUMPDEST PUSH1 0x0 PUSH2 0x3567 PUSH1 0x20 DUP4 PUSH2 0x2863 JUMP JUMPDEST SWAP2 POP PUSH2 0x3572 DUP3 PUSH2 0x3531 JUMP JUMPDEST PUSH1 0x20 DUP3 ADD SWAP1 POP SWAP2 SWAP1 POP JUMP JUMPDEST PUSH1 0x0 PUSH1 0x20 DUP3 ADD SWAP1 POP DUP2 DUP2 SUB PUSH1 0x0 DUP4 ADD MSTORE PUSH2 0x3596 DUP2 PUSH2 0x355A JUMP JUMPDEST SWAP1 POP SWAP2 SWAP1 POP JUMP JUMPDEST PUSH1 0x0 PUSH1 0xA0 DUP3 ADD SWAP1 POP DUP2 DUP2 SUB PUSH1 0x0 DUP4 ADD MSTORE PUSH2 0x35B7 DUP2 DUP9 PUSH2 0x289E JUMP JUMPDEST SWAP1 POP DUP2 DUP2 SUB PUSH1 0x20 DUP4 ADD MSTORE PUSH2 0x35CB DUP2 DUP8 PUSH2 0x289E JUMP JUMPDEST SWAP1 POP PUSH2 0x35DA PUSH1 0x40 DUP4 ADD DUP7 PUSH2 0x2926 JUMP JUMPDEST PUSH2 0x35E7 PUSH1 0x60 DUP4 ADD DUP6 PUSH2 0x2990 JUMP JUMPDEST PUSH2 0x35F4 PUSH1 0x80 DUP4 ADD DUP5 PUSH2 0x2990 JUMP JUMPDEST SWAP7 SWAP6 POP POP POP POP POP POP JUMP JUMPDEST PUSH1 0x0 DUP2 MLOAD SWAP1 POP PUSH2 0x360D DUP2 PUSH2 0x24AA JUMP JUMPDEST SWAP3 SWAP2 POP POP JUMP JUMPDEST PUSH1 0x0 PUSH1 0x20 DUP3 DUP5 SUB SLT ISZERO PUSH2 0x3629 JUMPI PUSH2 0x3628 PUSH2 0x246E JUMP JUMPDEST JUMPDEST PUSH1 0x0 PUSH2 0x3637 DUP5 DUP3 DUP6 ADD PUSH2 0x35FE JUMP JUMPDEST SWAP2 POP POP SWAP3 SWAP2 POP POP JUMP JUMPDEST PUSH32 0x496E697469616C697A61626C653A20636F6E7472616374206973206E6F742069 PUSH1 0x0 DUP3 ADD MSTORE PUSH32 0x6E697469616C697A696E67000000000000000000000000000000000000000000 PUSH1 0x20 DUP3 ADD MSTORE POP JUMP JUMPDEST PUSH1 0x0 PUSH2 0x369C PUSH1 0x2B DUP4 PUSH2 0x2863 JUMP JUMPDEST SWAP2 POP PUSH2 0x36A7 DUP3 PUSH2 0x3640 JUMP JUMPDEST PUSH1 0x40 DUP3 ADD SWAP1 POP SWAP2 SWAP1 POP JUMP JUMPDEST PUSH1 0x0 PUSH1 0x20 DUP3 ADD SWAP1 POP DUP2 DUP2 SUB PUSH1 0x0 DUP4 ADD MSTORE PUSH2 0x36CB DUP2 PUSH2 0x368F JUMP JUMPDEST SWAP1 POP SWAP2 SWAP1 POP JUMP JUMPDEST PUSH32 0x4552433732313A207472616E736665722066726F6D20696E636F727265637420 PUSH1 0x0 DUP3 ADD MSTORE PUSH32 0x6F776E6572000000000000000000000000000000000000000000000000000000 PUSH1 0x20 DUP3 ADD MSTORE POP JUMP JUMPDEST PUSH1 0x0 PUSH2 0x372E PUSH1 0x25 DUP4 PUSH2 0x2863 JUMP JUMPDEST SWAP2 POP PUSH2 0x3739 DUP3 PUSH2 0x36D2 JUMP JUMPDEST PUSH1 0x40 DUP3 ADD SWAP1 POP SWAP2 SWAP1 POP JUMP JUMPDEST PUSH1 0x0 PUSH1 0x20 DUP3 ADD SWAP1 POP DUP2 DUP2 SUB PUSH1 0x0 DUP4 ADD MSTORE PUSH2 0x375D DUP2 PUSH2 0x3721 JUMP JUMPDEST SWAP1 POP SWAP2 SWAP1 POP JUMP JUMPDEST PUSH32 0x4552433732313A207472616E7366657220746F20746865207A65726F20616464 PUSH1 0x0 DUP3 ADD MSTORE PUSH32 0x7265737300000000000000000000000000000000000000000000000000000000 PUSH1 0x20 DUP3 ADD MSTORE POP JUMP JUMPDEST PUSH1 0x0 PUSH2 0x37C0 PUSH1 0x24 DUP4 PUSH2 0x2863 JUMP JUMPDEST SWAP2 POP PUSH2 0x37CB DUP3 PUSH2 0x3764 JUMP JUMPDEST PUSH1 0x40 DUP3 ADD SWAP1 POP SWAP2 SWAP1 POP JUMP JUMPDEST PUSH1 0x0 PUSH1 0x20 DUP3 ADD SWAP1 POP DUP2 DUP2 SUB PUSH1 0x0 DUP4 ADD MSTORE PUSH2 0x37EF DUP2 PUSH2 0x37B3 JUMP JUMPDEST SWAP1 POP SWAP2 SWAP1 POP JUMP JUMPDEST PUSH32 0x4552433732313A20617070726F766520746F2063616C6C657200000000000000 PUSH1 0x0 DUP3 ADD MSTORE POP JUMP JUMPDEST PUSH1 0x0 PUSH2 0x382C PUSH1 0x19 DUP4 PUSH2 0x2863 JUMP JUMPDEST SWAP2 POP PUSH2 0x3837 DUP3 PUSH2 0x37F6 JUMP JUMPDEST PUSH1 0x20 DUP3 ADD SWAP1 POP SWAP2 SWAP1 POP JUMP JUMPDEST PUSH1 0x0 PUSH1 0x20 DUP3 ADD SWAP1 POP DUP2 DUP2 SUB PUSH1 0x0 DUP4 ADD MSTORE PUSH2 0x385B DUP2 PUSH2 0x381F JUMP JUMPDEST SWAP1 POP SWAP2 SWAP1 POP JUMP JUMPDEST PUSH32 0x4552433732313A207472616E7366657220746F206E6F6E204552433732315265 PUSH1 0x0 DUP3 ADD MSTORE PUSH32 0x63656976657220696D706C656D656E7465720000000000000000000000000000 PUSH1 0x20 DUP3 ADD MSTORE POP JUMP JUMPDEST PUSH1 0x0 PUSH2 0x38BE PUSH1 0x32 DUP4 PUSH2 0x2863 JUMP JUMPDEST SWAP2 POP PUSH2 0x38C9 DUP3 PUSH2 0x3862 JUMP JUMPDEST PUSH1 0x40 DUP3 ADD SWAP1 POP SWAP2 SWAP1 POP JUMP JUMPDEST PUSH1 0x0 PUSH1 0x20 DUP3 ADD SWAP1 POP DUP2 DUP2 SUB PUSH1 0x0 DUP4 ADD MSTORE PUSH2 0x38ED DUP2 PUSH2 0x38B1 JUMP JUMPDEST SWAP1 POP SWAP2 SWAP1 POP JUMP JUMPDEST PUSH1 0x0 DUP2 SWAP1 POP SWAP3 SWAP2 POP POP JUMP JUMPDEST PUSH1 0x0 PUSH2 0x390A DUP3 PUSH2 0x2858 JUMP JUMPDEST PUSH2 0x3914 DUP2 DUP6 PUSH2 0x38F4 JUMP JUMPDEST SWAP4 POP PUSH2 0x3924 DUP2 DUP6 PUSH1 0x20 DUP7 ADD PUSH2 0x2874 JUMP JUMPDEST DUP1 DUP5 ADD SWAP2 POP POP SWAP3 SWAP2 POP POP JUMP JUMPDEST PUSH1 0x0 PUSH2 0x393C DUP3 DUP6 PUSH2 0x38FF JUMP JUMPDEST SWAP2 POP PUSH2 0x3948 DUP3 DUP5 PUSH2 0x38FF JUMP JUMPDEST SWAP2 POP DUP2 SWAP1 POP SWAP4 SWAP3 POP POP POP JUMP JUMPDEST PUSH1 0x0 DUP2 SWAP1 POP DUP2 PUSH1 0x0 MSTORE PUSH1 0x20 PUSH1 0x0 KECCAK256 SWAP1 POP SWAP2 SWAP1 POP JUMP JUMPDEST PUSH1 0x0 PUSH1 0x20 PUSH1 0x1F DUP4 ADD DIV SWAP1 POP SWAP2 SWAP1 POP JUMP JUMPDEST PUSH1 0x0 DUP3 DUP3 SHL SWAP1 POP SWAP3 SWAP2 POP POP JUMP JUMPDEST PUSH1 0x0 PUSH1 0x8 DUP4 MUL PUSH2 0x39B6 PUSH32 0xFFFFFFFFFFFFFFFFFFFFFFFFFFFFFFFFFFFFFFFFFFFFFFFFFFFFFFFFFFFFFFFF DUP3 PUSH2 0x3979 JUMP JUMPDEST PUSH2 0x39C0 DUP7 DUP4 PUSH2 0x3979 JUMP JUMPDEST SWAP6 POP DUP1 NOT DUP5 AND SWAP4 POP DUP1 DUP7 AND DUP5 OR SWAP3 POP POP POP SWAP4 SWAP3 POP POP POP JUMP JUMPDEST PUSH1 0x0 PUSH2 0x39F3 PUSH2 0x39EE PUSH2 0x39E9 DUP5 PUSH2 0x267C JUMP JUMPDEST PUSH2 0x2E5A JUMP JUMPDEST PUSH2 0x267C JUMP JUMPDEST SWAP1 POP SWAP2 SWAP1 POP JUMP JUMPDEST PUSH1 0x0 DUP2 SWAP1 POP SWAP2 SWAP1 POP JUMP JUMPDEST PUSH2 0x3A0D DUP4 PUSH2 0x39D8 JUMP JUMPDEST PUSH2 0x3A21 PUSH2 0x3A19 DUP3 PUSH2 0x39FA JUMP JUMPDEST DUP5 DUP5 SLOAD PUSH2 0x3986 JUMP JUMPDEST DUP3 SSTORE POP POP POP POP JUMP JUMPDEST PUSH1 0x0 SWAP1 JUMP JUMPDEST PUSH2 0x3A36 PUSH2 0x3A29 JUMP JUMPDEST PUSH2 0x3A41 DUP2 DUP5 DUP5 PUSH2 0x3A04 JUMP JUMPDEST POP POP POP JUMP JUMPDEST JUMPDEST DUP2 DUP2 LT ISZERO PUSH2 0x3A65 JUMPI PUSH2 0x3A5A PUSH1 0x0 DUP3 PUSH2 0x3A2E JUMP JUMPDEST PUSH1 0x1 DUP2 ADD SWAP1 POP PUSH2 0x3A47 JUMP JUMPDEST POP POP JUMP JUMPDEST PUSH1 0x1F DUP3 GT ISZERO PUSH2 0x3AAA JUMPI PUSH2 0x3A7B DUP2 PUSH2 0x3954 JUMP JUMPDEST PUSH2 0x3A84 DUP5 PUSH2 0x3969 JUMP JUMPDEST DUP2 ADD PUSH1 0x20 DUP6 LT ISZERO PUSH2 0x3A93 JUMPI DUP2 SWAP1 POP JUMPDEST PUSH2 0x3AA7 PUSH2 0x3A9F DUP6 PUSH2 0x3969 JUMP JUMPDEST DUP4 ADD DUP3 PUSH2 0x3A46 JUMP JUMPDEST POP POP JUMPDEST POP POP POP JUMP JUMPDEST PUSH1 0x0 DUP3 DUP3 SHR SWAP1 POP SWAP3 SWAP2 POP POP JUMP JUMPDEST PUSH1 0x0 PUSH2 0x3ACD PUSH1 0x0 NOT DUP5 PUSH1 0x8 MUL PUSH2 0x3AAF JUMP JUMPDEST NOT DUP1 DUP4 AND SWAP2 POP POP SWAP3 SWAP2 POP POP JUMP JUMPDEST PUSH1 0x0 PUSH2 0x3AE6 DUP4 DUP4 PUSH2 0x3ABC JUMP JUMPDEST SWAP2 POP DUP3 PUSH1 0x2 MUL DUP3 OR SWAP1 POP SWAP3 SWAP2 POP POP JUMP JUMPDEST PUSH2 0x3AFF DUP3 PUSH2 0x2858 JUMP JUMPDEST PUSH8 0xFFFFFFFFFFFFFFFF DUP2 GT ISZERO PUSH2 0x3B18 JUMPI PUSH2 0x3B17 PUSH2 0x2551 JUMP JUMPDEST JUMPDEST PUSH2 0x3B22 DUP3 SLOAD PUSH2 0x2EDF JUMP JUMPDEST PUSH2 0x3B2D DUP3 DUP3 DUP6 PUSH2 0x3A69 JUMP JUMPDEST PUSH1 0x0 PUSH1 0x20 SWAP1 POP PUSH1 0x1F DUP4 GT PUSH1 0x1 DUP2 EQ PUSH2 0x3B60 JUMPI PUSH1 0x0 DUP5 ISZERO PUSH2 0x3B4E JUMPI DUP3 DUP8 ADD MLOAD SWAP1 POP JUMPDEST PUSH2 0x3B58 DUP6 DUP3 PUSH2 0x3ADA JUMP JUMPDEST DUP7 SSTORE POP PUSH2 0x3BC0 JUMP JUMPDEST PUSH1 0x1F NOT DUP5 AND PUSH2 0x3B6E DUP7 PUSH2 0x3954 JUMP JUMPDEST PUSH1 0x0 JUMPDEST DUP3 DUP2 LT ISZERO PUSH2 0x3B96 JUMPI DUP5 DUP10 ADD MLOAD DUP3 SSTORE PUSH1 0x1 DUP3 ADD SWAP2 POP PUSH1 0x20 DUP6 ADD SWAP5 POP PUSH1 0x20 DUP2 ADD SWAP1 POP PUSH2 0x3B71 JUMP JUMPDEST DUP7 DUP4 LT ISZERO PUSH2 0x3BB3 JUMPI DUP5 DUP10 ADD MLOAD PUSH2 0x3BAF PUSH1 0x1F DUP10 AND DUP3 PUSH2 0x3ABC JUMP JUMPDEST DUP4 SSTORE POP JUMPDEST PUSH1 0x1 PUSH1 0x2 DUP9 MUL ADD DUP9 SSTORE POP POP POP JUMPDEST POP POP POP POP POP POP JUMP JUMPDEST PUSH32 0x45524337323155524953746F726167653A2055524920736574206F66206E6F6E PUSH1 0x0 DUP3 ADD MSTORE PUSH32 0x6578697374656E7420746F6B656E000000000000000000000000000000000000 PUSH1 0x20 DUP3 ADD MSTORE POP JUMP JUMPDEST PUSH1 0x0 PUSH2 0x3C24 PUSH1 0x2E DUP4 PUSH2 0x2863 JUMP JUMPDEST SWAP2 POP PUSH2 0x3C2F DUP3 PUSH2 0x3BC8 JUMP JUMPDEST PUSH1 0x40 DUP3 ADD SWAP1 POP SWAP2 SWAP1 POP JUMP JUMPDEST PUSH1 0x0 PUSH1 0x20 DUP3 ADD SWAP1 POP DUP2 DUP2 SUB PUSH1 0x0 DUP4 ADD MSTORE PUSH2 0x3C53 DUP2 PUSH2 0x3C17 JUMP JUMPDEST SWAP1 POP SWAP2 SWAP1 POP JUMP JUMPDEST PUSH1 0x0 DUP2 MLOAD SWAP1 POP SWAP2 SWAP1 POP JUMP JUMPDEST PUSH1 0x0 DUP3 DUP3 MSTORE PUSH1 0x20 DUP3 ADD SWAP1 POP SWAP3 SWAP2 POP POP JUMP JUMPDEST PUSH1 0x0 PUSH2 0x3C81 DUP3 PUSH2 0x3C5A JUMP JUMPDEST PUSH2 0x3C8B DUP2 DUP6 PUSH2 0x3C65 JUMP JUMPDEST SWAP4 POP PUSH2 0x3C9B DUP2 DUP6 PUSH1 0x20 DUP7 ADD PUSH2 0x2874 JUMP JUMPDEST PUSH2 0x3CA4 DUP2 PUSH2 0x2540 JUMP JUMPDEST DUP5 ADD SWAP2 POP POP SWAP3 SWAP2 POP POP JUMP JUMPDEST PUSH1 0x0 PUSH1 0x80 DUP3 ADD SWAP1 POP PUSH2 0x3CC4 PUSH1 0x0 DUP4 ADD DUP8 PUSH2 0x2926 JUMP JUMPDEST PUSH2 0x3CD1 PUSH1 0x20 DUP4 ADD DUP7 PUSH2 0x2926 JUMP JUMPDEST PUSH2 0x3CDE PUSH1 0x40 DUP4 ADD DUP6 PUSH2 0x2990 JUMP JUMPDEST DUP2 DUP2 SUB PUSH1 0x60 DUP4 ADD MSTORE PUSH2 0x3CF0 DUP2 DUP5 PUSH2 0x3C76 JUMP JUMPDEST SWAP1 POP SWAP6 SWAP5 POP POP POP POP POP JUMP JUMPDEST PUSH1 0x0 DUP2 MLOAD SWAP1 POP PUSH2 0x3D0A DUP2 PUSH2 0x27C9 JUMP JUMPDEST SWAP3 SWAP2 POP POP JUMP JUMPDEST PUSH1 0x0 PUSH1 0x20 DUP3 DUP5 SUB SLT ISZERO PUSH2 0x3D26 JUMPI PUSH2 0x3D25 PUSH2 0x246E JUMP JUMPDEST JUMPDEST PUSH1 0x0 PUSH2 0x3D34 DUP5 DUP3 DUP6 ADD PUSH2 0x3CFB JUMP JUMPDEST SWAP2 POP POP SWAP3 SWAP2 POP POP JUMP JUMPDEST PUSH32 0x4E487B7100000000000000000000000000000000000000000000000000000000 PUSH1 0x0 MSTORE PUSH1 0x12 PUSH1 0x4 MSTORE PUSH1 0x24 PUSH1 0x0 REVERT JUMPDEST PUSH32 0x4552433732313A206D696E7420746F20746865207A65726F2061646472657373 PUSH1 0x0 DUP3 ADD MSTORE POP JUMP JUMPDEST PUSH1 0x0 PUSH2 0x3DA2 PUSH1 0x20 DUP4 PUSH2 0x2863 JUMP JUMPDEST SWAP2 POP PUSH2 0x3DAD DUP3 PUSH2 0x3D6C JUMP JUMPDEST PUSH1 0x20 DUP3 ADD SWAP1 POP SWAP2 SWAP1 POP JUMP JUMPDEST PUSH1 0x0 PUSH1 0x20 DUP3 ADD SWAP1 POP DUP2 DUP2 SUB PUSH1 0x0 DUP4 ADD MSTORE PUSH2 0x3DD1 DUP2 PUSH2 0x3D95 JUMP JUMPDEST SWAP1 POP SWAP2 SWAP1 POP JUMP JUMPDEST PUSH32 0x4552433732313A20746F6B656E20616C7265616479206D696E74656400000000 PUSH1 0x0 DUP3 ADD MSTORE POP JUMP JUMPDEST PUSH1 0x0 PUSH2 0x3E0E PUSH1 0x1C DUP4 PUSH2 0x2863 JUMP JUMPDEST SWAP2 POP PUSH2 0x3E19 DUP3 PUSH2 0x3DD8 JUMP JUMPDEST PUSH1 0x20 DUP3 ADD SWAP1 POP SWAP2 SWAP1 POP JUMP JUMPDEST PUSH1 0x0 PUSH1 0x20 DUP3 ADD SWAP1 POP DUP2 DUP2 SUB PUSH1 0x0 DUP4 ADD MSTORE PUSH2 0x3E3D DUP2 PUSH2 0x3E01 JUMP JUMPDEST SWAP1 POP SWAP2 SWAP1 POP JUMP INVALID LOG2 PUSH5 0x6970667358 0x22 SLT KECCAK256 0xB9 0xCB 0xBB PUSH31 0xA9A71CDA16998E5358816230A9F719D309F6BE9E71F2835C74CD06C664736F PUSH13 0x63430008120033000000000000 "},"methodIdentifiers":{"approve(address,uint256)":"095ea7b3","balanceOf(address)":"70a08231","buyNFT(uint256)":"51ed8288","createDataToken(string,string,uint256,uint256)":"b0c5a7e5","getApproved(uint256)":"081812fc","getNFTname()":"3d38edac","getNFTowner()":"5245f3bd","getNFTprice()":"1ff95da9","getNFTsymbol()":"de9fdebe","initialize(address,string,string,address,string,uint256)":"01eaaea2","isApprovedForAll(address,address)":"e985e9c5","name()":"06fdde03","ownerOf(uint256)":"6352211e","safeTransferFrom(address,address,uint256)":"42842e0e","safeTransferFrom(address,address,uint256,bytes)":"b88d4fde","setApprovalForAll(address,bool)":"a22cb465","setPrice(uint256)":"91b7f5ed","supportsInterface(bytes4)":"01ffc9a7","symbol()":"95d89b41","tokenURI(uint256)":"c87b56dd","transferFrom(address,address,uint256)":"23b872dd"}}}}}