{"contracts/ERC20Base.sol":{"ERC20Base":{"abi":[{"anonymous":false,"inputs":[{"indexed":true,"internalType":"address","name":"owner","type":"address"},{"indexed":true,"internalType":"address","name":"spender","type":"address"},{"indexed":false,"internalType":"uint256","name":"value","type":"uint256"}],"name":"Approval","type":"event"},{"anonymous":false,"inputs":[{"indexed":false,"internalType":"bytes32","name":"exchangeID","type":"bytes32"},{"indexed":false,"internalType":"address","name":"owner","type":"address"},{"indexed":false,"internalType":"address","name":"fixedRateAddress","type":"address"}],"name":"FixedRateCreated","type":"event"},{"anonymous":false,"inputs":[{"indexed":false,"internalType":"uint8","name":"version","type":"uint8"}],"name":"Initialized","type":"event"},{"anonymous":false,"inputs":[{"indexed":false,"internalType":"string","name":"name","type":"string"},{"indexed":false,"internalType":"string","name":"symbol","type":"string"},{"indexed":false,"internalType":"address","name":"owner","type":"address"},{"indexed":false,"internalType":"address","name":"erc721address","type":"address"},{"indexed":false,"internalType":"address","name":"router","type":"address"}],"name":"InitializedDT","type":"event"},{"anonymous":false,"inputs":[{"indexed":false,"internalType":"address","name":"recoveredAddress","type":"address"},{"indexed":false,"internalType":"address","name":"owner","type":"address"},{"indexed":false,"internalType":"address","name":"spender","type":"address"},{"indexed":false,"internalType":"uint256","name":"amount","type":"uint256"}],"name":"Permit","type":"event"},{"anonymous":false,"inputs":[{"indexed":false,"internalType":"bytes32","name":"domain_separator","type":"bytes32"},{"indexed":false,"internalType":"bytes32","name":"permit_gasg","type":"bytes32"},{"indexed":false,"internalType":"bytes32","name":"digest","type":"bytes32"}],"name":"PermitData","type":"event"},{"anonymous":false,"inputs":[{"indexed":true,"internalType":"address","name":"from","type":"address"},{"indexed":true,"internalType":"address","name":"to","type":"address"},{"indexed":false,"internalType":"uint256","name":"value","type":"uint256"}],"name":"Transfer","type":"event"},{"stateMutability":"payable","type":"fallback"},{"inputs":[{"internalType":"address","name":"owner","type":"address"},{"internalType":"address","name":"spender","type":"address"}],"name":"allowance","outputs":[{"internalType":"uint256","name":"","type":"uint256"}],"stateMutability":"view","type":"function"},{"inputs":[{"internalType":"address","name":"spender","type":"address"},{"internalType":"uint256","name":"amount","type":"uint256"}],"name":"approve","outputs":[{"internalType":"bool","name":"","type":"bool"}],"stateMutability":"nonpayable","type":"function"},{"inputs":[{"internalType":"address","name":"caller","type":"address"}],"name":"balanceOf","outputs":[{"internalType":"uint256","name":"","type":"uint256"}],"stateMutability":"view","type":"function"},{"inputs":[{"internalType":"uint256","name":"amount","type":"uint256"}],"name":"burn","outputs":[],"stateMutability":"nonpayable","type":"function"},{"inputs":[{"internalType":"address","name":"fixedRateAddress_","type":"address"},{"internalType":"uint256","name":"fixedrate_","type":"uint256"},{"internalType":"uint256","name":"giveMintPerm_toExchange","type":"uint256"}],"name":"createFixedRate","outputs":[{"internalType":"bytes32","name":"exchangeID","type":"bytes32"}],"stateMutability":"nonpayable","type":"function"},{"inputs":[],"name":"decimals","outputs":[{"internalType":"uint8","name":"","type":"uint8"}],"stateMutability":"view","type":"function"},{"inputs":[{"internalType":"address","name":"spender","type":"address"},{"internalType":"uint256","name":"subtractedValue","type":"uint256"}],"name":"decreaseAllowance","outputs":[{"internalType":"bool","name":"","type":"bool"}],"stateMutability":"nonpayable","type":"function"},{"inputs":[],"name":"getDTowner","outputs":[{"internalType":"address","name":"","type":"address"}],"stateMutability":"view","type":"function"},{"inputs":[],"name":"getMaxSupply","outputs":[{"internalType":"uint256","name":"","type":"uint256"}],"stateMutability":"view","type":"function"},{"inputs":[{"internalType":"address","name":"spender","type":"address"},{"internalType":"uint256","name":"addedValue","type":"uint256"}],"name":"increaseAllowance","outputs":[{"internalType":"bool","name":"","type":"bool"}],"stateMutability":"nonpayable","type":"function"},{"inputs":[{"internalType":"string","name":"name_","type":"string"},{"internalType":"string","name":"symbol_","type":"string"},{"internalType":"address","name":"owner_","type":"address"},{"internalType":"address","name":"erc721address_","type":"address"},{"internalType":"address","name":"router_","type":"address"},{"internalType":"uint256","name":"maxSupply_","type":"uint256"}],"name":"initialize","outputs":[{"internalType":"bool","name":"","type":"bool"}],"stateMutability":"nonpayable","type":"function"},{"inputs":[{"internalType":"address","name":"isminter","type":"address"}],"name":"isMinter","outputs":[{"internalType":"bool","name":"","type":"bool"}],"stateMutability":"view","type":"function"},{"inputs":[{"internalType":"address","name":"to","type":"address"},{"internalType":"uint256","name":"amount","type":"uint256"}],"name":"mint","outputs":[],"stateMutability":"nonpayable","type":"function"},{"inputs":[],"name":"name","outputs":[{"internalType":"string","name":"","type":"string"}],"stateMutability":"view","type":"function"},{"inputs":[{"internalType":"address","name":"requester","type":"address"}],"name":"nonces","outputs":[{"internalType":"uint256","name":"","type":"uint256"}],"stateMutability":"view","type":"function"},{"inputs":[{"internalType":"address","name":"","type":"address"}],"name":"nonces_","outputs":[{"internalType":"uint256","name":"","type":"uint256"}],"stateMutability":"view","type":"function"},{"inputs":[{"internalType":"address","name":"owner","type":"address"},{"internalType":"address","name":"spender","type":"address"},{"internalType":"uint256","name":"value","type":"uint256"},{"internalType":"uint256","name":"deadline","type":"uint256"},{"internalType":"uint8","name":"v","type":"uint8"},{"internalType":"bytes32","name":"r","type":"bytes32"},{"internalType":"bytes32","name":"s","type":"bytes32"}],"name":"permit","outputs":[],"stateMutability":"nonpayable","type":"function"},{"inputs":[],"name":"symbol","outputs":[{"internalType":"string","name":"","type":"string"}],"stateMutability":"view","type":"function"},{"inputs":[],"name":"totalSupply","outputs":[{"internalType":"uint256","name":"","type":"uint256"}],"stateMutability":"view","type":"function"},{"inputs":[{"internalType":"address","name":"to","type":"address"},{"internalType":"uint256","name":"amount","type":"uint256"}],"name":"transfer","outputs":[{"internalType":"bool","name":"","type":"bool"}],"stateMutability":"nonpayable","type":"function"},{"inputs":[{"internalType":"address","name":"from","type":"address"},{"internalType":"address","name":"to","type":"address"},{"internalType":"uint256","name":"amount","type":"uint256"}],"name":"transferFrom","outputs":[{"internalType":"bool","name":"","type":"bool"}],"stateMutability":"nonpayable","type":"function"},{"inputs":[],"name":"withdraw","outputs":[],"stateMutability":"nonpayable","type":"function"},{"stateMutability":"payable","type":"receive"}],"evm":{"bytecode":{"linkReferences":{},"object":"608060405234801561001057600080fd5b50613f64806100206000396000f3fe6080604052600436106101395760003560e01c806370a08231116100ab578063a9059cbb1161006f578063a9059cbb1461046a578063aa271e1a146104a7578063b91fad93146104e4578063d505accf1461050f578063dd62ed3e14610538578063edf3e29e1461057557610140565b806370a082311461034b57806373c84f74146103885780637ecebe00146103c557806395d89b4114610402578063a457c2d71461042d57610140565b8063313ce567116100fd578063313ce5671461024f578063395093511461027a5780633ccfd60b146102b757806340c10f19146102ce57806342966c68146102f75780634c0f38c21461032057610140565b806306fdde0314610142578063095ea7b31461016d57806318160ddd146101aa57806323b872dd146101d5578063276afcae1461021257610140565b3661014057005b005b34801561014e57600080fd5b506101576105b2565b60405161016491906123e2565b60405180910390f35b34801561017957600080fd5b50610194600480360381019061018f91906124ac565b610644565b6040516101a19190612507565b60405180910390f35b3480156101b657600080fd5b506101bf610667565b6040516101cc9190612531565b60405180910390f35b3480156101e157600080fd5b506101fc60048036038101906101f7919061254c565b610671565b6040516102099190612507565b60405180910390f35b34801561021e57600080fd5b506102396004803603810190610234919061259f565b610687565b604051610246919061260b565b60405180910390f35b34801561025b57600080fd5b506102646108d4565b6040516102719190612642565b60405180910390f35b34801561028657600080fd5b506102a1600480360381019061029c91906124ac565b6108dd565b6040516102ae9190612507565b60405180910390f35b3480156102c357600080fd5b506102cc610914565b005b3480156102da57600080fd5b506102f560048036038101906102f091906124ac565b610a60565b005b34801561030357600080fd5b5061031e6004803603810190610319919061265d565b610b6c565b005b34801561032c57600080fd5b50610335610c09565b6040516103429190612531565b60405180910390f35b34801561035757600080fd5b50610372600480360381019061036d919061268a565b610c13565b60405161037f9190612531565b60405180910390f35b34801561039457600080fd5b506103af60048036038101906103aa919061268a565b610c25565b6040516103bc9190612531565b60405180910390f35b3480156103d157600080fd5b506103ec60048036038101906103e7919061268a565b610c3d565b6040516103f99190612531565b60405180910390f35b34801561040e57600080fd5b50610417610c86565b60405161042491906123e2565b60405180910390f35b34801561043957600080fd5b50610454600480360381019061044f91906124ac565b610d18565b6040516104619190612507565b60405180910390f35b34801561047657600080fd5b50610491600480360381019061048c91906124ac565b610d8f565b60405161049e9190612507565b60405180910390f35b3480156104b357600080fd5b506104ce60048036038101906104c9919061268a565b610db2565b6040516104db9190612507565b60405180910390f35b3480156104f057600080fd5b506104f9610dc4565b60405161050691906126c6565b60405180910390f35b34801561051b57600080fd5b5061053660048036038101906105319190612739565b610dee565b005b34801561054457600080fd5b5061055f600480360381019061055a91906127db565b61127a565b60405161056c9190612531565b60405180910390f35b34801561058157600080fd5b5061059c60048036038101906105979190612950565b611301565b6040516105a99190612507565b60405180910390f35b6060603680546105c190612a44565b80601f01602080910402602001604051908101604052809291908181526020018280546105ed90612a44565b801561063a5780601f1061060f5761010080835404028352916020019161063a565b820191906000526020600020905b81548152906001019060200180831161061d57829003601f168201915b5050505050905090565b60008061064f61186f565b905061065c818585611877565b600191505092915050565b6000603554905090565b600061067e848484611a40565b90509392505050565b6000606660009054906101000a900473ffffffffffffffffffffffffffffffffffffffff1673ffffffffffffffffffffffffffffffffffffffff163373ffffffffffffffffffffffffffffffffffffffff16146106e357600080fd5b60008211156106f6576106f584611a6f565b5b606760009054906101000a900473ffffffffffffffffffffffffffffffffffffffff1673ffffffffffffffffffffffffffffffffffffffff166346ab8f0f85606660009054906101000a900473ffffffffffffffffffffffffffffffffffffffff16866107616108d4565b876040518663ffffffff1660e01b8152600401610782959493929190612ab0565b6020604051808303816000875af11580156107a1573d6000803e3d6000fd5b505050506040513d601f19601f820116820180604052508101906107c59190612b18565b90507fa5415cb405d73f33b4e7cf3e0d085db931472bb48e0423947ad575a31fa2f51e81606660009054906101000a900473ffffffffffffffffffffffffffffffffffffffff168660405161081c93929190612b45565b60405180910390a1606b60405180604001604052808673ffffffffffffffffffffffffffffffffffffffff16815260200183815250908060018154018082558091505060019003906000526020600020906002020160009091909190915060008201518160000160006101000a81548173ffffffffffffffffffffffffffffffffffffffff021916908373ffffffffffffffffffffffffffffffffffffffff1602179055506020820151816001015550509392505050565b60006012905090565b6000806108e861186f565b90506109098185856108fa858961127a565b6109049190612bab565b611877565b600191505092915050565b606660009054906101000a900473ffffffffffffffffffffffffffffffffffffffff1673ffffffffffffffffffffffffffffffffffffffff163373ffffffffffffffffffffffffffffffffffffffff161461096e57600080fd5b600047116109b1576040517f08c379a00000000000000000000000000000000000000000000000000000000081526004016109a890612c2b565b60405180910390fd5b60003373ffffffffffffffffffffffffffffffffffffffff16476040516109d790612c7c565b60006040518083038185875af1925050503d8060008114610a14576040519150601f19603f3d011682016040523d82523d6000602084013e610a19565b606091505b5050905080610a5d576040517f08c379a0000000000000000000000000000000000000000000000000000000008152600401610a5490612cdd565b60405180910390fd5b50565b606660009054906101000a900473ffffffffffffffffffffffffffffffffffffffff1673ffffffffffffffffffffffffffffffffffffffff163373ffffffffffffffffffffffffffffffffffffffff161480610ac15750610ac033611aca565b5b610b00576040517f08c379a0000000000000000000000000000000000000000000000000000000008152600401610af790612d49565b60405180910390fd5b606854610b1d82610b0f610667565b611b2090919063ffffffff16565b1115610b5e576040517f08c379a0000000000000000000000000000000000000000000000000000000008152600401610b5590612db5565b60405180910390fd5b610b688282611b36565b5050565b606660009054906101000a900473ffffffffffffffffffffffffffffffffffffffff1673ffffffffffffffffffffffffffffffffffffffff163373ffffffffffffffffffffffffffffffffffffffff1614610bfc576040517f08c379a0000000000000000000000000000000000000000000000000000000008152600401610bf390612e21565b60405180910390fd5b610c063382611c8d565b50565b6000606854905090565b6000610c1e82611e5c565b9050919050565b606a6020528060005260406000206000915090505481565b6000606a60008373ffffffffffffffffffffffffffffffffffffffff1673ffffffffffffffffffffffffffffffffffffffff168152602001908152602001600020549050919050565b606060378054610c9590612a44565b80601f0160208091040260200160405190810160405280929190818152602001828054610cc190612a44565b8015610d0e5780601f10610ce357610100808354040283529160200191610d0e565b820191906000526020600020905b815481529060010190602001808311610cf157829003601f168201915b5050505050905090565b600080610d2361186f565b90506000610d31828661127a565b905083811015610d76576040517f08c379a0000000000000000000000000000000000000000000000000000000008152600401610d6d90612eb3565b60405180910390fd5b610d838286868403611877565b60019250505092915050565b600080610d9a61186f565b9050610da7818585611ea5565b600191505092915050565b6000610dbd82611aca565b9050919050565b6000606660009054906101000a900473ffffffffffffffffffffffffffffffffffffffff16905090565b43841015610e31576040517f08c379a0000000000000000000000000000000000000000000000000000000008152600401610e2890612f1f565b60405180910390fd5b606560009054906101000a900473ffffffffffffffffffffffffffffffffffffffff1673ffffffffffffffffffffffffffffffffffffffff16635245f3bd6040518163ffffffff1660e01b8152600401602060405180830381865afa158015610e9e573d6000803e3d6000fd5b505050506040513d601f19601f82011682018060405250810190610ec29190612f54565b73ffffffffffffffffffffffffffffffffffffffff168773ffffffffffffffffffffffffffffffffffffffff1614610f2f576040517f08c379a0000000000000000000000000000000000000000000000000000000008152600401610f2690612fcd565b60405180910390fd5b60008511610f72576040517f08c379a0000000000000000000000000000000000000000000000000000000008152600401610f6990613039565b60405180910390fd5b6000606a60008973ffffffffffffffffffffffffffffffffffffffff1673ffffffffffffffffffffffffffffffffffffffff1681526020019081526020016000205490506000610fc061211e565b905060007f6e71edae12b1b97f4d1f60370fef10105fa2faae0126114a169c64845d6126c98a8a8a868b604051602001610fff96959493929190613059565b6040516020818303038152906040528051906020012090506000828260405160200161102c929190613132565b6040516020818303038152906040528051906020012090506001606a60008d73ffffffffffffffffffffffffffffffffffffffff1673ffffffffffffffffffffffffffffffffffffffff16815260200190815260200160002060008282546110949190612bab565b925050819055506001846110a89190612bab565b606a60008d73ffffffffffffffffffffffffffffffffffffffff1673ffffffffffffffffffffffffffffffffffffffff1681526020019081526020016000205414611128576040517f08c379a000000000000000000000000000000000000000000000000000000000815260040161111f906131db565b60405180910390fd5b60006001828989896040516000815260200160405260405161114d94939291906131fb565b6020604051602081039080840390855afa15801561116f573d6000803e3d6000fd5b5050506020604051035190508b73ffffffffffffffffffffffffffffffffffffffff168173ffffffffffffffffffffffffffffffffffffffff16146111e9576040517f08c379a00000000000000000000000000000000000000000000000000000000081526004016111e0906132b2565b60405180910390fd5b7f2581d87b6bf92e55acc084919bd802bffec94ecd89b97547f0c868f7247f2044818d8d8d60405161121e94939291906132d2565b60405180910390a17f1d532894f4a91efabd8760a33513b6dffbeeb81351269a70d1c35c540caa5c8a84848460405161125993929190613317565b60405180910390a161126c8c8c8c611877565b505050505050505050505050565b6000603460008473ffffffffffffffffffffffffffffffffffffffff1673ffffffffffffffffffffffffffffffffffffffff16815260200190815260200160002060008373ffffffffffffffffffffffffffffffffffffffff1673ffffffffffffffffffffffffffffffffffffffff16815260200190815260200160002054905092915050565b600080600060019054906101000a900460ff161590508080156113345750600160008054906101000a900460ff1660ff16105b806113615750611343306121c9565b1580156113605750600160008054906101000a900460ff1660ff16145b5b6113a0576040517f08c379a0000000000000000000000000000000000000000000000000000000008152600401611397906133c0565b60405180910390fd5b60016000806101000a81548160ff021916908360ff16021790555080156113dd576001600060016101000a81548160ff0219169083151502179055505b600073ffffffffffffffffffffffffffffffffffffffff168673ffffffffffffffffffffffffffffffffffffffff160361144c576040517f08c379a00000000000000000000000000000000000000000000000000000000081526004016114439061342c565b60405180910390fd5b8473ffffffffffffffffffffffffffffffffffffffff16635245f3bd6040518163ffffffff1660e01b8152600401602060405180830381865afa158015611497573d6000803e3d6000fd5b505050506040513d601f19601f820116820180604052508101906114bb9190612f54565b73ffffffffffffffffffffffffffffffffffffffff168673ffffffffffffffffffffffffffffffffffffffff1614611528576040517f08c379a000000000000000000000000000000000000000000000000000000000815260040161151f90613498565b60405180910390fd5b600073ffffffffffffffffffffffffffffffffffffffff168573ffffffffffffffffffffffffffffffffffffffff1603611597576040517f08c379a000000000000000000000000000000000000000000000000000000000815260040161158e9061352a565b60405180910390fd5b600073ffffffffffffffffffffffffffffffffffffffff168473ffffffffffffffffffffffffffffffffffffffff1603611606576040517f08c379a00000000000000000000000000000000000000000000000000000000081526004016115fd906135bc565b60405180910390fd5b60008311611649576040517f08c379a000000000000000000000000000000000000000000000000000000000815260040161164090613628565b60405180910390fd5b61165388886121ec565b84606560006101000a81548173ffffffffffffffffffffffffffffffffffffffff021916908373ffffffffffffffffffffffffffffffffffffffff16021790555085606660006101000a81548173ffffffffffffffffffffffffffffffffffffffff021916908373ffffffffffffffffffffffffffffffffffffffff16021790555083606760006101000a81548173ffffffffffffffffffffffffffffffffffffffff021916908373ffffffffffffffffffffffffffffffffffffffff160217905550826068819055506000606a6000606660009054906101000a900473ffffffffffffffffffffffffffffffffffffffff1673ffffffffffffffffffffffffffffffffffffffff1673ffffffffffffffffffffffffffffffffffffffff168152602001908152602001600020819055507fe05608333682ec730412d68c753da81c47ae10d62539bb241e9e882dca8311d7888888606560009054906101000a900473ffffffffffffffffffffffffffffffffffffffff16606760009054906101000a900473ffffffffffffffffffffffffffffffffffffffff166040516117ff959493929190613648565b60405180910390a16001915080156118645760008060016101000a81548160ff0219169083151502179055507f7f26b83ff96e1f2b6a682f133852f6798a09c465da95921460cefb3847402498600160405161185b91906136e4565b60405180910390a15b509695505050505050565b600033905090565b600073ffffffffffffffffffffffffffffffffffffffff168373ffffffffffffffffffffffffffffffffffffffff16036118e6576040517f08c379a00000000000000000000000000000000000000000000000000000000081526004016118dd90613771565b60405180910390fd5b600073ffffffffffffffffffffffffffffffffffffffff168273ffffffffffffffffffffffffffffffffffffffff1603611955576040517f08c379a000000000000000000000000000000000000000000000000000000000815260040161194c90613803565b60405180910390fd5b80603460008573ffffffffffffffffffffffffffffffffffffffff1673ffffffffffffffffffffffffffffffffffffffff16815260200190815260200160002060008473ffffffffffffffffffffffffffffffffffffffff1673ffffffffffffffffffffffffffffffffffffffff168152602001908152602001600020819055508173ffffffffffffffffffffffffffffffffffffffff168373ffffffffffffffffffffffffffffffffffffffff167f8c5be1e5ebec7d5bd14f71427d1e84f3dd0314c0f7b2291e5b200ac8c7c3b92583604051611a339190612531565b60405180910390a3505050565b600080611a4b61186f565b9050611a58858285612249565b611a63858585611ea5565b60019150509392505050565b6001606960008373ffffffffffffffffffffffffffffffffffffffff1673ffffffffffffffffffffffffffffffffffffffff16815260200190815260200160002060006101000a81548160ff02191690831515021790555050565b6000606960008373ffffffffffffffffffffffffffffffffffffffff1673ffffffffffffffffffffffffffffffffffffffff16815260200190815260200160002060009054906101000a900460ff169050919050565b60008183611b2e9190612bab565b905092915050565b600073ffffffffffffffffffffffffffffffffffffffff168273ffffffffffffffffffffffffffffffffffffffff1603611ba5576040517f08c379a0000000000000000000000000000000000000000000000000000000008152600401611b9c9061386f565b60405180910390fd5b611bb1600083836122d5565b8060356000828254611bc39190612bab565b9250508190555080603360008473ffffffffffffffffffffffffffffffffffffffff1673ffffffffffffffffffffffffffffffffffffffff168152602001908152602001600020600082825401925050819055508173ffffffffffffffffffffffffffffffffffffffff16600073ffffffffffffffffffffffffffffffffffffffff167fddf252ad1be2c89b69c2b068fc378daa952ba7f163c4a11628f55a4df523b3ef83604051611c759190612531565b60405180910390a3611c89600083836122da565b5050565b600073ffffffffffffffffffffffffffffffffffffffff168273ffffffffffffffffffffffffffffffffffffffff1603611cfc576040517f08c379a0000000000000000000000000000000000000000000000000000000008152600401611cf390613901565b60405180910390fd5b611d08826000836122d5565b6000603360008473ffffffffffffffffffffffffffffffffffffffff1673ffffffffffffffffffffffffffffffffffffffff16815260200190815260200160002054905081811015611d8f576040517f08c379a0000000000000000000000000000000000000000000000000000000008152600401611d8690613993565b60405180910390fd5b818103603360008573ffffffffffffffffffffffffffffffffffffffff1673ffffffffffffffffffffffffffffffffffffffff1681526020019081526020016000208190555081603560008282540392505081905550600073ffffffffffffffffffffffffffffffffffffffff168373ffffffffffffffffffffffffffffffffffffffff167fddf252ad1be2c89b69c2b068fc378daa952ba7f163c4a11628f55a4df523b3ef84604051611e439190612531565b60405180910390a3611e57836000846122da565b505050565b6000603360008373ffffffffffffffffffffffffffffffffffffffff1673ffffffffffffffffffffffffffffffffffffffff168152602001908152602001600020549050919050565b600073ffffffffffffffffffffffffffffffffffffffff168373ffffffffffffffffffffffffffffffffffffffff1603611f14576040517f08c379a0000000000000000000000000000000000000000000000000000000008152600401611f0b90613a25565b60405180910390fd5b600073ffffffffffffffffffffffffffffffffffffffff168273ffffffffffffffffffffffffffffffffffffffff1603611f83576040517f08c379a0000000000000000000000000000000000000000000000000000000008152600401611f7a90613ab7565b60405180910390fd5b611f8e8383836122d5565b6000603360008573ffffffffffffffffffffffffffffffffffffffff1673ffffffffffffffffffffffffffffffffffffffff16815260200190815260200160002054905081811015612015576040517f08c379a000000000000000000000000000000000000000000000000000000000815260040161200c90613b49565b60405180910390fd5b818103603360008673ffffffffffffffffffffffffffffffffffffffff1673ffffffffffffffffffffffffffffffffffffffff1681526020019081526020016000208190555081603360008573ffffffffffffffffffffffffffffffffffffffff1673ffffffffffffffffffffffffffffffffffffffff168152602001908152602001600020600082825401925050819055508273ffffffffffffffffffffffffffffffffffffffff168473ffffffffffffffffffffffffffffffffffffffff167fddf252ad1be2c89b69c2b068fc378daa952ba7f163c4a11628f55a4df523b3ef846040516121059190612531565b60405180910390a36121188484846122da565b50505050565b60008046905060007f8b73c3c69bb8fe3d512ecc4cf759cc79239f7b179b0ffacaa9a75d522b39400f61214f6105b2565b805190602001206040518060400160405280600181526020017f31000000000000000000000000000000000000000000000000000000000000008152508051906020012084306040516020016121a9959493929190613b69565b604051602081830303815290604052805190602001209050809250505090565b6000808273ffffffffffffffffffffffffffffffffffffffff163b119050919050565b600060019054906101000a900460ff1661223b576040517f08c379a000000000000000000000000000000000000000000000000000000000815260040161223290613c2e565b60405180910390fd5b61224582826122df565b5050565b6000612255848461127a565b90507fffffffffffffffffffffffffffffffffffffffffffffffffffffffffffffffff81146122cf57818110156122c1576040517f08c379a00000000000000000000000000000000000000000000000000000000081526004016122b890613c9a565b60405180910390fd5b6122ce8484848403611877565b5b50505050565b505050565b505050565b600060019054906101000a900460ff1661232e576040517f08c379a000000000000000000000000000000000000000000000000000000000815260040161232590613c2e565b60405180910390fd5b816036908161233d9190613e5c565b50806037908161234d9190613e5c565b505050565b600081519050919050565b600082825260208201905092915050565b60005b8381101561238c578082015181840152602081019050612371565b60008484015250505050565b6000601f19601f8301169050919050565b60006123b482612352565b6123be818561235d565b93506123ce81856020860161236e565b6123d781612398565b840191505092915050565b600060208201905081810360008301526123fc81846123a9565b905092915050565b6000604051905090565b600080fd5b600080fd5b600073ffffffffffffffffffffffffffffffffffffffff82169050919050565b600061244382612418565b9050919050565b61245381612438565b811461245e57600080fd5b50565b6000813590506124708161244a565b92915050565b6000819050919050565b61248981612476565b811461249457600080fd5b50565b6000813590506124a681612480565b92915050565b600080604083850312156124c3576124c261240e565b5b60006124d185828601612461565b92505060206124e285828601612497565b9150509250929050565b60008115159050919050565b612501816124ec565b82525050565b600060208201905061251c60008301846124f8565b92915050565b61252b81612476565b82525050565b60006020820190506125466000830184612522565b92915050565b6000806000606084860312156125655761256461240e565b5b600061257386828701612461565b935050602061258486828701612461565b925050604061259586828701612497565b9150509250925092565b6000806000606084860312156125b8576125b761240e565b5b60006125c686828701612461565b93505060206125d786828701612497565b92505060406125e886828701612497565b9150509250925092565b6000819050919050565b612605816125f2565b82525050565b600060208201905061262060008301846125fc565b92915050565b600060ff82169050919050565b61263c81612626565b82525050565b60006020820190506126576000830184612633565b92915050565b6000602082840312156126735761267261240e565b5b600061268184828501612497565b91505092915050565b6000602082840312156126a05761269f61240e565b5b60006126ae84828501612461565b91505092915050565b6126c081612438565b82525050565b60006020820190506126db60008301846126b7565b92915050565b6126ea81612626565b81146126f557600080fd5b50565b600081359050612707816126e1565b92915050565b612716816125f2565b811461272157600080fd5b50565b6000813590506127338161270d565b92915050565b600080600080600080600060e0888a0312156127585761275761240e565b5b60006127668a828b01612461565b97505060206127778a828b01612461565b96505060406127888a828b01612497565b95505060606127998a828b01612497565b94505060806127aa8a828b016126f8565b93505060a06127bb8a828b01612724565b92505060c06127cc8a828b01612724565b91505092959891949750929550565b600080604083850312156127f2576127f161240e565b5b600061280085828601612461565b925050602061281185828601612461565b9150509250929050565b600080fd5b600080fd5b7f4e487b7100000000000000000000000000000000000000000000000000000000600052604160045260246000fd5b61285d82612398565b810181811067ffffffffffffffff8211171561287c5761287b612825565b5b80604052505050565b600061288f612404565b905061289b8282612854565b919050565b600067ffffffffffffffff8211156128bb576128ba612825565b5b6128c482612398565b9050602081019050919050565b82818337600083830152505050565b60006128f36128ee846128a0565b612885565b90508281526020810184848401111561290f5761290e612820565b5b61291a8482856128d1565b509392505050565b600082601f8301126129375761293661281b565b5b81356129478482602086016128e0565b91505092915050565b60008060008060008060c0878903121561296d5761296c61240e565b5b600087013567ffffffffffffffff81111561298b5761298a612413565b5b61299789828a01612922565b965050602087013567ffffffffffffffff8111156129b8576129b7612413565b5b6129c489828a01612922565b95505060406129d589828a01612461565b94505060606129e689828a01612461565b93505060806129f789828a01612461565b92505060a0612a0889828a01612497565b9150509295509295509295565b7f4e487b7100000000000000000000000000000000000000000000000000000000600052602260045260246000fd5b60006002820490506001821680612a5c57607f821691505b602082108103612a6f57612a6e612a15565b5b50919050565b6000819050919050565b6000612a9a612a95612a9084612626565b612a75565b612476565b9050919050565b612aaa81612a7f565b82525050565b600060a082019050612ac560008301886126b7565b612ad260208301876126b7565b612adf6040830186612522565b612aec6060830185612aa1565b612af96080830184612522565b9695505050505050565b600081519050612b128161270d565b92915050565b600060208284031215612b2e57612b2d61240e565b5b6000612b3c84828501612b03565b91505092915050565b6000606082019050612b5a60008301866125fc565b612b6760208301856126b7565b612b7460408301846126b7565b949350505050565b7f4e487b7100000000000000000000000000000000000000000000000000000000600052601160045260246000fd5b6000612bb682612476565b9150612bc183612476565b9250828201905080821115612bd957612bd8612b7c565b5b92915050565b7f4e6f2062616c616e636520746f20776974686472617700000000000000000000600082015250565b6000612c1560168361235d565b9150612c2082612bdf565b602082019050919050565b60006020820190508181036000830152612c4481612c08565b9050919050565b600081905092915050565b50565b6000612c66600083612c4b565b9150612c7182612c56565b600082019050919050565b6000612c8782612c59565b9150819050919050565b7f4661696c656420746f2077697468647261770000000000000000000000000000600082015250565b6000612cc760128361235d565b9150612cd282612c91565b602082019050919050565b60006020820190508181036000830152612cf681612cba565b9050919050565b7f4e4f5420414c4c4f57454420544f204d494e5420445473000000000000000000600082015250565b6000612d3360178361235d565b9150612d3e82612cfd565b602082019050919050565b60006020820190508181036000830152612d6281612d26565b9050919050565b7f43616e6e6f742065786365656420746865206361700000000000000000000000600082015250565b6000612d9f60158361235d565b9150612daa82612d69565b602082019050919050565b60006020820190508181036000830152612dce81612d92565b9050919050565b7f4e4f5420414c4c4f57454420544f204255524e00000000000000000000000000600082015250565b6000612e0b60138361235d565b9150612e1682612dd5565b602082019050919050565b60006020820190508181036000830152612e3a81612dfe565b9050919050565b7f45524332303a2064656372656173656420616c6c6f77616e63652062656c6f7760008201527f207a65726f000000000000000000000000000000000000000000000000000000602082015250565b6000612e9d60258361235d565b9150612ea882612e41565b604082019050919050565b60006020820190508181036000830152612ecc81612e90565b9050919050565b7f4552433230445420455850495245440000000000000000000000000000000000600082015250565b6000612f09600f8361235d565b9150612f1482612ed3565b602082019050919050565b60006020820190508181036000830152612f3881612efc565b9050919050565b600081519050612f4e8161244a565b92915050565b600060208284031215612f6a57612f6961240e565b5b6000612f7884828501612f3f565b91505092915050565b7f4f776e6572206e6f7420746865204e4654206f776e6572000000000000000000600082015250565b6000612fb760178361235d565b9150612fc282612f81565b602082019050919050565b60006020820190508181036000830152612fe681612faa565b9050919050565b7f43616e6e6f74207065726d697420302076616c75650000000000000000000000600082015250565b600061302360158361235d565b915061302e82612fed565b602082019050919050565b6000602082019050818103600083015261305281613016565b9050919050565b600060c08201905061306e60008301896125fc565b61307b60208301886126b7565b61308860408301876126b7565b6130956060830186612522565b6130a26080830185612522565b6130af60a0830184612522565b979650505050505050565b600081905092915050565b7f1901000000000000000000000000000000000000000000000000000000000000600082015250565b60006130fb6002836130ba565b9150613106826130c5565b600282019050919050565b6000819050919050565b61312c613127826125f2565b613111565b82525050565b600061313d826130ee565b9150613149828561311b565b602082019150613159828461311b565b6020820191508190509392505050565b7f4552433230426173653a207065726d697420646964206e6f742073756363656560008201527f642e204e6f6e6365206d69736d61746368210000000000000000000000000000602082015250565b60006131c560328361235d565b91506131d082613169565b604082019050919050565b600060208201905081810360008301526131f4816131b8565b9050919050565b600060808201905061321060008301876125fc565b61321d6020830186612633565b61322a60408301856125fc565b61323760608301846125fc565b95945050505050565b7f45524332302064617461746f6b656e3a20494e56414c4944205349474e41545560008201527f524520494e2045524332302d5045524d49540000000000000000000000000000602082015250565b600061329c60328361235d565b91506132a782613240565b604082019050919050565b600060208201905081810360008301526132cb8161328f565b9050919050565b60006080820190506132e760008301876126b7565b6132f460208301866126b7565b61330160408301856126b7565b61330e6060830184612522565b95945050505050565b600060608201905061332c60008301866125fc565b61333960208301856125fc565b61334660408301846125fc565b949350505050565b7f496e697469616c697a61626c653a20636f6e747261637420697320616c72656160008201527f647920696e697469616c697a6564000000000000000000000000000000000000602082015250565b60006133aa602e8361235d565b91506133b58261334e565b604082019050919050565b600060208201905081810360008301526133d98161339d565b9050919050565b7f4d696e7465722063616e6e6f7420626520307830302100000000000000000000600082015250565b600061341660168361235d565b9150613421826133e0565b602082019050919050565b6000602082019050818103600083015261344581613409565b9050919050565b7f4e4f5420544845204e4654204f574e4552000000000000000000000000000000600082015250565b600061348260118361235d565b915061348d8261344c565b602082019050919050565b600060208201905081810360008301526134b181613475565b9050919050565b7f455243373231466163746f727920616464726573732063616e6e6f742062652060008201527f3078303021000000000000000000000000000000000000000000000000000000602082015250565b600061351460258361235d565b915061351f826134b8565b604082019050919050565b6000602082019050818103600083015261354381613507565b9050919050565b7f45524332303a20524f555445522043414e4e4f5420424520544845203020414460008201527f4452455353000000000000000000000000000000000000000000000000000000602082015250565b60006135a660258361235d565b91506135b18261354a565b604082019050919050565b600060208201905081810360008301526135d581613599565b9050919050565b7f546865206d6178696d756d20737570706c79206d757374206265203e20300000600082015250565b6000613612601e8361235d565b915061361d826135dc565b602082019050919050565b6000602082019050818103600083015261364181613605565b9050919050565b600060a082019050818103600083015261366281886123a9565b9050818103602083015261367681876123a9565b905061368560408301866126b7565b61369260608301856126b7565b61369f60808301846126b7565b9695505050505050565b6000819050919050565b60006136ce6136c96136c4846136a9565b612a75565b612626565b9050919050565b6136de816136b3565b82525050565b60006020820190506136f960008301846136d5565b92915050565b7f45524332303a20617070726f76652066726f6d20746865207a65726f2061646460008201527f7265737300000000000000000000000000000000000000000000000000000000602082015250565b600061375b60248361235d565b9150613766826136ff565b604082019050919050565b6000602082019050818103600083015261378a8161374e565b9050919050565b7f45524332303a20617070726f766520746f20746865207a65726f20616464726560008201527f7373000000000000000000000000000000000000000000000000000000000000602082015250565b60006137ed60228361235d565b91506137f882613791565b604082019050919050565b6000602082019050818103600083015261381c816137e0565b9050919050565b7f45524332303a206d696e7420746f20746865207a65726f206164647265737300600082015250565b6000613859601f8361235d565b915061386482613823565b602082019050919050565b600060208201905081810360008301526138888161384c565b9050919050565b7f45524332303a206275726e2066726f6d20746865207a65726f2061646472657360008201527f7300000000000000000000000000000000000000000000000000000000000000602082015250565b60006138eb60218361235d565b91506138f68261388f565b604082019050919050565b6000602082019050818103600083015261391a816138de565b9050919050565b7f45524332303a206275726e20616d6f756e7420657863656564732062616c616e60008201527f6365000000000000000000000000000000000000000000000000000000000000602082015250565b600061397d60228361235d565b915061398882613921565b604082019050919050565b600060208201905081810360008301526139ac81613970565b9050919050565b7f45524332303a207472616e736665722066726f6d20746865207a65726f20616460008201527f6472657373000000000000000000000000000000000000000000000000000000602082015250565b6000613a0f60258361235d565b9150613a1a826139b3565b604082019050919050565b60006020820190508181036000830152613a3e81613a02565b9050919050565b7f45524332303a207472616e7366657220746f20746865207a65726f206164647260008201527f6573730000000000000000000000000000000000000000000000000000000000602082015250565b6000613aa160238361235d565b9150613aac82613a45565b604082019050919050565b60006020820190508181036000830152613ad081613a94565b9050919050565b7f45524332303a207472616e7366657220616d6f756e742065786365656473206260008201527f616c616e63650000000000000000000000000000000000000000000000000000602082015250565b6000613b3360268361235d565b9150613b3e82613ad7565b604082019050919050565b60006020820190508181036000830152613b6281613b26565b9050919050565b600060a082019050613b7e60008301886125fc565b613b8b60208301876125fc565b613b9860408301866125fc565b613ba56060830185612522565b613bb260808301846126b7565b9695505050505050565b7f496e697469616c697a61626c653a20636f6e7472616374206973206e6f74206960008201527f6e697469616c697a696e67000000000000000000000000000000000000000000602082015250565b6000613c18602b8361235d565b9150613c2382613bbc565b604082019050919050565b60006020820190508181036000830152613c4781613c0b565b9050919050565b7f45524332303a20696e73756666696369656e7420616c6c6f77616e6365000000600082015250565b6000613c84601d8361235d565b9150613c8f82613c4e565b602082019050919050565b60006020820190508181036000830152613cb381613c77565b9050919050565b60008190508160005260206000209050919050565b60006020601f8301049050919050565b600082821b905092915050565b600060088302613d1c7fffffffffffffffffffffffffffffffffffffffffffffffffffffffffffffffff82613cdf565b613d268683613cdf565b95508019841693508086168417925050509392505050565b6000613d59613d54613d4f84612476565b612a75565b612476565b9050919050565b6000819050919050565b613d7383613d3e565b613d87613d7f82613d60565b848454613cec565b825550505050565b600090565b613d9c613d8f565b613da7818484613d6a565b505050565b5b81811015613dcb57613dc0600082613d94565b600181019050613dad565b5050565b601f821115613e1057613de181613cba565b613dea84613ccf565b81016020851015613df9578190505b613e0d613e0585613ccf565b830182613dac565b50505b505050565b600082821c905092915050565b6000613e3360001984600802613e15565b1980831691505092915050565b6000613e4c8383613e22565b9150826002028217905092915050565b613e6582612352565b67ffffffffffffffff811115613e7e57613e7d612825565b5b613e888254612a44565b613e93828285613dcf565b600060209050601f831160018114613ec65760008415613eb4578287015190505b613ebe8582613e40565b865550613f26565b601f198416613ed486613cba565b60005b82811015613efc57848901518255600182019150602085019450602081019050613ed7565b86831015613f195784890151613f15601f891682613e22565b8355505b6001600288020188555050505b50505050505056fea26469706673582212202616d7a140e0f3900e85cafe92a00237ceb140696bed8d48f44ea2fefc7ff9a864736f6c63430008120033","opcodes":"PUSH1 0x80 PUSH1 0x40 MSTORE CALLVALUE DUP1 ISZERO PUSH2 0x10 JUMPI PUSH1 0x0 DUP1 REVERT JUMPDEST POP PUSH2 0x3F64 DUP1 PUSH2 0x20 PUSH1 0x0 CODECOPY PUSH1 0x0 RETURN INVALID PUSH1 0x80 PUSH1 0x40 MSTORE PUSH1 0x4 CALLDATASIZE LT PUSH2 0x139 JUMPI PUSH1 0x0 CALLDATALOAD PUSH1 0xE0 SHR DUP1 PUSH4 0x70A08231 GT PUSH2 0xAB JUMPI DUP1 PUSH4 0xA9059CBB GT PUSH2 0x6F JUMPI DUP1 PUSH4 0xA9059CBB EQ PUSH2 0x46A JUMPI DUP1 PUSH4 0xAA271E1A EQ PUSH2 0x4A7 JUMPI DUP1 PUSH4 0xB91FAD93 EQ PUSH2 0x4E4 JUMPI DUP1 PUSH4 0xD505ACCF EQ PUSH2 0x50F JUMPI DUP1 PUSH4 0xDD62ED3E EQ PUSH2 0x538 JUMPI DUP1 PUSH4 0xEDF3E29E EQ PUSH2 0x575 JUMPI PUSH2 0x140 JUMP JUMPDEST DUP1 PUSH4 0x70A08231 EQ PUSH2 0x34B JUMPI DUP1 PUSH4 0x73C84F74 EQ PUSH2 0x388 JUMPI DUP1 PUSH4 0x7ECEBE00 EQ PUSH2 0x3C5 JUMPI DUP1 PUSH4 0x95D89B41 EQ PUSH2 0x402 JUMPI DUP1 PUSH4 0xA457C2D7 EQ PUSH2 0x42D JUMPI PUSH2 0x140 JUMP JUMPDEST DUP1 PUSH4 0x313CE567 GT PUSH2 0xFD JUMPI DUP1 PUSH4 0x313CE567 EQ PUSH2 0x24F JUMPI DUP1 PUSH4 0x39509351 EQ PUSH2 0x27A JUMPI DUP1 PUSH4 0x3CCFD60B EQ PUSH2 0x2B7 JUMPI DUP1 PUSH4 0x40C10F19 EQ PUSH2 0x2CE JUMPI DUP1 PUSH4 0x42966C68 EQ PUSH2 0x2F7 JUMPI DUP1 PUSH4 0x4C0F38C2 EQ PUSH2 0x320 JUMPI PUSH2 0x140 JUMP JUMPDEST DUP1 PUSH4 0x6FDDE03 EQ PUSH2 0x142 JUMPI DUP1 PUSH4 0x95EA7B3 EQ PUSH2 0x16D JUMPI DUP1 PUSH4 0x18160DDD EQ PUSH2 0x1AA JUMPI DUP1 PUSH4 0x23B872DD EQ PUSH2 0x1D5 JUMPI DUP1 PUSH4 0x276AFCAE EQ PUSH2 0x212 JUMPI PUSH2 0x140 JUMP JUMPDEST CALLDATASIZE PUSH2 0x140 JUMPI STOP JUMPDEST STOP JUMPDEST CALLVALUE DUP1 ISZERO PUSH2 0x14E JUMPI PUSH1 0x0 DUP1 REVERT JUMPDEST POP PUSH2 0x157 PUSH2 0x5B2 JUMP JUMPDEST PUSH1 0x40 MLOAD PUSH2 0x164 SWAP2 SWAP1 PUSH2 0x23E2 JUMP JUMPDEST PUSH1 0x40 MLOAD DUP1 SWAP2 SUB SWAP1 RETURN JUMPDEST CALLVALUE DUP1 ISZERO PUSH2 0x179 JUMPI PUSH1 0x0 DUP1 REVERT JUMPDEST POP PUSH2 0x194 PUSH1 0x4 DUP1 CALLDATASIZE SUB DUP2 ADD SWAP1 PUSH2 0x18F SWAP2 SWAP1 PUSH2 0x24AC JUMP JUMPDEST PUSH2 0x644 JUMP JUMPDEST PUSH1 0x40 MLOAD PUSH2 0x1A1 SWAP2 SWAP1 PUSH2 0x2507 JUMP JUMPDEST PUSH1 0x40 MLOAD DUP1 SWAP2 SUB SWAP1 RETURN JUMPDEST CALLVALUE DUP1 ISZERO PUSH2 0x1B6 JUMPI PUSH1 0x0 DUP1 REVERT JUMPDEST POP PUSH2 0x1BF PUSH2 0x667 JUMP JUMPDEST PUSH1 0x40 MLOAD PUSH2 0x1CC SWAP2 SWAP1 PUSH2 0x2531 JUMP JUMPDEST PUSH1 0x40 MLOAD DUP1 SWAP2 SUB SWAP1 RETURN JUMPDEST CALLVALUE DUP1 ISZERO PUSH2 0x1E1 JUMPI PUSH1 0x0 DUP1 REVERT JUMPDEST POP PUSH2 0x1FC PUSH1 0x4 DUP1 CALLDATASIZE SUB DUP2 ADD SWAP1 PUSH2 0x1F7 SWAP2 SWAP1 PUSH2 0x254C JUMP JUMPDEST PUSH2 0x671 JUMP JUMPDEST PUSH1 0x40 MLOAD PUSH2 0x209 SWAP2 SWAP1 PUSH2 0x2507 JUMP JUMPDEST PUSH1 0x40 MLOAD DUP1 SWAP2 SUB SWAP1 RETURN JUMPDEST CALLVALUE DUP1 ISZERO PUSH2 0x21E JUMPI PUSH1 0x0 DUP1 REVERT JUMPDEST POP PUSH2 0x239 PUSH1 0x4 DUP1 CALLDATASIZE SUB DUP2 ADD SWAP1 PUSH2 0x234 SWAP2 SWAP1 PUSH2 0x259F JUMP JUMPDEST PUSH2 0x687 JUMP JUMPDEST PUSH1 0x40 MLOAD PUSH2 0x246 SWAP2 SWAP1 PUSH2 0x260B JUMP JUMPDEST PUSH1 0x40 MLOAD DUP1 SWAP2 SUB SWAP1 RETURN JUMPDEST CALLVALUE DUP1 ISZERO PUSH2 0x25B JUMPI PUSH1 0x0 DUP1 REVERT JUMPDEST POP PUSH2 0x264 PUSH2 0x8D4 JUMP JUMPDEST PUSH1 0x40 MLOAD PUSH2 0x271 SWAP2 SWAP1 PUSH2 0x2642 JUMP JUMPDEST PUSH1 0x40 MLOAD DUP1 SWAP2 SUB SWAP1 RETURN JUMPDEST CALLVALUE DUP1 ISZERO PUSH2 0x286 JUMPI PUSH1 0x0 DUP1 REVERT JUMPDEST POP PUSH2 0x2A1 PUSH1 0x4 DUP1 CALLDATASIZE SUB DUP2 ADD SWAP1 PUSH2 0x29C SWAP2 SWAP1 PUSH2 0x24AC JUMP JUMPDEST PUSH2 0x8DD JUMP JUMPDEST PUSH1 0x40 MLOAD PUSH2 0x2AE SWAP2 SWAP1 PUSH2 0x2507 JUMP JUMPDEST PUSH1 0x40 MLOAD DUP1 SWAP2 SUB SWAP1 RETURN JUMPDEST CALLVALUE DUP1 ISZERO PUSH2 0x2C3 JUMPI PUSH1 0x0 DUP1 REVERT JUMPDEST POP PUSH2 0x2CC PUSH2 0x914 JUMP JUMPDEST STOP JUMPDEST CALLVALUE DUP1 ISZERO PUSH2 0x2DA JUMPI PUSH1 0x0 DUP1 REVERT JUMPDEST POP PUSH2 0x2F5 PUSH1 0x4 DUP1 CALLDATASIZE SUB DUP2 ADD SWAP1 PUSH2 0x2F0 SWAP2 SWAP1 PUSH2 0x24AC JUMP JUMPDEST PUSH2 0xA60 JUMP JUMPDEST STOP JUMPDEST CALLVALUE DUP1 ISZERO PUSH2 0x303 JUMPI PUSH1 0x0 DUP1 REVERT JUMPDEST POP PUSH2 0x31E PUSH1 0x4 DUP1 CALLDATASIZE SUB DUP2 ADD SWAP1 PUSH2 0x319 SWAP2 SWAP1 PUSH2 0x265D JUMP JUMPDEST PUSH2 0xB6C JUMP JUMPDEST STOP JUMPDEST CALLVALUE DUP1 ISZERO PUSH2 0x32C JUMPI PUSH1 0x0 DUP1 REVERT JUMPDEST POP PUSH2 0x335 PUSH2 0xC09 JUMP JUMPDEST PUSH1 0x40 MLOAD PUSH2 0x342 SWAP2 SWAP1 PUSH2 0x2531 JUMP JUMPDEST PUSH1 0x40 MLOAD DUP1 SWAP2 SUB SWAP1 RETURN JUMPDEST CALLVALUE DUP1 ISZERO PUSH2 0x357 JUMPI PUSH1 0x0 DUP1 REVERT JUMPDEST POP PUSH2 0x372 PUSH1 0x4 DUP1 CALLDATASIZE SUB DUP2 ADD SWAP1 PUSH2 0x36D SWAP2 SWAP1 PUSH2 0x268A JUMP JUMPDEST PUSH2 0xC13 JUMP JUMPDEST PUSH1 0x40 MLOAD PUSH2 0x37F SWAP2 SWAP1 PUSH2 0x2531 JUMP JUMPDEST PUSH1 0x40 MLOAD DUP1 SWAP2 SUB SWAP1 RETURN JUMPDEST CALLVALUE DUP1 ISZERO PUSH2 0x394 JUMPI PUSH1 0x0 DUP1 REVERT JUMPDEST POP PUSH2 0x3AF PUSH1 0x4 DUP1 CALLDATASIZE SUB DUP2 ADD SWAP1 PUSH2 0x3AA SWAP2 SWAP1 PUSH2 0x268A JUMP JUMPDEST PUSH2 0xC25 JUMP JUMPDEST PUSH1 0x40 MLOAD PUSH2 0x3BC SWAP2 SWAP1 PUSH2 0x2531 JUMP JUMPDEST PUSH1 0x40 MLOAD DUP1 SWAP2 SUB SWAP1 RETURN JUMPDEST CALLVALUE DUP1 ISZERO PUSH2 0x3D1 JUMPI PUSH1 0x0 DUP1 REVERT JUMPDEST POP PUSH2 0x3EC PUSH1 0x4 DUP1 CALLDATASIZE SUB DUP2 ADD SWAP1 PUSH2 0x3E7 SWAP2 SWAP1 PUSH2 0x268A JUMP JUMPDEST PUSH2 0xC3D JUMP JUMPDEST PUSH1 0x40 MLOAD PUSH2 0x3F9 SWAP2 SWAP1 PUSH2 0x2531 JUMP JUMPDEST PUSH1 0x40 MLOAD DUP1 SWAP2 SUB SWAP1 RETURN JUMPDEST CALLVALUE DUP1 ISZERO PUSH2 0x40E JUMPI PUSH1 0x0 DUP1 REVERT JUMPDEST POP PUSH2 0x417 PUSH2 0xC86 JUMP JUMPDEST PUSH1 0x40 MLOAD PUSH2 0x424 SWAP2 SWAP1 PUSH2 0x23E2 JUMP JUMPDEST PUSH1 0x40 MLOAD DUP1 SWAP2 SUB SWAP1 RETURN JUMPDEST CALLVALUE DUP1 ISZERO PUSH2 0x439 JUMPI PUSH1 0x0 DUP1 REVERT JUMPDEST POP PUSH2 0x454 PUSH1 0x4 DUP1 CALLDATASIZE SUB DUP2 ADD SWAP1 PUSH2 0x44F SWAP2 SWAP1 PUSH2 0x24AC JUMP JUMPDEST PUSH2 0xD18 JUMP JUMPDEST PUSH1 0x40 MLOAD PUSH2 0x461 SWAP2 SWAP1 PUSH2 0x2507 JUMP JUMPDEST PUSH1 0x40 MLOAD DUP1 SWAP2 SUB SWAP1 RETURN JUMPDEST CALLVALUE DUP1 ISZERO PUSH2 0x476 JUMPI PUSH1 0x0 DUP1 REVERT JUMPDEST POP PUSH2 0x491 PUSH1 0x4 DUP1 CALLDATASIZE SUB DUP2 ADD SWAP1 PUSH2 0x48C SWAP2 SWAP1 PUSH2 0x24AC JUMP JUMPDEST PUSH2 0xD8F JUMP JUMPDEST PUSH1 0x40 MLOAD PUSH2 0x49E SWAP2 SWAP1 PUSH2 0x2507 JUMP JUMPDEST PUSH1 0x40 MLOAD DUP1 SWAP2 SUB SWAP1 RETURN JUMPDEST CALLVALUE DUP1 ISZERO PUSH2 0x4B3 JUMPI PUSH1 0x0 DUP1 REVERT JUMPDEST POP PUSH2 0x4CE PUSH1 0x4 DUP1 CALLDATASIZE SUB DUP2 ADD SWAP1 PUSH2 0x4C9 SWAP2 SWAP1 PUSH2 0x268A JUMP JUMPDEST PUSH2 0xDB2 JUMP JUMPDEST PUSH1 0x40 MLOAD PUSH2 0x4DB SWAP2 SWAP1 PUSH2 0x2507 JUMP JUMPDEST PUSH1 0x40 MLOAD DUP1 SWAP2 SUB SWAP1 RETURN JUMPDEST CALLVALUE DUP1 ISZERO PUSH2 0x4F0 JUMPI PUSH1 0x0 DUP1 REVERT JUMPDEST POP PUSH2 0x4F9 PUSH2 0xDC4 JUMP JUMPDEST PUSH1 0x40 MLOAD PUSH2 0x506 SWAP2 SWAP1 PUSH2 0x26C6 JUMP JUMPDEST PUSH1 0x40 MLOAD DUP1 SWAP2 SUB SWAP1 RETURN JUMPDEST CALLVALUE DUP1 ISZERO PUSH2 0x51B JUMPI PUSH1 0x0 DUP1 REVERT JUMPDEST POP PUSH2 0x536 PUSH1 0x4 DUP1 CALLDATASIZE SUB DUP2 ADD SWAP1 PUSH2 0x531 SWAP2 SWAP1 PUSH2 0x2739 JUMP JUMPDEST PUSH2 0xDEE JUMP JUMPDEST STOP JUMPDEST CALLVALUE DUP1 ISZERO PUSH2 0x544 JUMPI PUSH1 0x0 DUP1 REVERT JUMPDEST POP PUSH2 0x55F PUSH1 0x4 DUP1 CALLDATASIZE SUB DUP2 ADD SWAP1 PUSH2 0x55A SWAP2 SWAP1 PUSH2 0x27DB JUMP JUMPDEST PUSH2 0x127A JUMP JUMPDEST PUSH1 0x40 MLOAD PUSH2 0x56C SWAP2 SWAP1 PUSH2 0x2531 JUMP JUMPDEST PUSH1 0x40 MLOAD DUP1 SWAP2 SUB SWAP1 RETURN JUMPDEST CALLVALUE DUP1 ISZERO PUSH2 0x581 JUMPI PUSH1 0x0 DUP1 REVERT JUMPDEST POP PUSH2 0x59C PUSH1 0x4 DUP1 CALLDATASIZE SUB DUP2 ADD SWAP1 PUSH2 0x597 SWAP2 SWAP1 PUSH2 0x2950 JUMP JUMPDEST PUSH2 0x1301 JUMP JUMPDEST PUSH1 0x40 MLOAD PUSH2 0x5A9 SWAP2 SWAP1 PUSH2 0x2507 JUMP JUMPDEST PUSH1 0x40 MLOAD DUP1 SWAP2 SUB SWAP1 RETURN JUMPDEST PUSH1 0x60 PUSH1 0x36 DUP1 SLOAD PUSH2 0x5C1 SWAP1 PUSH2 0x2A44 JUMP JUMPDEST DUP1 PUSH1 0x1F ADD PUSH1 0x20 DUP1 SWAP2 DIV MUL PUSH1 0x20 ADD PUSH1 0x40 MLOAD SWAP1 DUP2 ADD PUSH1 0x40 MSTORE DUP1 SWAP3 SWAP2 SWAP1 DUP2 DUP2 MSTORE PUSH1 0x20 ADD DUP3 DUP1 SLOAD PUSH2 0x5ED SWAP1 PUSH2 0x2A44 JUMP JUMPDEST DUP1 ISZERO PUSH2 0x63A JUMPI DUP1 PUSH1 0x1F LT PUSH2 0x60F JUMPI PUSH2 0x100 DUP1 DUP4 SLOAD DIV MUL DUP4 MSTORE SWAP2 PUSH1 0x20 ADD SWAP2 PUSH2 0x63A JUMP JUMPDEST DUP3 ADD SWAP2 SWAP1 PUSH1 0x0 MSTORE PUSH1 0x20 PUSH1 0x0 KECCAK256 SWAP1 JUMPDEST DUP2 SLOAD DUP2 MSTORE SWAP1 PUSH1 0x1 ADD SWAP1 PUSH1 0x20 ADD DUP1 DUP4 GT PUSH2 0x61D JUMPI DUP3 SWAP1 SUB PUSH1 0x1F AND DUP3 ADD SWAP2 JUMPDEST POP POP POP POP POP SWAP1 POP SWAP1 JUMP JUMPDEST PUSH1 0x0 DUP1 PUSH2 0x64F PUSH2 0x186F JUMP JUMPDEST SWAP1 POP PUSH2 0x65C DUP2 DUP6 DUP6 PUSH2 0x1877 JUMP JUMPDEST PUSH1 0x1 SWAP2 POP POP SWAP3 SWAP2 POP POP JUMP JUMPDEST PUSH1 0x0 PUSH1 0x35 SLOAD SWAP1 POP SWAP1 JUMP JUMPDEST PUSH1 0x0 PUSH2 0x67E DUP5 DUP5 DUP5 PUSH2 0x1A40 JUMP JUMPDEST SWAP1 POP SWAP4 SWAP3 POP POP POP JUMP JUMPDEST PUSH1 0x0 PUSH1 0x66 PUSH1 0x0 SWAP1 SLOAD SWAP1 PUSH2 0x100 EXP SWAP1 DIV PUSH20 0xFFFFFFFFFFFFFFFFFFFFFFFFFFFFFFFFFFFFFFFF AND PUSH20 0xFFFFFFFFFFFFFFFFFFFFFFFFFFFFFFFFFFFFFFFF AND CALLER PUSH20 0xFFFFFFFFFFFFFFFFFFFFFFFFFFFFFFFFFFFFFFFF AND EQ PUSH2 0x6E3 JUMPI PUSH1 0x0 DUP1 REVERT JUMPDEST PUSH1 0x0 DUP3 GT ISZERO PUSH2 0x6F6 JUMPI PUSH2 0x6F5 DUP5 PUSH2 0x1A6F JUMP JUMPDEST JUMPDEST PUSH1 0x67 PUSH1 0x0 SWAP1 SLOAD SWAP1 PUSH2 0x100 EXP SWAP1 DIV PUSH20 0xFFFFFFFFFFFFFFFFFFFFFFFFFFFFFFFFFFFFFFFF AND PUSH20 0xFFFFFFFFFFFFFFFFFFFFFFFFFFFFFFFFFFFFFFFF AND PUSH4 0x46AB8F0F DUP6 PUSH1 0x66 PUSH1 0x0 SWAP1 SLOAD SWAP1 PUSH2 0x100 EXP SWAP1 DIV PUSH20 0xFFFFFFFFFFFFFFFFFFFFFFFFFFFFFFFFFFFFFFFF AND DUP7 PUSH2 0x761 PUSH2 0x8D4 JUMP JUMPDEST DUP8 PUSH1 0x40 MLOAD DUP7 PUSH4 0xFFFFFFFF AND PUSH1 0xE0 SHL DUP2 MSTORE PUSH1 0x4 ADD PUSH2 0x782 SWAP6 SWAP5 SWAP4 SWAP3 SWAP2 SWAP1 PUSH2 0x2AB0 JUMP JUMPDEST PUSH1 0x20 PUSH1 0x40 MLOAD DUP1 DUP4 SUB DUP2 PUSH1 0x0 DUP8 GAS CALL ISZERO DUP1 ISZERO PUSH2 0x7A1 JUMPI RETURNDATASIZE PUSH1 0x0 DUP1 RETURNDATACOPY RETURNDATASIZE PUSH1 0x0 REVERT JUMPDEST POP POP POP POP PUSH1 0x40 MLOAD RETURNDATASIZE PUSH1 0x1F NOT PUSH1 0x1F DUP3 ADD AND DUP3 ADD DUP1 PUSH1 0x40 MSTORE POP DUP2 ADD SWAP1 PUSH2 0x7C5 SWAP2 SWAP1 PUSH2 0x2B18 JUMP JUMPDEST SWAP1 POP PUSH32 0xA5415CB405D73F33B4E7CF3E0D085DB931472BB48E0423947AD575A31FA2F51E DUP2 PUSH1 0x66 PUSH1 0x0 SWAP1 SLOAD SWAP1 PUSH2 0x100 EXP SWAP1 DIV PUSH20 0xFFFFFFFFFFFFFFFFFFFFFFFFFFFFFFFFFFFFFFFF AND DUP7 PUSH1 0x40 MLOAD PUSH2 0x81C SWAP4 SWAP3 SWAP2 SWAP1 PUSH2 0x2B45 JUMP JUMPDEST PUSH1 0x40 MLOAD DUP1 SWAP2 SUB SWAP1 LOG1 PUSH1 0x6B PUSH1 0x40 MLOAD DUP1 PUSH1 0x40 ADD PUSH1 0x40 MSTORE DUP1 DUP7 PUSH20 0xFFFFFFFFFFFFFFFFFFFFFFFFFFFFFFFFFFFFFFFF AND DUP2 MSTORE PUSH1 0x20 ADD DUP4 DUP2 MSTORE POP SWAP1 DUP1 PUSH1 0x1 DUP2 SLOAD ADD DUP1 DUP3 SSTORE DUP1 SWAP2 POP POP PUSH1 0x1 SWAP1 SUB SWAP1 PUSH1 0x0 MSTORE PUSH1 0x20 PUSH1 0x0 KECCAK256 SWAP1 PUSH1 0x2 MUL ADD PUSH1 0x0 SWAP1 SWAP2 SWAP1 SWAP2 SWAP1 SWAP2 POP PUSH1 0x0 DUP3 ADD MLOAD DUP2 PUSH1 0x0 ADD PUSH1 0x0 PUSH2 0x100 EXP DUP2 SLOAD DUP2 PUSH20 0xFFFFFFFFFFFFFFFFFFFFFFFFFFFFFFFFFFFFFFFF MUL NOT AND SWAP1 DUP4 PUSH20 0xFFFFFFFFFFFFFFFFFFFFFFFFFFFFFFFFFFFFFFFF AND MUL OR SWAP1 SSTORE POP PUSH1 0x20 DUP3 ADD MLOAD DUP2 PUSH1 0x1 ADD SSTORE POP POP SWAP4 SWAP3 POP POP POP JUMP JUMPDEST PUSH1 0x0 PUSH1 0x12 SWAP1 POP SWAP1 JUMP JUMPDEST PUSH1 0x0 DUP1 PUSH2 0x8E8 PUSH2 0x186F JUMP JUMPDEST SWAP1 POP PUSH2 0x909 DUP2 DUP6 DUP6 PUSH2 0x8FA DUP6 DUP10 PUSH2 0x127A JUMP JUMPDEST PUSH2 0x904 SWAP2 SWAP1 PUSH2 0x2BAB JUMP JUMPDEST PUSH2 0x1877 JUMP JUMPDEST PUSH1 0x1 SWAP2 POP POP SWAP3 SWAP2 POP POP JUMP JUMPDEST PUSH1 0x66 PUSH1 0x0 SWAP1 SLOAD SWAP1 PUSH2 0x100 EXP SWAP1 DIV PUSH20 0xFFFFFFFFFFFFFFFFFFFFFFFFFFFFFFFFFFFFFFFF AND PUSH20 0xFFFFFFFFFFFFFFFFFFFFFFFFFFFFFFFFFFFFFFFF AND CALLER PUSH20 0xFFFFFFFFFFFFFFFFFFFFFFFFFFFFFFFFFFFFFFFF AND EQ PUSH2 0x96E JUMPI PUSH1 0x0 DUP1 REVERT JUMPDEST PUSH1 0x0 SELFBALANCE GT PUSH2 0x9B1 JUMPI PUSH1 0x40 MLOAD PUSH32 0x8C379A000000000000000000000000000000000000000000000000000000000 DUP2 MSTORE PUSH1 0x4 ADD PUSH2 0x9A8 SWAP1 PUSH2 0x2C2B JUMP JUMPDEST PUSH1 0x40 MLOAD DUP1 SWAP2 SUB SWAP1 REVERT JUMPDEST PUSH1 0x0 CALLER PUSH20 0xFFFFFFFFFFFFFFFFFFFFFFFFFFFFFFFFFFFFFFFF AND SELFBALANCE PUSH1 0x40 MLOAD PUSH2 0x9D7 SWAP1 PUSH2 0x2C7C JUMP JUMPDEST PUSH1 0x0 PUSH1 0x40 MLOAD DUP1 DUP4 SUB DUP2 DUP6 DUP8 GAS CALL SWAP3 POP POP POP RETURNDATASIZE DUP1 PUSH1 0x0 DUP2 EQ PUSH2 0xA14 JUMPI PUSH1 0x40 MLOAD SWAP2 POP PUSH1 0x1F NOT PUSH1 0x3F RETURNDATASIZE ADD AND DUP3 ADD PUSH1 0x40 MSTORE RETURNDATASIZE DUP3 MSTORE RETURNDATASIZE PUSH1 0x0 PUSH1 0x20 DUP5 ADD RETURNDATACOPY PUSH2 0xA19 JUMP JUMPDEST PUSH1 0x60 SWAP2 POP JUMPDEST POP POP SWAP1 POP DUP1 PUSH2 0xA5D JUMPI PUSH1 0x40 MLOAD PUSH32 0x8C379A000000000000000000000000000000000000000000000000000000000 DUP2 MSTORE PUSH1 0x4 ADD PUSH2 0xA54 SWAP1 PUSH2 0x2CDD JUMP JUMPDEST PUSH1 0x40 MLOAD DUP1 SWAP2 SUB SWAP1 REVERT JUMPDEST POP JUMP JUMPDEST PUSH1 0x66 PUSH1 0x0 SWAP1 SLOAD SWAP1 PUSH2 0x100 EXP SWAP1 DIV PUSH20 0xFFFFFFFFFFFFFFFFFFFFFFFFFFFFFFFFFFFFFFFF AND PUSH20 0xFFFFFFFFFFFFFFFFFFFFFFFFFFFFFFFFFFFFFFFF AND CALLER PUSH20 0xFFFFFFFFFFFFFFFFFFFFFFFFFFFFFFFFFFFFFFFF AND EQ DUP1 PUSH2 0xAC1 JUMPI POP PUSH2 0xAC0 CALLER PUSH2 0x1ACA JUMP JUMPDEST JUMPDEST PUSH2 0xB00 JUMPI PUSH1 0x40 MLOAD PUSH32 0x8C379A000000000000000000000000000000000000000000000000000000000 DUP2 MSTORE PUSH1 0x4 ADD PUSH2 0xAF7 SWAP1 PUSH2 0x2D49 JUMP JUMPDEST PUSH1 0x40 MLOAD DUP1 SWAP2 SUB SWAP1 REVERT JUMPDEST PUSH1 0x68 SLOAD PUSH2 0xB1D DUP3 PUSH2 0xB0F PUSH2 0x667 JUMP JUMPDEST PUSH2 0x1B20 SWAP1 SWAP2 SWAP1 PUSH4 0xFFFFFFFF AND JUMP JUMPDEST GT ISZERO PUSH2 0xB5E JUMPI PUSH1 0x40 MLOAD PUSH32 0x8C379A000000000000000000000000000000000000000000000000000000000 DUP2 MSTORE PUSH1 0x4 ADD PUSH2 0xB55 SWAP1 PUSH2 0x2DB5 JUMP JUMPDEST PUSH1 0x40 MLOAD DUP1 SWAP2 SUB SWAP1 REVERT JUMPDEST PUSH2 0xB68 DUP3 DUP3 PUSH2 0x1B36 JUMP JUMPDEST POP POP JUMP JUMPDEST PUSH1 0x66 PUSH1 0x0 SWAP1 SLOAD SWAP1 PUSH2 0x100 EXP SWAP1 DIV PUSH20 0xFFFFFFFFFFFFFFFFFFFFFFFFFFFFFFFFFFFFFFFF AND PUSH20 0xFFFFFFFFFFFFFFFFFFFFFFFFFFFFFFFFFFFFFFFF AND CALLER PUSH20 0xFFFFFFFFFFFFFFFFFFFFFFFFFFFFFFFFFFFFFFFF AND EQ PUSH2 0xBFC JUMPI PUSH1 0x40 MLOAD PUSH32 0x8C379A000000000000000000000000000000000000000000000000000000000 DUP2 MSTORE PUSH1 0x4 ADD PUSH2 0xBF3 SWAP1 PUSH2 0x2E21 JUMP JUMPDEST PUSH1 0x40 MLOAD DUP1 SWAP2 SUB SWAP1 REVERT JUMPDEST PUSH2 0xC06 CALLER DUP3 PUSH2 0x1C8D JUMP JUMPDEST POP JUMP JUMPDEST PUSH1 0x0 PUSH1 0x68 SLOAD SWAP1 POP SWAP1 JUMP JUMPDEST PUSH1 0x0 PUSH2 0xC1E DUP3 PUSH2 0x1E5C JUMP JUMPDEST SWAP1 POP SWAP2 SWAP1 POP JUMP JUMPDEST PUSH1 0x6A PUSH1 0x20 MSTORE DUP1 PUSH1 0x0 MSTORE PUSH1 0x40 PUSH1 0x0 KECCAK256 PUSH1 0x0 SWAP2 POP SWAP1 POP SLOAD DUP2 JUMP JUMPDEST PUSH1 0x0 PUSH1 0x6A PUSH1 0x0 DUP4 PUSH20 0xFFFFFFFFFFFFFFFFFFFFFFFFFFFFFFFFFFFFFFFF AND PUSH20 0xFFFFFFFFFFFFFFFFFFFFFFFFFFFFFFFFFFFFFFFF AND DUP2 MSTORE PUSH1 0x20 ADD SWAP1 DUP2 MSTORE PUSH1 0x20 ADD PUSH1 0x0 KECCAK256 SLOAD SWAP1 POP SWAP2 SWAP1 POP JUMP JUMPDEST PUSH1 0x60 PUSH1 0x37 DUP1 SLOAD PUSH2 0xC95 SWAP1 PUSH2 0x2A44 JUMP JUMPDEST DUP1 PUSH1 0x1F ADD PUSH1 0x20 DUP1 SWAP2 DIV MUL PUSH1 0x20 ADD PUSH1 0x40 MLOAD SWAP1 DUP2 ADD PUSH1 0x40 MSTORE DUP1 SWAP3 SWAP2 SWAP1 DUP2 DUP2 MSTORE PUSH1 0x20 ADD DUP3 DUP1 SLOAD PUSH2 0xCC1 SWAP1 PUSH2 0x2A44 JUMP JUMPDEST DUP1 ISZERO PUSH2 0xD0E JUMPI DUP1 PUSH1 0x1F LT PUSH2 0xCE3 JUMPI PUSH2 0x100 DUP1 DUP4 SLOAD DIV MUL DUP4 MSTORE SWAP2 PUSH1 0x20 ADD SWAP2 PUSH2 0xD0E JUMP JUMPDEST DUP3 ADD SWAP2 SWAP1 PUSH1 0x0 MSTORE PUSH1 0x20 PUSH1 0x0 KECCAK256 SWAP1 JUMPDEST DUP2 SLOAD DUP2 MSTORE SWAP1 PUSH1 0x1 ADD SWAP1 PUSH1 0x20 ADD DUP1 DUP4 GT PUSH2 0xCF1 JUMPI DUP3 SWAP1 SUB PUSH1 0x1F AND DUP3 ADD SWAP2 JUMPDEST POP POP POP POP POP SWAP1 POP SWAP1 JUMP JUMPDEST PUSH1 0x0 DUP1 PUSH2 0xD23 PUSH2 0x186F JUMP JUMPDEST SWAP1 POP PUSH1 0x0 PUSH2 0xD31 DUP3 DUP7 PUSH2 0x127A JUMP JUMPDEST SWAP1 POP DUP4 DUP2 LT ISZERO PUSH2 0xD76 JUMPI PUSH1 0x40 MLOAD PUSH32 0x8C379A000000000000000000000000000000000000000000000000000000000 DUP2 MSTORE PUSH1 0x4 ADD PUSH2 0xD6D SWAP1 PUSH2 0x2EB3 JUMP JUMPDEST PUSH1 0x40 MLOAD DUP1 SWAP2 SUB SWAP1 REVERT JUMPDEST PUSH2 0xD83 DUP3 DUP7 DUP7 DUP5 SUB PUSH2 0x1877 JUMP JUMPDEST PUSH1 0x1 SWAP3 POP POP POP SWAP3 SWAP2 POP POP JUMP JUMPDEST PUSH1 0x0 DUP1 PUSH2 0xD9A PUSH2 0x186F JUMP JUMPDEST SWAP1 POP PUSH2 0xDA7 DUP2 DUP6 DUP6 PUSH2 0x1EA5 JUMP JUMPDEST PUSH1 0x1 SWAP2 POP POP SWAP3 SWAP2 POP POP JUMP JUMPDEST PUSH1 0x0 PUSH2 0xDBD DUP3 PUSH2 0x1ACA JUMP JUMPDEST SWAP1 POP SWAP2 SWAP1 POP JUMP JUMPDEST PUSH1 0x0 PUSH1 0x66 PUSH1 0x0 SWAP1 SLOAD SWAP1 PUSH2 0x100 EXP SWAP1 DIV PUSH20 0xFFFFFFFFFFFFFFFFFFFFFFFFFFFFFFFFFFFFFFFF AND SWAP1 POP SWAP1 JUMP JUMPDEST NUMBER DUP5 LT ISZERO PUSH2 0xE31 JUMPI PUSH1 0x40 MLOAD PUSH32 0x8C379A000000000000000000000000000000000000000000000000000000000 DUP2 MSTORE PUSH1 0x4 ADD PUSH2 0xE28 SWAP1 PUSH2 0x2F1F JUMP JUMPDEST PUSH1 0x40 MLOAD DUP1 SWAP2 SUB SWAP1 REVERT JUMPDEST PUSH1 0x65 PUSH1 0x0 SWAP1 SLOAD SWAP1 PUSH2 0x100 EXP SWAP1 DIV PUSH20 0xFFFFFFFFFFFFFFFFFFFFFFFFFFFFFFFFFFFFFFFF AND PUSH20 0xFFFFFFFFFFFFFFFFFFFFFFFFFFFFFFFFFFFFFFFF AND PUSH4 0x5245F3BD PUSH1 0x40 MLOAD DUP2 PUSH4 0xFFFFFFFF AND PUSH1 0xE0 SHL DUP2 MSTORE PUSH1 0x4 ADD PUSH1 0x20 PUSH1 0x40 MLOAD DUP1 DUP4 SUB DUP2 DUP7 GAS STATICCALL ISZERO DUP1 ISZERO PUSH2 0xE9E JUMPI RETURNDATASIZE PUSH1 0x0 DUP1 RETURNDATACOPY RETURNDATASIZE PUSH1 0x0 REVERT JUMPDEST POP POP POP POP PUSH1 0x40 MLOAD RETURNDATASIZE PUSH1 0x1F NOT PUSH1 0x1F DUP3 ADD AND DUP3 ADD DUP1 PUSH1 0x40 MSTORE POP DUP2 ADD SWAP1 PUSH2 0xEC2 SWAP2 SWAP1 PUSH2 0x2F54 JUMP JUMPDEST PUSH20 0xFFFFFFFFFFFFFFFFFFFFFFFFFFFFFFFFFFFFFFFF AND DUP8 PUSH20 0xFFFFFFFFFFFFFFFFFFFFFFFFFFFFFFFFFFFFFFFF AND EQ PUSH2 0xF2F JUMPI PUSH1 0x40 MLOAD PUSH32 0x8C379A000000000000000000000000000000000000000000000000000000000 DUP2 MSTORE PUSH1 0x4 ADD PUSH2 0xF26 SWAP1 PUSH2 0x2FCD JUMP JUMPDEST PUSH1 0x40 MLOAD DUP1 SWAP2 SUB SWAP1 REVERT JUMPDEST PUSH1 0x0 DUP6 GT PUSH2 0xF72 JUMPI PUSH1 0x40 MLOAD PUSH32 0x8C379A000000000000000000000000000000000000000000000000000000000 DUP2 MSTORE PUSH1 0x4 ADD PUSH2 0xF69 SWAP1 PUSH2 0x3039 JUMP JUMPDEST PUSH1 0x40 MLOAD DUP1 SWAP2 SUB SWAP1 REVERT JUMPDEST PUSH1 0x0 PUSH1 0x6A PUSH1 0x0 DUP10 PUSH20 0xFFFFFFFFFFFFFFFFFFFFFFFFFFFFFFFFFFFFFFFF AND PUSH20 0xFFFFFFFFFFFFFFFFFFFFFFFFFFFFFFFFFFFFFFFF AND DUP2 MSTORE PUSH1 0x20 ADD SWAP1 DUP2 MSTORE PUSH1 0x20 ADD PUSH1 0x0 KECCAK256 SLOAD SWAP1 POP PUSH1 0x0 PUSH2 0xFC0 PUSH2 0x211E JUMP JUMPDEST SWAP1 POP PUSH1 0x0 PUSH32 0x6E71EDAE12B1B97F4D1F60370FEF10105FA2FAAE0126114A169C64845D6126C9 DUP11 DUP11 DUP11 DUP7 DUP12 PUSH1 0x40 MLOAD PUSH1 0x20 ADD PUSH2 0xFFF SWAP7 SWAP6 SWAP5 SWAP4 SWAP3 SWAP2 SWAP1 PUSH2 0x3059 JUMP JUMPDEST PUSH1 0x40 MLOAD PUSH1 0x20 DUP2 DUP4 SUB SUB DUP2 MSTORE SWAP1 PUSH1 0x40 MSTORE DUP1 MLOAD SWAP1 PUSH1 0x20 ADD KECCAK256 SWAP1 POP PUSH1 0x0 DUP3 DUP3 PUSH1 0x40 MLOAD PUSH1 0x20 ADD PUSH2 0x102C SWAP3 SWAP2 SWAP1 PUSH2 0x3132 JUMP JUMPDEST PUSH1 0x40 MLOAD PUSH1 0x20 DUP2 DUP4 SUB SUB DUP2 MSTORE SWAP1 PUSH1 0x40 MSTORE DUP1 MLOAD SWAP1 PUSH1 0x20 ADD KECCAK256 SWAP1 POP PUSH1 0x1 PUSH1 0x6A PUSH1 0x0 DUP14 PUSH20 0xFFFFFFFFFFFFFFFFFFFFFFFFFFFFFFFFFFFFFFFF AND PUSH20 0xFFFFFFFFFFFFFFFFFFFFFFFFFFFFFFFFFFFFFFFF AND DUP2 MSTORE PUSH1 0x20 ADD SWAP1 DUP2 MSTORE PUSH1 0x20 ADD PUSH1 0x0 KECCAK256 PUSH1 0x0 DUP3 DUP3 SLOAD PUSH2 0x1094 SWAP2 SWAP1 PUSH2 0x2BAB JUMP JUMPDEST SWAP3 POP POP DUP2 SWAP1 SSTORE POP PUSH1 0x1 DUP5 PUSH2 0x10A8 SWAP2 SWAP1 PUSH2 0x2BAB JUMP JUMPDEST PUSH1 0x6A PUSH1 0x0 DUP14 PUSH20 0xFFFFFFFFFFFFFFFFFFFFFFFFFFFFFFFFFFFFFFFF AND PUSH20 0xFFFFFFFFFFFFFFFFFFFFFFFFFFFFFFFFFFFFFFFF AND DUP2 MSTORE PUSH1 0x20 ADD SWAP1 DUP2 MSTORE PUSH1 0x20 ADD PUSH1 0x0 KECCAK256 SLOAD EQ PUSH2 0x1128 JUMPI PUSH1 0x40 MLOAD PUSH32 0x8C379A000000000000000000000000000000000000000000000000000000000 DUP2 MSTORE PUSH1 0x4 ADD PUSH2 0x111F SWAP1 PUSH2 0x31DB JUMP JUMPDEST PUSH1 0x40 MLOAD DUP1 SWAP2 SUB SWAP1 REVERT JUMPDEST PUSH1 0x0 PUSH1 0x1 DUP3 DUP10 DUP10 DUP10 PUSH1 0x40 MLOAD PUSH1 0x0 DUP2 MSTORE PUSH1 0x20 ADD PUSH1 0x40 MSTORE PUSH1 0x40 MLOAD PUSH2 0x114D SWAP5 SWAP4 SWAP3 SWAP2 SWAP1 PUSH2 0x31FB JUMP JUMPDEST PUSH1 0x20 PUSH1 0x40 MLOAD PUSH1 0x20 DUP2 SUB SWAP1 DUP1 DUP5 SUB SWAP1 DUP6 GAS STATICCALL ISZERO DUP1 ISZERO PUSH2 0x116F JUMPI RETURNDATASIZE PUSH1 0x0 DUP1 RETURNDATACOPY RETURNDATASIZE PUSH1 0x0 REVERT JUMPDEST POP POP POP PUSH1 0x20 PUSH1 0x40 MLOAD SUB MLOAD SWAP1 POP DUP12 PUSH20 0xFFFFFFFFFFFFFFFFFFFFFFFFFFFFFFFFFFFFFFFF AND DUP2 PUSH20 0xFFFFFFFFFFFFFFFFFFFFFFFFFFFFFFFFFFFFFFFF AND EQ PUSH2 0x11E9 JUMPI PUSH1 0x40 MLOAD PUSH32 0x8C379A000000000000000000000000000000000000000000000000000000000 DUP2 MSTORE PUSH1 0x4 ADD PUSH2 0x11E0 SWAP1 PUSH2 0x32B2 JUMP JUMPDEST PUSH1 0x40 MLOAD DUP1 SWAP2 SUB SWAP1 REVERT JUMPDEST PUSH32 0x2581D87B6BF92E55ACC084919BD802BFFEC94ECD89B97547F0C868F7247F2044 DUP2 DUP14 DUP14 DUP14 PUSH1 0x40 MLOAD PUSH2 0x121E SWAP5 SWAP4 SWAP3 SWAP2 SWAP1 PUSH2 0x32D2 JUMP JUMPDEST PUSH1 0x40 MLOAD DUP1 SWAP2 SUB SWAP1 LOG1 PUSH32 0x1D532894F4A91EFABD8760A33513B6DFFBEEB81351269A70D1C35C540CAA5C8A DUP5 DUP5 DUP5 PUSH1 0x40 MLOAD PUSH2 0x1259 SWAP4 SWAP3 SWAP2 SWAP1 PUSH2 0x3317 JUMP JUMPDEST PUSH1 0x40 MLOAD DUP1 SWAP2 SUB SWAP1 LOG1 PUSH2 0x126C DUP13 DUP13 DUP13 PUSH2 0x1877 JUMP JUMPDEST POP POP POP POP POP POP POP POP POP POP POP POP JUMP JUMPDEST PUSH1 0x0 PUSH1 0x34 PUSH1 0x0 DUP5 PUSH20 0xFFFFFFFFFFFFFFFFFFFFFFFFFFFFFFFFFFFFFFFF AND PUSH20 0xFFFFFFFFFFFFFFFFFFFFFFFFFFFFFFFFFFFFFFFF AND DUP2 MSTORE PUSH1 0x20 ADD SWAP1 DUP2 MSTORE PUSH1 0x20 ADD PUSH1 0x0 KECCAK256 PUSH1 0x0 DUP4 PUSH20 0xFFFFFFFFFFFFFFFFFFFFFFFFFFFFFFFFFFFFFFFF AND PUSH20 0xFFFFFFFFFFFFFFFFFFFFFFFFFFFFFFFFFFFFFFFF AND DUP2 MSTORE PUSH1 0x20 ADD SWAP1 DUP2 MSTORE PUSH1 0x20 ADD PUSH1 0x0 KECCAK256 SLOAD SWAP1 POP SWAP3 SWAP2 POP POP JUMP JUMPDEST PUSH1 0x0 DUP1 PUSH1 0x0 PUSH1 0x1 SWAP1 SLOAD SWAP1 PUSH2 0x100 EXP SWAP1 DIV PUSH1 0xFF AND ISZERO SWAP1 POP DUP1 DUP1 ISZERO PUSH2 0x1334 JUMPI POP PUSH1 0x1 PUSH1 0x0 DUP1 SLOAD SWAP1 PUSH2 0x100 EXP SWAP1 DIV PUSH1 0xFF AND PUSH1 0xFF AND LT JUMPDEST DUP1 PUSH2 0x1361 JUMPI POP PUSH2 0x1343 ADDRESS PUSH2 0x21C9 JUMP JUMPDEST ISZERO DUP1 ISZERO PUSH2 0x1360 JUMPI POP PUSH1 0x1 PUSH1 0x0 DUP1 SLOAD SWAP1 PUSH2 0x100 EXP SWAP1 DIV PUSH1 0xFF AND PUSH1 0xFF AND EQ JUMPDEST JUMPDEST PUSH2 0x13A0 JUMPI PUSH1 0x40 MLOAD PUSH32 0x8C379A000000000000000000000000000000000000000000000000000000000 DUP2 MSTORE PUSH1 0x4 ADD PUSH2 0x1397 SWAP1 PUSH2 0x33C0 JUMP JUMPDEST PUSH1 0x40 MLOAD DUP1 SWAP2 SUB SWAP1 REVERT JUMPDEST PUSH1 0x1 PUSH1 0x0 DUP1 PUSH2 0x100 EXP DUP2 SLOAD DUP2 PUSH1 0xFF MUL NOT AND SWAP1 DUP4 PUSH1 0xFF AND MUL OR SWAP1 SSTORE POP DUP1 ISZERO PUSH2 0x13DD JUMPI PUSH1 0x1 PUSH1 0x0 PUSH1 0x1 PUSH2 0x100 EXP DUP2 SLOAD DUP2 PUSH1 0xFF MUL NOT AND SWAP1 DUP4 ISZERO ISZERO MUL OR SWAP1 SSTORE POP JUMPDEST PUSH1 0x0 PUSH20 0xFFFFFFFFFFFFFFFFFFFFFFFFFFFFFFFFFFFFFFFF AND DUP7 PUSH20 0xFFFFFFFFFFFFFFFFFFFFFFFFFFFFFFFFFFFFFFFF AND SUB PUSH2 0x144C JUMPI PUSH1 0x40 MLOAD PUSH32 0x8C379A000000000000000000000000000000000000000000000000000000000 DUP2 MSTORE PUSH1 0x4 ADD PUSH2 0x1443 SWAP1 PUSH2 0x342C JUMP JUMPDEST PUSH1 0x40 MLOAD DUP1 SWAP2 SUB SWAP1 REVERT JUMPDEST DUP5 PUSH20 0xFFFFFFFFFFFFFFFFFFFFFFFFFFFFFFFFFFFFFFFF AND PUSH4 0x5245F3BD PUSH1 0x40 MLOAD DUP2 PUSH4 0xFFFFFFFF AND PUSH1 0xE0 SHL DUP2 MSTORE PUSH1 0x4 ADD PUSH1 0x20 PUSH1 0x40 MLOAD DUP1 DUP4 SUB DUP2 DUP7 GAS STATICCALL ISZERO DUP1 ISZERO PUSH2 0x1497 JUMPI RETURNDATASIZE PUSH1 0x0 DUP1 RETURNDATACOPY RETURNDATASIZE PUSH1 0x0 REVERT JUMPDEST POP POP POP POP PUSH1 0x40 MLOAD RETURNDATASIZE PUSH1 0x1F NOT PUSH1 0x1F DUP3 ADD AND DUP3 ADD DUP1 PUSH1 0x40 MSTORE POP DUP2 ADD SWAP1 PUSH2 0x14BB SWAP2 SWAP1 PUSH2 0x2F54 JUMP JUMPDEST PUSH20 0xFFFFFFFFFFFFFFFFFFFFFFFFFFFFFFFFFFFFFFFF AND DUP7 PUSH20 0xFFFFFFFFFFFFFFFFFFFFFFFFFFFFFFFFFFFFFFFF AND EQ PUSH2 0x1528 JUMPI PUSH1 0x40 MLOAD PUSH32 0x8C379A000000000000000000000000000000000000000000000000000000000 DUP2 MSTORE PUSH1 0x4 ADD PUSH2 0x151F SWAP1 PUSH2 0x3498 JUMP JUMPDEST PUSH1 0x40 MLOAD DUP1 SWAP2 SUB SWAP1 REVERT JUMPDEST PUSH1 0x0 PUSH20 0xFFFFFFFFFFFFFFFFFFFFFFFFFFFFFFFFFFFFFFFF AND DUP6 PUSH20 0xFFFFFFFFFFFFFFFFFFFFFFFFFFFFFFFFFFFFFFFF AND SUB PUSH2 0x1597 JUMPI PUSH1 0x40 MLOAD PUSH32 0x8C379A000000000000000000000000000000000000000000000000000000000 DUP2 MSTORE PUSH1 0x4 ADD PUSH2 0x158E SWAP1 PUSH2 0x352A JUMP JUMPDEST PUSH1 0x40 MLOAD DUP1 SWAP2 SUB SWAP1 REVERT JUMPDEST PUSH1 0x0 PUSH20 0xFFFFFFFFFFFFFFFFFFFFFFFFFFFFFFFFFFFFFFFF AND DUP5 PUSH20 0xFFFFFFFFFFFFFFFFFFFFFFFFFFFFFFFFFFFFFFFF AND SUB PUSH2 0x1606 JUMPI PUSH1 0x40 MLOAD PUSH32 0x8C379A000000000000000000000000000000000000000000000000000000000 DUP2 MSTORE PUSH1 0x4 ADD PUSH2 0x15FD SWAP1 PUSH2 0x35BC JUMP JUMPDEST PUSH1 0x40 MLOAD DUP1 SWAP2 SUB SWAP1 REVERT JUMPDEST PUSH1 0x0 DUP4 GT PUSH2 0x1649 JUMPI PUSH1 0x40 MLOAD PUSH32 0x8C379A000000000000000000000000000000000000000000000000000000000 DUP2 MSTORE PUSH1 0x4 ADD PUSH2 0x1640 SWAP1 PUSH2 0x3628 JUMP JUMPDEST PUSH1 0x40 MLOAD DUP1 SWAP2 SUB SWAP1 REVERT JUMPDEST PUSH2 0x1653 DUP9 DUP9 PUSH2 0x21EC JUMP JUMPDEST DUP5 PUSH1 0x65 PUSH1 0x0 PUSH2 0x100 EXP DUP2 SLOAD DUP2 PUSH20 0xFFFFFFFFFFFFFFFFFFFFFFFFFFFFFFFFFFFFFFFF MUL NOT AND SWAP1 DUP4 PUSH20 0xFFFFFFFFFFFFFFFFFFFFFFFFFFFFFFFFFFFFFFFF AND MUL OR SWAP1 SSTORE POP DUP6 PUSH1 0x66 PUSH1 0x0 PUSH2 0x100 EXP DUP2 SLOAD DUP2 PUSH20 0xFFFFFFFFFFFFFFFFFFFFFFFFFFFFFFFFFFFFFFFF MUL NOT AND SWAP1 DUP4 PUSH20 0xFFFFFFFFFFFFFFFFFFFFFFFFFFFFFFFFFFFFFFFF AND MUL OR SWAP1 SSTORE POP DUP4 PUSH1 0x67 PUSH1 0x0 PUSH2 0x100 EXP DUP2 SLOAD DUP2 PUSH20 0xFFFFFFFFFFFFFFFFFFFFFFFFFFFFFFFFFFFFFFFF MUL NOT AND SWAP1 DUP4 PUSH20 0xFFFFFFFFFFFFFFFFFFFFFFFFFFFFFFFFFFFFFFFF AND MUL OR SWAP1 SSTORE POP DUP3 PUSH1 0x68 DUP2 SWAP1 SSTORE POP PUSH1 0x0 PUSH1 0x6A PUSH1 0x0 PUSH1 0x66 PUSH1 0x0 SWAP1 SLOAD SWAP1 PUSH2 0x100 EXP SWAP1 DIV PUSH20 0xFFFFFFFFFFFFFFFFFFFFFFFFFFFFFFFFFFFFFFFF AND PUSH20 0xFFFFFFFFFFFFFFFFFFFFFFFFFFFFFFFFFFFFFFFF AND PUSH20 0xFFFFFFFFFFFFFFFFFFFFFFFFFFFFFFFFFFFFFFFF AND DUP2 MSTORE PUSH1 0x20 ADD SWAP1 DUP2 MSTORE PUSH1 0x20 ADD PUSH1 0x0 KECCAK256 DUP2 SWAP1 SSTORE POP PUSH32 0xE05608333682EC730412D68C753DA81C47AE10D62539BB241E9E882DCA8311D7 DUP9 DUP9 DUP9 PUSH1 0x65 PUSH1 0x0 SWAP1 SLOAD SWAP1 PUSH2 0x100 EXP SWAP1 DIV PUSH20 0xFFFFFFFFFFFFFFFFFFFFFFFFFFFFFFFFFFFFFFFF AND PUSH1 0x67 PUSH1 0x0 SWAP1 SLOAD SWAP1 PUSH2 0x100 EXP SWAP1 DIV PUSH20 0xFFFFFFFFFFFFFFFFFFFFFFFFFFFFFFFFFFFFFFFF AND PUSH1 0x40 MLOAD PUSH2 0x17FF SWAP6 SWAP5 SWAP4 SWAP3 SWAP2 SWAP1 PUSH2 0x3648 JUMP JUMPDEST PUSH1 0x40 MLOAD DUP1 SWAP2 SUB SWAP1 LOG1 PUSH1 0x1 SWAP2 POP DUP1 ISZERO PUSH2 0x1864 JUMPI PUSH1 0x0 DUP1 PUSH1 0x1 PUSH2 0x100 EXP DUP2 SLOAD DUP2 PUSH1 0xFF MUL NOT AND SWAP1 DUP4 ISZERO ISZERO MUL OR SWAP1 SSTORE POP PUSH32 0x7F26B83FF96E1F2B6A682F133852F6798A09C465DA95921460CEFB3847402498 PUSH1 0x1 PUSH1 0x40 MLOAD PUSH2 0x185B SWAP2 SWAP1 PUSH2 0x36E4 JUMP JUMPDEST PUSH1 0x40 MLOAD DUP1 SWAP2 SUB SWAP1 LOG1 JUMPDEST POP SWAP7 SWAP6 POP POP POP POP POP POP JUMP JUMPDEST PUSH1 0x0 CALLER SWAP1 POP SWAP1 JUMP JUMPDEST PUSH1 0x0 PUSH20 0xFFFFFFFFFFFFFFFFFFFFFFFFFFFFFFFFFFFFFFFF AND DUP4 PUSH20 0xFFFFFFFFFFFFFFFFFFFFFFFFFFFFFFFFFFFFFFFF AND SUB PUSH2 0x18E6 JUMPI PUSH1 0x40 MLOAD PUSH32 0x8C379A000000000000000000000000000000000000000000000000000000000 DUP2 MSTORE PUSH1 0x4 ADD PUSH2 0x18DD SWAP1 PUSH2 0x3771 JUMP JUMPDEST PUSH1 0x40 MLOAD DUP1 SWAP2 SUB SWAP1 REVERT JUMPDEST PUSH1 0x0 PUSH20 0xFFFFFFFFFFFFFFFFFFFFFFFFFFFFFFFFFFFFFFFF AND DUP3 PUSH20 0xFFFFFFFFFFFFFFFFFFFFFFFFFFFFFFFFFFFFFFFF AND SUB PUSH2 0x1955 JUMPI PUSH1 0x40 MLOAD PUSH32 0x8C379A000000000000000000000000000000000000000000000000000000000 DUP2 MSTORE PUSH1 0x4 ADD PUSH2 0x194C SWAP1 PUSH2 0x3803 JUMP JUMPDEST PUSH1 0x40 MLOAD DUP1 SWAP2 SUB SWAP1 REVERT JUMPDEST DUP1 PUSH1 0x34 PUSH1 0x0 DUP6 PUSH20 0xFFFFFFFFFFFFFFFFFFFFFFFFFFFFFFFFFFFFFFFF AND PUSH20 0xFFFFFFFFFFFFFFFFFFFFFFFFFFFFFFFFFFFFFFFF AND DUP2 MSTORE PUSH1 0x20 ADD SWAP1 DUP2 MSTORE PUSH1 0x20 ADD PUSH1 0x0 KECCAK256 PUSH1 0x0 DUP5 PUSH20 0xFFFFFFFFFFFFFFFFFFFFFFFFFFFFFFFFFFFFFFFF AND PUSH20 0xFFFFFFFFFFFFFFFFFFFFFFFFFFFFFFFFFFFFFFFF AND DUP2 MSTORE PUSH1 0x20 ADD SWAP1 DUP2 MSTORE PUSH1 0x20 ADD PUSH1 0x0 KECCAK256 DUP2 SWAP1 SSTORE POP DUP2 PUSH20 0xFFFFFFFFFFFFFFFFFFFFFFFFFFFFFFFFFFFFFFFF AND DUP4 PUSH20 0xFFFFFFFFFFFFFFFFFFFFFFFFFFFFFFFFFFFFFFFF AND PUSH32 0x8C5BE1E5EBEC7D5BD14F71427D1E84F3DD0314C0F7B2291E5B200AC8C7C3B925 DUP4 PUSH1 0x40 MLOAD PUSH2 0x1A33 SWAP2 SWAP1 PUSH2 0x2531 JUMP JUMPDEST PUSH1 0x40 MLOAD DUP1 SWAP2 SUB SWAP1 LOG3 POP POP POP JUMP JUMPDEST PUSH1 0x0 DUP1 PUSH2 0x1A4B PUSH2 0x186F JUMP JUMPDEST SWAP1 POP PUSH2 0x1A58 DUP6 DUP3 DUP6 PUSH2 0x2249 JUMP JUMPDEST PUSH2 0x1A63 DUP6 DUP6 DUP6 PUSH2 0x1EA5 JUMP JUMPDEST PUSH1 0x1 SWAP2 POP POP SWAP4 SWAP3 POP POP POP JUMP JUMPDEST PUSH1 0x1 PUSH1 0x69 PUSH1 0x0 DUP4 PUSH20 0xFFFFFFFFFFFFFFFFFFFFFFFFFFFFFFFFFFFFFFFF AND PUSH20 0xFFFFFFFFFFFFFFFFFFFFFFFFFFFFFFFFFFFFFFFF AND DUP2 MSTORE PUSH1 0x20 ADD SWAP1 DUP2 MSTORE PUSH1 0x20 ADD PUSH1 0x0 KECCAK256 PUSH1 0x0 PUSH2 0x100 EXP DUP2 SLOAD DUP2 PUSH1 0xFF MUL NOT AND SWAP1 DUP4 ISZERO ISZERO MUL OR SWAP1 SSTORE POP POP JUMP JUMPDEST PUSH1 0x0 PUSH1 0x69 PUSH1 0x0 DUP4 PUSH20 0xFFFFFFFFFFFFFFFFFFFFFFFFFFFFFFFFFFFFFFFF AND PUSH20 0xFFFFFFFFFFFFFFFFFFFFFFFFFFFFFFFFFFFFFFFF AND DUP2 MSTORE PUSH1 0x20 ADD SWAP1 DUP2 MSTORE PUSH1 0x20 ADD PUSH1 0x0 KECCAK256 PUSH1 0x0 SWAP1 SLOAD SWAP1 PUSH2 0x100 EXP SWAP1 DIV PUSH1 0xFF AND SWAP1 POP SWAP2 SWAP1 POP JUMP JUMPDEST PUSH1 0x0 DUP2 DUP4 PUSH2 0x1B2E SWAP2 SWAP1 PUSH2 0x2BAB JUMP JUMPDEST SWAP1 POP SWAP3 SWAP2 POP POP JUMP JUMPDEST PUSH1 0x0 PUSH20 0xFFFFFFFFFFFFFFFFFFFFFFFFFFFFFFFFFFFFFFFF AND DUP3 PUSH20 0xFFFFFFFFFFFFFFFFFFFFFFFFFFFFFFFFFFFFFFFF AND SUB PUSH2 0x1BA5 JUMPI PUSH1 0x40 MLOAD PUSH32 0x8C379A000000000000000000000000000000000000000000000000000000000 DUP2 MSTORE PUSH1 0x4 ADD PUSH2 0x1B9C SWAP1 PUSH2 0x386F JUMP JUMPDEST PUSH1 0x40 MLOAD DUP1 SWAP2 SUB SWAP1 REVERT JUMPDEST PUSH2 0x1BB1 PUSH1 0x0 DUP4 DUP4 PUSH2 0x22D5 JUMP JUMPDEST DUP1 PUSH1 0x35 PUSH1 0x0 DUP3 DUP3 SLOAD PUSH2 0x1BC3 SWAP2 SWAP1 PUSH2 0x2BAB JUMP JUMPDEST SWAP3 POP POP DUP2 SWAP1 SSTORE POP DUP1 PUSH1 0x33 PUSH1 0x0 DUP5 PUSH20 0xFFFFFFFFFFFFFFFFFFFFFFFFFFFFFFFFFFFFFFFF AND PUSH20 0xFFFFFFFFFFFFFFFFFFFFFFFFFFFFFFFFFFFFFFFF AND DUP2 MSTORE PUSH1 0x20 ADD SWAP1 DUP2 MSTORE PUSH1 0x20 ADD PUSH1 0x0 KECCAK256 PUSH1 0x0 DUP3 DUP3 SLOAD ADD SWAP3 POP POP DUP2 SWAP1 SSTORE POP DUP2 PUSH20 0xFFFFFFFFFFFFFFFFFFFFFFFFFFFFFFFFFFFFFFFF AND PUSH1 0x0 PUSH20 0xFFFFFFFFFFFFFFFFFFFFFFFFFFFFFFFFFFFFFFFF AND PUSH32 0xDDF252AD1BE2C89B69C2B068FC378DAA952BA7F163C4A11628F55A4DF523B3EF DUP4 PUSH1 0x40 MLOAD PUSH2 0x1C75 SWAP2 SWAP1 PUSH2 0x2531 JUMP JUMPDEST PUSH1 0x40 MLOAD DUP1 SWAP2 SUB SWAP1 LOG3 PUSH2 0x1C89 PUSH1 0x0 DUP4 DUP4 PUSH2 0x22DA JUMP JUMPDEST POP POP JUMP JUMPDEST PUSH1 0x0 PUSH20 0xFFFFFFFFFFFFFFFFFFFFFFFFFFFFFFFFFFFFFFFF AND DUP3 PUSH20 0xFFFFFFFFFFFFFFFFFFFFFFFFFFFFFFFFFFFFFFFF AND SUB PUSH2 0x1CFC JUMPI PUSH1 0x40 MLOAD PUSH32 0x8C379A000000000000000000000000000000000000000000000000000000000 DUP2 MSTORE PUSH1 0x4 ADD PUSH2 0x1CF3 SWAP1 PUSH2 0x3901 JUMP JUMPDEST PUSH1 0x40 MLOAD DUP1 SWAP2 SUB SWAP1 REVERT JUMPDEST PUSH2 0x1D08 DUP3 PUSH1 0x0 DUP4 PUSH2 0x22D5 JUMP JUMPDEST PUSH1 0x0 PUSH1 0x33 PUSH1 0x0 DUP5 PUSH20 0xFFFFFFFFFFFFFFFFFFFFFFFFFFFFFFFFFFFFFFFF AND PUSH20 0xFFFFFFFFFFFFFFFFFFFFFFFFFFFFFFFFFFFFFFFF AND DUP2 MSTORE PUSH1 0x20 ADD SWAP1 DUP2 MSTORE PUSH1 0x20 ADD PUSH1 0x0 KECCAK256 SLOAD SWAP1 POP DUP2 DUP2 LT ISZERO PUSH2 0x1D8F JUMPI PUSH1 0x40 MLOAD PUSH32 0x8C379A000000000000000000000000000000000000000000000000000000000 DUP2 MSTORE PUSH1 0x4 ADD PUSH2 0x1D86 SWAP1 PUSH2 0x3993 JUMP JUMPDEST PUSH1 0x40 MLOAD DUP1 SWAP2 SUB SWAP1 REVERT JUMPDEST DUP2 DUP2 SUB PUSH1 0x33 PUSH1 0x0 DUP6 PUSH20 0xFFFFFFFFFFFFFFFFFFFFFFFFFFFFFFFFFFFFFFFF AND PUSH20 0xFFFFFFFFFFFFFFFFFFFFFFFFFFFFFFFFFFFFFFFF AND DUP2 MSTORE PUSH1 0x20 ADD SWAP1 DUP2 MSTORE PUSH1 0x20 ADD PUSH1 0x0 KECCAK256 DUP2 SWAP1 SSTORE POP DUP2 PUSH1 0x35 PUSH1 0x0 DUP3 DUP3 SLOAD SUB SWAP3 POP POP DUP2 SWAP1 SSTORE POP PUSH1 0x0 PUSH20 0xFFFFFFFFFFFFFFFFFFFFFFFFFFFFFFFFFFFFFFFF AND DUP4 PUSH20 0xFFFFFFFFFFFFFFFFFFFFFFFFFFFFFFFFFFFFFFFF AND PUSH32 0xDDF252AD1BE2C89B69C2B068FC378DAA952BA7F163C4A11628F55A4DF523B3EF DUP5 PUSH1 0x40 MLOAD PUSH2 0x1E43 SWAP2 SWAP1 PUSH2 0x2531 JUMP JUMPDEST PUSH1 0x40 MLOAD DUP1 SWAP2 SUB SWAP1 LOG3 PUSH2 0x1E57 DUP4 PUSH1 0x0 DUP5 PUSH2 0x22DA JUMP JUMPDEST POP POP POP JUMP JUMPDEST PUSH1 0x0 PUSH1 0x33 PUSH1 0x0 DUP4 PUSH20 0xFFFFFFFFFFFFFFFFFFFFFFFFFFFFFFFFFFFFFFFF AND PUSH20 0xFFFFFFFFFFFFFFFFFFFFFFFFFFFFFFFFFFFFFFFF AND DUP2 MSTORE PUSH1 0x20 ADD SWAP1 DUP2 MSTORE PUSH1 0x20 ADD PUSH1 0x0 KECCAK256 SLOAD SWAP1 POP SWAP2 SWAP1 POP JUMP JUMPDEST PUSH1 0x0 PUSH20 0xFFFFFFFFFFFFFFFFFFFFFFFFFFFFFFFFFFFFFFFF AND DUP4 PUSH20 0xFFFFFFFFFFFFFFFFFFFFFFFFFFFFFFFFFFFFFFFF AND SUB PUSH2 0x1F14 JUMPI PUSH1 0x40 MLOAD PUSH32 0x8C379A000000000000000000000000000000000000000000000000000000000 DUP2 MSTORE PUSH1 0x4 ADD PUSH2 0x1F0B SWAP1 PUSH2 0x3A25 JUMP JUMPDEST PUSH1 0x40 MLOAD DUP1 SWAP2 SUB SWAP1 REVERT JUMPDEST PUSH1 0x0 PUSH20 0xFFFFFFFFFFFFFFFFFFFFFFFFFFFFFFFFFFFFFFFF AND DUP3 PUSH20 0xFFFFFFFFFFFFFFFFFFFFFFFFFFFFFFFFFFFFFFFF AND SUB PUSH2 0x1F83 JUMPI PUSH1 0x40 MLOAD PUSH32 0x8C379A000000000000000000000000000000000000000000000000000000000 DUP2 MSTORE PUSH1 0x4 ADD PUSH2 0x1F7A SWAP1 PUSH2 0x3AB7 JUMP JUMPDEST PUSH1 0x40 MLOAD DUP1 SWAP2 SUB SWAP1 REVERT JUMPDEST PUSH2 0x1F8E DUP4 DUP4 DUP4 PUSH2 0x22D5 JUMP JUMPDEST PUSH1 0x0 PUSH1 0x33 PUSH1 0x0 DUP6 PUSH20 0xFFFFFFFFFFFFFFFFFFFFFFFFFFFFFFFFFFFFFFFF AND PUSH20 0xFFFFFFFFFFFFFFFFFFFFFFFFFFFFFFFFFFFFFFFF AND DUP2 MSTORE PUSH1 0x20 ADD SWAP1 DUP2 MSTORE PUSH1 0x20 ADD PUSH1 0x0 KECCAK256 SLOAD SWAP1 POP DUP2 DUP2 LT ISZERO PUSH2 0x2015 JUMPI PUSH1 0x40 MLOAD PUSH32 0x8C379A000000000000000000000000000000000000000000000000000000000 DUP2 MSTORE PUSH1 0x4 ADD PUSH2 0x200C SWAP1 PUSH2 0x3B49 JUMP JUMPDEST PUSH1 0x40 MLOAD DUP1 SWAP2 SUB SWAP1 REVERT JUMPDEST DUP2 DUP2 SUB PUSH1 0x33 PUSH1 0x0 DUP7 PUSH20 0xFFFFFFFFFFFFFFFFFFFFFFFFFFFFFFFFFFFFFFFF AND PUSH20 0xFFFFFFFFFFFFFFFFFFFFFFFFFFFFFFFFFFFFFFFF AND DUP2 MSTORE PUSH1 0x20 ADD SWAP1 DUP2 MSTORE PUSH1 0x20 ADD PUSH1 0x0 KECCAK256 DUP2 SWAP1 SSTORE POP DUP2 PUSH1 0x33 PUSH1 0x0 DUP6 PUSH20 0xFFFFFFFFFFFFFFFFFFFFFFFFFFFFFFFFFFFFFFFF AND PUSH20 0xFFFFFFFFFFFFFFFFFFFFFFFFFFFFFFFFFFFFFFFF AND DUP2 MSTORE PUSH1 0x20 ADD SWAP1 DUP2 MSTORE PUSH1 0x20 ADD PUSH1 0x0 KECCAK256 PUSH1 0x0 DUP3 DUP3 SLOAD ADD SWAP3 POP POP DUP2 SWAP1 SSTORE POP DUP3 PUSH20 0xFFFFFFFFFFFFFFFFFFFFFFFFFFFFFFFFFFFFFFFF AND DUP5 PUSH20 0xFFFFFFFFFFFFFFFFFFFFFFFFFFFFFFFFFFFFFFFF AND PUSH32 0xDDF252AD1BE2C89B69C2B068FC378DAA952BA7F163C4A11628F55A4DF523B3EF DUP5 PUSH1 0x40 MLOAD PUSH2 0x2105 SWAP2 SWAP1 PUSH2 0x2531 JUMP JUMPDEST PUSH1 0x40 MLOAD DUP1 SWAP2 SUB SWAP1 LOG3 PUSH2 0x2118 DUP5 DUP5 DUP5 PUSH2 0x22DA JUMP JUMPDEST POP POP POP POP JUMP JUMPDEST PUSH1 0x0 DUP1 CHAINID SWAP1 POP PUSH1 0x0 PUSH32 0x8B73C3C69BB8FE3D512ECC4CF759CC79239F7B179B0FFACAA9A75D522B39400F PUSH2 0x214F PUSH2 0x5B2 JUMP JUMPDEST DUP1 MLOAD SWAP1 PUSH1 0x20 ADD KECCAK256 PUSH1 0x40 MLOAD DUP1 PUSH1 0x40 ADD PUSH1 0x40 MSTORE DUP1 PUSH1 0x1 DUP2 MSTORE PUSH1 0x20 ADD PUSH32 0x3100000000000000000000000000000000000000000000000000000000000000 DUP2 MSTORE POP DUP1 MLOAD SWAP1 PUSH1 0x20 ADD KECCAK256 DUP5 ADDRESS PUSH1 0x40 MLOAD PUSH1 0x20 ADD PUSH2 0x21A9 SWAP6 SWAP5 SWAP4 SWAP3 SWAP2 SWAP1 PUSH2 0x3B69 JUMP JUMPDEST PUSH1 0x40 MLOAD PUSH1 0x20 DUP2 DUP4 SUB SUB DUP2 MSTORE SWAP1 PUSH1 0x40 MSTORE DUP1 MLOAD SWAP1 PUSH1 0x20 ADD KECCAK256 SWAP1 POP DUP1 SWAP3 POP POP POP SWAP1 JUMP JUMPDEST PUSH1 0x0 DUP1 DUP3 PUSH20 0xFFFFFFFFFFFFFFFFFFFFFFFFFFFFFFFFFFFFFFFF AND EXTCODESIZE GT SWAP1 POP SWAP2 SWAP1 POP JUMP JUMPDEST PUSH1 0x0 PUSH1 0x1 SWAP1 SLOAD SWAP1 PUSH2 0x100 EXP SWAP1 DIV PUSH1 0xFF AND PUSH2 0x223B JUMPI PUSH1 0x40 MLOAD PUSH32 0x8C379A000000000000000000000000000000000000000000000000000000000 DUP2 MSTORE PUSH1 0x4 ADD PUSH2 0x2232 SWAP1 PUSH2 0x3C2E JUMP JUMPDEST PUSH1 0x40 MLOAD DUP1 SWAP2 SUB SWAP1 REVERT JUMPDEST PUSH2 0x2245 DUP3 DUP3 PUSH2 0x22DF JUMP JUMPDEST POP POP JUMP JUMPDEST PUSH1 0x0 PUSH2 0x2255 DUP5 DUP5 PUSH2 0x127A JUMP JUMPDEST SWAP1 POP PUSH32 0xFFFFFFFFFFFFFFFFFFFFFFFFFFFFFFFFFFFFFFFFFFFFFFFFFFFFFFFFFFFFFFFF DUP2 EQ PUSH2 0x22CF JUMPI DUP2 DUP2 LT ISZERO PUSH2 0x22C1 JUMPI PUSH1 0x40 MLOAD PUSH32 0x8C379A000000000000000000000000000000000000000000000000000000000 DUP2 MSTORE PUSH1 0x4 ADD PUSH2 0x22B8 SWAP1 PUSH2 0x3C9A JUMP JUMPDEST PUSH1 0x40 MLOAD DUP1 SWAP2 SUB SWAP1 REVERT JUMPDEST PUSH2 0x22CE DUP5 DUP5 DUP5 DUP5 SUB PUSH2 0x1877 JUMP JUMPDEST JUMPDEST POP POP POP POP JUMP JUMPDEST POP POP POP JUMP JUMPDEST POP POP POP JUMP JUMPDEST PUSH1 0x0 PUSH1 0x1 SWAP1 SLOAD SWAP1 PUSH2 0x100 EXP SWAP1 DIV PUSH1 0xFF AND PUSH2 0x232E JUMPI PUSH1 0x40 MLOAD PUSH32 0x8C379A000000000000000000000000000000000000000000000000000000000 DUP2 MSTORE PUSH1 0x4 ADD PUSH2 0x2325 SWAP1 PUSH2 0x3C2E JUMP JUMPDEST PUSH1 0x40 MLOAD DUP1 SWAP2 SUB SWAP1 REVERT JUMPDEST DUP2 PUSH1 0x36 SWAP1 DUP2 PUSH2 0x233D SWAP2 SWAP1 PUSH2 0x3E5C JUMP JUMPDEST POP DUP1 PUSH1 0x37 SWAP1 DUP2 PUSH2 0x234D SWAP2 SWAP1 PUSH2 0x3E5C JUMP JUMPDEST POP POP POP JUMP JUMPDEST PUSH1 0x0 DUP2 MLOAD SWAP1 POP SWAP2 SWAP1 POP JUMP JUMPDEST PUSH1 0x0 DUP3 DUP3 MSTORE PUSH1 0x20 DUP3 ADD SWAP1 POP SWAP3 SWAP2 POP POP JUMP JUMPDEST PUSH1 0x0 JUMPDEST DUP4 DUP2 LT ISZERO PUSH2 0x238C JUMPI DUP1 DUP3 ADD MLOAD DUP2 DUP5 ADD MSTORE PUSH1 0x20 DUP2 ADD SWAP1 POP PUSH2 0x2371 JUMP JUMPDEST PUSH1 0x0 DUP5 DUP5 ADD MSTORE POP POP POP POP JUMP JUMPDEST PUSH1 0x0 PUSH1 0x1F NOT PUSH1 0x1F DUP4 ADD AND SWAP1 POP SWAP2 SWAP1 POP JUMP JUMPDEST PUSH1 0x0 PUSH2 0x23B4 DUP3 PUSH2 0x2352 JUMP JUMPDEST PUSH2 0x23BE DUP2 DUP6 PUSH2 0x235D JUMP JUMPDEST SWAP4 POP PUSH2 0x23CE DUP2 DUP6 PUSH1 0x20 DUP7 ADD PUSH2 0x236E JUMP JUMPDEST PUSH2 0x23D7 DUP2 PUSH2 0x2398 JUMP JUMPDEST DUP5 ADD SWAP2 POP POP SWAP3 SWAP2 POP POP JUMP JUMPDEST PUSH1 0x0 PUSH1 0x20 DUP3 ADD SWAP1 POP DUP2 DUP2 SUB PUSH1 0x0 DUP4 ADD MSTORE PUSH2 0x23FC DUP2 DUP5 PUSH2 0x23A9 JUMP JUMPDEST SWAP1 POP SWAP3 SWAP2 POP POP JUMP JUMPDEST PUSH1 0x0 PUSH1 0x40 MLOAD SWAP1 POP SWAP1 JUMP JUMPDEST PUSH1 0x0 DUP1 REVERT JUMPDEST PUSH1 0x0 DUP1 REVERT JUMPDEST PUSH1 0x0 PUSH20 0xFFFFFFFFFFFFFFFFFFFFFFFFFFFFFFFFFFFFFFFF DUP3 AND SWAP1 POP SWAP2 SWAP1 POP JUMP JUMPDEST PUSH1 0x0 PUSH2 0x2443 DUP3 PUSH2 0x2418 JUMP JUMPDEST SWAP1 POP SWAP2 SWAP1 POP JUMP JUMPDEST PUSH2 0x2453 DUP2 PUSH2 0x2438 JUMP JUMPDEST DUP2 EQ PUSH2 0x245E JUMPI PUSH1 0x0 DUP1 REVERT JUMPDEST POP JUMP JUMPDEST PUSH1 0x0 DUP2 CALLDATALOAD SWAP1 POP PUSH2 0x2470 DUP2 PUSH2 0x244A JUMP JUMPDEST SWAP3 SWAP2 POP POP JUMP JUMPDEST PUSH1 0x0 DUP2 SWAP1 POP SWAP2 SWAP1 POP JUMP JUMPDEST PUSH2 0x2489 DUP2 PUSH2 0x2476 JUMP JUMPDEST DUP2 EQ PUSH2 0x2494 JUMPI PUSH1 0x0 DUP1 REVERT JUMPDEST POP JUMP JUMPDEST PUSH1 0x0 DUP2 CALLDATALOAD SWAP1 POP PUSH2 0x24A6 DUP2 PUSH2 0x2480 JUMP JUMPDEST SWAP3 SWAP2 POP POP JUMP JUMPDEST PUSH1 0x0 DUP1 PUSH1 0x40 DUP4 DUP6 SUB SLT ISZERO PUSH2 0x24C3 JUMPI PUSH2 0x24C2 PUSH2 0x240E JUMP JUMPDEST JUMPDEST PUSH1 0x0 PUSH2 0x24D1 DUP6 DUP3 DUP7 ADD PUSH2 0x2461 JUMP JUMPDEST SWAP3 POP POP PUSH1 0x20 PUSH2 0x24E2 DUP6 DUP3 DUP7 ADD PUSH2 0x2497 JUMP JUMPDEST SWAP2 POP POP SWAP3 POP SWAP3 SWAP1 POP JUMP JUMPDEST PUSH1 0x0 DUP2 ISZERO ISZERO SWAP1 POP SWAP2 SWAP1 POP JUMP JUMPDEST PUSH2 0x2501 DUP2 PUSH2 0x24EC JUMP JUMPDEST DUP3 MSTORE POP POP JUMP JUMPDEST PUSH1 0x0 PUSH1 0x20 DUP3 ADD SWAP1 POP PUSH2 0x251C PUSH1 0x0 DUP4 ADD DUP5 PUSH2 0x24F8 JUMP JUMPDEST SWAP3 SWAP2 POP POP JUMP JUMPDEST PUSH2 0x252B DUP2 PUSH2 0x2476 JUMP JUMPDEST DUP3 MSTORE POP POP JUMP JUMPDEST PUSH1 0x0 PUSH1 0x20 DUP3 ADD SWAP1 POP PUSH2 0x2546 PUSH1 0x0 DUP4 ADD DUP5 PUSH2 0x2522 JUMP JUMPDEST SWAP3 SWAP2 POP POP JUMP JUMPDEST PUSH1 0x0 DUP1 PUSH1 0x0 PUSH1 0x60 DUP5 DUP7 SUB SLT ISZERO PUSH2 0x2565 JUMPI PUSH2 0x2564 PUSH2 0x240E JUMP JUMPDEST JUMPDEST PUSH1 0x0 PUSH2 0x2573 DUP7 DUP3 DUP8 ADD PUSH2 0x2461 JUMP JUMPDEST SWAP4 POP POP PUSH1 0x20 PUSH2 0x2584 DUP7 DUP3 DUP8 ADD PUSH2 0x2461 JUMP JUMPDEST SWAP3 POP POP PUSH1 0x40 PUSH2 0x2595 DUP7 DUP3 DUP8 ADD PUSH2 0x2497 JUMP JUMPDEST SWAP2 POP POP SWAP3 POP SWAP3 POP SWAP3 JUMP JUMPDEST PUSH1 0x0 DUP1 PUSH1 0x0 PUSH1 0x60 DUP5 DUP7 SUB SLT ISZERO PUSH2 0x25B8 JUMPI PUSH2 0x25B7 PUSH2 0x240E JUMP JUMPDEST JUMPDEST PUSH1 0x0 PUSH2 0x25C6 DUP7 DUP3 DUP8 ADD PUSH2 0x2461 JUMP JUMPDEST SWAP4 POP POP PUSH1 0x20 PUSH2 0x25D7 DUP7 DUP3 DUP8 ADD PUSH2 0x2497 JUMP JUMPDEST SWAP3 POP POP PUSH1 0x40 PUSH2 0x25E8 DUP7 DUP3 DUP8 ADD PUSH2 0x2497 JUMP JUMPDEST SWAP2 POP POP SWAP3 POP SWAP3 POP SWAP3 JUMP JUMPDEST PUSH1 0x0 DUP2 SWAP1 POP SWAP2 SWAP1 POP JUMP JUMPDEST PUSH2 0x2605 DUP2 PUSH2 0x25F2 JUMP JUMPDEST DUP3 MSTORE POP POP JUMP JUMPDEST PUSH1 0x0 PUSH1 0x20 DUP3 ADD SWAP1 POP PUSH2 0x2620 PUSH1 0x0 DUP4 ADD DUP5 PUSH2 0x25FC JUMP JUMPDEST SWAP3 SWAP2 POP POP JUMP JUMPDEST PUSH1 0x0 PUSH1 0xFF DUP3 AND SWAP1 POP SWAP2 SWAP1 POP JUMP JUMPDEST PUSH2 0x263C DUP2 PUSH2 0x2626 JUMP JUMPDEST DUP3 MSTORE POP POP JUMP JUMPDEST PUSH1 0x0 PUSH1 0x20 DUP3 ADD SWAP1 POP PUSH2 0x2657 PUSH1 0x0 DUP4 ADD DUP5 PUSH2 0x2633 JUMP JUMPDEST SWAP3 SWAP2 POP POP JUMP JUMPDEST PUSH1 0x0 PUSH1 0x20 DUP3 DUP5 SUB SLT ISZERO PUSH2 0x2673 JUMPI PUSH2 0x2672 PUSH2 0x240E JUMP JUMPDEST JUMPDEST PUSH1 0x0 PUSH2 0x2681 DUP5 DUP3 DUP6 ADD PUSH2 0x2497 JUMP JUMPDEST SWAP2 POP POP SWAP3 SWAP2 POP POP JUMP JUMPDEST PUSH1 0x0 PUSH1 0x20 DUP3 DUP5 SUB SLT ISZERO PUSH2 0x26A0 JUMPI PUSH2 0x269F PUSH2 0x240E JUMP JUMPDEST JUMPDEST PUSH1 0x0 PUSH2 0x26AE DUP5 DUP3 DUP6 ADD PUSH2 0x2461 JUMP JUMPDEST SWAP2 POP POP SWAP3 SWAP2 POP POP JUMP JUMPDEST PUSH2 0x26C0 DUP2 PUSH2 0x2438 JUMP JUMPDEST DUP3 MSTORE POP POP JUMP JUMPDEST PUSH1 0x0 PUSH1 0x20 DUP3 ADD SWAP1 POP PUSH2 0x26DB PUSH1 0x0 DUP4 ADD DUP5 PUSH2 0x26B7 JUMP JUMPDEST SWAP3 SWAP2 POP POP JUMP JUMPDEST PUSH2 0x26EA DUP2 PUSH2 0x2626 JUMP JUMPDEST DUP2 EQ PUSH2 0x26F5 JUMPI PUSH1 0x0 DUP1 REVERT JUMPDEST POP JUMP JUMPDEST PUSH1 0x0 DUP2 CALLDATALOAD SWAP1 POP PUSH2 0x2707 DUP2 PUSH2 0x26E1 JUMP JUMPDEST SWAP3 SWAP2 POP POP JUMP JUMPDEST PUSH2 0x2716 DUP2 PUSH2 0x25F2 JUMP JUMPDEST DUP2 EQ PUSH2 0x2721 JUMPI PUSH1 0x0 DUP1 REVERT JUMPDEST POP JUMP JUMPDEST PUSH1 0x0 DUP2 CALLDATALOAD SWAP1 POP PUSH2 0x2733 DUP2 PUSH2 0x270D JUMP JUMPDEST SWAP3 SWAP2 POP POP JUMP JUMPDEST PUSH1 0x0 DUP1 PUSH1 0x0 DUP1 PUSH1 0x0 DUP1 PUSH1 0x0 PUSH1 0xE0 DUP9 DUP11 SUB SLT ISZERO PUSH2 0x2758 JUMPI PUSH2 0x2757 PUSH2 0x240E JUMP JUMPDEST JUMPDEST PUSH1 0x0 PUSH2 0x2766 DUP11 DUP3 DUP12 ADD PUSH2 0x2461 JUMP JUMPDEST SWAP8 POP POP PUSH1 0x20 PUSH2 0x2777 DUP11 DUP3 DUP12 ADD PUSH2 0x2461 JUMP JUMPDEST SWAP7 POP POP PUSH1 0x40 PUSH2 0x2788 DUP11 DUP3 DUP12 ADD PUSH2 0x2497 JUMP JUMPDEST SWAP6 POP POP PUSH1 0x60 PUSH2 0x2799 DUP11 DUP3 DUP12 ADD PUSH2 0x2497 JUMP JUMPDEST SWAP5 POP POP PUSH1 0x80 PUSH2 0x27AA DUP11 DUP3 DUP12 ADD PUSH2 0x26F8 JUMP JUMPDEST SWAP4 POP POP PUSH1 0xA0 PUSH2 0x27BB DUP11 DUP3 DUP12 ADD PUSH2 0x2724 JUMP JUMPDEST SWAP3 POP POP PUSH1 0xC0 PUSH2 0x27CC DUP11 DUP3 DUP12 ADD PUSH2 0x2724 JUMP JUMPDEST SWAP2 POP POP SWAP3 SWAP6 SWAP9 SWAP2 SWAP5 SWAP8 POP SWAP3 SWAP6 POP JUMP JUMPDEST PUSH1 0x0 DUP1 PUSH1 0x40 DUP4 DUP6 SUB SLT ISZERO PUSH2 0x27F2 JUMPI PUSH2 0x27F1 PUSH2 0x240E JUMP JUMPDEST JUMPDEST PUSH1 0x0 PUSH2 0x2800 DUP6 DUP3 DUP7 ADD PUSH2 0x2461 JUMP JUMPDEST SWAP3 POP POP PUSH1 0x20 PUSH2 0x2811 DUP6 DUP3 DUP7 ADD PUSH2 0x2461 JUMP JUMPDEST SWAP2 POP POP SWAP3 POP SWAP3 SWAP1 POP JUMP JUMPDEST PUSH1 0x0 DUP1 REVERT JUMPDEST PUSH1 0x0 DUP1 REVERT JUMPDEST PUSH32 0x4E487B7100000000000000000000000000000000000000000000000000000000 PUSH1 0x0 MSTORE PUSH1 0x41 PUSH1 0x4 MSTORE PUSH1 0x24 PUSH1 0x0 REVERT JUMPDEST PUSH2 0x285D DUP3 PUSH2 0x2398 JUMP JUMPDEST DUP2 ADD DUP2 DUP2 LT PUSH8 0xFFFFFFFFFFFFFFFF DUP3 GT OR ISZERO PUSH2 0x287C JUMPI PUSH2 0x287B PUSH2 0x2825 JUMP JUMPDEST JUMPDEST DUP1 PUSH1 0x40 MSTORE POP POP POP JUMP JUMPDEST PUSH1 0x0 PUSH2 0x288F PUSH2 0x2404 JUMP JUMPDEST SWAP1 POP PUSH2 0x289B DUP3 DUP3 PUSH2 0x2854 JUMP JUMPDEST SWAP2 SWAP1 POP JUMP JUMPDEST PUSH1 0x0 PUSH8 0xFFFFFFFFFFFFFFFF DUP3 GT ISZERO PUSH2 0x28BB JUMPI PUSH2 0x28BA PUSH2 0x2825 JUMP JUMPDEST JUMPDEST PUSH2 0x28C4 DUP3 PUSH2 0x2398 JUMP JUMPDEST SWAP1 POP PUSH1 0x20 DUP2 ADD SWAP1 POP SWAP2 SWAP1 POP JUMP JUMPDEST DUP3 DUP2 DUP4 CALLDATACOPY PUSH1 0x0 DUP4 DUP4 ADD MSTORE POP POP POP JUMP JUMPDEST PUSH1 0x0 PUSH2 0x28F3 PUSH2 0x28EE DUP5 PUSH2 0x28A0 JUMP JUMPDEST PUSH2 0x2885 JUMP JUMPDEST SWAP1 POP DUP3 DUP2 MSTORE PUSH1 0x20 DUP2 ADD DUP5 DUP5 DUP5 ADD GT ISZERO PUSH2 0x290F JUMPI PUSH2 0x290E PUSH2 0x2820 JUMP JUMPDEST JUMPDEST PUSH2 0x291A DUP5 DUP3 DUP6 PUSH2 0x28D1 JUMP JUMPDEST POP SWAP4 SWAP3 POP POP POP JUMP JUMPDEST PUSH1 0x0 DUP3 PUSH1 0x1F DUP4 ADD SLT PUSH2 0x2937 JUMPI PUSH2 0x2936 PUSH2 0x281B JUMP JUMPDEST JUMPDEST DUP2 CALLDATALOAD PUSH2 0x2947 DUP5 DUP3 PUSH1 0x20 DUP7 ADD PUSH2 0x28E0 JUMP JUMPDEST SWAP2 POP POP SWAP3 SWAP2 POP POP JUMP JUMPDEST PUSH1 0x0 DUP1 PUSH1 0x0 DUP1 PUSH1 0x0 DUP1 PUSH1 0xC0 DUP8 DUP10 SUB SLT ISZERO PUSH2 0x296D JUMPI PUSH2 0x296C PUSH2 0x240E JUMP JUMPDEST JUMPDEST PUSH1 0x0 DUP8 ADD CALLDATALOAD PUSH8 0xFFFFFFFFFFFFFFFF DUP2 GT ISZERO PUSH2 0x298B JUMPI PUSH2 0x298A PUSH2 0x2413 JUMP JUMPDEST JUMPDEST PUSH2 0x2997 DUP10 DUP3 DUP11 ADD PUSH2 0x2922 JUMP JUMPDEST SWAP7 POP POP PUSH1 0x20 DUP8 ADD CALLDATALOAD PUSH8 0xFFFFFFFFFFFFFFFF DUP2 GT ISZERO PUSH2 0x29B8 JUMPI PUSH2 0x29B7 PUSH2 0x2413 JUMP JUMPDEST JUMPDEST PUSH2 0x29C4 DUP10 DUP3 DUP11 ADD PUSH2 0x2922 JUMP JUMPDEST SWAP6 POP POP PUSH1 0x40 PUSH2 0x29D5 DUP10 DUP3 DUP11 ADD PUSH2 0x2461 JUMP JUMPDEST SWAP5 POP POP PUSH1 0x60 PUSH2 0x29E6 DUP10 DUP3 DUP11 ADD PUSH2 0x2461 JUMP JUMPDEST SWAP4 POP POP PUSH1 0x80 PUSH2 0x29F7 DUP10 DUP3 DUP11 ADD PUSH2 0x2461 JUMP JUMPDEST SWAP3 POP POP PUSH1 0xA0 PUSH2 0x2A08 DUP10 DUP3 DUP11 ADD PUSH2 0x2497 JUMP JUMPDEST SWAP2 POP POP SWAP3 SWAP6 POP SWAP3 SWAP6 POP SWAP3 SWAP6 JUMP JUMPDEST PUSH32 0x4E487B7100000000000000000000000000000000000000000000000000000000 PUSH1 0x0 MSTORE PUSH1 0x22 PUSH1 0x4 MSTORE PUSH1 0x24 PUSH1 0x0 REVERT JUMPDEST PUSH1 0x0 PUSH1 0x2 DUP3 DIV SWAP1 POP PUSH1 0x1 DUP3 AND DUP1 PUSH2 0x2A5C JUMPI PUSH1 0x7F DUP3 AND SWAP2 POP JUMPDEST PUSH1 0x20 DUP3 LT DUP2 SUB PUSH2 0x2A6F JUMPI PUSH2 0x2A6E PUSH2 0x2A15 JUMP JUMPDEST JUMPDEST POP SWAP2 SWAP1 POP JUMP JUMPDEST PUSH1 0x0 DUP2 SWAP1 POP SWAP2 SWAP1 POP JUMP JUMPDEST PUSH1 0x0 PUSH2 0x2A9A PUSH2 0x2A95 PUSH2 0x2A90 DUP5 PUSH2 0x2626 JUMP JUMPDEST PUSH2 0x2A75 JUMP JUMPDEST PUSH2 0x2476 JUMP JUMPDEST SWAP1 POP SWAP2 SWAP1 POP JUMP JUMPDEST PUSH2 0x2AAA DUP2 PUSH2 0x2A7F JUMP JUMPDEST DUP3 MSTORE POP POP JUMP JUMPDEST PUSH1 0x0 PUSH1 0xA0 DUP3 ADD SWAP1 POP PUSH2 0x2AC5 PUSH1 0x0 DUP4 ADD DUP9 PUSH2 0x26B7 JUMP JUMPDEST PUSH2 0x2AD2 PUSH1 0x20 DUP4 ADD DUP8 PUSH2 0x26B7 JUMP JUMPDEST PUSH2 0x2ADF PUSH1 0x40 DUP4 ADD DUP7 PUSH2 0x2522 JUMP JUMPDEST PUSH2 0x2AEC PUSH1 0x60 DUP4 ADD DUP6 PUSH2 0x2AA1 JUMP JUMPDEST PUSH2 0x2AF9 PUSH1 0x80 DUP4 ADD DUP5 PUSH2 0x2522 JUMP JUMPDEST SWAP7 SWAP6 POP POP POP POP POP POP JUMP JUMPDEST PUSH1 0x0 DUP2 MLOAD SWAP1 POP PUSH2 0x2B12 DUP2 PUSH2 0x270D JUMP JUMPDEST SWAP3 SWAP2 POP POP JUMP JUMPDEST PUSH1 0x0 PUSH1 0x20 DUP3 DUP5 SUB SLT ISZERO PUSH2 0x2B2E JUMPI PUSH2 0x2B2D PUSH2 0x240E JUMP JUMPDEST JUMPDEST PUSH1 0x0 PUSH2 0x2B3C DUP5 DUP3 DUP6 ADD PUSH2 0x2B03 JUMP JUMPDEST SWAP2 POP POP SWAP3 SWAP2 POP POP JUMP JUMPDEST PUSH1 0x0 PUSH1 0x60 DUP3 ADD SWAP1 POP PUSH2 0x2B5A PUSH1 0x0 DUP4 ADD DUP7 PUSH2 0x25FC JUMP JUMPDEST PUSH2 0x2B67 PUSH1 0x20 DUP4 ADD DUP6 PUSH2 0x26B7 JUMP JUMPDEST PUSH2 0x2B74 PUSH1 0x40 DUP4 ADD DUP5 PUSH2 0x26B7 JUMP JUMPDEST SWAP5 SWAP4 POP POP POP POP JUMP JUMPDEST PUSH32 0x4E487B7100000000000000000000000000000000000000000000000000000000 PUSH1 0x0 MSTORE PUSH1 0x11 PUSH1 0x4 MSTORE PUSH1 0x24 PUSH1 0x0 REVERT JUMPDEST PUSH1 0x0 PUSH2 0x2BB6 DUP3 PUSH2 0x2476 JUMP JUMPDEST SWAP2 POP PUSH2 0x2BC1 DUP4 PUSH2 0x2476 JUMP JUMPDEST SWAP3 POP DUP3 DUP3 ADD SWAP1 POP DUP1 DUP3 GT ISZERO PUSH2 0x2BD9 JUMPI PUSH2 0x2BD8 PUSH2 0x2B7C JUMP JUMPDEST JUMPDEST SWAP3 SWAP2 POP POP JUMP JUMPDEST PUSH32 0x4E6F2062616C616E636520746F20776974686472617700000000000000000000 PUSH1 0x0 DUP3 ADD MSTORE POP JUMP JUMPDEST PUSH1 0x0 PUSH2 0x2C15 PUSH1 0x16 DUP4 PUSH2 0x235D JUMP JUMPDEST SWAP2 POP PUSH2 0x2C20 DUP3 PUSH2 0x2BDF JUMP JUMPDEST PUSH1 0x20 DUP3 ADD SWAP1 POP SWAP2 SWAP1 POP JUMP JUMPDEST PUSH1 0x0 PUSH1 0x20 DUP3 ADD SWAP1 POP DUP2 DUP2 SUB PUSH1 0x0 DUP4 ADD MSTORE PUSH2 0x2C44 DUP2 PUSH2 0x2C08 JUMP JUMPDEST SWAP1 POP SWAP2 SWAP1 POP JUMP JUMPDEST PUSH1 0x0 DUP2 SWAP1 POP SWAP3 SWAP2 POP POP JUMP JUMPDEST POP JUMP JUMPDEST PUSH1 0x0 PUSH2 0x2C66 PUSH1 0x0 DUP4 PUSH2 0x2C4B JUMP JUMPDEST SWAP2 POP PUSH2 0x2C71 DUP3 PUSH2 0x2C56 JUMP JUMPDEST PUSH1 0x0 DUP3 ADD SWAP1 POP SWAP2 SWAP1 POP JUMP JUMPDEST PUSH1 0x0 PUSH2 0x2C87 DUP3 PUSH2 0x2C59 JUMP JUMPDEST SWAP2 POP DUP2 SWAP1 POP SWAP2 SWAP1 POP JUMP JUMPDEST PUSH32 0x4661696C656420746F2077697468647261770000000000000000000000000000 PUSH1 0x0 DUP3 ADD MSTORE POP JUMP JUMPDEST PUSH1 0x0 PUSH2 0x2CC7 PUSH1 0x12 DUP4 PUSH2 0x235D JUMP JUMPDEST SWAP2 POP PUSH2 0x2CD2 DUP3 PUSH2 0x2C91 JUMP JUMPDEST PUSH1 0x20 DUP3 ADD SWAP1 POP SWAP2 SWAP1 POP JUMP JUMPDEST PUSH1 0x0 PUSH1 0x20 DUP3 ADD SWAP1 POP DUP2 DUP2 SUB PUSH1 0x0 DUP4 ADD MSTORE PUSH2 0x2CF6 DUP2 PUSH2 0x2CBA JUMP JUMPDEST SWAP1 POP SWAP2 SWAP1 POP JUMP JUMPDEST PUSH32 0x4E4F5420414C4C4F57454420544F204D494E5420445473000000000000000000 PUSH1 0x0 DUP3 ADD MSTORE POP JUMP JUMPDEST PUSH1 0x0 PUSH2 0x2D33 PUSH1 0x17 DUP4 PUSH2 0x235D JUMP JUMPDEST SWAP2 POP PUSH2 0x2D3E DUP3 PUSH2 0x2CFD JUMP JUMPDEST PUSH1 0x20 DUP3 ADD SWAP1 POP SWAP2 SWAP1 POP JUMP JUMPDEST PUSH1 0x0 PUSH1 0x20 DUP3 ADD SWAP1 POP DUP2 DUP2 SUB PUSH1 0x0 DUP4 ADD MSTORE PUSH2 0x2D62 DUP2 PUSH2 0x2D26 JUMP JUMPDEST SWAP1 POP SWAP2 SWAP1 POP JUMP JUMPDEST PUSH32 0x43616E6E6F742065786365656420746865206361700000000000000000000000 PUSH1 0x0 DUP3 ADD MSTORE POP JUMP JUMPDEST PUSH1 0x0 PUSH2 0x2D9F PUSH1 0x15 DUP4 PUSH2 0x235D JUMP JUMPDEST SWAP2 POP PUSH2 0x2DAA DUP3 PUSH2 0x2D69 JUMP JUMPDEST PUSH1 0x20 DUP3 ADD SWAP1 POP SWAP2 SWAP1 POP JUMP JUMPDEST PUSH1 0x0 PUSH1 0x20 DUP3 ADD SWAP1 POP DUP2 DUP2 SUB PUSH1 0x0 DUP4 ADD MSTORE PUSH2 0x2DCE DUP2 PUSH2 0x2D92 JUMP JUMPDEST SWAP1 POP SWAP2 SWAP1 POP JUMP JUMPDEST PUSH32 0x4E4F5420414C4C4F57454420544F204255524E00000000000000000000000000 PUSH1 0x0 DUP3 ADD MSTORE POP JUMP JUMPDEST PUSH1 0x0 PUSH2 0x2E0B PUSH1 0x13 DUP4 PUSH2 0x235D JUMP JUMPDEST SWAP2 POP PUSH2 0x2E16 DUP3 PUSH2 0x2DD5 JUMP JUMPDEST PUSH1 0x20 DUP3 ADD SWAP1 POP SWAP2 SWAP1 POP JUMP JUMPDEST PUSH1 0x0 PUSH1 0x20 DUP3 ADD SWAP1 POP DUP2 DUP2 SUB PUSH1 0x0 DUP4 ADD MSTORE PUSH2 0x2E3A DUP2 PUSH2 0x2DFE JUMP JUMPDEST SWAP1 POP SWAP2 SWAP1 POP JUMP JUMPDEST PUSH32 0x45524332303A2064656372656173656420616C6C6F77616E63652062656C6F77 PUSH1 0x0 DUP3 ADD MSTORE PUSH32 0x207A65726F000000000000000000000000000000000000000000000000000000 PUSH1 0x20 DUP3 ADD MSTORE POP JUMP JUMPDEST PUSH1 0x0 PUSH2 0x2E9D PUSH1 0x25 DUP4 PUSH2 0x235D JUMP JUMPDEST SWAP2 POP PUSH2 0x2EA8 DUP3 PUSH2 0x2E41 JUMP JUMPDEST PUSH1 0x40 DUP3 ADD SWAP1 POP SWAP2 SWAP1 POP JUMP JUMPDEST PUSH1 0x0 PUSH1 0x20 DUP3 ADD SWAP1 POP DUP2 DUP2 SUB PUSH1 0x0 DUP4 ADD MSTORE PUSH2 0x2ECC DUP2 PUSH2 0x2E90 JUMP JUMPDEST SWAP1 POP SWAP2 SWAP1 POP JUMP JUMPDEST PUSH32 0x4552433230445420455850495245440000000000000000000000000000000000 PUSH1 0x0 DUP3 ADD MSTORE POP JUMP JUMPDEST PUSH1 0x0 PUSH2 0x2F09 PUSH1 0xF DUP4 PUSH2 0x235D JUMP JUMPDEST SWAP2 POP PUSH2 0x2F14 DUP3 PUSH2 0x2ED3 JUMP JUMPDEST PUSH1 0x20 DUP3 ADD SWAP1 POP SWAP2 SWAP1 POP JUMP JUMPDEST PUSH1 0x0 PUSH1 0x20 DUP3 ADD SWAP1 POP DUP2 DUP2 SUB PUSH1 0x0 DUP4 ADD MSTORE PUSH2 0x2F38 DUP2 PUSH2 0x2EFC JUMP JUMPDEST SWAP1 POP SWAP2 SWAP1 POP JUMP JUMPDEST PUSH1 0x0 DUP2 MLOAD SWAP1 POP PUSH2 0x2F4E DUP2 PUSH2 0x244A JUMP JUMPDEST SWAP3 SWAP2 POP POP JUMP JUMPDEST PUSH1 0x0 PUSH1 0x20 DUP3 DUP5 SUB SLT ISZERO PUSH2 0x2F6A JUMPI PUSH2 0x2F69 PUSH2 0x240E JUMP JUMPDEST JUMPDEST PUSH1 0x0 PUSH2 0x2F78 DUP5 DUP3 DUP6 ADD PUSH2 0x2F3F JUMP JUMPDEST SWAP2 POP POP SWAP3 SWAP2 POP POP JUMP JUMPDEST PUSH32 0x4F776E6572206E6F7420746865204E4654206F776E6572000000000000000000 PUSH1 0x0 DUP3 ADD MSTORE POP JUMP JUMPDEST PUSH1 0x0 PUSH2 0x2FB7 PUSH1 0x17 DUP4 PUSH2 0x235D JUMP JUMPDEST SWAP2 POP PUSH2 0x2FC2 DUP3 PUSH2 0x2F81 JUMP JUMPDEST PUSH1 0x20 DUP3 ADD SWAP1 POP SWAP2 SWAP1 POP JUMP JUMPDEST PUSH1 0x0 PUSH1 0x20 DUP3 ADD SWAP1 POP DUP2 DUP2 SUB PUSH1 0x0 DUP4 ADD MSTORE PUSH2 0x2FE6 DUP2 PUSH2 0x2FAA JUMP JUMPDEST SWAP1 POP SWAP2 SWAP1 POP JUMP JUMPDEST PUSH32 0x43616E6E6F74207065726D697420302076616C75650000000000000000000000 PUSH1 0x0 DUP3 ADD MSTORE POP JUMP JUMPDEST PUSH1 0x0 PUSH2 0x3023 PUSH1 0x15 DUP4 PUSH2 0x235D JUMP JUMPDEST SWAP2 POP PUSH2 0x302E DUP3 PUSH2 0x2FED JUMP JUMPDEST PUSH1 0x20 DUP3 ADD SWAP1 POP SWAP2 SWAP1 POP JUMP JUMPDEST PUSH1 0x0 PUSH1 0x20 DUP3 ADD SWAP1 POP DUP2 DUP2 SUB PUSH1 0x0 DUP4 ADD MSTORE PUSH2 0x3052 DUP2 PUSH2 0x3016 JUMP JUMPDEST SWAP1 POP SWAP2 SWAP1 POP JUMP JUMPDEST PUSH1 0x0 PUSH1 0xC0 DUP3 ADD SWAP1 POP PUSH2 0x306E PUSH1 0x0 DUP4 ADD DUP10 PUSH2 0x25FC JUMP JUMPDEST PUSH2 0x307B PUSH1 0x20 DUP4 ADD DUP9 PUSH2 0x26B7 JUMP JUMPDEST PUSH2 0x3088 PUSH1 0x40 DUP4 ADD DUP8 PUSH2 0x26B7 JUMP JUMPDEST PUSH2 0x3095 PUSH1 0x60 DUP4 ADD DUP7 PUSH2 0x2522 JUMP JUMPDEST PUSH2 0x30A2 PUSH1 0x80 DUP4 ADD DUP6 PUSH2 0x2522 JUMP JUMPDEST PUSH2 0x30AF PUSH1 0xA0 DUP4 ADD DUP5 PUSH2 0x2522 JUMP JUMPDEST SWAP8 SWAP7 POP POP POP POP POP POP POP JUMP JUMPDEST PUSH1 0x0 DUP2 SWAP1 POP SWAP3 SWAP2 POP POP JUMP JUMPDEST PUSH32 0x1901000000000000000000000000000000000000000000000000000000000000 PUSH1 0x0 DUP3 ADD MSTORE POP JUMP JUMPDEST PUSH1 0x0 PUSH2 0x30FB PUSH1 0x2 DUP4 PUSH2 0x30BA JUMP JUMPDEST SWAP2 POP PUSH2 0x3106 DUP3 PUSH2 0x30C5 JUMP JUMPDEST PUSH1 0x2 DUP3 ADD SWAP1 POP SWAP2 SWAP1 POP JUMP JUMPDEST PUSH1 0x0 DUP2 SWAP1 POP SWAP2 SWAP1 POP JUMP JUMPDEST PUSH2 0x312C PUSH2 0x3127 DUP3 PUSH2 0x25F2 JUMP JUMPDEST PUSH2 0x3111 JUMP JUMPDEST DUP3 MSTORE POP POP JUMP JUMPDEST PUSH1 0x0 PUSH2 0x313D DUP3 PUSH2 0x30EE JUMP JUMPDEST SWAP2 POP PUSH2 0x3149 DUP3 DUP6 PUSH2 0x311B JUMP JUMPDEST PUSH1 0x20 DUP3 ADD SWAP2 POP PUSH2 0x3159 DUP3 DUP5 PUSH2 0x311B JUMP JUMPDEST PUSH1 0x20 DUP3 ADD SWAP2 POP DUP2 SWAP1 POP SWAP4 SWAP3 POP POP POP JUMP JUMPDEST PUSH32 0x4552433230426173653A207065726D697420646964206E6F7420737563636565 PUSH1 0x0 DUP3 ADD MSTORE PUSH32 0x642E204E6F6E6365206D69736D61746368210000000000000000000000000000 PUSH1 0x20 DUP3 ADD MSTORE POP JUMP JUMPDEST PUSH1 0x0 PUSH2 0x31C5 PUSH1 0x32 DUP4 PUSH2 0x235D JUMP JUMPDEST SWAP2 POP PUSH2 0x31D0 DUP3 PUSH2 0x3169 JUMP JUMPDEST PUSH1 0x40 DUP3 ADD SWAP1 POP SWAP2 SWAP1 POP JUMP JUMPDEST PUSH1 0x0 PUSH1 0x20 DUP3 ADD SWAP1 POP DUP2 DUP2 SUB PUSH1 0x0 DUP4 ADD MSTORE PUSH2 0x31F4 DUP2 PUSH2 0x31B8 JUMP JUMPDEST SWAP1 POP SWAP2 SWAP1 POP JUMP JUMPDEST PUSH1 0x0 PUSH1 0x80 DUP3 ADD SWAP1 POP PUSH2 0x3210 PUSH1 0x0 DUP4 ADD DUP8 PUSH2 0x25FC JUMP JUMPDEST PUSH2 0x321D PUSH1 0x20 DUP4 ADD DUP7 PUSH2 0x2633 JUMP JUMPDEST PUSH2 0x322A PUSH1 0x40 DUP4 ADD DUP6 PUSH2 0x25FC JUMP JUMPDEST PUSH2 0x3237 PUSH1 0x60 DUP4 ADD DUP5 PUSH2 0x25FC JUMP JUMPDEST SWAP6 SWAP5 POP POP POP POP POP JUMP JUMPDEST PUSH32 0x45524332302064617461746F6B656E3A20494E56414C4944205349474E415455 PUSH1 0x0 DUP3 ADD MSTORE PUSH32 0x524520494E2045524332302D5045524D49540000000000000000000000000000 PUSH1 0x20 DUP3 ADD MSTORE POP JUMP JUMPDEST PUSH1 0x0 PUSH2 0x329C PUSH1 0x32 DUP4 PUSH2 0x235D JUMP JUMPDEST SWAP2 POP PUSH2 0x32A7 DUP3 PUSH2 0x3240 JUMP JUMPDEST PUSH1 0x40 DUP3 ADD SWAP1 POP SWAP2 SWAP1 POP JUMP JUMPDEST PUSH1 0x0 PUSH1 0x20 DUP3 ADD SWAP1 POP DUP2 DUP2 SUB PUSH1 0x0 DUP4 ADD MSTORE PUSH2 0x32CB DUP2 PUSH2 0x328F JUMP JUMPDEST SWAP1 POP SWAP2 SWAP1 POP JUMP JUMPDEST PUSH1 0x0 PUSH1 0x80 DUP3 ADD SWAP1 POP PUSH2 0x32E7 PUSH1 0x0 DUP4 ADD DUP8 PUSH2 0x26B7 JUMP JUMPDEST PUSH2 0x32F4 PUSH1 0x20 DUP4 ADD DUP7 PUSH2 0x26B7 JUMP JUMPDEST PUSH2 0x3301 PUSH1 0x40 DUP4 ADD DUP6 PUSH2 0x26B7 JUMP JUMPDEST PUSH2 0x330E PUSH1 0x60 DUP4 ADD DUP5 PUSH2 0x2522 JUMP JUMPDEST SWAP6 SWAP5 POP POP POP POP POP JUMP JUMPDEST PUSH1 0x0 PUSH1 0x60 DUP3 ADD SWAP1 POP PUSH2 0x332C PUSH1 0x0 DUP4 ADD DUP7 PUSH2 0x25FC JUMP JUMPDEST PUSH2 0x3339 PUSH1 0x20 DUP4 ADD DUP6 PUSH2 0x25FC JUMP JUMPDEST PUSH2 0x3346 PUSH1 0x40 DUP4 ADD DUP5 PUSH2 0x25FC JUMP JUMPDEST SWAP5 SWAP4 POP POP POP POP JUMP JUMPDEST PUSH32 0x496E697469616C697A61626C653A20636F6E747261637420697320616C726561 PUSH1 0x0 DUP3 ADD MSTORE PUSH32 0x647920696E697469616C697A6564000000000000000000000000000000000000 PUSH1 0x20 DUP3 ADD MSTORE POP JUMP JUMPDEST PUSH1 0x0 PUSH2 0x33AA PUSH1 0x2E DUP4 PUSH2 0x235D JUMP JUMPDEST SWAP2 POP PUSH2 0x33B5 DUP3 PUSH2 0x334E JUMP JUMPDEST PUSH1 0x40 DUP3 ADD SWAP1 POP SWAP2 SWAP1 POP JUMP JUMPDEST PUSH1 0x0 PUSH1 0x20 DUP3 ADD SWAP1 POP DUP2 DUP2 SUB PUSH1 0x0 DUP4 ADD MSTORE PUSH2 0x33D9 DUP2 PUSH2 0x339D JUMP JUMPDEST SWAP1 POP SWAP2 SWAP1 POP JUMP JUMPDEST PUSH32 0x4D696E7465722063616E6E6F7420626520307830302100000000000000000000 PUSH1 0x0 DUP3 ADD MSTORE POP JUMP JUMPDEST PUSH1 0x0 PUSH2 0x3416 PUSH1 0x16 DUP4 PUSH2 0x235D JUMP JUMPDEST SWAP2 POP PUSH2 0x3421 DUP3 PUSH2 0x33E0 JUMP JUMPDEST PUSH1 0x20 DUP3 ADD SWAP1 POP SWAP2 SWAP1 POP JUMP JUMPDEST PUSH1 0x0 PUSH1 0x20 DUP3 ADD SWAP1 POP DUP2 DUP2 SUB PUSH1 0x0 DUP4 ADD MSTORE PUSH2 0x3445 DUP2 PUSH2 0x3409 JUMP JUMPDEST SWAP1 POP SWAP2 SWAP1 POP JUMP JUMPDEST PUSH32 0x4E4F5420544845204E4654204F574E4552000000000000000000000000000000 PUSH1 0x0 DUP3 ADD MSTORE POP JUMP JUMPDEST PUSH1 0x0 PUSH2 0x3482 PUSH1 0x11 DUP4 PUSH2 0x235D JUMP JUMPDEST SWAP2 POP PUSH2 0x348D DUP3 PUSH2 0x344C JUMP JUMPDEST PUSH1 0x20 DUP3 ADD SWAP1 POP SWAP2 SWAP1 POP JUMP JUMPDEST PUSH1 0x0 PUSH1 0x20 DUP3 ADD SWAP1 POP DUP2 DUP2 SUB PUSH1 0x0 DUP4 ADD MSTORE PUSH2 0x34B1 DUP2 PUSH2 0x3475 JUMP JUMPDEST SWAP1 POP SWAP2 SWAP1 POP JUMP JUMPDEST PUSH32 0x455243373231466163746F727920616464726573732063616E6E6F7420626520 PUSH1 0x0 DUP3 ADD MSTORE PUSH32 0x3078303021000000000000000000000000000000000000000000000000000000 PUSH1 0x20 DUP3 ADD MSTORE POP JUMP JUMPDEST PUSH1 0x0 PUSH2 0x3514 PUSH1 0x25 DUP4 PUSH2 0x235D JUMP JUMPDEST SWAP2 POP PUSH2 0x351F DUP3 PUSH2 0x34B8 JUMP JUMPDEST PUSH1 0x40 DUP3 ADD SWAP1 POP SWAP2 SWAP1 POP JUMP JUMPDEST PUSH1 0x0 PUSH1 0x20 DUP3 ADD SWAP1 POP DUP2 DUP2 SUB PUSH1 0x0 DUP4 ADD MSTORE PUSH2 0x3543 DUP2 PUSH2 0x3507 JUMP JUMPDEST SWAP1 POP SWAP2 SWAP1 POP JUMP JUMPDEST PUSH32 0x45524332303A20524F555445522043414E4E4F54204245205448452030204144 PUSH1 0x0 DUP3 ADD MSTORE PUSH32 0x4452455353000000000000000000000000000000000000000000000000000000 PUSH1 0x20 DUP3 ADD MSTORE POP JUMP JUMPDEST PUSH1 0x0 PUSH2 0x35A6 PUSH1 0x25 DUP4 PUSH2 0x235D JUMP JUMPDEST SWAP2 POP PUSH2 0x35B1 DUP3 PUSH2 0x354A JUMP JUMPDEST PUSH1 0x40 DUP3 ADD SWAP1 POP SWAP2 SWAP1 POP JUMP JUMPDEST PUSH1 0x0 PUSH1 0x20 DUP3 ADD SWAP1 POP DUP2 DUP2 SUB PUSH1 0x0 DUP4 ADD MSTORE PUSH2 0x35D5 DUP2 PUSH2 0x3599 JUMP JUMPDEST SWAP1 POP SWAP2 SWAP1 POP JUMP JUMPDEST PUSH32 0x546865206D6178696D756D20737570706C79206D757374206265203E20300000 PUSH1 0x0 DUP3 ADD MSTORE POP JUMP JUMPDEST PUSH1 0x0 PUSH2 0x3612 PUSH1 0x1E DUP4 PUSH2 0x235D JUMP JUMPDEST SWAP2 POP PUSH2 0x361D DUP3 PUSH2 0x35DC JUMP JUMPDEST PUSH1 0x20 DUP3 ADD SWAP1 POP SWAP2 SWAP1 POP JUMP JUMPDEST PUSH1 0x0 PUSH1 0x20 DUP3 ADD SWAP1 POP DUP2 DUP2 SUB PUSH1 0x0 DUP4 ADD MSTORE PUSH2 0x3641 DUP2 PUSH2 0x3605 JUMP JUMPDEST SWAP1 POP SWAP2 SWAP1 POP JUMP JUMPDEST PUSH1 0x0 PUSH1 0xA0 DUP3 ADD SWAP1 POP DUP2 DUP2 SUB PUSH1 0x0 DUP4 ADD MSTORE PUSH2 0x3662 DUP2 DUP9 PUSH2 0x23A9 JUMP JUMPDEST SWAP1 POP DUP2 DUP2 SUB PUSH1 0x20 DUP4 ADD MSTORE PUSH2 0x3676 DUP2 DUP8 PUSH2 0x23A9 JUMP JUMPDEST SWAP1 POP PUSH2 0x3685 PUSH1 0x40 DUP4 ADD DUP7 PUSH2 0x26B7 JUMP JUMPDEST PUSH2 0x3692 PUSH1 0x60 DUP4 ADD DUP6 PUSH2 0x26B7 JUMP JUMPDEST PUSH2 0x369F PUSH1 0x80 DUP4 ADD DUP5 PUSH2 0x26B7 JUMP JUMPDEST SWAP7 SWAP6 POP POP POP POP POP POP JUMP JUMPDEST PUSH1 0x0 DUP2 SWAP1 POP SWAP2 SWAP1 POP JUMP JUMPDEST PUSH1 0x0 PUSH2 0x36CE PUSH2 0x36C9 PUSH2 0x36C4 DUP5 PUSH2 0x36A9 JUMP JUMPDEST PUSH2 0x2A75 JUMP JUMPDEST PUSH2 0x2626 JUMP JUMPDEST SWAP1 POP SWAP2 SWAP1 POP JUMP JUMPDEST PUSH2 0x36DE DUP2 PUSH2 0x36B3 JUMP JUMPDEST DUP3 MSTORE POP POP JUMP JUMPDEST PUSH1 0x0 PUSH1 0x20 DUP3 ADD SWAP1 POP PUSH2 0x36F9 PUSH1 0x0 DUP4 ADD DUP5 PUSH2 0x36D5 JUMP JUMPDEST SWAP3 SWAP2 POP POP JUMP JUMPDEST PUSH32 0x45524332303A20617070726F76652066726F6D20746865207A65726F20616464 PUSH1 0x0 DUP3 ADD MSTORE PUSH32 0x7265737300000000000000000000000000000000000000000000000000000000 PUSH1 0x20 DUP3 ADD MSTORE POP JUMP JUMPDEST PUSH1 0x0 PUSH2 0x375B PUSH1 0x24 DUP4 PUSH2 0x235D JUMP JUMPDEST SWAP2 POP PUSH2 0x3766 DUP3 PUSH2 0x36FF JUMP JUMPDEST PUSH1 0x40 DUP3 ADD SWAP1 POP SWAP2 SWAP1 POP JUMP JUMPDEST PUSH1 0x0 PUSH1 0x20 DUP3 ADD SWAP1 POP DUP2 DUP2 SUB PUSH1 0x0 DUP4 ADD MSTORE PUSH2 0x378A DUP2 PUSH2 0x374E JUMP JUMPDEST SWAP1 POP SWAP2 SWAP1 POP JUMP JUMPDEST PUSH32 0x45524332303A20617070726F766520746F20746865207A65726F206164647265 PUSH1 0x0 DUP3 ADD MSTORE PUSH32 0x7373000000000000000000000000000000000000000000000000000000000000 PUSH1 0x20 DUP3 ADD MSTORE POP JUMP JUMPDEST PUSH1 0x0 PUSH2 0x37ED PUSH1 0x22 DUP4 PUSH2 0x235D JUMP JUMPDEST SWAP2 POP PUSH2 0x37F8 DUP3 PUSH2 0x3791 JUMP JUMPDEST PUSH1 0x40 DUP3 ADD SWAP1 POP SWAP2 SWAP1 POP JUMP JUMPDEST PUSH1 0x0 PUSH1 0x20 DUP3 ADD SWAP1 POP DUP2 DUP2 SUB PUSH1 0x0 DUP4 ADD MSTORE PUSH2 0x381C DUP2 PUSH2 0x37E0 JUMP JUMPDEST SWAP1 POP SWAP2 SWAP1 POP JUMP JUMPDEST PUSH32 0x45524332303A206D696E7420746F20746865207A65726F206164647265737300 PUSH1 0x0 DUP3 ADD MSTORE POP JUMP JUMPDEST PUSH1 0x0 PUSH2 0x3859 PUSH1 0x1F DUP4 PUSH2 0x235D JUMP JUMPDEST SWAP2 POP PUSH2 0x3864 DUP3 PUSH2 0x3823 JUMP JUMPDEST PUSH1 0x20 DUP3 ADD SWAP1 POP SWAP2 SWAP1 POP JUMP JUMPDEST PUSH1 0x0 PUSH1 0x20 DUP3 ADD SWAP1 POP DUP2 DUP2 SUB PUSH1 0x0 DUP4 ADD MSTORE PUSH2 0x3888 DUP2 PUSH2 0x384C JUMP JUMPDEST SWAP1 POP SWAP2 SWAP1 POP JUMP JUMPDEST PUSH32 0x45524332303A206275726E2066726F6D20746865207A65726F20616464726573 PUSH1 0x0 DUP3 ADD MSTORE PUSH32 0x7300000000000000000000000000000000000000000000000000000000000000 PUSH1 0x20 DUP3 ADD MSTORE POP JUMP JUMPDEST PUSH1 0x0 PUSH2 0x38EB PUSH1 0x21 DUP4 PUSH2 0x235D JUMP JUMPDEST SWAP2 POP PUSH2 0x38F6 DUP3 PUSH2 0x388F JUMP JUMPDEST PUSH1 0x40 DUP3 ADD SWAP1 POP SWAP2 SWAP1 POP JUMP JUMPDEST PUSH1 0x0 PUSH1 0x20 DUP3 ADD SWAP1 POP DUP2 DUP2 SUB PUSH1 0x0 DUP4 ADD MSTORE PUSH2 0x391A DUP2 PUSH2 0x38DE JUMP JUMPDEST SWAP1 POP SWAP2 SWAP1 POP JUMP JUMPDEST PUSH32 0x45524332303A206275726E20616D6F756E7420657863656564732062616C616E PUSH1 0x0 DUP3 ADD MSTORE PUSH32 0x6365000000000000000000000000000000000000000000000000000000000000 PUSH1 0x20 DUP3 ADD MSTORE POP JUMP JUMPDEST PUSH1 0x0 PUSH2 0x397D PUSH1 0x22 DUP4 PUSH2 0x235D JUMP JUMPDEST SWAP2 POP PUSH2 0x3988 DUP3 PUSH2 0x3921 JUMP JUMPDEST PUSH1 0x40 DUP3 ADD SWAP1 POP SWAP2 SWAP1 POP JUMP JUMPDEST PUSH1 0x0 PUSH1 0x20 DUP3 ADD SWAP1 POP DUP2 DUP2 SUB PUSH1 0x0 DUP4 ADD MSTORE PUSH2 0x39AC DUP2 PUSH2 0x3970 JUMP JUMPDEST SWAP1 POP SWAP2 SWAP1 POP JUMP JUMPDEST PUSH32 0x45524332303A207472616E736665722066726F6D20746865207A65726F206164 PUSH1 0x0 DUP3 ADD MSTORE PUSH32 0x6472657373000000000000000000000000000000000000000000000000000000 PUSH1 0x20 DUP3 ADD MSTORE POP JUMP JUMPDEST PUSH1 0x0 PUSH2 0x3A0F PUSH1 0x25 DUP4 PUSH2 0x235D JUMP JUMPDEST SWAP2 POP PUSH2 0x3A1A DUP3 PUSH2 0x39B3 JUMP JUMPDEST PUSH1 0x40 DUP3 ADD SWAP1 POP SWAP2 SWAP1 POP JUMP JUMPDEST PUSH1 0x0 PUSH1 0x20 DUP3 ADD SWAP1 POP DUP2 DUP2 SUB PUSH1 0x0 DUP4 ADD MSTORE PUSH2 0x3A3E DUP2 PUSH2 0x3A02 JUMP JUMPDEST SWAP1 POP SWAP2 SWAP1 POP JUMP JUMPDEST PUSH32 0x45524332303A207472616E7366657220746F20746865207A65726F2061646472 PUSH1 0x0 DUP3 ADD MSTORE PUSH32 0x6573730000000000000000000000000000000000000000000000000000000000 PUSH1 0x20 DUP3 ADD MSTORE POP JUMP JUMPDEST PUSH1 0x0 PUSH2 0x3AA1 PUSH1 0x23 DUP4 PUSH2 0x235D JUMP JUMPDEST SWAP2 POP PUSH2 0x3AAC DUP3 PUSH2 0x3A45 JUMP JUMPDEST PUSH1 0x40 DUP3 ADD SWAP1 POP SWAP2 SWAP1 POP JUMP JUMPDEST PUSH1 0x0 PUSH1 0x20 DUP3 ADD SWAP1 POP DUP2 DUP2 SUB PUSH1 0x0 DUP4 ADD MSTORE PUSH2 0x3AD0 DUP2 PUSH2 0x3A94 JUMP JUMPDEST SWAP1 POP SWAP2 SWAP1 POP JUMP JUMPDEST PUSH32 0x45524332303A207472616E7366657220616D6F756E7420657863656564732062 PUSH1 0x0 DUP3 ADD MSTORE PUSH32 0x616C616E63650000000000000000000000000000000000000000000000000000 PUSH1 0x20 DUP3 ADD MSTORE POP JUMP JUMPDEST PUSH1 0x0 PUSH2 0x3B33 PUSH1 0x26 DUP4 PUSH2 0x235D JUMP JUMPDEST SWAP2 POP PUSH2 0x3B3E DUP3 PUSH2 0x3AD7 JUMP JUMPDEST PUSH1 0x40 DUP3 ADD SWAP1 POP SWAP2 SWAP1 POP JUMP JUMPDEST PUSH1 0x0 PUSH1 0x20 DUP3 ADD SWAP1 POP DUP2 DUP2 SUB PUSH1 0x0 DUP4 ADD MSTORE PUSH2 0x3B62 DUP2 PUSH2 0x3B26 JUMP JUMPDEST SWAP1 POP SWAP2 SWAP1 POP JUMP JUMPDEST PUSH1 0x0 PUSH1 0xA0 DUP3 ADD SWAP1 POP PUSH2 0x3B7E PUSH1 0x0 DUP4 ADD DUP9 PUSH2 0x25FC JUMP JUMPDEST PUSH2 0x3B8B PUSH1 0x20 DUP4 ADD DUP8 PUSH2 0x25FC JUMP JUMPDEST PUSH2 0x3B98 PUSH1 0x40 DUP4 ADD DUP7 PUSH2 0x25FC JUMP JUMPDEST PUSH2 0x3BA5 PUSH1 0x60 DUP4 ADD DUP6 PUSH2 0x2522 JUMP JUMPDEST PUSH2 0x3BB2 PUSH1 0x80 DUP4 ADD DUP5 PUSH2 0x26B7 JUMP JUMPDEST SWAP7 SWAP6 POP POP POP POP POP POP JUMP JUMPDEST PUSH32 0x496E697469616C697A61626C653A20636F6E7472616374206973206E6F742069 PUSH1 0x0 DUP3 ADD MSTORE PUSH32 0x6E697469616C697A696E67000000000000000000000000000000000000000000 PUSH1 0x20 DUP3 ADD MSTORE POP JUMP JUMPDEST PUSH1 0x0 PUSH2 0x3C18 PUSH1 0x2B DUP4 PUSH2 0x235D JUMP JUMPDEST SWAP2 POP PUSH2 0x3C23 DUP3 PUSH2 0x3BBC JUMP JUMPDEST PUSH1 0x40 DUP3 ADD SWAP1 POP SWAP2 SWAP1 POP JUMP JUMPDEST PUSH1 0x0 PUSH1 0x20 DUP3 ADD SWAP1 POP DUP2 DUP2 SUB PUSH1 0x0 DUP4 ADD MSTORE PUSH2 0x3C47 DUP2 PUSH2 0x3C0B JUMP JUMPDEST SWAP1 POP SWAP2 SWAP1 POP JUMP JUMPDEST PUSH32 0x45524332303A20696E73756666696369656E7420616C6C6F77616E6365000000 PUSH1 0x0 DUP3 ADD MSTORE POP JUMP JUMPDEST PUSH1 0x0 PUSH2 0x3C84 PUSH1 0x1D DUP4 PUSH2 0x235D JUMP JUMPDEST SWAP2 POP PUSH2 0x3C8F DUP3 PUSH2 0x3C4E JUMP JUMPDEST PUSH1 0x20 DUP3 ADD SWAP1 POP SWAP2 SWAP1 POP JUMP JUMPDEST PUSH1 0x0 PUSH1 0x20 DUP3 ADD SWAP1 POP DUP2 DUP2 SUB PUSH1 0x0 DUP4 ADD MSTORE PUSH2 0x3CB3 DUP2 PUSH2 0x3C77 JUMP JUMPDEST SWAP1 POP SWAP2 SWAP1 POP JUMP JUMPDEST PUSH1 0x0 DUP2 SWAP1 POP DUP2 PUSH1 0x0 MSTORE PUSH1 0x20 PUSH1 0x0 KECCAK256 SWAP1 POP SWAP2 SWAP1 POP JUMP JUMPDEST PUSH1 0x0 PUSH1 0x20 PUSH1 0x1F DUP4 ADD DIV SWAP1 POP SWAP2 SWAP1 POP JUMP JUMPDEST PUSH1 0x0 DUP3 DUP3 SHL SWAP1 POP SWAP3 SWAP2 POP POP JUMP JUMPDEST PUSH1 0x0 PUSH1 0x8 DUP4 MUL PUSH2 0x3D1C PUSH32 0xFFFFFFFFFFFFFFFFFFFFFFFFFFFFFFFFFFFFFFFFFFFFFFFFFFFFFFFFFFFFFFFF DUP3 PUSH2 0x3CDF JUMP JUMPDEST PUSH2 0x3D26 DUP7 DUP4 PUSH2 0x3CDF JUMP JUMPDEST SWAP6 POP DUP1 NOT DUP5 AND SWAP4 POP DUP1 DUP7 AND DUP5 OR SWAP3 POP POP POP SWAP4 SWAP3 POP POP POP JUMP JUMPDEST PUSH1 0x0 PUSH2 0x3D59 PUSH2 0x3D54 PUSH2 0x3D4F DUP5 PUSH2 0x2476 JUMP JUMPDEST PUSH2 0x2A75 JUMP JUMPDEST PUSH2 0x2476 JUMP JUMPDEST SWAP1 POP SWAP2 SWAP1 POP JUMP JUMPDEST PUSH1 0x0 DUP2 SWAP1 POP SWAP2 SWAP1 POP JUMP JUMPDEST PUSH2 0x3D73 DUP4 PUSH2 0x3D3E JUMP JUMPDEST PUSH2 0x3D87 PUSH2 0x3D7F DUP3 PUSH2 0x3D60 JUMP JUMPDEST DUP5 DUP5 SLOAD PUSH2 0x3CEC JUMP JUMPDEST DUP3 SSTORE POP POP POP POP JUMP JUMPDEST PUSH1 0x0 SWAP1 JUMP JUMPDEST PUSH2 0x3D9C PUSH2 0x3D8F JUMP JUMPDEST PUSH2 0x3DA7 DUP2 DUP5 DUP5 PUSH2 0x3D6A JUMP JUMPDEST POP POP POP JUMP JUMPDEST JUMPDEST DUP2 DUP2 LT ISZERO PUSH2 0x3DCB JUMPI PUSH2 0x3DC0 PUSH1 0x0 DUP3 PUSH2 0x3D94 JUMP JUMPDEST PUSH1 0x1 DUP2 ADD SWAP1 POP PUSH2 0x3DAD JUMP JUMPDEST POP POP JUMP JUMPDEST PUSH1 0x1F DUP3 GT ISZERO PUSH2 0x3E10 JUMPI PUSH2 0x3DE1 DUP2 PUSH2 0x3CBA JUMP JUMPDEST PUSH2 0x3DEA DUP5 PUSH2 0x3CCF JUMP JUMPDEST DUP2 ADD PUSH1 0x20 DUP6 LT ISZERO PUSH2 0x3DF9 JUMPI DUP2 SWAP1 POP JUMPDEST PUSH2 0x3E0D PUSH2 0x3E05 DUP6 PUSH2 0x3CCF JUMP JUMPDEST DUP4 ADD DUP3 PUSH2 0x3DAC JUMP JUMPDEST POP POP JUMPDEST POP POP POP JUMP JUMPDEST PUSH1 0x0 DUP3 DUP3 SHR SWAP1 POP SWAP3 SWAP2 POP POP JUMP JUMPDEST PUSH1 0x0 PUSH2 0x3E33 PUSH1 0x0 NOT DUP5 PUSH1 0x8 MUL PUSH2 0x3E15 JUMP JUMPDEST NOT DUP1 DUP4 AND SWAP2 POP POP SWAP3 SWAP2 POP POP JUMP JUMPDEST PUSH1 0x0 PUSH2 0x3E4C DUP4 DUP4 PUSH2 0x3E22 JUMP JUMPDEST SWAP2 POP DUP3 PUSH1 0x2 MUL DUP3 OR SWAP1 POP SWAP3 SWAP2 POP POP JUMP JUMPDEST PUSH2 0x3E65 DUP3 PUSH2 0x2352 JUMP JUMPDEST PUSH8 0xFFFFFFFFFFFFFFFF DUP2 GT ISZERO PUSH2 0x3E7E JUMPI PUSH2 0x3E7D PUSH2 0x2825 JUMP JUMPDEST JUMPDEST PUSH2 0x3E88 DUP3 SLOAD PUSH2 0x2A44 JUMP JUMPDEST PUSH2 0x3E93 DUP3 DUP3 DUP6 PUSH2 0x3DCF JUMP JUMPDEST PUSH1 0x0 PUSH1 0x20 SWAP1 POP PUSH1 0x1F DUP4 GT PUSH1 0x1 DUP2 EQ PUSH2 0x3EC6 JUMPI PUSH1 0x0 DUP5 ISZERO PUSH2 0x3EB4 JUMPI DUP3 DUP8 ADD MLOAD SWAP1 POP JUMPDEST PUSH2 0x3EBE DUP6 DUP3 PUSH2 0x3E40 JUMP JUMPDEST DUP7 SSTORE POP PUSH2 0x3F26 JUMP JUMPDEST PUSH1 0x1F NOT DUP5 AND PUSH2 0x3ED4 DUP7 PUSH2 0x3CBA JUMP JUMPDEST PUSH1 0x0 JUMPDEST DUP3 DUP2 LT ISZERO PUSH2 0x3EFC JUMPI DUP5 DUP10 ADD MLOAD DUP3 SSTORE PUSH1 0x1 DUP3 ADD SWAP2 POP PUSH1 0x20 DUP6 ADD SWAP5 POP PUSH1 0x20 DUP2 ADD SWAP1 POP PUSH2 0x3ED7 JUMP JUMPDEST DUP7 DUP4 LT ISZERO PUSH2 0x3F19 JUMPI DUP5 DUP10 ADD MLOAD PUSH2 0x3F15 PUSH1 0x1F DUP10 AND DUP3 PUSH2 0x3E22 JUMP JUMPDEST DUP4 SSTORE POP JUMPDEST PUSH1 0x1 PUSH1 0x2 DUP9 MUL ADD DUP9 SSTORE POP POP POP JUMPDEST POP POP POP POP POP POP JUMP INVALID LOG2 PUSH5 0x6970667358 0x22 SLT KECCAK256 0x26 AND 0xD7 LOG1 BLOCKHASH 0xE0 RETURN SWAP1 0xE DUP6 0xCA INVALID SWAP3 LOG0 MUL CALLDATACOPY 0xCE 0xB1 BLOCKHASH PUSH10 0x6BED8D48F44EA2FEFC7F 0xF9 0xA8 PUSH5 0x736F6C6343 STOP ADDMOD SLT STOP CALLER "},"methodIdentifiers":{"allowance(address,address)":"dd62ed3e","approve(address,uint256)":"095ea7b3","balanceOf(address)":"70a08231","burn(uint256)":"42966c68","createFixedRate(address,uint256,uint256)":"276afcae","decimals()":"313ce567","decreaseAllowance(address,uint256)":"a457c2d7","getDTowner()":"b91fad93","getMaxSupply()":"4c0f38c2","increaseAllowance(address,uint256)":"39509351","initialize(string,string,address,address,address,uint256)":"edf3e29e","isMinter(address)":"aa271e1a","mint(address,uint256)":"40c10f19","name()":"06fdde03","nonces(address)":"7ecebe00","nonces_(address)":"73c84f74","permit(address,address,uint256,uint256,uint8,bytes32,bytes32)":"d505accf","symbol()":"95d89b41","totalSupply()":"18160ddd","transfer(address,uint256)":"a9059cbb","transferFrom(address,address,uint256)":"23b872dd","withdraw()":"3ccfd60b"}}}}}