{"contracts/ERC721Base.sol":{"ERC721Base":{"abi":[{"anonymous":false,"inputs":[{"indexed":true,"internalType":"address","name":"owner","type":"address"},{"indexed":true,"internalType":"address","name":"approved","type":"address"},{"indexed":true,"internalType":"uint256","name":"tokenId","type":"uint256"}],"name":"Approval","type":"event"},{"anonymous":false,"inputs":[{"indexed":true,"internalType":"address","name":"owner","type":"address"},{"indexed":true,"internalType":"address","name":"operator","type":"address"},{"indexed":false,"internalType":"bool","name":"approved","type":"bool"}],"name":"ApprovalForAll","type":"event"},{"anonymous":false,"inputs":[{"indexed":false,"internalType":"uint8","name":"version","type":"uint8"}],"name":"Initialized","type":"event"},{"anonymous":false,"inputs":[{"indexed":true,"internalType":"address","name":"owner","type":"address"},{"indexed":false,"internalType":"string","name":"name","type":"string"},{"indexed":false,"internalType":"string","name":"symbol","type":"string"},{"indexed":false,"internalType":"address","name":"factory","type":"address"}],"name":"NFTminted","type":"event"},{"anonymous":false,"inputs":[{"indexed":true,"internalType":"address","name":"owner","type":"address"},{"indexed":false,"internalType":"string","name":"name","type":"string"},{"indexed":false,"internalType":"string","name":"symbol","type":"string"},{"indexed":false,"internalType":"uint256","name":"oldPrice","type":"uint256"},{"indexed":false,"internalType":"uint256","name":"newPrice","type":"uint256"}],"name":"NFTpriceUpdated","type":"event"},{"anonymous":false,"inputs":[{"indexed":false,"internalType":"string","name":"name","type":"string"},{"indexed":false,"internalType":"string","name":"symbol","type":"string"},{"indexed":false,"internalType":"address","name":"owner","type":"address"},{"indexed":false,"internalType":"address","name":"erc721address_","type":"address"},{"indexed":false,"internalType":"address","name":"newERC20Address","type":"address"},{"indexed":false,"internalType":"uint256","name":"maxSupply_","type":"uint256"},{"indexed":false,"internalType":"uint256","name":"initialSupply_","type":"uint256"}],"name":"TokenCreated","type":"event"},{"anonymous":false,"inputs":[{"indexed":true,"internalType":"address","name":"from","type":"address"},{"indexed":true,"internalType":"address","name":"to","type":"address"},{"indexed":true,"internalType":"uint256","name":"tokenId","type":"uint256"}],"name":"Transfer","type":"event"},{"stateMutability":"payable","type":"fallback"},{"inputs":[{"internalType":"address","name":"to","type":"address"},{"internalType":"uint256","name":"tokenId","type":"uint256"}],"name":"approve","outputs":[],"stateMutability":"nonpayable","type":"function"},{"inputs":[{"internalType":"address","name":"owner","type":"address"}],"name":"balanceOf","outputs":[{"internalType":"uint256","name":"","type":"uint256"}],"stateMutability":"view","type":"function"},{"inputs":[{"internalType":"uint256","name":"tokenId","type":"uint256"}],"name":"buyNFT","outputs":[],"stateMutability":"payable","type":"function"},{"inputs":[{"internalType":"string","name":"name","type":"string"},{"internalType":"string","name":"symbol","type":"string"},{"internalType":"uint256","name":"maxSupply_","type":"uint256"},{"internalType":"uint256","name":"initialSupply_","type":"uint256"}],"name":"createDataToken","outputs":[{"internalType":"address","name":"erc20token","type":"address"}],"stateMutability":"nonpayable","type":"function"},{"inputs":[{"internalType":"uint256","name":"tokenId","type":"uint256"}],"name":"getApproved","outputs":[{"internalType":"address","name":"","type":"address"}],"stateMutability":"view","type":"function"},{"inputs":[],"name":"getDTaddress","outputs":[{"internalType":"address","name":"erc20address","type":"address"}],"stateMutability":"view","type":"function"},{"inputs":[],"name":"getNFTowner","outputs":[{"internalType":"address","name":"owner","type":"address"}],"stateMutability":"view","type":"function"},{"inputs":[],"name":"getNFTprice","outputs":[{"internalType":"uint256","name":"","type":"uint256"}],"stateMutability":"view","type":"function"},{"inputs":[{"internalType":"address","name":"owner","type":"address"},{"internalType":"string","name":"name_","type":"string"},{"internalType":"string","name":"symbol_","type":"string"},{"internalType":"address","name":"factory","type":"address"},{"internalType":"string","name":"_tokenURI","type":"string"},{"internalType":"uint256","name":"initialPrice","type":"uint256"}],"name":"initialize","outputs":[{"internalType":"bool","name":"","type":"bool"}],"stateMutability":"nonpayable","type":"function"},{"inputs":[{"internalType":"address","name":"owner","type":"address"},{"internalType":"address","name":"operator","type":"address"}],"name":"isApprovedForAll","outputs":[{"internalType":"bool","name":"","type":"bool"}],"stateMutability":"view","type":"function"},{"inputs":[],"name":"name","outputs":[{"internalType":"string","name":"","type":"string"}],"stateMutability":"view","type":"function"},{"inputs":[{"internalType":"uint256","name":"tokenId","type":"uint256"}],"name":"ownerOf","outputs":[{"internalType":"address","name":"","type":"address"}],"stateMutability":"view","type":"function"},{"inputs":[{"internalType":"address","name":"from","type":"address"},{"internalType":"address","name":"to","type":"address"},{"internalType":"uint256","name":"tokenId","type":"uint256"}],"name":"safeTransferFrom","outputs":[],"stateMutability":"nonpayable","type":"function"},{"inputs":[{"internalType":"address","name":"from","type":"address"},{"internalType":"address","name":"to","type":"address"},{"internalType":"uint256","name":"tokenId","type":"uint256"},{"internalType":"bytes","name":"data","type":"bytes"}],"name":"safeTransferFrom","outputs":[],"stateMutability":"nonpayable","type":"function"},{"inputs":[{"internalType":"address","name":"operator","type":"address"},{"internalType":"bool","name":"approved","type":"bool"}],"name":"setApprovalForAll","outputs":[],"stateMutability":"nonpayable","type":"function"},{"inputs":[{"internalType":"uint256","name":"price_","type":"uint256"}],"name":"setPrice","outputs":[],"stateMutability":"nonpayable","type":"function"},{"inputs":[{"internalType":"bytes4","name":"interfaceId","type":"bytes4"}],"name":"supportsInterface","outputs":[{"internalType":"bool","name":"","type":"bool"}],"stateMutability":"view","type":"function"},{"inputs":[],"name":"symbol","outputs":[{"internalType":"string","name":"","type":"string"}],"stateMutability":"view","type":"function"},{"inputs":[{"internalType":"uint256","name":"tokenId","type":"uint256"}],"name":"tokenURI","outputs":[{"internalType":"string","name":"","type":"string"}],"stateMutability":"view","type":"function"},{"inputs":[{"internalType":"address","name":"from","type":"address"},{"internalType":"address","name":"to","type":"address"},{"internalType":"uint256","name":"tokenId","type":"uint256"}],"name":"transferFrom","outputs":[],"stateMutability":"nonpayable","type":"function"},{"stateMutability":"payable","type":"receive"}],"evm":{"bytecode":{"linkReferences":{},"object":"608060405234801561001057600080fd5b50613fdd806100206000396000f3fe6080604052600436106101235760003560e01c8063601cc24b116100a0578063a22cb46511610064578063a22cb465146103f4578063b0c5a7e51461041d578063b88d4fde1461045a578063c87b56dd14610483578063e985e9c5146104c05761012a565b8063601cc24b146102fb5780636352211e1461032657806370a082311461036357806391b7f5ed146103a057806395d89b41146103c95761012a565b80631ff95da9116100e75780631ff95da91461023757806323b872dd1461026257806342842e0e1461028b57806351ed8288146102b45780635245f3bd146102d05761012a565b806301eaaea21461012c57806301ffc9a71461016957806306fdde03146101a6578063081812fc146101d1578063095ea7b31461020e5761012a565b3661012a57005b005b34801561013857600080fd5b50610153600480360381019061014e9190612759565b6104fd565b604051610160919061285f565b60405180910390f35b34801561017557600080fd5b50610190600480360381019061018b91906128d2565b610822565b60405161019d919061285f565b60405180910390f35b3480156101b257600080fd5b506101bb610904565b6040516101c8919061297e565b60405180910390f35b3480156101dd57600080fd5b506101f860048036038101906101f391906129a0565b610996565b60405161020591906129dc565b60405180910390f35b34801561021a57600080fd5b50610235600480360381019061023091906129f7565b6109dc565b005b34801561024357600080fd5b5061024c610af3565b6040516102599190612a46565b60405180910390f35b34801561026e57600080fd5b5061028960048036038101906102849190612a61565b610afd565b005b34801561029757600080fd5b506102b260048036038101906102ad9190612a61565b610b5d565b005b6102ce60048036038101906102c991906129a0565b610b7d565b005b3480156102dc57600080fd5b506102e5610d49565b6040516102f291906129dc565b60405180910390f35b34801561030757600080fd5b50610310610d5a565b60405161031d91906129dc565b60405180910390f35b34801561033257600080fd5b5061034d600480360381019061034891906129a0565b610da1565b60405161035a91906129dc565b60405180910390f35b34801561036f57600080fd5b5061038a60048036038101906103859190612ab4565b610e27565b6040516103979190612a46565b60405180910390f35b3480156103ac57600080fd5b506103c760048036038101906103c291906129a0565b610ede565b005b3480156103d557600080fd5b506103de61105c565b6040516103eb919061297e565b60405180910390f35b34801561040057600080fd5b5061041b60048036038101906104169190612b0d565b6110ee565b005b34801561042957600080fd5b50610444600480360381019061043f9190612b4d565b611104565b60405161045191906129dc565b60405180910390f35b34801561046657600080fd5b50610481600480360381019061047c9190612c95565b61132d565b005b34801561048f57600080fd5b506104aa60048036038101906104a591906129a0565b61138f565b6040516104b7919061297e565b60405180910390f35b3480156104cc57600080fd5b506104e760048036038101906104e29190612d18565b6113a1565b6040516104f4919061285f565b60405180910390f35b600080600060019054906101000a900460ff161590508080156105305750600160008054906101000a900460ff1660ff16105b8061055d575061053f30611435565b15801561055c5750600160008054906101000a900460ff1660ff16145b5b61059c576040517f08c379a000000000000000000000000000000000000000000000000000000000815260040161059390612dca565b60405180910390fd5b60016000806101000a81548160ff021916908360ff16021790555080156105d9576001600060016101000a81548160ff0219169083151502179055505b600073ffffffffffffffffffffffffffffffffffffffff168a73ffffffffffffffffffffffffffffffffffffffff1603610648576040517f08c379a000000000000000000000000000000000000000000000000000000000815260040161063f90612e5c565b60405180910390fd5b6106da89898080601f016020809104026020016040519081016040528093929190818152602001838380828437600081840152601f19601f8201169050808301925050505050505088888080601f016020809104026020016040519081016040528093929190818152602001838380828437600081840152601f19601f82011690508083019250505050505050611458565b6106e26114b5565b8460c960006101000a81548173ffffffffffffffffffffffffffffffffffffffff021916908373ffffffffffffffffffffffffffffffffffffffff1602179055508260ca819055506107358a6001611506565b610740600185611524565b8973ffffffffffffffffffffffffffffffffffffffff167fd133d105f7b44671ec3a00c607590e7154adaafd2e0e9542b201374f293585198a8a8a8a60c960009054906101000a900473ffffffffffffffffffffffffffffffffffffffff166040516107b0959493929190612ea9565b60405180910390a26001915080156108155760008060016101000a81548160ff0219169083151502179055507f7f26b83ff96e1f2b6a682f133852f6798a09c465da95921460cefb3847402498600160405161080c9190612f44565b60405180910390a15b5098975050505050505050565b60007f80ac58cd000000000000000000000000000000000000000000000000000000007bffffffffffffffffffffffffffffffffffffffffffffffffffffffff1916827bffffffffffffffffffffffffffffffffffffffffffffffffffffffff191614806108ed57507f5b5e139f000000000000000000000000000000000000000000000000000000007bffffffffffffffffffffffffffffffffffffffffffffffffffffffff1916827bffffffffffffffffffffffffffffffffffffffffffffffffffffffff1916145b806108fd57506108fc82611591565b5b9050919050565b60606065805461091390612f8e565b80601f016020809104026020016040519081016040528092919081815260200182805461093f90612f8e565b801561098c5780601f106109615761010080835404028352916020019161098c565b820191906000526020600020905b81548152906001019060200180831161096f57829003601f168201915b5050505050905090565b60006109a1826115fb565b6069600083815260200190815260200160002060009054906101000a900473ffffffffffffffffffffffffffffffffffffffff169050919050565b60006109e782610da1565b90508073ffffffffffffffffffffffffffffffffffffffff168373ffffffffffffffffffffffffffffffffffffffff1603610a57576040517f08c379a0000000000000000000000000000000000000000000000000000000008152600401610a4e90613031565b60405180910390fd5b8073ffffffffffffffffffffffffffffffffffffffff16610a76611646565b73ffffffffffffffffffffffffffffffffffffffff161480610aa55750610aa481610a9f611646565b6113a1565b5b610ae4576040517f08c379a0000000000000000000000000000000000000000000000000000000008152600401610adb906130c3565b60405180910390fd5b610aee838361164e565b505050565b600060ca54905090565b610b0e610b08611646565b82611707565b610b4d576040517f08c379a0000000000000000000000000000000000000000000000000000000008152600401610b4490613155565b60405180910390fd5b610b5883838361179c565b505050565b610b788383836040518060200160405280600081525061132d565b505050565b6000610b896001610da1565b9050600073ffffffffffffffffffffffffffffffffffffffff163373ffffffffffffffffffffffffffffffffffffffff1603610bfa576040517f08c379a0000000000000000000000000000000000000000000000000000000008152600401610bf1906131c1565b60405180910390fd5b8073ffffffffffffffffffffffffffffffffffffffff163373ffffffffffffffffffffffffffffffffffffffff1603610c68576040517f08c379a0000000000000000000000000000000000000000000000000000000008152600401610c5f9061322d565b60405180910390fd5b60018214610cab576040517f08c379a0000000000000000000000000000000000000000000000000000000008152600401610ca290613299565b60405180910390fd5b60ca54341015610cf0576040517f08c379a0000000000000000000000000000000000000000000000000000000008152600401610ce79061332b565b60405180910390fd5b610cfb81338461179c565b3390508073ffffffffffffffffffffffffffffffffffffffff166108fc349081150290604051600060405180830381858888f19350505050158015610d44573d6000803e3d6000fd5b505050565b6000610d556001610da1565b905090565b600060cb600081548110610d7157610d7061334b565b5b9060005260206000200160009054906101000a900473ffffffffffffffffffffffffffffffffffffffff16905090565b600080610dad83611a95565b9050600073ffffffffffffffffffffffffffffffffffffffff168173ffffffffffffffffffffffffffffffffffffffff1603610e1e576040517f08c379a0000000000000000000000000000000000000000000000000000000008152600401610e15906133c6565b60405180910390fd5b80915050919050565b60008073ffffffffffffffffffffffffffffffffffffffff168273ffffffffffffffffffffffffffffffffffffffff1603610e97576040517f08c379a0000000000000000000000000000000000000000000000000000000008152600401610e8e90613458565b60405180910390fd5b606860008373ffffffffffffffffffffffffffffffffffffffff1673ffffffffffffffffffffffffffffffffffffffff168152602001908152602001600020549050919050565b610ee86001610da1565b73ffffffffffffffffffffffffffffffffffffffff163373ffffffffffffffffffffffffffffffffffffffff1614610f55576040517f08c379a0000000000000000000000000000000000000000000000000000000008152600401610f4c906134c4565b60405180910390fd5b6000811015610f99576040517f08c379a0000000000000000000000000000000000000000000000000000000008152600401610f9090613530565b60405180910390fd5b60ca548103610fdd576040517f08c379a0000000000000000000000000000000000000000000000000000000008152600401610fd49061359c565b60405180910390fd5b600060ca5490508160ca81905550610ff56001610da1565b73ffffffffffffffffffffffffffffffffffffffff167ff3d52d1a60d7d0ee4e16f5b72624fa05a825fdd27ea948202af49055aaa6064b611034610904565b61103c61105c565b8460ca5460405161105094939291906135bc565b60405180910390a25050565b60606066805461106b90612f8e565b80601f016020809104026020016040519081016040528092919081815260200182805461109790612f8e565b80156110e45780601f106110b9576101008083540402835291602001916110e4565b820191906000526020600020905b8154815290600101906020018083116110c757829003601f168201915b5050505050905090565b6111006110f9611646565b8383611ad2565b5050565b60006111106001610da1565b73ffffffffffffffffffffffffffffffffffffffff163373ffffffffffffffffffffffffffffffffffffffff161461117d576040517f08c379a0000000000000000000000000000000000000000000000000000000008152600401611174906134c4565b60405180910390fd5b60008311801561118e575060008210155b6111cd576040517f08c379a00000000000000000000000000000000000000000000000000000000081526004016111c49061365b565b60405180910390fd5b60c960009054906101000a900473ffffffffffffffffffffffffffffffffffffffff1673ffffffffffffffffffffffffffffffffffffffff1663afd69c8f8888888833888a6040518863ffffffff1660e01b8152600401611234979695949392919061367b565b6020604051808303816000875af1158015611253573d6000803e3d6000fd5b505050506040513d601f19601f8201168201806040525081019061127791906136f5565b905060cb819080600181540180825580915050600190039060005260206000200160009091909190916101000a81548173ffffffffffffffffffffffffffffffffffffffff021916908373ffffffffffffffffffffffffffffffffffffffff1602179055507f7ded605ee5eb960743663ce41947ea21cc226061bd4323712c0cfd89117c5fc687878787333087898b60405161131b99989796959493929190613722565b60405180910390a19695505050505050565b61133e611338611646565b83611707565b61137d576040517f08c379a000000000000000000000000000000000000000000000000000000000815260040161137490613155565b60405180910390fd5b61138984848484611c3e565b50505050565b606061139a82611c9a565b9050919050565b6000606a60008473ffffffffffffffffffffffffffffffffffffffff1673ffffffffffffffffffffffffffffffffffffffff16815260200190815260200160002060008373ffffffffffffffffffffffffffffffffffffffff1673ffffffffffffffffffffffffffffffffffffffff16815260200190815260200160002060009054906101000a900460ff16905092915050565b6000808273ffffffffffffffffffffffffffffffffffffffff163b119050919050565b600060019054906101000a900460ff166114a7576040517f08c379a000000000000000000000000000000000000000000000000000000000815260040161149e90613815565b60405180910390fd5b6114b18282611dac565b5050565b600060019054906101000a900460ff16611504576040517f08c379a00000000000000000000000000000000000000000000000000000000081526004016114fb90613815565b60405180910390fd5b565b611520828260405180602001604052806000815250611e1f565b5050565b61152d82611e7a565b61156c576040517f08c379a0000000000000000000000000000000000000000000000000000000008152600401611563906138a7565b60405180910390fd5b8060976000848152602001908152602001600020908161158c9190613a69565b505050565b60007f01ffc9a7000000000000000000000000000000000000000000000000000000007bffffffffffffffffffffffffffffffffffffffffffffffffffffffff1916827bffffffffffffffffffffffffffffffffffffffffffffffffffffffff1916149050919050565b61160481611e7a565b611643576040517f08c379a000000000000000000000000000000000000000000000000000000000815260040161163a906133c6565b60405180910390fd5b50565b600033905090565b816069600083815260200190815260200160002060006101000a81548173ffffffffffffffffffffffffffffffffffffffff021916908373ffffffffffffffffffffffffffffffffffffffff160217905550808273ffffffffffffffffffffffffffffffffffffffff166116c183610da1565b73ffffffffffffffffffffffffffffffffffffffff167f8c5be1e5ebec7d5bd14f71427d1e84f3dd0314c0f7b2291e5b200ac8c7c3b92560405160405180910390a45050565b60008061171383610da1565b90508073ffffffffffffffffffffffffffffffffffffffff168473ffffffffffffffffffffffffffffffffffffffff161480611755575061175481856113a1565b5b8061179357508373ffffffffffffffffffffffffffffffffffffffff1661177b84610996565b73ffffffffffffffffffffffffffffffffffffffff16145b91505092915050565b8273ffffffffffffffffffffffffffffffffffffffff166117bc82610da1565b73ffffffffffffffffffffffffffffffffffffffff1614611812576040517f08c379a000000000000000000000000000000000000000000000000000000000815260040161180990613bad565b60405180910390fd5b600073ffffffffffffffffffffffffffffffffffffffff168273ffffffffffffffffffffffffffffffffffffffff1603611881576040517f08c379a000000000000000000000000000000000000000000000000000000000815260040161187890613c3f565b60405180910390fd5b61188e8383836001611ebb565b8273ffffffffffffffffffffffffffffffffffffffff166118ae82610da1565b73ffffffffffffffffffffffffffffffffffffffff1614611904576040517f08c379a00000000000000000000000000000000000000000000000000000000081526004016118fb90613bad565b60405180910390fd5b6069600082815260200190815260200160002060006101000a81549073ffffffffffffffffffffffffffffffffffffffff02191690556001606860008573ffffffffffffffffffffffffffffffffffffffff1673ffffffffffffffffffffffffffffffffffffffff168152602001908152602001600020600082825403925050819055506001606860008473ffffffffffffffffffffffffffffffffffffffff1673ffffffffffffffffffffffffffffffffffffffff16815260200190815260200160002060008282540192505081905550816067600083815260200190815260200160002060006101000a81548173ffffffffffffffffffffffffffffffffffffffff021916908373ffffffffffffffffffffffffffffffffffffffff160217905550808273ffffffffffffffffffffffffffffffffffffffff168473ffffffffffffffffffffffffffffffffffffffff167fddf252ad1be2c89b69c2b068fc378daa952ba7f163c4a11628f55a4df523b3ef60405160405180910390a4611a908383836001611ec1565b505050565b60006067600083815260200190815260200160002060009054906101000a900473ffffffffffffffffffffffffffffffffffffffff169050919050565b8173ffffffffffffffffffffffffffffffffffffffff168373ffffffffffffffffffffffffffffffffffffffff1603611b40576040517f08c379a0000000000000000000000000000000000000000000000000000000008152600401611b3790613cab565b60405180910390fd5b80606a60008573ffffffffffffffffffffffffffffffffffffffff1673ffffffffffffffffffffffffffffffffffffffff16815260200190815260200160002060008473ffffffffffffffffffffffffffffffffffffffff1673ffffffffffffffffffffffffffffffffffffffff16815260200190815260200160002060006101000a81548160ff0219169083151502179055508173ffffffffffffffffffffffffffffffffffffffff168373ffffffffffffffffffffffffffffffffffffffff167f17307eab39ab6107e8899845ad3d59bd9653f200f220920489ca2b5937696c3183604051611c31919061285f565b60405180910390a3505050565b611c4984848461179c565b611c5584848484611ec7565b611c94576040517f08c379a0000000000000000000000000000000000000000000000000000000008152600401611c8b90613d3d565b60405180910390fd5b50505050565b6060611ca5826115fb565b6000609760008481526020019081526020016000208054611cc590612f8e565b80601f0160208091040260200160405190810160405280929190818152602001828054611cf190612f8e565b8015611d3e5780601f10611d1357610100808354040283529160200191611d3e565b820191906000526020600020905b815481529060010190602001808311611d2157829003601f168201915b505050505090506000611d4f61204e565b90506000815103611d64578192505050611da7565b600082511115611d99578082604051602001611d81929190613d99565b60405160208183030381529060405292505050611da7565b611da284612065565b925050505b919050565b600060019054906101000a900460ff16611dfb576040517f08c379a0000000000000000000000000000000000000000000000000000000008152600401611df290613815565b60405180910390fd5b8160659081611e0a9190613a69565b508060669081611e1a9190613a69565b505050565b611e2983836120cd565b611e366000848484611ec7565b611e75576040517f08c379a0000000000000000000000000000000000000000000000000000000008152600401611e6c90613d3d565b60405180910390fd5b505050565b60008073ffffffffffffffffffffffffffffffffffffffff16611e9c83611a95565b73ffffffffffffffffffffffffffffffffffffffff1614159050919050565b50505050565b50505050565b6000611ee88473ffffffffffffffffffffffffffffffffffffffff16611435565b15612041578373ffffffffffffffffffffffffffffffffffffffff1663150b7a02611f11611646565b8786866040518563ffffffff1660e01b8152600401611f339493929190613e12565b6020604051808303816000875af1925050508015611f6f57506040513d601f19601f82011682018060405250810190611f6c9190613e73565b60015b611ff1573d8060008114611f9f576040519150601f19603f3d011682016040523d82523d6000602084013e611fa4565b606091505b506000815103611fe9576040517f08c379a0000000000000000000000000000000000000000000000000000000008152600401611fe090613d3d565b60405180910390fd5b805181602001fd5b63150b7a0260e01b7bffffffffffffffffffffffffffffffffffffffffffffffffffffffff1916817bffffffffffffffffffffffffffffffffffffffffffffffffffffffff191614915050612046565b600190505b949350505050565b606060405180602001604052806000815250905090565b6060612070826115fb565b600061207a61204e565b9050600081511161209a57604051806020016040528060008152506120c5565b806120a4846122ea565b6040516020016120b5929190613d99565b6040516020818303038152906040525b915050919050565b600073ffffffffffffffffffffffffffffffffffffffff168273ffffffffffffffffffffffffffffffffffffffff160361213c576040517f08c379a000000000000000000000000000000000000000000000000000000000815260040161213390613eec565b60405180910390fd5b61214581611e7a565b15612185576040517f08c379a000000000000000000000000000000000000000000000000000000000815260040161217c90613f58565b60405180910390fd5b612193600083836001611ebb565b61219c81611e7a565b156121dc576040517f08c379a00000000000000000000000000000000000000000000000000000000081526004016121d390613f58565b60405180910390fd5b6001606860008473ffffffffffffffffffffffffffffffffffffffff1673ffffffffffffffffffffffffffffffffffffffff16815260200190815260200160002060008282540192505081905550816067600083815260200190815260200160002060006101000a81548173ffffffffffffffffffffffffffffffffffffffff021916908373ffffffffffffffffffffffffffffffffffffffff160217905550808273ffffffffffffffffffffffffffffffffffffffff16600073ffffffffffffffffffffffffffffffffffffffff167fddf252ad1be2c89b69c2b068fc378daa952ba7f163c4a11628f55a4df523b3ef60405160405180910390a46122e6600083836001611ec1565b5050565b6060600060016122f9846123b8565b01905060008167ffffffffffffffff811115612318576123176125f8565b5b6040519080825280601f01601f19166020018201604052801561234a5781602001600182028036833780820191505090505b509050600082602001820190505b6001156123ad578080600190039150507f3031323334353637383961626364656600000000000000000000000000000000600a86061a8153600a85816123a1576123a0613f78565b5b04945060008503612358575b819350505050919050565b600080600090507a184f03e93ff9f4daa797ed6e38ed64bf6a1f0100000000000000008310612416577a184f03e93ff9f4daa797ed6e38ed64bf6a1f010000000000000000838161240c5761240b613f78565b5b0492506040810190505b6d04ee2d6d415b85acef81000000008310612453576d04ee2d6d415b85acef8100000000838161244957612448613f78565b5b0492506020810190505b662386f26fc10000831061248257662386f26fc10000838161247857612477613f78565b5b0492506010810190505b6305f5e10083106124ab576305f5e10083816124a1576124a0613f78565b5b0492506008810190505b61271083106124d05761271083816124c6576124c5613f78565b5b0492506004810190505b606483106124f357606483816124e9576124e8613f78565b5b0492506002810190505b600a8310612502576001810190505b80915050919050565b6000604051905090565b600080fd5b600080fd5b600073ffffffffffffffffffffffffffffffffffffffff82169050919050565b600061254a8261251f565b9050919050565b61255a8161253f565b811461256557600080fd5b50565b60008135905061257781612551565b92915050565b600080fd5b600080fd5b600080fd5b60008083601f8401126125a2576125a161257d565b5b8235905067ffffffffffffffff8111156125bf576125be612582565b5b6020830191508360018202830111156125db576125da612587565b5b9250929050565b600080fd5b6000601f19601f8301169050919050565b7f4e487b7100000000000000000000000000000000000000000000000000000000600052604160045260246000fd5b612630826125e7565b810181811067ffffffffffffffff8211171561264f5761264e6125f8565b5b80604052505050565b600061266261250b565b905061266e8282612627565b919050565b600067ffffffffffffffff82111561268e5761268d6125f8565b5b612697826125e7565b9050602081019050919050565b82818337600083830152505050565b60006126c66126c184612673565b612658565b9050828152602081018484840111156126e2576126e16125e2565b5b6126ed8482856126a4565b509392505050565b600082601f83011261270a5761270961257d565b5b813561271a8482602086016126b3565b91505092915050565b6000819050919050565b61273681612723565b811461274157600080fd5b50565b6000813590506127538161272d565b92915050565b60008060008060008060008060c0898b03121561277957612778612515565b5b60006127878b828c01612568565b985050602089013567ffffffffffffffff8111156127a8576127a761251a565b5b6127b48b828c0161258c565b9750975050604089013567ffffffffffffffff8111156127d7576127d661251a565b5b6127e38b828c0161258c565b955095505060606127f68b828c01612568565b935050608089013567ffffffffffffffff8111156128175761281661251a565b5b6128238b828c016126f5565b92505060a06128348b828c01612744565b9150509295985092959890939650565b60008115159050919050565b61285981612844565b82525050565b60006020820190506128746000830184612850565b92915050565b60007fffffffff0000000000000000000000000000000000000000000000000000000082169050919050565b6128af8161287a565b81146128ba57600080fd5b50565b6000813590506128cc816128a6565b92915050565b6000602082840312156128e8576128e7612515565b5b60006128f6848285016128bd565b91505092915050565b600081519050919050565b600082825260208201905092915050565b60005b8381101561293957808201518184015260208101905061291e565b60008484015250505050565b6000612950826128ff565b61295a818561290a565b935061296a81856020860161291b565b612973816125e7565b840191505092915050565b600060208201905081810360008301526129988184612945565b905092915050565b6000602082840312156129b6576129b5612515565b5b60006129c484828501612744565b91505092915050565b6129d68161253f565b82525050565b60006020820190506129f160008301846129cd565b92915050565b60008060408385031215612a0e57612a0d612515565b5b6000612a1c85828601612568565b9250506020612a2d85828601612744565b9150509250929050565b612a4081612723565b82525050565b6000602082019050612a5b6000830184612a37565b92915050565b600080600060608486031215612a7a57612a79612515565b5b6000612a8886828701612568565b9350506020612a9986828701612568565b9250506040612aaa86828701612744565b9150509250925092565b600060208284031215612aca57612ac9612515565b5b6000612ad884828501612568565b91505092915050565b612aea81612844565b8114612af557600080fd5b50565b600081359050612b0781612ae1565b92915050565b60008060408385031215612b2457612b23612515565b5b6000612b3285828601612568565b9250506020612b4385828601612af8565b9150509250929050565b60008060008060008060808789031215612b6a57612b69612515565b5b600087013567ffffffffffffffff811115612b8857612b8761251a565b5b612b9489828a0161258c565b9650965050602087013567ffffffffffffffff811115612bb757612bb661251a565b5b612bc389828a0161258c565b94509450506040612bd689828a01612744565b9250506060612be789828a01612744565b9150509295509295509295565b600067ffffffffffffffff821115612c0f57612c0e6125f8565b5b612c18826125e7565b9050602081019050919050565b6000612c38612c3384612bf4565b612658565b905082815260208101848484011115612c5457612c536125e2565b5b612c5f8482856126a4565b509392505050565b600082601f830112612c7c57612c7b61257d565b5b8135612c8c848260208601612c25565b91505092915050565b60008060008060808587031215612caf57612cae612515565b5b6000612cbd87828801612568565b9450506020612cce87828801612568565b9350506040612cdf87828801612744565b925050606085013567ffffffffffffffff811115612d0057612cff61251a565b5b612d0c87828801612c67565b91505092959194509250565b60008060408385031215612d2f57612d2e612515565b5b6000612d3d85828601612568565b9250506020612d4e85828601612568565b9150509250929050565b7f496e697469616c697a61626c653a20636f6e747261637420697320616c72656160008201527f647920696e697469616c697a6564000000000000000000000000000000000000602082015250565b6000612db4602e8361290a565b9150612dbf82612d58565b604082019050919050565b60006020820190508181036000830152612de381612da7565b9050919050565b7f496e76616c6964204e4654206f776e65723a207a65726f20616464726573732060008201527f6e6f742076616c69642100000000000000000000000000000000000000000000602082015250565b6000612e46602a8361290a565b9150612e5182612dea565b604082019050919050565b60006020820190508181036000830152612e7581612e39565b9050919050565b6000612e88838561290a565b9350612e958385846126a4565b612e9e836125e7565b840190509392505050565b60006060820190508181036000830152612ec4818789612e7c565b90508181036020830152612ed9818587612e7c565b9050612ee860408301846129cd565b9695505050505050565b6000819050919050565b600060ff82169050919050565b6000819050919050565b6000612f2e612f29612f2484612ef2565b612f09565b612efc565b9050919050565b612f3e81612f13565b82525050565b6000602082019050612f596000830184612f35565b92915050565b7f4e487b7100000000000000000000000000000000000000000000000000000000600052602260045260246000fd5b60006002820490506001821680612fa657607f821691505b602082108103612fb957612fb8612f5f565b5b50919050565b7f4552433732313a20617070726f76616c20746f2063757272656e74206f776e6560008201527f7200000000000000000000000000000000000000000000000000000000000000602082015250565b600061301b60218361290a565b915061302682612fbf565b604082019050919050565b6000602082019050818103600083015261304a8161300e565b9050919050565b7f4552433732313a20617070726f76652063616c6c6572206973206e6f7420746f60008201527f6b656e206f776e6572206f7220617070726f76656420666f7220616c6c000000602082015250565b60006130ad603d8361290a565b91506130b882613051565b604082019050919050565b600060208201905081810360008301526130dc816130a0565b9050919050565b7f4552433732313a2063616c6c6572206973206e6f7420746f6b656e206f776e6560008201527f72206f7220617070726f76656400000000000000000000000000000000000000602082015250565b600061313f602d8361290a565b915061314a826130e3565b604082019050919050565b6000602082019050818103600083015261316e81613132565b9050919050565b7f496e76616c696420416464726573732830290000000000000000000000000000600082015250565b60006131ab60128361290a565b91506131b682613175565b602082019050919050565b600060208201905081810360008301526131da8161319e565b9050919050565b7f43616e6e6f742073656c6c204e465420746f206d7973656c6600000000000000600082015250565b600061321760198361290a565b9150613222826131e1565b602082019050919050565b600060208201905081810360008301526132468161320a565b9050919050565b7f43616e6e6f74207472616e73666572207468697320746f6b656e496400000000600082015250565b6000613283601c8361290a565b915061328e8261324d565b602082019050919050565b600060208201905081810360008301526132b281613276565b9050919050565b7f4e6f7420656e6f7567682066756e647320746f2062757920746869732061776560008201527f736f6d65204e4654000000000000000000000000000000000000000000000000602082015250565b600061331560288361290a565b9150613320826132b9565b604082019050919050565b6000602082019050818103600083015261334481613308565b9050919050565b7f4e487b7100000000000000000000000000000000000000000000000000000000600052603260045260246000fd5b7f4552433732313a20696e76616c696420746f6b656e2049440000000000000000600082015250565b60006133b060188361290a565b91506133bb8261337a565b602082019050919050565b600060208201905081810360008301526133df816133a3565b9050919050565b7f4552433732313a2061646472657373207a65726f206973206e6f74206120766160008201527f6c6964206f776e65720000000000000000000000000000000000000000000000602082015250565b600061344260298361290a565b915061344d826133e6565b604082019050919050565b6000602082019050818103600083015261347181613435565b9050919050565b7f4e6f7420746865204e4654206f776e6572210000000000000000000000000000600082015250565b60006134ae60128361290a565b91506134b982613478565b602082019050919050565b600060208201905081810360008301526134dd816134a1565b9050919050565b7f4e465420636f73742063616e6e6f74206265206e656761746976650000000000600082015250565b600061351a601b8361290a565b9150613525826134e4565b602082019050919050565b600060208201905081810360008301526135498161350d565b9050919050565b7f4e657720707269636520657175616c20746f206f6c6420707269636521000000600082015250565b6000613586601d8361290a565b915061359182613550565b602082019050919050565b600060208201905081810360008301526135b581613579565b9050919050565b600060808201905081810360008301526135d68187612945565b905081810360208301526135ea8186612945565b90506135f96040830185612a37565b6136066060830184612a37565b95945050505050565b7f43617020616e6420696e697469616c20737570706c79206e6f742076616c6964600082015250565b600061364560208361290a565b91506136508261360f565b602082019050919050565b6000602082019050818103600083015261367481613638565b9050919050565b600060a082019050818103600083015261369681898b612e7c565b905081810360208301526136ab818789612e7c565b90506136ba60408301866129cd565b6136c76060830185612a37565b6136d46080830184612a37565b98975050505050505050565b6000815190506136ef81612551565b92915050565b60006020828403121561370b5761370a612515565b5b6000613719848285016136e0565b91505092915050565b600060e082019050818103600083015261373d818b8d612e7c565b9050818103602083015261375281898b612e7c565b905061376160408301886129cd565b61376e60608301876129cd565b61377b60808301866129cd565b61378860a0830185612a37565b61379560c0830184612a37565b9a9950505050505050505050565b7f496e697469616c697a61626c653a20636f6e7472616374206973206e6f74206960008201527f6e697469616c697a696e67000000000000000000000000000000000000000000602082015250565b60006137ff602b8361290a565b915061380a826137a3565b604082019050919050565b6000602082019050818103600083015261382e816137f2565b9050919050565b7f45524337323155524953746f726167653a2055524920736574206f66206e6f6e60008201527f6578697374656e7420746f6b656e000000000000000000000000000000000000602082015250565b6000613891602e8361290a565b915061389c82613835565b604082019050919050565b600060208201905081810360008301526138c081613884565b9050919050565b60008190508160005260206000209050919050565b60006020601f8301049050919050565b600082821b905092915050565b6000600883026139297fffffffffffffffffffffffffffffffffffffffffffffffffffffffffffffffff826138ec565b61393386836138ec565b95508019841693508086168417925050509392505050565b600061396661396161395c84612723565b612f09565b612723565b9050919050565b6000819050919050565b6139808361394b565b61399461398c8261396d565b8484546138f9565b825550505050565b600090565b6139a961399c565b6139b4818484613977565b505050565b5b818110156139d8576139cd6000826139a1565b6001810190506139ba565b5050565b601f821115613a1d576139ee816138c7565b6139f7846138dc565b81016020851015613a06578190505b613a1a613a12856138dc565b8301826139b9565b50505b505050565b600082821c905092915050565b6000613a4060001984600802613a22565b1980831691505092915050565b6000613a598383613a2f565b9150826002028217905092915050565b613a72826128ff565b67ffffffffffffffff811115613a8b57613a8a6125f8565b5b613a958254612f8e565b613aa08282856139dc565b600060209050601f831160018114613ad35760008415613ac1578287015190505b613acb8582613a4d565b865550613b33565b601f198416613ae1866138c7565b60005b82811015613b0957848901518255600182019150602085019450602081019050613ae4565b86831015613b265784890151613b22601f891682613a2f565b8355505b6001600288020188555050505b505050505050565b7f4552433732313a207472616e736665722066726f6d20696e636f72726563742060008201527f6f776e6572000000000000000000000000000000000000000000000000000000602082015250565b6000613b9760258361290a565b9150613ba282613b3b565b604082019050919050565b60006020820190508181036000830152613bc681613b8a565b9050919050565b7f4552433732313a207472616e7366657220746f20746865207a65726f2061646460008201527f7265737300000000000000000000000000000000000000000000000000000000602082015250565b6000613c2960248361290a565b9150613c3482613bcd565b604082019050919050565b60006020820190508181036000830152613c5881613c1c565b9050919050565b7f4552433732313a20617070726f766520746f2063616c6c657200000000000000600082015250565b6000613c9560198361290a565b9150613ca082613c5f565b602082019050919050565b60006020820190508181036000830152613cc481613c88565b9050919050565b7f4552433732313a207472616e7366657220746f206e6f6e20455243373231526560008201527f63656976657220696d706c656d656e7465720000000000000000000000000000602082015250565b6000613d2760328361290a565b9150613d3282613ccb565b604082019050919050565b60006020820190508181036000830152613d5681613d1a565b9050919050565b600081905092915050565b6000613d73826128ff565b613d7d8185613d5d565b9350613d8d81856020860161291b565b80840191505092915050565b6000613da58285613d68565b9150613db18284613d68565b91508190509392505050565b600081519050919050565b600082825260208201905092915050565b6000613de482613dbd565b613dee8185613dc8565b9350613dfe81856020860161291b565b613e07816125e7565b840191505092915050565b6000608082019050613e2760008301876129cd565b613e3460208301866129cd565b613e416040830185612a37565b8181036060830152613e538184613dd9565b905095945050505050565b600081519050613e6d816128a6565b92915050565b600060208284031215613e8957613e88612515565b5b6000613e9784828501613e5e565b91505092915050565b7f4552433732313a206d696e7420746f20746865207a65726f2061646472657373600082015250565b6000613ed660208361290a565b9150613ee182613ea0565b602082019050919050565b60006020820190508181036000830152613f0581613ec9565b9050919050565b7f4552433732313a20746f6b656e20616c7265616479206d696e74656400000000600082015250565b6000613f42601c8361290a565b9150613f4d82613f0c565b602082019050919050565b60006020820190508181036000830152613f7181613f35565b9050919050565b7f4e487b7100000000000000000000000000000000000000000000000000000000600052601260045260246000fdfea26469706673582212201ece8abd050b09419b4252e05efd1f1ea49cd91446e457be5e61139ba6ddfd0664736f6c63430008120033","opcodes":"PUSH1 0x80 PUSH1 0x40 MSTORE CALLVALUE DUP1 ISZERO PUSH2 0x10 JUMPI PUSH1 0x0 DUP1 REVERT JUMPDEST POP PUSH2 0x3FDD DUP1 PUSH2 0x20 PUSH1 0x0 CODECOPY PUSH1 0x0 RETURN INVALID PUSH1 0x80 PUSH1 0x40 MSTORE PUSH1 0x4 CALLDATASIZE LT PUSH2 0x123 JUMPI PUSH1 0x0 CALLDATALOAD PUSH1 0xE0 SHR DUP1 PUSH4 0x601CC24B GT PUSH2 0xA0 JUMPI DUP1 PUSH4 0xA22CB465 GT PUSH2 0x64 JUMPI DUP1 PUSH4 0xA22CB465 EQ PUSH2 0x3F4 JUMPI DUP1 PUSH4 0xB0C5A7E5 EQ PUSH2 0x41D JUMPI DUP1 PUSH4 0xB88D4FDE EQ PUSH2 0x45A JUMPI DUP1 PUSH4 0xC87B56DD EQ PUSH2 0x483 JUMPI DUP1 PUSH4 0xE985E9C5 EQ PUSH2 0x4C0 JUMPI PUSH2 0x12A JUMP JUMPDEST DUP1 PUSH4 0x601CC24B EQ PUSH2 0x2FB JUMPI DUP1 PUSH4 0x6352211E EQ PUSH2 0x326 JUMPI DUP1 PUSH4 0x70A08231 EQ PUSH2 0x363 JUMPI DUP1 PUSH4 0x91B7F5ED EQ PUSH2 0x3A0 JUMPI DUP1 PUSH4 0x95D89B41 EQ PUSH2 0x3C9 JUMPI PUSH2 0x12A JUMP JUMPDEST DUP1 PUSH4 0x1FF95DA9 GT PUSH2 0xE7 JUMPI DUP1 PUSH4 0x1FF95DA9 EQ PUSH2 0x237 JUMPI DUP1 PUSH4 0x23B872DD EQ PUSH2 0x262 JUMPI DUP1 PUSH4 0x42842E0E EQ PUSH2 0x28B JUMPI DUP1 PUSH4 0x51ED8288 EQ PUSH2 0x2B4 JUMPI DUP1 PUSH4 0x5245F3BD EQ PUSH2 0x2D0 JUMPI PUSH2 0x12A JUMP JUMPDEST DUP1 PUSH4 0x1EAAEA2 EQ PUSH2 0x12C JUMPI DUP1 PUSH4 0x1FFC9A7 EQ PUSH2 0x169 JUMPI DUP1 PUSH4 0x6FDDE03 EQ PUSH2 0x1A6 JUMPI DUP1 PUSH4 0x81812FC EQ PUSH2 0x1D1 JUMPI DUP1 PUSH4 0x95EA7B3 EQ PUSH2 0x20E JUMPI PUSH2 0x12A JUMP JUMPDEST CALLDATASIZE PUSH2 0x12A JUMPI STOP JUMPDEST STOP JUMPDEST CALLVALUE DUP1 ISZERO PUSH2 0x138 JUMPI PUSH1 0x0 DUP1 REVERT JUMPDEST POP PUSH2 0x153 PUSH1 0x4 DUP1 CALLDATASIZE SUB DUP2 ADD SWAP1 PUSH2 0x14E SWAP2 SWAP1 PUSH2 0x2759 JUMP JUMPDEST PUSH2 0x4FD JUMP JUMPDEST PUSH1 0x40 MLOAD PUSH2 0x160 SWAP2 SWAP1 PUSH2 0x285F JUMP JUMPDEST PUSH1 0x40 MLOAD DUP1 SWAP2 SUB SWAP1 RETURN JUMPDEST CALLVALUE DUP1 ISZERO PUSH2 0x175 JUMPI PUSH1 0x0 DUP1 REVERT JUMPDEST POP PUSH2 0x190 PUSH1 0x4 DUP1 CALLDATASIZE SUB DUP2 ADD SWAP1 PUSH2 0x18B SWAP2 SWAP1 PUSH2 0x28D2 JUMP JUMPDEST PUSH2 0x822 JUMP JUMPDEST PUSH1 0x40 MLOAD PUSH2 0x19D SWAP2 SWAP1 PUSH2 0x285F JUMP JUMPDEST PUSH1 0x40 MLOAD DUP1 SWAP2 SUB SWAP1 RETURN JUMPDEST CALLVALUE DUP1 ISZERO PUSH2 0x1B2 JUMPI PUSH1 0x0 DUP1 REVERT JUMPDEST POP PUSH2 0x1BB PUSH2 0x904 JUMP JUMPDEST PUSH1 0x40 MLOAD PUSH2 0x1C8 SWAP2 SWAP1 PUSH2 0x297E JUMP JUMPDEST PUSH1 0x40 MLOAD DUP1 SWAP2 SUB SWAP1 RETURN JUMPDEST CALLVALUE DUP1 ISZERO PUSH2 0x1DD JUMPI PUSH1 0x0 DUP1 REVERT JUMPDEST POP PUSH2 0x1F8 PUSH1 0x4 DUP1 CALLDATASIZE SUB DUP2 ADD SWAP1 PUSH2 0x1F3 SWAP2 SWAP1 PUSH2 0x29A0 JUMP JUMPDEST PUSH2 0x996 JUMP JUMPDEST PUSH1 0x40 MLOAD PUSH2 0x205 SWAP2 SWAP1 PUSH2 0x29DC JUMP JUMPDEST PUSH1 0x40 MLOAD DUP1 SWAP2 SUB SWAP1 RETURN JUMPDEST CALLVALUE DUP1 ISZERO PUSH2 0x21A JUMPI PUSH1 0x0 DUP1 REVERT JUMPDEST POP PUSH2 0x235 PUSH1 0x4 DUP1 CALLDATASIZE SUB DUP2 ADD SWAP1 PUSH2 0x230 SWAP2 SWAP1 PUSH2 0x29F7 JUMP JUMPDEST PUSH2 0x9DC JUMP JUMPDEST STOP JUMPDEST CALLVALUE DUP1 ISZERO PUSH2 0x243 JUMPI PUSH1 0x0 DUP1 REVERT JUMPDEST POP PUSH2 0x24C PUSH2 0xAF3 JUMP JUMPDEST PUSH1 0x40 MLOAD PUSH2 0x259 SWAP2 SWAP1 PUSH2 0x2A46 JUMP JUMPDEST PUSH1 0x40 MLOAD DUP1 SWAP2 SUB SWAP1 RETURN JUMPDEST CALLVALUE DUP1 ISZERO PUSH2 0x26E JUMPI PUSH1 0x0 DUP1 REVERT JUMPDEST POP PUSH2 0x289 PUSH1 0x4 DUP1 CALLDATASIZE SUB DUP2 ADD SWAP1 PUSH2 0x284 SWAP2 SWAP1 PUSH2 0x2A61 JUMP JUMPDEST PUSH2 0xAFD JUMP JUMPDEST STOP JUMPDEST CALLVALUE DUP1 ISZERO PUSH2 0x297 JUMPI PUSH1 0x0 DUP1 REVERT JUMPDEST POP PUSH2 0x2B2 PUSH1 0x4 DUP1 CALLDATASIZE SUB DUP2 ADD SWAP1 PUSH2 0x2AD SWAP2 SWAP1 PUSH2 0x2A61 JUMP JUMPDEST PUSH2 0xB5D JUMP JUMPDEST STOP JUMPDEST PUSH2 0x2CE PUSH1 0x4 DUP1 CALLDATASIZE SUB DUP2 ADD SWAP1 PUSH2 0x2C9 SWAP2 SWAP1 PUSH2 0x29A0 JUMP JUMPDEST PUSH2 0xB7D JUMP JUMPDEST STOP JUMPDEST CALLVALUE DUP1 ISZERO PUSH2 0x2DC JUMPI PUSH1 0x0 DUP1 REVERT JUMPDEST POP PUSH2 0x2E5 PUSH2 0xD49 JUMP JUMPDEST PUSH1 0x40 MLOAD PUSH2 0x2F2 SWAP2 SWAP1 PUSH2 0x29DC JUMP JUMPDEST PUSH1 0x40 MLOAD DUP1 SWAP2 SUB SWAP1 RETURN JUMPDEST CALLVALUE DUP1 ISZERO PUSH2 0x307 JUMPI PUSH1 0x0 DUP1 REVERT JUMPDEST POP PUSH2 0x310 PUSH2 0xD5A JUMP JUMPDEST PUSH1 0x40 MLOAD PUSH2 0x31D SWAP2 SWAP1 PUSH2 0x29DC JUMP JUMPDEST PUSH1 0x40 MLOAD DUP1 SWAP2 SUB SWAP1 RETURN JUMPDEST CALLVALUE DUP1 ISZERO PUSH2 0x332 JUMPI PUSH1 0x0 DUP1 REVERT JUMPDEST POP PUSH2 0x34D PUSH1 0x4 DUP1 CALLDATASIZE SUB DUP2 ADD SWAP1 PUSH2 0x348 SWAP2 SWAP1 PUSH2 0x29A0 JUMP JUMPDEST PUSH2 0xDA1 JUMP JUMPDEST PUSH1 0x40 MLOAD PUSH2 0x35A SWAP2 SWAP1 PUSH2 0x29DC JUMP JUMPDEST PUSH1 0x40 MLOAD DUP1 SWAP2 SUB SWAP1 RETURN JUMPDEST CALLVALUE DUP1 ISZERO PUSH2 0x36F JUMPI PUSH1 0x0 DUP1 REVERT JUMPDEST POP PUSH2 0x38A PUSH1 0x4 DUP1 CALLDATASIZE SUB DUP2 ADD SWAP1 PUSH2 0x385 SWAP2 SWAP1 PUSH2 0x2AB4 JUMP JUMPDEST PUSH2 0xE27 JUMP JUMPDEST PUSH1 0x40 MLOAD PUSH2 0x397 SWAP2 SWAP1 PUSH2 0x2A46 JUMP JUMPDEST PUSH1 0x40 MLOAD DUP1 SWAP2 SUB SWAP1 RETURN JUMPDEST CALLVALUE DUP1 ISZERO PUSH2 0x3AC JUMPI PUSH1 0x0 DUP1 REVERT JUMPDEST POP PUSH2 0x3C7 PUSH1 0x4 DUP1 CALLDATASIZE SUB DUP2 ADD SWAP1 PUSH2 0x3C2 SWAP2 SWAP1 PUSH2 0x29A0 JUMP JUMPDEST PUSH2 0xEDE JUMP JUMPDEST STOP JUMPDEST CALLVALUE DUP1 ISZERO PUSH2 0x3D5 JUMPI PUSH1 0x0 DUP1 REVERT JUMPDEST POP PUSH2 0x3DE PUSH2 0x105C JUMP JUMPDEST PUSH1 0x40 MLOAD PUSH2 0x3EB SWAP2 SWAP1 PUSH2 0x297E JUMP JUMPDEST PUSH1 0x40 MLOAD DUP1 SWAP2 SUB SWAP1 RETURN JUMPDEST CALLVALUE DUP1 ISZERO PUSH2 0x400 JUMPI PUSH1 0x0 DUP1 REVERT JUMPDEST POP PUSH2 0x41B PUSH1 0x4 DUP1 CALLDATASIZE SUB DUP2 ADD SWAP1 PUSH2 0x416 SWAP2 SWAP1 PUSH2 0x2B0D JUMP JUMPDEST PUSH2 0x10EE JUMP JUMPDEST STOP JUMPDEST CALLVALUE DUP1 ISZERO PUSH2 0x429 JUMPI PUSH1 0x0 DUP1 REVERT JUMPDEST POP PUSH2 0x444 PUSH1 0x4 DUP1 CALLDATASIZE SUB DUP2 ADD SWAP1 PUSH2 0x43F SWAP2 SWAP1 PUSH2 0x2B4D JUMP JUMPDEST PUSH2 0x1104 JUMP JUMPDEST PUSH1 0x40 MLOAD PUSH2 0x451 SWAP2 SWAP1 PUSH2 0x29DC JUMP JUMPDEST PUSH1 0x40 MLOAD DUP1 SWAP2 SUB SWAP1 RETURN JUMPDEST CALLVALUE DUP1 ISZERO PUSH2 0x466 JUMPI PUSH1 0x0 DUP1 REVERT JUMPDEST POP PUSH2 0x481 PUSH1 0x4 DUP1 CALLDATASIZE SUB DUP2 ADD SWAP1 PUSH2 0x47C SWAP2 SWAP1 PUSH2 0x2C95 JUMP JUMPDEST PUSH2 0x132D JUMP JUMPDEST STOP JUMPDEST CALLVALUE DUP1 ISZERO PUSH2 0x48F JUMPI PUSH1 0x0 DUP1 REVERT JUMPDEST POP PUSH2 0x4AA PUSH1 0x4 DUP1 CALLDATASIZE SUB DUP2 ADD SWAP1 PUSH2 0x4A5 SWAP2 SWAP1 PUSH2 0x29A0 JUMP JUMPDEST PUSH2 0x138F JUMP JUMPDEST PUSH1 0x40 MLOAD PUSH2 0x4B7 SWAP2 SWAP1 PUSH2 0x297E JUMP JUMPDEST PUSH1 0x40 MLOAD DUP1 SWAP2 SUB SWAP1 RETURN JUMPDEST CALLVALUE DUP1 ISZERO PUSH2 0x4CC JUMPI PUSH1 0x0 DUP1 REVERT JUMPDEST POP PUSH2 0x4E7 PUSH1 0x4 DUP1 CALLDATASIZE SUB DUP2 ADD SWAP1 PUSH2 0x4E2 SWAP2 SWAP1 PUSH2 0x2D18 JUMP JUMPDEST PUSH2 0x13A1 JUMP JUMPDEST PUSH1 0x40 MLOAD PUSH2 0x4F4 SWAP2 SWAP1 PUSH2 0x285F JUMP JUMPDEST PUSH1 0x40 MLOAD DUP1 SWAP2 SUB SWAP1 RETURN JUMPDEST PUSH1 0x0 DUP1 PUSH1 0x0 PUSH1 0x1 SWAP1 SLOAD SWAP1 PUSH2 0x100 EXP SWAP1 DIV PUSH1 0xFF AND ISZERO SWAP1 POP DUP1 DUP1 ISZERO PUSH2 0x530 JUMPI POP PUSH1 0x1 PUSH1 0x0 DUP1 SLOAD SWAP1 PUSH2 0x100 EXP SWAP1 DIV PUSH1 0xFF AND PUSH1 0xFF AND LT JUMPDEST DUP1 PUSH2 0x55D JUMPI POP PUSH2 0x53F ADDRESS PUSH2 0x1435 JUMP JUMPDEST ISZERO DUP1 ISZERO PUSH2 0x55C JUMPI POP PUSH1 0x1 PUSH1 0x0 DUP1 SLOAD SWAP1 PUSH2 0x100 EXP SWAP1 DIV PUSH1 0xFF AND PUSH1 0xFF AND EQ JUMPDEST JUMPDEST PUSH2 0x59C JUMPI PUSH1 0x40 MLOAD PUSH32 0x8C379A000000000000000000000000000000000000000000000000000000000 DUP2 MSTORE PUSH1 0x4 ADD PUSH2 0x593 SWAP1 PUSH2 0x2DCA JUMP JUMPDEST PUSH1 0x40 MLOAD DUP1 SWAP2 SUB SWAP1 REVERT JUMPDEST PUSH1 0x1 PUSH1 0x0 DUP1 PUSH2 0x100 EXP DUP2 SLOAD DUP2 PUSH1 0xFF MUL NOT AND SWAP1 DUP4 PUSH1 0xFF AND MUL OR SWAP1 SSTORE POP DUP1 ISZERO PUSH2 0x5D9 JUMPI PUSH1 0x1 PUSH1 0x0 PUSH1 0x1 PUSH2 0x100 EXP DUP2 SLOAD DUP2 PUSH1 0xFF MUL NOT AND SWAP1 DUP4 ISZERO ISZERO MUL OR SWAP1 SSTORE POP JUMPDEST PUSH1 0x0 PUSH20 0xFFFFFFFFFFFFFFFFFFFFFFFFFFFFFFFFFFFFFFFF AND DUP11 PUSH20 0xFFFFFFFFFFFFFFFFFFFFFFFFFFFFFFFFFFFFFFFF AND SUB PUSH2 0x648 JUMPI PUSH1 0x40 MLOAD PUSH32 0x8C379A000000000000000000000000000000000000000000000000000000000 DUP2 MSTORE PUSH1 0x4 ADD PUSH2 0x63F SWAP1 PUSH2 0x2E5C JUMP JUMPDEST PUSH1 0x40 MLOAD DUP1 SWAP2 SUB SWAP1 REVERT JUMPDEST PUSH2 0x6DA DUP10 DUP10 DUP1 DUP1 PUSH1 0x1F ADD PUSH1 0x20 DUP1 SWAP2 DIV MUL PUSH1 0x20 ADD PUSH1 0x40 MLOAD SWAP1 DUP2 ADD PUSH1 0x40 MSTORE DUP1 SWAP4 SWAP3 SWAP2 SWAP1 DUP2 DUP2 MSTORE PUSH1 0x20 ADD DUP4 DUP4 DUP1 DUP3 DUP5 CALLDATACOPY PUSH1 0x0 DUP2 DUP5 ADD MSTORE PUSH1 0x1F NOT PUSH1 0x1F DUP3 ADD AND SWAP1 POP DUP1 DUP4 ADD SWAP3 POP POP POP POP POP POP POP DUP9 DUP9 DUP1 DUP1 PUSH1 0x1F ADD PUSH1 0x20 DUP1 SWAP2 DIV MUL PUSH1 0x20 ADD PUSH1 0x40 MLOAD SWAP1 DUP2 ADD PUSH1 0x40 MSTORE DUP1 SWAP4 SWAP3 SWAP2 SWAP1 DUP2 DUP2 MSTORE PUSH1 0x20 ADD DUP4 DUP4 DUP1 DUP3 DUP5 CALLDATACOPY PUSH1 0x0 DUP2 DUP5 ADD MSTORE PUSH1 0x1F NOT PUSH1 0x1F DUP3 ADD AND SWAP1 POP DUP1 DUP4 ADD SWAP3 POP POP POP POP POP POP POP PUSH2 0x1458 JUMP JUMPDEST PUSH2 0x6E2 PUSH2 0x14B5 JUMP JUMPDEST DUP5 PUSH1 0xC9 PUSH1 0x0 PUSH2 0x100 EXP DUP2 SLOAD DUP2 PUSH20 0xFFFFFFFFFFFFFFFFFFFFFFFFFFFFFFFFFFFFFFFF MUL NOT AND SWAP1 DUP4 PUSH20 0xFFFFFFFFFFFFFFFFFFFFFFFFFFFFFFFFFFFFFFFF AND MUL OR SWAP1 SSTORE POP DUP3 PUSH1 0xCA DUP2 SWAP1 SSTORE POP PUSH2 0x735 DUP11 PUSH1 0x1 PUSH2 0x1506 JUMP JUMPDEST PUSH2 0x740 PUSH1 0x1 DUP6 PUSH2 0x1524 JUMP JUMPDEST DUP10 PUSH20 0xFFFFFFFFFFFFFFFFFFFFFFFFFFFFFFFFFFFFFFFF AND PUSH32 0xD133D105F7B44671EC3A00C607590E7154ADAAFD2E0E9542B201374F29358519 DUP11 DUP11 DUP11 DUP11 PUSH1 0xC9 PUSH1 0x0 SWAP1 SLOAD SWAP1 PUSH2 0x100 EXP SWAP1 DIV PUSH20 0xFFFFFFFFFFFFFFFFFFFFFFFFFFFFFFFFFFFFFFFF AND PUSH1 0x40 MLOAD PUSH2 0x7B0 SWAP6 SWAP5 SWAP4 SWAP3 SWAP2 SWAP1 PUSH2 0x2EA9 JUMP JUMPDEST PUSH1 0x40 MLOAD DUP1 SWAP2 SUB SWAP1 LOG2 PUSH1 0x1 SWAP2 POP DUP1 ISZERO PUSH2 0x815 JUMPI PUSH1 0x0 DUP1 PUSH1 0x1 PUSH2 0x100 EXP DUP2 SLOAD DUP2 PUSH1 0xFF MUL NOT AND SWAP1 DUP4 ISZERO ISZERO MUL OR SWAP1 SSTORE POP PUSH32 0x7F26B83FF96E1F2B6A682F133852F6798A09C465DA95921460CEFB3847402498 PUSH1 0x1 PUSH1 0x40 MLOAD PUSH2 0x80C SWAP2 SWAP1 PUSH2 0x2F44 JUMP JUMPDEST PUSH1 0x40 MLOAD DUP1 SWAP2 SUB SWAP1 LOG1 JUMPDEST POP SWAP9 SWAP8 POP POP POP POP POP POP POP POP JUMP JUMPDEST PUSH1 0x0 PUSH32 0x80AC58CD00000000000000000000000000000000000000000000000000000000 PUSH28 0xFFFFFFFFFFFFFFFFFFFFFFFFFFFFFFFFFFFFFFFFFFFFFFFFFFFFFFFF NOT AND DUP3 PUSH28 0xFFFFFFFFFFFFFFFFFFFFFFFFFFFFFFFFFFFFFFFFFFFFFFFFFFFFFFFF NOT AND EQ DUP1 PUSH2 0x8ED JUMPI POP PUSH32 0x5B5E139F00000000000000000000000000000000000000000000000000000000 PUSH28 0xFFFFFFFFFFFFFFFFFFFFFFFFFFFFFFFFFFFFFFFFFFFFFFFFFFFFFFFF NOT AND DUP3 PUSH28 0xFFFFFFFFFFFFFFFFFFFFFFFFFFFFFFFFFFFFFFFFFFFFFFFFFFFFFFFF NOT AND EQ JUMPDEST DUP1 PUSH2 0x8FD JUMPI POP PUSH2 0x8FC DUP3 PUSH2 0x1591 JUMP JUMPDEST JUMPDEST SWAP1 POP SWAP2 SWAP1 POP JUMP JUMPDEST PUSH1 0x60 PUSH1 0x65 DUP1 SLOAD PUSH2 0x913 SWAP1 PUSH2 0x2F8E JUMP JUMPDEST DUP1 PUSH1 0x1F ADD PUSH1 0x20 DUP1 SWAP2 DIV MUL PUSH1 0x20 ADD PUSH1 0x40 MLOAD SWAP1 DUP2 ADD PUSH1 0x40 MSTORE DUP1 SWAP3 SWAP2 SWAP1 DUP2 DUP2 MSTORE PUSH1 0x20 ADD DUP3 DUP1 SLOAD PUSH2 0x93F SWAP1 PUSH2 0x2F8E JUMP JUMPDEST DUP1 ISZERO PUSH2 0x98C JUMPI DUP1 PUSH1 0x1F LT PUSH2 0x961 JUMPI PUSH2 0x100 DUP1 DUP4 SLOAD DIV MUL DUP4 MSTORE SWAP2 PUSH1 0x20 ADD SWAP2 PUSH2 0x98C JUMP JUMPDEST DUP3 ADD SWAP2 SWAP1 PUSH1 0x0 MSTORE PUSH1 0x20 PUSH1 0x0 KECCAK256 SWAP1 JUMPDEST DUP2 SLOAD DUP2 MSTORE SWAP1 PUSH1 0x1 ADD SWAP1 PUSH1 0x20 ADD DUP1 DUP4 GT PUSH2 0x96F JUMPI DUP3 SWAP1 SUB PUSH1 0x1F AND DUP3 ADD SWAP2 JUMPDEST POP POP POP POP POP SWAP1 POP SWAP1 JUMP JUMPDEST PUSH1 0x0 PUSH2 0x9A1 DUP3 PUSH2 0x15FB JUMP JUMPDEST PUSH1 0x69 PUSH1 0x0 DUP4 DUP2 MSTORE PUSH1 0x20 ADD SWAP1 DUP2 MSTORE PUSH1 0x20 ADD PUSH1 0x0 KECCAK256 PUSH1 0x0 SWAP1 SLOAD SWAP1 PUSH2 0x100 EXP SWAP1 DIV PUSH20 0xFFFFFFFFFFFFFFFFFFFFFFFFFFFFFFFFFFFFFFFF AND SWAP1 POP SWAP2 SWAP1 POP JUMP JUMPDEST PUSH1 0x0 PUSH2 0x9E7 DUP3 PUSH2 0xDA1 JUMP JUMPDEST SWAP1 POP DUP1 PUSH20 0xFFFFFFFFFFFFFFFFFFFFFFFFFFFFFFFFFFFFFFFF AND DUP4 PUSH20 0xFFFFFFFFFFFFFFFFFFFFFFFFFFFFFFFFFFFFFFFF AND SUB PUSH2 0xA57 JUMPI PUSH1 0x40 MLOAD PUSH32 0x8C379A000000000000000000000000000000000000000000000000000000000 DUP2 MSTORE PUSH1 0x4 ADD PUSH2 0xA4E SWAP1 PUSH2 0x3031 JUMP JUMPDEST PUSH1 0x40 MLOAD DUP1 SWAP2 SUB SWAP1 REVERT JUMPDEST DUP1 PUSH20 0xFFFFFFFFFFFFFFFFFFFFFFFFFFFFFFFFFFFFFFFF AND PUSH2 0xA76 PUSH2 0x1646 JUMP JUMPDEST PUSH20 0xFFFFFFFFFFFFFFFFFFFFFFFFFFFFFFFFFFFFFFFF AND EQ DUP1 PUSH2 0xAA5 JUMPI POP PUSH2 0xAA4 DUP2 PUSH2 0xA9F PUSH2 0x1646 JUMP JUMPDEST PUSH2 0x13A1 JUMP JUMPDEST JUMPDEST PUSH2 0xAE4 JUMPI PUSH1 0x40 MLOAD PUSH32 0x8C379A000000000000000000000000000000000000000000000000000000000 DUP2 MSTORE PUSH1 0x4 ADD PUSH2 0xADB SWAP1 PUSH2 0x30C3 JUMP JUMPDEST PUSH1 0x40 MLOAD DUP1 SWAP2 SUB SWAP1 REVERT JUMPDEST PUSH2 0xAEE DUP4 DUP4 PUSH2 0x164E JUMP JUMPDEST POP POP POP JUMP JUMPDEST PUSH1 0x0 PUSH1 0xCA SLOAD SWAP1 POP SWAP1 JUMP JUMPDEST PUSH2 0xB0E PUSH2 0xB08 PUSH2 0x1646 JUMP JUMPDEST DUP3 PUSH2 0x1707 JUMP JUMPDEST PUSH2 0xB4D JUMPI PUSH1 0x40 MLOAD PUSH32 0x8C379A000000000000000000000000000000000000000000000000000000000 DUP2 MSTORE PUSH1 0x4 ADD PUSH2 0xB44 SWAP1 PUSH2 0x3155 JUMP JUMPDEST PUSH1 0x40 MLOAD DUP1 SWAP2 SUB SWAP1 REVERT JUMPDEST PUSH2 0xB58 DUP4 DUP4 DUP4 PUSH2 0x179C JUMP JUMPDEST POP POP POP JUMP JUMPDEST PUSH2 0xB78 DUP4 DUP4 DUP4 PUSH1 0x40 MLOAD DUP1 PUSH1 0x20 ADD PUSH1 0x40 MSTORE DUP1 PUSH1 0x0 DUP2 MSTORE POP PUSH2 0x132D JUMP JUMPDEST POP POP POP JUMP JUMPDEST PUSH1 0x0 PUSH2 0xB89 PUSH1 0x1 PUSH2 0xDA1 JUMP JUMPDEST SWAP1 POP PUSH1 0x0 PUSH20 0xFFFFFFFFFFFFFFFFFFFFFFFFFFFFFFFFFFFFFFFF AND CALLER PUSH20 0xFFFFFFFFFFFFFFFFFFFFFFFFFFFFFFFFFFFFFFFF AND SUB PUSH2 0xBFA JUMPI PUSH1 0x40 MLOAD PUSH32 0x8C379A000000000000000000000000000000000000000000000000000000000 DUP2 MSTORE PUSH1 0x4 ADD PUSH2 0xBF1 SWAP1 PUSH2 0x31C1 JUMP JUMPDEST PUSH1 0x40 MLOAD DUP1 SWAP2 SUB SWAP1 REVERT JUMPDEST DUP1 PUSH20 0xFFFFFFFFFFFFFFFFFFFFFFFFFFFFFFFFFFFFFFFF AND CALLER PUSH20 0xFFFFFFFFFFFFFFFFFFFFFFFFFFFFFFFFFFFFFFFF AND SUB PUSH2 0xC68 JUMPI PUSH1 0x40 MLOAD PUSH32 0x8C379A000000000000000000000000000000000000000000000000000000000 DUP2 MSTORE PUSH1 0x4 ADD PUSH2 0xC5F SWAP1 PUSH2 0x322D JUMP JUMPDEST PUSH1 0x40 MLOAD DUP1 SWAP2 SUB SWAP1 REVERT JUMPDEST PUSH1 0x1 DUP3 EQ PUSH2 0xCAB JUMPI PUSH1 0x40 MLOAD PUSH32 0x8C379A000000000000000000000000000000000000000000000000000000000 DUP2 MSTORE PUSH1 0x4 ADD PUSH2 0xCA2 SWAP1 PUSH2 0x3299 JUMP JUMPDEST PUSH1 0x40 MLOAD DUP1 SWAP2 SUB SWAP1 REVERT JUMPDEST PUSH1 0xCA SLOAD CALLVALUE LT ISZERO PUSH2 0xCF0 JUMPI PUSH1 0x40 MLOAD PUSH32 0x8C379A000000000000000000000000000000000000000000000000000000000 DUP2 MSTORE PUSH1 0x4 ADD PUSH2 0xCE7 SWAP1 PUSH2 0x332B JUMP JUMPDEST PUSH1 0x40 MLOAD DUP1 SWAP2 SUB SWAP1 REVERT JUMPDEST PUSH2 0xCFB DUP2 CALLER DUP5 PUSH2 0x179C JUMP JUMPDEST CALLER SWAP1 POP DUP1 PUSH20 0xFFFFFFFFFFFFFFFFFFFFFFFFFFFFFFFFFFFFFFFF AND PUSH2 0x8FC CALLVALUE SWAP1 DUP2 ISZERO MUL SWAP1 PUSH1 0x40 MLOAD PUSH1 0x0 PUSH1 0x40 MLOAD DUP1 DUP4 SUB DUP2 DUP6 DUP9 DUP9 CALL SWAP4 POP POP POP POP ISZERO DUP1 ISZERO PUSH2 0xD44 JUMPI RETURNDATASIZE PUSH1 0x0 DUP1 RETURNDATACOPY RETURNDATASIZE PUSH1 0x0 REVERT JUMPDEST POP POP POP JUMP JUMPDEST PUSH1 0x0 PUSH2 0xD55 PUSH1 0x1 PUSH2 0xDA1 JUMP JUMPDEST SWAP1 POP SWAP1 JUMP JUMPDEST PUSH1 0x0 PUSH1 0xCB PUSH1 0x0 DUP2 SLOAD DUP2 LT PUSH2 0xD71 JUMPI PUSH2 0xD70 PUSH2 0x334B JUMP JUMPDEST JUMPDEST SWAP1 PUSH1 0x0 MSTORE PUSH1 0x20 PUSH1 0x0 KECCAK256 ADD PUSH1 0x0 SWAP1 SLOAD SWAP1 PUSH2 0x100 EXP SWAP1 DIV PUSH20 0xFFFFFFFFFFFFFFFFFFFFFFFFFFFFFFFFFFFFFFFF AND SWAP1 POP SWAP1 JUMP JUMPDEST PUSH1 0x0 DUP1 PUSH2 0xDAD DUP4 PUSH2 0x1A95 JUMP JUMPDEST SWAP1 POP PUSH1 0x0 PUSH20 0xFFFFFFFFFFFFFFFFFFFFFFFFFFFFFFFFFFFFFFFF AND DUP2 PUSH20 0xFFFFFFFFFFFFFFFFFFFFFFFFFFFFFFFFFFFFFFFF AND SUB PUSH2 0xE1E JUMPI PUSH1 0x40 MLOAD PUSH32 0x8C379A000000000000000000000000000000000000000000000000000000000 DUP2 MSTORE PUSH1 0x4 ADD PUSH2 0xE15 SWAP1 PUSH2 0x33C6 JUMP JUMPDEST PUSH1 0x40 MLOAD DUP1 SWAP2 SUB SWAP1 REVERT JUMPDEST DUP1 SWAP2 POP POP SWAP2 SWAP1 POP JUMP JUMPDEST PUSH1 0x0 DUP1 PUSH20 0xFFFFFFFFFFFFFFFFFFFFFFFFFFFFFFFFFFFFFFFF AND DUP3 PUSH20 0xFFFFFFFFFFFFFFFFFFFFFFFFFFFFFFFFFFFFFFFF AND SUB PUSH2 0xE97 JUMPI PUSH1 0x40 MLOAD PUSH32 0x8C379A000000000000000000000000000000000000000000000000000000000 DUP2 MSTORE PUSH1 0x4 ADD PUSH2 0xE8E SWAP1 PUSH2 0x3458 JUMP JUMPDEST PUSH1 0x40 MLOAD DUP1 SWAP2 SUB SWAP1 REVERT JUMPDEST PUSH1 0x68 PUSH1 0x0 DUP4 PUSH20 0xFFFFFFFFFFFFFFFFFFFFFFFFFFFFFFFFFFFFFFFF AND PUSH20 0xFFFFFFFFFFFFFFFFFFFFFFFFFFFFFFFFFFFFFFFF AND DUP2 MSTORE PUSH1 0x20 ADD SWAP1 DUP2 MSTORE PUSH1 0x20 ADD PUSH1 0x0 KECCAK256 SLOAD SWAP1 POP SWAP2 SWAP1 POP JUMP JUMPDEST PUSH2 0xEE8 PUSH1 0x1 PUSH2 0xDA1 JUMP JUMPDEST PUSH20 0xFFFFFFFFFFFFFFFFFFFFFFFFFFFFFFFFFFFFFFFF AND CALLER PUSH20 0xFFFFFFFFFFFFFFFFFFFFFFFFFFFFFFFFFFFFFFFF AND EQ PUSH2 0xF55 JUMPI PUSH1 0x40 MLOAD PUSH32 0x8C379A000000000000000000000000000000000000000000000000000000000 DUP2 MSTORE PUSH1 0x4 ADD PUSH2 0xF4C SWAP1 PUSH2 0x34C4 JUMP JUMPDEST PUSH1 0x40 MLOAD DUP1 SWAP2 SUB SWAP1 REVERT JUMPDEST PUSH1 0x0 DUP2 LT ISZERO PUSH2 0xF99 JUMPI PUSH1 0x40 MLOAD PUSH32 0x8C379A000000000000000000000000000000000000000000000000000000000 DUP2 MSTORE PUSH1 0x4 ADD PUSH2 0xF90 SWAP1 PUSH2 0x3530 JUMP JUMPDEST PUSH1 0x40 MLOAD DUP1 SWAP2 SUB SWAP1 REVERT JUMPDEST PUSH1 0xCA SLOAD DUP2 SUB PUSH2 0xFDD JUMPI PUSH1 0x40 MLOAD PUSH32 0x8C379A000000000000000000000000000000000000000000000000000000000 DUP2 MSTORE PUSH1 0x4 ADD PUSH2 0xFD4 SWAP1 PUSH2 0x359C JUMP JUMPDEST PUSH1 0x40 MLOAD DUP1 SWAP2 SUB SWAP1 REVERT JUMPDEST PUSH1 0x0 PUSH1 0xCA SLOAD SWAP1 POP DUP2 PUSH1 0xCA DUP2 SWAP1 SSTORE POP PUSH2 0xFF5 PUSH1 0x1 PUSH2 0xDA1 JUMP JUMPDEST PUSH20 0xFFFFFFFFFFFFFFFFFFFFFFFFFFFFFFFFFFFFFFFF AND PUSH32 0xF3D52D1A60D7D0EE4E16F5B72624FA05A825FDD27EA948202AF49055AAA6064B PUSH2 0x1034 PUSH2 0x904 JUMP JUMPDEST PUSH2 0x103C PUSH2 0x105C JUMP JUMPDEST DUP5 PUSH1 0xCA SLOAD PUSH1 0x40 MLOAD PUSH2 0x1050 SWAP5 SWAP4 SWAP3 SWAP2 SWAP1 PUSH2 0x35BC JUMP JUMPDEST PUSH1 0x40 MLOAD DUP1 SWAP2 SUB SWAP1 LOG2 POP POP JUMP JUMPDEST PUSH1 0x60 PUSH1 0x66 DUP1 SLOAD PUSH2 0x106B SWAP1 PUSH2 0x2F8E JUMP JUMPDEST DUP1 PUSH1 0x1F ADD PUSH1 0x20 DUP1 SWAP2 DIV MUL PUSH1 0x20 ADD PUSH1 0x40 MLOAD SWAP1 DUP2 ADD PUSH1 0x40 MSTORE DUP1 SWAP3 SWAP2 SWAP1 DUP2 DUP2 MSTORE PUSH1 0x20 ADD DUP3 DUP1 SLOAD PUSH2 0x1097 SWAP1 PUSH2 0x2F8E JUMP JUMPDEST DUP1 ISZERO PUSH2 0x10E4 JUMPI DUP1 PUSH1 0x1F LT PUSH2 0x10B9 JUMPI PUSH2 0x100 DUP1 DUP4 SLOAD DIV MUL DUP4 MSTORE SWAP2 PUSH1 0x20 ADD SWAP2 PUSH2 0x10E4 JUMP JUMPDEST DUP3 ADD SWAP2 SWAP1 PUSH1 0x0 MSTORE PUSH1 0x20 PUSH1 0x0 KECCAK256 SWAP1 JUMPDEST DUP2 SLOAD DUP2 MSTORE SWAP1 PUSH1 0x1 ADD SWAP1 PUSH1 0x20 ADD DUP1 DUP4 GT PUSH2 0x10C7 JUMPI DUP3 SWAP1 SUB PUSH1 0x1F AND DUP3 ADD SWAP2 JUMPDEST POP POP POP POP POP SWAP1 POP SWAP1 JUMP JUMPDEST PUSH2 0x1100 PUSH2 0x10F9 PUSH2 0x1646 JUMP JUMPDEST DUP4 DUP4 PUSH2 0x1AD2 JUMP JUMPDEST POP POP JUMP JUMPDEST PUSH1 0x0 PUSH2 0x1110 PUSH1 0x1 PUSH2 0xDA1 JUMP JUMPDEST PUSH20 0xFFFFFFFFFFFFFFFFFFFFFFFFFFFFFFFFFFFFFFFF AND CALLER PUSH20 0xFFFFFFFFFFFFFFFFFFFFFFFFFFFFFFFFFFFFFFFF AND EQ PUSH2 0x117D JUMPI PUSH1 0x40 MLOAD PUSH32 0x8C379A000000000000000000000000000000000000000000000000000000000 DUP2 MSTORE PUSH1 0x4 ADD PUSH2 0x1174 SWAP1 PUSH2 0x34C4 JUMP JUMPDEST PUSH1 0x40 MLOAD DUP1 SWAP2 SUB SWAP1 REVERT JUMPDEST PUSH1 0x0 DUP4 GT DUP1 ISZERO PUSH2 0x118E JUMPI POP PUSH1 0x0 DUP3 LT ISZERO JUMPDEST PUSH2 0x11CD JUMPI PUSH1 0x40 MLOAD PUSH32 0x8C379A000000000000000000000000000000000000000000000000000000000 DUP2 MSTORE PUSH1 0x4 ADD PUSH2 0x11C4 SWAP1 PUSH2 0x365B JUMP JUMPDEST PUSH1 0x40 MLOAD DUP1 SWAP2 SUB SWAP1 REVERT JUMPDEST PUSH1 0xC9 PUSH1 0x0 SWAP1 SLOAD SWAP1 PUSH2 0x100 EXP SWAP1 DIV PUSH20 0xFFFFFFFFFFFFFFFFFFFFFFFFFFFFFFFFFFFFFFFF AND PUSH20 0xFFFFFFFFFFFFFFFFFFFFFFFFFFFFFFFFFFFFFFFF AND PUSH4 0xAFD69C8F DUP9 DUP9 DUP9 DUP9 CALLER DUP9 DUP11 PUSH1 0x40 MLOAD DUP9 PUSH4 0xFFFFFFFF AND PUSH1 0xE0 SHL DUP2 MSTORE PUSH1 0x4 ADD PUSH2 0x1234 SWAP8 SWAP7 SWAP6 SWAP5 SWAP4 SWAP3 SWAP2 SWAP1 PUSH2 0x367B JUMP JUMPDEST PUSH1 0x20 PUSH1 0x40 MLOAD DUP1 DUP4 SUB DUP2 PUSH1 0x0 DUP8 GAS CALL ISZERO DUP1 ISZERO PUSH2 0x1253 JUMPI RETURNDATASIZE PUSH1 0x0 DUP1 RETURNDATACOPY RETURNDATASIZE PUSH1 0x0 REVERT JUMPDEST POP POP POP POP PUSH1 0x40 MLOAD RETURNDATASIZE PUSH1 0x1F NOT PUSH1 0x1F DUP3 ADD AND DUP3 ADD DUP1 PUSH1 0x40 MSTORE POP DUP2 ADD SWAP1 PUSH2 0x1277 SWAP2 SWAP1 PUSH2 0x36F5 JUMP JUMPDEST SWAP1 POP PUSH1 0xCB DUP2 SWAP1 DUP1 PUSH1 0x1 DUP2 SLOAD ADD DUP1 DUP3 SSTORE DUP1 SWAP2 POP POP PUSH1 0x1 SWAP1 SUB SWAP1 PUSH1 0x0 MSTORE PUSH1 0x20 PUSH1 0x0 KECCAK256 ADD PUSH1 0x0 SWAP1 SWAP2 SWAP1 SWAP2 SWAP1 SWAP2 PUSH2 0x100 EXP DUP2 SLOAD DUP2 PUSH20 0xFFFFFFFFFFFFFFFFFFFFFFFFFFFFFFFFFFFFFFFF MUL NOT AND SWAP1 DUP4 PUSH20 0xFFFFFFFFFFFFFFFFFFFFFFFFFFFFFFFFFFFFFFFF AND MUL OR SWAP1 SSTORE POP PUSH32 0x7DED605EE5EB960743663CE41947EA21CC226061BD4323712C0CFD89117C5FC6 DUP8 DUP8 DUP8 DUP8 CALLER ADDRESS DUP8 DUP10 DUP12 PUSH1 0x40 MLOAD PUSH2 0x131B SWAP10 SWAP9 SWAP8 SWAP7 SWAP6 SWAP5 SWAP4 SWAP3 SWAP2 SWAP1 PUSH2 0x3722 JUMP JUMPDEST PUSH1 0x40 MLOAD DUP1 SWAP2 SUB SWAP1 LOG1 SWAP7 SWAP6 POP POP POP POP POP POP JUMP JUMPDEST PUSH2 0x133E PUSH2 0x1338 PUSH2 0x1646 JUMP JUMPDEST DUP4 PUSH2 0x1707 JUMP JUMPDEST PUSH2 0x137D JUMPI PUSH1 0x40 MLOAD PUSH32 0x8C379A000000000000000000000000000000000000000000000000000000000 DUP2 MSTORE PUSH1 0x4 ADD PUSH2 0x1374 SWAP1 PUSH2 0x3155 JUMP JUMPDEST PUSH1 0x40 MLOAD DUP1 SWAP2 SUB SWAP1 REVERT JUMPDEST PUSH2 0x1389 DUP5 DUP5 DUP5 DUP5 PUSH2 0x1C3E JUMP JUMPDEST POP POP POP POP JUMP JUMPDEST PUSH1 0x60 PUSH2 0x139A DUP3 PUSH2 0x1C9A JUMP JUMPDEST SWAP1 POP SWAP2 SWAP1 POP JUMP JUMPDEST PUSH1 0x0 PUSH1 0x6A PUSH1 0x0 DUP5 PUSH20 0xFFFFFFFFFFFFFFFFFFFFFFFFFFFFFFFFFFFFFFFF AND PUSH20 0xFFFFFFFFFFFFFFFFFFFFFFFFFFFFFFFFFFFFFFFF AND DUP2 MSTORE PUSH1 0x20 ADD SWAP1 DUP2 MSTORE PUSH1 0x20 ADD PUSH1 0x0 KECCAK256 PUSH1 0x0 DUP4 PUSH20 0xFFFFFFFFFFFFFFFFFFFFFFFFFFFFFFFFFFFFFFFF AND PUSH20 0xFFFFFFFFFFFFFFFFFFFFFFFFFFFFFFFFFFFFFFFF AND DUP2 MSTORE PUSH1 0x20 ADD SWAP1 DUP2 MSTORE PUSH1 0x20 ADD PUSH1 0x0 KECCAK256 PUSH1 0x0 SWAP1 SLOAD SWAP1 PUSH2 0x100 EXP SWAP1 DIV PUSH1 0xFF AND SWAP1 POP SWAP3 SWAP2 POP POP JUMP JUMPDEST PUSH1 0x0 DUP1 DUP3 PUSH20 0xFFFFFFFFFFFFFFFFFFFFFFFFFFFFFFFFFFFFFFFF AND EXTCODESIZE GT SWAP1 POP SWAP2 SWAP1 POP JUMP JUMPDEST PUSH1 0x0 PUSH1 0x1 SWAP1 SLOAD SWAP1 PUSH2 0x100 EXP SWAP1 DIV PUSH1 0xFF AND PUSH2 0x14A7 JUMPI PUSH1 0x40 MLOAD PUSH32 0x8C379A000000000000000000000000000000000000000000000000000000000 DUP2 MSTORE PUSH1 0x4 ADD PUSH2 0x149E SWAP1 PUSH2 0x3815 JUMP JUMPDEST PUSH1 0x40 MLOAD DUP1 SWAP2 SUB SWAP1 REVERT JUMPDEST PUSH2 0x14B1 DUP3 DUP3 PUSH2 0x1DAC JUMP JUMPDEST POP POP JUMP JUMPDEST PUSH1 0x0 PUSH1 0x1 SWAP1 SLOAD SWAP1 PUSH2 0x100 EXP SWAP1 DIV PUSH1 0xFF AND PUSH2 0x1504 JUMPI PUSH1 0x40 MLOAD PUSH32 0x8C379A000000000000000000000000000000000000000000000000000000000 DUP2 MSTORE PUSH1 0x4 ADD PUSH2 0x14FB SWAP1 PUSH2 0x3815 JUMP JUMPDEST PUSH1 0x40 MLOAD DUP1 SWAP2 SUB SWAP1 REVERT JUMPDEST JUMP JUMPDEST PUSH2 0x1520 DUP3 DUP3 PUSH1 0x40 MLOAD DUP1 PUSH1 0x20 ADD PUSH1 0x40 MSTORE DUP1 PUSH1 0x0 DUP2 MSTORE POP PUSH2 0x1E1F JUMP JUMPDEST POP POP JUMP JUMPDEST PUSH2 0x152D DUP3 PUSH2 0x1E7A JUMP JUMPDEST PUSH2 0x156C JUMPI PUSH1 0x40 MLOAD PUSH32 0x8C379A000000000000000000000000000000000000000000000000000000000 DUP2 MSTORE PUSH1 0x4 ADD PUSH2 0x1563 SWAP1 PUSH2 0x38A7 JUMP JUMPDEST PUSH1 0x40 MLOAD DUP1 SWAP2 SUB SWAP1 REVERT JUMPDEST DUP1 PUSH1 0x97 PUSH1 0x0 DUP5 DUP2 MSTORE PUSH1 0x20 ADD SWAP1 DUP2 MSTORE PUSH1 0x20 ADD PUSH1 0x0 KECCAK256 SWAP1 DUP2 PUSH2 0x158C SWAP2 SWAP1 PUSH2 0x3A69 JUMP JUMPDEST POP POP POP JUMP JUMPDEST PUSH1 0x0 PUSH32 0x1FFC9A700000000000000000000000000000000000000000000000000000000 PUSH28 0xFFFFFFFFFFFFFFFFFFFFFFFFFFFFFFFFFFFFFFFFFFFFFFFFFFFFFFFF NOT AND DUP3 PUSH28 0xFFFFFFFFFFFFFFFFFFFFFFFFFFFFFFFFFFFFFFFFFFFFFFFFFFFFFFFF NOT AND EQ SWAP1 POP SWAP2 SWAP1 POP JUMP JUMPDEST PUSH2 0x1604 DUP2 PUSH2 0x1E7A JUMP JUMPDEST PUSH2 0x1643 JUMPI PUSH1 0x40 MLOAD PUSH32 0x8C379A000000000000000000000000000000000000000000000000000000000 DUP2 MSTORE PUSH1 0x4 ADD PUSH2 0x163A SWAP1 PUSH2 0x33C6 JUMP JUMPDEST PUSH1 0x40 MLOAD DUP1 SWAP2 SUB SWAP1 REVERT JUMPDEST POP JUMP JUMPDEST PUSH1 0x0 CALLER SWAP1 POP SWAP1 JUMP JUMPDEST DUP2 PUSH1 0x69 PUSH1 0x0 DUP4 DUP2 MSTORE PUSH1 0x20 ADD SWAP1 DUP2 MSTORE PUSH1 0x20 ADD PUSH1 0x0 KECCAK256 PUSH1 0x0 PUSH2 0x100 EXP DUP2 SLOAD DUP2 PUSH20 0xFFFFFFFFFFFFFFFFFFFFFFFFFFFFFFFFFFFFFFFF MUL NOT AND SWAP1 DUP4 PUSH20 0xFFFFFFFFFFFFFFFFFFFFFFFFFFFFFFFFFFFFFFFF AND MUL OR SWAP1 SSTORE POP DUP1 DUP3 PUSH20 0xFFFFFFFFFFFFFFFFFFFFFFFFFFFFFFFFFFFFFFFF AND PUSH2 0x16C1 DUP4 PUSH2 0xDA1 JUMP JUMPDEST PUSH20 0xFFFFFFFFFFFFFFFFFFFFFFFFFFFFFFFFFFFFFFFF AND PUSH32 0x8C5BE1E5EBEC7D5BD14F71427D1E84F3DD0314C0F7B2291E5B200AC8C7C3B925 PUSH1 0x40 MLOAD PUSH1 0x40 MLOAD DUP1 SWAP2 SUB SWAP1 LOG4 POP POP JUMP JUMPDEST PUSH1 0x0 DUP1 PUSH2 0x1713 DUP4 PUSH2 0xDA1 JUMP JUMPDEST SWAP1 POP DUP1 PUSH20 0xFFFFFFFFFFFFFFFFFFFFFFFFFFFFFFFFFFFFFFFF AND DUP5 PUSH20 0xFFFFFFFFFFFFFFFFFFFFFFFFFFFFFFFFFFFFFFFF AND EQ DUP1 PUSH2 0x1755 JUMPI POP PUSH2 0x1754 DUP2 DUP6 PUSH2 0x13A1 JUMP JUMPDEST JUMPDEST DUP1 PUSH2 0x1793 JUMPI POP DUP4 PUSH20 0xFFFFFFFFFFFFFFFFFFFFFFFFFFFFFFFFFFFFFFFF AND PUSH2 0x177B DUP5 PUSH2 0x996 JUMP JUMPDEST PUSH20 0xFFFFFFFFFFFFFFFFFFFFFFFFFFFFFFFFFFFFFFFF AND EQ JUMPDEST SWAP2 POP POP SWAP3 SWAP2 POP POP JUMP JUMPDEST DUP3 PUSH20 0xFFFFFFFFFFFFFFFFFFFFFFFFFFFFFFFFFFFFFFFF AND PUSH2 0x17BC DUP3 PUSH2 0xDA1 JUMP JUMPDEST PUSH20 0xFFFFFFFFFFFFFFFFFFFFFFFFFFFFFFFFFFFFFFFF AND EQ PUSH2 0x1812 JUMPI PUSH1 0x40 MLOAD PUSH32 0x8C379A000000000000000000000000000000000000000000000000000000000 DUP2 MSTORE PUSH1 0x4 ADD PUSH2 0x1809 SWAP1 PUSH2 0x3BAD JUMP JUMPDEST PUSH1 0x40 MLOAD DUP1 SWAP2 SUB SWAP1 REVERT JUMPDEST PUSH1 0x0 PUSH20 0xFFFFFFFFFFFFFFFFFFFFFFFFFFFFFFFFFFFFFFFF AND DUP3 PUSH20 0xFFFFFFFFFFFFFFFFFFFFFFFFFFFFFFFFFFFFFFFF AND SUB PUSH2 0x1881 JUMPI PUSH1 0x40 MLOAD PUSH32 0x8C379A000000000000000000000000000000000000000000000000000000000 DUP2 MSTORE PUSH1 0x4 ADD PUSH2 0x1878 SWAP1 PUSH2 0x3C3F JUMP JUMPDEST PUSH1 0x40 MLOAD DUP1 SWAP2 SUB SWAP1 REVERT JUMPDEST PUSH2 0x188E DUP4 DUP4 DUP4 PUSH1 0x1 PUSH2 0x1EBB JUMP JUMPDEST DUP3 PUSH20 0xFFFFFFFFFFFFFFFFFFFFFFFFFFFFFFFFFFFFFFFF AND PUSH2 0x18AE DUP3 PUSH2 0xDA1 JUMP JUMPDEST PUSH20 0xFFFFFFFFFFFFFFFFFFFFFFFFFFFFFFFFFFFFFFFF AND EQ PUSH2 0x1904 JUMPI PUSH1 0x40 MLOAD PUSH32 0x8C379A000000000000000000000000000000000000000000000000000000000 DUP2 MSTORE PUSH1 0x4 ADD PUSH2 0x18FB SWAP1 PUSH2 0x3BAD JUMP JUMPDEST PUSH1 0x40 MLOAD DUP1 SWAP2 SUB SWAP1 REVERT JUMPDEST PUSH1 0x69 PUSH1 0x0 DUP3 DUP2 MSTORE PUSH1 0x20 ADD SWAP1 DUP2 MSTORE PUSH1 0x20 ADD PUSH1 0x0 KECCAK256 PUSH1 0x0 PUSH2 0x100 EXP DUP2 SLOAD SWAP1 PUSH20 0xFFFFFFFFFFFFFFFFFFFFFFFFFFFFFFFFFFFFFFFF MUL NOT AND SWAP1 SSTORE PUSH1 0x1 PUSH1 0x68 PUSH1 0x0 DUP6 PUSH20 0xFFFFFFFFFFFFFFFFFFFFFFFFFFFFFFFFFFFFFFFF AND PUSH20 0xFFFFFFFFFFFFFFFFFFFFFFFFFFFFFFFFFFFFFFFF AND DUP2 MSTORE PUSH1 0x20 ADD SWAP1 DUP2 MSTORE PUSH1 0x20 ADD PUSH1 0x0 KECCAK256 PUSH1 0x0 DUP3 DUP3 SLOAD SUB SWAP3 POP POP DUP2 SWAP1 SSTORE POP PUSH1 0x1 PUSH1 0x68 PUSH1 0x0 DUP5 PUSH20 0xFFFFFFFFFFFFFFFFFFFFFFFFFFFFFFFFFFFFFFFF AND PUSH20 0xFFFFFFFFFFFFFFFFFFFFFFFFFFFFFFFFFFFFFFFF AND DUP2 MSTORE PUSH1 0x20 ADD SWAP1 DUP2 MSTORE PUSH1 0x20 ADD PUSH1 0x0 KECCAK256 PUSH1 0x0 DUP3 DUP3 SLOAD ADD SWAP3 POP POP DUP2 SWAP1 SSTORE POP DUP2 PUSH1 0x67 PUSH1 0x0 DUP4 DUP2 MSTORE PUSH1 0x20 ADD SWAP1 DUP2 MSTORE PUSH1 0x20 ADD PUSH1 0x0 KECCAK256 PUSH1 0x0 PUSH2 0x100 EXP DUP2 SLOAD DUP2 PUSH20 0xFFFFFFFFFFFFFFFFFFFFFFFFFFFFFFFFFFFFFFFF MUL NOT AND SWAP1 DUP4 PUSH20 0xFFFFFFFFFFFFFFFFFFFFFFFFFFFFFFFFFFFFFFFF AND MUL OR SWAP1 SSTORE POP DUP1 DUP3 PUSH20 0xFFFFFFFFFFFFFFFFFFFFFFFFFFFFFFFFFFFFFFFF AND DUP5 PUSH20 0xFFFFFFFFFFFFFFFFFFFFFFFFFFFFFFFFFFFFFFFF AND PUSH32 0xDDF252AD1BE2C89B69C2B068FC378DAA952BA7F163C4A11628F55A4DF523B3EF PUSH1 0x40 MLOAD PUSH1 0x40 MLOAD DUP1 SWAP2 SUB SWAP1 LOG4 PUSH2 0x1A90 DUP4 DUP4 DUP4 PUSH1 0x1 PUSH2 0x1EC1 JUMP JUMPDEST POP POP POP JUMP JUMPDEST PUSH1 0x0 PUSH1 0x67 PUSH1 0x0 DUP4 DUP2 MSTORE PUSH1 0x20 ADD SWAP1 DUP2 MSTORE PUSH1 0x20 ADD PUSH1 0x0 KECCAK256 PUSH1 0x0 SWAP1 SLOAD SWAP1 PUSH2 0x100 EXP SWAP1 DIV PUSH20 0xFFFFFFFFFFFFFFFFFFFFFFFFFFFFFFFFFFFFFFFF AND SWAP1 POP SWAP2 SWAP1 POP JUMP JUMPDEST DUP2 PUSH20 0xFFFFFFFFFFFFFFFFFFFFFFFFFFFFFFFFFFFFFFFF AND DUP4 PUSH20 0xFFFFFFFFFFFFFFFFFFFFFFFFFFFFFFFFFFFFFFFF AND SUB PUSH2 0x1B40 JUMPI PUSH1 0x40 MLOAD PUSH32 0x8C379A000000000000000000000000000000000000000000000000000000000 DUP2 MSTORE PUSH1 0x4 ADD PUSH2 0x1B37 SWAP1 PUSH2 0x3CAB JUMP JUMPDEST PUSH1 0x40 MLOAD DUP1 SWAP2 SUB SWAP1 REVERT JUMPDEST DUP1 PUSH1 0x6A PUSH1 0x0 DUP6 PUSH20 0xFFFFFFFFFFFFFFFFFFFFFFFFFFFFFFFFFFFFFFFF AND PUSH20 0xFFFFFFFFFFFFFFFFFFFFFFFFFFFFFFFFFFFFFFFF AND DUP2 MSTORE PUSH1 0x20 ADD SWAP1 DUP2 MSTORE PUSH1 0x20 ADD PUSH1 0x0 KECCAK256 PUSH1 0x0 DUP5 PUSH20 0xFFFFFFFFFFFFFFFFFFFFFFFFFFFFFFFFFFFFFFFF AND PUSH20 0xFFFFFFFFFFFFFFFFFFFFFFFFFFFFFFFFFFFFFFFF AND DUP2 MSTORE PUSH1 0x20 ADD SWAP1 DUP2 MSTORE PUSH1 0x20 ADD PUSH1 0x0 KECCAK256 PUSH1 0x0 PUSH2 0x100 EXP DUP2 SLOAD DUP2 PUSH1 0xFF MUL NOT AND SWAP1 DUP4 ISZERO ISZERO MUL OR SWAP1 SSTORE POP DUP2 PUSH20 0xFFFFFFFFFFFFFFFFFFFFFFFFFFFFFFFFFFFFFFFF AND DUP4 PUSH20 0xFFFFFFFFFFFFFFFFFFFFFFFFFFFFFFFFFFFFFFFF AND PUSH32 0x17307EAB39AB6107E8899845AD3D59BD9653F200F220920489CA2B5937696C31 DUP4 PUSH1 0x40 MLOAD PUSH2 0x1C31 SWAP2 SWAP1 PUSH2 0x285F JUMP JUMPDEST PUSH1 0x40 MLOAD DUP1 SWAP2 SUB SWAP1 LOG3 POP POP POP JUMP JUMPDEST PUSH2 0x1C49 DUP5 DUP5 DUP5 PUSH2 0x179C JUMP JUMPDEST PUSH2 0x1C55 DUP5 DUP5 DUP5 DUP5 PUSH2 0x1EC7 JUMP JUMPDEST PUSH2 0x1C94 JUMPI PUSH1 0x40 MLOAD PUSH32 0x8C379A000000000000000000000000000000000000000000000000000000000 DUP2 MSTORE PUSH1 0x4 ADD PUSH2 0x1C8B SWAP1 PUSH2 0x3D3D JUMP JUMPDEST PUSH1 0x40 MLOAD DUP1 SWAP2 SUB SWAP1 REVERT JUMPDEST POP POP POP POP JUMP JUMPDEST PUSH1 0x60 PUSH2 0x1CA5 DUP3 PUSH2 0x15FB JUMP JUMPDEST PUSH1 0x0 PUSH1 0x97 PUSH1 0x0 DUP5 DUP2 MSTORE PUSH1 0x20 ADD SWAP1 DUP2 MSTORE PUSH1 0x20 ADD PUSH1 0x0 KECCAK256 DUP1 SLOAD PUSH2 0x1CC5 SWAP1 PUSH2 0x2F8E JUMP JUMPDEST DUP1 PUSH1 0x1F ADD PUSH1 0x20 DUP1 SWAP2 DIV MUL PUSH1 0x20 ADD PUSH1 0x40 MLOAD SWAP1 DUP2 ADD PUSH1 0x40 MSTORE DUP1 SWAP3 SWAP2 SWAP1 DUP2 DUP2 MSTORE PUSH1 0x20 ADD DUP3 DUP1 SLOAD PUSH2 0x1CF1 SWAP1 PUSH2 0x2F8E JUMP JUMPDEST DUP1 ISZERO PUSH2 0x1D3E JUMPI DUP1 PUSH1 0x1F LT PUSH2 0x1D13 JUMPI PUSH2 0x100 DUP1 DUP4 SLOAD DIV MUL DUP4 MSTORE SWAP2 PUSH1 0x20 ADD SWAP2 PUSH2 0x1D3E JUMP JUMPDEST DUP3 ADD SWAP2 SWAP1 PUSH1 0x0 MSTORE PUSH1 0x20 PUSH1 0x0 KECCAK256 SWAP1 JUMPDEST DUP2 SLOAD DUP2 MSTORE SWAP1 PUSH1 0x1 ADD SWAP1 PUSH1 0x20 ADD DUP1 DUP4 GT PUSH2 0x1D21 JUMPI DUP3 SWAP1 SUB PUSH1 0x1F AND DUP3 ADD SWAP2 JUMPDEST POP POP POP POP POP SWAP1 POP PUSH1 0x0 PUSH2 0x1D4F PUSH2 0x204E JUMP JUMPDEST SWAP1 POP PUSH1 0x0 DUP2 MLOAD SUB PUSH2 0x1D64 JUMPI DUP2 SWAP3 POP POP POP PUSH2 0x1DA7 JUMP JUMPDEST PUSH1 0x0 DUP3 MLOAD GT ISZERO PUSH2 0x1D99 JUMPI DUP1 DUP3 PUSH1 0x40 MLOAD PUSH1 0x20 ADD PUSH2 0x1D81 SWAP3 SWAP2 SWAP1 PUSH2 0x3D99 JUMP JUMPDEST PUSH1 0x40 MLOAD PUSH1 0x20 DUP2 DUP4 SUB SUB DUP2 MSTORE SWAP1 PUSH1 0x40 MSTORE SWAP3 POP POP POP PUSH2 0x1DA7 JUMP JUMPDEST PUSH2 0x1DA2 DUP5 PUSH2 0x2065 JUMP JUMPDEST SWAP3 POP POP POP JUMPDEST SWAP2 SWAP1 POP JUMP JUMPDEST PUSH1 0x0 PUSH1 0x1 SWAP1 SLOAD SWAP1 PUSH2 0x100 EXP SWAP1 DIV PUSH1 0xFF AND PUSH2 0x1DFB JUMPI PUSH1 0x40 MLOAD PUSH32 0x8C379A000000000000000000000000000000000000000000000000000000000 DUP2 MSTORE PUSH1 0x4 ADD PUSH2 0x1DF2 SWAP1 PUSH2 0x3815 JUMP JUMPDEST PUSH1 0x40 MLOAD DUP1 SWAP2 SUB SWAP1 REVERT JUMPDEST DUP2 PUSH1 0x65 SWAP1 DUP2 PUSH2 0x1E0A SWAP2 SWAP1 PUSH2 0x3A69 JUMP JUMPDEST POP DUP1 PUSH1 0x66 SWAP1 DUP2 PUSH2 0x1E1A SWAP2 SWAP1 PUSH2 0x3A69 JUMP JUMPDEST POP POP POP JUMP JUMPDEST PUSH2 0x1E29 DUP4 DUP4 PUSH2 0x20CD JUMP JUMPDEST PUSH2 0x1E36 PUSH1 0x0 DUP5 DUP5 DUP5 PUSH2 0x1EC7 JUMP JUMPDEST PUSH2 0x1E75 JUMPI PUSH1 0x40 MLOAD PUSH32 0x8C379A000000000000000000000000000000000000000000000000000000000 DUP2 MSTORE PUSH1 0x4 ADD PUSH2 0x1E6C SWAP1 PUSH2 0x3D3D JUMP JUMPDEST PUSH1 0x40 MLOAD DUP1 SWAP2 SUB SWAP1 REVERT JUMPDEST POP POP POP JUMP JUMPDEST PUSH1 0x0 DUP1 PUSH20 0xFFFFFFFFFFFFFFFFFFFFFFFFFFFFFFFFFFFFFFFF AND PUSH2 0x1E9C DUP4 PUSH2 0x1A95 JUMP JUMPDEST PUSH20 0xFFFFFFFFFFFFFFFFFFFFFFFFFFFFFFFFFFFFFFFF AND EQ ISZERO SWAP1 POP SWAP2 SWAP1 POP JUMP JUMPDEST POP POP POP POP JUMP JUMPDEST POP POP POP POP JUMP JUMPDEST PUSH1 0x0 PUSH2 0x1EE8 DUP5 PUSH20 0xFFFFFFFFFFFFFFFFFFFFFFFFFFFFFFFFFFFFFFFF AND PUSH2 0x1435 JUMP JUMPDEST ISZERO PUSH2 0x2041 JUMPI DUP4 PUSH20 0xFFFFFFFFFFFFFFFFFFFFFFFFFFFFFFFFFFFFFFFF AND PUSH4 0x150B7A02 PUSH2 0x1F11 PUSH2 0x1646 JUMP JUMPDEST DUP8 DUP7 DUP7 PUSH1 0x40 MLOAD DUP6 PUSH4 0xFFFFFFFF AND PUSH1 0xE0 SHL DUP2 MSTORE PUSH1 0x4 ADD PUSH2 0x1F33 SWAP5 SWAP4 SWAP3 SWAP2 SWAP1 PUSH2 0x3E12 JUMP JUMPDEST PUSH1 0x20 PUSH1 0x40 MLOAD DUP1 DUP4 SUB DUP2 PUSH1 0x0 DUP8 GAS CALL SWAP3 POP POP POP DUP1 ISZERO PUSH2 0x1F6F JUMPI POP PUSH1 0x40 MLOAD RETURNDATASIZE PUSH1 0x1F NOT PUSH1 0x1F DUP3 ADD AND DUP3 ADD DUP1 PUSH1 0x40 MSTORE POP DUP2 ADD SWAP1 PUSH2 0x1F6C SWAP2 SWAP1 PUSH2 0x3E73 JUMP JUMPDEST PUSH1 0x1 JUMPDEST PUSH2 0x1FF1 JUMPI RETURNDATASIZE DUP1 PUSH1 0x0 DUP2 EQ PUSH2 0x1F9F JUMPI PUSH1 0x40 MLOAD SWAP2 POP PUSH1 0x1F NOT PUSH1 0x3F RETURNDATASIZE ADD AND DUP3 ADD PUSH1 0x40 MSTORE RETURNDATASIZE DUP3 MSTORE RETURNDATASIZE PUSH1 0x0 PUSH1 0x20 DUP5 ADD RETURNDATACOPY PUSH2 0x1FA4 JUMP JUMPDEST PUSH1 0x60 SWAP2 POP JUMPDEST POP PUSH1 0x0 DUP2 MLOAD SUB PUSH2 0x1FE9 JUMPI PUSH1 0x40 MLOAD PUSH32 0x8C379A000000000000000000000000000000000000000000000000000000000 DUP2 MSTORE PUSH1 0x4 ADD PUSH2 0x1FE0 SWAP1 PUSH2 0x3D3D JUMP JUMPDEST PUSH1 0x40 MLOAD DUP1 SWAP2 SUB SWAP1 REVERT JUMPDEST DUP1 MLOAD DUP2 PUSH1 0x20 ADD REVERT JUMPDEST PUSH4 0x150B7A02 PUSH1 0xE0 SHL PUSH28 0xFFFFFFFFFFFFFFFFFFFFFFFFFFFFFFFFFFFFFFFFFFFFFFFFFFFFFFFF NOT AND DUP2 PUSH28 0xFFFFFFFFFFFFFFFFFFFFFFFFFFFFFFFFFFFFFFFFFFFFFFFFFFFFFFFF NOT AND EQ SWAP2 POP POP PUSH2 0x2046 JUMP JUMPDEST PUSH1 0x1 SWAP1 POP JUMPDEST SWAP5 SWAP4 POP POP POP POP JUMP JUMPDEST PUSH1 0x60 PUSH1 0x40 MLOAD DUP1 PUSH1 0x20 ADD PUSH1 0x40 MSTORE DUP1 PUSH1 0x0 DUP2 MSTORE POP SWAP1 POP SWAP1 JUMP JUMPDEST PUSH1 0x60 PUSH2 0x2070 DUP3 PUSH2 0x15FB JUMP JUMPDEST PUSH1 0x0 PUSH2 0x207A PUSH2 0x204E JUMP JUMPDEST SWAP1 POP PUSH1 0x0 DUP2 MLOAD GT PUSH2 0x209A JUMPI PUSH1 0x40 MLOAD DUP1 PUSH1 0x20 ADD PUSH1 0x40 MSTORE DUP1 PUSH1 0x0 DUP2 MSTORE POP PUSH2 0x20C5 JUMP JUMPDEST DUP1 PUSH2 0x20A4 DUP5 PUSH2 0x22EA JUMP JUMPDEST PUSH1 0x40 MLOAD PUSH1 0x20 ADD PUSH2 0x20B5 SWAP3 SWAP2 SWAP1 PUSH2 0x3D99 JUMP JUMPDEST PUSH1 0x40 MLOAD PUSH1 0x20 DUP2 DUP4 SUB SUB DUP2 MSTORE SWAP1 PUSH1 0x40 MSTORE JUMPDEST SWAP2 POP POP SWAP2 SWAP1 POP JUMP JUMPDEST PUSH1 0x0 PUSH20 0xFFFFFFFFFFFFFFFFFFFFFFFFFFFFFFFFFFFFFFFF AND DUP3 PUSH20 0xFFFFFFFFFFFFFFFFFFFFFFFFFFFFFFFFFFFFFFFF AND SUB PUSH2 0x213C JUMPI PUSH1 0x40 MLOAD PUSH32 0x8C379A000000000000000000000000000000000000000000000000000000000 DUP2 MSTORE PUSH1 0x4 ADD PUSH2 0x2133 SWAP1 PUSH2 0x3EEC JUMP JUMPDEST PUSH1 0x40 MLOAD DUP1 SWAP2 SUB SWAP1 REVERT JUMPDEST PUSH2 0x2145 DUP2 PUSH2 0x1E7A JUMP JUMPDEST ISZERO PUSH2 0x2185 JUMPI PUSH1 0x40 MLOAD PUSH32 0x8C379A000000000000000000000000000000000000000000000000000000000 DUP2 MSTORE PUSH1 0x4 ADD PUSH2 0x217C SWAP1 PUSH2 0x3F58 JUMP JUMPDEST PUSH1 0x40 MLOAD DUP1 SWAP2 SUB SWAP1 REVERT JUMPDEST PUSH2 0x2193 PUSH1 0x0 DUP4 DUP4 PUSH1 0x1 PUSH2 0x1EBB JUMP JUMPDEST PUSH2 0x219C DUP2 PUSH2 0x1E7A JUMP JUMPDEST ISZERO PUSH2 0x21DC JUMPI PUSH1 0x40 MLOAD PUSH32 0x8C379A000000000000000000000000000000000000000000000000000000000 DUP2 MSTORE PUSH1 0x4 ADD PUSH2 0x21D3 SWAP1 PUSH2 0x3F58 JUMP JUMPDEST PUSH1 0x40 MLOAD DUP1 SWAP2 SUB SWAP1 REVERT JUMPDEST PUSH1 0x1 PUSH1 0x68 PUSH1 0x0 DUP5 PUSH20 0xFFFFFFFFFFFFFFFFFFFFFFFFFFFFFFFFFFFFFFFF AND PUSH20 0xFFFFFFFFFFFFFFFFFFFFFFFFFFFFFFFFFFFFFFFF AND DUP2 MSTORE PUSH1 0x20 ADD SWAP1 DUP2 MSTORE PUSH1 0x20 ADD PUSH1 0x0 KECCAK256 PUSH1 0x0 DUP3 DUP3 SLOAD ADD SWAP3 POP POP DUP2 SWAP1 SSTORE POP DUP2 PUSH1 0x67 PUSH1 0x0 DUP4 DUP2 MSTORE PUSH1 0x20 ADD SWAP1 DUP2 MSTORE PUSH1 0x20 ADD PUSH1 0x0 KECCAK256 PUSH1 0x0 PUSH2 0x100 EXP DUP2 SLOAD DUP2 PUSH20 0xFFFFFFFFFFFFFFFFFFFFFFFFFFFFFFFFFFFFFFFF MUL NOT AND SWAP1 DUP4 PUSH20 0xFFFFFFFFFFFFFFFFFFFFFFFFFFFFFFFFFFFFFFFF AND MUL OR SWAP1 SSTORE POP DUP1 DUP3 PUSH20 0xFFFFFFFFFFFFFFFFFFFFFFFFFFFFFFFFFFFFFFFF AND PUSH1 0x0 PUSH20 0xFFFFFFFFFFFFFFFFFFFFFFFFFFFFFFFFFFFFFFFF AND PUSH32 0xDDF252AD1BE2C89B69C2B068FC378DAA952BA7F163C4A11628F55A4DF523B3EF PUSH1 0x40 MLOAD PUSH1 0x40 MLOAD DUP1 SWAP2 SUB SWAP1 LOG4 PUSH2 0x22E6 PUSH1 0x0 DUP4 DUP4 PUSH1 0x1 PUSH2 0x1EC1 JUMP JUMPDEST POP POP JUMP JUMPDEST PUSH1 0x60 PUSH1 0x0 PUSH1 0x1 PUSH2 0x22F9 DUP5 PUSH2 0x23B8 JUMP JUMPDEST ADD SWAP1 POP PUSH1 0x0 DUP2 PUSH8 0xFFFFFFFFFFFFFFFF DUP2 GT ISZERO PUSH2 0x2318 JUMPI PUSH2 0x2317 PUSH2 0x25F8 JUMP JUMPDEST JUMPDEST PUSH1 0x40 MLOAD SWAP1 DUP1 DUP3 MSTORE DUP1 PUSH1 0x1F ADD PUSH1 0x1F NOT AND PUSH1 0x20 ADD DUP3 ADD PUSH1 0x40 MSTORE DUP1 ISZERO PUSH2 0x234A JUMPI DUP2 PUSH1 0x20 ADD PUSH1 0x1 DUP3 MUL DUP1 CALLDATASIZE DUP4 CALLDATACOPY DUP1 DUP3 ADD SWAP2 POP POP SWAP1 POP JUMPDEST POP SWAP1 POP PUSH1 0x0 DUP3 PUSH1 0x20 ADD DUP3 ADD SWAP1 POP JUMPDEST PUSH1 0x1 ISZERO PUSH2 0x23AD JUMPI DUP1 DUP1 PUSH1 0x1 SWAP1 SUB SWAP2 POP POP PUSH32 0x3031323334353637383961626364656600000000000000000000000000000000 PUSH1 0xA DUP7 MOD BYTE DUP2 MSTORE8 PUSH1 0xA DUP6 DUP2 PUSH2 0x23A1 JUMPI PUSH2 0x23A0 PUSH2 0x3F78 JUMP JUMPDEST JUMPDEST DIV SWAP5 POP PUSH1 0x0 DUP6 SUB PUSH2 0x2358 JUMPI JUMPDEST DUP2 SWAP4 POP POP POP POP SWAP2 SWAP1 POP JUMP JUMPDEST PUSH1 0x0 DUP1 PUSH1 0x0 SWAP1 POP PUSH27 0x184F03E93FF9F4DAA797ED6E38ED64BF6A1F010000000000000000 DUP4 LT PUSH2 0x2416 JUMPI PUSH27 0x184F03E93FF9F4DAA797ED6E38ED64BF6A1F010000000000000000 DUP4 DUP2 PUSH2 0x240C JUMPI PUSH2 0x240B PUSH2 0x3F78 JUMP JUMPDEST JUMPDEST DIV SWAP3 POP PUSH1 0x40 DUP2 ADD SWAP1 POP JUMPDEST PUSH14 0x4EE2D6D415B85ACEF8100000000 DUP4 LT PUSH2 0x2453 JUMPI PUSH14 0x4EE2D6D415B85ACEF8100000000 DUP4 DUP2 PUSH2 0x2449 JUMPI PUSH2 0x2448 PUSH2 0x3F78 JUMP JUMPDEST JUMPDEST DIV SWAP3 POP PUSH1 0x20 DUP2 ADD SWAP1 POP JUMPDEST PUSH7 0x2386F26FC10000 DUP4 LT PUSH2 0x2482 JUMPI PUSH7 0x2386F26FC10000 DUP4 DUP2 PUSH2 0x2478 JUMPI PUSH2 0x2477 PUSH2 0x3F78 JUMP JUMPDEST JUMPDEST DIV SWAP3 POP PUSH1 0x10 DUP2 ADD SWAP1 POP JUMPDEST PUSH4 0x5F5E100 DUP4 LT PUSH2 0x24AB JUMPI PUSH4 0x5F5E100 DUP4 DUP2 PUSH2 0x24A1 JUMPI PUSH2 0x24A0 PUSH2 0x3F78 JUMP JUMPDEST JUMPDEST DIV SWAP3 POP PUSH1 0x8 DUP2 ADD SWAP1 POP JUMPDEST PUSH2 0x2710 DUP4 LT PUSH2 0x24D0 JUMPI PUSH2 0x2710 DUP4 DUP2 PUSH2 0x24C6 JUMPI PUSH2 0x24C5 PUSH2 0x3F78 JUMP JUMPDEST JUMPDEST DIV SWAP3 POP PUSH1 0x4 DUP2 ADD SWAP1 POP JUMPDEST PUSH1 0x64 DUP4 LT PUSH2 0x24F3 JUMPI PUSH1 0x64 DUP4 DUP2 PUSH2 0x24E9 JUMPI PUSH2 0x24E8 PUSH2 0x3F78 JUMP JUMPDEST JUMPDEST DIV SWAP3 POP PUSH1 0x2 DUP2 ADD SWAP1 POP JUMPDEST PUSH1 0xA DUP4 LT PUSH2 0x2502 JUMPI PUSH1 0x1 DUP2 ADD SWAP1 POP JUMPDEST DUP1 SWAP2 POP POP SWAP2 SWAP1 POP JUMP JUMPDEST PUSH1 0x0 PUSH1 0x40 MLOAD SWAP1 POP SWAP1 JUMP JUMPDEST PUSH1 0x0 DUP1 REVERT JUMPDEST PUSH1 0x0 DUP1 REVERT JUMPDEST PUSH1 0x0 PUSH20 0xFFFFFFFFFFFFFFFFFFFFFFFFFFFFFFFFFFFFFFFF DUP3 AND SWAP1 POP SWAP2 SWAP1 POP JUMP JUMPDEST PUSH1 0x0 PUSH2 0x254A DUP3 PUSH2 0x251F JUMP JUMPDEST SWAP1 POP SWAP2 SWAP1 POP JUMP JUMPDEST PUSH2 0x255A DUP2 PUSH2 0x253F JUMP JUMPDEST DUP2 EQ PUSH2 0x2565 JUMPI PUSH1 0x0 DUP1 REVERT JUMPDEST POP JUMP JUMPDEST PUSH1 0x0 DUP2 CALLDATALOAD SWAP1 POP PUSH2 0x2577 DUP2 PUSH2 0x2551 JUMP JUMPDEST SWAP3 SWAP2 POP POP JUMP JUMPDEST PUSH1 0x0 DUP1 REVERT JUMPDEST PUSH1 0x0 DUP1 REVERT JUMPDEST PUSH1 0x0 DUP1 REVERT JUMPDEST PUSH1 0x0 DUP1 DUP4 PUSH1 0x1F DUP5 ADD SLT PUSH2 0x25A2 JUMPI PUSH2 0x25A1 PUSH2 0x257D JUMP JUMPDEST JUMPDEST DUP3 CALLDATALOAD SWAP1 POP PUSH8 0xFFFFFFFFFFFFFFFF DUP2 GT ISZERO PUSH2 0x25BF JUMPI PUSH2 0x25BE PUSH2 0x2582 JUMP JUMPDEST JUMPDEST PUSH1 0x20 DUP4 ADD SWAP2 POP DUP4 PUSH1 0x1 DUP3 MUL DUP4 ADD GT ISZERO PUSH2 0x25DB JUMPI PUSH2 0x25DA PUSH2 0x2587 JUMP JUMPDEST JUMPDEST SWAP3 POP SWAP3 SWAP1 POP JUMP JUMPDEST PUSH1 0x0 DUP1 REVERT JUMPDEST PUSH1 0x0 PUSH1 0x1F NOT PUSH1 0x1F DUP4 ADD AND SWAP1 POP SWAP2 SWAP1 POP JUMP JUMPDEST PUSH32 0x4E487B7100000000000000000000000000000000000000000000000000000000 PUSH1 0x0 MSTORE PUSH1 0x41 PUSH1 0x4 MSTORE PUSH1 0x24 PUSH1 0x0 REVERT JUMPDEST PUSH2 0x2630 DUP3 PUSH2 0x25E7 JUMP JUMPDEST DUP2 ADD DUP2 DUP2 LT PUSH8 0xFFFFFFFFFFFFFFFF DUP3 GT OR ISZERO PUSH2 0x264F JUMPI PUSH2 0x264E PUSH2 0x25F8 JUMP JUMPDEST JUMPDEST DUP1 PUSH1 0x40 MSTORE POP POP POP JUMP JUMPDEST PUSH1 0x0 PUSH2 0x2662 PUSH2 0x250B JUMP JUMPDEST SWAP1 POP PUSH2 0x266E DUP3 DUP3 PUSH2 0x2627 JUMP JUMPDEST SWAP2 SWAP1 POP JUMP JUMPDEST PUSH1 0x0 PUSH8 0xFFFFFFFFFFFFFFFF DUP3 GT ISZERO PUSH2 0x268E JUMPI PUSH2 0x268D PUSH2 0x25F8 JUMP JUMPDEST JUMPDEST PUSH2 0x2697 DUP3 PUSH2 0x25E7 JUMP JUMPDEST SWAP1 POP PUSH1 0x20 DUP2 ADD SWAP1 POP SWAP2 SWAP1 POP JUMP JUMPDEST DUP3 DUP2 DUP4 CALLDATACOPY PUSH1 0x0 DUP4 DUP4 ADD MSTORE POP POP POP JUMP JUMPDEST PUSH1 0x0 PUSH2 0x26C6 PUSH2 0x26C1 DUP5 PUSH2 0x2673 JUMP JUMPDEST PUSH2 0x2658 JUMP JUMPDEST SWAP1 POP DUP3 DUP2 MSTORE PUSH1 0x20 DUP2 ADD DUP5 DUP5 DUP5 ADD GT ISZERO PUSH2 0x26E2 JUMPI PUSH2 0x26E1 PUSH2 0x25E2 JUMP JUMPDEST JUMPDEST PUSH2 0x26ED DUP5 DUP3 DUP6 PUSH2 0x26A4 JUMP JUMPDEST POP SWAP4 SWAP3 POP POP POP JUMP JUMPDEST PUSH1 0x0 DUP3 PUSH1 0x1F DUP4 ADD SLT PUSH2 0x270A JUMPI PUSH2 0x2709 PUSH2 0x257D JUMP JUMPDEST JUMPDEST DUP2 CALLDATALOAD PUSH2 0x271A DUP5 DUP3 PUSH1 0x20 DUP7 ADD PUSH2 0x26B3 JUMP JUMPDEST SWAP2 POP POP SWAP3 SWAP2 POP POP JUMP JUMPDEST PUSH1 0x0 DUP2 SWAP1 POP SWAP2 SWAP1 POP JUMP JUMPDEST PUSH2 0x2736 DUP2 PUSH2 0x2723 JUMP JUMPDEST DUP2 EQ PUSH2 0x2741 JUMPI PUSH1 0x0 DUP1 REVERT JUMPDEST POP JUMP JUMPDEST PUSH1 0x0 DUP2 CALLDATALOAD SWAP1 POP PUSH2 0x2753 DUP2 PUSH2 0x272D JUMP JUMPDEST SWAP3 SWAP2 POP POP JUMP JUMPDEST PUSH1 0x0 DUP1 PUSH1 0x0 DUP1 PUSH1 0x0 DUP1 PUSH1 0x0 DUP1 PUSH1 0xC0 DUP10 DUP12 SUB SLT ISZERO PUSH2 0x2779 JUMPI PUSH2 0x2778 PUSH2 0x2515 JUMP JUMPDEST JUMPDEST PUSH1 0x0 PUSH2 0x2787 DUP12 DUP3 DUP13 ADD PUSH2 0x2568 JUMP JUMPDEST SWAP9 POP POP PUSH1 0x20 DUP10 ADD CALLDATALOAD PUSH8 0xFFFFFFFFFFFFFFFF DUP2 GT ISZERO PUSH2 0x27A8 JUMPI PUSH2 0x27A7 PUSH2 0x251A JUMP JUMPDEST JUMPDEST PUSH2 0x27B4 DUP12 DUP3 DUP13 ADD PUSH2 0x258C JUMP JUMPDEST SWAP8 POP SWAP8 POP POP PUSH1 0x40 DUP10 ADD CALLDATALOAD PUSH8 0xFFFFFFFFFFFFFFFF DUP2 GT ISZERO PUSH2 0x27D7 JUMPI PUSH2 0x27D6 PUSH2 0x251A JUMP JUMPDEST JUMPDEST PUSH2 0x27E3 DUP12 DUP3 DUP13 ADD PUSH2 0x258C JUMP JUMPDEST SWAP6 POP SWAP6 POP POP PUSH1 0x60 PUSH2 0x27F6 DUP12 DUP3 DUP13 ADD PUSH2 0x2568 JUMP JUMPDEST SWAP4 POP POP PUSH1 0x80 DUP10 ADD CALLDATALOAD PUSH8 0xFFFFFFFFFFFFFFFF DUP2 GT ISZERO PUSH2 0x2817 JUMPI PUSH2 0x2816 PUSH2 0x251A JUMP JUMPDEST JUMPDEST PUSH2 0x2823 DUP12 DUP3 DUP13 ADD PUSH2 0x26F5 JUMP JUMPDEST SWAP3 POP POP PUSH1 0xA0 PUSH2 0x2834 DUP12 DUP3 DUP13 ADD PUSH2 0x2744 JUMP JUMPDEST SWAP2 POP POP SWAP3 SWAP6 SWAP9 POP SWAP3 SWAP6 SWAP9 SWAP1 SWAP4 SWAP7 POP JUMP JUMPDEST PUSH1 0x0 DUP2 ISZERO ISZERO SWAP1 POP SWAP2 SWAP1 POP JUMP JUMPDEST PUSH2 0x2859 DUP2 PUSH2 0x2844 JUMP JUMPDEST DUP3 MSTORE POP POP JUMP JUMPDEST PUSH1 0x0 PUSH1 0x20 DUP3 ADD SWAP1 POP PUSH2 0x2874 PUSH1 0x0 DUP4 ADD DUP5 PUSH2 0x2850 JUMP JUMPDEST SWAP3 SWAP2 POP POP JUMP JUMPDEST PUSH1 0x0 PUSH32 0xFFFFFFFF00000000000000000000000000000000000000000000000000000000 DUP3 AND SWAP1 POP SWAP2 SWAP1 POP JUMP JUMPDEST PUSH2 0x28AF DUP2 PUSH2 0x287A JUMP JUMPDEST DUP2 EQ PUSH2 0x28BA JUMPI PUSH1 0x0 DUP1 REVERT JUMPDEST POP JUMP JUMPDEST PUSH1 0x0 DUP2 CALLDATALOAD SWAP1 POP PUSH2 0x28CC DUP2 PUSH2 0x28A6 JUMP JUMPDEST SWAP3 SWAP2 POP POP JUMP JUMPDEST PUSH1 0x0 PUSH1 0x20 DUP3 DUP5 SUB SLT ISZERO PUSH2 0x28E8 JUMPI PUSH2 0x28E7 PUSH2 0x2515 JUMP JUMPDEST JUMPDEST PUSH1 0x0 PUSH2 0x28F6 DUP5 DUP3 DUP6 ADD PUSH2 0x28BD JUMP JUMPDEST SWAP2 POP POP SWAP3 SWAP2 POP POP JUMP JUMPDEST PUSH1 0x0 DUP2 MLOAD SWAP1 POP SWAP2 SWAP1 POP JUMP JUMPDEST PUSH1 0x0 DUP3 DUP3 MSTORE PUSH1 0x20 DUP3 ADD SWAP1 POP SWAP3 SWAP2 POP POP JUMP JUMPDEST PUSH1 0x0 JUMPDEST DUP4 DUP2 LT ISZERO PUSH2 0x2939 JUMPI DUP1 DUP3 ADD MLOAD DUP2 DUP5 ADD MSTORE PUSH1 0x20 DUP2 ADD SWAP1 POP PUSH2 0x291E JUMP JUMPDEST PUSH1 0x0 DUP5 DUP5 ADD MSTORE POP POP POP POP JUMP JUMPDEST PUSH1 0x0 PUSH2 0x2950 DUP3 PUSH2 0x28FF JUMP JUMPDEST PUSH2 0x295A DUP2 DUP6 PUSH2 0x290A JUMP JUMPDEST SWAP4 POP PUSH2 0x296A DUP2 DUP6 PUSH1 0x20 DUP7 ADD PUSH2 0x291B JUMP JUMPDEST PUSH2 0x2973 DUP2 PUSH2 0x25E7 JUMP JUMPDEST DUP5 ADD SWAP2 POP POP SWAP3 SWAP2 POP POP JUMP JUMPDEST PUSH1 0x0 PUSH1 0x20 DUP3 ADD SWAP1 POP DUP2 DUP2 SUB PUSH1 0x0 DUP4 ADD MSTORE PUSH2 0x2998 DUP2 DUP5 PUSH2 0x2945 JUMP JUMPDEST SWAP1 POP SWAP3 SWAP2 POP POP JUMP JUMPDEST PUSH1 0x0 PUSH1 0x20 DUP3 DUP5 SUB SLT ISZERO PUSH2 0x29B6 JUMPI PUSH2 0x29B5 PUSH2 0x2515 JUMP JUMPDEST JUMPDEST PUSH1 0x0 PUSH2 0x29C4 DUP5 DUP3 DUP6 ADD PUSH2 0x2744 JUMP JUMPDEST SWAP2 POP POP SWAP3 SWAP2 POP POP JUMP JUMPDEST PUSH2 0x29D6 DUP2 PUSH2 0x253F JUMP JUMPDEST DUP3 MSTORE POP POP JUMP JUMPDEST PUSH1 0x0 PUSH1 0x20 DUP3 ADD SWAP1 POP PUSH2 0x29F1 PUSH1 0x0 DUP4 ADD DUP5 PUSH2 0x29CD JUMP JUMPDEST SWAP3 SWAP2 POP POP JUMP JUMPDEST PUSH1 0x0 DUP1 PUSH1 0x40 DUP4 DUP6 SUB SLT ISZERO PUSH2 0x2A0E JUMPI PUSH2 0x2A0D PUSH2 0x2515 JUMP JUMPDEST JUMPDEST PUSH1 0x0 PUSH2 0x2A1C DUP6 DUP3 DUP7 ADD PUSH2 0x2568 JUMP JUMPDEST SWAP3 POP POP PUSH1 0x20 PUSH2 0x2A2D DUP6 DUP3 DUP7 ADD PUSH2 0x2744 JUMP JUMPDEST SWAP2 POP POP SWAP3 POP SWAP3 SWAP1 POP JUMP JUMPDEST PUSH2 0x2A40 DUP2 PUSH2 0x2723 JUMP JUMPDEST DUP3 MSTORE POP POP JUMP JUMPDEST PUSH1 0x0 PUSH1 0x20 DUP3 ADD SWAP1 POP PUSH2 0x2A5B PUSH1 0x0 DUP4 ADD DUP5 PUSH2 0x2A37 JUMP JUMPDEST SWAP3 SWAP2 POP POP JUMP JUMPDEST PUSH1 0x0 DUP1 PUSH1 0x0 PUSH1 0x60 DUP5 DUP7 SUB SLT ISZERO PUSH2 0x2A7A JUMPI PUSH2 0x2A79 PUSH2 0x2515 JUMP JUMPDEST JUMPDEST PUSH1 0x0 PUSH2 0x2A88 DUP7 DUP3 DUP8 ADD PUSH2 0x2568 JUMP JUMPDEST SWAP4 POP POP PUSH1 0x20 PUSH2 0x2A99 DUP7 DUP3 DUP8 ADD PUSH2 0x2568 JUMP JUMPDEST SWAP3 POP POP PUSH1 0x40 PUSH2 0x2AAA DUP7 DUP3 DUP8 ADD PUSH2 0x2744 JUMP JUMPDEST SWAP2 POP POP SWAP3 POP SWAP3 POP SWAP3 JUMP JUMPDEST PUSH1 0x0 PUSH1 0x20 DUP3 DUP5 SUB SLT ISZERO PUSH2 0x2ACA JUMPI PUSH2 0x2AC9 PUSH2 0x2515 JUMP JUMPDEST JUMPDEST PUSH1 0x0 PUSH2 0x2AD8 DUP5 DUP3 DUP6 ADD PUSH2 0x2568 JUMP JUMPDEST SWAP2 POP POP SWAP3 SWAP2 POP POP JUMP JUMPDEST PUSH2 0x2AEA DUP2 PUSH2 0x2844 JUMP JUMPDEST DUP2 EQ PUSH2 0x2AF5 JUMPI PUSH1 0x0 DUP1 REVERT JUMPDEST POP JUMP JUMPDEST PUSH1 0x0 DUP2 CALLDATALOAD SWAP1 POP PUSH2 0x2B07 DUP2 PUSH2 0x2AE1 JUMP JUMPDEST SWAP3 SWAP2 POP POP JUMP JUMPDEST PUSH1 0x0 DUP1 PUSH1 0x40 DUP4 DUP6 SUB SLT ISZERO PUSH2 0x2B24 JUMPI PUSH2 0x2B23 PUSH2 0x2515 JUMP JUMPDEST JUMPDEST PUSH1 0x0 PUSH2 0x2B32 DUP6 DUP3 DUP7 ADD PUSH2 0x2568 JUMP JUMPDEST SWAP3 POP POP PUSH1 0x20 PUSH2 0x2B43 DUP6 DUP3 DUP7 ADD PUSH2 0x2AF8 JUMP JUMPDEST SWAP2 POP POP SWAP3 POP SWAP3 SWAP1 POP JUMP JUMPDEST PUSH1 0x0 DUP1 PUSH1 0x0 DUP1 PUSH1 0x0 DUP1 PUSH1 0x80 DUP8 DUP10 SUB SLT ISZERO PUSH2 0x2B6A JUMPI PUSH2 0x2B69 PUSH2 0x2515 JUMP JUMPDEST JUMPDEST PUSH1 0x0 DUP8 ADD CALLDATALOAD PUSH8 0xFFFFFFFFFFFFFFFF DUP2 GT ISZERO PUSH2 0x2B88 JUMPI PUSH2 0x2B87 PUSH2 0x251A JUMP JUMPDEST JUMPDEST PUSH2 0x2B94 DUP10 DUP3 DUP11 ADD PUSH2 0x258C JUMP JUMPDEST SWAP7 POP SWAP7 POP POP PUSH1 0x20 DUP8 ADD CALLDATALOAD PUSH8 0xFFFFFFFFFFFFFFFF DUP2 GT ISZERO PUSH2 0x2BB7 JUMPI PUSH2 0x2BB6 PUSH2 0x251A JUMP JUMPDEST JUMPDEST PUSH2 0x2BC3 DUP10 DUP3 DUP11 ADD PUSH2 0x258C JUMP JUMPDEST SWAP5 POP SWAP5 POP POP PUSH1 0x40 PUSH2 0x2BD6 DUP10 DUP3 DUP11 ADD PUSH2 0x2744 JUMP JUMPDEST SWAP3 POP POP PUSH1 0x60 PUSH2 0x2BE7 DUP10 DUP3 DUP11 ADD PUSH2 0x2744 JUMP JUMPDEST SWAP2 POP POP SWAP3 SWAP6 POP SWAP3 SWAP6 POP SWAP3 SWAP6 JUMP JUMPDEST PUSH1 0x0 PUSH8 0xFFFFFFFFFFFFFFFF DUP3 GT ISZERO PUSH2 0x2C0F JUMPI PUSH2 0x2C0E PUSH2 0x25F8 JUMP JUMPDEST JUMPDEST PUSH2 0x2C18 DUP3 PUSH2 0x25E7 JUMP JUMPDEST SWAP1 POP PUSH1 0x20 DUP2 ADD SWAP1 POP SWAP2 SWAP1 POP JUMP JUMPDEST PUSH1 0x0 PUSH2 0x2C38 PUSH2 0x2C33 DUP5 PUSH2 0x2BF4 JUMP JUMPDEST PUSH2 0x2658 JUMP JUMPDEST SWAP1 POP DUP3 DUP2 MSTORE PUSH1 0x20 DUP2 ADD DUP5 DUP5 DUP5 ADD GT ISZERO PUSH2 0x2C54 JUMPI PUSH2 0x2C53 PUSH2 0x25E2 JUMP JUMPDEST JUMPDEST PUSH2 0x2C5F DUP5 DUP3 DUP6 PUSH2 0x26A4 JUMP JUMPDEST POP SWAP4 SWAP3 POP POP POP JUMP JUMPDEST PUSH1 0x0 DUP3 PUSH1 0x1F DUP4 ADD SLT PUSH2 0x2C7C JUMPI PUSH2 0x2C7B PUSH2 0x257D JUMP JUMPDEST JUMPDEST DUP2 CALLDATALOAD PUSH2 0x2C8C DUP5 DUP3 PUSH1 0x20 DUP7 ADD PUSH2 0x2C25 JUMP JUMPDEST SWAP2 POP POP SWAP3 SWAP2 POP POP JUMP JUMPDEST PUSH1 0x0 DUP1 PUSH1 0x0 DUP1 PUSH1 0x80 DUP6 DUP8 SUB SLT ISZERO PUSH2 0x2CAF JUMPI PUSH2 0x2CAE PUSH2 0x2515 JUMP JUMPDEST JUMPDEST PUSH1 0x0 PUSH2 0x2CBD DUP8 DUP3 DUP9 ADD PUSH2 0x2568 JUMP JUMPDEST SWAP5 POP POP PUSH1 0x20 PUSH2 0x2CCE DUP8 DUP3 DUP9 ADD PUSH2 0x2568 JUMP JUMPDEST SWAP4 POP POP PUSH1 0x40 PUSH2 0x2CDF DUP8 DUP3 DUP9 ADD PUSH2 0x2744 JUMP JUMPDEST SWAP3 POP POP PUSH1 0x60 DUP6 ADD CALLDATALOAD PUSH8 0xFFFFFFFFFFFFFFFF DUP2 GT ISZERO PUSH2 0x2D00 JUMPI PUSH2 0x2CFF PUSH2 0x251A JUMP JUMPDEST JUMPDEST PUSH2 0x2D0C DUP8 DUP3 DUP9 ADD PUSH2 0x2C67 JUMP JUMPDEST SWAP2 POP POP SWAP3 SWAP6 SWAP2 SWAP5 POP SWAP3 POP JUMP JUMPDEST PUSH1 0x0 DUP1 PUSH1 0x40 DUP4 DUP6 SUB SLT ISZERO PUSH2 0x2D2F JUMPI PUSH2 0x2D2E PUSH2 0x2515 JUMP JUMPDEST JUMPDEST PUSH1 0x0 PUSH2 0x2D3D DUP6 DUP3 DUP7 ADD PUSH2 0x2568 JUMP JUMPDEST SWAP3 POP POP PUSH1 0x20 PUSH2 0x2D4E DUP6 DUP3 DUP7 ADD PUSH2 0x2568 JUMP JUMPDEST SWAP2 POP POP SWAP3 POP SWAP3 SWAP1 POP JUMP JUMPDEST PUSH32 0x496E697469616C697A61626C653A20636F6E747261637420697320616C726561 PUSH1 0x0 DUP3 ADD MSTORE PUSH32 0x647920696E697469616C697A6564000000000000000000000000000000000000 PUSH1 0x20 DUP3 ADD MSTORE POP JUMP JUMPDEST PUSH1 0x0 PUSH2 0x2DB4 PUSH1 0x2E DUP4 PUSH2 0x290A JUMP JUMPDEST SWAP2 POP PUSH2 0x2DBF DUP3 PUSH2 0x2D58 JUMP JUMPDEST PUSH1 0x40 DUP3 ADD SWAP1 POP SWAP2 SWAP1 POP JUMP JUMPDEST PUSH1 0x0 PUSH1 0x20 DUP3 ADD SWAP1 POP DUP2 DUP2 SUB PUSH1 0x0 DUP4 ADD MSTORE PUSH2 0x2DE3 DUP2 PUSH2 0x2DA7 JUMP JUMPDEST SWAP1 POP SWAP2 SWAP1 POP JUMP JUMPDEST PUSH32 0x496E76616C6964204E4654206F776E65723A207A65726F206164647265737320 PUSH1 0x0 DUP3 ADD MSTORE PUSH32 0x6E6F742076616C69642100000000000000000000000000000000000000000000 PUSH1 0x20 DUP3 ADD MSTORE POP JUMP JUMPDEST PUSH1 0x0 PUSH2 0x2E46 PUSH1 0x2A DUP4 PUSH2 0x290A JUMP JUMPDEST SWAP2 POP PUSH2 0x2E51 DUP3 PUSH2 0x2DEA JUMP JUMPDEST PUSH1 0x40 DUP3 ADD SWAP1 POP SWAP2 SWAP1 POP JUMP JUMPDEST PUSH1 0x0 PUSH1 0x20 DUP3 ADD SWAP1 POP DUP2 DUP2 SUB PUSH1 0x0 DUP4 ADD MSTORE PUSH2 0x2E75 DUP2 PUSH2 0x2E39 JUMP JUMPDEST SWAP1 POP SWAP2 SWAP1 POP JUMP JUMPDEST PUSH1 0x0 PUSH2 0x2E88 DUP4 DUP6 PUSH2 0x290A JUMP JUMPDEST SWAP4 POP PUSH2 0x2E95 DUP4 DUP6 DUP5 PUSH2 0x26A4 JUMP JUMPDEST PUSH2 0x2E9E DUP4 PUSH2 0x25E7 JUMP JUMPDEST DUP5 ADD SWAP1 POP SWAP4 SWAP3 POP POP POP JUMP JUMPDEST PUSH1 0x0 PUSH1 0x60 DUP3 ADD SWAP1 POP DUP2 DUP2 SUB PUSH1 0x0 DUP4 ADD MSTORE PUSH2 0x2EC4 DUP2 DUP8 DUP10 PUSH2 0x2E7C JUMP JUMPDEST SWAP1 POP DUP2 DUP2 SUB PUSH1 0x20 DUP4 ADD MSTORE PUSH2 0x2ED9 DUP2 DUP6 DUP8 PUSH2 0x2E7C JUMP JUMPDEST SWAP1 POP PUSH2 0x2EE8 PUSH1 0x40 DUP4 ADD DUP5 PUSH2 0x29CD JUMP JUMPDEST SWAP7 SWAP6 POP POP POP POP POP POP JUMP JUMPDEST PUSH1 0x0 DUP2 SWAP1 POP SWAP2 SWAP1 POP JUMP JUMPDEST PUSH1 0x0 PUSH1 0xFF DUP3 AND SWAP1 POP SWAP2 SWAP1 POP JUMP JUMPDEST PUSH1 0x0 DUP2 SWAP1 POP SWAP2 SWAP1 POP JUMP JUMPDEST PUSH1 0x0 PUSH2 0x2F2E PUSH2 0x2F29 PUSH2 0x2F24 DUP5 PUSH2 0x2EF2 JUMP JUMPDEST PUSH2 0x2F09 JUMP JUMPDEST PUSH2 0x2EFC JUMP JUMPDEST SWAP1 POP SWAP2 SWAP1 POP JUMP JUMPDEST PUSH2 0x2F3E DUP2 PUSH2 0x2F13 JUMP JUMPDEST DUP3 MSTORE POP POP JUMP JUMPDEST PUSH1 0x0 PUSH1 0x20 DUP3 ADD SWAP1 POP PUSH2 0x2F59 PUSH1 0x0 DUP4 ADD DUP5 PUSH2 0x2F35 JUMP JUMPDEST SWAP3 SWAP2 POP POP JUMP JUMPDEST PUSH32 0x4E487B7100000000000000000000000000000000000000000000000000000000 PUSH1 0x0 MSTORE PUSH1 0x22 PUSH1 0x4 MSTORE PUSH1 0x24 PUSH1 0x0 REVERT JUMPDEST PUSH1 0x0 PUSH1 0x2 DUP3 DIV SWAP1 POP PUSH1 0x1 DUP3 AND DUP1 PUSH2 0x2FA6 JUMPI PUSH1 0x7F DUP3 AND SWAP2 POP JUMPDEST PUSH1 0x20 DUP3 LT DUP2 SUB PUSH2 0x2FB9 JUMPI PUSH2 0x2FB8 PUSH2 0x2F5F JUMP JUMPDEST JUMPDEST POP SWAP2 SWAP1 POP JUMP JUMPDEST PUSH32 0x4552433732313A20617070726F76616C20746F2063757272656E74206F776E65 PUSH1 0x0 DUP3 ADD MSTORE PUSH32 0x7200000000000000000000000000000000000000000000000000000000000000 PUSH1 0x20 DUP3 ADD MSTORE POP JUMP JUMPDEST PUSH1 0x0 PUSH2 0x301B PUSH1 0x21 DUP4 PUSH2 0x290A JUMP JUMPDEST SWAP2 POP PUSH2 0x3026 DUP3 PUSH2 0x2FBF JUMP JUMPDEST PUSH1 0x40 DUP3 ADD SWAP1 POP SWAP2 SWAP1 POP JUMP JUMPDEST PUSH1 0x0 PUSH1 0x20 DUP3 ADD SWAP1 POP DUP2 DUP2 SUB PUSH1 0x0 DUP4 ADD MSTORE PUSH2 0x304A DUP2 PUSH2 0x300E JUMP JUMPDEST SWAP1 POP SWAP2 SWAP1 POP JUMP JUMPDEST PUSH32 0x4552433732313A20617070726F76652063616C6C6572206973206E6F7420746F PUSH1 0x0 DUP3 ADD MSTORE PUSH32 0x6B656E206F776E6572206F7220617070726F76656420666F7220616C6C000000 PUSH1 0x20 DUP3 ADD MSTORE POP JUMP JUMPDEST PUSH1 0x0 PUSH2 0x30AD PUSH1 0x3D DUP4 PUSH2 0x290A JUMP JUMPDEST SWAP2 POP PUSH2 0x30B8 DUP3 PUSH2 0x3051 JUMP JUMPDEST PUSH1 0x40 DUP3 ADD SWAP1 POP SWAP2 SWAP1 POP JUMP JUMPDEST PUSH1 0x0 PUSH1 0x20 DUP3 ADD SWAP1 POP DUP2 DUP2 SUB PUSH1 0x0 DUP4 ADD MSTORE PUSH2 0x30DC DUP2 PUSH2 0x30A0 JUMP JUMPDEST SWAP1 POP SWAP2 SWAP1 POP JUMP JUMPDEST PUSH32 0x4552433732313A2063616C6C6572206973206E6F7420746F6B656E206F776E65 PUSH1 0x0 DUP3 ADD MSTORE PUSH32 0x72206F7220617070726F76656400000000000000000000000000000000000000 PUSH1 0x20 DUP3 ADD MSTORE POP JUMP JUMPDEST PUSH1 0x0 PUSH2 0x313F PUSH1 0x2D DUP4 PUSH2 0x290A JUMP JUMPDEST SWAP2 POP PUSH2 0x314A DUP3 PUSH2 0x30E3 JUMP JUMPDEST PUSH1 0x40 DUP3 ADD SWAP1 POP SWAP2 SWAP1 POP JUMP JUMPDEST PUSH1 0x0 PUSH1 0x20 DUP3 ADD SWAP1 POP DUP2 DUP2 SUB PUSH1 0x0 DUP4 ADD MSTORE PUSH2 0x316E DUP2 PUSH2 0x3132 JUMP JUMPDEST SWAP1 POP SWAP2 SWAP1 POP JUMP JUMPDEST PUSH32 0x496E76616C696420416464726573732830290000000000000000000000000000 PUSH1 0x0 DUP3 ADD MSTORE POP JUMP JUMPDEST PUSH1 0x0 PUSH2 0x31AB PUSH1 0x12 DUP4 PUSH2 0x290A JUMP JUMPDEST SWAP2 POP PUSH2 0x31B6 DUP3 PUSH2 0x3175 JUMP JUMPDEST PUSH1 0x20 DUP3 ADD SWAP1 POP SWAP2 SWAP1 POP JUMP JUMPDEST PUSH1 0x0 PUSH1 0x20 DUP3 ADD SWAP1 POP DUP2 DUP2 SUB PUSH1 0x0 DUP4 ADD MSTORE PUSH2 0x31DA DUP2 PUSH2 0x319E JUMP JUMPDEST SWAP1 POP SWAP2 SWAP1 POP JUMP JUMPDEST PUSH32 0x43616E6E6F742073656C6C204E465420746F206D7973656C6600000000000000 PUSH1 0x0 DUP3 ADD MSTORE POP JUMP JUMPDEST PUSH1 0x0 PUSH2 0x3217 PUSH1 0x19 DUP4 PUSH2 0x290A JUMP JUMPDEST SWAP2 POP PUSH2 0x3222 DUP3 PUSH2 0x31E1 JUMP JUMPDEST PUSH1 0x20 DUP3 ADD SWAP1 POP SWAP2 SWAP1 POP JUMP JUMPDEST PUSH1 0x0 PUSH1 0x20 DUP3 ADD SWAP1 POP DUP2 DUP2 SUB PUSH1 0x0 DUP4 ADD MSTORE PUSH2 0x3246 DUP2 PUSH2 0x320A JUMP JUMPDEST SWAP1 POP SWAP2 SWAP1 POP JUMP JUMPDEST PUSH32 0x43616E6E6F74207472616E73666572207468697320746F6B656E496400000000 PUSH1 0x0 DUP3 ADD MSTORE POP JUMP JUMPDEST PUSH1 0x0 PUSH2 0x3283 PUSH1 0x1C DUP4 PUSH2 0x290A JUMP JUMPDEST SWAP2 POP PUSH2 0x328E DUP3 PUSH2 0x324D JUMP JUMPDEST PUSH1 0x20 DUP3 ADD SWAP1 POP SWAP2 SWAP1 POP JUMP JUMPDEST PUSH1 0x0 PUSH1 0x20 DUP3 ADD SWAP1 POP DUP2 DUP2 SUB PUSH1 0x0 DUP4 ADD MSTORE PUSH2 0x32B2 DUP2 PUSH2 0x3276 JUMP JUMPDEST SWAP1 POP SWAP2 SWAP1 POP JUMP JUMPDEST PUSH32 0x4E6F7420656E6F7567682066756E647320746F20627579207468697320617765 PUSH1 0x0 DUP3 ADD MSTORE PUSH32 0x736F6D65204E4654000000000000000000000000000000000000000000000000 PUSH1 0x20 DUP3 ADD MSTORE POP JUMP JUMPDEST PUSH1 0x0 PUSH2 0x3315 PUSH1 0x28 DUP4 PUSH2 0x290A JUMP JUMPDEST SWAP2 POP PUSH2 0x3320 DUP3 PUSH2 0x32B9 JUMP JUMPDEST PUSH1 0x40 DUP3 ADD SWAP1 POP SWAP2 SWAP1 POP JUMP JUMPDEST PUSH1 0x0 PUSH1 0x20 DUP3 ADD SWAP1 POP DUP2 DUP2 SUB PUSH1 0x0 DUP4 ADD MSTORE PUSH2 0x3344 DUP2 PUSH2 0x3308 JUMP JUMPDEST SWAP1 POP SWAP2 SWAP1 POP JUMP JUMPDEST PUSH32 0x4E487B7100000000000000000000000000000000000000000000000000000000 PUSH1 0x0 MSTORE PUSH1 0x32 PUSH1 0x4 MSTORE PUSH1 0x24 PUSH1 0x0 REVERT JUMPDEST PUSH32 0x4552433732313A20696E76616C696420746F6B656E2049440000000000000000 PUSH1 0x0 DUP3 ADD MSTORE POP JUMP JUMPDEST PUSH1 0x0 PUSH2 0x33B0 PUSH1 0x18 DUP4 PUSH2 0x290A JUMP JUMPDEST SWAP2 POP PUSH2 0x33BB DUP3 PUSH2 0x337A JUMP JUMPDEST PUSH1 0x20 DUP3 ADD SWAP1 POP SWAP2 SWAP1 POP JUMP JUMPDEST PUSH1 0x0 PUSH1 0x20 DUP3 ADD SWAP1 POP DUP2 DUP2 SUB PUSH1 0x0 DUP4 ADD MSTORE PUSH2 0x33DF DUP2 PUSH2 0x33A3 JUMP JUMPDEST SWAP1 POP SWAP2 SWAP1 POP JUMP JUMPDEST PUSH32 0x4552433732313A2061646472657373207A65726F206973206E6F742061207661 PUSH1 0x0 DUP3 ADD MSTORE PUSH32 0x6C6964206F776E65720000000000000000000000000000000000000000000000 PUSH1 0x20 DUP3 ADD MSTORE POP JUMP JUMPDEST PUSH1 0x0 PUSH2 0x3442 PUSH1 0x29 DUP4 PUSH2 0x290A JUMP JUMPDEST SWAP2 POP PUSH2 0x344D DUP3 PUSH2 0x33E6 JUMP JUMPDEST PUSH1 0x40 DUP3 ADD SWAP1 POP SWAP2 SWAP1 POP JUMP JUMPDEST PUSH1 0x0 PUSH1 0x20 DUP3 ADD SWAP1 POP DUP2 DUP2 SUB PUSH1 0x0 DUP4 ADD MSTORE PUSH2 0x3471 DUP2 PUSH2 0x3435 JUMP JUMPDEST SWAP1 POP SWAP2 SWAP1 POP JUMP JUMPDEST PUSH32 0x4E6F7420746865204E4654206F776E6572210000000000000000000000000000 PUSH1 0x0 DUP3 ADD MSTORE POP JUMP JUMPDEST PUSH1 0x0 PUSH2 0x34AE PUSH1 0x12 DUP4 PUSH2 0x290A JUMP JUMPDEST SWAP2 POP PUSH2 0x34B9 DUP3 PUSH2 0x3478 JUMP JUMPDEST PUSH1 0x20 DUP3 ADD SWAP1 POP SWAP2 SWAP1 POP JUMP JUMPDEST PUSH1 0x0 PUSH1 0x20 DUP3 ADD SWAP1 POP DUP2 DUP2 SUB PUSH1 0x0 DUP4 ADD MSTORE PUSH2 0x34DD DUP2 PUSH2 0x34A1 JUMP JUMPDEST SWAP1 POP SWAP2 SWAP1 POP JUMP JUMPDEST PUSH32 0x4E465420636F73742063616E6E6F74206265206E656761746976650000000000 PUSH1 0x0 DUP3 ADD MSTORE POP JUMP JUMPDEST PUSH1 0x0 PUSH2 0x351A PUSH1 0x1B DUP4 PUSH2 0x290A JUMP JUMPDEST SWAP2 POP PUSH2 0x3525 DUP3 PUSH2 0x34E4 JUMP JUMPDEST PUSH1 0x20 DUP3 ADD SWAP1 POP SWAP2 SWAP1 POP JUMP JUMPDEST PUSH1 0x0 PUSH1 0x20 DUP3 ADD SWAP1 POP DUP2 DUP2 SUB PUSH1 0x0 DUP4 ADD MSTORE PUSH2 0x3549 DUP2 PUSH2 0x350D JUMP JUMPDEST SWAP1 POP SWAP2 SWAP1 POP JUMP JUMPDEST PUSH32 0x4E657720707269636520657175616C20746F206F6C6420707269636521000000 PUSH1 0x0 DUP3 ADD MSTORE POP JUMP JUMPDEST PUSH1 0x0 PUSH2 0x3586 PUSH1 0x1D DUP4 PUSH2 0x290A JUMP JUMPDEST SWAP2 POP PUSH2 0x3591 DUP3 PUSH2 0x3550 JUMP JUMPDEST PUSH1 0x20 DUP3 ADD SWAP1 POP SWAP2 SWAP1 POP JUMP JUMPDEST PUSH1 0x0 PUSH1 0x20 DUP3 ADD SWAP1 POP DUP2 DUP2 SUB PUSH1 0x0 DUP4 ADD MSTORE PUSH2 0x35B5 DUP2 PUSH2 0x3579 JUMP JUMPDEST SWAP1 POP SWAP2 SWAP1 POP JUMP JUMPDEST PUSH1 0x0 PUSH1 0x80 DUP3 ADD SWAP1 POP DUP2 DUP2 SUB PUSH1 0x0 DUP4 ADD MSTORE PUSH2 0x35D6 DUP2 DUP8 PUSH2 0x2945 JUMP JUMPDEST SWAP1 POP DUP2 DUP2 SUB PUSH1 0x20 DUP4 ADD MSTORE PUSH2 0x35EA DUP2 DUP7 PUSH2 0x2945 JUMP JUMPDEST SWAP1 POP PUSH2 0x35F9 PUSH1 0x40 DUP4 ADD DUP6 PUSH2 0x2A37 JUMP JUMPDEST PUSH2 0x3606 PUSH1 0x60 DUP4 ADD DUP5 PUSH2 0x2A37 JUMP JUMPDEST SWAP6 SWAP5 POP POP POP POP POP JUMP JUMPDEST PUSH32 0x43617020616E6420696E697469616C20737570706C79206E6F742076616C6964 PUSH1 0x0 DUP3 ADD MSTORE POP JUMP JUMPDEST PUSH1 0x0 PUSH2 0x3645 PUSH1 0x20 DUP4 PUSH2 0x290A JUMP JUMPDEST SWAP2 POP PUSH2 0x3650 DUP3 PUSH2 0x360F JUMP JUMPDEST PUSH1 0x20 DUP3 ADD SWAP1 POP SWAP2 SWAP1 POP JUMP JUMPDEST PUSH1 0x0 PUSH1 0x20 DUP3 ADD SWAP1 POP DUP2 DUP2 SUB PUSH1 0x0 DUP4 ADD MSTORE PUSH2 0x3674 DUP2 PUSH2 0x3638 JUMP JUMPDEST SWAP1 POP SWAP2 SWAP1 POP JUMP JUMPDEST PUSH1 0x0 PUSH1 0xA0 DUP3 ADD SWAP1 POP DUP2 DUP2 SUB PUSH1 0x0 DUP4 ADD MSTORE PUSH2 0x3696 DUP2 DUP10 DUP12 PUSH2 0x2E7C JUMP JUMPDEST SWAP1 POP DUP2 DUP2 SUB PUSH1 0x20 DUP4 ADD MSTORE PUSH2 0x36AB DUP2 DUP8 DUP10 PUSH2 0x2E7C JUMP JUMPDEST SWAP1 POP PUSH2 0x36BA PUSH1 0x40 DUP4 ADD DUP7 PUSH2 0x29CD JUMP JUMPDEST PUSH2 0x36C7 PUSH1 0x60 DUP4 ADD DUP6 PUSH2 0x2A37 JUMP JUMPDEST PUSH2 0x36D4 PUSH1 0x80 DUP4 ADD DUP5 PUSH2 0x2A37 JUMP JUMPDEST SWAP9 SWAP8 POP POP POP POP POP POP POP POP JUMP JUMPDEST PUSH1 0x0 DUP2 MLOAD SWAP1 POP PUSH2 0x36EF DUP2 PUSH2 0x2551 JUMP JUMPDEST SWAP3 SWAP2 POP POP JUMP JUMPDEST PUSH1 0x0 PUSH1 0x20 DUP3 DUP5 SUB SLT ISZERO PUSH2 0x370B JUMPI PUSH2 0x370A PUSH2 0x2515 JUMP JUMPDEST JUMPDEST PUSH1 0x0 PUSH2 0x3719 DUP5 DUP3 DUP6 ADD PUSH2 0x36E0 JUMP JUMPDEST SWAP2 POP POP SWAP3 SWAP2 POP POP JUMP JUMPDEST PUSH1 0x0 PUSH1 0xE0 DUP3 ADD SWAP1 POP DUP2 DUP2 SUB PUSH1 0x0 DUP4 ADD MSTORE PUSH2 0x373D DUP2 DUP12 DUP14 PUSH2 0x2E7C JUMP JUMPDEST SWAP1 POP DUP2 DUP2 SUB PUSH1 0x20 DUP4 ADD MSTORE PUSH2 0x3752 DUP2 DUP10 DUP12 PUSH2 0x2E7C JUMP JUMPDEST SWAP1 POP PUSH2 0x3761 PUSH1 0x40 DUP4 ADD DUP9 PUSH2 0x29CD JUMP JUMPDEST PUSH2 0x376E PUSH1 0x60 DUP4 ADD DUP8 PUSH2 0x29CD JUMP JUMPDEST PUSH2 0x377B PUSH1 0x80 DUP4 ADD DUP7 PUSH2 0x29CD JUMP JUMPDEST PUSH2 0x3788 PUSH1 0xA0 DUP4 ADD DUP6 PUSH2 0x2A37 JUMP JUMPDEST PUSH2 0x3795 PUSH1 0xC0 DUP4 ADD DUP5 PUSH2 0x2A37 JUMP JUMPDEST SWAP11 SWAP10 POP POP POP POP POP POP POP POP POP POP JUMP JUMPDEST PUSH32 0x496E697469616C697A61626C653A20636F6E7472616374206973206E6F742069 PUSH1 0x0 DUP3 ADD MSTORE PUSH32 0x6E697469616C697A696E67000000000000000000000000000000000000000000 PUSH1 0x20 DUP3 ADD MSTORE POP JUMP JUMPDEST PUSH1 0x0 PUSH2 0x37FF PUSH1 0x2B DUP4 PUSH2 0x290A JUMP JUMPDEST SWAP2 POP PUSH2 0x380A DUP3 PUSH2 0x37A3 JUMP JUMPDEST PUSH1 0x40 DUP3 ADD SWAP1 POP SWAP2 SWAP1 POP JUMP JUMPDEST PUSH1 0x0 PUSH1 0x20 DUP3 ADD SWAP1 POP DUP2 DUP2 SUB PUSH1 0x0 DUP4 ADD MSTORE PUSH2 0x382E DUP2 PUSH2 0x37F2 JUMP JUMPDEST SWAP1 POP SWAP2 SWAP1 POP JUMP JUMPDEST PUSH32 0x45524337323155524953746F726167653A2055524920736574206F66206E6F6E PUSH1 0x0 DUP3 ADD MSTORE PUSH32 0x6578697374656E7420746F6B656E000000000000000000000000000000000000 PUSH1 0x20 DUP3 ADD MSTORE POP JUMP JUMPDEST PUSH1 0x0 PUSH2 0x3891 PUSH1 0x2E DUP4 PUSH2 0x290A JUMP JUMPDEST SWAP2 POP PUSH2 0x389C DUP3 PUSH2 0x3835 JUMP JUMPDEST PUSH1 0x40 DUP3 ADD SWAP1 POP SWAP2 SWAP1 POP JUMP JUMPDEST PUSH1 0x0 PUSH1 0x20 DUP3 ADD SWAP1 POP DUP2 DUP2 SUB PUSH1 0x0 DUP4 ADD MSTORE PUSH2 0x38C0 DUP2 PUSH2 0x3884 JUMP JUMPDEST SWAP1 POP SWAP2 SWAP1 POP JUMP JUMPDEST PUSH1 0x0 DUP2 SWAP1 POP DUP2 PUSH1 0x0 MSTORE PUSH1 0x20 PUSH1 0x0 KECCAK256 SWAP1 POP SWAP2 SWAP1 POP JUMP JUMPDEST PUSH1 0x0 PUSH1 0x20 PUSH1 0x1F DUP4 ADD DIV SWAP1 POP SWAP2 SWAP1 POP JUMP JUMPDEST PUSH1 0x0 DUP3 DUP3 SHL SWAP1 POP SWAP3 SWAP2 POP POP JUMP JUMPDEST PUSH1 0x0 PUSH1 0x8 DUP4 MUL PUSH2 0x3929 PUSH32 0xFFFFFFFFFFFFFFFFFFFFFFFFFFFFFFFFFFFFFFFFFFFFFFFFFFFFFFFFFFFFFFFF DUP3 PUSH2 0x38EC JUMP JUMPDEST PUSH2 0x3933 DUP7 DUP4 PUSH2 0x38EC JUMP JUMPDEST SWAP6 POP DUP1 NOT DUP5 AND SWAP4 POP DUP1 DUP7 AND DUP5 OR SWAP3 POP POP POP SWAP4 SWAP3 POP POP POP JUMP JUMPDEST PUSH1 0x0 PUSH2 0x3966 PUSH2 0x3961 PUSH2 0x395C DUP5 PUSH2 0x2723 JUMP JUMPDEST PUSH2 0x2F09 JUMP JUMPDEST PUSH2 0x2723 JUMP JUMPDEST SWAP1 POP SWAP2 SWAP1 POP JUMP JUMPDEST PUSH1 0x0 DUP2 SWAP1 POP SWAP2 SWAP1 POP JUMP JUMPDEST PUSH2 0x3980 DUP4 PUSH2 0x394B JUMP JUMPDEST PUSH2 0x3994 PUSH2 0x398C DUP3 PUSH2 0x396D JUMP JUMPDEST DUP5 DUP5 SLOAD PUSH2 0x38F9 JUMP JUMPDEST DUP3 SSTORE POP POP POP POP JUMP JUMPDEST PUSH1 0x0 SWAP1 JUMP JUMPDEST PUSH2 0x39A9 PUSH2 0x399C JUMP JUMPDEST PUSH2 0x39B4 DUP2 DUP5 DUP5 PUSH2 0x3977 JUMP JUMPDEST POP POP POP JUMP JUMPDEST JUMPDEST DUP2 DUP2 LT ISZERO PUSH2 0x39D8 JUMPI PUSH2 0x39CD PUSH1 0x0 DUP3 PUSH2 0x39A1 JUMP JUMPDEST PUSH1 0x1 DUP2 ADD SWAP1 POP PUSH2 0x39BA JUMP JUMPDEST POP POP JUMP JUMPDEST PUSH1 0x1F DUP3 GT ISZERO PUSH2 0x3A1D JUMPI PUSH2 0x39EE DUP2 PUSH2 0x38C7 JUMP JUMPDEST PUSH2 0x39F7 DUP5 PUSH2 0x38DC JUMP JUMPDEST DUP2 ADD PUSH1 0x20 DUP6 LT ISZERO PUSH2 0x3A06 JUMPI DUP2 SWAP1 POP JUMPDEST PUSH2 0x3A1A PUSH2 0x3A12 DUP6 PUSH2 0x38DC JUMP JUMPDEST DUP4 ADD DUP3 PUSH2 0x39B9 JUMP JUMPDEST POP POP JUMPDEST POP POP POP JUMP JUMPDEST PUSH1 0x0 DUP3 DUP3 SHR SWAP1 POP SWAP3 SWAP2 POP POP JUMP JUMPDEST PUSH1 0x0 PUSH2 0x3A40 PUSH1 0x0 NOT DUP5 PUSH1 0x8 MUL PUSH2 0x3A22 JUMP JUMPDEST NOT DUP1 DUP4 AND SWAP2 POP POP SWAP3 SWAP2 POP POP JUMP JUMPDEST PUSH1 0x0 PUSH2 0x3A59 DUP4 DUP4 PUSH2 0x3A2F JUMP JUMPDEST SWAP2 POP DUP3 PUSH1 0x2 MUL DUP3 OR SWAP1 POP SWAP3 SWAP2 POP POP JUMP JUMPDEST PUSH2 0x3A72 DUP3 PUSH2 0x28FF JUMP JUMPDEST PUSH8 0xFFFFFFFFFFFFFFFF DUP2 GT ISZERO PUSH2 0x3A8B JUMPI PUSH2 0x3A8A PUSH2 0x25F8 JUMP JUMPDEST JUMPDEST PUSH2 0x3A95 DUP3 SLOAD PUSH2 0x2F8E JUMP JUMPDEST PUSH2 0x3AA0 DUP3 DUP3 DUP6 PUSH2 0x39DC JUMP JUMPDEST PUSH1 0x0 PUSH1 0x20 SWAP1 POP PUSH1 0x1F DUP4 GT PUSH1 0x1 DUP2 EQ PUSH2 0x3AD3 JUMPI PUSH1 0x0 DUP5 ISZERO PUSH2 0x3AC1 JUMPI DUP3 DUP8 ADD MLOAD SWAP1 POP JUMPDEST PUSH2 0x3ACB DUP6 DUP3 PUSH2 0x3A4D JUMP JUMPDEST DUP7 SSTORE POP PUSH2 0x3B33 JUMP JUMPDEST PUSH1 0x1F NOT DUP5 AND PUSH2 0x3AE1 DUP7 PUSH2 0x38C7 JUMP JUMPDEST PUSH1 0x0 JUMPDEST DUP3 DUP2 LT ISZERO PUSH2 0x3B09 JUMPI DUP5 DUP10 ADD MLOAD DUP3 SSTORE PUSH1 0x1 DUP3 ADD SWAP2 POP PUSH1 0x20 DUP6 ADD SWAP5 POP PUSH1 0x20 DUP2 ADD SWAP1 POP PUSH2 0x3AE4 JUMP JUMPDEST DUP7 DUP4 LT ISZERO PUSH2 0x3B26 JUMPI DUP5 DUP10 ADD MLOAD PUSH2 0x3B22 PUSH1 0x1F DUP10 AND DUP3 PUSH2 0x3A2F JUMP JUMPDEST DUP4 SSTORE POP JUMPDEST PUSH1 0x1 PUSH1 0x2 DUP9 MUL ADD DUP9 SSTORE POP POP POP JUMPDEST POP POP POP POP POP POP JUMP JUMPDEST PUSH32 0x4552433732313A207472616E736665722066726F6D20696E636F727265637420 PUSH1 0x0 DUP3 ADD MSTORE PUSH32 0x6F776E6572000000000000000000000000000000000000000000000000000000 PUSH1 0x20 DUP3 ADD MSTORE POP JUMP JUMPDEST PUSH1 0x0 PUSH2 0x3B97 PUSH1 0x25 DUP4 PUSH2 0x290A JUMP JUMPDEST SWAP2 POP PUSH2 0x3BA2 DUP3 PUSH2 0x3B3B JUMP JUMPDEST PUSH1 0x40 DUP3 ADD SWAP1 POP SWAP2 SWAP1 POP JUMP JUMPDEST PUSH1 0x0 PUSH1 0x20 DUP3 ADD SWAP1 POP DUP2 DUP2 SUB PUSH1 0x0 DUP4 ADD MSTORE PUSH2 0x3BC6 DUP2 PUSH2 0x3B8A JUMP JUMPDEST SWAP1 POP SWAP2 SWAP1 POP JUMP JUMPDEST PUSH32 0x4552433732313A207472616E7366657220746F20746865207A65726F20616464 PUSH1 0x0 DUP3 ADD MSTORE PUSH32 0x7265737300000000000000000000000000000000000000000000000000000000 PUSH1 0x20 DUP3 ADD MSTORE POP JUMP JUMPDEST PUSH1 0x0 PUSH2 0x3C29 PUSH1 0x24 DUP4 PUSH2 0x290A JUMP JUMPDEST SWAP2 POP PUSH2 0x3C34 DUP3 PUSH2 0x3BCD JUMP JUMPDEST PUSH1 0x40 DUP3 ADD SWAP1 POP SWAP2 SWAP1 POP JUMP JUMPDEST PUSH1 0x0 PUSH1 0x20 DUP3 ADD SWAP1 POP DUP2 DUP2 SUB PUSH1 0x0 DUP4 ADD MSTORE PUSH2 0x3C58 DUP2 PUSH2 0x3C1C JUMP JUMPDEST SWAP1 POP SWAP2 SWAP1 POP JUMP JUMPDEST PUSH32 0x4552433732313A20617070726F766520746F2063616C6C657200000000000000 PUSH1 0x0 DUP3 ADD MSTORE POP JUMP JUMPDEST PUSH1 0x0 PUSH2 0x3C95 PUSH1 0x19 DUP4 PUSH2 0x290A JUMP JUMPDEST SWAP2 POP PUSH2 0x3CA0 DUP3 PUSH2 0x3C5F JUMP JUMPDEST PUSH1 0x20 DUP3 ADD SWAP1 POP SWAP2 SWAP1 POP JUMP JUMPDEST PUSH1 0x0 PUSH1 0x20 DUP3 ADD SWAP1 POP DUP2 DUP2 SUB PUSH1 0x0 DUP4 ADD MSTORE PUSH2 0x3CC4 DUP2 PUSH2 0x3C88 JUMP JUMPDEST SWAP1 POP SWAP2 SWAP1 POP JUMP JUMPDEST PUSH32 0x4552433732313A207472616E7366657220746F206E6F6E204552433732315265 PUSH1 0x0 DUP3 ADD MSTORE PUSH32 0x63656976657220696D706C656D656E7465720000000000000000000000000000 PUSH1 0x20 DUP3 ADD MSTORE POP JUMP JUMPDEST PUSH1 0x0 PUSH2 0x3D27 PUSH1 0x32 DUP4 PUSH2 0x290A JUMP JUMPDEST SWAP2 POP PUSH2 0x3D32 DUP3 PUSH2 0x3CCB JUMP JUMPDEST PUSH1 0x40 DUP3 ADD SWAP1 POP SWAP2 SWAP1 POP JUMP JUMPDEST PUSH1 0x0 PUSH1 0x20 DUP3 ADD SWAP1 POP DUP2 DUP2 SUB PUSH1 0x0 DUP4 ADD MSTORE PUSH2 0x3D56 DUP2 PUSH2 0x3D1A JUMP JUMPDEST SWAP1 POP SWAP2 SWAP1 POP JUMP JUMPDEST PUSH1 0x0 DUP2 SWAP1 POP SWAP3 SWAP2 POP POP JUMP JUMPDEST PUSH1 0x0 PUSH2 0x3D73 DUP3 PUSH2 0x28FF JUMP JUMPDEST PUSH2 0x3D7D DUP2 DUP6 PUSH2 0x3D5D JUMP JUMPDEST SWAP4 POP PUSH2 0x3D8D DUP2 DUP6 PUSH1 0x20 DUP7 ADD PUSH2 0x291B JUMP JUMPDEST DUP1 DUP5 ADD SWAP2 POP POP SWAP3 SWAP2 POP POP JUMP JUMPDEST PUSH1 0x0 PUSH2 0x3DA5 DUP3 DUP6 PUSH2 0x3D68 JUMP JUMPDEST SWAP2 POP PUSH2 0x3DB1 DUP3 DUP5 PUSH2 0x3D68 JUMP JUMPDEST SWAP2 POP DUP2 SWAP1 POP SWAP4 SWAP3 POP POP POP JUMP JUMPDEST PUSH1 0x0 DUP2 MLOAD SWAP1 POP SWAP2 SWAP1 POP JUMP JUMPDEST PUSH1 0x0 DUP3 DUP3 MSTORE PUSH1 0x20 DUP3 ADD SWAP1 POP SWAP3 SWAP2 POP POP JUMP JUMPDEST PUSH1 0x0 PUSH2 0x3DE4 DUP3 PUSH2 0x3DBD JUMP JUMPDEST PUSH2 0x3DEE DUP2 DUP6 PUSH2 0x3DC8 JUMP JUMPDEST SWAP4 POP PUSH2 0x3DFE DUP2 DUP6 PUSH1 0x20 DUP7 ADD PUSH2 0x291B JUMP JUMPDEST PUSH2 0x3E07 DUP2 PUSH2 0x25E7 JUMP JUMPDEST DUP5 ADD SWAP2 POP POP SWAP3 SWAP2 POP POP JUMP JUMPDEST PUSH1 0x0 PUSH1 0x80 DUP3 ADD SWAP1 POP PUSH2 0x3E27 PUSH1 0x0 DUP4 ADD DUP8 PUSH2 0x29CD JUMP JUMPDEST PUSH2 0x3E34 PUSH1 0x20 DUP4 ADD DUP7 PUSH2 0x29CD JUMP JUMPDEST PUSH2 0x3E41 PUSH1 0x40 DUP4 ADD DUP6 PUSH2 0x2A37 JUMP JUMPDEST DUP2 DUP2 SUB PUSH1 0x60 DUP4 ADD MSTORE PUSH2 0x3E53 DUP2 DUP5 PUSH2 0x3DD9 JUMP JUMPDEST SWAP1 POP SWAP6 SWAP5 POP POP POP POP POP JUMP JUMPDEST PUSH1 0x0 DUP2 MLOAD SWAP1 POP PUSH2 0x3E6D DUP2 PUSH2 0x28A6 JUMP JUMPDEST SWAP3 SWAP2 POP POP JUMP JUMPDEST PUSH1 0x0 PUSH1 0x20 DUP3 DUP5 SUB SLT ISZERO PUSH2 0x3E89 JUMPI PUSH2 0x3E88 PUSH2 0x2515 JUMP JUMPDEST JUMPDEST PUSH1 0x0 PUSH2 0x3E97 DUP5 DUP3 DUP6 ADD PUSH2 0x3E5E JUMP JUMPDEST SWAP2 POP POP SWAP3 SWAP2 POP POP JUMP JUMPDEST PUSH32 0x4552433732313A206D696E7420746F20746865207A65726F2061646472657373 PUSH1 0x0 DUP3 ADD MSTORE POP JUMP JUMPDEST PUSH1 0x0 PUSH2 0x3ED6 PUSH1 0x20 DUP4 PUSH2 0x290A JUMP JUMPDEST SWAP2 POP PUSH2 0x3EE1 DUP3 PUSH2 0x3EA0 JUMP JUMPDEST PUSH1 0x20 DUP3 ADD SWAP1 POP SWAP2 SWAP1 POP JUMP JUMPDEST PUSH1 0x0 PUSH1 0x20 DUP3 ADD SWAP1 POP DUP2 DUP2 SUB PUSH1 0x0 DUP4 ADD MSTORE PUSH2 0x3F05 DUP2 PUSH2 0x3EC9 JUMP JUMPDEST SWAP1 POP SWAP2 SWAP1 POP JUMP JUMPDEST PUSH32 0x4552433732313A20746F6B656E20616C7265616479206D696E74656400000000 PUSH1 0x0 DUP3 ADD MSTORE POP JUMP JUMPDEST PUSH1 0x0 PUSH2 0x3F42 PUSH1 0x1C DUP4 PUSH2 0x290A JUMP JUMPDEST SWAP2 POP PUSH2 0x3F4D DUP3 PUSH2 0x3F0C JUMP JUMPDEST PUSH1 0x20 DUP3 ADD SWAP1 POP SWAP2 SWAP1 POP JUMP JUMPDEST PUSH1 0x0 PUSH1 0x20 DUP3 ADD SWAP1 POP DUP2 DUP2 SUB PUSH1 0x0 DUP4 ADD MSTORE PUSH2 0x3F71 DUP2 PUSH2 0x3F35 JUMP JUMPDEST SWAP1 POP SWAP2 SWAP1 POP JUMP JUMPDEST PUSH32 0x4E487B7100000000000000000000000000000000000000000000000000000000 PUSH1 0x0 MSTORE PUSH1 0x12 PUSH1 0x4 MSTORE PUSH1 0x24 PUSH1 0x0 REVERT INVALID LOG2 PUSH5 0x6970667358 0x22 SLT KECCAK256 0x1E 0xCE DUP11 0xBD SDIV SIGNEXTEND MULMOD COINBASE SWAP12 TIMESTAMP MSTORE 0xE0 0x5E REVERT 0x1F 0x1E LOG4 SWAP13 0xD9 EQ CHAINID 0xE4 JUMPI 0xBE 0x5E PUSH2 0x139B 0xA6 0xDD REVERT MOD PUSH5 0x736F6C6343 STOP ADDMOD SLT STOP CALLER "},"methodIdentifiers":{"approve(address,uint256)":"095ea7b3","balanceOf(address)":"70a08231","buyNFT(uint256)":"51ed8288","createDataToken(string,string,uint256,uint256)":"b0c5a7e5","getApproved(uint256)":"081812fc","getDTaddress()":"601cc24b","getNFTowner()":"5245f3bd","getNFTprice()":"1ff95da9","initialize(address,string,string,address,string,uint256)":"01eaaea2","isApprovedForAll(address,address)":"e985e9c5","name()":"06fdde03","ownerOf(uint256)":"6352211e","safeTransferFrom(address,address,uint256)":"42842e0e","safeTransferFrom(address,address,uint256,bytes)":"b88d4fde","setApprovalForAll(address,bool)":"a22cb465","setPrice(uint256)":"91b7f5ed","supportsInterface(bytes4)":"01ffc9a7","symbol()":"95d89b41","tokenURI(uint256)":"c87b56dd","transferFrom(address,address,uint256)":"23b872dd"}}}}}