{
  "_format": "hh-sol-artifact-1",
  "contractName": "ERC721Factory",
  "sourceName": "contracts/ERC721Factory.sol",
  "abi": [
    {
      "inputs": [
        {
          "internalType": "address",
          "name": "_baseAddress",
          "type": "address"
        }
      ],
      "stateMutability": "nonpayable",
      "type": "constructor"
    },
    {
      "anonymous": false,
      "inputs": [
        {
          "indexed": true,
          "internalType": "address",
          "name": "_baseAddress",
          "type": "address"
        },
        {
          "indexed": false,
          "internalType": "bool",
          "name": "_isActive",
          "type": "bool"
        }
      ],
      "name": "Base721Added",
      "type": "event"
    },
    {
      "anonymous": false,
      "inputs": [
        {
          "indexed": false,
          "internalType": "address",
          "name": "instance",
          "type": "address"
        }
      ],
      "name": "InstanceDeployed",
      "type": "event"
    },
    {
      "anonymous": false,
      "inputs": [
        {
          "indexed": false,
          "internalType": "address",
          "name": "newTokenAddress",
          "type": "address"
        },
        {
          "indexed": true,
          "internalType": "address",
          "name": "templateAddress",
          "type": "address"
        },
        {
          "indexed": false,
          "internalType": "string",
          "name": "tokenName",
          "type": "string"
        },
        {
          "indexed": true,
          "internalType": "address",
          "name": "admin",
          "type": "address"
        },
        {
          "indexed": false,
          "internalType": "string",
          "name": "symbol",
          "type": "string"
        },
        {
          "indexed": false,
          "internalType": "string",
          "name": "tokenURI",
          "type": "string"
        },
        {
          "indexed": true,
          "internalType": "address",
          "name": "creator",
          "type": "address"
        }
      ],
      "name": "NFTCreated",
      "type": "event"
    },
    {
      "anonymous": false,
      "inputs": [
        {
          "indexed": true,
          "internalType": "address",
          "name": "previousOwner",
          "type": "address"
        },
        {
          "indexed": true,
          "internalType": "address",
          "name": "newOwner",
          "type": "address"
        }
      ],
      "name": "OwnershipTransferred",
      "type": "event"
    },
    {
      "inputs": [
        {
          "internalType": "address",
          "name": "_baseAddress",
          "type": "address"
        }
      ],
      "name": "addERC721Basetemplate",
      "outputs": [],
      "stateMutability": "nonpayable",
      "type": "function"
    },
    {
      "inputs": [
        {
          "internalType": "address",
          "name": "_logic",
          "type": "address"
        }
      ],
      "name": "deploy",
      "outputs": [
        {
          "internalType": "address",
          "name": "instance",
          "type": "address"
        }
      ],
      "stateMutability": "nonpayable",
      "type": "function"
    },
    {
      "inputs": [
        {
          "internalType": "string",
          "name": "name",
          "type": "string"
        },
        {
          "internalType": "string",
          "name": "symbol",
          "type": "string"
        },
        {
          "internalType": "string",
          "name": "tokenURI",
          "type": "string"
        },
        {
          "internalType": "address",
          "name": "owner",
          "type": "address"
        }
      ],
      "name": "deployERC721Contract",
      "outputs": [
        {
          "internalType": "address",
          "name": "erc721Instance",
          "type": "address"
        }
      ],
      "stateMutability": "nonpayable",
      "type": "function"
    },
    {
      "inputs": [],
      "name": "getBaseContractAddress",
      "outputs": [
        {
          "internalType": "address",
          "name": "",
          "type": "address"
        }
      ],
      "stateMutability": "view",
      "type": "function"
    },
    {
      "inputs": [],
      "name": "getNFTCreatedAddress",
      "outputs": [
        {
          "internalType": "address[]",
          "name": "",
          "type": "address[]"
        }
      ],
      "stateMutability": "view",
      "type": "function"
    },
    {
      "inputs": [],
      "name": "getNFTCreatedCount",
      "outputs": [
        {
          "internalType": "uint256",
          "name": "",
          "type": "uint256"
        }
      ],
      "stateMutability": "view",
      "type": "function"
    },
    {
      "inputs": [],
      "name": "owner",
      "outputs": [
        {
          "internalType": "address",
          "name": "",
          "type": "address"
        }
      ],
      "stateMutability": "view",
      "type": "function"
    },
    {
      "inputs": [],
      "name": "renounceOwnership",
      "outputs": [],
      "stateMutability": "nonpayable",
      "type": "function"
    },
    {
      "inputs": [
        {
          "internalType": "address",
          "name": "newOwner",
          "type": "address"
        }
      ],
      "name": "transferOwnership",
      "outputs": [],
      "stateMutability": "nonpayable",
      "type": "function"
    }
  ],
  "bytecode": "0x60806040523480156200001157600080fd5b5060405162001e2738038062001e278339818101604052810190620000379190620004e5565b620000576200004b620000e960201b60201c565b620000f160201b60201c565b600073ffffffffffffffffffffffffffffffffffffffff168173ffffffffffffffffffffffffffffffffffffffff1603620000c9576040517f08c379a0000000000000000000000000000000000000000000000000000000008152600401620000c0906200059e565b60405180910390fd5b6000600181905550620000e281620001b560201b60201c565b506200079c565b600033905090565b60008060009054906101000a900473ffffffffffffffffffffffffffffffffffffffff169050816000806101000a81548173ffffffffffffffffffffffffffffffffffffffff021916908373ffffffffffffffffffffffffffffffffffffffff1602179055508173ffffffffffffffffffffffffffffffffffffffff168173ffffffffffffffffffffffffffffffffffffffff167f8be0079c531659141344cd1fd0a4f28419497f9722a3daafe3b4186f6b6457e060405160405180910390a35050565b620001c5620003ae60201b60201c565b600073ffffffffffffffffffffffffffffffffffffffff168173ffffffffffffffffffffffffffffffffffffffff160362000237576040517f08c379a00000000000000000000000000000000000000000000000000000000081526004016200022e9062000636565b60405180910390fd5b62000248816200043f60201b60201c565b6200028a576040517f08c379a00000000000000000000000000000000000000000000000000000000081526004016200028190620006ce565b60405180910390fd5b60405180604001604052808273ffffffffffffffffffffffffffffffffffffffff16815260200160011515815250600360008201518160000160006101000a81548173ffffffffffffffffffffffffffffffffffffffff021916908373ffffffffffffffffffffffffffffffffffffffff16021790555060208201518160000160146101000a81548160ff021916908315150217905550905050600360000160009054906101000a900473ffffffffffffffffffffffffffffffffffffffff1673ffffffffffffffffffffffffffffffffffffffff167f613fb6702f05dcf998e225eaea1cdff4f649bce43a6b0907bfa454c0e1977df9600360000160149054906101000a900460ff16604051620003a391906200070d565b60405180910390a250565b620003be620000e960201b60201c565b73ffffffffffffffffffffffffffffffffffffffff16620003e46200045260201b60201c565b73ffffffffffffffffffffffffffffffffffffffff16146200043d576040517f08c379a000000000000000000000000000000000000000000000000000000000815260040162000434906200077a565b60405180910390fd5b565b600080823b905060008111915050919050565b60008060009054906101000a900473ffffffffffffffffffffffffffffffffffffffff16905090565b600080fd5b600073ffffffffffffffffffffffffffffffffffffffff82169050919050565b6000620004ad8262000480565b9050919050565b620004bf81620004a0565b8114620004cb57600080fd5b50565b600081519050620004df81620004b4565b92915050565b600060208284031215620004fe57620004fd6200047b565b5b60006200050e84828501620004ce565b91505092915050565b600082825260208201905092915050565b7f496e76616c6964204552433732314261736520636f6e7472616374206164647260008201527f6573730000000000000000000000000000000000000000000000000000000000602082015250565b60006200058660238362000517565b9150620005938262000528565b604082019050919050565b60006020820190508181036000830152620005b98162000577565b9050919050565b7f41646472657373283029204e4f5420616c6c6f77656420666f7220626173652060008201527f4e4654636f6e7472616374000000000000000000000000000000000000000000602082015250565b60006200061e602b8362000517565b91506200062b82620005c0565b604082019050919050565b6000602082019050818103600083015262000651816200060f565b9050919050565b7f50726f76696465642061646472657373206973204e4f54206120636f6e74726160008201527f6374000000000000000000000000000000000000000000000000000000000000602082015250565b6000620006b660228362000517565b9150620006c38262000658565b604082019050919050565b60006020820190508181036000830152620006e981620006a7565b9050919050565b60008115159050919050565b6200070781620006f0565b82525050565b6000602082019050620007246000830184620006fc565b92915050565b7f4f776e61626c653a2063616c6c6572206973206e6f7420746865206f776e6572600082015250565b60006200076260208362000517565b91506200076f826200072a565b602082019050919050565b60006020820190508181036000830152620007958162000753565b9050919050565b61167b80620007ac6000396000f3fe608060405234801561001057600080fd5b50600436106100935760003560e01c8063715018a611610066578063715018a6146101345780638da5cb5b1461013e578063ac3210cd1461015c578063e58ff30214610178578063f2fde38b1461019657610093565b80633eb73972146100985780634c96a389146100b657806356f46912146100e65780635993f5fa14610104575b600080fd5b6100a06101b2565b6040516100ad9190610bfb565b60405180910390f35b6100d060048036038101906100cb9190610c5d565b610240565b6040516100dd9190610c99565b60405180910390f35b6100ee6102e1565b6040516100fb9190610ccd565b60405180910390f35b61011e60048036038101906101199190610e2e565b6102eb565b60405161012b9190610c99565b60405180910390f35b61013c6106e0565b005b6101466106f4565b6040516101539190610c99565b60405180910390f35b61017660048036038101906101719190610c5d565b61071d565b005b6101806108fe565b60405161018d9190610c99565b60405180910390f35b6101b060048036038101906101ab9190610c5d565b61092b565b005b6060600280548060200260200160405190810160405280929190818152602001828054801561023657602002820191906000526020600020905b8160009054906101000a900473ffffffffffffffffffffffffffffffffffffffff1673ffffffffffffffffffffffffffffffffffffffff16815260200190600101908083116101ec575b5050505050905090565b6000808260601b90506040517f3d602d80600a3d3981f3363d3d373d3d3d363d7300000000000000000000000081528160148201527f5af43d82803e903d91602b57fd5bf3000000000000000000000000000000000060288201526037816000f09250507f117c72e6c25f0a072e36e148df71468ce2f3dbe7defec5b2c257a6e3eb65278c826040516102d39190610c99565b60405180910390a150919050565b6000600154905090565b60006102f56109ae565b600073ffffffffffffffffffffffffffffffffffffffff16600360000160009054906101000a900473ffffffffffffffffffffffffffffffffffffffff1673ffffffffffffffffffffffffffffffffffffffff1603610389576040517f08c379a000000000000000000000000000000000000000000000000000000000815260040161038090610f6c565b60405180910390fd5b600360000160149054906101000a900460ff166103db576040517f08c379a00000000000000000000000000000000000000000000000000000000081526004016103d290610ffe565b60405180910390fd5b600073ffffffffffffffffffffffffffffffffffffffff168273ffffffffffffffffffffffffffffffffffffffff160361044a576040517f08c379a00000000000000000000000000000000000000000000000000000000081526004016104419061106a565b60405180910390fd5b610478600360000160009054906101000a900473ffffffffffffffffffffffffffffffffffffffff16610240565b9050600073ffffffffffffffffffffffffffffffffffffffff168173ffffffffffffffffffffffffffffffffffffffff16036104e9576040517f08c379a00000000000000000000000000000000000000000000000000000000081526004016104e0906110fc565b60405180910390fd5b6002819080600181540180825580915050600190039060005260206000200160009091909190916101000a81548173ffffffffffffffffffffffffffffffffffffffff021916908373ffffffffffffffffffffffffffffffffffffffff160217905550600180600082825461055e919061114b565b9250508190555060008190508073ffffffffffffffffffffffffffffffffffffffff166301eaaea2848888308960016040518763ffffffff1660e01b81526004016105ae96959493929190611232565b6020604051808303816000875af11580156105cd573d6000803e3d6000fd5b505050506040513d601f19601f820116820180604052508101906105f191906112e0565b610630576040517f08c379a00000000000000000000000000000000000000000000000000000000081526004016106279061137f565b60405180910390fd5b3373ffffffffffffffffffffffffffffffffffffffff168373ffffffffffffffffffffffffffffffffffffffff16600360000160009054906101000a900473ffffffffffffffffffffffffffffffffffffffff1673ffffffffffffffffffffffffffffffffffffffff167f3b718a0cf6295ffb101f45e745e9f84c10316244065cd278a0316718b0206724858a8a8a6040516106cf949392919061139f565b60405180910390a450949350505050565b6106e86109ae565b6106f26000610a2c565b565b60008060009054906101000a900473ffffffffffffffffffffffffffffffffffffffff16905090565b6107256109ae565b600073ffffffffffffffffffffffffffffffffffffffff168173ffffffffffffffffffffffffffffffffffffffff1603610794576040517f08c379a000000000000000000000000000000000000000000000000000000000815260040161078b9061146b565b60405180910390fd5b61079d81610af0565b6107dc576040517f08c379a00000000000000000000000000000000000000000000000000000000081526004016107d3906114fd565b60405180910390fd5b60405180604001604052808273ffffffffffffffffffffffffffffffffffffffff16815260200160011515815250600360008201518160000160006101000a81548173ffffffffffffffffffffffffffffffffffffffff021916908373ffffffffffffffffffffffffffffffffffffffff16021790555060208201518160000160146101000a81548160ff021916908315150217905550905050600360000160009054906101000a900473ffffffffffffffffffffffffffffffffffffffff1673ffffffffffffffffffffffffffffffffffffffff167f613fb6702f05dcf998e225eaea1cdff4f649bce43a6b0907bfa454c0e1977df9600360000160149054906101000a900460ff166040516108f3919061152c565b60405180910390a250565b6000600360000160009054906101000a900473ffffffffffffffffffffffffffffffffffffffff16905090565b6109336109ae565b600073ffffffffffffffffffffffffffffffffffffffff168173ffffffffffffffffffffffffffffffffffffffff16036109a2576040517f08c379a0000000000000000000000000000000000000000000000000000000008152600401610999906115b9565b60405180910390fd5b6109ab81610a2c565b50565b6109b6610b03565b73ffffffffffffffffffffffffffffffffffffffff166109d46106f4565b73ffffffffffffffffffffffffffffffffffffffff1614610a2a576040517f08c379a0000000000000000000000000000000000000000000000000000000008152600401610a2190611625565b60405180910390fd5b565b60008060009054906101000a900473ffffffffffffffffffffffffffffffffffffffff169050816000806101000a81548173ffffffffffffffffffffffffffffffffffffffff021916908373ffffffffffffffffffffffffffffffffffffffff1602179055508173ffffffffffffffffffffffffffffffffffffffff168173ffffffffffffffffffffffffffffffffffffffff167f8be0079c531659141344cd1fd0a4f28419497f9722a3daafe3b4186f6b6457e060405160405180910390a35050565b600080823b905060008111915050919050565b600033905090565b600081519050919050565b600082825260208201905092915050565b6000819050602082019050919050565b600073ffffffffffffffffffffffffffffffffffffffff82169050919050565b6000610b6282610b37565b9050919050565b610b7281610b57565b82525050565b6000610b848383610b69565b60208301905092915050565b6000602082019050919050565b6000610ba882610b0b565b610bb28185610b16565b9350610bbd83610b27565b8060005b83811015610bee578151610bd58882610b78565b9750610be083610b90565b925050600181019050610bc1565b5085935050505092915050565b60006020820190508181036000830152610c158184610b9d565b905092915050565b6000604051905090565b600080fd5b600080fd5b610c3a81610b57565b8114610c4557600080fd5b50565b600081359050610c5781610c31565b92915050565b600060208284031215610c7357610c72610c27565b5b6000610c8184828501610c48565b91505092915050565b610c9381610b57565b82525050565b6000602082019050610cae6000830184610c8a565b92915050565b6000819050919050565b610cc781610cb4565b82525050565b6000602082019050610ce26000830184610cbe565b92915050565b600080fd5b600080fd5b6000601f19601f8301169050919050565b7f4e487b7100000000000000000000000000000000000000000000000000000000600052604160045260246000fd5b610d3b82610cf2565b810181811067ffffffffffffffff82111715610d5a57610d59610d03565b5b80604052505050565b6000610d6d610c1d565b9050610d798282610d32565b919050565b600067ffffffffffffffff821115610d9957610d98610d03565b5b610da282610cf2565b9050602081019050919050565b82818337600083830152505050565b6000610dd1610dcc84610d7e565b610d63565b905082815260208101848484011115610ded57610dec610ced565b5b610df8848285610daf565b509392505050565b600082601f830112610e1557610e14610ce8565b5b8135610e25848260208601610dbe565b91505092915050565b60008060008060808587031215610e4857610e47610c27565b5b600085013567ffffffffffffffff811115610e6657610e65610c2c565b5b610e7287828801610e00565b945050602085013567ffffffffffffffff811115610e9357610e92610c2c565b5b610e9f87828801610e00565b935050604085013567ffffffffffffffff811115610ec057610ebf610c2c565b5b610ecc87828801610e00565b9250506060610edd87828801610c48565b91505092959194509250565b600082825260208201905092915050565b7f4465706c6f794552373231436f6e74726163743a20696e76616c69642062617360008201527f6520616464726573730000000000000000000000000000000000000000000000602082015250565b6000610f56602983610ee9565b9150610f6182610efa565b604082019050919050565b60006020820190508181036000830152610f8581610f49565b9050919050565b7f4465706c6f79455243373231436f6e74726163743a204261736520636f6e747260008201527f616374206e6f7420616374697665000000000000000000000000000000000000602082015250565b6000610fe8602e83610ee9565b9150610ff382610f8c565b604082019050919050565b6000602082019050818103600083015261101781610fdb565b9050919050565b7f616464726573732830292063616e6e6f7420626520616e206f776e6572000000600082015250565b6000611054601d83610ee9565b915061105f8261101e565b602082019050919050565b6000602082019050818103600083015261108381611047565b9050919050565b7f6465706c6f79455243373231436f6e74726163743a204661696c656420746f2060008201527f6465706c6f79206e65772045524337323120636f6e7472616374000000000000602082015250565b60006110e6603a83610ee9565b91506110f18261108a565b604082019050919050565b60006020820190508181036000830152611115816110d9565b9050919050565b7f4e487b7100000000000000000000000000000000000000000000000000000000600052601160045260246000fd5b600061115682610cb4565b915061116183610cb4565b92508282019050808211156111795761117861111c565b5b92915050565b600081519050919050565b60005b838110156111a857808201518184015260208101905061118d565b60008484015250505050565b60006111bf8261117f565b6111c98185610ee9565b93506111d981856020860161118a565b6111e281610cf2565b840191505092915050565b6000819050919050565b6000819050919050565b600061121c611217611212846111ed565b6111f7565b610cb4565b9050919050565b61122c81611201565b82525050565b600060c0820190506112476000830189610c8a565b818103602083015261125981886111b4565b9050818103604083015261126d81876111b4565b905061127c6060830186610c8a565b818103608083015261128e81856111b4565b905061129d60a0830184611223565b979650505050505050565b60008115159050919050565b6112bd816112a8565b81146112c857600080fd5b50565b6000815190506112da816112b4565b92915050565b6000602082840312156112f6576112f5610c27565b5b6000611304848285016112cb565b91505092915050565b7f556e61626c6520746f20696e697469616c697a6520657263373231204e46542060008201527f696e7374616e6365000000000000000000000000000000000000000000000000602082015250565b6000611369602883610ee9565b91506113748261130d565b604082019050919050565b600060208201905081810360008301526113988161135c565b9050919050565b60006080820190506113b46000830187610c8a565b81810360208301526113c681866111b4565b905081810360408301526113da81856111b4565b905081810360608301526113ee81846111b4565b905095945050505050565b7f41646472657373283029204e4f5420616c6c6f77656420666f7220626173652060008201527f4e4654636f6e7472616374000000000000000000000000000000000000000000602082015250565b6000611455602b83610ee9565b9150611460826113f9565b604082019050919050565b6000602082019050818103600083015261148481611448565b9050919050565b7f50726f76696465642061646472657373206973204e4f54206120636f6e74726160008201527f6374000000000000000000000000000000000000000000000000000000000000602082015250565b60006114e7602283610ee9565b91506114f28261148b565b604082019050919050565b60006020820190508181036000830152611516816114da565b9050919050565b611526816112a8565b82525050565b6000602082019050611541600083018461151d565b92915050565b7f4f776e61626c653a206e6577206f776e657220697320746865207a65726f206160008201527f6464726573730000000000000000000000000000000000000000000000000000602082015250565b60006115a3602683610ee9565b91506115ae82611547565b604082019050919050565b600060208201905081810360008301526115d281611596565b9050919050565b7f4f776e61626c653a2063616c6c6572206973206e6f7420746865206f776e6572600082015250565b600061160f602083610ee9565b915061161a826115d9565b602082019050919050565b6000602082019050818103600083015261163e81611602565b905091905056fea2646970667358221220cba4e20f2a1f9c9dccefd738a9ca11df9f2d605f5e3f2317d8ca1bece40b307564736f6c63430008120033",
  "linkReferences": {},
  "deployedLinkReferences": {}
}