{
  "_format": "hh-sol-artifact-1",
  "contractName": "ERC721Factory",
  "sourceName": "contracts/ERC721Factory.sol",
  "abi": [
    {
      "inputs": [
        {
          "internalType": "address",
          "name": "_baseAddress",
          "type": "address"
        }
      ],
      "stateMutability": "nonpayable",
      "type": "constructor"
    },
    {
      "anonymous": false,
      "inputs": [
        {
          "indexed": true,
          "internalType": "address",
          "name": "_baseAddress",
          "type": "address"
        },
        {
          "indexed": false,
          "internalType": "bool",
          "name": "_isActive",
          "type": "bool"
        }
      ],
      "name": "Base721Added",
      "type": "event"
    },
    {
      "anonymous": false,
      "inputs": [
        {
          "indexed": false,
          "internalType": "address",
          "name": "instance",
          "type": "address"
        }
      ],
      "name": "InstanceDeployed",
      "type": "event"
    },
    {
      "anonymous": false,
      "inputs": [
        {
          "indexed": false,
          "internalType": "address",
          "name": "newTokenAddress",
          "type": "address"
        },
        {
          "indexed": true,
          "internalType": "address",
          "name": "templateAddress",
          "type": "address"
        },
        {
          "indexed": false,
          "internalType": "string",
          "name": "tokenName",
          "type": "string"
        },
        {
          "indexed": true,
          "internalType": "address",
          "name": "admin",
          "type": "address"
        },
        {
          "indexed": false,
          "internalType": "string",
          "name": "symbol",
          "type": "string"
        },
        {
          "indexed": false,
          "internalType": "string",
          "name": "tokenURI",
          "type": "string"
        },
        {
          "indexed": true,
          "internalType": "address",
          "name": "creator",
          "type": "address"
        }
      ],
      "name": "NFTCreated",
      "type": "event"
    },
    {
      "anonymous": false,
      "inputs": [
        {
          "indexed": true,
          "internalType": "address",
          "name": "previousOwner",
          "type": "address"
        },
        {
          "indexed": true,
          "internalType": "address",
          "name": "newOwner",
          "type": "address"
        }
      ],
      "name": "OwnershipTransferred",
      "type": "event"
    },
    {
      "inputs": [
        {
          "internalType": "address",
          "name": "_logic",
          "type": "address"
        }
      ],
      "name": "deploy",
      "outputs": [
        {
          "internalType": "address",
          "name": "instance",
          "type": "address"
        }
      ],
      "stateMutability": "nonpayable",
      "type": "function"
    },
    {
      "inputs": [
        {
          "internalType": "string",
          "name": "name",
          "type": "string"
        },
        {
          "internalType": "string",
          "name": "symbol",
          "type": "string"
        },
        {
          "internalType": "string",
          "name": "tokenURI",
          "type": "string"
        },
        {
          "internalType": "address",
          "name": "owner",
          "type": "address"
        }
      ],
      "name": "deployERC721Contract",
      "outputs": [
        {
          "internalType": "address",
          "name": "erc721Instance",
          "type": "address"
        }
      ],
      "stateMutability": "nonpayable",
      "type": "function"
    },
    {
      "inputs": [],
      "name": "getBaseContractAddress",
      "outputs": [
        {
          "internalType": "address",
          "name": "",
          "type": "address"
        }
      ],
      "stateMutability": "view",
      "type": "function"
    },
    {
      "inputs": [],
      "name": "getNFTCreatedAddress",
      "outputs": [
        {
          "internalType": "address[]",
          "name": "",
          "type": "address[]"
        }
      ],
      "stateMutability": "view",
      "type": "function"
    },
    {
      "inputs": [],
      "name": "getNFTCreatedCount",
      "outputs": [
        {
          "internalType": "uint256",
          "name": "",
          "type": "uint256"
        }
      ],
      "stateMutability": "view",
      "type": "function"
    },
    {
      "inputs": [],
      "name": "owner",
      "outputs": [
        {
          "internalType": "address",
          "name": "",
          "type": "address"
        }
      ],
      "stateMutability": "view",
      "type": "function"
    },
    {
      "inputs": [],
      "name": "renounceOwnership",
      "outputs": [],
      "stateMutability": "nonpayable",
      "type": "function"
    },
    {
      "inputs": [
        {
          "internalType": "address",
          "name": "newOwner",
          "type": "address"
        }
      ],
      "name": "transferOwnership",
      "outputs": [],
      "stateMutability": "nonpayable",
      "type": "function"
    }
  ],
  "bytecode": "0x60806040523480156200001157600080fd5b5060405162001ab538038062001ab58339818101604052810190620000379190620004e5565b620000576200004b620000e960201b60201c565b620000f160201b60201c565b600073ffffffffffffffffffffffffffffffffffffffff168173ffffffffffffffffffffffffffffffffffffffff1603620000c9576040517f08c379a0000000000000000000000000000000000000000000000000000000008152600401620000c0906200059e565b60405180910390fd5b6000600181905550620000e281620001b560201b60201c565b506200079c565b600033905090565b60008060009054906101000a900473ffffffffffffffffffffffffffffffffffffffff169050816000806101000a81548173ffffffffffffffffffffffffffffffffffffffff021916908373ffffffffffffffffffffffffffffffffffffffff1602179055508173ffffffffffffffffffffffffffffffffffffffff168173ffffffffffffffffffffffffffffffffffffffff167f8be0079c531659141344cd1fd0a4f28419497f9722a3daafe3b4186f6b6457e060405160405180910390a35050565b620001c5620003ae60201b60201c565b600073ffffffffffffffffffffffffffffffffffffffff168173ffffffffffffffffffffffffffffffffffffffff160362000237576040517f08c379a00000000000000000000000000000000000000000000000000000000081526004016200022e9062000636565b60405180910390fd5b62000248816200043f60201b60201c565b6200028a576040517f08c379a00000000000000000000000000000000000000000000000000000000081526004016200028190620006ce565b60405180910390fd5b60405180604001604052808273ffffffffffffffffffffffffffffffffffffffff16815260200160011515815250600360008201518160000160006101000a81548173ffffffffffffffffffffffffffffffffffffffff021916908373ffffffffffffffffffffffffffffffffffffffff16021790555060208201518160000160146101000a81548160ff021916908315150217905550905050600360000160009054906101000a900473ffffffffffffffffffffffffffffffffffffffff1673ffffffffffffffffffffffffffffffffffffffff167f613fb6702f05dcf998e225eaea1cdff4f649bce43a6b0907bfa454c0e1977df9600360000160149054906101000a900460ff16604051620003a391906200070d565b60405180910390a250565b620003be620000e960201b60201c565b73ffffffffffffffffffffffffffffffffffffffff16620003e46200045260201b60201c565b73ffffffffffffffffffffffffffffffffffffffff16146200043d576040517f08c379a000000000000000000000000000000000000000000000000000000000815260040162000434906200077a565b60405180910390fd5b565b600080823b905060008111915050919050565b60008060009054906101000a900473ffffffffffffffffffffffffffffffffffffffff16905090565b600080fd5b600073ffffffffffffffffffffffffffffffffffffffff82169050919050565b6000620004ad8262000480565b9050919050565b620004bf81620004a0565b8114620004cb57600080fd5b50565b600081519050620004df81620004b4565b92915050565b600060208284031215620004fe57620004fd6200047b565b5b60006200050e84828501620004ce565b91505092915050565b600082825260208201905092915050565b7f496e76616c6964204552433732314261736520636f6e7472616374206164647260008201527f6573730000000000000000000000000000000000000000000000000000000000602082015250565b60006200058660238362000517565b9150620005938262000528565b604082019050919050565b60006020820190508181036000830152620005b98162000577565b9050919050565b7f41646472657373283029204e4f5420616c6c6f77656420666f7220626173652060008201527f4e4654636f6e7472616374000000000000000000000000000000000000000000602082015250565b60006200061e602b8362000517565b91506200062b82620005c0565b604082019050919050565b6000602082019050818103600083015262000651816200060f565b9050919050565b7f50726f76696465642061646472657373206973204e4f54206120636f6e74726160008201527f6374000000000000000000000000000000000000000000000000000000000000602082015250565b6000620006b660228362000517565b9150620006c38262000658565b604082019050919050565b60006020820190508181036000830152620006e981620006a7565b9050919050565b60008115159050919050565b6200070781620006f0565b82525050565b6000602082019050620007246000830184620006fc565b92915050565b7f4f776e61626c653a2063616c6c6572206973206e6f7420746865206f776e6572600082015250565b60006200076260208362000517565b91506200076f826200072a565b602082019050919050565b60006020820190508181036000830152620007958162000753565b9050919050565b61130980620007ac6000396000f3fe608060405234801561001057600080fd5b50600436106100885760003560e01c8063715018a61161005b578063715018a6146101295780638da5cb5b14610133578063e58ff30214610151578063f2fde38b1461016f57610088565b80633eb739721461008d5780634c96a389146100ab57806356f46912146100db5780635993f5fa146100f9575b600080fd5b61009561018b565b6040516100a291906109d7565b60405180910390f35b6100c560048036038101906100c09190610a39565b610219565b6040516100d29190610a75565b60405180910390f35b6100e36102ba565b6040516100f09190610aa9565b60405180910390f35b610113600480360381019061010e9190610c0a565b6102c4565b6040516101209190610a75565b60405180910390f35b6101316106b0565b005b61013b6106c4565b6040516101489190610a75565b60405180910390f35b6101596106ed565b6040516101669190610a75565b60405180910390f35b61018960048036038101906101849190610a39565b61071a565b005b6060600280548060200260200160405190810160405280929190818152602001828054801561020f57602002820191906000526020600020905b8160009054906101000a900473ffffffffffffffffffffffffffffffffffffffff1673ffffffffffffffffffffffffffffffffffffffff16815260200190600101908083116101c5575b5050505050905090565b6000808260601b90506040517f3d602d80600a3d3981f3363d3d373d3d3d363d7300000000000000000000000081528160148201527f5af43d82803e903d91602b57fd5bf3000000000000000000000000000000000060288201526037816000f09250507f117c72e6c25f0a072e36e148df71468ce2f3dbe7defec5b2c257a6e3eb65278c826040516102ac9190610a75565b60405180910390a150919050565b6000600154905090565b60008073ffffffffffffffffffffffffffffffffffffffff16600360000160009054906101000a900473ffffffffffffffffffffffffffffffffffffffff1673ffffffffffffffffffffffffffffffffffffffff1603610359576040517f08c379a000000000000000000000000000000000000000000000000000000000815260040161035090610d48565b60405180910390fd5b600360000160149054906101000a900460ff166103ab576040517f08c379a00000000000000000000000000000000000000000000000000000000081526004016103a290610dda565b60405180910390fd5b600073ffffffffffffffffffffffffffffffffffffffff168273ffffffffffffffffffffffffffffffffffffffff160361041a576040517f08c379a000000000000000000000000000000000000000000000000000000000815260040161041190610e46565b60405180910390fd5b610448600360000160009054906101000a900473ffffffffffffffffffffffffffffffffffffffff16610219565b9050600073ffffffffffffffffffffffffffffffffffffffff168173ffffffffffffffffffffffffffffffffffffffff16036104b9576040517f08c379a00000000000000000000000000000000000000000000000000000000081526004016104b090610ed8565b60405180910390fd5b6002819080600181540180825580915050600190039060005260206000200160009091909190916101000a81548173ffffffffffffffffffffffffffffffffffffffff021916908373ffffffffffffffffffffffffffffffffffffffff160217905550600180600082825461052e9190610f27565b9250508190555060008190508073ffffffffffffffffffffffffffffffffffffffff166301eaaea2848888308960016040518763ffffffff1660e01b815260040161057e9695949392919061100e565b6020604051808303816000875af115801561059d573d6000803e3d6000fd5b505050506040513d601f19601f820116820180604052508101906105c191906110bc565b610600576040517f08c379a00000000000000000000000000000000000000000000000000000000081526004016105f79061115b565b60405180910390fd5b3373ffffffffffffffffffffffffffffffffffffffff168373ffffffffffffffffffffffffffffffffffffffff16600360000160009054906101000a900473ffffffffffffffffffffffffffffffffffffffff1673ffffffffffffffffffffffffffffffffffffffff167f3b718a0cf6295ffb101f45e745e9f84c10316244065cd278a0316718b0206724858a8a8a60405161069f949392919061117b565b60405180910390a450949350505050565b6106b861079d565b6106c2600061081b565b565b60008060009054906101000a900473ffffffffffffffffffffffffffffffffffffffff16905090565b6000600360000160009054906101000a900473ffffffffffffffffffffffffffffffffffffffff16905090565b61072261079d565b600073ffffffffffffffffffffffffffffffffffffffff168173ffffffffffffffffffffffffffffffffffffffff1603610791576040517f08c379a000000000000000000000000000000000000000000000000000000000815260040161078890611247565b60405180910390fd5b61079a8161081b565b50565b6107a56108df565b73ffffffffffffffffffffffffffffffffffffffff166107c36106c4565b73ffffffffffffffffffffffffffffffffffffffff1614610819576040517f08c379a0000000000000000000000000000000000000000000000000000000008152600401610810906112b3565b60405180910390fd5b565b60008060009054906101000a900473ffffffffffffffffffffffffffffffffffffffff169050816000806101000a81548173ffffffffffffffffffffffffffffffffffffffff021916908373ffffffffffffffffffffffffffffffffffffffff1602179055508173ffffffffffffffffffffffffffffffffffffffff168173ffffffffffffffffffffffffffffffffffffffff167f8be0079c531659141344cd1fd0a4f28419497f9722a3daafe3b4186f6b6457e060405160405180910390a35050565b600033905090565b600081519050919050565b600082825260208201905092915050565b6000819050602082019050919050565b600073ffffffffffffffffffffffffffffffffffffffff82169050919050565b600061093e82610913565b9050919050565b61094e81610933565b82525050565b60006109608383610945565b60208301905092915050565b6000602082019050919050565b6000610984826108e7565b61098e81856108f2565b935061099983610903565b8060005b838110156109ca5781516109b18882610954565b97506109bc8361096c565b92505060018101905061099d565b5085935050505092915050565b600060208201905081810360008301526109f18184610979565b905092915050565b6000604051905090565b600080fd5b600080fd5b610a1681610933565b8114610a2157600080fd5b50565b600081359050610a3381610a0d565b92915050565b600060208284031215610a4f57610a4e610a03565b5b6000610a5d84828501610a24565b91505092915050565b610a6f81610933565b82525050565b6000602082019050610a8a6000830184610a66565b92915050565b6000819050919050565b610aa381610a90565b82525050565b6000602082019050610abe6000830184610a9a565b92915050565b600080fd5b600080fd5b6000601f19601f8301169050919050565b7f4e487b7100000000000000000000000000000000000000000000000000000000600052604160045260246000fd5b610b1782610ace565b810181811067ffffffffffffffff82111715610b3657610b35610adf565b5b80604052505050565b6000610b496109f9565b9050610b558282610b0e565b919050565b600067ffffffffffffffff821115610b7557610b74610adf565b5b610b7e82610ace565b9050602081019050919050565b82818337600083830152505050565b6000610bad610ba884610b5a565b610b3f565b905082815260208101848484011115610bc957610bc8610ac9565b5b610bd4848285610b8b565b509392505050565b600082601f830112610bf157610bf0610ac4565b5b8135610c01848260208601610b9a565b91505092915050565b60008060008060808587031215610c2457610c23610a03565b5b600085013567ffffffffffffffff811115610c4257610c41610a08565b5b610c4e87828801610bdc565b945050602085013567ffffffffffffffff811115610c6f57610c6e610a08565b5b610c7b87828801610bdc565b935050604085013567ffffffffffffffff811115610c9c57610c9b610a08565b5b610ca887828801610bdc565b9250506060610cb987828801610a24565b91505092959194509250565b600082825260208201905092915050565b7f4465706c6f794552373231436f6e74726163743a20696e76616c69642062617360008201527f6520616464726573730000000000000000000000000000000000000000000000602082015250565b6000610d32602983610cc5565b9150610d3d82610cd6565b604082019050919050565b60006020820190508181036000830152610d6181610d25565b9050919050565b7f4465706c6f79455243373231436f6e74726163743a204261736520636f6e747260008201527f616374206e6f7420616374697665000000000000000000000000000000000000602082015250565b6000610dc4602e83610cc5565b9150610dcf82610d68565b604082019050919050565b60006020820190508181036000830152610df381610db7565b9050919050565b7f616464726573732830292063616e6e6f7420626520616e206f776e6572000000600082015250565b6000610e30601d83610cc5565b9150610e3b82610dfa565b602082019050919050565b60006020820190508181036000830152610e5f81610e23565b9050919050565b7f6465706c6f79455243373231436f6e74726163743a204661696c656420746f2060008201527f6465706c6f79206e65772045524337323120636f6e7472616374000000000000602082015250565b6000610ec2603a83610cc5565b9150610ecd82610e66565b604082019050919050565b60006020820190508181036000830152610ef181610eb5565b9050919050565b7f4e487b7100000000000000000000000000000000000000000000000000000000600052601160045260246000fd5b6000610f3282610a90565b9150610f3d83610a90565b9250828201905080821115610f5557610f54610ef8565b5b92915050565b600081519050919050565b60005b83811015610f84578082015181840152602081019050610f69565b60008484015250505050565b6000610f9b82610f5b565b610fa58185610cc5565b9350610fb5818560208601610f66565b610fbe81610ace565b840191505092915050565b6000819050919050565b6000819050919050565b6000610ff8610ff3610fee84610fc9565b610fd3565b610a90565b9050919050565b61100881610fdd565b82525050565b600060c0820190506110236000830189610a66565b81810360208301526110358188610f90565b905081810360408301526110498187610f90565b90506110586060830186610a66565b818103608083015261106a8185610f90565b905061107960a0830184610fff565b979650505050505050565b60008115159050919050565b61109981611084565b81146110a457600080fd5b50565b6000815190506110b681611090565b92915050565b6000602082840312156110d2576110d1610a03565b5b60006110e0848285016110a7565b91505092915050565b7f556e61626c6520746f20696e697469616c697a6520657263373231204e46542060008201527f696e7374616e6365000000000000000000000000000000000000000000000000602082015250565b6000611145602883610cc5565b9150611150826110e9565b604082019050919050565b6000602082019050818103600083015261117481611138565b9050919050565b60006080820190506111906000830187610a66565b81810360208301526111a28186610f90565b905081810360408301526111b68185610f90565b905081810360608301526111ca8184610f90565b905095945050505050565b7f4f776e61626c653a206e6577206f776e657220697320746865207a65726f206160008201527f6464726573730000000000000000000000000000000000000000000000000000602082015250565b6000611231602683610cc5565b915061123c826111d5565b604082019050919050565b6000602082019050818103600083015261126081611224565b9050919050565b7f4f776e61626c653a2063616c6c6572206973206e6f7420746865206f776e6572600082015250565b600061129d602083610cc5565b91506112a882611267565b602082019050919050565b600060208201905081810360008301526112cc81611290565b905091905056fea2646970667358221220920b05d4f7f602282a5df8b12a4cf448716231ff57c233669793065732ccf84864736f6c63430008120033",
  "linkReferences": {},
  "deployedLinkReferences": {}
}