{
  "_format": "hh-sol-artifact-1",
  "contractName": "ERC721Factory",
  "sourceName": "contracts/ERC721Factory.sol",
  "abi": [
    {
      "inputs": [
        {
          "internalType": "address",
          "name": "_base721Address",
          "type": "address"
        },
        {
          "internalType": "address",
          "name": "_base20Address",
          "type": "address"
        },
        {
          "internalType": "address",
          "name": "router_",
          "type": "address"
        }
      ],
      "stateMutability": "nonpayable",
      "type": "constructor"
    },
    {
      "anonymous": false,
      "inputs": [
        {
          "indexed": true,
          "internalType": "address",
          "name": "_baseAddress",
          "type": "address"
        },
        {
          "indexed": false,
          "internalType": "bool",
          "name": "_isActive",
          "type": "bool"
        }
      ],
      "name": "Base721Added",
      "type": "event"
    },
    {
      "anonymous": false,
      "inputs": [
        {
          "indexed": false,
          "internalType": "address",
          "name": "contractAddress",
          "type": "address"
        },
        {
          "indexed": false,
          "internalType": "address",
          "name": "contractOwner",
          "type": "address"
        },
        {
          "indexed": false,
          "internalType": "string",
          "name": "name",
          "type": "string"
        },
        {
          "indexed": false,
          "internalType": "string",
          "name": "symbol",
          "type": "string"
        }
      ],
      "name": "ERC20ContractDeployed",
      "type": "event"
    },
    {
      "anonymous": false,
      "inputs": [
        {
          "indexed": false,
          "internalType": "address",
          "name": "instance",
          "type": "address"
        }
      ],
      "name": "InstanceDeployed",
      "type": "event"
    },
    {
      "anonymous": false,
      "inputs": [
        {
          "indexed": false,
          "internalType": "address",
          "name": "newTokenAddress",
          "type": "address"
        },
        {
          "indexed": true,
          "internalType": "address",
          "name": "templateAddress",
          "type": "address"
        },
        {
          "indexed": false,
          "internalType": "string",
          "name": "tokenName",
          "type": "string"
        },
        {
          "indexed": true,
          "internalType": "address",
          "name": "admin",
          "type": "address"
        },
        {
          "indexed": false,
          "internalType": "string",
          "name": "symbol",
          "type": "string"
        },
        {
          "indexed": false,
          "internalType": "string",
          "name": "tokenURI",
          "type": "string"
        },
        {
          "indexed": true,
          "internalType": "address",
          "name": "creator",
          "type": "address"
        }
      ],
      "name": "NFTCreated",
      "type": "event"
    },
    {
      "anonymous": false,
      "inputs": [
        {
          "indexed": true,
          "internalType": "address",
          "name": "previousOwner",
          "type": "address"
        },
        {
          "indexed": true,
          "internalType": "address",
          "name": "newOwner",
          "type": "address"
        }
      ],
      "name": "OwnershipTransferred",
      "type": "event"
    },
    {
      "stateMutability": "payable",
      "type": "fallback"
    },
    {
      "inputs": [
        {
          "internalType": "address",
          "name": "",
          "type": "address"
        }
      ],
      "name": "createdERC20List",
      "outputs": [
        {
          "internalType": "address",
          "name": "",
          "type": "address"
        }
      ],
      "stateMutability": "view",
      "type": "function"
    },
    {
      "inputs": [
        {
          "internalType": "address",
          "name": "",
          "type": "address"
        }
      ],
      "name": "createdERC721List",
      "outputs": [
        {
          "internalType": "address",
          "name": "",
          "type": "address"
        }
      ],
      "stateMutability": "view",
      "type": "function"
    },
    {
      "inputs": [
        {
          "internalType": "address",
          "name": "_logic",
          "type": "address"
        }
      ],
      "name": "deploy",
      "outputs": [
        {
          "internalType": "address",
          "name": "instance",
          "type": "address"
        }
      ],
      "stateMutability": "nonpayable",
      "type": "function"
    },
    {
      "inputs": [
        {
          "internalType": "string",
          "name": "name_",
          "type": "string"
        },
        {
          "internalType": "string",
          "name": "symbol_",
          "type": "string"
        },
        {
          "internalType": "address",
          "name": "owner_",
          "type": "address"
        },
        {
          "internalType": "uint256",
          "name": "maxSupply_",
          "type": "uint256"
        }
      ],
      "name": "deployERC20Contract",
      "outputs": [
        {
          "internalType": "address",
          "name": "erc20Instance",
          "type": "address"
        }
      ],
      "stateMutability": "nonpayable",
      "type": "function"
    },
    {
      "inputs": [
        {
          "internalType": "string",
          "name": "name",
          "type": "string"
        },
        {
          "internalType": "string",
          "name": "symbol",
          "type": "string"
        },
        {
          "internalType": "string",
          "name": "tokenURI",
          "type": "string"
        },
        {
          "internalType": "address",
          "name": "owner",
          "type": "address"
        }
      ],
      "name": "deployERC721Contract",
      "outputs": [
        {
          "internalType": "address",
          "name": "erc721Instance",
          "type": "address"
        }
      ],
      "stateMutability": "nonpayable",
      "type": "function"
    },
    {
      "inputs": [
        {
          "internalType": "address",
          "name": "",
          "type": "address"
        }
      ],
      "name": "eRC20_to_owner",
      "outputs": [
        {
          "internalType": "address",
          "name": "",
          "type": "address"
        }
      ],
      "stateMutability": "view",
      "type": "function"
    },
    {
      "inputs": [
        {
          "internalType": "address",
          "name": "",
          "type": "address"
        }
      ],
      "name": "eRC721_to_owner",
      "outputs": [
        {
          "internalType": "address",
          "name": "",
          "type": "address"
        }
      ],
      "stateMutability": "view",
      "type": "function"
    },
    {
      "inputs": [
        {
          "internalType": "uint256",
          "name": "",
          "type": "uint256"
        }
      ],
      "name": "erc20addresses",
      "outputs": [
        {
          "internalType": "address",
          "name": "",
          "type": "address"
        }
      ],
      "stateMutability": "view",
      "type": "function"
    },
    {
      "inputs": [
        {
          "internalType": "uint256",
          "name": "",
          "type": "uint256"
        }
      ],
      "name": "erc721addresses",
      "outputs": [
        {
          "internalType": "address",
          "name": "",
          "type": "address"
        }
      ],
      "stateMutability": "view",
      "type": "function"
    },
    {
      "inputs": [],
      "name": "getAllNFTCreatedAddress",
      "outputs": [
        {
          "internalType": "address[]",
          "name": "",
          "type": "address[]"
        }
      ],
      "stateMutability": "view",
      "type": "function"
    },
    {
      "inputs": [],
      "name": "getBase20ContractAddress",
      "outputs": [
        {
          "internalType": "address",
          "name": "",
          "type": "address"
        }
      ],
      "stateMutability": "view",
      "type": "function"
    },
    {
      "inputs": [],
      "name": "getBase721ContractAddress",
      "outputs": [
        {
          "internalType": "address",
          "name": "",
          "type": "address"
        }
      ],
      "stateMutability": "view",
      "type": "function"
    },
    {
      "inputs": [
        {
          "internalType": "address",
          "name": "creator",
          "type": "address"
        }
      ],
      "name": "getNFTCreatedAddress",
      "outputs": [
        {
          "internalType": "address[]",
          "name": "ret",
          "type": "address[]"
        }
      ],
      "stateMutability": "view",
      "type": "function"
    },
    {
      "inputs": [],
      "name": "getNFTCreatedCount",
      "outputs": [
        {
          "internalType": "uint256",
          "name": "",
          "type": "uint256"
        }
      ],
      "stateMutability": "view",
      "type": "function"
    },
    {
      "inputs": [],
      "name": "owner",
      "outputs": [
        {
          "internalType": "address",
          "name": "",
          "type": "address"
        }
      ],
      "stateMutability": "view",
      "type": "function"
    },
    {
      "inputs": [],
      "name": "renounceOwnership",
      "outputs": [],
      "stateMutability": "nonpayable",
      "type": "function"
    },
    {
      "inputs": [
        {
          "internalType": "address",
          "name": "newOwner",
          "type": "address"
        }
      ],
      "name": "transferOwnership",
      "outputs": [],
      "stateMutability": "nonpayable",
      "type": "function"
    },
    {
      "stateMutability": "payable",
      "type": "receive"
    }
  ],
  "bytecode": "0x60806040523480156200001157600080fd5b5060405162002f7938038062002f79833981810160405281019062000037919062000827565b620000576200004b6200022160201b60201c565b6200022960201b60201c565b600073ffffffffffffffffffffffffffffffffffffffff168373ffffffffffffffffffffffffffffffffffffffff1603620000c9576040517f08c379a0000000000000000000000000000000000000000000000000000000008152600401620000c0906200090a565b60405180910390fd5b600073ffffffffffffffffffffffffffffffffffffffff168273ffffffffffffffffffffffffffffffffffffffff16036200013b576040517f08c379a000000000000000000000000000000000000000000000000000000000815260040162000132906200090a565b60405180910390fd5b600073ffffffffffffffffffffffffffffffffffffffff168173ffffffffffffffffffffffffffffffffffffffff1603620001ad576040517f08c379a0000000000000000000000000000000000000000000000000000000008152600401620001a4906200097c565b60405180910390fd5b6000600181905550620001c683620002ed60201b60201c565b620001d782620004e660201b60201c565b80600860006101000a81548173ffffffffffffffffffffffffffffffffffffffff021916908373ffffffffffffffffffffffffffffffffffffffff16021790555050505062000b7a565b600033905090565b60008060009054906101000a900473ffffffffffffffffffffffffffffffffffffffff169050816000806101000a81548173ffffffffffffffffffffffffffffffffffffffff021916908373ffffffffffffffffffffffffffffffffffffffff1602179055508173ffffffffffffffffffffffffffffffffffffffff168173ffffffffffffffffffffffffffffffffffffffff167f8be0079c531659141344cd1fd0a4f28419497f9722a3daafe3b4186f6b6457e060405160405180910390a35050565b620002fd620006df60201b60201c565b600073ffffffffffffffffffffffffffffffffffffffff168173ffffffffffffffffffffffffffffffffffffffff16036200036f576040517f08c379a0000000000000000000000000000000000000000000000000000000008152600401620003669062000a14565b60405180910390fd5b62000380816200077060201b60201c565b620003c2576040517f08c379a0000000000000000000000000000000000000000000000000000000008152600401620003b99062000aac565b60405180910390fd5b60405180604001604052808273ffffffffffffffffffffffffffffffffffffffff16815260200160011515815250600960008201518160000160006101000a81548173ffffffffffffffffffffffffffffffffffffffff021916908373ffffffffffffffffffffffffffffffffffffffff16021790555060208201518160000160146101000a81548160ff021916908315150217905550905050600960000160009054906101000a900473ffffffffffffffffffffffffffffffffffffffff1673ffffffffffffffffffffffffffffffffffffffff167f613fb6702f05dcf998e225eaea1cdff4f649bce43a6b0907bfa454c0e1977df9600960000160149054906101000a900460ff16604051620004db919062000aeb565b60405180910390a250565b620004f6620006df60201b60201c565b600073ffffffffffffffffffffffffffffffffffffffff168173ffffffffffffffffffffffffffffffffffffffff160362000568576040517f08c379a00000000000000000000000000000000000000000000000000000000081526004016200055f9062000a14565b60405180910390fd5b62000579816200077060201b60201c565b620005bb576040517f08c379a0000000000000000000000000000000000000000000000000000000008152600401620005b29062000aac565b60405180910390fd5b60405180604001604052808273ffffffffffffffffffffffffffffffffffffffff16815260200160011515815250600a60008201518160000160006101000a81548173ffffffffffffffffffffffffffffffffffffffff021916908373ffffffffffffffffffffffffffffffffffffffff16021790555060208201518160000160146101000a81548160ff021916908315150217905550905050600a60000160009054906101000a900473ffffffffffffffffffffffffffffffffffffffff1673ffffffffffffffffffffffffffffffffffffffff167f613fb6702f05dcf998e225eaea1cdff4f649bce43a6b0907bfa454c0e1977df9600a60000160149054906101000a900460ff16604051620006d4919062000aeb565b60405180910390a250565b620006ef6200022160201b60201c565b73ffffffffffffffffffffffffffffffffffffffff16620007156200079460201b60201c565b73ffffffffffffffffffffffffffffffffffffffff16146200076e576040517f08c379a0000000000000000000000000000000000000000000000000000000008152600401620007659062000b58565b60405180910390fd5b565b600062000782620006df60201b60201c565b6000823b905060008111915050919050565b60008060009054906101000a900473ffffffffffffffffffffffffffffffffffffffff16905090565b600080fd5b600073ffffffffffffffffffffffffffffffffffffffff82169050919050565b6000620007ef82620007c2565b9050919050565b6200080181620007e2565b81146200080d57600080fd5b50565b6000815190506200082181620007f6565b92915050565b600080600060608486031215620008435762000842620007bd565b5b6000620008538682870162000810565b9350506020620008668682870162000810565b9250506040620008798682870162000810565b9150509250925092565b600082825260208201905092915050565b7f496e76616c6964204552433732314261736520636f6e7472616374206164647260008201527f6573730000000000000000000000000000000000000000000000000000000000602082015250565b6000620008f260238362000883565b9150620008ff8262000894565b604082019050919050565b600060208201905081810360008301526200092581620008e3565b9050919050565b7f496e76616c696420726f7574657220636f6e7472616374206164647265737300600082015250565b600062000964601f8362000883565b915062000971826200092c565b602082019050919050565b60006020820190508181036000830152620009978162000955565b9050919050565b7f41646472657373283029204e4f5420616c6c6f77656420666f7220626173652060008201527f4e4654636f6e7472616374000000000000000000000000000000000000000000602082015250565b6000620009fc602b8362000883565b915062000a09826200099e565b604082019050919050565b6000602082019050818103600083015262000a2f81620009ed565b9050919050565b7f50726f76696465642061646472657373206973204e4f54206120636f6e74726160008201527f6374000000000000000000000000000000000000000000000000000000000000602082015250565b600062000a9460228362000883565b915062000aa18262000a36565b604082019050919050565b6000602082019050818103600083015262000ac78162000a85565b9050919050565b60008115159050919050565b62000ae58162000ace565b82525050565b600060208201905062000b02600083018462000ada565b92915050565b7f4f776e61626c653a2063616c6c6572206973206e6f7420746865206f776e6572600082015250565b600062000b4060208362000883565b915062000b4d8262000b08565b602082019050919050565b6000602082019050818103600083015262000b738162000b31565b9050919050565b6123ef8062000b8a6000396000f3fe6080604052600436106101025760003560e01c8063778ea46111610095578063b7bad47511610064578063b7bad47514610379578063dfe845d5146103b6578063eb32c429146103e1578063ed63b8981461041e578063f2fde38b1461045b57610109565b8063778ea461146102a957806380dfe2b7146102e65780638da5cb5b14610323578063ade805cf1461034e57610109565b806356f46912116100d157806356f46912146101ed5780635993f5fa14610218578063613543d214610255578063715018a61461029257610109565b806332f43b9e1461010b57806334cdb4cc146101485780633b4ac514146101855780634c96a389146101b057610109565b3661010957005b005b34801561011757600080fd5b50610132600480360381019061012d9190611584565b610484565b60405161013f91906115c0565b60405180910390f35b34801561015457600080fd5b5061016f600480360381019061016a9190611757565b6104b7565b60405161017c91906115c0565b60405180910390f35b34801561019157600080fd5b5061019a6109f1565b6040516101a791906118b4565b60405180910390f35b3480156101bc57600080fd5b506101d760048036038101906101d29190611584565b610a7f565b6040516101e491906115c0565b60405180910390f35b3480156101f957600080fd5b50610202610b20565b60405161020f91906118e5565b60405180910390f35b34801561022457600080fd5b5061023f600480360381019061023a9190611900565b610b2a565b60405161024c91906115c0565b60405180910390f35b34801561026157600080fd5b5061027c60048036038101906102779190611584565b611012565b60405161028991906118b4565b60405180910390f35b34801561029e57600080fd5b506102a7611197565b005b3480156102b557600080fd5b506102d060048036038101906102cb9190611584565b6111ab565b6040516102dd91906115c0565b60405180910390f35b3480156102f257600080fd5b5061030d600480360381019061030891906119bb565b6111de565b60405161031a91906115c0565b60405180910390f35b34801561032f57600080fd5b5061033861121d565b60405161034591906115c0565b60405180910390f35b34801561035a57600080fd5b50610363611246565b60405161037091906115c0565b60405180910390f35b34801561038557600080fd5b506103a0600480360381019061039b9190611584565b611273565b6040516103ad91906115c0565b60405180910390f35b3480156103c257600080fd5b506103cb6112a6565b6040516103d891906115c0565b60405180910390f35b3480156103ed57600080fd5b5061040860048036038101906104039190611584565b6112d3565b60405161041591906115c0565b60405180910390f35b34801561042a57600080fd5b50610445600480360381019061044091906119bb565b611306565b60405161045291906115c0565b60405180910390f35b34801561046757600080fd5b50610482600480360381019061047d9190611584565b611345565b005b60056020528060005260406000206000915054906101000a900473ffffffffffffffffffffffffffffffffffffffff1681565b60003373ffffffffffffffffffffffffffffffffffffffff16600260003373ffffffffffffffffffffffffffffffffffffffff1673ffffffffffffffffffffffffffffffffffffffff16815260200190815260200160002060009054906101000a900473ffffffffffffffffffffffffffffffffffffffff1673ffffffffffffffffffffffffffffffffffffffff1614610586576040517f08c379a000000000000000000000000000000000000000000000000000000000815260040161057d90611a91565b60405180910390fd5b600260003373ffffffffffffffffffffffffffffffffffffffff1673ffffffffffffffffffffffffffffffffffffffff16815260200190815260200160002060009054906101000a900473ffffffffffffffffffffffffffffffffffffffff1673ffffffffffffffffffffffffffffffffffffffff16635245f3bd6040518163ffffffff1660e01b8152600401602060405180830381865afa158015610630573d6000803e3d6000fd5b505050506040513d601f19601f820116820180604052508101906106549190611ac6565b73ffffffffffffffffffffffffffffffffffffffff168373ffffffffffffffffffffffffffffffffffffffff16146106c1576040517f08c379a00000000000000000000000000000000000000000000000000000000081526004016106b890611b65565b60405180910390fd5b6106ef600a60000160009054906101000a900473ffffffffffffffffffffffffffffffffffffffff16610a7f565b9050600073ffffffffffffffffffffffffffffffffffffffff168173ffffffffffffffffffffffffffffffffffffffff1603610760576040517f08c379a000000000000000000000000000000000000000000000000000000000815260040161075790611bf7565b60405180910390fd5b6007819080600181540180825580915050600190039060005260206000200160009091909190916101000a81548173ffffffffffffffffffffffffffffffffffffffff021916908373ffffffffffffffffffffffffffffffffffffffff16021790555080600560008373ffffffffffffffffffffffffffffffffffffffff1673ffffffffffffffffffffffffffffffffffffffff16815260200190815260200160002060006101000a81548173ffffffffffffffffffffffffffffffffffffffff021916908373ffffffffffffffffffffffffffffffffffffffff16021790555082600660008373ffffffffffffffffffffffffffffffffffffffff1673ffffffffffffffffffffffffffffffffffffffff16815260200190815260200160002060006101000a81548173ffffffffffffffffffffffffffffffffffffffff021916908373ffffffffffffffffffffffffffffffffffffffff16021790555060008190508073ffffffffffffffffffffffffffffffffffffffff1663edf3e29e87878733600860009054906101000a900473ffffffffffffffffffffffffffffffffffffffff16896040518763ffffffff1660e01b815260040161092996959493929190611c85565b6020604051808303816000875af1158015610948573d6000803e3d6000fd5b505050506040513d601f19601f8201168201806040525081019061096c9190611d2c565b6109ab576040517f08c379a00000000000000000000000000000000000000000000000000000000081526004016109a290611da5565b60405180910390fd5b7fd49738fe47a44aa2d22d13ae3619a4efba4dd917732549390d6fb0a85b71fcfd828588886040516109e09493929190611dc5565b60405180910390a150949350505050565b60606004805480602002602001604051908101604052809291908181526020018280548015610a7557602002820191906000526020600020905b8160009054906101000a900473ffffffffffffffffffffffffffffffffffffffff1673ffffffffffffffffffffffffffffffffffffffff1681526020019060010190808311610a2b575b5050505050905090565b6000808260601b90506040517f3d602d80600a3d3981f3363d3d373d3d3d363d7300000000000000000000000081528160148201527f5af43d82803e903d91602b57fd5bf3000000000000000000000000000000000060288201526037816000f09250507f117c72e6c25f0a072e36e148df71468ce2f3dbe7defec5b2c257a6e3eb65278c82604051610b1291906115c0565b60405180910390a150919050565b6000600154905090565b60008073ffffffffffffffffffffffffffffffffffffffff16600960000160009054906101000a900473ffffffffffffffffffffffffffffffffffffffff1673ffffffffffffffffffffffffffffffffffffffff1603610bbf576040517f08c379a0000000000000000000000000000000000000000000000000000000008152600401610bb690611e8a565b60405180910390fd5b600960000160149054906101000a900460ff16610c11576040517f08c379a0000000000000000000000000000000000000000000000000000000008152600401610c0890611f1c565b60405180910390fd5b600073ffffffffffffffffffffffffffffffffffffffff168273ffffffffffffffffffffffffffffffffffffffff1603610c80576040517f08c379a0000000000000000000000000000000000000000000000000000000008152600401610c7790611f88565b60405180910390fd5b610cae600960000160009054906101000a900473ffffffffffffffffffffffffffffffffffffffff16610a7f565b9050600073ffffffffffffffffffffffffffffffffffffffff168173ffffffffffffffffffffffffffffffffffffffff1603610d1f576040517f08c379a0000000000000000000000000000000000000000000000000000000008152600401610d169061201a565b60405180910390fd5b6004819080600181540180825580915050600190039060005260206000200160009091909190916101000a81548173ffffffffffffffffffffffffffffffffffffffff021916908373ffffffffffffffffffffffffffffffffffffffff16021790555080600260008373ffffffffffffffffffffffffffffffffffffffff1673ffffffffffffffffffffffffffffffffffffffff16815260200190815260200160002060006101000a81548173ffffffffffffffffffffffffffffffffffffffff021916908373ffffffffffffffffffffffffffffffffffffffff16021790555081600360008373ffffffffffffffffffffffffffffffffffffffff1673ffffffffffffffffffffffffffffffffffffffff16815260200190815260200160002060006101000a81548173ffffffffffffffffffffffffffffffffffffffff021916908373ffffffffffffffffffffffffffffffffffffffff1602179055506001806000828254610e909190612069565b9250508190555060008190508073ffffffffffffffffffffffffffffffffffffffff166301eaaea2848888308960016040518763ffffffff1660e01b8152600401610ee0969594939291906120e2565b6020604051808303816000875af1158015610eff573d6000803e3d6000fd5b505050506040513d601f19601f82011682018060405250810190610f239190611d2c565b610f62576040517f08c379a0000000000000000000000000000000000000000000000000000000008152600401610f59906121ca565b60405180910390fd5b3373ffffffffffffffffffffffffffffffffffffffff168373ffffffffffffffffffffffffffffffffffffffff16600960000160009054906101000a900473ffffffffffffffffffffffffffffffffffffffff1673ffffffffffffffffffffffffffffffffffffffff167f3b718a0cf6295ffb101f45e745e9f84c10316244065cd278a0316718b0206724858a8a8a60405161100194939291906121ea565b60405180910390a450949350505050565b606060005b60015481101561119157600360006004838154811061103957611038612244565b5b9060005260206000200160009054906101000a900473ffffffffffffffffffffffffffffffffffffffff1673ffffffffffffffffffffffffffffffffffffffff1673ffffffffffffffffffffffffffffffffffffffff16815260200190815260200160002060009054906101000a900473ffffffffffffffffffffffffffffffffffffffff1673ffffffffffffffffffffffffffffffffffffffff168373ffffffffffffffffffffffffffffffffffffffff160361117e576004818154811061110557611104612244565b5b9060005260206000200160009054906101000a900473ffffffffffffffffffffffffffffffffffffffff1682828151811061114357611142612244565b5b602002602001019073ffffffffffffffffffffffffffffffffffffffff16908173ffffffffffffffffffffffffffffffffffffffff16815250505b808061118990612273565b915050611017565b50919050565b61119f6113c8565b6111a96000611446565b565b60066020528060005260406000206000915054906101000a900473ffffffffffffffffffffffffffffffffffffffff1681565b600781815481106111ee57600080fd5b906000526020600020016000915054906101000a900473ffffffffffffffffffffffffffffffffffffffff1681565b60008060009054906101000a900473ffffffffffffffffffffffffffffffffffffffff16905090565b6000600a60000160009054906101000a900473ffffffffffffffffffffffffffffffffffffffff16905090565b60036020528060005260406000206000915054906101000a900473ffffffffffffffffffffffffffffffffffffffff1681565b6000600960000160009054906101000a900473ffffffffffffffffffffffffffffffffffffffff16905090565b60026020528060005260406000206000915054906101000a900473ffffffffffffffffffffffffffffffffffffffff1681565b6004818154811061131657600080fd5b906000526020600020016000915054906101000a900473ffffffffffffffffffffffffffffffffffffffff1681565b61134d6113c8565b600073ffffffffffffffffffffffffffffffffffffffff168173ffffffffffffffffffffffffffffffffffffffff16036113bc576040517f08c379a00000000000000000000000000000000000000000000000000000000081526004016113b39061232d565b60405180910390fd5b6113c581611446565b50565b6113d061150a565b73ffffffffffffffffffffffffffffffffffffffff166113ee61121d565b73ffffffffffffffffffffffffffffffffffffffff1614611444576040517f08c379a000000000000000000000000000000000000000000000000000000000815260040161143b90612399565b60405180910390fd5b565b60008060009054906101000a900473ffffffffffffffffffffffffffffffffffffffff169050816000806101000a81548173ffffffffffffffffffffffffffffffffffffffff021916908373ffffffffffffffffffffffffffffffffffffffff1602179055508173ffffffffffffffffffffffffffffffffffffffff168173ffffffffffffffffffffffffffffffffffffffff167f8be0079c531659141344cd1fd0a4f28419497f9722a3daafe3b4186f6b6457e060405160405180910390a35050565b600033905090565b6000604051905090565b600080fd5b600080fd5b600073ffffffffffffffffffffffffffffffffffffffff82169050919050565b600061155182611526565b9050919050565b61156181611546565b811461156c57600080fd5b50565b60008135905061157e81611558565b92915050565b60006020828403121561159a5761159961151c565b5b60006115a88482850161156f565b91505092915050565b6115ba81611546565b82525050565b60006020820190506115d560008301846115b1565b92915050565b600080fd5b600080fd5b6000601f19601f8301169050919050565b7f4e487b7100000000000000000000000000000000000000000000000000000000600052604160045260246000fd5b61162e826115e5565b810181811067ffffffffffffffff8211171561164d5761164c6115f6565b5b80604052505050565b6000611660611512565b905061166c8282611625565b919050565b600067ffffffffffffffff82111561168c5761168b6115f6565b5b611695826115e5565b9050602081019050919050565b82818337600083830152505050565b60006116c46116bf84611671565b611656565b9050828152602081018484840111156116e0576116df6115e0565b5b6116eb8482856116a2565b509392505050565b600082601f830112611708576117076115db565b5b81356117188482602086016116b1565b91505092915050565b6000819050919050565b61173481611721565b811461173f57600080fd5b50565b6000813590506117518161172b565b92915050565b600080600080608085870312156117715761177061151c565b5b600085013567ffffffffffffffff81111561178f5761178e611521565b5b61179b878288016116f3565b945050602085013567ffffffffffffffff8111156117bc576117bb611521565b5b6117c8878288016116f3565b93505060406117d98782880161156f565b92505060606117ea87828801611742565b91505092959194509250565b600081519050919050565b600082825260208201905092915050565b6000819050602082019050919050565b61182b81611546565b82525050565b600061183d8383611822565b60208301905092915050565b6000602082019050919050565b6000611861826117f6565b61186b8185611801565b935061187683611812565b8060005b838110156118a757815161188e8882611831565b975061189983611849565b92505060018101905061187a565b5085935050505092915050565b600060208201905081810360008301526118ce8184611856565b905092915050565b6118df81611721565b82525050565b60006020820190506118fa60008301846118d6565b92915050565b6000806000806080858703121561191a5761191961151c565b5b600085013567ffffffffffffffff81111561193857611937611521565b5b611944878288016116f3565b945050602085013567ffffffffffffffff81111561196557611964611521565b5b611971878288016116f3565b935050604085013567ffffffffffffffff81111561199257611991611521565b5b61199e878288016116f3565b92505060606119af8782880161156f565b91505092959194509250565b6000602082840312156119d1576119d061151c565b5b60006119df84828501611742565b91505092915050565b600082825260208201905092915050565b7f43616c6c20636f6d696e672066726f6d2061206e6f6e206578697374696e672060008201527f4e465420636f6e7472616374206465706c6f796564206279207468697320666160208201527f63746f7279000000000000000000000000000000000000000000000000000000604082015250565b6000611a7b6045836119e8565b9150611a86826119f9565b606082019050919050565b60006020820190508181036000830152611aaa81611a6e565b9050919050565b600081519050611ac081611558565b92915050565b600060208284031215611adc57611adb61151c565b5b6000611aea84828501611ab1565b91505092915050565b7f50726f7669646564206d696e746572206973206e6f7420746865204e4654206f60008201527f776e657221000000000000000000000000000000000000000000000000000000602082015250565b6000611b4f6025836119e8565b9150611b5a82611af3565b604082019050919050565b60006020820190508181036000830152611b7e81611b42565b9050919050565b7f6465706c6f794552433230436f6e74726163743a204661696c656420746f206460008201527f65706c6f79206e657720455243323020636f6e74726163740000000000000000602082015250565b6000611be16038836119e8565b9150611bec82611b85565b604082019050919050565b60006020820190508181036000830152611c1081611bd4565b9050919050565b600081519050919050565b60005b83811015611c40578082015181840152602081019050611c25565b60008484015250505050565b6000611c5782611c17565b611c6181856119e8565b9350611c71818560208601611c22565b611c7a816115e5565b840191505092915050565b600060c0820190508181036000830152611c9f8189611c4c565b90508181036020830152611cb38188611c4c565b9050611cc260408301876115b1565b611ccf60608301866115b1565b611cdc60808301856115b1565b611ce960a08301846118d6565b979650505050505050565b60008115159050919050565b611d0981611cf4565b8114611d1457600080fd5b50565b600081519050611d2681611d00565b92915050565b600060208284031215611d4257611d4161151c565b5b6000611d5084828501611d17565b91505092915050565b7f445420696e697469616c697a6174696f6e206661696c65642100000000000000600082015250565b6000611d8f6019836119e8565b9150611d9a82611d59565b602082019050919050565b60006020820190508181036000830152611dbe81611d82565b9050919050565b6000608082019050611dda60008301876115b1565b611de760208301866115b1565b8181036040830152611df98185611c4c565b90508181036060830152611e0d8184611c4c565b905095945050505050565b7f4465706c6f794552373231436f6e74726163743a20696e76616c69642062617360008201527f6520616464726573730000000000000000000000000000000000000000000000602082015250565b6000611e746029836119e8565b9150611e7f82611e18565b604082019050919050565b60006020820190508181036000830152611ea381611e67565b9050919050565b7f4465706c6f79455243373231436f6e74726163743a204261736520636f6e747260008201527f616374206e6f7420616374697665000000000000000000000000000000000000602082015250565b6000611f06602e836119e8565b9150611f1182611eaa565b604082019050919050565b60006020820190508181036000830152611f3581611ef9565b9050919050565b7f616464726573732830292063616e6e6f7420626520616e206f776e6572000000600082015250565b6000611f72601d836119e8565b9150611f7d82611f3c565b602082019050919050565b60006020820190508181036000830152611fa181611f65565b9050919050565b7f6465706c6f79455243373231436f6e74726163743a204661696c656420746f2060008201527f6465706c6f79206e65772045524337323120636f6e7472616374000000000000602082015250565b6000612004603a836119e8565b915061200f82611fa8565b604082019050919050565b6000602082019050818103600083015261203381611ff7565b9050919050565b7f4e487b7100000000000000000000000000000000000000000000000000000000600052601160045260246000fd5b600061207482611721565b915061207f83611721565b92508282019050808211156120975761209661203a565b5b92915050565b6000819050919050565b6000819050919050565b60006120cc6120c76120c28461209d565b6120a7565b611721565b9050919050565b6120dc816120b1565b82525050565b600060c0820190506120f760008301896115b1565b81810360208301526121098188611c4c565b9050818103604083015261211d8187611c4c565b905061212c60608301866115b1565b818103608083015261213e8185611c4c565b905061214d60a08301846120d3565b979650505050505050565b7f466163746f72793a20436f756c64206e6f7420696e697469616c697a65204e6560008201527f77204e465420636f6e7472616374000000000000000000000000000000000000602082015250565b60006121b4602e836119e8565b91506121bf82612158565b604082019050919050565b600060208201905081810360008301526121e3816121a7565b9050919050565b60006080820190506121ff60008301876115b1565b81810360208301526122118186611c4c565b905081810360408301526122258185611c4c565b905081810360608301526122398184611c4c565b905095945050505050565b7f4e487b7100000000000000000000000000000000000000000000000000000000600052603260045260246000fd5b600061227e82611721565b91507fffffffffffffffffffffffffffffffffffffffffffffffffffffffffffffffff82036122b0576122af61203a565b5b600182019050919050565b7f4f776e61626c653a206e6577206f776e657220697320746865207a65726f206160008201527f6464726573730000000000000000000000000000000000000000000000000000602082015250565b60006123176026836119e8565b9150612322826122bb565b604082019050919050565b600060208201905081810360008301526123468161230a565b9050919050565b7f4f776e61626c653a2063616c6c6572206973206e6f7420746865206f776e6572600082015250565b60006123836020836119e8565b915061238e8261234d565b602082019050919050565b600060208201905081810360008301526123b281612376565b905091905056fea26469706673582212201cb8f9fc631794ec82d376f7ad86d8ac1f4a554e014502f4ffb6ab8c7e6eaa1964736f6c63430008120033",
  "linkReferences": {},
  "deployedLinkReferences": {}
}