{
  "_format": "hh-sol-artifact-1",
  "contractName": "ERC721Factory",
  "sourceName": "contracts/ERC721Factory.sol",
  "abi": [
    {
      "inputs": [
        {
          "internalType": "address",
          "name": "_baseAddress",
          "type": "address"
        }
      ],
      "stateMutability": "nonpayable",
      "type": "constructor"
    },
    {
      "anonymous": false,
      "inputs": [
        {
          "indexed": true,
          "internalType": "address",
          "name": "_baseAddress",
          "type": "address"
        },
        {
          "indexed": false,
          "internalType": "bool",
          "name": "_isActive",
          "type": "bool"
        }
      ],
      "name": "Base721Added",
      "type": "event"
    },
    {
      "anonymous": false,
      "inputs": [
        {
          "indexed": false,
          "internalType": "address",
          "name": "instance",
          "type": "address"
        }
      ],
      "name": "InstanceDeployed",
      "type": "event"
    },
    {
      "anonymous": false,
      "inputs": [
        {
          "indexed": false,
          "internalType": "address",
          "name": "newTokenAddress",
          "type": "address"
        },
        {
          "indexed": true,
          "internalType": "address",
          "name": "templateAddress",
          "type": "address"
        },
        {
          "indexed": false,
          "internalType": "string",
          "name": "tokenName",
          "type": "string"
        },
        {
          "indexed": true,
          "internalType": "address",
          "name": "admin",
          "type": "address"
        },
        {
          "indexed": false,
          "internalType": "string",
          "name": "symbol",
          "type": "string"
        },
        {
          "indexed": false,
          "internalType": "string",
          "name": "tokenURI",
          "type": "string"
        },
        {
          "indexed": true,
          "internalType": "address",
          "name": "creator",
          "type": "address"
        }
      ],
      "name": "NFTCreated",
      "type": "event"
    },
    {
      "anonymous": false,
      "inputs": [
        {
          "indexed": true,
          "internalType": "address",
          "name": "previousOwner",
          "type": "address"
        },
        {
          "indexed": true,
          "internalType": "address",
          "name": "newOwner",
          "type": "address"
        }
      ],
      "name": "OwnershipTransferred",
      "type": "event"
    },
    {
      "inputs": [
        {
          "internalType": "address",
          "name": "",
          "type": "address"
        }
      ],
      "name": "createdERC721List",
      "outputs": [
        {
          "internalType": "address",
          "name": "",
          "type": "address"
        }
      ],
      "stateMutability": "view",
      "type": "function"
    },
    {
      "inputs": [
        {
          "internalType": "address",
          "name": "_logic",
          "type": "address"
        }
      ],
      "name": "deploy",
      "outputs": [
        {
          "internalType": "address",
          "name": "instance",
          "type": "address"
        }
      ],
      "stateMutability": "nonpayable",
      "type": "function"
    },
    {
      "inputs": [
        {
          "internalType": "string",
          "name": "name",
          "type": "string"
        },
        {
          "internalType": "string",
          "name": "symbol",
          "type": "string"
        },
        {
          "internalType": "string",
          "name": "tokenURI",
          "type": "string"
        },
        {
          "internalType": "address",
          "name": "owner",
          "type": "address"
        }
      ],
      "name": "deployERC721Contract",
      "outputs": [
        {
          "internalType": "address",
          "name": "erc721Instance",
          "type": "address"
        }
      ],
      "stateMutability": "nonpayable",
      "type": "function"
    },
    {
      "inputs": [
        {
          "internalType": "address",
          "name": "",
          "type": "address"
        }
      ],
      "name": "eRC721_to_owner",
      "outputs": [
        {
          "internalType": "address",
          "name": "",
          "type": "address"
        }
      ],
      "stateMutability": "view",
      "type": "function"
    },
    {
      "inputs": [
        {
          "internalType": "uint256",
          "name": "",
          "type": "uint256"
        }
      ],
      "name": "erc721addresses",
      "outputs": [
        {
          "internalType": "address",
          "name": "",
          "type": "address"
        }
      ],
      "stateMutability": "view",
      "type": "function"
    },
    {
      "inputs": [],
      "name": "getAllNFTCreatedAddress",
      "outputs": [
        {
          "internalType": "address[]",
          "name": "",
          "type": "address[]"
        }
      ],
      "stateMutability": "view",
      "type": "function"
    },
    {
      "inputs": [],
      "name": "getBaseContractAddress",
      "outputs": [
        {
          "internalType": "address",
          "name": "",
          "type": "address"
        }
      ],
      "stateMutability": "view",
      "type": "function"
    },
    {
      "inputs": [
        {
          "internalType": "address",
          "name": "creator",
          "type": "address"
        }
      ],
      "name": "getNFTCreatedAddress",
      "outputs": [
        {
          "internalType": "address[]",
          "name": "ret",
          "type": "address[]"
        }
      ],
      "stateMutability": "view",
      "type": "function"
    },
    {
      "inputs": [],
      "name": "getNFTCreatedCount",
      "outputs": [
        {
          "internalType": "uint256",
          "name": "",
          "type": "uint256"
        }
      ],
      "stateMutability": "view",
      "type": "function"
    },
    {
      "inputs": [],
      "name": "owner",
      "outputs": [
        {
          "internalType": "address",
          "name": "",
          "type": "address"
        }
      ],
      "stateMutability": "view",
      "type": "function"
    },
    {
      "inputs": [],
      "name": "renounceOwnership",
      "outputs": [],
      "stateMutability": "nonpayable",
      "type": "function"
    },
    {
      "inputs": [
        {
          "internalType": "address",
          "name": "newOwner",
          "type": "address"
        }
      ],
      "name": "transferOwnership",
      "outputs": [],
      "stateMutability": "nonpayable",
      "type": "function"
    }
  ],
  "bytecode": "0x60806040523480156200001157600080fd5b5060405162001f9738038062001f978339818101604052810190620000379190620004e5565b620000576200004b620000e960201b60201c565b620000f160201b60201c565b600073ffffffffffffffffffffffffffffffffffffffff168173ffffffffffffffffffffffffffffffffffffffff1603620000c9576040517f08c379a0000000000000000000000000000000000000000000000000000000008152600401620000c0906200059e565b60405180910390fd5b6000600181905550620000e281620001b560201b60201c565b506200079c565b600033905090565b60008060009054906101000a900473ffffffffffffffffffffffffffffffffffffffff169050816000806101000a81548173ffffffffffffffffffffffffffffffffffffffff021916908373ffffffffffffffffffffffffffffffffffffffff1602179055508173ffffffffffffffffffffffffffffffffffffffff168173ffffffffffffffffffffffffffffffffffffffff167f8be0079c531659141344cd1fd0a4f28419497f9722a3daafe3b4186f6b6457e060405160405180910390a35050565b620001c5620003ae60201b60201c565b600073ffffffffffffffffffffffffffffffffffffffff168173ffffffffffffffffffffffffffffffffffffffff160362000237576040517f08c379a00000000000000000000000000000000000000000000000000000000081526004016200022e9062000636565b60405180910390fd5b62000248816200043f60201b60201c565b6200028a576040517f08c379a00000000000000000000000000000000000000000000000000000000081526004016200028190620006ce565b60405180910390fd5b60405180604001604052808273ffffffffffffffffffffffffffffffffffffffff16815260200160011515815250600560008201518160000160006101000a81548173ffffffffffffffffffffffffffffffffffffffff021916908373ffffffffffffffffffffffffffffffffffffffff16021790555060208201518160000160146101000a81548160ff021916908315150217905550905050600560000160009054906101000a900473ffffffffffffffffffffffffffffffffffffffff1673ffffffffffffffffffffffffffffffffffffffff167f613fb6702f05dcf998e225eaea1cdff4f649bce43a6b0907bfa454c0e1977df9600560000160149054906101000a900460ff16604051620003a391906200070d565b60405180910390a250565b620003be620000e960201b60201c565b73ffffffffffffffffffffffffffffffffffffffff16620003e46200045260201b60201c565b73ffffffffffffffffffffffffffffffffffffffff16146200043d576040517f08c379a000000000000000000000000000000000000000000000000000000000815260040162000434906200077a565b60405180910390fd5b565b600080823b905060008111915050919050565b60008060009054906101000a900473ffffffffffffffffffffffffffffffffffffffff16905090565b600080fd5b600073ffffffffffffffffffffffffffffffffffffffff82169050919050565b6000620004ad8262000480565b9050919050565b620004bf81620004a0565b8114620004cb57600080fd5b50565b600081519050620004df81620004b4565b92915050565b600060208284031215620004fe57620004fd6200047b565b5b60006200050e84828501620004ce565b91505092915050565b600082825260208201905092915050565b7f496e76616c6964204552433732314261736520636f6e7472616374206164647260008201527f6573730000000000000000000000000000000000000000000000000000000000602082015250565b60006200058660238362000517565b9150620005938262000528565b604082019050919050565b60006020820190508181036000830152620005b98162000577565b9050919050565b7f41646472657373283029204e4f5420616c6c6f77656420666f7220626173652060008201527f4e4654636f6e7472616374000000000000000000000000000000000000000000602082015250565b60006200061e602b8362000517565b91506200062b82620005c0565b604082019050919050565b6000602082019050818103600083015262000651816200060f565b9050919050565b7f50726f76696465642061646472657373206973204e4f54206120636f6e74726160008201527f6374000000000000000000000000000000000000000000000000000000000000602082015250565b6000620006b660228362000517565b9150620006c38262000658565b604082019050919050565b60006020820190508181036000830152620006e981620006a7565b9050919050565b60008115159050919050565b6200070781620006f0565b82525050565b6000602082019050620007246000830184620006fc565b92915050565b7f4f776e61626c653a2063616c6c6572206973206e6f7420746865206f776e6572600082015250565b60006200076260208362000517565b91506200076f826200072a565b602082019050919050565b60006020820190508181036000830152620007958162000753565b9050919050565b6117eb80620007ac6000396000f3fe608060405234801561001057600080fd5b50600436106100b45760003560e01c80638da5cb5b116100715780638da5cb5b1461018f578063b7bad475146101ad578063e58ff302146101dd578063eb32c429146101fb578063ed63b8981461022b578063f2fde38b1461025b576100b4565b80633b4ac514146100b95780634c96a389146100d757806356f46912146101075780635993f5fa14610125578063613543d214610155578063715018a614610185575b600080fd5b6100c1610277565b6040516100ce9190610de9565b60405180910390f35b6100f160048036038101906100ec9190610e4b565b610305565b6040516100fe9190610e87565b60405180910390f35b61010f6103a6565b60405161011c9190610ebb565b60405180910390f35b61013f600480360381019061013a919061101c565b6103b0565b60405161014c9190610e87565b60405180910390f35b61016f600480360381019061016a9190610e4b565b610898565b60405161017c9190610de9565b60405180910390f35b61018d610a1d565b005b610197610a31565b6040516101a49190610e87565b60405180910390f35b6101c760048036038101906101c29190610e4b565b610a5a565b6040516101d49190610e87565b60405180910390f35b6101e5610a8d565b6040516101f29190610e87565b60405180910390f35b61021560048036038101906102109190610e4b565b610aba565b6040516102229190610e87565b60405180910390f35b61024560048036038101906102409190611103565b610aed565b6040516102529190610e87565b60405180910390f35b61027560048036038101906102709190610e4b565b610b2c565b005b606060048054806020026020016040519081016040528092919081815260200182805480156102fb57602002820191906000526020600020905b8160009054906101000a900473ffffffffffffffffffffffffffffffffffffffff1673ffffffffffffffffffffffffffffffffffffffff16815260200190600101908083116102b1575b5050505050905090565b6000808260601b90506040517f3d602d80600a3d3981f3363d3d373d3d3d363d7300000000000000000000000081528160148201527f5af43d82803e903d91602b57fd5bf3000000000000000000000000000000000060288201526037816000f09250507f117c72e6c25f0a072e36e148df71468ce2f3dbe7defec5b2c257a6e3eb65278c826040516103989190610e87565b60405180910390a150919050565b6000600154905090565b60008073ffffffffffffffffffffffffffffffffffffffff16600560000160009054906101000a900473ffffffffffffffffffffffffffffffffffffffff1673ffffffffffffffffffffffffffffffffffffffff1603610445576040517f08c379a000000000000000000000000000000000000000000000000000000000815260040161043c906111b3565b60405180910390fd5b600560000160149054906101000a900460ff16610497576040517f08c379a000000000000000000000000000000000000000000000000000000000815260040161048e90611245565b60405180910390fd5b600073ffffffffffffffffffffffffffffffffffffffff168273ffffffffffffffffffffffffffffffffffffffff1603610506576040517f08c379a00000000000000000000000000000000000000000000000000000000081526004016104fd906112b1565b60405180910390fd5b610534600560000160009054906101000a900473ffffffffffffffffffffffffffffffffffffffff16610305565b9050600073ffffffffffffffffffffffffffffffffffffffff168173ffffffffffffffffffffffffffffffffffffffff16036105a5576040517f08c379a000000000000000000000000000000000000000000000000000000000815260040161059c90611343565b60405180910390fd5b6004819080600181540180825580915050600190039060005260206000200160009091909190916101000a81548173ffffffffffffffffffffffffffffffffffffffff021916908373ffffffffffffffffffffffffffffffffffffffff16021790555080600260008373ffffffffffffffffffffffffffffffffffffffff1673ffffffffffffffffffffffffffffffffffffffff16815260200190815260200160002060006101000a81548173ffffffffffffffffffffffffffffffffffffffff021916908373ffffffffffffffffffffffffffffffffffffffff16021790555081600360008373ffffffffffffffffffffffffffffffffffffffff1673ffffffffffffffffffffffffffffffffffffffff16815260200190815260200160002060006101000a81548173ffffffffffffffffffffffffffffffffffffffff021916908373ffffffffffffffffffffffffffffffffffffffff16021790555060018060008282546107169190611392565b9250508190555060008190508073ffffffffffffffffffffffffffffffffffffffff166301eaaea2848888308960016040518763ffffffff1660e01b815260040161076696959493929190611479565b6020604051808303816000875af1158015610785573d6000803e3d6000fd5b505050506040513d601f19601f820116820180604052508101906107a99190611527565b6107e8576040517f08c379a00000000000000000000000000000000000000000000000000000000081526004016107df906115c6565b60405180910390fd5b3373ffffffffffffffffffffffffffffffffffffffff168373ffffffffffffffffffffffffffffffffffffffff16600560000160009054906101000a900473ffffffffffffffffffffffffffffffffffffffff1673ffffffffffffffffffffffffffffffffffffffff167f3b718a0cf6295ffb101f45e745e9f84c10316244065cd278a0316718b0206724858a8a8a60405161088794939291906115e6565b60405180910390a450949350505050565b606060005b600154811015610a175760036000600483815481106108bf576108be611640565b5b9060005260206000200160009054906101000a900473ffffffffffffffffffffffffffffffffffffffff1673ffffffffffffffffffffffffffffffffffffffff1673ffffffffffffffffffffffffffffffffffffffff16815260200190815260200160002060009054906101000a900473ffffffffffffffffffffffffffffffffffffffff1673ffffffffffffffffffffffffffffffffffffffff168373ffffffffffffffffffffffffffffffffffffffff1603610a04576004818154811061098b5761098a611640565b5b9060005260206000200160009054906101000a900473ffffffffffffffffffffffffffffffffffffffff168282815181106109c9576109c8611640565b5b602002602001019073ffffffffffffffffffffffffffffffffffffffff16908173ffffffffffffffffffffffffffffffffffffffff16815250505b8080610a0f9061166f565b91505061089d565b50919050565b610a25610baf565b610a2f6000610c2d565b565b60008060009054906101000a900473ffffffffffffffffffffffffffffffffffffffff16905090565b60036020528060005260406000206000915054906101000a900473ffffffffffffffffffffffffffffffffffffffff1681565b6000600560000160009054906101000a900473ffffffffffffffffffffffffffffffffffffffff16905090565b60026020528060005260406000206000915054906101000a900473ffffffffffffffffffffffffffffffffffffffff1681565b60048181548110610afd57600080fd5b906000526020600020016000915054906101000a900473ffffffffffffffffffffffffffffffffffffffff1681565b610b34610baf565b600073ffffffffffffffffffffffffffffffffffffffff168173ffffffffffffffffffffffffffffffffffffffff1603610ba3576040517f08c379a0000000000000000000000000000000000000000000000000000000008152600401610b9a90611729565b60405180910390fd5b610bac81610c2d565b50565b610bb7610cf1565b73ffffffffffffffffffffffffffffffffffffffff16610bd5610a31565b73ffffffffffffffffffffffffffffffffffffffff1614610c2b576040517f08c379a0000000000000000000000000000000000000000000000000000000008152600401610c2290611795565b60405180910390fd5b565b60008060009054906101000a900473ffffffffffffffffffffffffffffffffffffffff169050816000806101000a81548173ffffffffffffffffffffffffffffffffffffffff021916908373ffffffffffffffffffffffffffffffffffffffff1602179055508173ffffffffffffffffffffffffffffffffffffffff168173ffffffffffffffffffffffffffffffffffffffff167f8be0079c531659141344cd1fd0a4f28419497f9722a3daafe3b4186f6b6457e060405160405180910390a35050565b600033905090565b600081519050919050565b600082825260208201905092915050565b6000819050602082019050919050565b600073ffffffffffffffffffffffffffffffffffffffff82169050919050565b6000610d5082610d25565b9050919050565b610d6081610d45565b82525050565b6000610d728383610d57565b60208301905092915050565b6000602082019050919050565b6000610d9682610cf9565b610da08185610d04565b9350610dab83610d15565b8060005b83811015610ddc578151610dc38882610d66565b9750610dce83610d7e565b925050600181019050610daf565b5085935050505092915050565b60006020820190508181036000830152610e038184610d8b565b905092915050565b6000604051905090565b600080fd5b600080fd5b610e2881610d45565b8114610e3357600080fd5b50565b600081359050610e4581610e1f565b92915050565b600060208284031215610e6157610e60610e15565b5b6000610e6f84828501610e36565b91505092915050565b610e8181610d45565b82525050565b6000602082019050610e9c6000830184610e78565b92915050565b6000819050919050565b610eb581610ea2565b82525050565b6000602082019050610ed06000830184610eac565b92915050565b600080fd5b600080fd5b6000601f19601f8301169050919050565b7f4e487b7100000000000000000000000000000000000000000000000000000000600052604160045260246000fd5b610f2982610ee0565b810181811067ffffffffffffffff82111715610f4857610f47610ef1565b5b80604052505050565b6000610f5b610e0b565b9050610f678282610f20565b919050565b600067ffffffffffffffff821115610f8757610f86610ef1565b5b610f9082610ee0565b9050602081019050919050565b82818337600083830152505050565b6000610fbf610fba84610f6c565b610f51565b905082815260208101848484011115610fdb57610fda610edb565b5b610fe6848285610f9d565b509392505050565b600082601f83011261100357611002610ed6565b5b8135611013848260208601610fac565b91505092915050565b6000806000806080858703121561103657611035610e15565b5b600085013567ffffffffffffffff81111561105457611053610e1a565b5b61106087828801610fee565b945050602085013567ffffffffffffffff81111561108157611080610e1a565b5b61108d87828801610fee565b935050604085013567ffffffffffffffff8111156110ae576110ad610e1a565b5b6110ba87828801610fee565b92505060606110cb87828801610e36565b91505092959194509250565b6110e081610ea2565b81146110eb57600080fd5b50565b6000813590506110fd816110d7565b92915050565b60006020828403121561111957611118610e15565b5b6000611127848285016110ee565b91505092915050565b600082825260208201905092915050565b7f4465706c6f794552373231436f6e74726163743a20696e76616c69642062617360008201527f6520616464726573730000000000000000000000000000000000000000000000602082015250565b600061119d602983611130565b91506111a882611141565b604082019050919050565b600060208201905081810360008301526111cc81611190565b9050919050565b7f4465706c6f79455243373231436f6e74726163743a204261736520636f6e747260008201527f616374206e6f7420616374697665000000000000000000000000000000000000602082015250565b600061122f602e83611130565b915061123a826111d3565b604082019050919050565b6000602082019050818103600083015261125e81611222565b9050919050565b7f616464726573732830292063616e6e6f7420626520616e206f776e6572000000600082015250565b600061129b601d83611130565b91506112a682611265565b602082019050919050565b600060208201905081810360008301526112ca8161128e565b9050919050565b7f6465706c6f79455243373231436f6e74726163743a204661696c656420746f2060008201527f6465706c6f79206e65772045524337323120636f6e7472616374000000000000602082015250565b600061132d603a83611130565b9150611338826112d1565b604082019050919050565b6000602082019050818103600083015261135c81611320565b9050919050565b7f4e487b7100000000000000000000000000000000000000000000000000000000600052601160045260246000fd5b600061139d82610ea2565b91506113a883610ea2565b92508282019050808211156113c0576113bf611363565b5b92915050565b600081519050919050565b60005b838110156113ef5780820151818401526020810190506113d4565b60008484015250505050565b6000611406826113c6565b6114108185611130565b93506114208185602086016113d1565b61142981610ee0565b840191505092915050565b6000819050919050565b6000819050919050565b600061146361145e61145984611434565b61143e565b610ea2565b9050919050565b61147381611448565b82525050565b600060c08201905061148e6000830189610e78565b81810360208301526114a081886113fb565b905081810360408301526114b481876113fb565b90506114c36060830186610e78565b81810360808301526114d581856113fb565b90506114e460a083018461146a565b979650505050505050565b60008115159050919050565b611504816114ef565b811461150f57600080fd5b50565b600081519050611521816114fb565b92915050565b60006020828403121561153d5761153c610e15565b5b600061154b84828501611512565b91505092915050565b7f556e61626c6520746f20696e697469616c697a6520657263373231204e46542060008201527f696e7374616e6365000000000000000000000000000000000000000000000000602082015250565b60006115b0602883611130565b91506115bb82611554565b604082019050919050565b600060208201905081810360008301526115df816115a3565b9050919050565b60006080820190506115fb6000830187610e78565b818103602083015261160d81866113fb565b9050818103604083015261162181856113fb565b9050818103606083015261163581846113fb565b905095945050505050565b7f4e487b7100000000000000000000000000000000000000000000000000000000600052603260045260246000fd5b600061167a82610ea2565b91507fffffffffffffffffffffffffffffffffffffffffffffffffffffffffffffffff82036116ac576116ab611363565b5b600182019050919050565b7f4f776e61626c653a206e6577206f776e657220697320746865207a65726f206160008201527f6464726573730000000000000000000000000000000000000000000000000000602082015250565b6000611713602683611130565b915061171e826116b7565b604082019050919050565b6000602082019050818103600083015261174281611706565b9050919050565b7f4f776e61626c653a2063616c6c6572206973206e6f7420746865206f776e6572600082015250565b600061177f602083611130565b915061178a82611749565b602082019050919050565b600060208201905081810360008301526117ae81611772565b905091905056fea2646970667358221220ede3698292a767414ed93aec2b69a7b6fcdd00b34b5b81447c62adaef3786aee64736f6c63430008120033",
  "linkReferences": {},
  "deployedLinkReferences": {}
}