{
  "_format": "hh-sol-artifact-1",
  "contractName": "ERC721Factory",
  "sourceName": "contracts/ERC721Factory.sol",
  "abi": [
    {
      "inputs": [
        {
          "internalType": "address",
          "name": "_base721Address",
          "type": "address"
        },
        {
          "internalType": "address",
          "name": "_base20Address",
          "type": "address"
        },
        {
          "internalType": "address",
          "name": "router_",
          "type": "address"
        }
      ],
      "stateMutability": "nonpayable",
      "type": "constructor"
    },
    {
      "anonymous": false,
      "inputs": [
        {
          "indexed": true,
          "internalType": "address",
          "name": "_baseAddress",
          "type": "address"
        },
        {
          "indexed": false,
          "internalType": "bool",
          "name": "_isActive",
          "type": "bool"
        }
      ],
      "name": "Base721Added",
      "type": "event"
    },
    {
      "anonymous": false,
      "inputs": [
        {
          "indexed": false,
          "internalType": "address",
          "name": "contractAddress",
          "type": "address"
        },
        {
          "indexed": false,
          "internalType": "address",
          "name": "contractOwner",
          "type": "address"
        },
        {
          "indexed": false,
          "internalType": "string",
          "name": "name",
          "type": "string"
        },
        {
          "indexed": false,
          "internalType": "string",
          "name": "symbol",
          "type": "string"
        }
      ],
      "name": "ERC20ContractDeployed",
      "type": "event"
    },
    {
      "anonymous": false,
      "inputs": [
        {
          "indexed": false,
          "internalType": "address",
          "name": "instance",
          "type": "address"
        }
      ],
      "name": "InstanceDeployed",
      "type": "event"
    },
    {
      "anonymous": false,
      "inputs": [
        {
          "indexed": false,
          "internalType": "address",
          "name": "newTokenAddress",
          "type": "address"
        },
        {
          "indexed": false,
          "internalType": "address",
          "name": "templateAddress",
          "type": "address"
        },
        {
          "indexed": false,
          "internalType": "string",
          "name": "tokenName",
          "type": "string"
        },
        {
          "indexed": false,
          "internalType": "address",
          "name": "admin",
          "type": "address"
        },
        {
          "indexed": false,
          "internalType": "string",
          "name": "symbol",
          "type": "string"
        },
        {
          "indexed": false,
          "internalType": "string",
          "name": "tokenURI",
          "type": "string"
        }
      ],
      "name": "NFTCreated",
      "type": "event"
    },
    {
      "anonymous": false,
      "inputs": [
        {
          "indexed": true,
          "internalType": "address",
          "name": "previousOwner",
          "type": "address"
        },
        {
          "indexed": true,
          "internalType": "address",
          "name": "newOwner",
          "type": "address"
        }
      ],
      "name": "OwnershipTransferred",
      "type": "event"
    },
    {
      "stateMutability": "payable",
      "type": "fallback"
    },
    {
      "inputs": [
        {
          "internalType": "address",
          "name": "",
          "type": "address"
        }
      ],
      "name": "createdERC20List",
      "outputs": [
        {
          "internalType": "address",
          "name": "",
          "type": "address"
        }
      ],
      "stateMutability": "view",
      "type": "function"
    },
    {
      "inputs": [
        {
          "internalType": "address",
          "name": "",
          "type": "address"
        }
      ],
      "name": "createdERC721List",
      "outputs": [
        {
          "internalType": "address",
          "name": "",
          "type": "address"
        }
      ],
      "stateMutability": "view",
      "type": "function"
    },
    {
      "inputs": [
        {
          "internalType": "address",
          "name": "_logic",
          "type": "address"
        }
      ],
      "name": "deploy",
      "outputs": [
        {
          "internalType": "address",
          "name": "instance",
          "type": "address"
        }
      ],
      "stateMutability": "nonpayable",
      "type": "function"
    },
    {
      "inputs": [
        {
          "internalType": "string",
          "name": "name_",
          "type": "string"
        },
        {
          "internalType": "string",
          "name": "symbol_",
          "type": "string"
        },
        {
          "internalType": "address",
          "name": "owner_",
          "type": "address"
        },
        {
          "internalType": "address",
          "name": "erc721address_",
          "type": "address"
        },
        {
          "internalType": "uint256",
          "name": "maxSupply_",
          "type": "uint256"
        }
      ],
      "name": "deployERC20Contract",
      "outputs": [
        {
          "internalType": "address",
          "name": "erc20Instance",
          "type": "address"
        }
      ],
      "stateMutability": "nonpayable",
      "type": "function"
    },
    {
      "inputs": [
        {
          "internalType": "string",
          "name": "name",
          "type": "string"
        },
        {
          "internalType": "string",
          "name": "symbol",
          "type": "string"
        },
        {
          "internalType": "string",
          "name": "tokenURI",
          "type": "string"
        },
        {
          "internalType": "string",
          "name": "asset_download_URL",
          "type": "string"
        },
        {
          "internalType": "string",
          "name": "asset_hash",
          "type": "string"
        },
        {
          "internalType": "string",
          "name": "offering_hash",
          "type": "string"
        },
        {
          "internalType": "string",
          "name": "trust_sign",
          "type": "string"
        }
      ],
      "name": "deployERC721Contract",
      "outputs": [
        {
          "internalType": "address",
          "name": "erc721Instance",
          "type": "address"
        }
      ],
      "stateMutability": "nonpayable",
      "type": "function"
    },
    {
      "inputs": [
        {
          "internalType": "address",
          "name": "",
          "type": "address"
        }
      ],
      "name": "eRC20_to_owner",
      "outputs": [
        {
          "internalType": "address",
          "name": "",
          "type": "address"
        }
      ],
      "stateMutability": "view",
      "type": "function"
    },
    {
      "inputs": [
        {
          "internalType": "address",
          "name": "",
          "type": "address"
        }
      ],
      "name": "eRC721_to_owner",
      "outputs": [
        {
          "internalType": "address",
          "name": "",
          "type": "address"
        }
      ],
      "stateMutability": "view",
      "type": "function"
    },
    {
      "inputs": [
        {
          "internalType": "uint256",
          "name": "",
          "type": "uint256"
        }
      ],
      "name": "erc20addresses",
      "outputs": [
        {
          "internalType": "address",
          "name": "",
          "type": "address"
        }
      ],
      "stateMutability": "view",
      "type": "function"
    },
    {
      "inputs": [
        {
          "internalType": "uint256",
          "name": "",
          "type": "uint256"
        }
      ],
      "name": "erc721addresses",
      "outputs": [
        {
          "internalType": "address",
          "name": "",
          "type": "address"
        }
      ],
      "stateMutability": "view",
      "type": "function"
    },
    {
      "inputs": [],
      "name": "getAllNFTCreatedAddress",
      "outputs": [
        {
          "internalType": "address[]",
          "name": "",
          "type": "address[]"
        }
      ],
      "stateMutability": "view",
      "type": "function"
    },
    {
      "inputs": [],
      "name": "getBase20ContractAddress",
      "outputs": [
        {
          "internalType": "address",
          "name": "",
          "type": "address"
        }
      ],
      "stateMutability": "view",
      "type": "function"
    },
    {
      "inputs": [],
      "name": "getBase721ContractAddress",
      "outputs": [
        {
          "internalType": "address",
          "name": "",
          "type": "address"
        }
      ],
      "stateMutability": "view",
      "type": "function"
    },
    {
      "inputs": [
        {
          "internalType": "address",
          "name": "creator",
          "type": "address"
        }
      ],
      "name": "getNFTCreatedAddress",
      "outputs": [
        {
          "internalType": "address[]",
          "name": "ret",
          "type": "address[]"
        }
      ],
      "stateMutability": "view",
      "type": "function"
    },
    {
      "inputs": [],
      "name": "getNFTCreatedCount",
      "outputs": [
        {
          "internalType": "uint256",
          "name": "",
          "type": "uint256"
        }
      ],
      "stateMutability": "view",
      "type": "function"
    },
    {
      "inputs": [],
      "name": "owner",
      "outputs": [
        {
          "internalType": "address",
          "name": "",
          "type": "address"
        }
      ],
      "stateMutability": "view",
      "type": "function"
    },
    {
      "inputs": [
        {
          "components": [
            {
              "internalType": "string",
              "name": "name",
              "type": "string"
            },
            {
              "internalType": "string",
              "name": "symbol",
              "type": "string"
            },
            {
              "internalType": "string",
              "name": "tokenURI",
              "type": "string"
            },
            {
              "internalType": "string",
              "name": "asset_download_URL",
              "type": "string"
            },
            {
              "internalType": "string",
              "name": "asset_hash",
              "type": "string"
            },
            {
              "internalType": "string",
              "name": "offering_hash",
              "type": "string"
            },
            {
              "internalType": "string",
              "name": "trust_sign",
              "type": "string"
            },
            {
              "internalType": "string",
              "name": "dt_name",
              "type": "string"
            },
            {
              "internalType": "string",
              "name": "dt_symbol",
              "type": "string"
            },
            {
              "internalType": "uint256",
              "name": "maxSupply_",
              "type": "uint256"
            }
          ],
          "internalType": "struct ERC721Factory.PublishData",
          "name": "_publishData",
          "type": "tuple"
        },
        {
          "internalType": "address",
          "name": "fresc_address",
          "type": "address"
        }
      ],
      "name": "publishAllinOne",
      "outputs": [],
      "stateMutability": "nonpayable",
      "type": "function"
    },
    {
      "inputs": [],
      "name": "renounceOwnership",
      "outputs": [],
      "stateMutability": "nonpayable",
      "type": "function"
    },
    {
      "inputs": [
        {
          "internalType": "address",
          "name": "newOwner",
          "type": "address"
        }
      ],
      "name": "transferOwnership",
      "outputs": [],
      "stateMutability": "nonpayable",
      "type": "function"
    },
    {
      "stateMutability": "payable",
      "type": "receive"
    }
  ],
  "bytecode": "0x60806040523480156200001157600080fd5b50604051620037f0380380620037f0833981810160405281019062000037919062000827565b620000576200004b6200022160201b60201c565b6200022960201b60201c565b600073ffffffffffffffffffffffffffffffffffffffff168373ffffffffffffffffffffffffffffffffffffffff1603620000c9576040517f08c379a0000000000000000000000000000000000000000000000000000000008152600401620000c0906200090a565b60405180910390fd5b600073ffffffffffffffffffffffffffffffffffffffff168273ffffffffffffffffffffffffffffffffffffffff16036200013b576040517f08c379a000000000000000000000000000000000000000000000000000000000815260040162000132906200090a565b60405180910390fd5b600073ffffffffffffffffffffffffffffffffffffffff168173ffffffffffffffffffffffffffffffffffffffff1603620001ad576040517f08c379a0000000000000000000000000000000000000000000000000000000008152600401620001a4906200097c565b60405180910390fd5b6000600181905550620001c683620002ed60201b60201c565b620001d782620004e660201b60201c565b80600860006101000a81548173ffffffffffffffffffffffffffffffffffffffff021916908373ffffffffffffffffffffffffffffffffffffffff16021790555050505062000b7a565b600033905090565b60008060009054906101000a900473ffffffffffffffffffffffffffffffffffffffff169050816000806101000a81548173ffffffffffffffffffffffffffffffffffffffff021916908373ffffffffffffffffffffffffffffffffffffffff1602179055508173ffffffffffffffffffffffffffffffffffffffff168173ffffffffffffffffffffffffffffffffffffffff167f8be0079c531659141344cd1fd0a4f28419497f9722a3daafe3b4186f6b6457e060405160405180910390a35050565b620002fd620006df60201b60201c565b600073ffffffffffffffffffffffffffffffffffffffff168173ffffffffffffffffffffffffffffffffffffffff16036200036f576040517f08c379a0000000000000000000000000000000000000000000000000000000008152600401620003669062000a14565b60405180910390fd5b62000380816200077060201b60201c565b620003c2576040517f08c379a0000000000000000000000000000000000000000000000000000000008152600401620003b99062000aac565b60405180910390fd5b60405180604001604052808273ffffffffffffffffffffffffffffffffffffffff16815260200160011515815250600960008201518160000160006101000a81548173ffffffffffffffffffffffffffffffffffffffff021916908373ffffffffffffffffffffffffffffffffffffffff16021790555060208201518160000160146101000a81548160ff021916908315150217905550905050600960000160009054906101000a900473ffffffffffffffffffffffffffffffffffffffff1673ffffffffffffffffffffffffffffffffffffffff167f613fb6702f05dcf998e225eaea1cdff4f649bce43a6b0907bfa454c0e1977df9600960000160149054906101000a900460ff16604051620004db919062000aeb565b60405180910390a250565b620004f6620006df60201b60201c565b600073ffffffffffffffffffffffffffffffffffffffff168173ffffffffffffffffffffffffffffffffffffffff160362000568576040517f08c379a00000000000000000000000000000000000000000000000000000000081526004016200055f9062000a14565b60405180910390fd5b62000579816200077060201b60201c565b620005bb576040517f08c379a0000000000000000000000000000000000000000000000000000000008152600401620005b29062000aac565b60405180910390fd5b60405180604001604052808273ffffffffffffffffffffffffffffffffffffffff16815260200160011515815250600a60008201518160000160006101000a81548173ffffffffffffffffffffffffffffffffffffffff021916908373ffffffffffffffffffffffffffffffffffffffff16021790555060208201518160000160146101000a81548160ff021916908315150217905550905050600a60000160009054906101000a900473ffffffffffffffffffffffffffffffffffffffff1673ffffffffffffffffffffffffffffffffffffffff167f613fb6702f05dcf998e225eaea1cdff4f649bce43a6b0907bfa454c0e1977df9600a60000160149054906101000a900460ff16604051620006d4919062000aeb565b60405180910390a250565b620006ef6200022160201b60201c565b73ffffffffffffffffffffffffffffffffffffffff16620007156200079460201b60201c565b73ffffffffffffffffffffffffffffffffffffffff16146200076e576040517f08c379a0000000000000000000000000000000000000000000000000000000008152600401620007659062000b58565b60405180910390fd5b565b600062000782620006df60201b60201c565b6000823b905060008111915050919050565b60008060009054906101000a900473ffffffffffffffffffffffffffffffffffffffff16905090565b600080fd5b600073ffffffffffffffffffffffffffffffffffffffff82169050919050565b6000620007ef82620007c2565b9050919050565b6200080181620007e2565b81146200080d57600080fd5b50565b6000815190506200082181620007f6565b92915050565b600080600060608486031215620008435762000842620007bd565b5b6000620008538682870162000810565b9350506020620008668682870162000810565b9250506040620008798682870162000810565b9150509250925092565b600082825260208201905092915050565b7f496e76616c6964204552433732314261736520636f6e7472616374206164647260008201527f6573730000000000000000000000000000000000000000000000000000000000602082015250565b6000620008f260238362000883565b9150620008ff8262000894565b604082019050919050565b600060208201905081810360008301526200092581620008e3565b9050919050565b7f496e76616c696420726f7574657220636f6e7472616374206164647265737300600082015250565b600062000964601f8362000883565b915062000971826200092c565b602082019050919050565b60006020820190508181036000830152620009978162000955565b9050919050565b7f41646472657373283029204e4f5420616c6c6f77656420666f7220626173652060008201527f4e4654636f6e7472616374000000000000000000000000000000000000000000602082015250565b6000620009fc602b8362000883565b915062000a09826200099e565b604082019050919050565b6000602082019050818103600083015262000a2f81620009ed565b9050919050565b7f50726f76696465642061646472657373206973204e4f54206120636f6e74726160008201527f6374000000000000000000000000000000000000000000000000000000000000602082015250565b600062000a9460228362000883565b915062000aa18262000a36565b604082019050919050565b6000602082019050818103600083015262000ac78162000a85565b9050919050565b60008115159050919050565b62000ae58162000ace565b82525050565b600060208201905062000b02600083018462000ada565b92915050565b7f4f776e61626c653a2063616c6c6572206973206e6f7420746865206f776e6572600082015250565b600062000b4060208362000883565b915062000b4d8262000b08565b602082019050919050565b6000602082019050818103600083015262000b738162000b31565b9050919050565b612c668062000b8a6000396000f3fe60806040526004361061010d5760003560e01c80638da5cb5b11610095578063c991b96111610064578063c991b961146103ad578063dfe845d5146103ea578063eb32c42914610415578063ed63b89814610452578063f2fde38b1461048f57610114565b80638da5cb5b146102f1578063ade805cf1461031c578063af5d2ec314610347578063b7bad4751461037057610114565b806356f46912116100dc57806356f46912146101f8578063613543d214610223578063715018a614610260578063778ea4611461027757806380dfe2b7146102b457610114565b80631fccb56d1461011657806332f43b9e146101535780633b4ac514146101905780634c96a389146101bb57610114565b3661011457005b005b34801561012257600080fd5b5061013d600480360381019061013891906119c8565b6104b8565b60405161014a9190611a8a565b60405180910390f35b34801561015f57600080fd5b5061017a60048036038101906101759190611aa5565b6107ed565b6040516101879190611a8a565b60405180910390f35b34801561019c57600080fd5b506101a5610820565b6040516101b29190611b90565b60405180910390f35b3480156101c757600080fd5b506101e260048036038101906101dd9190611aa5565b6108ae565b6040516101ef9190611a8a565b60405180910390f35b34801561020457600080fd5b5061020d61094f565b60405161021a9190611bc1565b60405180910390f35b34801561022f57600080fd5b5061024a60048036038101906102459190611aa5565b610959565b6040516102579190611b90565b60405180910390f35b34801561026c57600080fd5b50610275610ade565b005b34801561028357600080fd5b5061029e60048036038101906102999190611aa5565b610af2565b6040516102ab9190611a8a565b60405180910390f35b3480156102c057600080fd5b506102db60048036038101906102d69190611bdc565b610b25565b6040516102e89190611a8a565b60405180910390f35b3480156102fd57600080fd5b50610306610b64565b6040516103139190611a8a565b60405180910390f35b34801561032857600080fd5b50610331610b8d565b60405161033e9190611a8a565b60405180910390f35b34801561035357600080fd5b5061036e60048036038101906103699190611e05565b610bba565b005b34801561037c57600080fd5b5061039760048036038101906103929190611aa5565b611085565b6040516103a49190611a8a565b60405180910390f35b3480156103b957600080fd5b506103d460048036038101906103cf9190611e61565b6110b8565b6040516103e19190611a8a565b60405180910390f35b3480156103f657600080fd5b506103ff61156e565b60405161040c9190611a8a565b60405180910390f35b34801561042157600080fd5b5061043c60048036038101906104379190611aa5565b61159b565b6040516104499190611a8a565b60405180910390f35b34801561045e57600080fd5b5061047960048036038101906104749190611bdc565b6115ce565b6040516104869190611a8a565b60405180910390f35b34801561049b57600080fd5b506104b660048036038101906104b19190611aa5565b61160d565b005b60006104e8600a60000160009054906101000a900473ffffffffffffffffffffffffffffffffffffffff166108ae565b9050600073ffffffffffffffffffffffffffffffffffffffff168173ffffffffffffffffffffffffffffffffffffffff1603610559576040517f08c379a00000000000000000000000000000000000000000000000000000000081526004016105509061204a565b60405180910390fd5b6007819080600181540180825580915050600190039060005260206000200160009091909190916101000a81548173ffffffffffffffffffffffffffffffffffffffff021916908373ffffffffffffffffffffffffffffffffffffffff16021790555080600560008373ffffffffffffffffffffffffffffffffffffffff1673ffffffffffffffffffffffffffffffffffffffff16815260200190815260200160002060006101000a81548173ffffffffffffffffffffffffffffffffffffffff021916908373ffffffffffffffffffffffffffffffffffffffff16021790555083600660008373ffffffffffffffffffffffffffffffffffffffff1673ffffffffffffffffffffffffffffffffffffffff16815260200190815260200160002060006101000a81548173ffffffffffffffffffffffffffffffffffffffff021916908373ffffffffffffffffffffffffffffffffffffffff16021790555060008190508073ffffffffffffffffffffffffffffffffffffffff166397fc1a8a88888888600860009054906101000a900473ffffffffffffffffffffffffffffffffffffffff16308a6040518863ffffffff1660e01b815260040161072497969594939291906120d8565b6020604051808303816000875af1158015610743573d6000803e3d6000fd5b505050506040513d601f19601f82011682018060405250810190610767919061218d565b6107a6576040517f08c379a000000000000000000000000000000000000000000000000000000000815260040161079d90612206565b60405180910390fd5b7fd49738fe47a44aa2d22d13ae3619a4efba4dd917732549390d6fb0a85b71fcfd828689896040516107db9493929190612226565b60405180910390a15095945050505050565b60056020528060005260406000206000915054906101000a900473ffffffffffffffffffffffffffffffffffffffff1681565b606060048054806020026020016040519081016040528092919081815260200182805480156108a457602002820191906000526020600020905b8160009054906101000a900473ffffffffffffffffffffffffffffffffffffffff1673ffffffffffffffffffffffffffffffffffffffff168152602001906001019080831161085a575b5050505050905090565b6000808260601b90506040517f3d602d80600a3d3981f3363d3d373d3d3d363d7300000000000000000000000081528160148201527f5af43d82803e903d91602b57fd5bf3000000000000000000000000000000000060288201526037816000f09250507f117c72e6c25f0a072e36e148df71468ce2f3dbe7defec5b2c257a6e3eb65278c826040516109419190611a8a565b60405180910390a150919050565b6000600154905090565b606060005b600154811015610ad85760036000600483815481106109805761097f612279565b5b9060005260206000200160009054906101000a900473ffffffffffffffffffffffffffffffffffffffff1673ffffffffffffffffffffffffffffffffffffffff1673ffffffffffffffffffffffffffffffffffffffff16815260200190815260200160002060009054906101000a900473ffffffffffffffffffffffffffffffffffffffff1673ffffffffffffffffffffffffffffffffffffffff168373ffffffffffffffffffffffffffffffffffffffff1603610ac55760048181548110610a4c57610a4b612279565b5b9060005260206000200160009054906101000a900473ffffffffffffffffffffffffffffffffffffffff16828281518110610a8a57610a89612279565b5b602002602001019073ffffffffffffffffffffffffffffffffffffffff16908173ffffffffffffffffffffffffffffffffffffffff16815250505b8080610ad0906122d7565b91505061095e565b50919050565b610ae6611690565b610af0600061170e565b565b60066020528060005260406000206000915054906101000a900473ffffffffffffffffffffffffffffffffffffffff1681565b60078181548110610b3557600080fd5b906000526020600020016000915054906101000a900473ffffffffffffffffffffffffffffffffffffffff1681565b60008060009054906101000a900473ffffffffffffffffffffffffffffffffffffffff16905090565b6000600a60000160009054906101000a900473ffffffffffffffffffffffffffffffffffffffff16905090565b6000610be7836000015184602001518560400151866060015187608001518860a001518960c001516110b8565b9050600081905060018173ffffffffffffffffffffffffffffffffffffffff166370a08231336040518263ffffffff1660e01b8152600401610c299190611a8a565b602060405180830381865afa158015610c46573d6000803e3d6000fd5b505050506040513d601f19601f82011682018060405250810190610c6a9190612334565b14610caa576040517f08c379a0000000000000000000000000000000000000000000000000000000008152600401610ca1906123ad565b60405180910390fd5b6000610cc78560e0015186610100015133868961012001516104b8565b90508173ffffffffffffffffffffffffffffffffffffffff16639dfbe3bf826040518263ffffffff1660e01b8152600401610d029190611a8a565b600060405180830381600087803b158015610d1c57600080fd5b505af1158015610d30573d6000803e3d6000fd5b505050506000819050600a8173ffffffffffffffffffffffffffffffffffffffff166370a08231336040518263ffffffff1660e01b8152600401610d749190611a8a565b602060405180830381865afa158015610d91573d6000803e3d6000fd5b505050506040513d601f19601f82011682018060405250810190610db59190612334565b14610df5576040517f08c379a0000000000000000000000000000000000000000000000000000000008152600401610dec90612419565b60405180910390fd5b60008173ffffffffffffffffffffffffffffffffffffffff1663276afcae87662386f26fc1000060006040518463ffffffff1660e01b8152600401610e3c939291906124b9565b6020604051808303816000875af1158015610e5b573d6000803e3d6000fd5b505050506040513d601f19601f82011682018060405250810190610e7f9190612526565b905060008690508073ffffffffffffffffffffffffffffffffffffffff16636b027bfa836040518263ffffffff1660e01b8152600401610ebf9190612562565b602060405180830381865afa158015610edc573d6000803e3d6000fd5b505050506040513d601f19601f82011682018060405250810190610f00919061218d565b610f3f576040517f08c379a0000000000000000000000000000000000000000000000000000000008152600401610f36906125c9565b60405180910390fd5b8273ffffffffffffffffffffffffffffffffffffffff16637d6c32c13389670de0b6b3a76400006040518463ffffffff1660e01b8152600401610f8493929190612624565b600060405180830381600087803b158015610f9e57600080fd5b505af1158015610fb2573d6000803e3d6000fd5b50505050670de0b6b3a76400008373ffffffffffffffffffffffffffffffffffffffff1663dd62ed3e338a6040518363ffffffff1660e01b8152600401610ffa92919061265b565b602060405180830381865afa158015611017573d6000803e3d6000fd5b505050506040513d601f19601f8201168201806040525081019061103b9190612334565b1461107b576040517f08c379a0000000000000000000000000000000000000000000000000000000008152600401611072906126f6565b60405180910390fd5b5050505050505050565b60036020528060005260406000206000915054906101000a900473ffffffffffffffffffffffffffffffffffffffff1681565b60008073ffffffffffffffffffffffffffffffffffffffff16600960000160009054906101000a900473ffffffffffffffffffffffffffffffffffffffff1673ffffffffffffffffffffffffffffffffffffffff160361114d576040517f08c379a000000000000000000000000000000000000000000000000000000000815260040161114490612788565b60405180910390fd5b600960000160149054906101000a900460ff1661119f576040517f08c379a00000000000000000000000000000000000000000000000000000000081526004016111969061281a565b60405180910390fd5b600073ffffffffffffffffffffffffffffffffffffffff163373ffffffffffffffffffffffffffffffffffffffff160361120e576040517f08c379a000000000000000000000000000000000000000000000000000000000815260040161120590612886565b60405180910390fd5b61123c600960000160009054906101000a900473ffffffffffffffffffffffffffffffffffffffff166108ae565b9050600073ffffffffffffffffffffffffffffffffffffffff168173ffffffffffffffffffffffffffffffffffffffff16036112ad576040517f08c379a00000000000000000000000000000000000000000000000000000000081526004016112a490612918565b60405180910390fd5b6004819080600181540180825580915050600190039060005260206000200160009091909190916101000a81548173ffffffffffffffffffffffffffffffffffffffff021916908373ffffffffffffffffffffffffffffffffffffffff16021790555080600260008373ffffffffffffffffffffffffffffffffffffffff1673ffffffffffffffffffffffffffffffffffffffff16815260200190815260200160002060006101000a81548173ffffffffffffffffffffffffffffffffffffffff021916908373ffffffffffffffffffffffffffffffffffffffff16021790555033600360008373ffffffffffffffffffffffffffffffffffffffff1673ffffffffffffffffffffffffffffffffffffffff16815260200190815260200160002060006101000a81548173ffffffffffffffffffffffffffffffffffffffff021916908373ffffffffffffffffffffffffffffffffffffffff160217905550600180600082825461141e9190612938565b925050819055506000819050600115158173ffffffffffffffffffffffffffffffffffffffff16637cec4c7c33308d8d8d8d8d8d8d6040518a63ffffffff1660e01b81526004016114779998979695949392919061296c565b6020604051808303816000875af1158015611496573d6000803e3d6000fd5b505050506040513d601f19601f820116820180604052508101906114ba919061218d565b1515146114fc576040517f08c379a00000000000000000000000000000000000000000000000000000000081526004016114f390612a9c565b60405180910390fd5b7f46f5e3cee761854fc3892024ae7aa2c832007dff583603ce093f177ebd9c4c9682600960000160009054906101000a900473ffffffffffffffffffffffffffffffffffffffff168b338c8c60405161155a96959493929190612abc565b60405180910390a150979650505050505050565b6000600960000160009054906101000a900473ffffffffffffffffffffffffffffffffffffffff16905090565b60026020528060005260406000206000915054906101000a900473ffffffffffffffffffffffffffffffffffffffff1681565b600481815481106115de57600080fd5b906000526020600020016000915054906101000a900473ffffffffffffffffffffffffffffffffffffffff1681565b611615611690565b600073ffffffffffffffffffffffffffffffffffffffff168173ffffffffffffffffffffffffffffffffffffffff1603611684576040517f08c379a000000000000000000000000000000000000000000000000000000000815260040161167b90612ba4565b60405180910390fd5b61168d8161170e565b50565b6116986117d2565b73ffffffffffffffffffffffffffffffffffffffff166116b6610b64565b73ffffffffffffffffffffffffffffffffffffffff161461170c576040517f08c379a000000000000000000000000000000000000000000000000000000000815260040161170390612c10565b60405180910390fd5b565b60008060009054906101000a900473ffffffffffffffffffffffffffffffffffffffff169050816000806101000a81548173ffffffffffffffffffffffffffffffffffffffff021916908373ffffffffffffffffffffffffffffffffffffffff1602179055508173ffffffffffffffffffffffffffffffffffffffff168173ffffffffffffffffffffffffffffffffffffffff167f8be0079c531659141344cd1fd0a4f28419497f9722a3daafe3b4186f6b6457e060405160405180910390a35050565b600033905090565b6000604051905090565b600080fd5b600080fd5b600080fd5b600080fd5b6000601f19601f8301169050919050565b7f4e487b7100000000000000000000000000000000000000000000000000000000600052604160045260246000fd5b611841826117f8565b810181811067ffffffffffffffff821117156118605761185f611809565b5b80604052505050565b60006118736117da565b905061187f8282611838565b919050565b600067ffffffffffffffff82111561189f5761189e611809565b5b6118a8826117f8565b9050602081019050919050565b82818337600083830152505050565b60006118d76118d284611884565b611869565b9050828152602081018484840111156118f3576118f26117f3565b5b6118fe8482856118b5565b509392505050565b600082601f83011261191b5761191a6117ee565b5b813561192b8482602086016118c4565b91505092915050565b600073ffffffffffffffffffffffffffffffffffffffff82169050919050565b600061195f82611934565b9050919050565b61196f81611954565b811461197a57600080fd5b50565b60008135905061198c81611966565b92915050565b6000819050919050565b6119a581611992565b81146119b057600080fd5b50565b6000813590506119c28161199c565b92915050565b600080600080600060a086880312156119e4576119e36117e4565b5b600086013567ffffffffffffffff811115611a0257611a016117e9565b5b611a0e88828901611906565b955050602086013567ffffffffffffffff811115611a2f57611a2e6117e9565b5b611a3b88828901611906565b9450506040611a4c8882890161197d565b9350506060611a5d8882890161197d565b9250506080611a6e888289016119b3565b9150509295509295909350565b611a8481611954565b82525050565b6000602082019050611a9f6000830184611a7b565b92915050565b600060208284031215611abb57611aba6117e4565b5b6000611ac98482850161197d565b91505092915050565b600081519050919050565b600082825260208201905092915050565b6000819050602082019050919050565b611b0781611954565b82525050565b6000611b198383611afe565b60208301905092915050565b6000602082019050919050565b6000611b3d82611ad2565b611b478185611add565b9350611b5283611aee565b8060005b83811015611b83578151611b6a8882611b0d565b9750611b7583611b25565b925050600181019050611b56565b5085935050505092915050565b60006020820190508181036000830152611baa8184611b32565b905092915050565b611bbb81611992565b82525050565b6000602082019050611bd66000830184611bb2565b92915050565b600060208284031215611bf257611bf16117e4565b5b6000611c00848285016119b3565b91505092915050565b600080fd5b600080fd5b60006101408284031215611c2a57611c29611c09565b5b611c35610140611869565b9050600082013567ffffffffffffffff811115611c5557611c54611c0e565b5b611c6184828501611906565b600083015250602082013567ffffffffffffffff811115611c8557611c84611c0e565b5b611c9184828501611906565b602083015250604082013567ffffffffffffffff811115611cb557611cb4611c0e565b5b611cc184828501611906565b604083015250606082013567ffffffffffffffff811115611ce557611ce4611c0e565b5b611cf184828501611906565b606083015250608082013567ffffffffffffffff811115611d1557611d14611c0e565b5b611d2184828501611906565b60808301525060a082013567ffffffffffffffff811115611d4557611d44611c0e565b5b611d5184828501611906565b60a08301525060c082013567ffffffffffffffff811115611d7557611d74611c0e565b5b611d8184828501611906565b60c08301525060e082013567ffffffffffffffff811115611da557611da4611c0e565b5b611db184828501611906565b60e08301525061010082013567ffffffffffffffff811115611dd657611dd5611c0e565b5b611de284828501611906565b61010083015250610120611df8848285016119b3565b6101208301525092915050565b60008060408385031215611e1c57611e1b6117e4565b5b600083013567ffffffffffffffff811115611e3a57611e396117e9565b5b611e4685828601611c13565b9250506020611e578582860161197d565b9150509250929050565b600080600080600080600060e0888a031215611e8057611e7f6117e4565b5b600088013567ffffffffffffffff811115611e9e57611e9d6117e9565b5b611eaa8a828b01611906565b975050602088013567ffffffffffffffff811115611ecb57611eca6117e9565b5b611ed78a828b01611906565b965050604088013567ffffffffffffffff811115611ef857611ef76117e9565b5b611f048a828b01611906565b955050606088013567ffffffffffffffff811115611f2557611f246117e9565b5b611f318a828b01611906565b945050608088013567ffffffffffffffff811115611f5257611f516117e9565b5b611f5e8a828b01611906565b93505060a088013567ffffffffffffffff811115611f7f57611f7e6117e9565b5b611f8b8a828b01611906565b92505060c088013567ffffffffffffffff811115611fac57611fab6117e9565b5b611fb88a828b01611906565b91505092959891949750929550565b600082825260208201905092915050565b7f6465706c6f794552433230436f6e74726163743a204661696c656420746f206460008201527f65706c6f79206e657720455243323020636f6e74726163740000000000000000602082015250565b6000612034603883611fc7565b915061203f82611fd8565b604082019050919050565b6000602082019050818103600083015261206381612027565b9050919050565b600081519050919050565b60005b83811015612093578082015181840152602081019050612078565b60008484015250505050565b60006120aa8261206a565b6120b48185611fc7565b93506120c4818560208601612075565b6120cd816117f8565b840191505092915050565b600060e08201905081810360008301526120f2818a61209f565b90508181036020830152612106818961209f565b90506121156040830188611a7b565b6121226060830187611a7b565b61212f6080830186611a7b565b61213c60a0830185611a7b565b61214960c0830184611bb2565b98975050505050505050565b60008115159050919050565b61216a81612155565b811461217557600080fd5b50565b60008151905061218781612161565b92915050565b6000602082840312156121a3576121a26117e4565b5b60006121b184828501612178565b91505092915050565b7f445420696e697469616c697a6174696f6e206661696c65642100000000000000600082015250565b60006121f0601983611fc7565b91506121fb826121ba565b602082019050919050565b6000602082019050818103600083015261221f816121e3565b9050919050565b600060808201905061223b6000830187611a7b565b6122486020830186611a7b565b818103604083015261225a818561209f565b9050818103606083015261226e818461209f565b905095945050505050565b7f4e487b7100000000000000000000000000000000000000000000000000000000600052603260045260246000fd5b7f4e487b7100000000000000000000000000000000000000000000000000000000600052601160045260246000fd5b60006122e282611992565b91507fffffffffffffffffffffffffffffffffffffffffffffffffffffffffffffffff8203612314576123136122a8565b5b600182019050919050565b60008151905061232e8161199c565b92915050565b60006020828403121561234a576123496117e4565b5b60006123588482850161231f565b91505092915050565b7f4e4654206e6f74206d696e746564000000000000000000000000000000000000600082015250565b6000612397600e83611fc7565b91506123a282612361565b602082019050919050565b600060208201905081810360008301526123c68161238a565b9050919050565b7f4d696e74206f6620445473206661696c65640000000000000000000000000000600082015250565b6000612403601283611fc7565b915061240e826123cd565b602082019050919050565b60006020820190508181036000830152612432816123f6565b9050919050565b6000819050919050565b6000819050919050565b600061246861246361245e84612439565b612443565b611992565b9050919050565b6124788161244d565b82525050565b6000819050919050565b60006124a361249e6124998461247e565b612443565b611992565b9050919050565b6124b381612488565b82525050565b60006060820190506124ce6000830186611a7b565b6124db602083018561246f565b6124e860408301846124aa565b949350505050565b6000819050919050565b612503816124f0565b811461250e57600080fd5b50565b600081519050612520816124fa565b92915050565b60006020828403121561253c5761253b6117e4565b5b600061254a84828501612511565b91505092915050565b61255c816124f0565b82525050565b60006020820190506125776000830184612553565b92915050565b7f465245206e6f74206163746976617465642e2041626f7274696e670000000000600082015250565b60006125b3601b83611fc7565b91506125be8261257d565b602082019050919050565b600060208201905081810360008301526125e2816125a6565b9050919050565b6000819050919050565b600061260e612609612604846125e9565b612443565b611992565b9050919050565b61261e816125f3565b82525050565b60006060820190506126396000830186611a7b565b6126466020830185611a7b565b6126536040830184612615565b949350505050565b60006040820190506126706000830185611a7b565b61267d6020830184611a7b565b9392505050565b7f416c6c6f77616e636520646f6573206e6f74206d6174636820617070726f766560008201527f642076616c756500000000000000000000000000000000000000000000000000602082015250565b60006126e0602783611fc7565b91506126eb82612684565b604082019050919050565b6000602082019050818103600083015261270f816126d3565b9050919050565b7f4465706c6f794552373231436f6e74726163743a20696e76616c69642062617360008201527f6520616464726573730000000000000000000000000000000000000000000000602082015250565b6000612772602983611fc7565b915061277d82612716565b604082019050919050565b600060208201905081810360008301526127a181612765565b9050919050565b7f4465706c6f79455243373231436f6e74726163743a204261736520636f6e747260008201527f616374206e6f7420616374697665000000000000000000000000000000000000602082015250565b6000612804602e83611fc7565b915061280f826127a8565b604082019050919050565b60006020820190508181036000830152612833816127f7565b9050919050565b7f616464726573732830292063616e6e6f7420626520616e206f776e6572000000600082015250565b6000612870601d83611fc7565b915061287b8261283a565b602082019050919050565b6000602082019050818103600083015261289f81612863565b9050919050565b7f6465706c6f79455243373231436f6e74726163743a204661696c656420746f2060008201527f6465706c6f79206e65772045524337323120636f6e7472616374000000000000602082015250565b6000612902603a83611fc7565b915061290d826128a6565b604082019050919050565b60006020820190508181036000830152612931816128f5565b9050919050565b600061294382611992565b915061294e83611992565b9250828201905080821115612966576129656122a8565b5b92915050565b600061012082019050612982600083018c611a7b565b61298f602083018b611a7b565b81810360408301526129a1818a61209f565b905081810360608301526129b5818961209f565b905081810360808301526129c9818861209f565b905081810360a08301526129dd818761209f565b905081810360c08301526129f1818661209f565b905081810360e0830152612a05818561209f565b9050818103610100830152612a1a818461209f565b90509a9950505050505050505050565b7f466163746f72793a20436f756c64206e6f7420696e697469616c697a65204e6560008201527f77204e465420636f6e7472616374000000000000000000000000000000000000602082015250565b6000612a86602e83611fc7565b9150612a9182612a2a565b604082019050919050565b60006020820190508181036000830152612ab581612a79565b9050919050565b600060c082019050612ad16000830189611a7b565b612ade6020830188611a7b565b8181036040830152612af0818761209f565b9050612aff6060830186611a7b565b8181036080830152612b11818561209f565b905081810360a0830152612b25818461209f565b9050979650505050505050565b7f4f776e61626c653a206e6577206f776e657220697320746865207a65726f206160008201527f6464726573730000000000000000000000000000000000000000000000000000602082015250565b6000612b8e602683611fc7565b9150612b9982612b32565b604082019050919050565b60006020820190508181036000830152612bbd81612b81565b9050919050565b7f4f776e61626c653a2063616c6c6572206973206e6f7420746865206f776e6572600082015250565b6000612bfa602083611fc7565b9150612c0582612bc4565b602082019050919050565b60006020820190508181036000830152612c2981612bed565b905091905056fea26469706673582212205201f2b53228c5ddb47def8cbf6e2a212c241b5bb89ec6c85dec2f27e9b1bea164736f6c63430008120033",
  "linkReferences": {},
  "deployedLinkReferences": {}
}