{
  "_format": "hh-sol-artifact-1",
  "contractName": "ERC721Factory",
  "sourceName": "contracts/ERC721Factory.sol",
  "abi": [
    {
      "inputs": [
        {
          "internalType": "address",
          "name": "_base721Address",
          "type": "address"
        },
        {
          "internalType": "address",
          "name": "_base20Address",
          "type": "address"
        },
        {
          "internalType": "address",
          "name": "router_",
          "type": "address"
        }
      ],
      "stateMutability": "nonpayable",
      "type": "constructor"
    },
    {
      "anonymous": false,
      "inputs": [
        {
          "indexed": true,
          "internalType": "address",
          "name": "_baseAddress",
          "type": "address"
        },
        {
          "indexed": false,
          "internalType": "bool",
          "name": "_isActive",
          "type": "bool"
        }
      ],
      "name": "Base721Added",
      "type": "event"
    },
    {
      "anonymous": false,
      "inputs": [
        {
          "indexed": false,
          "internalType": "address",
          "name": "contractAddress",
          "type": "address"
        },
        {
          "indexed": false,
          "internalType": "address",
          "name": "contractOwner",
          "type": "address"
        },
        {
          "indexed": false,
          "internalType": "string",
          "name": "name",
          "type": "string"
        },
        {
          "indexed": false,
          "internalType": "string",
          "name": "symbol",
          "type": "string"
        }
      ],
      "name": "ERC20ContractDeployed",
      "type": "event"
    },
    {
      "anonymous": false,
      "inputs": [
        {
          "indexed": false,
          "internalType": "address",
          "name": "instance",
          "type": "address"
        }
      ],
      "name": "InstanceDeployed",
      "type": "event"
    },
    {
      "anonymous": false,
      "inputs": [
        {
          "indexed": false,
          "internalType": "address",
          "name": "newTokenAddress",
          "type": "address"
        },
        {
          "indexed": false,
          "internalType": "address",
          "name": "templateAddress",
          "type": "address"
        },
        {
          "indexed": false,
          "internalType": "string",
          "name": "tokenName",
          "type": "string"
        },
        {
          "indexed": false,
          "internalType": "address",
          "name": "admin",
          "type": "address"
        },
        {
          "indexed": false,
          "internalType": "string",
          "name": "symbol",
          "type": "string"
        },
        {
          "indexed": false,
          "internalType": "string",
          "name": "tokenURI",
          "type": "string"
        }
      ],
      "name": "NFTCreated",
      "type": "event"
    },
    {
      "anonymous": false,
      "inputs": [
        {
          "indexed": true,
          "internalType": "address",
          "name": "previousOwner",
          "type": "address"
        },
        {
          "indexed": true,
          "internalType": "address",
          "name": "newOwner",
          "type": "address"
        }
      ],
      "name": "OwnershipTransferred",
      "type": "event"
    },
    {
      "stateMutability": "payable",
      "type": "fallback"
    },
    {
      "inputs": [
        {
          "internalType": "address",
          "name": "",
          "type": "address"
        }
      ],
      "name": "createdERC20List",
      "outputs": [
        {
          "internalType": "address",
          "name": "",
          "type": "address"
        }
      ],
      "stateMutability": "view",
      "type": "function"
    },
    {
      "inputs": [
        {
          "internalType": "address",
          "name": "",
          "type": "address"
        }
      ],
      "name": "createdERC721List",
      "outputs": [
        {
          "internalType": "address",
          "name": "",
          "type": "address"
        }
      ],
      "stateMutability": "view",
      "type": "function"
    },
    {
      "inputs": [
        {
          "internalType": "address",
          "name": "_logic",
          "type": "address"
        }
      ],
      "name": "deploy",
      "outputs": [
        {
          "internalType": "address",
          "name": "instance",
          "type": "address"
        }
      ],
      "stateMutability": "nonpayable",
      "type": "function"
    },
    {
      "inputs": [
        {
          "internalType": "string",
          "name": "name_",
          "type": "string"
        },
        {
          "internalType": "string",
          "name": "symbol_",
          "type": "string"
        },
        {
          "internalType": "address",
          "name": "owner_",
          "type": "address"
        },
        {
          "internalType": "uint256",
          "name": "maxSupply_",
          "type": "uint256"
        }
      ],
      "name": "deployERC20Contract",
      "outputs": [
        {
          "internalType": "address",
          "name": "erc20Instance",
          "type": "address"
        }
      ],
      "stateMutability": "nonpayable",
      "type": "function"
    },
    {
      "inputs": [
        {
          "internalType": "string",
          "name": "name",
          "type": "string"
        },
        {
          "internalType": "string",
          "name": "symbol",
          "type": "string"
        },
        {
          "internalType": "string",
          "name": "tokenURI",
          "type": "string"
        },
        {
          "internalType": "string",
          "name": "asset_download_URL",
          "type": "string"
        },
        {
          "internalType": "string",
          "name": "asset_hash",
          "type": "string"
        },
        {
          "internalType": "string",
          "name": "offering_hash",
          "type": "string"
        },
        {
          "internalType": "string",
          "name": "trust_sign",
          "type": "string"
        }
      ],
      "name": "deployERC721Contract",
      "outputs": [],
      "stateMutability": "nonpayable",
      "type": "function"
    },
    {
      "inputs": [
        {
          "internalType": "address",
          "name": "",
          "type": "address"
        }
      ],
      "name": "eRC20_to_owner",
      "outputs": [
        {
          "internalType": "address",
          "name": "",
          "type": "address"
        }
      ],
      "stateMutability": "view",
      "type": "function"
    },
    {
      "inputs": [
        {
          "internalType": "address",
          "name": "",
          "type": "address"
        }
      ],
      "name": "eRC721_to_owner",
      "outputs": [
        {
          "internalType": "address",
          "name": "",
          "type": "address"
        }
      ],
      "stateMutability": "view",
      "type": "function"
    },
    {
      "inputs": [
        {
          "internalType": "uint256",
          "name": "",
          "type": "uint256"
        }
      ],
      "name": "erc20addresses",
      "outputs": [
        {
          "internalType": "address",
          "name": "",
          "type": "address"
        }
      ],
      "stateMutability": "view",
      "type": "function"
    },
    {
      "inputs": [
        {
          "internalType": "uint256",
          "name": "",
          "type": "uint256"
        }
      ],
      "name": "erc721addresses",
      "outputs": [
        {
          "internalType": "address",
          "name": "",
          "type": "address"
        }
      ],
      "stateMutability": "view",
      "type": "function"
    },
    {
      "inputs": [],
      "name": "getAllNFTCreatedAddress",
      "outputs": [
        {
          "internalType": "address[]",
          "name": "",
          "type": "address[]"
        }
      ],
      "stateMutability": "view",
      "type": "function"
    },
    {
      "inputs": [],
      "name": "getBase20ContractAddress",
      "outputs": [
        {
          "internalType": "address",
          "name": "",
          "type": "address"
        }
      ],
      "stateMutability": "view",
      "type": "function"
    },
    {
      "inputs": [],
      "name": "getBase721ContractAddress",
      "outputs": [
        {
          "internalType": "address",
          "name": "",
          "type": "address"
        }
      ],
      "stateMutability": "view",
      "type": "function"
    },
    {
      "inputs": [
        {
          "internalType": "address",
          "name": "creator",
          "type": "address"
        }
      ],
      "name": "getNFTCreatedAddress",
      "outputs": [
        {
          "internalType": "address[]",
          "name": "ret",
          "type": "address[]"
        }
      ],
      "stateMutability": "view",
      "type": "function"
    },
    {
      "inputs": [],
      "name": "getNFTCreatedCount",
      "outputs": [
        {
          "internalType": "uint256",
          "name": "",
          "type": "uint256"
        }
      ],
      "stateMutability": "view",
      "type": "function"
    },
    {
      "inputs": [],
      "name": "owner",
      "outputs": [
        {
          "internalType": "address",
          "name": "",
          "type": "address"
        }
      ],
      "stateMutability": "view",
      "type": "function"
    },
    {
      "inputs": [],
      "name": "renounceOwnership",
      "outputs": [],
      "stateMutability": "nonpayable",
      "type": "function"
    },
    {
      "inputs": [
        {
          "internalType": "address",
          "name": "newOwner",
          "type": "address"
        }
      ],
      "name": "transferOwnership",
      "outputs": [],
      "stateMutability": "nonpayable",
      "type": "function"
    },
    {
      "stateMutability": "payable",
      "type": "receive"
    }
  ],
  "bytecode": "0x60806040523480156200001157600080fd5b50604051620030a4380380620030a4833981810160405281019062000037919062000827565b620000576200004b6200022160201b60201c565b6200022960201b60201c565b600073ffffffffffffffffffffffffffffffffffffffff168373ffffffffffffffffffffffffffffffffffffffff1603620000c9576040517f08c379a0000000000000000000000000000000000000000000000000000000008152600401620000c0906200090a565b60405180910390fd5b600073ffffffffffffffffffffffffffffffffffffffff168273ffffffffffffffffffffffffffffffffffffffff16036200013b576040517f08c379a000000000000000000000000000000000000000000000000000000000815260040162000132906200090a565b60405180910390fd5b600073ffffffffffffffffffffffffffffffffffffffff168173ffffffffffffffffffffffffffffffffffffffff1603620001ad576040517f08c379a0000000000000000000000000000000000000000000000000000000008152600401620001a4906200097c565b60405180910390fd5b6000600181905550620001c683620002ed60201b60201c565b620001d782620004e660201b60201c565b80600860006101000a81548173ffffffffffffffffffffffffffffffffffffffff021916908373ffffffffffffffffffffffffffffffffffffffff16021790555050505062000b7a565b600033905090565b60008060009054906101000a900473ffffffffffffffffffffffffffffffffffffffff169050816000806101000a81548173ffffffffffffffffffffffffffffffffffffffff021916908373ffffffffffffffffffffffffffffffffffffffff1602179055508173ffffffffffffffffffffffffffffffffffffffff168173ffffffffffffffffffffffffffffffffffffffff167f8be0079c531659141344cd1fd0a4f28419497f9722a3daafe3b4186f6b6457e060405160405180910390a35050565b620002fd620006df60201b60201c565b600073ffffffffffffffffffffffffffffffffffffffff168173ffffffffffffffffffffffffffffffffffffffff16036200036f576040517f08c379a0000000000000000000000000000000000000000000000000000000008152600401620003669062000a14565b60405180910390fd5b62000380816200077060201b60201c565b620003c2576040517f08c379a0000000000000000000000000000000000000000000000000000000008152600401620003b99062000aac565b60405180910390fd5b60405180604001604052808273ffffffffffffffffffffffffffffffffffffffff16815260200160011515815250600960008201518160000160006101000a81548173ffffffffffffffffffffffffffffffffffffffff021916908373ffffffffffffffffffffffffffffffffffffffff16021790555060208201518160000160146101000a81548160ff021916908315150217905550905050600960000160009054906101000a900473ffffffffffffffffffffffffffffffffffffffff1673ffffffffffffffffffffffffffffffffffffffff167f613fb6702f05dcf998e225eaea1cdff4f649bce43a6b0907bfa454c0e1977df9600960000160149054906101000a900460ff16604051620004db919062000aeb565b60405180910390a250565b620004f6620006df60201b60201c565b600073ffffffffffffffffffffffffffffffffffffffff168173ffffffffffffffffffffffffffffffffffffffff160362000568576040517f08c379a00000000000000000000000000000000000000000000000000000000081526004016200055f9062000a14565b60405180910390fd5b62000579816200077060201b60201c565b620005bb576040517f08c379a0000000000000000000000000000000000000000000000000000000008152600401620005b29062000aac565b60405180910390fd5b60405180604001604052808273ffffffffffffffffffffffffffffffffffffffff16815260200160011515815250600a60008201518160000160006101000a81548173ffffffffffffffffffffffffffffffffffffffff021916908373ffffffffffffffffffffffffffffffffffffffff16021790555060208201518160000160146101000a81548160ff021916908315150217905550905050600a60000160009054906101000a900473ffffffffffffffffffffffffffffffffffffffff1673ffffffffffffffffffffffffffffffffffffffff167f613fb6702f05dcf998e225eaea1cdff4f649bce43a6b0907bfa454c0e1977df9600a60000160149054906101000a900460ff16604051620006d4919062000aeb565b60405180910390a250565b620006ef6200022160201b60201c565b73ffffffffffffffffffffffffffffffffffffffff16620007156200079460201b60201c565b73ffffffffffffffffffffffffffffffffffffffff16146200076e576040517f08c379a0000000000000000000000000000000000000000000000000000000008152600401620007659062000b58565b60405180910390fd5b565b600062000782620006df60201b60201c565b6000823b905060008111915050919050565b60008060009054906101000a900473ffffffffffffffffffffffffffffffffffffffff16905090565b600080fd5b600073ffffffffffffffffffffffffffffffffffffffff82169050919050565b6000620007ef82620007c2565b9050919050565b6200080181620007e2565b81146200080d57600080fd5b50565b6000815190506200082181620007f6565b92915050565b600080600060608486031215620008435762000842620007bd565b5b6000620008538682870162000810565b9350506020620008668682870162000810565b9250506040620008798682870162000810565b9150509250925092565b600082825260208201905092915050565b7f496e76616c6964204552433732314261736520636f6e7472616374206164647260008201527f6573730000000000000000000000000000000000000000000000000000000000602082015250565b6000620008f260238362000883565b9150620008ff8262000894565b604082019050919050565b600060208201905081810360008301526200092581620008e3565b9050919050565b7f496e76616c696420726f7574657220636f6e7472616374206164647265737300600082015250565b600062000964601f8362000883565b915062000971826200092c565b602082019050919050565b60006020820190508181036000830152620009978162000955565b9050919050565b7f41646472657373283029204e4f5420616c6c6f77656420666f7220626173652060008201527f4e4654636f6e7472616374000000000000000000000000000000000000000000602082015250565b6000620009fc602b8362000883565b915062000a09826200099e565b604082019050919050565b6000602082019050818103600083015262000a2f81620009ed565b9050919050565b7f50726f76696465642061646472657373206973204e4f54206120636f6e74726160008201527f6374000000000000000000000000000000000000000000000000000000000000602082015250565b600062000a9460228362000883565b915062000aa18262000a36565b604082019050919050565b6000602082019050818103600083015262000ac78162000a85565b9050919050565b60008115159050919050565b62000ae58162000ace565b82525050565b600060208201905062000b02600083018462000ada565b92915050565b7f4f776e61626c653a2063616c6c6572206973206e6f7420746865206f776e6572600082015250565b600062000b4060208362000883565b915062000b4d8262000b08565b602082019050919050565b6000602082019050818103600083015262000b738162000b31565b9050919050565b61251a8062000b8a6000396000f3fe6080604052600436106101025760003560e01c806380dfe2b711610095578063c991b96111610064578063c991b96114610379578063dfe845d5146103a2578063eb32c429146103cd578063ed63b8981461040a578063f2fde38b1461044757610109565b806380dfe2b7146102a95780638da5cb5b146102e6578063ade805cf14610311578063b7bad4751461033c57610109565b806356f46912116100d157806356f46912146101ed578063613543d214610218578063715018a614610255578063778ea4611461026c57610109565b806332f43b9e1461010b57806334cdb4cc146101485780633b4ac514146101855780634c96a389146101b057610109565b3661010957005b005b34801561011757600080fd5b50610132600480360381019061012d9190611548565b610470565b60405161013f9190611584565b60405180910390f35b34801561015457600080fd5b5061016f600480360381019061016a919061163a565b6104a3565b60405161017c9190611584565b60405180910390f35b34801561019157600080fd5b5061019a6109e7565b6040516101a7919061179f565b60405180910390f35b3480156101bc57600080fd5b506101d760048036038101906101d29190611548565b610a75565b6040516101e49190611584565b60405180910390f35b3480156101f957600080fd5b50610202610b16565b60405161020f91906117d0565b60405180910390f35b34801561022457600080fd5b5061023f600480360381019061023a9190611548565b610b20565b60405161024c919061179f565b60405180910390f35b34801561026157600080fd5b5061026a610ca5565b005b34801561027857600080fd5b50610293600480360381019061028e9190611548565b610cb9565b6040516102a09190611584565b60405180910390f35b3480156102b557600080fd5b506102d060048036038101906102cb91906117eb565b610cec565b6040516102dd9190611584565b60405180910390f35b3480156102f257600080fd5b506102fb610d2b565b6040516103089190611584565b60405180910390f35b34801561031d57600080fd5b50610326610d54565b6040516103339190611584565b60405180910390f35b34801561034857600080fd5b50610363600480360381019061035e9190611548565b610d81565b6040516103709190611584565b60405180910390f35b34801561038557600080fd5b506103a0600480360381019061039b9190611959565b610db4565b005b3480156103ae57600080fd5b506103b761126a565b6040516103c49190611584565b60405180910390f35b3480156103d957600080fd5b506103f460048036038101906103ef9190611548565b611297565b6040516104019190611584565b60405180910390f35b34801561041657600080fd5b50610431600480360381019061042c91906117eb565b6112ca565b60405161043e9190611584565b60405180910390f35b34801561045357600080fd5b5061046e60048036038101906104699190611548565b611309565b005b60056020528060005260406000206000915054906101000a900473ffffffffffffffffffffffffffffffffffffffff1681565b60003373ffffffffffffffffffffffffffffffffffffffff16600260003373ffffffffffffffffffffffffffffffffffffffff1673ffffffffffffffffffffffffffffffffffffffff16815260200190815260200160002060009054906101000a900473ffffffffffffffffffffffffffffffffffffffff1673ffffffffffffffffffffffffffffffffffffffff1614610572576040517f08c379a000000000000000000000000000000000000000000000000000000000815260040161056990611b68565b60405180910390fd5b600260003373ffffffffffffffffffffffffffffffffffffffff1673ffffffffffffffffffffffffffffffffffffffff16815260200190815260200160002060009054906101000a900473ffffffffffffffffffffffffffffffffffffffff1673ffffffffffffffffffffffffffffffffffffffff16635245f3bd6040518163ffffffff1660e01b8152600401602060405180830381865afa15801561061c573d6000803e3d6000fd5b505050506040513d601f19601f820116820180604052508101906106409190611b9d565b73ffffffffffffffffffffffffffffffffffffffff168373ffffffffffffffffffffffffffffffffffffffff16146106ad576040517f08c379a00000000000000000000000000000000000000000000000000000000081526004016106a490611c3c565b60405180910390fd5b6106db600a60000160009054906101000a900473ffffffffffffffffffffffffffffffffffffffff16610a75565b9050600073ffffffffffffffffffffffffffffffffffffffff168173ffffffffffffffffffffffffffffffffffffffff160361074c576040517f08c379a000000000000000000000000000000000000000000000000000000000815260040161074390611cce565b60405180910390fd5b6007819080600181540180825580915050600190039060005260206000200160009091909190916101000a81548173ffffffffffffffffffffffffffffffffffffffff021916908373ffffffffffffffffffffffffffffffffffffffff16021790555080600560008373ffffffffffffffffffffffffffffffffffffffff1673ffffffffffffffffffffffffffffffffffffffff16815260200190815260200160002060006101000a81548173ffffffffffffffffffffffffffffffffffffffff021916908373ffffffffffffffffffffffffffffffffffffffff16021790555082600660008373ffffffffffffffffffffffffffffffffffffffff1673ffffffffffffffffffffffffffffffffffffffff16815260200190815260200160002060006101000a81548173ffffffffffffffffffffffffffffffffffffffff021916908373ffffffffffffffffffffffffffffffffffffffff16021790555060008190508073ffffffffffffffffffffffffffffffffffffffff1663edf3e29e898989898933600860009054906101000a900473ffffffffffffffffffffffffffffffffffffffff168b6040518963ffffffff1660e01b8152600401610919989796959493929190611d1b565b6020604051808303816000875af1158015610938573d6000803e3d6000fd5b505050506040513d601f19601f8201168201806040525081019061095c9190611dc6565b61099b576040517f08c379a000000000000000000000000000000000000000000000000000000000815260040161099290611e3f565b60405180910390fd5b7fd49738fe47a44aa2d22d13ae3619a4efba4dd917732549390d6fb0a85b71fcfd82858a8a8a8a6040516109d496959493929190611e5f565b60405180910390a1509695505050505050565b60606004805480602002602001604051908101604052809291908181526020018280548015610a6b57602002820191906000526020600020905b8160009054906101000a900473ffffffffffffffffffffffffffffffffffffffff1673ffffffffffffffffffffffffffffffffffffffff1681526020019060010190808311610a21575b5050505050905090565b6000808260601b90506040517f3d602d80600a3d3981f3363d3d373d3d3d363d7300000000000000000000000081528160148201527f5af43d82803e903d91602b57fd5bf3000000000000000000000000000000000060288201526037816000f09250507f117c72e6c25f0a072e36e148df71468ce2f3dbe7defec5b2c257a6e3eb65278c82604051610b089190611584565b60405180910390a150919050565b6000600154905090565b606060005b600154811015610c9f576003600060048381548110610b4757610b46611eb6565b5b9060005260206000200160009054906101000a900473ffffffffffffffffffffffffffffffffffffffff1673ffffffffffffffffffffffffffffffffffffffff1673ffffffffffffffffffffffffffffffffffffffff16815260200190815260200160002060009054906101000a900473ffffffffffffffffffffffffffffffffffffffff1673ffffffffffffffffffffffffffffffffffffffff168373ffffffffffffffffffffffffffffffffffffffff1603610c8c5760048181548110610c1357610c12611eb6565b5b9060005260206000200160009054906101000a900473ffffffffffffffffffffffffffffffffffffffff16828281518110610c5157610c50611eb6565b5b602002602001019073ffffffffffffffffffffffffffffffffffffffff16908173ffffffffffffffffffffffffffffffffffffffff16815250505b8080610c9790611f14565b915050610b25565b50919050565b610cad61138c565b610cb7600061140a565b565b60066020528060005260406000206000915054906101000a900473ffffffffffffffffffffffffffffffffffffffff1681565b60078181548110610cfc57600080fd5b906000526020600020016000915054906101000a900473ffffffffffffffffffffffffffffffffffffffff1681565b60008060009054906101000a900473ffffffffffffffffffffffffffffffffffffffff16905090565b6000600a60000160009054906101000a900473ffffffffffffffffffffffffffffffffffffffff16905090565b60036020528060005260406000206000915054906101000a900473ffffffffffffffffffffffffffffffffffffffff1681565b600073ffffffffffffffffffffffffffffffffffffffff16600960000160009054906101000a900473ffffffffffffffffffffffffffffffffffffffff1673ffffffffffffffffffffffffffffffffffffffff1603610e48576040517f08c379a0000000000000000000000000000000000000000000000000000000008152600401610e3f90611fce565b60405180910390fd5b600960000160149054906101000a900460ff16610e9a576040517f08c379a0000000000000000000000000000000000000000000000000000000008152600401610e9190612060565b60405180910390fd5b600073ffffffffffffffffffffffffffffffffffffffff163373ffffffffffffffffffffffffffffffffffffffff1603610f09576040517f08c379a0000000000000000000000000000000000000000000000000000000008152600401610f00906120cc565b60405180910390fd5b6000610f39600960000160009054906101000a900473ffffffffffffffffffffffffffffffffffffffff16610a75565b9050600073ffffffffffffffffffffffffffffffffffffffff168173ffffffffffffffffffffffffffffffffffffffff1603610faa576040517f08c379a0000000000000000000000000000000000000000000000000000000008152600401610fa19061215e565b60405180910390fd5b6004819080600181540180825580915050600190039060005260206000200160009091909190916101000a81548173ffffffffffffffffffffffffffffffffffffffff021916908373ffffffffffffffffffffffffffffffffffffffff16021790555080600260008373ffffffffffffffffffffffffffffffffffffffff1673ffffffffffffffffffffffffffffffffffffffff16815260200190815260200160002060006101000a81548173ffffffffffffffffffffffffffffffffffffffff021916908373ffffffffffffffffffffffffffffffffffffffff16021790555033600360008373ffffffffffffffffffffffffffffffffffffffff1673ffffffffffffffffffffffffffffffffffffffff16815260200190815260200160002060006101000a81548173ffffffffffffffffffffffffffffffffffffffff021916908373ffffffffffffffffffffffffffffffffffffffff160217905550600180600082825461111b919061217e565b925050819055506000819050600115158173ffffffffffffffffffffffffffffffffffffffff16637cec4c7c33308d8d8d8d8d8d8d6040518a63ffffffff1660e01b815260040161117499989796959493929190612220565b6020604051808303816000875af1158015611193573d6000803e3d6000fd5b505050506040513d601f19601f820116820180604052508101906111b79190611dc6565b1515146111f9576040517f08c379a00000000000000000000000000000000000000000000000000000000081526004016111f090612350565b60405180910390fd5b7f46f5e3cee761854fc3892024ae7aa2c832007dff583603ce093f177ebd9c4c9682600960000160009054906101000a900473ffffffffffffffffffffffffffffffffffffffff168b338c8c60405161125796959493929190612370565b60405180910390a1505050505050505050565b6000600960000160009054906101000a900473ffffffffffffffffffffffffffffffffffffffff16905090565b60026020528060005260406000206000915054906101000a900473ffffffffffffffffffffffffffffffffffffffff1681565b600481815481106112da57600080fd5b906000526020600020016000915054906101000a900473ffffffffffffffffffffffffffffffffffffffff1681565b61131161138c565b600073ffffffffffffffffffffffffffffffffffffffff168173ffffffffffffffffffffffffffffffffffffffff1603611380576040517f08c379a000000000000000000000000000000000000000000000000000000000815260040161137790612458565b60405180910390fd5b6113898161140a565b50565b6113946114ce565b73ffffffffffffffffffffffffffffffffffffffff166113b2610d2b565b73ffffffffffffffffffffffffffffffffffffffff1614611408576040517f08c379a00000000000000000000000000000000000000000000000000000000081526004016113ff906124c4565b60405180910390fd5b565b60008060009054906101000a900473ffffffffffffffffffffffffffffffffffffffff169050816000806101000a81548173ffffffffffffffffffffffffffffffffffffffff021916908373ffffffffffffffffffffffffffffffffffffffff1602179055508173ffffffffffffffffffffffffffffffffffffffff168173ffffffffffffffffffffffffffffffffffffffff167f8be0079c531659141344cd1fd0a4f28419497f9722a3daafe3b4186f6b6457e060405160405180910390a35050565b600033905090565b6000604051905090565b600080fd5b600080fd5b600073ffffffffffffffffffffffffffffffffffffffff82169050919050565b6000611515826114ea565b9050919050565b6115258161150a565b811461153057600080fd5b50565b6000813590506115428161151c565b92915050565b60006020828403121561155e5761155d6114e0565b5b600061156c84828501611533565b91505092915050565b61157e8161150a565b82525050565b60006020820190506115996000830184611575565b92915050565b600080fd5b600080fd5b600080fd5b60008083601f8401126115c4576115c361159f565b5b8235905067ffffffffffffffff8111156115e1576115e06115a4565b5b6020830191508360018202830111156115fd576115fc6115a9565b5b9250929050565b6000819050919050565b61161781611604565b811461162257600080fd5b50565b6000813590506116348161160e565b92915050565b60008060008060008060808789031215611657576116566114e0565b5b600087013567ffffffffffffffff811115611675576116746114e5565b5b61168189828a016115ae565b9650965050602087013567ffffffffffffffff8111156116a4576116a36114e5565b5b6116b089828a016115ae565b945094505060406116c389828a01611533565b92505060606116d489828a01611625565b9150509295509295509295565b600081519050919050565b600082825260208201905092915050565b6000819050602082019050919050565b6117168161150a565b82525050565b6000611728838361170d565b60208301905092915050565b6000602082019050919050565b600061174c826116e1565b61175681856116ec565b9350611761836116fd565b8060005b83811015611792578151611779888261171c565b975061178483611734565b925050600181019050611765565b5085935050505092915050565b600060208201905081810360008301526117b98184611741565b905092915050565b6117ca81611604565b82525050565b60006020820190506117e560008301846117c1565b92915050565b600060208284031215611801576118006114e0565b5b600061180f84828501611625565b91505092915050565b600080fd5b6000601f19601f8301169050919050565b7f4e487b7100000000000000000000000000000000000000000000000000000000600052604160045260246000fd5b6118668261181d565b810181811067ffffffffffffffff821117156118855761188461182e565b5b80604052505050565b60006118986114d6565b90506118a4828261185d565b919050565b600067ffffffffffffffff8211156118c4576118c361182e565b5b6118cd8261181d565b9050602081019050919050565b82818337600083830152505050565b60006118fc6118f7846118a9565b61188e565b90508281526020810184848401111561191857611917611818565b5b6119238482856118da565b509392505050565b600082601f8301126119405761193f61159f565b5b81356119508482602086016118e9565b91505092915050565b600080600080600080600060e0888a031215611978576119776114e0565b5b600088013567ffffffffffffffff811115611996576119956114e5565b5b6119a28a828b0161192b565b975050602088013567ffffffffffffffff8111156119c3576119c26114e5565b5b6119cf8a828b0161192b565b965050604088013567ffffffffffffffff8111156119f0576119ef6114e5565b5b6119fc8a828b0161192b565b955050606088013567ffffffffffffffff811115611a1d57611a1c6114e5565b5b611a298a828b0161192b565b945050608088013567ffffffffffffffff811115611a4a57611a496114e5565b5b611a568a828b0161192b565b93505060a088013567ffffffffffffffff811115611a7757611a766114e5565b5b611a838a828b0161192b565b92505060c088013567ffffffffffffffff811115611aa457611aa36114e5565b5b611ab08a828b0161192b565b91505092959891949750929550565b600082825260208201905092915050565b7f43616c6c20636f6d696e672066726f6d2061206e6f6e206578697374696e672060008201527f4e465420636f6e7472616374206465706c6f796564206279207468697320666160208201527f63746f7279000000000000000000000000000000000000000000000000000000604082015250565b6000611b52604583611abf565b9150611b5d82611ad0565b606082019050919050565b60006020820190508181036000830152611b8181611b45565b9050919050565b600081519050611b978161151c565b92915050565b600060208284031215611bb357611bb26114e0565b5b6000611bc184828501611b88565b91505092915050565b7f50726f7669646564206d696e746572206973206e6f7420746865204e4654206f60008201527f776e657221000000000000000000000000000000000000000000000000000000602082015250565b6000611c26602583611abf565b9150611c3182611bca565b604082019050919050565b60006020820190508181036000830152611c5581611c19565b9050919050565b7f6465706c6f794552433230436f6e74726163743a204661696c656420746f206460008201527f65706c6f79206e657720455243323020636f6e74726163740000000000000000602082015250565b6000611cb8603883611abf565b9150611cc382611c5c565b604082019050919050565b60006020820190508181036000830152611ce781611cab565b9050919050565b6000611cfa8385611abf565b9350611d078385846118da565b611d108361181d565b840190509392505050565b600060c0820190508181036000830152611d36818a8c611cee565b90508181036020830152611d4b81888a611cee565b9050611d5a6040830187611575565b611d676060830186611575565b611d746080830185611575565b611d8160a08301846117c1565b9998505050505050505050565b60008115159050919050565b611da381611d8e565b8114611dae57600080fd5b50565b600081519050611dc081611d9a565b92915050565b600060208284031215611ddc57611ddb6114e0565b5b6000611dea84828501611db1565b91505092915050565b7f445420696e697469616c697a6174696f6e206661696c65642100000000000000600082015250565b6000611e29601983611abf565b9150611e3482611df3565b602082019050919050565b60006020820190508181036000830152611e5881611e1c565b9050919050565b6000608082019050611e746000830189611575565b611e816020830188611575565b8181036040830152611e94818688611cee565b90508181036060830152611ea9818486611cee565b9050979650505050505050565b7f4e487b7100000000000000000000000000000000000000000000000000000000600052603260045260246000fd5b7f4e487b7100000000000000000000000000000000000000000000000000000000600052601160045260246000fd5b6000611f1f82611604565b91507fffffffffffffffffffffffffffffffffffffffffffffffffffffffffffffffff8203611f5157611f50611ee5565b5b600182019050919050565b7f4465706c6f794552373231436f6e74726163743a20696e76616c69642062617360008201527f6520616464726573730000000000000000000000000000000000000000000000602082015250565b6000611fb8602983611abf565b9150611fc382611f5c565b604082019050919050565b60006020820190508181036000830152611fe781611fab565b9050919050565b7f4465706c6f79455243373231436f6e74726163743a204261736520636f6e747260008201527f616374206e6f7420616374697665000000000000000000000000000000000000602082015250565b600061204a602e83611abf565b915061205582611fee565b604082019050919050565b600060208201905081810360008301526120798161203d565b9050919050565b7f616464726573732830292063616e6e6f7420626520616e206f776e6572000000600082015250565b60006120b6601d83611abf565b91506120c182612080565b602082019050919050565b600060208201905081810360008301526120e5816120a9565b9050919050565b7f6465706c6f79455243373231436f6e74726163743a204661696c656420746f2060008201527f6465706c6f79206e65772045524337323120636f6e7472616374000000000000602082015250565b6000612148603a83611abf565b9150612153826120ec565b604082019050919050565b600060208201905081810360008301526121778161213b565b9050919050565b600061218982611604565b915061219483611604565b92508282019050808211156121ac576121ab611ee5565b5b92915050565b600081519050919050565b60005b838110156121db5780820151818401526020810190506121c0565b60008484015250505050565b60006121f2826121b2565b6121fc8185611abf565b935061220c8185602086016121bd565b6122158161181d565b840191505092915050565b600061012082019050612236600083018c611575565b612243602083018b611575565b8181036040830152612255818a6121e7565b9050818103606083015261226981896121e7565b9050818103608083015261227d81886121e7565b905081810360a083015261229181876121e7565b905081810360c08301526122a581866121e7565b905081810360e08301526122b981856121e7565b90508181036101008301526122ce81846121e7565b90509a9950505050505050505050565b7f466163746f72793a20436f756c64206e6f7420696e697469616c697a65204e6560008201527f77204e465420636f6e7472616374000000000000000000000000000000000000602082015250565b600061233a602e83611abf565b9150612345826122de565b604082019050919050565b600060208201905081810360008301526123698161232d565b9050919050565b600060c0820190506123856000830189611575565b6123926020830188611575565b81810360408301526123a481876121e7565b90506123b36060830186611575565b81810360808301526123c581856121e7565b905081810360a08301526123d981846121e7565b9050979650505050505050565b7f4f776e61626c653a206e6577206f776e657220697320746865207a65726f206160008201527f6464726573730000000000000000000000000000000000000000000000000000602082015250565b6000612442602683611abf565b915061244d826123e6565b604082019050919050565b6000602082019050818103600083015261247181612435565b9050919050565b7f4f776e61626c653a2063616c6c6572206973206e6f7420746865206f776e6572600082015250565b60006124ae602083611abf565b91506124b982612478565b602082019050919050565b600060208201905081810360008301526124dd816124a1565b905091905056fea2646970667358221220ba0cd646f482acbffa794093316d176063f075744c3ccd94cd53fa8a235d159264736f6c63430008120033",
  "linkReferences": {},
  "deployedLinkReferences": {}
}