{
  "_format": "hh-sol-artifact-1",
  "contractName": "ERC20Base",
  "sourceName": "contracts/ERC20Base.sol",
  "abi": [
    {
      "anonymous": false,
      "inputs": [
        {
          "indexed": true,
          "internalType": "address",
          "name": "owner",
          "type": "address"
        },
        {
          "indexed": true,
          "internalType": "address",
          "name": "spender",
          "type": "address"
        },
        {
          "indexed": false,
          "internalType": "uint256",
          "name": "value",
          "type": "uint256"
        }
      ],
      "name": "Approval",
      "type": "event"
    },
    {
      "anonymous": false,
      "inputs": [
        {
          "indexed": false,
          "internalType": "address",
          "name": "from",
          "type": "address"
        },
        {
          "indexed": false,
          "internalType": "address",
          "name": "buyer",
          "type": "address"
        },
        {
          "indexed": false,
          "internalType": "uint256",
          "name": "amountOfSMR",
          "type": "uint256"
        },
        {
          "indexed": false,
          "internalType": "uint256",
          "name": "amountOfTokens",
          "type": "uint256"
        }
      ],
      "name": "BuyDT",
      "type": "event"
    },
    {
      "anonymous": false,
      "inputs": [
        {
          "indexed": false,
          "internalType": "uint8",
          "name": "version",
          "type": "uint8"
        }
      ],
      "name": "Initialized",
      "type": "event"
    },
    {
      "anonymous": false,
      "inputs": [
        {
          "indexed": false,
          "internalType": "string",
          "name": "name",
          "type": "string"
        },
        {
          "indexed": false,
          "internalType": "string",
          "name": "symbol",
          "type": "string"
        },
        {
          "indexed": false,
          "internalType": "address",
          "name": "owner",
          "type": "address"
        },
        {
          "indexed": false,
          "internalType": "uint256",
          "name": "initialSupply",
          "type": "uint256"
        }
      ],
      "name": "InitializedDT",
      "type": "event"
    },
    {
      "anonymous": false,
      "inputs": [
        {
          "indexed": false,
          "internalType": "address",
          "name": "to",
          "type": "address"
        },
        {
          "indexed": false,
          "internalType": "uint256",
          "name": "amount",
          "type": "uint256"
        }
      ],
      "name": "NewMint",
      "type": "event"
    },
    {
      "anonymous": false,
      "inputs": [
        {
          "indexed": true,
          "internalType": "address",
          "name": "from",
          "type": "address"
        },
        {
          "indexed": true,
          "internalType": "address",
          "name": "to",
          "type": "address"
        },
        {
          "indexed": false,
          "internalType": "uint256",
          "name": "value",
          "type": "uint256"
        }
      ],
      "name": "Transfer",
      "type": "event"
    },
    {
      "stateMutability": "payable",
      "type": "fallback"
    },
    {
      "inputs": [
        {
          "internalType": "address",
          "name": "owner",
          "type": "address"
        },
        {
          "internalType": "address",
          "name": "spender",
          "type": "address"
        }
      ],
      "name": "allowance",
      "outputs": [
        {
          "internalType": "uint256",
          "name": "",
          "type": "uint256"
        }
      ],
      "stateMutability": "view",
      "type": "function"
    },
    {
      "inputs": [
        {
          "internalType": "address",
          "name": "spender",
          "type": "address"
        },
        {
          "internalType": "uint256",
          "name": "amount",
          "type": "uint256"
        }
      ],
      "name": "approve",
      "outputs": [
        {
          "internalType": "bool",
          "name": "",
          "type": "bool"
        }
      ],
      "stateMutability": "nonpayable",
      "type": "function"
    },
    {
      "inputs": [
        {
          "internalType": "address",
          "name": "account",
          "type": "address"
        }
      ],
      "name": "balanceOf",
      "outputs": [
        {
          "internalType": "uint256",
          "name": "",
          "type": "uint256"
        }
      ],
      "stateMutability": "view",
      "type": "function"
    },
    {
      "inputs": [
        {
          "internalType": "uint256",
          "name": "amount",
          "type": "uint256"
        }
      ],
      "name": "burn",
      "outputs": [],
      "stateMutability": "nonpayable",
      "type": "function"
    },
    {
      "inputs": [],
      "name": "buyDT",
      "outputs": [
        {
          "internalType": "uint256",
          "name": "amountToBuy",
          "type": "uint256"
        }
      ],
      "stateMutability": "payable",
      "type": "function"
    },
    {
      "inputs": [],
      "name": "decimals",
      "outputs": [
        {
          "internalType": "uint8",
          "name": "",
          "type": "uint8"
        }
      ],
      "stateMutability": "view",
      "type": "function"
    },
    {
      "inputs": [
        {
          "internalType": "address",
          "name": "spender",
          "type": "address"
        },
        {
          "internalType": "uint256",
          "name": "subtractedValue",
          "type": "uint256"
        }
      ],
      "name": "decreaseAllowance",
      "outputs": [
        {
          "internalType": "bool",
          "name": "",
          "type": "bool"
        }
      ],
      "stateMutability": "nonpayable",
      "type": "function"
    },
    {
      "inputs": [],
      "name": "getAllowedMinter",
      "outputs": [
        {
          "internalType": "address",
          "name": "",
          "type": "address"
        }
      ],
      "stateMutability": "view",
      "type": "function"
    },
    {
      "inputs": [],
      "name": "getRate",
      "outputs": [
        {
          "internalType": "uint256",
          "name": "",
          "type": "uint256"
        }
      ],
      "stateMutability": "view",
      "type": "function"
    },
    {
      "inputs": [
        {
          "internalType": "address",
          "name": "spender",
          "type": "address"
        },
        {
          "internalType": "uint256",
          "name": "addedValue",
          "type": "uint256"
        }
      ],
      "name": "increaseAllowance",
      "outputs": [
        {
          "internalType": "bool",
          "name": "",
          "type": "bool"
        }
      ],
      "stateMutability": "nonpayable",
      "type": "function"
    },
    {
      "inputs": [
        {
          "internalType": "string",
          "name": "name_",
          "type": "string"
        },
        {
          "internalType": "string",
          "name": "symbol_",
          "type": "string"
        },
        {
          "internalType": "address",
          "name": "minter_",
          "type": "address"
        },
        {
          "internalType": "address",
          "name": "erc721address_",
          "type": "address"
        },
        {
          "internalType": "uint256",
          "name": "maxSupply_",
          "type": "uint256"
        },
        {
          "internalType": "uint256",
          "name": "initialSupply_",
          "type": "uint256"
        }
      ],
      "name": "initialize",
      "outputs": [
        {
          "internalType": "bool",
          "name": "",
          "type": "bool"
        }
      ],
      "stateMutability": "nonpayable",
      "type": "function"
    },
    {
      "inputs": [
        {
          "internalType": "address",
          "name": "account",
          "type": "address"
        },
        {
          "internalType": "uint256",
          "name": "amount",
          "type": "uint256"
        }
      ],
      "name": "myMint",
      "outputs": [],
      "stateMutability": "nonpayable",
      "type": "function"
    },
    {
      "inputs": [],
      "name": "name",
      "outputs": [
        {
          "internalType": "string",
          "name": "",
          "type": "string"
        }
      ],
      "stateMutability": "view",
      "type": "function"
    },
    {
      "inputs": [
        {
          "internalType": "address",
          "name": "",
          "type": "address"
        }
      ],
      "name": "nonces_",
      "outputs": [
        {
          "internalType": "uint256",
          "name": "",
          "type": "uint256"
        }
      ],
      "stateMutability": "view",
      "type": "function"
    },
    {
      "inputs": [
        {
          "internalType": "address",
          "name": "owner",
          "type": "address"
        },
        {
          "internalType": "address",
          "name": "spender",
          "type": "address"
        },
        {
          "internalType": "uint256",
          "name": "value",
          "type": "uint256"
        },
        {
          "internalType": "uint256",
          "name": "deadline",
          "type": "uint256"
        },
        {
          "internalType": "uint8",
          "name": "v",
          "type": "uint8"
        },
        {
          "internalType": "bytes32",
          "name": "r",
          "type": "bytes32"
        },
        {
          "internalType": "bytes32",
          "name": "s",
          "type": "bytes32"
        }
      ],
      "name": "permit",
      "outputs": [],
      "stateMutability": "nonpayable",
      "type": "function"
    },
    {
      "inputs": [],
      "name": "symbol",
      "outputs": [
        {
          "internalType": "string",
          "name": "",
          "type": "string"
        }
      ],
      "stateMutability": "view",
      "type": "function"
    },
    {
      "inputs": [],
      "name": "totalSupply",
      "outputs": [
        {
          "internalType": "uint256",
          "name": "",
          "type": "uint256"
        }
      ],
      "stateMutability": "view",
      "type": "function"
    },
    {
      "inputs": [
        {
          "internalType": "address",
          "name": "to",
          "type": "address"
        },
        {
          "internalType": "uint256",
          "name": "amount",
          "type": "uint256"
        }
      ],
      "name": "transfer",
      "outputs": [
        {
          "internalType": "bool",
          "name": "",
          "type": "bool"
        }
      ],
      "stateMutability": "nonpayable",
      "type": "function"
    },
    {
      "inputs": [
        {
          "internalType": "address",
          "name": "from",
          "type": "address"
        },
        {
          "internalType": "address",
          "name": "to",
          "type": "address"
        },
        {
          "internalType": "uint256",
          "name": "amount",
          "type": "uint256"
        }
      ],
      "name": "transferFrom",
      "outputs": [
        {
          "internalType": "bool",
          "name": "",
          "type": "bool"
        }
      ],
      "stateMutability": "nonpayable",
      "type": "function"
    },
    {
      "inputs": [],
      "name": "withdraw",
      "outputs": [],
      "stateMutability": "nonpayable",
      "type": "function"
    },
    {
      "stateMutability": "payable",
      "type": "receive"
    }
  ],
  "bytecode": "0x608060405234801561001057600080fd5b506143d8806100206000396000f3fe6080604052600436106101235760003560e01c806342966c68116100a057806395d89b411161006457806395d89b41146103f8578063a457c2d714610423578063a9059cbb14610460578063d505accf1461049d578063dd62ed3e146104c65761012a565b806342966c68146102ed578063679aefce1461031657806370a082311461034157806373c84f741461037e57806374e87e1e146103bb5761012a565b806323b872dd116100e757806323b872dd14610206578063313ce56714610243578063395093511461026e5780633ccfd60b146102ab578063410a1095146102c25761012a565b80630334a4e41461012c57806306fdde0314610155578063095ea7b3146101805780631016e822146101bd57806318160ddd146101db5761012a565b3661012a57005b005b34801561013857600080fd5b50610153600480360381019061014e91906123cb565b610503565b005b34801561016157600080fd5b5061016a6106c4565b604051610177919061249b565b60405180910390f35b34801561018c57600080fd5b506101a760048036038101906101a291906123cb565b610756565b6040516101b491906124d8565b60405180910390f35b6101c5610779565b6040516101d29190612502565b60405180910390f35b3480156101e757600080fd5b506101f061099d565b6040516101fd9190612502565b60405180910390f35b34801561021257600080fd5b5061022d6004803603810190610228919061251d565b6109a7565b60405161023a91906124d8565b60405180910390f35b34801561024f57600080fd5b506102586109d6565b604051610265919061258c565b60405180910390f35b34801561027a57600080fd5b50610295600480360381019061029091906123cb565b6109df565b6040516102a291906124d8565b60405180910390f35b3480156102b757600080fd5b506102c0610a16565b005b3480156102ce57600080fd5b506102d7610bd0565b6040516102e491906125b6565b60405180910390f35b3480156102f957600080fd5b50610314600480360381019061030f91906125d1565b610bfa565b005b34801561032257600080fd5b5061032b610c97565b6040516103389190612502565b60405180910390f35b34801561034d57600080fd5b50610368600480360381019061036391906125fe565b610ca1565b6040516103759190612502565b60405180910390f35b34801561038a57600080fd5b506103a560048036038101906103a091906125fe565b610cea565b6040516103b29190612502565b60405180910390f35b3480156103c757600080fd5b506103e260048036038101906103dd9190612760565b610d02565b6040516103ef91906124d8565b60405180910390f35b34801561040457600080fd5b5061040d6113b2565b60405161041a919061249b565b60405180910390f35b34801561042f57600080fd5b5061044a600480360381019061044591906123cb565b611444565b60405161045791906124d8565b60405180910390f35b34801561046c57600080fd5b50610487600480360381019061048291906123cb565b6114bb565b60405161049491906124d8565b60405180910390f35b3480156104a957600080fd5b506104c460048036038101906104bf9190612887565b6114de565b005b3480156104d257600080fd5b506104ed60048036038101906104e89190612929565b6118e2565b6040516104fa9190612502565b60405180910390f35b606560009054906101000a900473ffffffffffffffffffffffffffffffffffffffff1673ffffffffffffffffffffffffffffffffffffffff16635245f3bd6040518163ffffffff1660e01b8152600401602060405180830381865afa158015610570573d6000803e3d6000fd5b505050506040513d601f19601f82011682018060405250810190610594919061297e565b73ffffffffffffffffffffffffffffffffffffffff168273ffffffffffffffffffffffffffffffffffffffff1614610601576040517f08c379a00000000000000000000000000000000000000000000000000000000081526004016105f8906129f7565b60405180910390fd5b60675461061e8261061061099d565b61196990919063ffffffff16565b111561065f576040517f08c379a000000000000000000000000000000000000000000000000000000000815260040161065690612a63565b60405180910390fd5b6106878261066b6109d6565b600a6106779190612be5565b836106829190612c30565b61197f565b7f52277f0b4a9b555c5aa96900a13546f972bda413737ec164aac947c87eec602482826040516106b8929190612c72565b60405180910390a15050565b6060603680546106d390612cca565b80601f01602080910402602001604051908101604052809291908181526020018280546106ff90612cca565b801561074c5780601f106107215761010080835404028352916020019161074c565b820191906000526020600020905b81548152906001019060200180831161072f57829003601f168201915b5050505050905090565b600080610761611ad6565b905061076e818585611ade565b600191505092915050565b60008073ffffffffffffffffffffffffffffffffffffffff163373ffffffffffffffffffffffffffffffffffffffff16036107e9576040517f08c379a00000000000000000000000000000000000000000000000000000000081526004016107e090612d47565b60405180910390fd5b6000341161082c576040517f08c379a000000000000000000000000000000000000000000000000000000000815260040161082390612dd9565b60405180910390fd5b6068543461083a9190612c30565b905080610868606660009054906101000a900473ffffffffffffffffffffffffffffffffffffffff16610ca1565b10156108a9576040517f08c379a00000000000000000000000000000000000000000000000000000000081526004016108a090612e91565b60405180910390fd5b600081116108ec576040517f08c379a00000000000000000000000000000000000000000000000000000000081526004016108e390612efd565b60405180910390fd5b60006108f833836114bb565b90508061093a576040517f08c379a000000000000000000000000000000000000000000000000000000000815260040161093190612f8f565b60405180910390fd5b7f2b76c454c9582688e8088feb2d79a17148947856d1890aa012ce16ef8289ad85606660009054906101000a900473ffffffffffffffffffffffffffffffffffffffff163334856040516109919493929190612faf565b60405180910390a15090565b6000603554905090565b6000806109b2611ad6565b90506109bf858285611ca7565b6109ca858585611d33565b60019150509392505050565b60006012905090565b6000806109ea611ad6565b9050610a0b8185856109fc85896118e2565b610a069190612ff4565b611ade565b600191505092915050565b606560009054906101000a900473ffffffffffffffffffffffffffffffffffffffff1673ffffffffffffffffffffffffffffffffffffffff16635245f3bd6040518163ffffffff1660e01b8152600401602060405180830381865afa158015610a83573d6000803e3d6000fd5b505050506040513d601f19601f82011682018060405250810190610aa7919061297e565b73ffffffffffffffffffffffffffffffffffffffff163373ffffffffffffffffffffffffffffffffffffffff1614610ade57600080fd5b60004711610b21576040517f08c379a0000000000000000000000000000000000000000000000000000000008152600401610b1890613074565b60405180910390fd5b60003373ffffffffffffffffffffffffffffffffffffffff1647604051610b47906130c5565b60006040518083038185875af1925050503d8060008114610b84576040519150601f19603f3d011682016040523d82523d6000602084013e610b89565b606091505b5050905080610bcd576040517f08c379a0000000000000000000000000000000000000000000000000000000008152600401610bc490613126565b60405180910390fd5b50565b6000606660009054906101000a900473ffffffffffffffffffffffffffffffffffffffff16905090565b606660009054906101000a900473ffffffffffffffffffffffffffffffffffffffff1673ffffffffffffffffffffffffffffffffffffffff163373ffffffffffffffffffffffffffffffffffffffff1614610c8a576040517f08c379a0000000000000000000000000000000000000000000000000000000008152600401610c8190613192565b60405180910390fd5b610c943382611fac565b50565b6000606854905090565b6000603360008373ffffffffffffffffffffffffffffffffffffffff1673ffffffffffffffffffffffffffffffffffffffff168152602001908152602001600020549050919050565b60696020528060005260406000206000915090505481565b600080600060019054906101000a900460ff16159050808015610d355750600160008054906101000a900460ff1660ff16105b80610d625750610d443061217b565b158015610d615750600160008054906101000a900460ff1660ff16145b5b610da1576040517f08c379a0000000000000000000000000000000000000000000000000000000008152600401610d9890613224565b60405180910390fd5b60016000806101000a81548160ff021916908360ff1602179055508015610dde576001600060016101000a81548160ff0219169083151502179055505b600073ffffffffffffffffffffffffffffffffffffffff168673ffffffffffffffffffffffffffffffffffffffff1603610e4d576040517f08c379a0000000000000000000000000000000000000000000000000000000008152600401610e4490613290565b60405180910390fd5b3073ffffffffffffffffffffffffffffffffffffffff168673ffffffffffffffffffffffffffffffffffffffff1603610ebb576040517f08c379a0000000000000000000000000000000000000000000000000000000008152600401610eb290613322565b60405180910390fd5b8473ffffffffffffffffffffffffffffffffffffffff16635245f3bd6040518163ffffffff1660e01b8152600401602060405180830381865afa158015610f06573d6000803e3d6000fd5b505050506040513d601f19601f82011682018060405250810190610f2a919061297e565b73ffffffffffffffffffffffffffffffffffffffff168673ffffffffffffffffffffffffffffffffffffffff1614610f97576040517f08c379a0000000000000000000000000000000000000000000000000000000008152600401610f8e9061338e565b60405180910390fd5b600073ffffffffffffffffffffffffffffffffffffffff168573ffffffffffffffffffffffffffffffffffffffff1603611006576040517f08c379a0000000000000000000000000000000000000000000000000000000008152600401610ffd90613420565b60405180910390fd5b60008411611049576040517f08c379a00000000000000000000000000000000000000000000000000000000081526004016110409061348c565b60405180910390fd5b600083101561108d576040517f08c379a00000000000000000000000000000000000000000000000000000000081526004016110849061351e565b60405180910390fd5b838311156110d0576040517f08c379a00000000000000000000000000000000000000000000000000000000081526004016110c7906135b0565b60405180910390fd5b6110da888861219e565b84606560006101000a81548173ffffffffffffffffffffffffffffffffffffffff021916908373ffffffffffffffffffffffffffffffffffffffff16021790555085606660006101000a81548173ffffffffffffffffffffffffffffffffffffffff021916908373ffffffffffffffffffffffffffffffffffffffff1602179055508360678190555060646068819055506111b5606660009054906101000a900473ffffffffffffffffffffffffffffffffffffffff166111996109d6565b600a6111a59190612be5565b856111b09190612c30565b61197f565b6111bd6109d6565b600a6111c99190612be5565b836111d49190612c30565b6111dc61099d565b1461121c576040517f08c379a000000000000000000000000000000000000000000000000000000000815260040161121390613642565b60405180910390fd5b6112246109d6565b600a6112309190612be5565b8361123b9190612c30565b611266606660009054906101000a900473ffffffffffffffffffffffffffffffffffffffff16610ca1565b146112a6576040517f08c379a000000000000000000000000000000000000000000000000000000000815260040161129d906136ae565b60405180910390fd5b600060696000606660009054906101000a900473ffffffffffffffffffffffffffffffffffffffff1673ffffffffffffffffffffffffffffffffffffffff1673ffffffffffffffffffffffffffffffffffffffff168152602001908152602001600020819055507f321f9e8cb5e8cc3bc115d8cd4e1ab42538d6ae9308998e65a66c65e11a6b7e1c8888888660405161134294939291906136ce565b60405180910390a16001915080156113a75760008060016101000a81548160ff0219169083151502179055507f7f26b83ff96e1f2b6a682f133852f6798a09c465da95921460cefb3847402498600160405161139e9190613766565b60405180910390a15b509695505050505050565b6060603780546113c190612cca565b80601f01602080910402602001604051908101604052809291908181526020018280546113ed90612cca565b801561143a5780601f1061140f5761010080835404028352916020019161143a565b820191906000526020600020905b81548152906001019060200180831161141d57829003601f168201915b5050505050905090565b60008061144f611ad6565b9050600061145d82866118e2565b9050838110156114a2576040517f08c379a0000000000000000000000000000000000000000000000000000000008152600401611499906137f3565b60405180910390fd5b6114af8286868403611ade565b60019250505092915050565b6000806114c6611ad6565b90506114d3818585611d33565b600191505092915050565b43841015611521576040517f08c379a00000000000000000000000000000000000000000000000000000000081526004016115189061385f565b60405180910390fd5b606560009054906101000a900473ffffffffffffffffffffffffffffffffffffffff1673ffffffffffffffffffffffffffffffffffffffff16635245f3bd6040518163ffffffff1660e01b8152600401602060405180830381865afa15801561158e573d6000803e3d6000fd5b505050506040513d601f19601f820116820180604052508101906115b2919061297e565b73ffffffffffffffffffffffffffffffffffffffff168773ffffffffffffffffffffffffffffffffffffffff161461161f576040517f08c379a0000000000000000000000000000000000000000000000000000000008152600401611616906138cb565b60405180910390fd5b6000606960008973ffffffffffffffffffffffffffffffffffffffff1673ffffffffffffffffffffffffffffffffffffffff168152602001908152602001600020549050600061166d6121fb565b90506000817f6e71edae12b1b97f4d1f60370fef10105fa2faae0126114a169c64845d6126c98b8b8b878c6040516020016116ad969594939291906138fa565b604051602081830303815290604052805190602001206040516020016116d49291906139d3565b6040516020818303038152906040528051906020012090506001606960008c73ffffffffffffffffffffffffffffffffffffffff1673ffffffffffffffffffffffffffffffffffffffff168152602001908152602001600020600082825461173c9190612ff4565b925050819055506001836117509190612ff4565b606960008c73ffffffffffffffffffffffffffffffffffffffff1673ffffffffffffffffffffffffffffffffffffffff16815260200190815260200160002054146117d0576040517f08c379a00000000000000000000000000000000000000000000000000000000081526004016117c790613a7c565b60405180910390fd5b6000600182888888604051600081526020016040526040516117f59493929190613a9c565b6020604051602081039080840390855afa158015611817573d6000803e3d6000fd5b505050602060405103519050600073ffffffffffffffffffffffffffffffffffffffff168173ffffffffffffffffffffffffffffffffffffffff161415801561188b57508a73ffffffffffffffffffffffffffffffffffffffff168173ffffffffffffffffffffffffffffffffffffffff16145b6118ca576040517f08c379a00000000000000000000000000000000000000000000000000000000081526004016118c190613b53565b60405180910390fd5b6118d58b8b8b611ade565b5050505050505050505050565b6000603460008473ffffffffffffffffffffffffffffffffffffffff1673ffffffffffffffffffffffffffffffffffffffff16815260200190815260200160002060008373ffffffffffffffffffffffffffffffffffffffff1673ffffffffffffffffffffffffffffffffffffffff16815260200190815260200160002054905092915050565b600081836119779190612ff4565b905092915050565b600073ffffffffffffffffffffffffffffffffffffffff168273ffffffffffffffffffffffffffffffffffffffff16036119ee576040517f08c379a00000000000000000000000000000000000000000000000000000000081526004016119e590613bbf565b60405180910390fd5b6119fa600083836122a6565b8060356000828254611a0c9190612ff4565b9250508190555080603360008473ffffffffffffffffffffffffffffffffffffffff1673ffffffffffffffffffffffffffffffffffffffff168152602001908152602001600020600082825401925050819055508173ffffffffffffffffffffffffffffffffffffffff16600073ffffffffffffffffffffffffffffffffffffffff167fddf252ad1be2c89b69c2b068fc378daa952ba7f163c4a11628f55a4df523b3ef83604051611abe9190612502565b60405180910390a3611ad2600083836122ab565b5050565b600033905090565b600073ffffffffffffffffffffffffffffffffffffffff168373ffffffffffffffffffffffffffffffffffffffff1603611b4d576040517f08c379a0000000000000000000000000000000000000000000000000000000008152600401611b4490613c51565b60405180910390fd5b600073ffffffffffffffffffffffffffffffffffffffff168273ffffffffffffffffffffffffffffffffffffffff1603611bbc576040517f08c379a0000000000000000000000000000000000000000000000000000000008152600401611bb390613ce3565b60405180910390fd5b80603460008573ffffffffffffffffffffffffffffffffffffffff1673ffffffffffffffffffffffffffffffffffffffff16815260200190815260200160002060008473ffffffffffffffffffffffffffffffffffffffff1673ffffffffffffffffffffffffffffffffffffffff168152602001908152602001600020819055508173ffffffffffffffffffffffffffffffffffffffff168373ffffffffffffffffffffffffffffffffffffffff167f8c5be1e5ebec7d5bd14f71427d1e84f3dd0314c0f7b2291e5b200ac8c7c3b92583604051611c9a9190612502565b60405180910390a3505050565b6000611cb384846118e2565b90507fffffffffffffffffffffffffffffffffffffffffffffffffffffffffffffffff8114611d2d5781811015611d1f576040517f08c379a0000000000000000000000000000000000000000000000000000000008152600401611d1690613d4f565b60405180910390fd5b611d2c8484848403611ade565b5b50505050565b600073ffffffffffffffffffffffffffffffffffffffff168373ffffffffffffffffffffffffffffffffffffffff1603611da2576040517f08c379a0000000000000000000000000000000000000000000000000000000008152600401611d9990613de1565b60405180910390fd5b600073ffffffffffffffffffffffffffffffffffffffff168273ffffffffffffffffffffffffffffffffffffffff1603611e11576040517f08c379a0000000000000000000000000000000000000000000000000000000008152600401611e0890613e73565b60405180910390fd5b611e1c8383836122a6565b6000603360008573ffffffffffffffffffffffffffffffffffffffff1673ffffffffffffffffffffffffffffffffffffffff16815260200190815260200160002054905081811015611ea3576040517f08c379a0000000000000000000000000000000000000000000000000000000008152600401611e9a90613f05565b60405180910390fd5b818103603360008673ffffffffffffffffffffffffffffffffffffffff1673ffffffffffffffffffffffffffffffffffffffff1681526020019081526020016000208190555081603360008573ffffffffffffffffffffffffffffffffffffffff1673ffffffffffffffffffffffffffffffffffffffff168152602001908152602001600020600082825401925050819055508273ffffffffffffffffffffffffffffffffffffffff168473ffffffffffffffffffffffffffffffffffffffff167fddf252ad1be2c89b69c2b068fc378daa952ba7f163c4a11628f55a4df523b3ef84604051611f939190612502565b60405180910390a3611fa68484846122ab565b50505050565b600073ffffffffffffffffffffffffffffffffffffffff168273ffffffffffffffffffffffffffffffffffffffff160361201b576040517f08c379a000000000000000000000000000000000000000000000000000000000815260040161201290613f97565b60405180910390fd5b612027826000836122a6565b6000603360008473ffffffffffffffffffffffffffffffffffffffff1673ffffffffffffffffffffffffffffffffffffffff168152602001908152602001600020549050818110156120ae576040517f08c379a00000000000000000000000000000000000000000000000000000000081526004016120a590614029565b60405180910390fd5b818103603360008573ffffffffffffffffffffffffffffffffffffffff1673ffffffffffffffffffffffffffffffffffffffff1681526020019081526020016000208190555081603560008282540392505081905550600073ffffffffffffffffffffffffffffffffffffffff168373ffffffffffffffffffffffffffffffffffffffff167fddf252ad1be2c89b69c2b068fc378daa952ba7f163c4a11628f55a4df523b3ef846040516121629190612502565b60405180910390a3612176836000846122ab565b505050565b6000808273ffffffffffffffffffffffffffffffffffffffff163b119050919050565b600060019054906101000a900460ff166121ed576040517f08c379a00000000000000000000000000000000000000000000000000000000081526004016121e4906140bb565b60405180910390fd5b6121f782826122b0565b5050565b60008046905060007f8b73c3c69bb8fe3d512ecc4cf759cc79239f7b179b0ffacaa9a75d522b39400f61222c6106c4565b805190602001206040518060400160405280600181526020017f31000000000000000000000000000000000000000000000000000000000000008152508051906020012084306040516020016122869594939291906140db565b604051602081830303815290604052805190602001209050809250505090565b505050565b505050565b600060019054906101000a900460ff166122ff576040517f08c379a00000000000000000000000000000000000000000000000000000000081526004016122f6906140bb565b60405180910390fd5b816036908161230e91906142d0565b50806037908161231e91906142d0565b505050565b6000604051905090565b600080fd5b600080fd5b600073ffffffffffffffffffffffffffffffffffffffff82169050919050565b600061236282612337565b9050919050565b61237281612357565b811461237d57600080fd5b50565b60008135905061238f81612369565b92915050565b6000819050919050565b6123a881612395565b81146123b357600080fd5b50565b6000813590506123c58161239f565b92915050565b600080604083850312156123e2576123e161232d565b5b60006123f085828601612380565b9250506020612401858286016123b6565b9150509250929050565b600081519050919050565b600082825260208201905092915050565b60005b8381101561244557808201518184015260208101905061242a565b60008484015250505050565b6000601f19601f8301169050919050565b600061246d8261240b565b6124778185612416565b9350612487818560208601612427565b61249081612451565b840191505092915050565b600060208201905081810360008301526124b58184612462565b905092915050565b60008115159050919050565b6124d2816124bd565b82525050565b60006020820190506124ed60008301846124c9565b92915050565b6124fc81612395565b82525050565b600060208201905061251760008301846124f3565b92915050565b6000806000606084860312156125365761253561232d565b5b600061254486828701612380565b935050602061255586828701612380565b9250506040612566868287016123b6565b9150509250925092565b600060ff82169050919050565b61258681612570565b82525050565b60006020820190506125a1600083018461257d565b92915050565b6125b081612357565b82525050565b60006020820190506125cb60008301846125a7565b92915050565b6000602082840312156125e7576125e661232d565b5b60006125f5848285016123b6565b91505092915050565b6000602082840312156126145761261361232d565b5b600061262284828501612380565b91505092915050565b600080fd5b600080fd5b7f4e487b7100000000000000000000000000000000000000000000000000000000600052604160045260246000fd5b61266d82612451565b810181811067ffffffffffffffff8211171561268c5761268b612635565b5b80604052505050565b600061269f612323565b90506126ab8282612664565b919050565b600067ffffffffffffffff8211156126cb576126ca612635565b5b6126d482612451565b9050602081019050919050565b82818337600083830152505050565b60006127036126fe846126b0565b612695565b90508281526020810184848401111561271f5761271e612630565b5b61272a8482856126e1565b509392505050565b600082601f8301126127475761274661262b565b5b81356127578482602086016126f0565b91505092915050565b60008060008060008060c0878903121561277d5761277c61232d565b5b600087013567ffffffffffffffff81111561279b5761279a612332565b5b6127a789828a01612732565b965050602087013567ffffffffffffffff8111156127c8576127c7612332565b5b6127d489828a01612732565b95505060406127e589828a01612380565b94505060606127f689828a01612380565b935050608061280789828a016123b6565b92505060a061281889828a016123b6565b9150509295509295509295565b61282e81612570565b811461283957600080fd5b50565b60008135905061284b81612825565b92915050565b6000819050919050565b61286481612851565b811461286f57600080fd5b50565b6000813590506128818161285b565b92915050565b600080600080600080600060e0888a0312156128a6576128a561232d565b5b60006128b48a828b01612380565b97505060206128c58a828b01612380565b96505060406128d68a828b016123b6565b95505060606128e78a828b016123b6565b94505060806128f88a828b0161283c565b93505060a06129098a828b01612872565b92505060c061291a8a828b01612872565b91505092959891949750929550565b600080604083850312156129405761293f61232d565b5b600061294e85828601612380565b925050602061295f85828601612380565b9150509250929050565b60008151905061297881612369565b92915050565b6000602082840312156129945761299361232d565b5b60006129a284828501612969565b91505092915050565b7f4e4f5420544845204e4654204f574e4552203d204e4f542041204d494e544552600082015250565b60006129e1602083612416565b91506129ec826129ab565b602082019050919050565b60006020820190508181036000830152612a10816129d4565b9050919050565b7f43616e6e6f742065786565642074686520636170000000000000000000000000600082015250565b6000612a4d601483612416565b9150612a5882612a17565b602082019050919050565b60006020820190508181036000830152612a7c81612a40565b9050919050565b7f4e487b7100000000000000000000000000000000000000000000000000000000600052601160045260246000fd5b60008160011c9050919050565b6000808291508390505b6001851115612b0957808604811115612ae557612ae4612a83565b5b6001851615612af45780820291505b8081029050612b0285612ab2565b9450612ac9565b94509492505050565b600082612b225760019050612bde565b81612b305760009050612bde565b8160018114612b465760028114612b5057612b7f565b6001915050612bde565b60ff841115612b6257612b61612a83565b5b8360020a915084821115612b7957612b78612a83565b5b50612bde565b5060208310610133831016604e8410600b8410161715612bb45782820a905083811115612baf57612bae612a83565b5b612bde565b612bc18484846001612abf565b92509050818404811115612bd857612bd7612a83565b5b81810290505b9392505050565b6000612bf082612395565b9150612bfb83612570565b9250612c287fffffffffffffffffffffffffffffffffffffffffffffffffffffffffffffffff8484612b12565b905092915050565b6000612c3b82612395565b9150612c4683612395565b9250828202612c5481612395565b91508282048414831517612c6b57612c6a612a83565b5b5092915050565b6000604082019050612c8760008301856125a7565b612c9460208301846124f3565b9392505050565b7f4e487b7100000000000000000000000000000000000000000000000000000000600052602260045260246000fd5b60006002820490506001821680612ce257607f821691505b602082108103612cf557612cf4612c9b565b5b50919050565b7f496e76616c696420302061646472657373000000000000000000000000000000600082015250565b6000612d31601183612416565b9150612d3c82612cfb565b602082019050919050565b60006020820190508181036000830152612d6081612d24565b9050919050565b7f53656e6420534d5220746f20627579204461746120546f6b656e732e2052656360008201527f6569766564203020534d52000000000000000000000000000000000000000000602082015250565b6000612dc3602b83612416565b9150612dce82612d67565b604082019050919050565b60006020820190508181036000830152612df281612db6565b9050919050565b7f4e6f7420656e6f7567682072656d61696e6564206d696e74656420446174612060008201527f546f6b656e732e2043616e6e6f742073656c6c2075736572277320726571756560208201527f7374656420616d6f756e74000000000000000000000000000000000000000000604082015250565b6000612e7b604b83612416565b9150612e8682612df9565b606082019050919050565b60006020820190508181036000830152612eaa81612e6e565b9050919050565b7f43616e6e6f74206275792030204461746120546f6b656e732100000000000000600082015250565b6000612ee7601983612416565b9150612ef282612eb1565b602082019050919050565b60006020820190508181036000830152612f1681612eda565b9050919050565b7f4661696c656420746f207472616e73666572204461746120546f6b656e73207460008201527f6f20757365720000000000000000000000000000000000000000000000000000602082015250565b6000612f79602683612416565b9150612f8482612f1d565b604082019050919050565b60006020820190508181036000830152612fa881612f6c565b9050919050565b6000608082019050612fc460008301876125a7565b612fd160208301866125a7565b612fde60408301856124f3565b612feb60608301846124f3565b95945050505050565b6000612fff82612395565b915061300a83612395565b925082820190508082111561302257613021612a83565b5b92915050565b7f4e6f2062616c616e636520746f20776974686472617700000000000000000000600082015250565b600061305e601683612416565b915061306982613028565b602082019050919050565b6000602082019050818103600083015261308d81613051565b9050919050565b600081905092915050565b50565b60006130af600083613094565b91506130ba8261309f565b600082019050919050565b60006130d0826130a2565b9150819050919050565b7f4661696c656420746f2077697468647261770000000000000000000000000000600082015250565b6000613110601283612416565b915061311b826130da565b602082019050919050565b6000602082019050818103600083015261313f81613103565b9050919050565b7f4e4f5420414c4c4f57454420544f204255524e00000000000000000000000000600082015250565b600061317c601383612416565b915061318782613146565b602082019050919050565b600060208201905081810360008301526131ab8161316f565b9050919050565b7f496e697469616c697a61626c653a20636f6e747261637420697320616c72656160008201527f647920696e697469616c697a6564000000000000000000000000000000000000602082015250565b600061320e602e83612416565b9150613219826131b2565b604082019050919050565b6000602082019050818103600083015261323d81613201565b9050919050565b7f4d696e7465722063616e6e6f7420626520307830302100000000000000000000600082015250565b600061327a601683612416565b915061328582613244565b602082019050919050565b600060208201905081810360008301526132a98161326d565b9050919050565b7f4d696e7465722063616e6e6f742062652074686520636f6e747261637420616460008201527f647265737320697473656c660000000000000000000000000000000000000000602082015250565b600061330c602c83612416565b9150613317826132b0565b604082019050919050565b6000602082019050818103600083015261333b816132ff565b9050919050565b7f4e4f5420544845204e4654204f574e4552000000000000000000000000000000600082015250565b6000613378601183612416565b915061338382613342565b602082019050919050565b600060208201905081810360008301526133a78161336b565b9050919050565b7f455243373231466163746f727920616464726573732063616e6e6f742062652060008201527f3078303021000000000000000000000000000000000000000000000000000000602082015250565b600061340a602583612416565b9150613415826133ae565b604082019050919050565b60006020820190508181036000830152613439816133fd565b9050919050565b7f546865206d6178696d756d20737570706c79206d757374206265203e20300000600082015250565b6000613476601e83612416565b915061348182613440565b602082019050919050565b600060208201905081810360008301526134a581613469565b9050919050565b7f54686520696e697469616c20737570706c792063616e6e6f74206265206e656760008201527f6174697665000000000000000000000000000000000000000000000000000000602082015250565b6000613508602583612416565b9150613513826134ac565b604082019050919050565b60006020820190508181036000830152613537816134fb565b9050919050565b7f54686520696e697469616c20737570706c792063616e6e6f742065786565642060008201527f74686520746f74616c2063617000000000000000000000000000000000000000602082015250565b600061359a602d83612416565b91506135a58261353e565b604082019050919050565b600060208201905081810360008301526135c98161358d565b9050919050565b7f496e697469616c206d696e74696e67206572726f723a20746f74616c5375707060008201527f6c7920646f6573206e6f74206d6174636820696e697469616c537570706c7900602082015250565b600061362c603f83612416565b9150613637826135d0565b604082019050919050565b6000602082019050818103600083015261365b8161361f565b9050919050565b7f4d696e74696e67206f662064617461746f6b656e206661696c65640000000000600082015250565b6000613698601b83612416565b91506136a382613662565b602082019050919050565b600060208201905081810360008301526136c78161368b565b9050919050565b600060808201905081810360008301526136e88187612462565b905081810360208301526136fc8186612462565b905061370b60408301856125a7565b61371860608301846124f3565b95945050505050565b6000819050919050565b6000819050919050565b600061375061374b61374684613721565b61372b565b612570565b9050919050565b61376081613735565b82525050565b600060208201905061377b6000830184613757565b92915050565b7f45524332303a2064656372656173656420616c6c6f77616e63652062656c6f7760008201527f207a65726f000000000000000000000000000000000000000000000000000000602082015250565b60006137dd602583612416565b91506137e882613781565b604082019050919050565b6000602082019050818103600083015261380c816137d0565b9050919050565b7f4552433230445420455850495245440000000000000000000000000000000000600082015250565b6000613849600f83612416565b915061385482613813565b602082019050919050565b600060208201905081810360008301526138788161383c565b9050919050565b7f4f776e6572206e6f7420746865204e4654206f776e6572000000000000000000600082015250565b60006138b5601783612416565b91506138c08261387f565b602082019050919050565b600060208201905081810360008301526138e4816138a8565b9050919050565b6138f481612851565b82525050565b600060c08201905061390f60008301896138eb565b61391c60208301886125a7565b61392960408301876125a7565b61393660608301866124f3565b61394360808301856124f3565b61395060a08301846124f3565b979650505050505050565b600081905092915050565b7f1901000000000000000000000000000000000000000000000000000000000000600082015250565b600061399c60028361395b565b91506139a782613966565b600282019050919050565b6000819050919050565b6139cd6139c882612851565b6139b2565b82525050565b60006139de8261398f565b91506139ea82856139bc565b6020820191506139fa82846139bc565b6020820191508190509392505050565b7f4552433230426173653a207065726d697420646964206e6f742073756363656560008201527f642e204e6f6e6365206d69736d61746368210000000000000000000000000000602082015250565b6000613a66603283612416565b9150613a7182613a0a565b604082019050919050565b60006020820190508181036000830152613a9581613a59565b9050919050565b6000608082019050613ab160008301876138eb565b613abe602083018661257d565b613acb60408301856138eb565b613ad860608301846138eb565b95945050505050565b7f45524332302064617461746f6b656e3a20494e56414c4944205349474e41545560008201527f524520494e2045524332302d5045524d49540000000000000000000000000000602082015250565b6000613b3d603283612416565b9150613b4882613ae1565b604082019050919050565b60006020820190508181036000830152613b6c81613b30565b9050919050565b7f45524332303a206d696e7420746f20746865207a65726f206164647265737300600082015250565b6000613ba9601f83612416565b9150613bb482613b73565b602082019050919050565b60006020820190508181036000830152613bd881613b9c565b9050919050565b7f45524332303a20617070726f76652066726f6d20746865207a65726f2061646460008201527f7265737300000000000000000000000000000000000000000000000000000000602082015250565b6000613c3b602483612416565b9150613c4682613bdf565b604082019050919050565b60006020820190508181036000830152613c6a81613c2e565b9050919050565b7f45524332303a20617070726f766520746f20746865207a65726f20616464726560008201527f7373000000000000000000000000000000000000000000000000000000000000602082015250565b6000613ccd602283612416565b9150613cd882613c71565b604082019050919050565b60006020820190508181036000830152613cfc81613cc0565b9050919050565b7f45524332303a20696e73756666696369656e7420616c6c6f77616e6365000000600082015250565b6000613d39601d83612416565b9150613d4482613d03565b602082019050919050565b60006020820190508181036000830152613d6881613d2c565b9050919050565b7f45524332303a207472616e736665722066726f6d20746865207a65726f20616460008201527f6472657373000000000000000000000000000000000000000000000000000000602082015250565b6000613dcb602583612416565b9150613dd682613d6f565b604082019050919050565b60006020820190508181036000830152613dfa81613dbe565b9050919050565b7f45524332303a207472616e7366657220746f20746865207a65726f206164647260008201527f6573730000000000000000000000000000000000000000000000000000000000602082015250565b6000613e5d602383612416565b9150613e6882613e01565b604082019050919050565b60006020820190508181036000830152613e8c81613e50565b9050919050565b7f45524332303a207472616e7366657220616d6f756e742065786365656473206260008201527f616c616e63650000000000000000000000000000000000000000000000000000602082015250565b6000613eef602683612416565b9150613efa82613e93565b604082019050919050565b60006020820190508181036000830152613f1e81613ee2565b9050919050565b7f45524332303a206275726e2066726f6d20746865207a65726f2061646472657360008201527f7300000000000000000000000000000000000000000000000000000000000000602082015250565b6000613f81602183612416565b9150613f8c82613f25565b604082019050919050565b60006020820190508181036000830152613fb081613f74565b9050919050565b7f45524332303a206275726e20616d6f756e7420657863656564732062616c616e60008201527f6365000000000000000000000000000000000000000000000000000000000000602082015250565b6000614013602283612416565b915061401e82613fb7565b604082019050919050565b6000602082019050818103600083015261404281614006565b9050919050565b7f496e697469616c697a61626c653a20636f6e7472616374206973206e6f74206960008201527f6e697469616c697a696e67000000000000000000000000000000000000000000602082015250565b60006140a5602b83612416565b91506140b082614049565b604082019050919050565b600060208201905081810360008301526140d481614098565b9050919050565b600060a0820190506140f060008301886138eb565b6140fd60208301876138eb565b61410a60408301866138eb565b61411760608301856124f3565b61412460808301846125a7565b9695505050505050565b60008190508160005260206000209050919050565b60006020601f8301049050919050565b600082821b905092915050565b6000600883026141907fffffffffffffffffffffffffffffffffffffffffffffffffffffffffffffffff82614153565b61419a8683614153565b95508019841693508086168417925050509392505050565b60006141cd6141c86141c384612395565b61372b565b612395565b9050919050565b6000819050919050565b6141e7836141b2565b6141fb6141f3826141d4565b848454614160565b825550505050565b600090565b614210614203565b61421b8184846141de565b505050565b5b8181101561423f57614234600082614208565b600181019050614221565b5050565b601f821115614284576142558161412e565b61425e84614143565b8101602085101561426d578190505b61428161427985614143565b830182614220565b50505b505050565b600082821c905092915050565b60006142a760001984600802614289565b1980831691505092915050565b60006142c08383614296565b9150826002028217905092915050565b6142d98261240b565b67ffffffffffffffff8111156142f2576142f1612635565b5b6142fc8254612cca565b614307828285614243565b600060209050601f83116001811461433a5760008415614328578287015190505b61433285826142b4565b86555061439a565b601f1984166143488661412e565b60005b828110156143705784890151825560018201915060208501945060208101905061434b565b8683101561438d5784890151614389601f891682614296565b8355505b6001600288020188555050505b50505050505056fea26469706673582212207e7d7eabb6badf3cdc9d6e6bfad68f82c3021a532d73893b55b94bd7468c36f464736f6c63430008120033",
  "linkReferences": {},
  "deployedLinkReferences": {}
}