{
  "_format": "hh-sol-artifact-1",
  "contractName": "RouterFactory",
  "sourceName": "contracts/RouterFactory.sol",
  "abi": [
    {
      "inputs": [
        {
          "internalType": "address",
          "name": "routerOwner_",
          "type": "address"
        }
      ],
      "stateMutability": "nonpayable",
      "type": "constructor"
    },
    {
      "anonymous": false,
      "inputs": [
        {
          "indexed": true,
          "internalType": "address",
          "name": "caller",
          "type": "address"
        },
        {
          "indexed": true,
          "internalType": "address",
          "name": "contractAddress",
          "type": "address"
        }
      ],
      "name": "FixedRateContractAdded",
      "type": "event"
    },
    {
      "anonymous": false,
      "inputs": [
        {
          "indexed": true,
          "internalType": "address",
          "name": "caller",
          "type": "address"
        },
        {
          "indexed": true,
          "internalType": "address",
          "name": "contractAddress",
          "type": "address"
        }
      ],
      "name": "FixedRateContractRemoved",
      "type": "event"
    },
    {
      "inputs": [
        {
          "internalType": "address",
          "name": "factory_",
          "type": "address"
        }
      ],
      "name": "addFactoryAddress",
      "outputs": [],
      "stateMutability": "nonpayable",
      "type": "function"
    },
    {
      "inputs": [
        {
          "internalType": "address",
          "name": "fixedRate_",
          "type": "address"
        }
      ],
      "name": "addFixedRateAddress",
      "outputs": [],
      "stateMutability": "nonpayable",
      "type": "function"
    },
    {
      "inputs": [
        {
          "internalType": "address",
          "name": "fixedRateAddress_",
          "type": "address"
        },
        {
          "internalType": "address",
          "name": "owner_",
          "type": "address"
        },
        {
          "internalType": "uint256",
          "name": "fixedRate_",
          "type": "uint256"
        },
        {
          "internalType": "uint256",
          "name": "dataTokenDecimals_",
          "type": "uint256"
        },
        {
          "internalType": "uint256",
          "name": "giveMintPerm_to_Exch_",
          "type": "uint256"
        }
      ],
      "name": "createFixedRate",
      "outputs": [
        {
          "internalType": "bytes32",
          "name": "exchangeID",
          "type": "bytes32"
        }
      ],
      "stateMutability": "nonpayable",
      "type": "function"
    },
    {
      "inputs": [],
      "name": "getFixedrateContracts",
      "outputs": [
        {
          "internalType": "address[]",
          "name": "",
          "type": "address[]"
        }
      ],
      "stateMutability": "view",
      "type": "function"
    },
    {
      "inputs": [
        {
          "internalType": "address",
          "name": "fixedRate_",
          "type": "address"
        }
      ],
      "name": "isNewFixedRateAddress",
      "outputs": [
        {
          "internalType": "bool",
          "name": "",
          "type": "bool"
        }
      ],
      "stateMutability": "view",
      "type": "function"
    },
    {
      "inputs": [
        {
          "internalType": "address",
          "name": "fixedRateAddress_",
          "type": "address"
        }
      ],
      "name": "removeFixedRateContract",
      "outputs": [],
      "stateMutability": "nonpayable",
      "type": "function"
    }
  ],
  "bytecode": "0x60806040523480156200001157600080fd5b50604051620017a1380380620017a183398181016040528101906200003791906200015a565b600073ffffffffffffffffffffffffffffffffffffffff168173ffffffffffffffffffffffffffffffffffffffff1603620000a9576040517f08c379a0000000000000000000000000000000000000000000000000000000008152600401620000a09062000213565b60405180910390fd5b806000806101000a81548173ffffffffffffffffffffffffffffffffffffffff021916908373ffffffffffffffffffffffffffffffffffffffff1602179055505062000235565b600080fd5b600073ffffffffffffffffffffffffffffffffffffffff82169050919050565b60006200012282620000f5565b9050919050565b620001348162000115565b81146200014057600080fd5b50565b600081519050620001548162000129565b92915050565b600060208284031215620001735762000172620000f0565b5b6000620001838482850162000143565b91505092915050565b600082825260208201905092915050565b7f526f75746572206f776e65722063616e6e6f742062652074686520302061646460008201527f7265737300000000000000000000000000000000000000000000000000000000602082015250565b6000620001fb6024836200018c565b915062000208826200019d565b604082019050919050565b600060208201905081810360008301526200022e81620001ec565b9050919050565b61155c80620002456000396000f3fe608060405234801561001057600080fd5b50600436106100625760003560e01c806318c0c695146100675780633ad8b6f4146100835780633c0c6585146100b357806346ab8f0f146100d157806396f4d1b1146101015780639f2c010a1461011d575b600080fd5b610081600480360381019061007c9190610c53565b610139565b005b61009d60048036038101906100989190610c53565b61030b565b6040516100aa9190610c9b565b60405180910390f35b6100bb6103b9565b6040516100c89190610d74565b60405180910390f35b6100eb60048036038101906100e69190610dcc565b610447565b6040516100f89190610e60565b60405180910390f35b61011b60048036038101906101169190610c53565b610733565b005b61013760048036038101906101329190610c53565b6108ff565b005b3373ffffffffffffffffffffffffffffffffffffffff1660008054906101000a900473ffffffffffffffffffffffffffffffffffffffff1673ffffffffffffffffffffffffffffffffffffffff16146101c7576040517f08c379a00000000000000000000000000000000000000000000000000000000081526004016101be90610ed8565b60405180910390fd5b600073ffffffffffffffffffffffffffffffffffffffff168173ffffffffffffffffffffffffffffffffffffffff1603610236576040517f08c379a000000000000000000000000000000000000000000000000000000000815260040161022d90610f6a565b60405180910390fd5b600073ffffffffffffffffffffffffffffffffffffffff16600160009054906101000a900473ffffffffffffffffffffffffffffffffffffffff1673ffffffffffffffffffffffffffffffffffffffff16146102c7576040517f08c379a00000000000000000000000000000000000000000000000000000000081526004016102be90610ffc565b60405180910390fd5b80600160006101000a81548173ffffffffffffffffffffffffffffffffffffffff021916908373ffffffffffffffffffffffffffffffffffffffff16021790555050565b600080600090505b6002805490508110156103ae578273ffffffffffffffffffffffffffffffffffffffff166002828154811061034b5761034a61101c565b5b9060005260206000200160009054906101000a900473ffffffffffffffffffffffffffffffffffffffff1673ffffffffffffffffffffffffffffffffffffffff160361039b5760009150506103b4565b80806103a69061107a565b915050610313565b50600190505b919050565b6060600280548060200260200160405190810160405280929190818152602001828054801561043d57602002820191906000526020600020905b8160009054906101000a900473ffffffffffffffffffffffffffffffffffffffff1673ffffffffffffffffffffffffffffffffffffffff16815260200190600101908083116103f3575b5050505050905090565b60003373ffffffffffffffffffffffffffffffffffffffff16600160009054906101000a900473ffffffffffffffffffffffffffffffffffffffff1673ffffffffffffffffffffffffffffffffffffffff166332f43b9e336040518263ffffffff1660e01b81526004016104bb91906110d1565b602060405180830381865afa1580156104d8573d6000803e3d6000fd5b505050506040513d601f19601f820116820180604052508101906104fc9190611101565b73ffffffffffffffffffffffffffffffffffffffff1614610552576040517f08c379a0000000000000000000000000000000000000000000000000000000008152600401610549906111a0565b60405180910390fd5b61055b8661030b565b1561059b576040517f08c379a000000000000000000000000000000000000000000000000000000000815260040161059290611232565b60405180910390fd5b8473ffffffffffffffffffffffffffffffffffffffff16600160009054906101000a900473ffffffffffffffffffffffffffffffffffffffff1673ffffffffffffffffffffffffffffffffffffffff1663778ea461336040518263ffffffff1660e01b815260040161060d91906110d1565b602060405180830381865afa15801561062a573d6000803e3d6000fd5b505050506040513d601f19601f8201168201806040525081019061064e9190611101565b73ffffffffffffffffffffffffffffffffffffffff16146106a4576040517f08c379a000000000000000000000000000000000000000000000000000000000815260040161069b906112c4565b60405180910390fd5b8573ffffffffffffffffffffffffffffffffffffffff16637e0fdb7633878787876040518663ffffffff1660e01b81526004016106e59594939291906112f3565b6020604051808303816000875af1158015610704573d6000803e3d6000fd5b505050506040513d601f19601f820116820180604052508101906107289190611372565b905095945050505050565b3373ffffffffffffffffffffffffffffffffffffffff1660008054906101000a900473ffffffffffffffffffffffffffffffffffffffff1673ffffffffffffffffffffffffffffffffffffffff16146107c1576040517f08c379a00000000000000000000000000000000000000000000000000000000081526004016107b890610ed8565b60405180910390fd5b600073ffffffffffffffffffffffffffffffffffffffff168173ffffffffffffffffffffffffffffffffffffffff1603610830576040517f08c379a000000000000000000000000000000000000000000000000000000000815260040161082790611411565b60405180910390fd5b6108398161030b565b156108fc576002819080600181540180825580915050600190039060005260206000200160009091909190916101000a81548173ffffffffffffffffffffffffffffffffffffffff021916908373ffffffffffffffffffffffffffffffffffffffff1602179055508073ffffffffffffffffffffffffffffffffffffffff163373ffffffffffffffffffffffffffffffffffffffff167f45ccb9b9d6b112eb7a38daf6a23bda8b4c8449d5cf64a034975a5beb8cdd37b360405160405180910390a35b50565b3373ffffffffffffffffffffffffffffffffffffffff1660008054906101000a900473ffffffffffffffffffffffffffffffffffffffff1673ffffffffffffffffffffffffffffffffffffffff161461098d576040517f08c379a000000000000000000000000000000000000000000000000000000000815260040161098490610ed8565b60405180910390fd5b600073ffffffffffffffffffffffffffffffffffffffff168173ffffffffffffffffffffffffffffffffffffffff16036109fc576040517f08c379a00000000000000000000000000000000000000000000000000000000081526004016109f3906114a3565b60405180910390fd5b60005b600280549050811015610a91578173ffffffffffffffffffffffffffffffffffffffff1660028281548110610a3757610a3661101c565b5b9060005260206000200160009054906101000a900473ffffffffffffffffffffffffffffffffffffffff1673ffffffffffffffffffffffffffffffffffffffff160315610a91578080610a899061107a565b9150506109ff565b600280549050811015610bec5760026001600280549050610ab291906114c3565b81548110610ac357610ac261101c565b5b9060005260206000200160009054906101000a900473ffffffffffffffffffffffffffffffffffffffff1660028281548110610b0257610b0161101c565b5b9060005260206000200160006101000a81548173ffffffffffffffffffffffffffffffffffffffff021916908373ffffffffffffffffffffffffffffffffffffffff1602179055506002805480610b5c57610b5b6114f7565b5b6001900381819060005260206000200160006101000a81549073ffffffffffffffffffffffffffffffffffffffff021916905590558173ffffffffffffffffffffffffffffffffffffffff163373ffffffffffffffffffffffffffffffffffffffff167ff1ec0697329a2e8de8cf055335547acc40fbace8712fc77aeea1ea2afbcf7e3b60405160405180910390a35b5050565b600080fd5b600073ffffffffffffffffffffffffffffffffffffffff82169050919050565b6000610c2082610bf5565b9050919050565b610c3081610c15565b8114610c3b57600080fd5b50565b600081359050610c4d81610c27565b92915050565b600060208284031215610c6957610c68610bf0565b5b6000610c7784828501610c3e565b91505092915050565b60008115159050919050565b610c9581610c80565b82525050565b6000602082019050610cb06000830184610c8c565b92915050565b600081519050919050565b600082825260208201905092915050565b6000819050602082019050919050565b610ceb81610c15565b82525050565b6000610cfd8383610ce2565b60208301905092915050565b6000602082019050919050565b6000610d2182610cb6565b610d2b8185610cc1565b9350610d3683610cd2565b8060005b83811015610d67578151610d4e8882610cf1565b9750610d5983610d09565b925050600181019050610d3a565b5085935050505092915050565b60006020820190508181036000830152610d8e8184610d16565b905092915050565b6000819050919050565b610da981610d96565b8114610db457600080fd5b50565b600081359050610dc681610da0565b92915050565b600080600080600060a08688031215610de857610de7610bf0565b5b6000610df688828901610c3e565b9550506020610e0788828901610c3e565b9450506040610e1888828901610db7565b9350506060610e2988828901610db7565b9250506080610e3a88828901610db7565b9150509295509295909350565b6000819050919050565b610e5a81610e47565b82525050565b6000602082019050610e756000830184610e51565b92915050565b600082825260208201905092915050565b7f524f555445523a204e4f5420544845204f574e45520000000000000000000000600082015250565b6000610ec2601583610e7b565b9150610ecd82610e8c565b602082019050919050565b60006020820190508181036000830152610ef181610eb5565b9050919050565b7f455243373231466163746f727920616464726573732063616e6e6f742062652060008201527f7468652030206164647265737300000000000000000000000000000000000000602082015250565b6000610f54602d83610e7b565b9150610f5f82610ef8565b604082019050919050565b60006020820190508181036000830152610f8381610f47565b9050919050565b7f455243373231466163746f7279206164647265737320616c726561647920736560008201527f7400000000000000000000000000000000000000000000000000000000000000602082015250565b6000610fe6602183610e7b565b9150610ff182610f8a565b604082019050919050565b6000602082019050818103600083015261101581610fd9565b9050919050565b7f4e487b7100000000000000000000000000000000000000000000000000000000600052603260045260246000fd5b7f4e487b7100000000000000000000000000000000000000000000000000000000600052601160045260246000fd5b600061108582610d96565b91507fffffffffffffffffffffffffffffffffffffffffffffffffffffffffffffffff82036110b7576110b661104b565b5b600182019050919050565b6110cb81610c15565b82525050565b60006020820190506110e660008301846110c2565b92915050565b6000815190506110fb81610c27565b92915050565b60006020828403121561111757611116610bf0565b5b6000611125848285016110ec565b91505092915050565b7f524f555445523a2045524332302041646472657373206973206e6f742061207660008201527f616c696420746f6b656e00000000000000000000000000000000000000000000602082015250565b600061118a602a83610e7b565b91506111958261112e565b604082019050919050565b600060208201905081810360008301526111b98161117d565b9050919050565b7f524f555445523a20464958454420505249434520434f4e54524143542041444460008201527f52455353204953204e4f542056414c4944000000000000000000000000000000602082015250565b600061121c603183610e7b565b9150611227826111c0565b604082019050919050565b6000602082019050818103600083015261124b8161120f565b9050919050565b7f63616c6c6572206f66204652452063726561746546697865645261746520697360008201527f206e6f7420746865204454204f776e6572000000000000000000000000000000602082015250565b60006112ae603183610e7b565b91506112b982611252565b604082019050919050565b600060208201905081810360008301526112dd816112a1565b9050919050565b6112ed81610d96565b82525050565b600060a08201905061130860008301886110c2565b61131560208301876110c2565b61132260408301866112e4565b61132f60608301856112e4565b61133c60808301846112e4565b9695505050505050565b61134f81610e47565b811461135a57600080fd5b50565b60008151905061136c81611346565b92915050565b60006020828403121561138857611387610bf0565b5b60006113968482850161135d565b91505092915050565b7f524f555445523a20747279696e6720746f2061646420616e20696e76616c696460008201527f2046697865645261746520616464726573730000000000000000000000000000602082015250565b60006113fb603283610e7b565b91506114068261139f565b604082019050919050565b6000602082019050818103600083015261142a816113ee565b9050919050565b7f524f555445523a20494e56414c4944204144445245535320494e2052454d4f5660008201527f4520464958454420524154450000000000000000000000000000000000000000602082015250565b600061148d602c83610e7b565b915061149882611431565b604082019050919050565b600060208201905081810360008301526114bc81611480565b9050919050565b60006114ce82610d96565b91506114d983610d96565b92508282039050818111156114f1576114f061104b565b5b92915050565b7f4e487b7100000000000000000000000000000000000000000000000000000000600052603160045260246000fdfea26469706673582212204e76178b21f8af7fa9722f7b797d30e70cafa0e40ea52a9eea18c44b031e411264736f6c63430008120033",
  "linkReferences": {},
  "deployedLinkReferences": {}
}