{
  "_format": "hh-sol-artifact-1",
  "contractName": "RouterFactory",
  "sourceName": "contracts/RouterFactory.sol",
  "abi": [
    {
      "inputs": [
        {
          "internalType": "address",
          "name": "routerOwner_",
          "type": "address"
        }
      ],
      "stateMutability": "nonpayable",
      "type": "constructor"
    },
    {
      "anonymous": false,
      "inputs": [
        {
          "indexed": true,
          "internalType": "address",
          "name": "caller",
          "type": "address"
        },
        {
          "indexed": true,
          "internalType": "address",
          "name": "contractAddress",
          "type": "address"
        }
      ],
      "name": "FixedRateContractAdded",
      "type": "event"
    },
    {
      "anonymous": false,
      "inputs": [
        {
          "indexed": true,
          "internalType": "address",
          "name": "caller",
          "type": "address"
        },
        {
          "indexed": true,
          "internalType": "address",
          "name": "contractAddress",
          "type": "address"
        }
      ],
      "name": "FixedRateContractRemoved",
      "type": "event"
    },
    {
      "inputs": [
        {
          "internalType": "address",
          "name": "factory_",
          "type": "address"
        }
      ],
      "name": "addFactoryAddress",
      "outputs": [],
      "stateMutability": "nonpayable",
      "type": "function"
    },
    {
      "inputs": [
        {
          "internalType": "address",
          "name": "fixedRate_",
          "type": "address"
        }
      ],
      "name": "addFixedRateAddress",
      "outputs": [],
      "stateMutability": "nonpayable",
      "type": "function"
    },
    {
      "inputs": [
        {
          "internalType": "address",
          "name": "fixedRateAddress_",
          "type": "address"
        },
        {
          "internalType": "address",
          "name": "owner_",
          "type": "address"
        },
        {
          "internalType": "uint256",
          "name": "fixedRate_",
          "type": "uint256"
        },
        {
          "internalType": "uint256",
          "name": "dataTokenDecimals_",
          "type": "uint256"
        },
        {
          "internalType": "uint256",
          "name": "giveMintPerm_to_Exch_",
          "type": "uint256"
        }
      ],
      "name": "createFixedRate",
      "outputs": [
        {
          "internalType": "bytes32",
          "name": "exchangeID",
          "type": "bytes32"
        }
      ],
      "stateMutability": "nonpayable",
      "type": "function"
    },
    {
      "inputs": [],
      "name": "getFixedrateContracts",
      "outputs": [
        {
          "internalType": "address[]",
          "name": "",
          "type": "address[]"
        }
      ],
      "stateMutability": "view",
      "type": "function"
    },
    {
      "inputs": [
        {
          "internalType": "address",
          "name": "fixedRate_",
          "type": "address"
        }
      ],
      "name": "isNewFixedRateAddress",
      "outputs": [
        {
          "internalType": "bool",
          "name": "",
          "type": "bool"
        }
      ],
      "stateMutability": "view",
      "type": "function"
    },
    {
      "inputs": [
        {
          "internalType": "address",
          "name": "fixedRateAddress_",
          "type": "address"
        }
      ],
      "name": "removeFixedRateContract",
      "outputs": [],
      "stateMutability": "nonpayable",
      "type": "function"
    }
  ],
  "bytecode": "0x60806040523480156200001157600080fd5b50604051620016d9380380620016d983398181016040528101906200003791906200015a565b600073ffffffffffffffffffffffffffffffffffffffff168173ffffffffffffffffffffffffffffffffffffffff1603620000a9576040517f08c379a0000000000000000000000000000000000000000000000000000000008152600401620000a09062000213565b60405180910390fd5b806000806101000a81548173ffffffffffffffffffffffffffffffffffffffff021916908373ffffffffffffffffffffffffffffffffffffffff1602179055505062000235565b600080fd5b600073ffffffffffffffffffffffffffffffffffffffff82169050919050565b60006200012282620000f5565b9050919050565b620001348162000115565b81146200014057600080fd5b50565b600081519050620001548162000129565b92915050565b600060208284031215620001735762000172620000f0565b5b6000620001838482850162000143565b91505092915050565b600082825260208201905092915050565b7f526f75746572206f776e65722063616e6e6f742062652074686520302061646460008201527f7265737300000000000000000000000000000000000000000000000000000000602082015250565b6000620001fb6024836200018c565b915062000208826200019d565b604082019050919050565b600060208201905081810360008301526200022e81620001ec565b9050919050565b61149480620002456000396000f3fe608060405234801561001057600080fd5b50600436106100625760003560e01c806318c0c695146100675780633ad8b6f4146100835780633c0c6585146100b357806346ab8f0f146100d157806396f4d1b1146101015780639f2c010a1461011d575b600080fd5b610081600480360381019061007c9190610c1d565b610139565b005b61009d60048036038101906100989190610c1d565b61030b565b6040516100aa9190610c65565b60405180910390f35b6100bb6103b9565b6040516100c89190610d3e565b60405180910390f35b6100eb60048036038101906100e69190610d96565b610447565b6040516100f89190610e2a565b60405180910390f35b61011b60048036038101906101169190610c1d565b6106fd565b005b61013760048036038101906101329190610c1d565b6108c9565b005b3373ffffffffffffffffffffffffffffffffffffffff1660008054906101000a900473ffffffffffffffffffffffffffffffffffffffff1673ffffffffffffffffffffffffffffffffffffffff16146101c7576040517f08c379a00000000000000000000000000000000000000000000000000000000081526004016101be90610ea2565b60405180910390fd5b600073ffffffffffffffffffffffffffffffffffffffff168173ffffffffffffffffffffffffffffffffffffffff1603610236576040517f08c379a000000000000000000000000000000000000000000000000000000000815260040161022d90610f34565b60405180910390fd5b600073ffffffffffffffffffffffffffffffffffffffff16600160009054906101000a900473ffffffffffffffffffffffffffffffffffffffff1673ffffffffffffffffffffffffffffffffffffffff16146102c7576040517f08c379a00000000000000000000000000000000000000000000000000000000081526004016102be90610fc6565b60405180910390fd5b80600160006101000a81548173ffffffffffffffffffffffffffffffffffffffff021916908373ffffffffffffffffffffffffffffffffffffffff16021790555050565b600080600090505b6002805490508110156103ae578273ffffffffffffffffffffffffffffffffffffffff166002828154811061034b5761034a610fe6565b5b9060005260206000200160009054906101000a900473ffffffffffffffffffffffffffffffffffffffff1673ffffffffffffffffffffffffffffffffffffffff160361039b5760009150506103b4565b80806103a690611044565b915050610313565b50600190505b919050565b6060600280548060200260200160405190810160405280929190818152602001828054801561043d57602002820191906000526020600020905b8160009054906101000a900473ffffffffffffffffffffffffffffffffffffffff1673ffffffffffffffffffffffffffffffffffffffff16815260200190600101908083116103f3575b5050505050905090565b60003373ffffffffffffffffffffffffffffffffffffffff16600160009054906101000a900473ffffffffffffffffffffffffffffffffffffffff1673ffffffffffffffffffffffffffffffffffffffff166332f43b9e336040518263ffffffff1660e01b81526004016104bb919061109b565b602060405180830381865afa1580156104d8573d6000803e3d6000fd5b505050506040513d601f19601f820116820180604052508101906104fc91906110cb565b73ffffffffffffffffffffffffffffffffffffffff1614610552576040517f08c379a00000000000000000000000000000000000000000000000000000000081526004016105499061116a565b60405180910390fd5b61055b8661030b565b1561059b576040517f08c379a0000000000000000000000000000000000000000000000000000000008152600401610592906111fc565b60405180910390fd5b8473ffffffffffffffffffffffffffffffffffffffff16600160009054906101000a900473ffffffffffffffffffffffffffffffffffffffff1673ffffffffffffffffffffffffffffffffffffffff1663778ea461336040518263ffffffff1660e01b815260040161060d919061109b565b602060405180830381865afa15801561062a573d6000803e3d6000fd5b505050506040513d601f19601f8201168201806040525081019061064e91906110cb565b73ffffffffffffffffffffffffffffffffffffffff161461066e57600080fd5b8573ffffffffffffffffffffffffffffffffffffffff16637e0fdb7633878787876040518663ffffffff1660e01b81526004016106af95949392919061122b565b6020604051808303816000875af11580156106ce573d6000803e3d6000fd5b505050506040513d601f19601f820116820180604052508101906106f291906112aa565b905095945050505050565b3373ffffffffffffffffffffffffffffffffffffffff1660008054906101000a900473ffffffffffffffffffffffffffffffffffffffff1673ffffffffffffffffffffffffffffffffffffffff161461078b576040517f08c379a000000000000000000000000000000000000000000000000000000000815260040161078290610ea2565b60405180910390fd5b600073ffffffffffffffffffffffffffffffffffffffff168173ffffffffffffffffffffffffffffffffffffffff16036107fa576040517f08c379a00000000000000000000000000000000000000000000000000000000081526004016107f190611349565b60405180910390fd5b6108038161030b565b156108c6576002819080600181540180825580915050600190039060005260206000200160009091909190916101000a81548173ffffffffffffffffffffffffffffffffffffffff021916908373ffffffffffffffffffffffffffffffffffffffff1602179055508073ffffffffffffffffffffffffffffffffffffffff163373ffffffffffffffffffffffffffffffffffffffff167f45ccb9b9d6b112eb7a38daf6a23bda8b4c8449d5cf64a034975a5beb8cdd37b360405160405180910390a35b50565b3373ffffffffffffffffffffffffffffffffffffffff1660008054906101000a900473ffffffffffffffffffffffffffffffffffffffff1673ffffffffffffffffffffffffffffffffffffffff1614610957576040517f08c379a000000000000000000000000000000000000000000000000000000000815260040161094e90610ea2565b60405180910390fd5b600073ffffffffffffffffffffffffffffffffffffffff168173ffffffffffffffffffffffffffffffffffffffff16036109c6576040517f08c379a00000000000000000000000000000000000000000000000000000000081526004016109bd906113db565b60405180910390fd5b60005b600280549050811015610a5b578173ffffffffffffffffffffffffffffffffffffffff1660028281548110610a0157610a00610fe6565b5b9060005260206000200160009054906101000a900473ffffffffffffffffffffffffffffffffffffffff1673ffffffffffffffffffffffffffffffffffffffff160315610a5b578080610a5390611044565b9150506109c9565b600280549050811015610bb65760026001600280549050610a7c91906113fb565b81548110610a8d57610a8c610fe6565b5b9060005260206000200160009054906101000a900473ffffffffffffffffffffffffffffffffffffffff1660028281548110610acc57610acb610fe6565b5b9060005260206000200160006101000a81548173ffffffffffffffffffffffffffffffffffffffff021916908373ffffffffffffffffffffffffffffffffffffffff1602179055506002805480610b2657610b2561142f565b5b6001900381819060005260206000200160006101000a81549073ffffffffffffffffffffffffffffffffffffffff021916905590558173ffffffffffffffffffffffffffffffffffffffff163373ffffffffffffffffffffffffffffffffffffffff167ff1ec0697329a2e8de8cf055335547acc40fbace8712fc77aeea1ea2afbcf7e3b60405160405180910390a35b5050565b600080fd5b600073ffffffffffffffffffffffffffffffffffffffff82169050919050565b6000610bea82610bbf565b9050919050565b610bfa81610bdf565b8114610c0557600080fd5b50565b600081359050610c1781610bf1565b92915050565b600060208284031215610c3357610c32610bba565b5b6000610c4184828501610c08565b91505092915050565b60008115159050919050565b610c5f81610c4a565b82525050565b6000602082019050610c7a6000830184610c56565b92915050565b600081519050919050565b600082825260208201905092915050565b6000819050602082019050919050565b610cb581610bdf565b82525050565b6000610cc78383610cac565b60208301905092915050565b6000602082019050919050565b6000610ceb82610c80565b610cf58185610c8b565b9350610d0083610c9c565b8060005b83811015610d31578151610d188882610cbb565b9750610d2383610cd3565b925050600181019050610d04565b5085935050505092915050565b60006020820190508181036000830152610d588184610ce0565b905092915050565b6000819050919050565b610d7381610d60565b8114610d7e57600080fd5b50565b600081359050610d9081610d6a565b92915050565b600080600080600060a08688031215610db257610db1610bba565b5b6000610dc088828901610c08565b9550506020610dd188828901610c08565b9450506040610de288828901610d81565b9350506060610df388828901610d81565b9250506080610e0488828901610d81565b9150509295509295909350565b6000819050919050565b610e2481610e11565b82525050565b6000602082019050610e3f6000830184610e1b565b92915050565b600082825260208201905092915050565b7f524f555445523a204e4f5420544845204f574e45520000000000000000000000600082015250565b6000610e8c601583610e45565b9150610e9782610e56565b602082019050919050565b60006020820190508181036000830152610ebb81610e7f565b9050919050565b7f455243373231466163746f727920616464726573732063616e6e6f742062652060008201527f7468652030206164647265737300000000000000000000000000000000000000602082015250565b6000610f1e602d83610e45565b9150610f2982610ec2565b604082019050919050565b60006020820190508181036000830152610f4d81610f11565b9050919050565b7f455243373231466163746f7279206164647265737320616c726561647920736560008201527f7400000000000000000000000000000000000000000000000000000000000000602082015250565b6000610fb0602183610e45565b9150610fbb82610f54565b604082019050919050565b60006020820190508181036000830152610fdf81610fa3565b9050919050565b7f4e487b7100000000000000000000000000000000000000000000000000000000600052603260045260246000fd5b7f4e487b7100000000000000000000000000000000000000000000000000000000600052601160045260246000fd5b600061104f82610d60565b91507fffffffffffffffffffffffffffffffffffffffffffffffffffffffffffffffff820361108157611080611015565b5b600182019050919050565b61109581610bdf565b82525050565b60006020820190506110b0600083018461108c565b92915050565b6000815190506110c581610bf1565b92915050565b6000602082840312156110e1576110e0610bba565b5b60006110ef848285016110b6565b91505092915050565b7f524f555445523a2045524332302041646472657373206973206e6f742061207660008201527f616c696420746f6b656e00000000000000000000000000000000000000000000602082015250565b6000611154602a83610e45565b915061115f826110f8565b604082019050919050565b6000602082019050818103600083015261118381611147565b9050919050565b7f524f555445523a20464958454420505249434520434f4e54524143542041444460008201527f52455353204953204e4f542056414c4944000000000000000000000000000000602082015250565b60006111e6603183610e45565b91506111f18261118a565b604082019050919050565b60006020820190508181036000830152611215816111d9565b9050919050565b61122581610d60565b82525050565b600060a082019050611240600083018861108c565b61124d602083018761108c565b61125a604083018661121c565b611267606083018561121c565b611274608083018461121c565b9695505050505050565b61128781610e11565b811461129257600080fd5b50565b6000815190506112a48161127e565b92915050565b6000602082840312156112c0576112bf610bba565b5b60006112ce84828501611295565b91505092915050565b7f524f555445523a20747279696e6720746f2061646420616e20696e76616c696460008201527f2046697865645261746520616464726573730000000000000000000000000000602082015250565b6000611333603283610e45565b915061133e826112d7565b604082019050919050565b6000602082019050818103600083015261136281611326565b9050919050565b7f524f555445523a20494e56414c4944204144445245535320494e2052454d4f5660008201527f4520464958454420524154450000000000000000000000000000000000000000602082015250565b60006113c5602c83610e45565b91506113d082611369565b604082019050919050565b600060208201905081810360008301526113f4816113b8565b9050919050565b600061140682610d60565b915061141183610d60565b925082820390508181111561142957611428611015565b5b92915050565b7f4e487b7100000000000000000000000000000000000000000000000000000000600052603160045260246000fdfea264697066735822122039e3045b95b8862407ab0f7a9c1ccb79e0c810c99fe47cb7019d64170891617564736f6c63430008120033",
  "linkReferences": {},
  "deployedLinkReferences": {}
}