{
  "_format": "hh-sol-artifact-1",
  "contractName": "ERC721Base",
  "sourceName": "contracts/ERC721Base.sol",
  "abi": [
    {
      "anonymous": false,
      "inputs": [
        {
          "indexed": true,
          "internalType": "address",
          "name": "owner",
          "type": "address"
        },
        {
          "indexed": true,
          "internalType": "address",
          "name": "approved",
          "type": "address"
        },
        {
          "indexed": true,
          "internalType": "uint256",
          "name": "tokenId",
          "type": "uint256"
        }
      ],
      "name": "Approval",
      "type": "event"
    },
    {
      "anonymous": false,
      "inputs": [
        {
          "indexed": true,
          "internalType": "address",
          "name": "owner",
          "type": "address"
        },
        {
          "indexed": true,
          "internalType": "address",
          "name": "operator",
          "type": "address"
        },
        {
          "indexed": false,
          "internalType": "bool",
          "name": "approved",
          "type": "bool"
        }
      ],
      "name": "ApprovalForAll",
      "type": "event"
    },
    {
      "anonymous": false,
      "inputs": [
        {
          "indexed": true,
          "internalType": "address",
          "name": "owner",
          "type": "address"
        },
        {
          "indexed": false,
          "internalType": "string",
          "name": "name",
          "type": "string"
        },
        {
          "indexed": false,
          "internalType": "string",
          "name": "symbol",
          "type": "string"
        },
        {
          "indexed": false,
          "internalType": "address",
          "name": "factory",
          "type": "address"
        }
      ],
      "name": "NFTminted",
      "type": "event"
    },
    {
      "anonymous": false,
      "inputs": [
        {
          "indexed": true,
          "internalType": "address",
          "name": "from",
          "type": "address"
        },
        {
          "indexed": true,
          "internalType": "address",
          "name": "to",
          "type": "address"
        },
        {
          "indexed": true,
          "internalType": "uint256",
          "name": "tokenId",
          "type": "uint256"
        }
      ],
      "name": "Transfer",
      "type": "event"
    },
    {
      "stateMutability": "payable",
      "type": "fallback"
    },
    {
      "inputs": [
        {
          "internalType": "address",
          "name": "to",
          "type": "address"
        },
        {
          "internalType": "uint256",
          "name": "tokenId",
          "type": "uint256"
        }
      ],
      "name": "approve",
      "outputs": [],
      "stateMutability": "nonpayable",
      "type": "function"
    },
    {
      "inputs": [
        {
          "internalType": "address",
          "name": "owner",
          "type": "address"
        }
      ],
      "name": "balanceOf",
      "outputs": [
        {
          "internalType": "uint256",
          "name": "",
          "type": "uint256"
        }
      ],
      "stateMutability": "view",
      "type": "function"
    },
    {
      "inputs": [
        {
          "internalType": "uint256",
          "name": "tokenId",
          "type": "uint256"
        }
      ],
      "name": "burn",
      "outputs": [],
      "stateMutability": "nonpayable",
      "type": "function"
    },
    {
      "inputs": [
        {
          "internalType": "address",
          "name": "from",
          "type": "address"
        },
        {
          "internalType": "address",
          "name": "to",
          "type": "address"
        },
        {
          "internalType": "uint256",
          "name": "tokenId",
          "type": "uint256"
        }
      ],
      "name": "changeNFTOwnership",
      "outputs": [],
      "stateMutability": "nonpayable",
      "type": "function"
    },
    {
      "inputs": [
        {
          "internalType": "uint256",
          "name": "tokenId",
          "type": "uint256"
        }
      ],
      "name": "getApproved",
      "outputs": [
        {
          "internalType": "address",
          "name": "",
          "type": "address"
        }
      ],
      "stateMutability": "view",
      "type": "function"
    },
    {
      "inputs": [
        {
          "internalType": "uint256",
          "name": "tokenID",
          "type": "uint256"
        }
      ],
      "name": "getNFTOwner",
      "outputs": [
        {
          "internalType": "address",
          "name": "",
          "type": "address"
        }
      ],
      "stateMutability": "view",
      "type": "function"
    },
    {
      "inputs": [],
      "name": "getNFTname",
      "outputs": [
        {
          "internalType": "string",
          "name": "",
          "type": "string"
        }
      ],
      "stateMutability": "view",
      "type": "function"
    },
    {
      "inputs": [],
      "name": "getNFTsymbol",
      "outputs": [
        {
          "internalType": "string",
          "name": "",
          "type": "string"
        }
      ],
      "stateMutability": "view",
      "type": "function"
    },
    {
      "inputs": [
        {
          "internalType": "address",
          "name": "owner",
          "type": "address"
        },
        {
          "internalType": "string",
          "name": "name",
          "type": "string"
        },
        {
          "internalType": "string",
          "name": "symbol",
          "type": "string"
        },
        {
          "internalType": "address",
          "name": "factory",
          "type": "address"
        },
        {
          "internalType": "string",
          "name": "_tokenURI",
          "type": "string"
        }
      ],
      "name": "initialize",
      "outputs": [
        {
          "internalType": "bool",
          "name": "",
          "type": "bool"
        }
      ],
      "stateMutability": "nonpayable",
      "type": "function"
    },
    {
      "inputs": [
        {
          "internalType": "address",
          "name": "owner",
          "type": "address"
        },
        {
          "internalType": "address",
          "name": "operator",
          "type": "address"
        }
      ],
      "name": "isApprovedForAll",
      "outputs": [
        {
          "internalType": "bool",
          "name": "",
          "type": "bool"
        }
      ],
      "stateMutability": "view",
      "type": "function"
    },
    {
      "inputs": [],
      "name": "name",
      "outputs": [
        {
          "internalType": "string",
          "name": "",
          "type": "string"
        }
      ],
      "stateMutability": "view",
      "type": "function"
    },
    {
      "inputs": [
        {
          "internalType": "uint256",
          "name": "tokenId",
          "type": "uint256"
        }
      ],
      "name": "ownerOf",
      "outputs": [
        {
          "internalType": "address",
          "name": "",
          "type": "address"
        }
      ],
      "stateMutability": "view",
      "type": "function"
    },
    {
      "inputs": [
        {
          "internalType": "address",
          "name": "from",
          "type": "address"
        },
        {
          "internalType": "address",
          "name": "to",
          "type": "address"
        },
        {
          "internalType": "uint256",
          "name": "tokenId",
          "type": "uint256"
        }
      ],
      "name": "safeTransferFrom",
      "outputs": [],
      "stateMutability": "nonpayable",
      "type": "function"
    },
    {
      "inputs": [
        {
          "internalType": "address",
          "name": "from",
          "type": "address"
        },
        {
          "internalType": "address",
          "name": "to",
          "type": "address"
        },
        {
          "internalType": "uint256",
          "name": "tokenId",
          "type": "uint256"
        },
        {
          "internalType": "bytes",
          "name": "data",
          "type": "bytes"
        }
      ],
      "name": "safeTransferFrom",
      "outputs": [],
      "stateMutability": "nonpayable",
      "type": "function"
    },
    {
      "inputs": [
        {
          "internalType": "address",
          "name": "operator",
          "type": "address"
        },
        {
          "internalType": "bool",
          "name": "approved",
          "type": "bool"
        }
      ],
      "name": "setApprovalForAll",
      "outputs": [],
      "stateMutability": "nonpayable",
      "type": "function"
    },
    {
      "inputs": [
        {
          "internalType": "bytes4",
          "name": "interfaceId",
          "type": "bytes4"
        }
      ],
      "name": "supportsInterface",
      "outputs": [
        {
          "internalType": "bool",
          "name": "",
          "type": "bool"
        }
      ],
      "stateMutability": "view",
      "type": "function"
    },
    {
      "inputs": [],
      "name": "symbol",
      "outputs": [
        {
          "internalType": "string",
          "name": "",
          "type": "string"
        }
      ],
      "stateMutability": "view",
      "type": "function"
    },
    {
      "inputs": [
        {
          "internalType": "uint256",
          "name": "tokenId",
          "type": "uint256"
        }
      ],
      "name": "tokenURI",
      "outputs": [
        {
          "internalType": "string",
          "name": "",
          "type": "string"
        }
      ],
      "stateMutability": "view",
      "type": "function"
    },
    {
      "inputs": [
        {
          "internalType": "address",
          "name": "from",
          "type": "address"
        },
        {
          "internalType": "address",
          "name": "to",
          "type": "address"
        },
        {
          "internalType": "uint256",
          "name": "tokenId",
          "type": "uint256"
        }
      ],
      "name": "transferFrom",
      "outputs": [],
      "stateMutability": "nonpayable",
      "type": "function"
    },
    {
      "stateMutability": "payable",
      "type": "receive"
    }
  ],
  "bytecode": "0x60806040526000600a60146101000a81548160ff0219169083151502179055503480156200002c57600080fd5b506040518060400160405280600481526020017f42617365000000000000000000000000000000000000000000000000000000008152506040518060400160405280600a81526020017f4261736553796d626f6c000000000000000000000000000000000000000000008152508160009081620000aa91906200033f565b508060019081620000bc91906200033f565b50505062000426565b600081519050919050565b7f4e487b7100000000000000000000000000000000000000000000000000000000600052604160045260246000fd5b7f4e487b7100000000000000000000000000000000000000000000000000000000600052602260045260246000fd5b600060028204905060018216806200014757607f821691505b6020821081036200015d576200015c620000ff565b5b50919050565b60008190508160005260206000209050919050565b60006020601f8301049050919050565b600082821b905092915050565b600060088302620001c77fffffffffffffffffffffffffffffffffffffffffffffffffffffffffffffffff8262000188565b620001d3868362000188565b95508019841693508086168417925050509392505050565b6000819050919050565b6000819050919050565b6000620002206200021a6200021484620001eb565b620001f5565b620001eb565b9050919050565b6000819050919050565b6200023c83620001ff565b620002546200024b8262000227565b84845462000195565b825550505050565b600090565b6200026b6200025c565b6200027881848462000231565b505050565b5b81811015620002a0576200029460008262000261565b6001810190506200027e565b5050565b601f821115620002ef57620002b98162000163565b620002c48462000178565b81016020851015620002d4578190505b620002ec620002e38562000178565b8301826200027d565b50505b505050565b600082821c905092915050565b60006200031460001984600802620002f4565b1980831691505092915050565b60006200032f838362000301565b9150826002028217905092915050565b6200034a82620000c5565b67ffffffffffffffff811115620003665762000365620000d0565b5b6200037282546200012e565b6200037f828285620002a4565b600060209050601f831160018114620003b75760008415620003a2578287015190505b620003ae858262000321565b8655506200041e565b601f198416620003c78662000163565b60005b82811015620003f157848901518255600182019150602085019450602081019050620003ca565b868310156200041157848901516200040d601f89168262000301565b8355505b6001600288020188555050505b505050505050565b61391880620004366000396000f3fe6080604052600436106101185760003560e01c806342966c68116100a0578063b88d4fde11610064578063b88d4fde146103c9578063c87b56dd146103f2578063de9fdebe1461042f578063deaea2e31461045a578063e985e9c5146104975761011f565b806342966c68146102d25780636352211e146102fb57806370a082311461033857806395d89b4114610375578063a22cb465146103a05761011f565b80631ed4fb2c116100e75780631ed4fb2c146101ef57806323b872dd1461022c5780632842440a146102555780633d38edac1461027e57806342842e0e146102a95761011f565b806301ffc9a71461012157806306fdde031461015e578063081812fc14610189578063095ea7b3146101c65761011f565b3661011f57005b005b34801561012d57600080fd5b506101486004803603810190610143919061231f565b6104d4565b6040516101559190612367565b60405180910390f35b34801561016a57600080fd5b506101736105b6565b6040516101809190612412565b60405180910390f35b34801561019557600080fd5b506101b060048036038101906101ab919061246a565b610648565b6040516101bd91906124d8565b60405180910390f35b3480156101d257600080fd5b506101ed60048036038101906101e8919061251f565b61068e565b005b3480156101fb57600080fd5b50610216600480360381019061021191906126f4565b6107a5565b6040516102239190612367565b60405180910390f35b34801561023857600080fd5b50610253600480360381019061024e91906127cc565b610a07565b005b34801561026157600080fd5b5061027c600480360381019061027791906127cc565b610a67565b005b34801561028a57600080fd5b50610293610b31565b6040516102a09190612412565b60405180910390f35b3480156102b557600080fd5b506102d060048036038101906102cb91906127cc565b610bc3565b005b3480156102de57600080fd5b506102f960048036038101906102f4919061246a565b610be3565b005b34801561030757600080fd5b50610322600480360381019061031d919061246a565b610c3f565b60405161032f91906124d8565b60405180910390f35b34801561034457600080fd5b5061035f600480360381019061035a919061281f565b610cc5565b60405161036c919061285b565b60405180910390f35b34801561038157600080fd5b5061038a610d7c565b6040516103979190612412565b60405180910390f35b3480156103ac57600080fd5b506103c760048036038101906103c291906128a2565b610e0e565b005b3480156103d557600080fd5b506103f060048036038101906103eb9190612983565b610e24565b005b3480156103fe57600080fd5b506104196004803603810190610414919061246a565b610e86565b6040516104269190612412565b60405180910390f35b34801561043b57600080fd5b50610444610e98565b6040516104519190612412565b60405180910390f35b34801561046657600080fd5b50610481600480360381019061047c919061246a565b610f2a565b60405161048e91906124d8565b60405180910390f35b3480156104a357600080fd5b506104be60048036038101906104b99190612a06565b610f7f565b6040516104cb9190612367565b60405180910390f35b60007f80ac58cd000000000000000000000000000000000000000000000000000000007bffffffffffffffffffffffffffffffffffffffffffffffffffffffff1916827bffffffffffffffffffffffffffffffffffffffffffffffffffffffff1916148061059f57507f5b5e139f000000000000000000000000000000000000000000000000000000007bffffffffffffffffffffffffffffffffffffffffffffffffffffffff1916827bffffffffffffffffffffffffffffffffffffffffffffffffffffffff1916145b806105af57506105ae82611013565b5b9050919050565b6060600080546105c590612a75565b80601f01602080910402602001604051908101604052809291908181526020018280546105f190612a75565b801561063e5780601f106106135761010080835404028352916020019161063e565b820191906000526020600020905b81548152906001019060200180831161062157829003601f168201915b5050505050905090565b60006106538261107d565b6004600083815260200190815260200160002060009054906101000a900473ffffffffffffffffffffffffffffffffffffffff169050919050565b600061069982610c3f565b90508073ffffffffffffffffffffffffffffffffffffffff168373ffffffffffffffffffffffffffffffffffffffff1603610709576040517f08c379a000000000000000000000000000000000000000000000000000000000815260040161070090612b18565b60405180910390fd5b8073ffffffffffffffffffffffffffffffffffffffff166107286110c8565b73ffffffffffffffffffffffffffffffffffffffff1614806107575750610756816107516110c8565b610f7f565b5b610796576040517f08c379a000000000000000000000000000000000000000000000000000000000815260040161078d90612baa565b60405180910390fd5b6107a083836110d0565b505050565b60008073ffffffffffffffffffffffffffffffffffffffff168873ffffffffffffffffffffffffffffffffffffffff1603610815576040517f08c379a000000000000000000000000000000000000000000000000000000000815260040161080c90612c3c565b60405180910390fd5b600a60149054906101000a900460ff1615610865576040517f08c379a000000000000000000000000000000000000000000000000000000000815260040161085c90612cce565b60405180910390fd5b87600760006101000a81548173ffffffffffffffffffffffffffffffffffffffff021916908373ffffffffffffffffffffffffffffffffffffffff1602179055508686600891826108b7929190612ea5565b508484600991826108c9929190612ea5565b5082600a60006101000a81548173ffffffffffffffffffffffffffffffffffffffff021916908373ffffffffffffffffffffffffffffffffffffffff160217905550610937600760009054906101000a900473ffffffffffffffffffffffffffffffffffffffff1683611189565b6001600a60146101000a81548160ff021916908315150217905550600760009054906101000a900473ffffffffffffffffffffffffffffffffffffffff1673ffffffffffffffffffffffffffffffffffffffff167fd133d105f7b44671ec3a00c607590e7154adaafd2e0e9542b201374f2935851960086009600a60009054906101000a900473ffffffffffffffffffffffffffffffffffffffff166040516109e293929190612ff9565b60405180910390a2600a60149054906101000a900460ff169050979650505050505050565b610a18610a126110c8565b826111f3565b610a57576040517f08c379a0000000000000000000000000000000000000000000000000000000008152600401610a4e906130b0565b60405180910390fd5b610a62838383611288565b505050565b610a716001610c3f565b73ffffffffffffffffffffffffffffffffffffffff163373ffffffffffffffffffffffffffffffffffffffff1614610ade576040517f08c379a0000000000000000000000000000000000000000000000000000000008152600401610ad59061311c565b60405180910390fd5b60018114610b21576040517f08c379a0000000000000000000000000000000000000000000000000000000008152600401610b1890613188565b60405180910390fd5b610b2c838383610bc3565b505050565b606060088054610b4090612a75565b80601f0160208091040260200160405190810160405280929190818152602001828054610b6c90612a75565b8015610bb95780601f10610b8e57610100808354040283529160200191610bb9565b820191906000526020600020905b815481529060010190602001808311610b9c57829003601f168201915b5050505050905090565b610bde83838360405180602001604052806000815250610e24565b505050565b610bf4610bee6110c8565b826111f3565b610c33576040517f08c379a0000000000000000000000000000000000000000000000000000000008152600401610c2a906130b0565b60405180910390fd5b610c3c81611581565b50565b600080610c4b83611604565b9050600073ffffffffffffffffffffffffffffffffffffffff168173ffffffffffffffffffffffffffffffffffffffff1603610cbc576040517f08c379a0000000000000000000000000000000000000000000000000000000008152600401610cb3906131f4565b60405180910390fd5b80915050919050565b60008073ffffffffffffffffffffffffffffffffffffffff168273ffffffffffffffffffffffffffffffffffffffff1603610d35576040517f08c379a0000000000000000000000000000000000000000000000000000000008152600401610d2c90613286565b60405180910390fd5b600360008373ffffffffffffffffffffffffffffffffffffffff1673ffffffffffffffffffffffffffffffffffffffff168152602001908152602001600020549050919050565b606060018054610d8b90612a75565b80601f0160208091040260200160405190810160405280929190818152602001828054610db790612a75565b8015610e045780601f10610dd957610100808354040283529160200191610e04565b820191906000526020600020905b815481529060010190602001808311610de757829003601f168201915b5050505050905090565b610e20610e196110c8565b8383611641565b5050565b610e35610e2f6110c8565b836111f3565b610e74576040517f08c379a0000000000000000000000000000000000000000000000000000000008152600401610e6b906130b0565b60405180910390fd5b610e80848484846117ad565b50505050565b6060610e9182611809565b9050919050565b606060098054610ea790612a75565b80601f0160208091040260200160405190810160405280929190818152602001828054610ed390612a75565b8015610f205780601f10610ef557610100808354040283529160200191610f20565b820191906000526020600020905b815481529060010190602001808311610f0357829003601f168201915b5050505050905090565b600060018214610f6f576040517f08c379a0000000000000000000000000000000000000000000000000000000008152600401610f66906132f2565b60405180910390fd5b610f7882610c3f565b9050919050565b6000600560008473ffffffffffffffffffffffffffffffffffffffff1673ffffffffffffffffffffffffffffffffffffffff16815260200190815260200160002060008373ffffffffffffffffffffffffffffffffffffffff1673ffffffffffffffffffffffffffffffffffffffff16815260200190815260200160002060009054906101000a900460ff16905092915050565b60007f01ffc9a7000000000000000000000000000000000000000000000000000000007bffffffffffffffffffffffffffffffffffffffffffffffffffffffff1916827bffffffffffffffffffffffffffffffffffffffffffffffffffffffff1916149050919050565b6110868161191b565b6110c5576040517f08c379a00000000000000000000000000000000000000000000000000000000081526004016110bc906131f4565b60405180910390fd5b50565b600033905090565b816004600083815260200190815260200160002060006101000a81548173ffffffffffffffffffffffffffffffffffffffff021916908373ffffffffffffffffffffffffffffffffffffffff160217905550808273ffffffffffffffffffffffffffffffffffffffff1661114383610c3f565b73ffffffffffffffffffffffffffffffffffffffff167f8c5be1e5ebec7d5bd14f71427d1e84f3dd0314c0f7b2291e5b200ac8c7c3b92560405160405180910390a45050565b600a60149054906101000a900460ff16156111d9576040517f08c379a00000000000000000000000000000000000000000000000000000000081526004016111d090612cce565b60405180910390fd5b6111e482600161195c565b6111ef60018261197a565b5050565b6000806111ff83610c3f565b90508073ffffffffffffffffffffffffffffffffffffffff168473ffffffffffffffffffffffffffffffffffffffff16148061124157506112408185610f7f565b5b8061127f57508373ffffffffffffffffffffffffffffffffffffffff1661126784610648565b73ffffffffffffffffffffffffffffffffffffffff16145b91505092915050565b8273ffffffffffffffffffffffffffffffffffffffff166112a882610c3f565b73ffffffffffffffffffffffffffffffffffffffff16146112fe576040517f08c379a00000000000000000000000000000000000000000000000000000000081526004016112f590613384565b60405180910390fd5b600073ffffffffffffffffffffffffffffffffffffffff168273ffffffffffffffffffffffffffffffffffffffff160361136d576040517f08c379a000000000000000000000000000000000000000000000000000000000815260040161136490613416565b60405180910390fd5b61137a83838360016119e7565b8273ffffffffffffffffffffffffffffffffffffffff1661139a82610c3f565b73ffffffffffffffffffffffffffffffffffffffff16146113f0576040517f08c379a00000000000000000000000000000000000000000000000000000000081526004016113e790613384565b60405180910390fd5b6004600082815260200190815260200160002060006101000a81549073ffffffffffffffffffffffffffffffffffffffff02191690556001600360008573ffffffffffffffffffffffffffffffffffffffff1673ffffffffffffffffffffffffffffffffffffffff168152602001908152602001600020600082825403925050819055506001600360008473ffffffffffffffffffffffffffffffffffffffff1673ffffffffffffffffffffffffffffffffffffffff16815260200190815260200160002060008282540192505081905550816002600083815260200190815260200160002060006101000a81548173ffffffffffffffffffffffffffffffffffffffff021916908373ffffffffffffffffffffffffffffffffffffffff160217905550808273ffffffffffffffffffffffffffffffffffffffff168473ffffffffffffffffffffffffffffffffffffffff167fddf252ad1be2c89b69c2b068fc378daa952ba7f163c4a11628f55a4df523b3ef60405160405180910390a461157c83838360016119ed565b505050565b61158b6001610c3f565b73ffffffffffffffffffffffffffffffffffffffff163373ffffffffffffffffffffffffffffffffffffffff16146115f8576040517f08c379a00000000000000000000000000000000000000000000000000000000081526004016115ef9061311c565b60405180910390fd5b611601816119f3565b50565b60006002600083815260200190815260200160002060009054906101000a900473ffffffffffffffffffffffffffffffffffffffff169050919050565b8173ffffffffffffffffffffffffffffffffffffffff168373ffffffffffffffffffffffffffffffffffffffff16036116af576040517f08c379a00000000000000000000000000000000000000000000000000000000081526004016116a690613482565b60405180910390fd5b80600560008573ffffffffffffffffffffffffffffffffffffffff1673ffffffffffffffffffffffffffffffffffffffff16815260200190815260200160002060008473ffffffffffffffffffffffffffffffffffffffff1673ffffffffffffffffffffffffffffffffffffffff16815260200190815260200160002060006101000a81548160ff0219169083151502179055508173ffffffffffffffffffffffffffffffffffffffff168373ffffffffffffffffffffffffffffffffffffffff167f17307eab39ab6107e8899845ad3d59bd9653f200f220920489ca2b5937696c31836040516117a09190612367565b60405180910390a3505050565b6117b8848484611288565b6117c484848484611a46565b611803576040517f08c379a00000000000000000000000000000000000000000000000000000000081526004016117fa90613514565b60405180910390fd5b50505050565b60606118148261107d565b600060066000848152602001908152602001600020805461183490612a75565b80601f016020809104026020016040519081016040528092919081815260200182805461186090612a75565b80156118ad5780601f10611882576101008083540402835291602001916118ad565b820191906000526020600020905b81548152906001019060200180831161189057829003601f168201915b5050505050905060006118be611bcd565b905060008151036118d3578192505050611916565b6000825111156119085780826040516020016118f0929190613570565b60405160208183030381529060405292505050611916565b61191184611be4565b925050505b919050565b60008073ffffffffffffffffffffffffffffffffffffffff1661193d83611604565b73ffffffffffffffffffffffffffffffffffffffff1614159050919050565b611976828260405180602001604052806000815250611c4c565b5050565b6119838261191b565b6119c2576040517f08c379a00000000000000000000000000000000000000000000000000000000081526004016119b990613606565b60405180910390fd5b806006600084815260200190815260200160002090816119e29190613626565b505050565b50505050565b50505050565b6119fc81611ca7565b6000600660008381526020019081526020016000208054611a1c90612a75565b905014611a4357600660008281526020019081526020016000206000611a429190612256565b5b50565b6000611a678473ffffffffffffffffffffffffffffffffffffffff16611df5565b15611bc0578373ffffffffffffffffffffffffffffffffffffffff1663150b7a02611a906110c8565b8786866040518563ffffffff1660e01b8152600401611ab2949392919061374d565b6020604051808303816000875af1925050508015611aee57506040513d601f19601f82011682018060405250810190611aeb91906137ae565b60015b611b70573d8060008114611b1e576040519150601f19603f3d011682016040523d82523d6000602084013e611b23565b606091505b506000815103611b68576040517f08c379a0000000000000000000000000000000000000000000000000000000008152600401611b5f90613514565b60405180910390fd5b805181602001fd5b63150b7a0260e01b7bffffffffffffffffffffffffffffffffffffffffffffffffffffffff1916817bffffffffffffffffffffffffffffffffffffffffffffffffffffffff191614915050611bc5565b600190505b949350505050565b606060405180602001604052806000815250905090565b6060611bef8261107d565b6000611bf9611bcd565b90506000815111611c195760405180602001604052806000815250611c44565b80611c2384611e18565b604051602001611c34929190613570565b6040516020818303038152906040525b915050919050565b611c568383611ee6565b611c636000848484611a46565b611ca2576040517f08c379a0000000000000000000000000000000000000000000000000000000008152600401611c9990613514565b60405180910390fd5b505050565b6000611cb282610c3f565b9050611cc28160008460016119e7565b611ccb82610c3f565b90506004600083815260200190815260200160002060006101000a81549073ffffffffffffffffffffffffffffffffffffffff02191690556001600360008373ffffffffffffffffffffffffffffffffffffffff1673ffffffffffffffffffffffffffffffffffffffff168152602001908152602001600020600082825403925050819055506002600083815260200190815260200160002060006101000a81549073ffffffffffffffffffffffffffffffffffffffff021916905581600073ffffffffffffffffffffffffffffffffffffffff168273ffffffffffffffffffffffffffffffffffffffff167fddf252ad1be2c89b69c2b068fc378daa952ba7f163c4a11628f55a4df523b3ef60405160405180910390a4611df18160008460016119ed565b5050565b6000808273ffffffffffffffffffffffffffffffffffffffff163b119050919050565b606060006001611e2784612103565b01905060008167ffffffffffffffff811115611e4657611e456125c9565b5b6040519080825280601f01601f191660200182016040528015611e785781602001600182028036833780820191505090505b509050600082602001820190505b600115611edb578080600190039150507f3031323334353637383961626364656600000000000000000000000000000000600a86061a8153600a8581611ecf57611ece6137db565b5b04945060008503611e86575b819350505050919050565b600073ffffffffffffffffffffffffffffffffffffffff168273ffffffffffffffffffffffffffffffffffffffff1603611f55576040517f08c379a0000000000000000000000000000000000000000000000000000000008152600401611f4c90613856565b60405180910390fd5b611f5e8161191b565b15611f9e576040517f08c379a0000000000000000000000000000000000000000000000000000000008152600401611f95906138c2565b60405180910390fd5b611fac6000838360016119e7565b611fb58161191b565b15611ff5576040517f08c379a0000000000000000000000000000000000000000000000000000000008152600401611fec906138c2565b60405180910390fd5b6001600360008473ffffffffffffffffffffffffffffffffffffffff1673ffffffffffffffffffffffffffffffffffffffff16815260200190815260200160002060008282540192505081905550816002600083815260200190815260200160002060006101000a81548173ffffffffffffffffffffffffffffffffffffffff021916908373ffffffffffffffffffffffffffffffffffffffff160217905550808273ffffffffffffffffffffffffffffffffffffffff16600073ffffffffffffffffffffffffffffffffffffffff167fddf252ad1be2c89b69c2b068fc378daa952ba7f163c4a11628f55a4df523b3ef60405160405180910390a46120ff6000838360016119ed565b5050565b600080600090507a184f03e93ff9f4daa797ed6e38ed64bf6a1f0100000000000000008310612161577a184f03e93ff9f4daa797ed6e38ed64bf6a1f0100000000000000008381612157576121566137db565b5b0492506040810190505b6d04ee2d6d415b85acef8100000000831061219e576d04ee2d6d415b85acef81000000008381612194576121936137db565b5b0492506020810190505b662386f26fc1000083106121cd57662386f26fc1000083816121c3576121c26137db565b5b0492506010810190505b6305f5e10083106121f6576305f5e10083816121ec576121eb6137db565b5b0492506008810190505b612710831061221b576127108381612211576122106137db565b5b0492506004810190505b6064831061223e5760648381612234576122336137db565b5b0492506002810190505b600a831061224d576001810190505b80915050919050565b50805461226290612a75565b6000825580601f106122745750612293565b601f0160209004906000526020600020908101906122929190612296565b5b50565b5b808211156122af576000816000905550600101612297565b5090565b6000604051905090565b600080fd5b600080fd5b60007fffffffff0000000000000000000000000000000000000000000000000000000082169050919050565b6122fc816122c7565b811461230757600080fd5b50565b600081359050612319816122f3565b92915050565b600060208284031215612335576123346122bd565b5b60006123438482850161230a565b91505092915050565b60008115159050919050565b6123618161234c565b82525050565b600060208201905061237c6000830184612358565b92915050565b600081519050919050565b600082825260208201905092915050565b60005b838110156123bc5780820151818401526020810190506123a1565b60008484015250505050565b6000601f19601f8301169050919050565b60006123e482612382565b6123ee818561238d565b93506123fe81856020860161239e565b612407816123c8565b840191505092915050565b6000602082019050818103600083015261242c81846123d9565b905092915050565b6000819050919050565b61244781612434565b811461245257600080fd5b50565b6000813590506124648161243e565b92915050565b6000602082840312156124805761247f6122bd565b5b600061248e84828501612455565b91505092915050565b600073ffffffffffffffffffffffffffffffffffffffff82169050919050565b60006124c282612497565b9050919050565b6124d2816124b7565b82525050565b60006020820190506124ed60008301846124c9565b92915050565b6124fc816124b7565b811461250757600080fd5b50565b600081359050612519816124f3565b92915050565b60008060408385031215612536576125356122bd565b5b60006125448582860161250a565b925050602061255585828601612455565b9150509250929050565b600080fd5b600080fd5b600080fd5b60008083601f8401126125845761258361255f565b5b8235905067ffffffffffffffff8111156125a1576125a0612564565b5b6020830191508360018202830111156125bd576125bc612569565b5b9250929050565b600080fd5b7f4e487b7100000000000000000000000000000000000000000000000000000000600052604160045260246000fd5b612601826123c8565b810181811067ffffffffffffffff821117156126205761261f6125c9565b5b80604052505050565b60006126336122b3565b905061263f82826125f8565b919050565b600067ffffffffffffffff82111561265f5761265e6125c9565b5b612668826123c8565b9050602081019050919050565b82818337600083830152505050565b600061269761269284612644565b612629565b9050828152602081018484840111156126b3576126b26125c4565b5b6126be848285612675565b509392505050565b600082601f8301126126db576126da61255f565b5b81356126eb848260208601612684565b91505092915050565b600080600080600080600060a0888a031215612713576127126122bd565b5b60006127218a828b0161250a565b975050602088013567ffffffffffffffff811115612742576127416122c2565b5b61274e8a828b0161256e565b9650965050604088013567ffffffffffffffff811115612771576127706122c2565b5b61277d8a828b0161256e565b945094505060606127908a828b0161250a565b925050608088013567ffffffffffffffff8111156127b1576127b06122c2565b5b6127bd8a828b016126c6565b91505092959891949750929550565b6000806000606084860312156127e5576127e46122bd565b5b60006127f38682870161250a565b93505060206128048682870161250a565b925050604061281586828701612455565b9150509250925092565b600060208284031215612835576128346122bd565b5b60006128438482850161250a565b91505092915050565b61285581612434565b82525050565b6000602082019050612870600083018461284c565b92915050565b61287f8161234c565b811461288a57600080fd5b50565b60008135905061289c81612876565b92915050565b600080604083850312156128b9576128b86122bd565b5b60006128c78582860161250a565b92505060206128d88582860161288d565b9150509250929050565b600067ffffffffffffffff8211156128fd576128fc6125c9565b5b612906826123c8565b9050602081019050919050565b6000612926612921846128e2565b612629565b905082815260208101848484011115612942576129416125c4565b5b61294d848285612675565b509392505050565b600082601f83011261296a5761296961255f565b5b813561297a848260208601612913565b91505092915050565b6000806000806080858703121561299d5761299c6122bd565b5b60006129ab8782880161250a565b94505060206129bc8782880161250a565b93505060406129cd87828801612455565b925050606085013567ffffffffffffffff8111156129ee576129ed6122c2565b5b6129fa87828801612955565b91505092959194509250565b60008060408385031215612a1d57612a1c6122bd565b5b6000612a2b8582860161250a565b9250506020612a3c8582860161250a565b9150509250929050565b7f4e487b7100000000000000000000000000000000000000000000000000000000600052602260045260246000fd5b60006002820490506001821680612a8d57607f821691505b602082108103612aa057612a9f612a46565b5b50919050565b7f4552433732313a20617070726f76616c20746f2063757272656e74206f776e6560008201527f7200000000000000000000000000000000000000000000000000000000000000602082015250565b6000612b0260218361238d565b9150612b0d82612aa6565b604082019050919050565b60006020820190508181036000830152612b3181612af5565b9050919050565b7f4552433732313a20617070726f76652063616c6c6572206973206e6f7420746f60008201527f6b656e206f776e6572206f7220617070726f76656420666f7220616c6c000000602082015250565b6000612b94603d8361238d565b9150612b9f82612b38565b604082019050919050565b60006020820190508181036000830152612bc381612b87565b9050919050565b7f496e76616c6964204e4654206f776e65723a207a65726f20616464726573732060008201527f6e6f742076616c69642100000000000000000000000000000000000000000000602082015250565b6000612c26602a8361238d565b9150612c3182612bca565b604082019050919050565b60006020820190508181036000830152612c5581612c19565b9050919050565b7f45524337323120546f6b656e20696e7374616e636520616c726561647920696e60008201527f697469616c697a65640000000000000000000000000000000000000000000000602082015250565b6000612cb860298361238d565b9150612cc382612c5c565b604082019050919050565b60006020820190508181036000830152612ce781612cab565b9050919050565b600082905092915050565b60008190508160005260206000209050919050565b60006020601f8301049050919050565b600082821b905092915050565b600060088302612d5b7fffffffffffffffffffffffffffffffffffffffffffffffffffffffffffffffff82612d1e565b612d658683612d1e565b95508019841693508086168417925050509392505050565b6000819050919050565b6000612da2612d9d612d9884612434565b612d7d565b612434565b9050919050565b6000819050919050565b612dbc83612d87565b612dd0612dc882612da9565b848454612d2b565b825550505050565b600090565b612de5612dd8565b612df0818484612db3565b505050565b5b81811015612e1457612e09600082612ddd565b600181019050612df6565b5050565b601f821115612e5957612e2a81612cf9565b612e3384612d0e565b81016020851015612e42578190505b612e56612e4e85612d0e565b830182612df5565b50505b505050565b600082821c905092915050565b6000612e7c60001984600802612e5e565b1980831691505092915050565b6000612e958383612e6b565b9150826002028217905092915050565b612eaf8383612cee565b67ffffffffffffffff811115612ec857612ec76125c9565b5b612ed28254612a75565b612edd828285612e18565b6000601f831160018114612f0c5760008415612efa578287013590505b612f048582612e89565b865550612f6c565b601f198416612f1a86612cf9565b60005b82811015612f4257848901358255600182019150602085019450602081019050612f1d565b86831015612f5f5784890135612f5b601f891682612e6b565b8355505b6001600288020188555050505b50505050505050565b60008154612f8281612a75565b612f8c818661238d565b94506001821660008114612fa75760018114612fbd57612ff0565b60ff198316865281151560200286019350612ff0565b612fc685612cf9565b60005b83811015612fe857815481890152600182019150602081019050612fc9565b808801955050505b50505092915050565b600060608201905081810360008301526130138186612f75565b905081810360208301526130278185612f75565b905061303660408301846124c9565b949350505050565b7f4552433732313a2063616c6c6572206973206e6f7420746f6b656e206f776e6560008201527f72206f7220617070726f76656400000000000000000000000000000000000000602082015250565b600061309a602d8361238d565b91506130a58261303e565b604082019050919050565b600060208201905081810360008301526130c98161308d565b9050919050565b7f4e6f7420746865204e4654206f776e6572210000000000000000000000000000600082015250565b600061310660128361238d565b9150613111826130d0565b602082019050919050565b60006020820190508181036000830152613135816130f9565b9050919050565b7f43616e6e6f74207472616e73666572207468697320746f6b656e496400000000600082015250565b6000613172601c8361238d565b915061317d8261313c565b602082019050919050565b600060208201905081810360008301526131a181613165565b9050919050565b7f4552433732313a20696e76616c696420746f6b656e2049440000000000000000600082015250565b60006131de60188361238d565b91506131e9826131a8565b602082019050919050565b6000602082019050818103600083015261320d816131d1565b9050919050565b7f4552433732313a2061646472657373207a65726f206973206e6f74206120766160008201527f6c6964206f776e65720000000000000000000000000000000000000000000000602082015250565b600061327060298361238d565b915061327b82613214565b604082019050919050565b6000602082019050818103600083015261329f81613263565b9050919050565b7f496e76616c6964204e465420746f6b656e204944000000000000000000000000600082015250565b60006132dc60148361238d565b91506132e7826132a6565b602082019050919050565b6000602082019050818103600083015261330b816132cf565b9050919050565b7f4552433732313a207472616e736665722066726f6d20696e636f72726563742060008201527f6f776e6572000000000000000000000000000000000000000000000000000000602082015250565b600061336e60258361238d565b915061337982613312565b604082019050919050565b6000602082019050818103600083015261339d81613361565b9050919050565b7f4552433732313a207472616e7366657220746f20746865207a65726f2061646460008201527f7265737300000000000000000000000000000000000000000000000000000000602082015250565b600061340060248361238d565b915061340b826133a4565b604082019050919050565b6000602082019050818103600083015261342f816133f3565b9050919050565b7f4552433732313a20617070726f766520746f2063616c6c657200000000000000600082015250565b600061346c60198361238d565b915061347782613436565b602082019050919050565b6000602082019050818103600083015261349b8161345f565b9050919050565b7f4552433732313a207472616e7366657220746f206e6f6e20455243373231526560008201527f63656976657220696d706c656d656e7465720000000000000000000000000000602082015250565b60006134fe60328361238d565b9150613509826134a2565b604082019050919050565b6000602082019050818103600083015261352d816134f1565b9050919050565b600081905092915050565b600061354a82612382565b6135548185613534565b935061356481856020860161239e565b80840191505092915050565b600061357c828561353f565b9150613588828461353f565b91508190509392505050565b7f45524337323155524953746f726167653a2055524920736574206f66206e6f6e60008201527f6578697374656e7420746f6b656e000000000000000000000000000000000000602082015250565b60006135f0602e8361238d565b91506135fb82613594565b604082019050919050565b6000602082019050818103600083015261361f816135e3565b9050919050565b61362f82612382565b67ffffffffffffffff811115613648576136476125c9565b5b6136528254612a75565b61365d828285612e18565b600060209050601f831160018114613690576000841561367e578287015190505b6136888582612e89565b8655506136f0565b601f19841661369e86612cf9565b60005b828110156136c6578489015182556001820191506020850194506020810190506136a1565b868310156136e357848901516136df601f891682612e6b565b8355505b6001600288020188555050505b505050505050565b600081519050919050565b600082825260208201905092915050565b600061371f826136f8565b6137298185613703565b935061373981856020860161239e565b613742816123c8565b840191505092915050565b600060808201905061376260008301876124c9565b61376f60208301866124c9565b61377c604083018561284c565b818103606083015261378e8184613714565b905095945050505050565b6000815190506137a8816122f3565b92915050565b6000602082840312156137c4576137c36122bd565b5b60006137d284828501613799565b91505092915050565b7f4e487b7100000000000000000000000000000000000000000000000000000000600052601260045260246000fd5b7f4552433732313a206d696e7420746f20746865207a65726f2061646472657373600082015250565b600061384060208361238d565b915061384b8261380a565b602082019050919050565b6000602082019050818103600083015261386f81613833565b9050919050565b7f4552433732313a20746f6b656e20616c7265616479206d696e74656400000000600082015250565b60006138ac601c8361238d565b91506138b782613876565b602082019050919050565b600060208201905081810360008301526138db8161389f565b905091905056fea2646970667358221220bf9e2e90e2259e03c77a1f84046534b41db3de236973767837dd819ddf72977764736f6c63430008120033",
  "linkReferences": {},
  "deployedLinkReferences": {}
}