{
  "_format": "hh-sol-artifact-1",
  "contractName": "IDentity",
  "sourceName": "contracts/IDentity.sol",
  "abi": [
    {
      "inputs": [],
      "stateMutability": "nonpayable",
      "type": "constructor"
    },
    {
      "anonymous": false,
      "inputs": [
        {
          "indexed": false,
          "internalType": "uint256",
          "name": "vc_id",
          "type": "uint256"
        },
        {
          "indexed": false,
          "internalType": "address",
          "name": "extracted",
          "type": "address"
        },
        {
          "indexed": false,
          "internalType": "uint256",
          "name": "expiration",
          "type": "uint256"
        },
        {
          "indexed": false,
          "internalType": "uint256",
          "name": "block",
          "type": "uint256"
        }
      ],
      "name": "NewVCRequestRegistered",
      "type": "event"
    },
    {
      "anonymous": false,
      "inputs": [
        {
          "indexed": true,
          "internalType": "address",
          "name": "previousOwner",
          "type": "address"
        },
        {
          "indexed": true,
          "internalType": "address",
          "name": "newOwner",
          "type": "address"
        }
      ],
      "name": "OwnershipTransferred",
      "type": "event"
    },
    {
      "anonymous": false,
      "inputs": [
        {
          "indexed": false,
          "internalType": "uint256",
          "name": "vc_id",
          "type": "uint256"
        },
        {
          "indexed": false,
          "internalType": "uint256",
          "name": "blockTimestamp",
          "type": "uint256"
        },
        {
          "indexed": false,
          "internalType": "uint256",
          "name": "expirationTimestamp",
          "type": "uint256"
        }
      ],
      "name": "VC_Activated",
      "type": "event"
    },
    {
      "inputs": [
        {
          "internalType": "uint256",
          "name": "_vc_id",
          "type": "uint256"
        }
      ],
      "name": "activateVC",
      "outputs": [],
      "stateMutability": "nonpayable",
      "type": "function"
    },
    {
      "inputs": [],
      "name": "getFreeVCid",
      "outputs": [
        {
          "internalType": "uint256",
          "name": "",
          "type": "uint256"
        }
      ],
      "stateMutability": "view",
      "type": "function"
    },
    {
      "inputs": [
        {
          "internalType": "uint256",
          "name": "_vc_id",
          "type": "uint256"
        }
      ],
      "name": "isVCActive",
      "outputs": [
        {
          "internalType": "bool",
          "name": "",
          "type": "bool"
        }
      ],
      "stateMutability": "view",
      "type": "function"
    },
    {
      "inputs": [
        {
          "internalType": "uint256",
          "name": "_vc_id",
          "type": "uint256"
        }
      ],
      "name": "isVCExpired",
      "outputs": [
        {
          "internalType": "bool",
          "name": "",
          "type": "bool"
        }
      ],
      "stateMutability": "view",
      "type": "function"
    },
    {
      "inputs": [],
      "name": "owner",
      "outputs": [
        {
          "internalType": "address",
          "name": "",
          "type": "address"
        }
      ],
      "stateMutability": "view",
      "type": "function"
    },
    {
      "inputs": [],
      "name": "renounceOwnership",
      "outputs": [],
      "stateMutability": "nonpayable",
      "type": "function"
    },
    {
      "inputs": [
        {
          "internalType": "bytes",
          "name": "sig",
          "type": "bytes"
        }
      ],
      "name": "splitSignature",
      "outputs": [
        {
          "internalType": "bytes32",
          "name": "r",
          "type": "bytes32"
        },
        {
          "internalType": "bytes32",
          "name": "s",
          "type": "bytes32"
        },
        {
          "internalType": "uint8",
          "name": "v",
          "type": "uint8"
        }
      ],
      "stateMutability": "pure",
      "type": "function"
    },
    {
      "inputs": [
        {
          "internalType": "address",
          "name": "newOwner",
          "type": "address"
        }
      ],
      "name": "transferOwnership",
      "outputs": [],
      "stateMutability": "nonpayable",
      "type": "function"
    },
    {
      "inputs": [
        {
          "internalType": "uint256",
          "name": "_vc_id",
          "type": "uint256"
        },
        {
          "internalType": "bytes",
          "name": "_pseudo_signature",
          "type": "bytes"
        },
        {
          "internalType": "string",
          "name": "_did",
          "type": "string"
        },
        {
          "internalType": "uint256",
          "name": "_expiration_date",
          "type": "uint256"
        },
        {
          "internalType": "uint256",
          "name": "_issuance_date",
          "type": "uint256"
        },
        {
          "internalType": "bytes32",
          "name": "_vc_hash",
          "type": "bytes32"
        }
      ],
      "name": "validate_and_store_VC",
      "outputs": [],
      "stateMutability": "nonpayable",
      "type": "function"
    }
  ],
  "bytecode": "0x60806040526001805534801561001457600080fd5b5061003161002661003660201b60201c565b61003e60201b60201c565b610102565b600033905090565b60008060009054906101000a900473ffffffffffffffffffffffffffffffffffffffff169050816000806101000a81548173ffffffffffffffffffffffffffffffffffffffff021916908373ffffffffffffffffffffffffffffffffffffffff1602179055508173ffffffffffffffffffffffffffffffffffffffff168173ffffffffffffffffffffffffffffffffffffffff167f8be0079c531659141344cd1fd0a4f28419497f9722a3daafe3b4186f6b6457e060405160405180910390a35050565b611cfd806101116000396000f3fe608060405234801561001057600080fd5b50600436106100935760003560e01c80637d7afc31116100665780637d7afc311461011e5780638da5cb5b1461013a578063a7bb580314610158578063f2fde38b1461018a578063f5d2fe8a146101a657610093565b80633f15b6b81461009857806348d99c85146100c8578063524e379d146100e4578063715018a614610114575b600080fd5b6100b260048036038101906100ad9190610c97565b6101c4565b6040516100bf9190610cdf565b60405180910390f35b6100e260048036038101906100dd9190610deb565b6101e6565b005b6100fe60048036038101906100f99190610c97565b610620565b60405161010b9190610cdf565b60405180910390f35b61011c61064d565b005b61013860048036038101906101339190610c97565b610661565b005b6101426108fd565b60405161014f9190610efb565b60405180910390f35b610172600480360381019061016d9190611057565b610926565b604051610181939291906110cb565b60405180910390f35b6101a4600480360381019061019f919061112e565b61098e565b005b6101ae610a11565b6040516101bb919061116a565b60405180910390f35b6000600260008381526020019081526020016000206003015442119050919050565b6101ee610a23565b6000881015610232576040517f08c379a000000000000000000000000000000000000000000000000000000000815260040161022990611208565b60405180910390fd5b600154881115610277576040517f08c379a000000000000000000000000000000000000000000000000000000000815260040161026e90611274565b60405180910390fd5b600073ffffffffffffffffffffffffffffffffffffffff16600260008a815260200190815260200160002060010160009054906101000a900473ffffffffffffffffffffffffffffffffffffffff1673ffffffffffffffffffffffffffffffffffffffff161461031c576040517f08c379a00000000000000000000000000000000000000000000000000000000081526004016103139061132c565b60405180910390fd5b82421061035e576040517f08c379a0000000000000000000000000000000000000000000000000000000008152600401610355906113be565b60405180910390fd5b428211156103a1576040517f08c379a00000000000000000000000000000000000000000000000000000000081526004016103989061142a565b60405180910390fd5b60006103ae828989610aa1565b9050600073ffffffffffffffffffffffffffffffffffffffff168173ffffffffffffffffffffffffffffffffffffffff160361041f576040517f08c379a000000000000000000000000000000000000000000000000000000000815260040161041690611496565b60405180910390fd5b6040518060c0016040528087878080601f016020809104026020016040519081016040528093929190818152602001838380828437600081840152601f19601f8201169050808301925050505050505081526020018273ffffffffffffffffffffffffffffffffffffffff16815260200184815260200185815260200160001515815260200160001515815250600260008b815260200190815260200160002060008201518160000190816104d491906116cd565b5060208201518160010160006101000a81548173ffffffffffffffffffffffffffffffffffffffff021916908373ffffffffffffffffffffffffffffffffffffffff160217905550604082015181600201556060820151816003015560808201518160040160006101000a81548160ff02191690831515021790555060a08201518160040160016101000a81548160ff021916908315150217905550905050600180600082825461058591906117ce565b925050819055507f5d24cbc5e6317afe519d58b687ed1f80ede64cb2cd2985810fdd7bd5a8abb95f89600260008c815260200190815260200160002060010160009054906101000a900473ffffffffffffffffffffffffffffffffffffffff16600260008d8152602001908152602001600020600301544260405161060d9493929190611802565b60405180910390a1505050505050505050565b60006002600083815260200190815260200160002060040160019054906101000a900460ff169050919050565b610655610a23565b61065f6000610b81565b565b600073ffffffffffffffffffffffffffffffffffffffff163373ffffffffffffffffffffffffffffffffffffffff16036106d0576040517f08c379a00000000000000000000000000000000000000000000000000000000081526004016106c790611893565b60405180910390fd5b6000811015610714576040517f08c379a000000000000000000000000000000000000000000000000000000000815260040161070b90611208565b60405180910390fd5b600015156002600083815260200190815260200160002060040160019054906101000a900460ff1615151461077e576040517f08c379a0000000000000000000000000000000000000000000000000000000008152600401610775906118ff565b60405180910390fd5b600260008281526020019081526020016000206003015442106107d6576040517f08c379a00000000000000000000000000000000000000000000000000000000081526004016107cd90611991565b60405180910390fd5b6002600082815260200190815260200160002060010160009054906101000a900473ffffffffffffffffffffffffffffffffffffffff1673ffffffffffffffffffffffffffffffffffffffff163373ffffffffffffffffffffffffffffffffffffffff161461087a576040517f08c379a000000000000000000000000000000000000000000000000000000000815260040161087190611a23565b60405180910390fd5b60016002600083815260200190815260200160002060040160016101000a81548160ff0219169083151502179055507f62e0dce4bfe47a16e604298968b9fa07ebb93245b44c3ce6bef7f9a9706bb260814260026000858152602001908152602001600020600301546040516108f293929190611a43565b60405180910390a150565b60008060009054906101000a900473ffffffffffffffffffffffffffffffffffffffff16905090565b6000806000604184511461096f576040517f08c379a000000000000000000000000000000000000000000000000000000000815260040161096690611ac6565b60405180910390fd5b6020840151925060408401519150606084015160001a90509193909250565b610996610a23565b600073ffffffffffffffffffffffffffffffffffffffff168173ffffffffffffffffffffffffffffffffffffffff1603610a05576040517f08c379a00000000000000000000000000000000000000000000000000000000081526004016109fc90611b58565b60405180910390fd5b610a0e81610b81565b50565b6000610a1b610a23565b600154905090565b610a2b610c45565b73ffffffffffffffffffffffffffffffffffffffff16610a496108fd565b73ffffffffffffffffffffffffffffffffffffffff1614610a9f576040517f08c379a0000000000000000000000000000000000000000000000000000000008152600401610a9690611bc4565b60405180910390fd5b565b60008084604051602001610ab59190611c5c565b6040516020818303038152906040528051906020012090506000806000610b1f87878080601f016020809104026020016040519081016040528093929190818152602001838380828437600081840152601f19601f82011690508083019250505050505050610926565b92509250925060018482858560405160008152602001604052604051610b489493929190611c82565b6020604051602081039080840390855afa158015610b6a573d6000803e3d6000fd5b505050602060405103519450505050509392505050565b60008060009054906101000a900473ffffffffffffffffffffffffffffffffffffffff169050816000806101000a81548173ffffffffffffffffffffffffffffffffffffffff021916908373ffffffffffffffffffffffffffffffffffffffff1602179055508173ffffffffffffffffffffffffffffffffffffffff168173ffffffffffffffffffffffffffffffffffffffff167f8be0079c531659141344cd1fd0a4f28419497f9722a3daafe3b4186f6b6457e060405160405180910390a35050565b600033905090565b6000604051905090565b600080fd5b600080fd5b6000819050919050565b610c7481610c61565b8114610c7f57600080fd5b50565b600081359050610c9181610c6b565b92915050565b600060208284031215610cad57610cac610c57565b5b6000610cbb84828501610c82565b91505092915050565b60008115159050919050565b610cd981610cc4565b82525050565b6000602082019050610cf46000830184610cd0565b92915050565b600080fd5b600080fd5b600080fd5b60008083601f840112610d1f57610d1e610cfa565b5b8235905067ffffffffffffffff811115610d3c57610d3b610cff565b5b602083019150836001820283011115610d5857610d57610d04565b5b9250929050565b60008083601f840112610d7557610d74610cfa565b5b8235905067ffffffffffffffff811115610d9257610d91610cff565b5b602083019150836001820283011115610dae57610dad610d04565b5b9250929050565b6000819050919050565b610dc881610db5565b8114610dd357600080fd5b50565b600081359050610de581610dbf565b92915050565b60008060008060008060008060c0898b031215610e0b57610e0a610c57565b5b6000610e198b828c01610c82565b985050602089013567ffffffffffffffff811115610e3a57610e39610c5c565b5b610e468b828c01610d09565b9750975050604089013567ffffffffffffffff811115610e6957610e68610c5c565b5b610e758b828c01610d5f565b95509550506060610e888b828c01610c82565b9350506080610e998b828c01610c82565b92505060a0610eaa8b828c01610dd6565b9150509295985092959890939650565b600073ffffffffffffffffffffffffffffffffffffffff82169050919050565b6000610ee582610eba565b9050919050565b610ef581610eda565b82525050565b6000602082019050610f106000830184610eec565b92915050565b600080fd5b6000601f19601f8301169050919050565b7f4e487b7100000000000000000000000000000000000000000000000000000000600052604160045260246000fd5b610f6482610f1b565b810181811067ffffffffffffffff82111715610f8357610f82610f2c565b5b80604052505050565b6000610f96610c4d565b9050610fa28282610f5b565b919050565b600067ffffffffffffffff821115610fc257610fc1610f2c565b5b610fcb82610f1b565b9050602081019050919050565b82818337600083830152505050565b6000610ffa610ff584610fa7565b610f8c565b90508281526020810184848401111561101657611015610f16565b5b611021848285610fd8565b509392505050565b600082601f83011261103e5761103d610cfa565b5b813561104e848260208601610fe7565b91505092915050565b60006020828403121561106d5761106c610c57565b5b600082013567ffffffffffffffff81111561108b5761108a610c5c565b5b61109784828501611029565b91505092915050565b6110a981610db5565b82525050565b600060ff82169050919050565b6110c5816110af565b82525050565b60006060820190506110e060008301866110a0565b6110ed60208301856110a0565b6110fa60408301846110bc565b949350505050565b61110b81610eda565b811461111657600080fd5b50565b60008135905061112881611102565b92915050565b60006020828403121561114457611143610c57565b5b600061115284828501611119565b91505092915050565b61116481610c61565b82525050565b600060208201905061117f600083018461115b565b92915050565b600082825260208201905092915050565b7f5643206964656e7469746966696572206d75737420626520677265617465722060008201527f7468616e20300000000000000000000000000000000000000000000000000000602082015250565b60006111f2602683611185565b91506111fd82611196565b604082019050919050565b60006020820190508181036000830152611221816111e5565b9050919050565b7f526563656976656420564320696420697320696e76616c696400000000000000600082015250565b600061125e601983611185565b915061126982611228565b602082019050919050565b6000602082019050818103600083015261128d81611251565b9050919050565b7f56432068617320616c72656164792061205643206f776e65723a20726571756560008201527f737420616c72656164792073746f7265642c2072656d656d62657220746f206160208201527f6374697661746520697400000000000000000000000000000000000000000000604082015250565b6000611316604a83611185565b915061132182611294565b606082019050919050565b6000602082019050818103600083015261134581611309565b9050919050565b7f476f7420696e76616c69642f657870697265642065787069726174696f6e206460008201527f6174650000000000000000000000000000000000000000000000000000000000602082015250565b60006113a8602383611185565b91506113b38261134c565b604082019050919050565b600060208201905081810360008301526113d78161139b565b9050919050565b7f49737375616e6365206461746520697320696e20746865206675747572650000600082015250565b6000611414601e83611185565b915061141f826113de565b602082019050919050565b6000602082019050818103600083015261144381611407565b9050919050565b7f496e76616c696420457874726163746564206164647265737300000000000000600082015250565b6000611480601983611185565b915061148b8261144a565b602082019050919050565b600060208201905081810360008301526114af81611473565b9050919050565b600081519050919050565b7f4e487b7100000000000000000000000000000000000000000000000000000000600052602260045260246000fd5b6000600282049050600182168061150857607f821691505b60208210810361151b5761151a6114c1565b5b50919050565b60008190508160005260206000209050919050565b60006020601f8301049050919050565b600082821b905092915050565b6000600883026115837fffffffffffffffffffffffffffffffffffffffffffffffffffffffffffffffff82611546565b61158d8683611546565b95508019841693508086168417925050509392505050565b6000819050919050565b60006115ca6115c56115c084610c61565b6115a5565b610c61565b9050919050565b6000819050919050565b6115e4836115af565b6115f86115f0826115d1565b848454611553565b825550505050565b600090565b61160d611600565b6116188184846115db565b505050565b5b8181101561163c57611631600082611605565b60018101905061161e565b5050565b601f8211156116815761165281611521565b61165b84611536565b8101602085101561166a578190505b61167e61167685611536565b83018261161d565b50505b505050565b600082821c905092915050565b60006116a460001984600802611686565b1980831691505092915050565b60006116bd8383611693565b9150826002028217905092915050565b6116d6826114b6565b67ffffffffffffffff8111156116ef576116ee610f2c565b5b6116f982546114f0565b611704828285611640565b600060209050601f8311600181146117375760008415611725578287015190505b61172f85826116b1565b865550611797565b601f19841661174586611521565b60005b8281101561176d57848901518255600182019150602085019450602081019050611748565b8683101561178a5784890151611786601f891682611693565b8355505b6001600288020188555050505b505050505050565b7f4e487b7100000000000000000000000000000000000000000000000000000000600052601160045260246000fd5b60006117d982610c61565b91506117e483610c61565b92508282019050808211156117fc576117fb61179f565b5b92915050565b6000608082019050611817600083018761115b565b6118246020830186610eec565b611831604083018561115b565b61183e606083018461115b565b95945050505050565b7f53656e64657220697320696e76616c6964000000000000000000000000000000600082015250565b600061187d601183611185565b915061188882611847565b602082019050919050565b600060208201905081810360008301526118ac81611870565b9050919050565b7f564320616c726561647920616374697661746564000000000000000000000000600082015250565b60006118e9601483611185565b91506118f4826118b3565b602082019050919050565b60006020820190508181036000830152611918816118dc565b9050919050565b7f43616e6e6f742061637469766174652056433a2056432068617320657870697260008201527f6564000000000000000000000000000000000000000000000000000000000000602082015250565b600061197b602283611185565b91506119868261191f565b604082019050919050565b600060208201905081810360008301526119aa8161196e565b9050919050565b7f43616e6e6f742061637469766174652056433a2073656e646572206973206e6f60008201527f742077686f206578706374656400000000000000000000000000000000000000602082015250565b6000611a0d602d83611185565b9150611a18826119b1565b604082019050919050565b60006020820190508181036000830152611a3c81611a00565b9050919050565b6000606082019050611a58600083018661115b565b611a65602083018561115b565b611a72604083018461115b565b949350505050565b7f696e76616c6964207369676e6174757265206c656e6774680000000000000000600082015250565b6000611ab0601883611185565b9150611abb82611a7a565b602082019050919050565b60006020820190508181036000830152611adf81611aa3565b9050919050565b7f4f776e61626c653a206e6577206f776e657220697320746865207a65726f206160008201527f6464726573730000000000000000000000000000000000000000000000000000602082015250565b6000611b42602683611185565b9150611b4d82611ae6565b604082019050919050565b60006020820190508181036000830152611b7181611b35565b9050919050565b7f4f776e61626c653a2063616c6c6572206973206e6f7420746865206f776e6572600082015250565b6000611bae602083611185565b9150611bb982611b78565b602082019050919050565b60006020820190508181036000830152611bdd81611ba1565b9050919050565b600081905092915050565b7f19457468657265756d205369676e6564204d6573736167653a0a333200000000600082015250565b6000611c25601c83611be4565b9150611c3082611bef565b601c82019050919050565b6000819050919050565b611c56611c5182610db5565b611c3b565b82525050565b6000611c6782611c18565b9150611c738284611c45565b60208201915081905092915050565b6000608082019050611c9760008301876110a0565b611ca460208301866110bc565b611cb160408301856110a0565b611cbe60608301846110a0565b9594505050505056fea26469706673582212201c277dff8d1762ce76db53b08b8fa684ad52290fc816102c289298f515eac4ae64736f6c63430008120033",
  "linkReferences": {},
  "deployedLinkReferences": {}
}