{"contracts/IDentity.sol":{"IDentity":{"abi":[{"inputs":[],"stateMutability":"nonpayable","type":"constructor"},{"anonymous":false,"inputs":[{"indexed":false,"internalType":"uint256","name":"vc_id","type":"uint256"},{"indexed":false,"internalType":"address","name":"extracted","type":"address"},{"indexed":false,"internalType":"uint256","name":"expiration","type":"uint256"},{"indexed":false,"internalType":"uint256","name":"block","type":"uint256"}],"name":"NewVCRequestRegistered","type":"event"},{"anonymous":false,"inputs":[{"indexed":true,"internalType":"address","name":"previousOwner","type":"address"},{"indexed":true,"internalType":"address","name":"newOwner","type":"address"}],"name":"OwnershipTransferred","type":"event"},{"anonymous":false,"inputs":[{"indexed":false,"internalType":"uint256","name":"vc_id","type":"uint256"},{"indexed":false,"internalType":"uint256","name":"blockTimestamp","type":"uint256"},{"indexed":false,"internalType":"uint256","name":"expirationTimestamp","type":"uint256"}],"name":"VC_Activated","type":"event"},{"inputs":[{"internalType":"uint256","name":"_vc_id","type":"uint256"}],"name":"activateVC","outputs":[],"stateMutability":"nonpayable","type":"function"},{"inputs":[],"name":"getFreeVCid","outputs":[{"internalType":"uint256","name":"","type":"uint256"}],"stateMutability":"view","type":"function"},{"inputs":[{"internalType":"uint256","name":"_vc_id","type":"uint256"}],"name":"isVCActive","outputs":[{"internalType":"bool","name":"","type":"bool"}],"stateMutability":"view","type":"function"},{"inputs":[{"internalType":"uint256","name":"_vc_id","type":"uint256"}],"name":"isVCExpired","outputs":[{"internalType":"bool","name":"","type":"bool"}],"stateMutability":"view","type":"function"},{"inputs":[],"name":"owner","outputs":[{"internalType":"address","name":"","type":"address"}],"stateMutability":"view","type":"function"},{"inputs":[],"name":"renounceOwnership","outputs":[],"stateMutability":"nonpayable","type":"function"},{"inputs":[{"internalType":"bytes","name":"sig","type":"bytes"}],"name":"splitSignature","outputs":[{"internalType":"bytes32","name":"r","type":"bytes32"},{"internalType":"bytes32","name":"s","type":"bytes32"},{"internalType":"uint8","name":"v","type":"uint8"}],"stateMutability":"pure","type":"function"},{"inputs":[{"internalType":"address","name":"newOwner","type":"address"}],"name":"transferOwnership","outputs":[],"stateMutability":"nonpayable","type":"function"},{"inputs":[{"internalType":"uint256","name":"_vc_id","type":"uint256"},{"internalType":"bytes","name":"_pseudo_signature","type":"bytes"},{"internalType":"string","name":"_did","type":"string"},{"internalType":"uint256","name":"_expiration_date","type":"uint256"},{"internalType":"uint256","name":"_issuance_date","type":"uint256"},{"internalType":"bytes32","name":"_vc_hash","type":"bytes32"}],"name":"validate_and_store_VC","outputs":[],"stateMutability":"nonpayable","type":"function"}],"evm":{"bytecode":{"linkReferences":{},"object":"60806040526001805534801561001457600080fd5b5061003161002661003660201b60201c565b61003e60201b60201c565b610102565b600033905090565b60008060009054906101000a900473ffffffffffffffffffffffffffffffffffffffff169050816000806101000a81548173ffffffffffffffffffffffffffffffffffffffff021916908373ffffffffffffffffffffffffffffffffffffffff1602179055508173ffffffffffffffffffffffffffffffffffffffff168173ffffffffffffffffffffffffffffffffffffffff167f8be0079c531659141344cd1fd0a4f28419497f9722a3daafe3b4186f6b6457e060405160405180910390a35050565b611cfd806101116000396000f3fe608060405234801561001057600080fd5b50600436106100935760003560e01c80637d7afc31116100665780637d7afc311461011e5780638da5cb5b1461013a578063a7bb580314610158578063f2fde38b1461018a578063f5d2fe8a146101a657610093565b80633f15b6b81461009857806348d99c85146100c8578063524e379d146100e4578063715018a614610114575b600080fd5b6100b260048036038101906100ad9190610c97565b6101c4565b6040516100bf9190610cdf565b60405180910390f35b6100e260048036038101906100dd9190610deb565b6101e6565b005b6100fe60048036038101906100f99190610c97565b610620565b60405161010b9190610cdf565b60405180910390f35b61011c61064d565b005b61013860048036038101906101339190610c97565b610661565b005b6101426108fd565b60405161014f9190610efb565b60405180910390f35b610172600480360381019061016d9190611057565b610926565b604051610181939291906110cb565b60405180910390f35b6101a4600480360381019061019f919061112e565b61098e565b005b6101ae610a11565b6040516101bb919061116a565b60405180910390f35b6000600260008381526020019081526020016000206003015442119050919050565b6101ee610a23565b6000881015610232576040517f08c379a000000000000000000000000000000000000000000000000000000000815260040161022990611208565b60405180910390fd5b600154881115610277576040517f08c379a000000000000000000000000000000000000000000000000000000000815260040161026e90611274565b60405180910390fd5b600073ffffffffffffffffffffffffffffffffffffffff16600260008a815260200190815260200160002060010160009054906101000a900473ffffffffffffffffffffffffffffffffffffffff1673ffffffffffffffffffffffffffffffffffffffff161461031c576040517f08c379a00000000000000000000000000000000000000000000000000000000081526004016103139061132c565b60405180910390fd5b82421061035e576040517f08c379a0000000000000000000000000000000000000000000000000000000008152600401610355906113be565b60405180910390fd5b428211156103a1576040517f08c379a00000000000000000000000000000000000000000000000000000000081526004016103989061142a565b60405180910390fd5b60006103ae828989610aa1565b9050600073ffffffffffffffffffffffffffffffffffffffff168173ffffffffffffffffffffffffffffffffffffffff160361041f576040517f08c379a000000000000000000000000000000000000000000000000000000000815260040161041690611496565b60405180910390fd5b6040518060c0016040528087878080601f016020809104026020016040519081016040528093929190818152602001838380828437600081840152601f19601f8201169050808301925050505050505081526020018273ffffffffffffffffffffffffffffffffffffffff16815260200184815260200185815260200160001515815260200160001515815250600260008b815260200190815260200160002060008201518160000190816104d491906116cd565b5060208201518160010160006101000a81548173ffffffffffffffffffffffffffffffffffffffff021916908373ffffffffffffffffffffffffffffffffffffffff160217905550604082015181600201556060820151816003015560808201518160040160006101000a81548160ff02191690831515021790555060a08201518160040160016101000a81548160ff021916908315150217905550905050600180600082825461058591906117ce565b925050819055507f5d24cbc5e6317afe519d58b687ed1f80ede64cb2cd2985810fdd7bd5a8abb95f89600260008c815260200190815260200160002060010160009054906101000a900473ffffffffffffffffffffffffffffffffffffffff16600260008d8152602001908152602001600020600301544260405161060d9493929190611802565b60405180910390a1505050505050505050565b60006002600083815260200190815260200160002060040160019054906101000a900460ff169050919050565b610655610a23565b61065f6000610b81565b565b600073ffffffffffffffffffffffffffffffffffffffff163373ffffffffffffffffffffffffffffffffffffffff16036106d0576040517f08c379a00000000000000000000000000000000000000000000000000000000081526004016106c790611893565b60405180910390fd5b6000811015610714576040517f08c379a000000000000000000000000000000000000000000000000000000000815260040161070b90611208565b60405180910390fd5b600015156002600083815260200190815260200160002060040160019054906101000a900460ff1615151461077e576040517f08c379a0000000000000000000000000000000000000000000000000000000008152600401610775906118ff565b60405180910390fd5b600260008281526020019081526020016000206003015442106107d6576040517f08c379a00000000000000000000000000000000000000000000000000000000081526004016107cd90611991565b60405180910390fd5b6002600082815260200190815260200160002060010160009054906101000a900473ffffffffffffffffffffffffffffffffffffffff1673ffffffffffffffffffffffffffffffffffffffff163373ffffffffffffffffffffffffffffffffffffffff161461087a576040517f08c379a000000000000000000000000000000000000000000000000000000000815260040161087190611a23565b60405180910390fd5b60016002600083815260200190815260200160002060040160016101000a81548160ff0219169083151502179055507f62e0dce4bfe47a16e604298968b9fa07ebb93245b44c3ce6bef7f9a9706bb260814260026000858152602001908152602001600020600301546040516108f293929190611a43565b60405180910390a150565b60008060009054906101000a900473ffffffffffffffffffffffffffffffffffffffff16905090565b6000806000604184511461096f576040517f08c379a000000000000000000000000000000000000000000000000000000000815260040161096690611ac6565b60405180910390fd5b6020840151925060408401519150606084015160001a90509193909250565b610996610a23565b600073ffffffffffffffffffffffffffffffffffffffff168173ffffffffffffffffffffffffffffffffffffffff1603610a05576040517f08c379a00000000000000000000000000000000000000000000000000000000081526004016109fc90611b58565b60405180910390fd5b610a0e81610b81565b50565b6000610a1b610a23565b600154905090565b610a2b610c45565b73ffffffffffffffffffffffffffffffffffffffff16610a496108fd565b73ffffffffffffffffffffffffffffffffffffffff1614610a9f576040517f08c379a0000000000000000000000000000000000000000000000000000000008152600401610a9690611bc4565b60405180910390fd5b565b60008084604051602001610ab59190611c5c565b6040516020818303038152906040528051906020012090506000806000610b1f87878080601f016020809104026020016040519081016040528093929190818152602001838380828437600081840152601f19601f82011690508083019250505050505050610926565b92509250925060018482858560405160008152602001604052604051610b489493929190611c82565b6020604051602081039080840390855afa158015610b6a573d6000803e3d6000fd5b505050602060405103519450505050509392505050565b60008060009054906101000a900473ffffffffffffffffffffffffffffffffffffffff169050816000806101000a81548173ffffffffffffffffffffffffffffffffffffffff021916908373ffffffffffffffffffffffffffffffffffffffff1602179055508173ffffffffffffffffffffffffffffffffffffffff168173ffffffffffffffffffffffffffffffffffffffff167f8be0079c531659141344cd1fd0a4f28419497f9722a3daafe3b4186f6b6457e060405160405180910390a35050565b600033905090565b6000604051905090565b600080fd5b600080fd5b6000819050919050565b610c7481610c61565b8114610c7f57600080fd5b50565b600081359050610c9181610c6b565b92915050565b600060208284031215610cad57610cac610c57565b5b6000610cbb84828501610c82565b91505092915050565b60008115159050919050565b610cd981610cc4565b82525050565b6000602082019050610cf46000830184610cd0565b92915050565b600080fd5b600080fd5b600080fd5b60008083601f840112610d1f57610d1e610cfa565b5b8235905067ffffffffffffffff811115610d3c57610d3b610cff565b5b602083019150836001820283011115610d5857610d57610d04565b5b9250929050565b60008083601f840112610d7557610d74610cfa565b5b8235905067ffffffffffffffff811115610d9257610d91610cff565b5b602083019150836001820283011115610dae57610dad610d04565b5b9250929050565b6000819050919050565b610dc881610db5565b8114610dd357600080fd5b50565b600081359050610de581610dbf565b92915050565b60008060008060008060008060c0898b031215610e0b57610e0a610c57565b5b6000610e198b828c01610c82565b985050602089013567ffffffffffffffff811115610e3a57610e39610c5c565b5b610e468b828c01610d09565b9750975050604089013567ffffffffffffffff811115610e6957610e68610c5c565b5b610e758b828c01610d5f565b95509550506060610e888b828c01610c82565b9350506080610e998b828c01610c82565b92505060a0610eaa8b828c01610dd6565b9150509295985092959890939650565b600073ffffffffffffffffffffffffffffffffffffffff82169050919050565b6000610ee582610eba565b9050919050565b610ef581610eda565b82525050565b6000602082019050610f106000830184610eec565b92915050565b600080fd5b6000601f19601f8301169050919050565b7f4e487b7100000000000000000000000000000000000000000000000000000000600052604160045260246000fd5b610f6482610f1b565b810181811067ffffffffffffffff82111715610f8357610f82610f2c565b5b80604052505050565b6000610f96610c4d565b9050610fa28282610f5b565b919050565b600067ffffffffffffffff821115610fc257610fc1610f2c565b5b610fcb82610f1b565b9050602081019050919050565b82818337600083830152505050565b6000610ffa610ff584610fa7565b610f8c565b90508281526020810184848401111561101657611015610f16565b5b611021848285610fd8565b509392505050565b600082601f83011261103e5761103d610cfa565b5b813561104e848260208601610fe7565b91505092915050565b60006020828403121561106d5761106c610c57565b5b600082013567ffffffffffffffff81111561108b5761108a610c5c565b5b61109784828501611029565b91505092915050565b6110a981610db5565b82525050565b600060ff82169050919050565b6110c5816110af565b82525050565b60006060820190506110e060008301866110a0565b6110ed60208301856110a0565b6110fa60408301846110bc565b949350505050565b61110b81610eda565b811461111657600080fd5b50565b60008135905061112881611102565b92915050565b60006020828403121561114457611143610c57565b5b600061115284828501611119565b91505092915050565b61116481610c61565b82525050565b600060208201905061117f600083018461115b565b92915050565b600082825260208201905092915050565b7f5643206964656e7469746966696572206d75737420626520677265617465722060008201527f7468616e20300000000000000000000000000000000000000000000000000000602082015250565b60006111f2602683611185565b91506111fd82611196565b604082019050919050565b60006020820190508181036000830152611221816111e5565b9050919050565b7f526563656976656420564320696420697320696e76616c696400000000000000600082015250565b600061125e601983611185565b915061126982611228565b602082019050919050565b6000602082019050818103600083015261128d81611251565b9050919050565b7f56432068617320616c72656164792061205643206f776e65723a20726571756560008201527f737420616c72656164792073746f7265642c2072656d656d62657220746f206160208201527f6374697661746520697400000000000000000000000000000000000000000000604082015250565b6000611316604a83611185565b915061132182611294565b606082019050919050565b6000602082019050818103600083015261134581611309565b9050919050565b7f476f7420696e76616c69642f657870697265642065787069726174696f6e206460008201527f6174650000000000000000000000000000000000000000000000000000000000602082015250565b60006113a8602383611185565b91506113b38261134c565b604082019050919050565b600060208201905081810360008301526113d78161139b565b9050919050565b7f49737375616e6365206461746520697320696e20746865206675747572650000600082015250565b6000611414601e83611185565b915061141f826113de565b602082019050919050565b6000602082019050818103600083015261144381611407565b9050919050565b7f496e76616c696420457874726163746564206164647265737300000000000000600082015250565b6000611480601983611185565b915061148b8261144a565b602082019050919050565b600060208201905081810360008301526114af81611473565b9050919050565b600081519050919050565b7f4e487b7100000000000000000000000000000000000000000000000000000000600052602260045260246000fd5b6000600282049050600182168061150857607f821691505b60208210810361151b5761151a6114c1565b5b50919050565b60008190508160005260206000209050919050565b60006020601f8301049050919050565b600082821b905092915050565b6000600883026115837fffffffffffffffffffffffffffffffffffffffffffffffffffffffffffffffff82611546565b61158d8683611546565b95508019841693508086168417925050509392505050565b6000819050919050565b60006115ca6115c56115c084610c61565b6115a5565b610c61565b9050919050565b6000819050919050565b6115e4836115af565b6115f86115f0826115d1565b848454611553565b825550505050565b600090565b61160d611600565b6116188184846115db565b505050565b5b8181101561163c57611631600082611605565b60018101905061161e565b5050565b601f8211156116815761165281611521565b61165b84611536565b8101602085101561166a578190505b61167e61167685611536565b83018261161d565b50505b505050565b600082821c905092915050565b60006116a460001984600802611686565b1980831691505092915050565b60006116bd8383611693565b9150826002028217905092915050565b6116d6826114b6565b67ffffffffffffffff8111156116ef576116ee610f2c565b5b6116f982546114f0565b611704828285611640565b600060209050601f8311600181146117375760008415611725578287015190505b61172f85826116b1565b865550611797565b601f19841661174586611521565b60005b8281101561176d57848901518255600182019150602085019450602081019050611748565b8683101561178a5784890151611786601f891682611693565b8355505b6001600288020188555050505b505050505050565b7f4e487b7100000000000000000000000000000000000000000000000000000000600052601160045260246000fd5b60006117d982610c61565b91506117e483610c61565b92508282019050808211156117fc576117fb61179f565b5b92915050565b6000608082019050611817600083018761115b565b6118246020830186610eec565b611831604083018561115b565b61183e606083018461115b565b95945050505050565b7f53656e64657220697320696e76616c6964000000000000000000000000000000600082015250565b600061187d601183611185565b915061188882611847565b602082019050919050565b600060208201905081810360008301526118ac81611870565b9050919050565b7f564320616c726561647920616374697661746564000000000000000000000000600082015250565b60006118e9601483611185565b91506118f4826118b3565b602082019050919050565b60006020820190508181036000830152611918816118dc565b9050919050565b7f43616e6e6f742061637469766174652056433a2056432068617320657870697260008201527f6564000000000000000000000000000000000000000000000000000000000000602082015250565b600061197b602283611185565b91506119868261191f565b604082019050919050565b600060208201905081810360008301526119aa8161196e565b9050919050565b7f43616e6e6f742061637469766174652056433a2073656e646572206973206e6f60008201527f742077686f206578706374656400000000000000000000000000000000000000602082015250565b6000611a0d602d83611185565b9150611a18826119b1565b604082019050919050565b60006020820190508181036000830152611a3c81611a00565b9050919050565b6000606082019050611a58600083018661115b565b611a65602083018561115b565b611a72604083018461115b565b949350505050565b7f696e76616c6964207369676e6174757265206c656e6774680000000000000000600082015250565b6000611ab0601883611185565b9150611abb82611a7a565b602082019050919050565b60006020820190508181036000830152611adf81611aa3565b9050919050565b7f4f776e61626c653a206e6577206f776e657220697320746865207a65726f206160008201527f6464726573730000000000000000000000000000000000000000000000000000602082015250565b6000611b42602683611185565b9150611b4d82611ae6565b604082019050919050565b60006020820190508181036000830152611b7181611b35565b9050919050565b7f4f776e61626c653a2063616c6c6572206973206e6f7420746865206f776e6572600082015250565b6000611bae602083611185565b9150611bb982611b78565b602082019050919050565b60006020820190508181036000830152611bdd81611ba1565b9050919050565b600081905092915050565b7f19457468657265756d205369676e6564204d6573736167653a0a333200000000600082015250565b6000611c25601c83611be4565b9150611c3082611bef565b601c82019050919050565b6000819050919050565b611c56611c5182610db5565b611c3b565b82525050565b6000611c6782611c18565b9150611c738284611c45565b60208201915081905092915050565b6000608082019050611c9760008301876110a0565b611ca460208301866110bc565b611cb160408301856110a0565b611cbe60608301846110a0565b9594505050505056fea26469706673582212201c277dff8d1762ce76db53b08b8fa684ad52290fc816102c289298f515eac4ae64736f6c63430008120033","opcodes":"PUSH1 0x80 PUSH1 0x40 MSTORE PUSH1 0x1 DUP1 SSTORE CALLVALUE DUP1 ISZERO PUSH2 0x14 JUMPI PUSH1 0x0 DUP1 REVERT JUMPDEST POP PUSH2 0x31 PUSH2 0x26 PUSH2 0x36 PUSH1 0x20 SHL PUSH1 0x20 SHR JUMP JUMPDEST PUSH2 0x3E PUSH1 0x20 SHL PUSH1 0x20 SHR JUMP JUMPDEST PUSH2 0x102 JUMP JUMPDEST PUSH1 0x0 CALLER SWAP1 POP SWAP1 JUMP JUMPDEST PUSH1 0x0 DUP1 PUSH1 0x0 SWAP1 SLOAD SWAP1 PUSH2 0x100 EXP SWAP1 DIV PUSH20 0xFFFFFFFFFFFFFFFFFFFFFFFFFFFFFFFFFFFFFFFF AND SWAP1 POP DUP2 PUSH1 0x0 DUP1 PUSH2 0x100 EXP DUP2 SLOAD DUP2 PUSH20 0xFFFFFFFFFFFFFFFFFFFFFFFFFFFFFFFFFFFFFFFF MUL NOT AND SWAP1 DUP4 PUSH20 0xFFFFFFFFFFFFFFFFFFFFFFFFFFFFFFFFFFFFFFFF AND MUL OR SWAP1 SSTORE POP DUP2 PUSH20 0xFFFFFFFFFFFFFFFFFFFFFFFFFFFFFFFFFFFFFFFF AND DUP2 PUSH20 0xFFFFFFFFFFFFFFFFFFFFFFFFFFFFFFFFFFFFFFFF AND PUSH32 0x8BE0079C531659141344CD1FD0A4F28419497F9722A3DAAFE3B4186F6B6457E0 PUSH1 0x40 MLOAD PUSH1 0x40 MLOAD DUP1 SWAP2 SUB SWAP1 LOG3 POP POP JUMP JUMPDEST PUSH2 0x1CFD DUP1 PUSH2 0x111 PUSH1 0x0 CODECOPY PUSH1 0x0 RETURN INVALID PUSH1 0x80 PUSH1 0x40 MSTORE CALLVALUE DUP1 ISZERO PUSH2 0x10 JUMPI PUSH1 0x0 DUP1 REVERT JUMPDEST POP PUSH1 0x4 CALLDATASIZE LT PUSH2 0x93 JUMPI PUSH1 0x0 CALLDATALOAD PUSH1 0xE0 SHR DUP1 PUSH4 0x7D7AFC31 GT PUSH2 0x66 JUMPI DUP1 PUSH4 0x7D7AFC31 EQ PUSH2 0x11E JUMPI DUP1 PUSH4 0x8DA5CB5B EQ PUSH2 0x13A JUMPI DUP1 PUSH4 0xA7BB5803 EQ PUSH2 0x158 JUMPI DUP1 PUSH4 0xF2FDE38B EQ PUSH2 0x18A JUMPI DUP1 PUSH4 0xF5D2FE8A EQ PUSH2 0x1A6 JUMPI PUSH2 0x93 JUMP JUMPDEST DUP1 PUSH4 0x3F15B6B8 EQ PUSH2 0x98 JUMPI DUP1 PUSH4 0x48D99C85 EQ PUSH2 0xC8 JUMPI DUP1 PUSH4 0x524E379D EQ PUSH2 0xE4 JUMPI DUP1 PUSH4 0x715018A6 EQ PUSH2 0x114 JUMPI JUMPDEST PUSH1 0x0 DUP1 REVERT JUMPDEST PUSH2 0xB2 PUSH1 0x4 DUP1 CALLDATASIZE SUB DUP2 ADD SWAP1 PUSH2 0xAD SWAP2 SWAP1 PUSH2 0xC97 JUMP JUMPDEST PUSH2 0x1C4 JUMP JUMPDEST PUSH1 0x40 MLOAD PUSH2 0xBF SWAP2 SWAP1 PUSH2 0xCDF JUMP JUMPDEST PUSH1 0x40 MLOAD DUP1 SWAP2 SUB SWAP1 RETURN JUMPDEST PUSH2 0xE2 PUSH1 0x4 DUP1 CALLDATASIZE SUB DUP2 ADD SWAP1 PUSH2 0xDD SWAP2 SWAP1 PUSH2 0xDEB JUMP JUMPDEST PUSH2 0x1E6 JUMP JUMPDEST STOP JUMPDEST PUSH2 0xFE PUSH1 0x4 DUP1 CALLDATASIZE SUB DUP2 ADD SWAP1 PUSH2 0xF9 SWAP2 SWAP1 PUSH2 0xC97 JUMP JUMPDEST PUSH2 0x620 JUMP JUMPDEST PUSH1 0x40 MLOAD PUSH2 0x10B SWAP2 SWAP1 PUSH2 0xCDF JUMP JUMPDEST PUSH1 0x40 MLOAD DUP1 SWAP2 SUB SWAP1 RETURN JUMPDEST PUSH2 0x11C PUSH2 0x64D JUMP JUMPDEST STOP JUMPDEST PUSH2 0x138 PUSH1 0x4 DUP1 CALLDATASIZE SUB DUP2 ADD SWAP1 PUSH2 0x133 SWAP2 SWAP1 PUSH2 0xC97 JUMP JUMPDEST PUSH2 0x661 JUMP JUMPDEST STOP JUMPDEST PUSH2 0x142 PUSH2 0x8FD JUMP JUMPDEST PUSH1 0x40 MLOAD PUSH2 0x14F SWAP2 SWAP1 PUSH2 0xEFB JUMP JUMPDEST PUSH1 0x40 MLOAD DUP1 SWAP2 SUB SWAP1 RETURN JUMPDEST PUSH2 0x172 PUSH1 0x4 DUP1 CALLDATASIZE SUB DUP2 ADD SWAP1 PUSH2 0x16D SWAP2 SWAP1 PUSH2 0x1057 JUMP JUMPDEST PUSH2 0x926 JUMP JUMPDEST PUSH1 0x40 MLOAD PUSH2 0x181 SWAP4 SWAP3 SWAP2 SWAP1 PUSH2 0x10CB JUMP JUMPDEST PUSH1 0x40 MLOAD DUP1 SWAP2 SUB SWAP1 RETURN JUMPDEST PUSH2 0x1A4 PUSH1 0x4 DUP1 CALLDATASIZE SUB DUP2 ADD SWAP1 PUSH2 0x19F SWAP2 SWAP1 PUSH2 0x112E JUMP JUMPDEST PUSH2 0x98E JUMP JUMPDEST STOP JUMPDEST PUSH2 0x1AE PUSH2 0xA11 JUMP JUMPDEST PUSH1 0x40 MLOAD PUSH2 0x1BB SWAP2 SWAP1 PUSH2 0x116A JUMP JUMPDEST PUSH1 0x40 MLOAD DUP1 SWAP2 SUB SWAP1 RETURN JUMPDEST PUSH1 0x0 PUSH1 0x2 PUSH1 0x0 DUP4 DUP2 MSTORE PUSH1 0x20 ADD SWAP1 DUP2 MSTORE PUSH1 0x20 ADD PUSH1 0x0 KECCAK256 PUSH1 0x3 ADD SLOAD TIMESTAMP GT SWAP1 POP SWAP2 SWAP1 POP JUMP JUMPDEST PUSH2 0x1EE PUSH2 0xA23 JUMP JUMPDEST PUSH1 0x0 DUP9 LT ISZERO PUSH2 0x232 JUMPI PUSH1 0x40 MLOAD PUSH32 0x8C379A000000000000000000000000000000000000000000000000000000000 DUP2 MSTORE PUSH1 0x4 ADD PUSH2 0x229 SWAP1 PUSH2 0x1208 JUMP JUMPDEST PUSH1 0x40 MLOAD DUP1 SWAP2 SUB SWAP1 REVERT JUMPDEST PUSH1 0x1 SLOAD DUP9 GT ISZERO PUSH2 0x277 JUMPI PUSH1 0x40 MLOAD PUSH32 0x8C379A000000000000000000000000000000000000000000000000000000000 DUP2 MSTORE PUSH1 0x4 ADD PUSH2 0x26E SWAP1 PUSH2 0x1274 JUMP JUMPDEST PUSH1 0x40 MLOAD DUP1 SWAP2 SUB SWAP1 REVERT JUMPDEST PUSH1 0x0 PUSH20 0xFFFFFFFFFFFFFFFFFFFFFFFFFFFFFFFFFFFFFFFF AND PUSH1 0x2 PUSH1 0x0 DUP11 DUP2 MSTORE PUSH1 0x20 ADD SWAP1 DUP2 MSTORE PUSH1 0x20 ADD PUSH1 0x0 KECCAK256 PUSH1 0x1 ADD PUSH1 0x0 SWAP1 SLOAD SWAP1 PUSH2 0x100 EXP SWAP1 DIV PUSH20 0xFFFFFFFFFFFFFFFFFFFFFFFFFFFFFFFFFFFFFFFF AND PUSH20 0xFFFFFFFFFFFFFFFFFFFFFFFFFFFFFFFFFFFFFFFF AND EQ PUSH2 0x31C JUMPI PUSH1 0x40 MLOAD PUSH32 0x8C379A000000000000000000000000000000000000000000000000000000000 DUP2 MSTORE PUSH1 0x4 ADD PUSH2 0x313 SWAP1 PUSH2 0x132C JUMP JUMPDEST PUSH1 0x40 MLOAD DUP1 SWAP2 SUB SWAP1 REVERT JUMPDEST DUP3 TIMESTAMP LT PUSH2 0x35E JUMPI PUSH1 0x40 MLOAD PUSH32 0x8C379A000000000000000000000000000000000000000000000000000000000 DUP2 MSTORE PUSH1 0x4 ADD PUSH2 0x355 SWAP1 PUSH2 0x13BE JUMP JUMPDEST PUSH1 0x40 MLOAD DUP1 SWAP2 SUB SWAP1 REVERT JUMPDEST TIMESTAMP DUP3 GT ISZERO PUSH2 0x3A1 JUMPI PUSH1 0x40 MLOAD PUSH32 0x8C379A000000000000000000000000000000000000000000000000000000000 DUP2 MSTORE PUSH1 0x4 ADD PUSH2 0x398 SWAP1 PUSH2 0x142A JUMP JUMPDEST PUSH1 0x40 MLOAD DUP1 SWAP2 SUB SWAP1 REVERT JUMPDEST PUSH1 0x0 PUSH2 0x3AE DUP3 DUP10 DUP10 PUSH2 0xAA1 JUMP JUMPDEST SWAP1 POP PUSH1 0x0 PUSH20 0xFFFFFFFFFFFFFFFFFFFFFFFFFFFFFFFFFFFFFFFF AND DUP2 PUSH20 0xFFFFFFFFFFFFFFFFFFFFFFFFFFFFFFFFFFFFFFFF AND SUB PUSH2 0x41F JUMPI PUSH1 0x40 MLOAD PUSH32 0x8C379A000000000000000000000000000000000000000000000000000000000 DUP2 MSTORE PUSH1 0x4 ADD PUSH2 0x416 SWAP1 PUSH2 0x1496 JUMP JUMPDEST PUSH1 0x40 MLOAD DUP1 SWAP2 SUB SWAP1 REVERT JUMPDEST PUSH1 0x40 MLOAD DUP1 PUSH1 0xC0 ADD PUSH1 0x40 MSTORE DUP1 DUP8 DUP8 DUP1 DUP1 PUSH1 0x1F ADD PUSH1 0x20 DUP1 SWAP2 DIV MUL PUSH1 0x20 ADD PUSH1 0x40 MLOAD SWAP1 DUP2 ADD PUSH1 0x40 MSTORE DUP1 SWAP4 SWAP3 SWAP2 SWAP1 DUP2 DUP2 MSTORE PUSH1 0x20 ADD DUP4 DUP4 DUP1 DUP3 DUP5 CALLDATACOPY PUSH1 0x0 DUP2 DUP5 ADD MSTORE PUSH1 0x1F NOT PUSH1 0x1F DUP3 ADD AND SWAP1 POP DUP1 DUP4 ADD SWAP3 POP POP POP POP POP POP POP DUP2 MSTORE PUSH1 0x20 ADD DUP3 PUSH20 0xFFFFFFFFFFFFFFFFFFFFFFFFFFFFFFFFFFFFFFFF AND DUP2 MSTORE PUSH1 0x20 ADD DUP5 DUP2 MSTORE PUSH1 0x20 ADD DUP6 DUP2 MSTORE PUSH1 0x20 ADD PUSH1 0x0 ISZERO ISZERO DUP2 MSTORE PUSH1 0x20 ADD PUSH1 0x0 ISZERO ISZERO DUP2 MSTORE POP PUSH1 0x2 PUSH1 0x0 DUP12 DUP2 MSTORE PUSH1 0x20 ADD SWAP1 DUP2 MSTORE PUSH1 0x20 ADD PUSH1 0x0 KECCAK256 PUSH1 0x0 DUP3 ADD MLOAD DUP2 PUSH1 0x0 ADD SWAP1 DUP2 PUSH2 0x4D4 SWAP2 SWAP1 PUSH2 0x16CD JUMP JUMPDEST POP PUSH1 0x20 DUP3 ADD MLOAD DUP2 PUSH1 0x1 ADD PUSH1 0x0 PUSH2 0x100 EXP DUP2 SLOAD DUP2 PUSH20 0xFFFFFFFFFFFFFFFFFFFFFFFFFFFFFFFFFFFFFFFF MUL NOT AND SWAP1 DUP4 PUSH20 0xFFFFFFFFFFFFFFFFFFFFFFFFFFFFFFFFFFFFFFFF AND MUL OR SWAP1 SSTORE POP PUSH1 0x40 DUP3 ADD MLOAD DUP2 PUSH1 0x2 ADD SSTORE PUSH1 0x60 DUP3 ADD MLOAD DUP2 PUSH1 0x3 ADD SSTORE PUSH1 0x80 DUP3 ADD MLOAD DUP2 PUSH1 0x4 ADD PUSH1 0x0 PUSH2 0x100 EXP DUP2 SLOAD DUP2 PUSH1 0xFF MUL NOT AND SWAP1 DUP4 ISZERO ISZERO MUL OR SWAP1 SSTORE POP PUSH1 0xA0 DUP3 ADD MLOAD DUP2 PUSH1 0x4 ADD PUSH1 0x1 PUSH2 0x100 EXP DUP2 SLOAD DUP2 PUSH1 0xFF MUL NOT AND SWAP1 DUP4 ISZERO ISZERO MUL OR SWAP1 SSTORE POP SWAP1 POP POP PUSH1 0x1 DUP1 PUSH1 0x0 DUP3 DUP3 SLOAD PUSH2 0x585 SWAP2 SWAP1 PUSH2 0x17CE JUMP JUMPDEST SWAP3 POP POP DUP2 SWAP1 SSTORE POP PUSH32 0x5D24CBC5E6317AFE519D58B687ED1F80EDE64CB2CD2985810FDD7BD5A8ABB95F DUP10 PUSH1 0x2 PUSH1 0x0 DUP13 DUP2 MSTORE PUSH1 0x20 ADD SWAP1 DUP2 MSTORE PUSH1 0x20 ADD PUSH1 0x0 KECCAK256 PUSH1 0x1 ADD PUSH1 0x0 SWAP1 SLOAD SWAP1 PUSH2 0x100 EXP SWAP1 DIV PUSH20 0xFFFFFFFFFFFFFFFFFFFFFFFFFFFFFFFFFFFFFFFF AND PUSH1 0x2 PUSH1 0x0 DUP14 DUP2 MSTORE PUSH1 0x20 ADD SWAP1 DUP2 MSTORE PUSH1 0x20 ADD PUSH1 0x0 KECCAK256 PUSH1 0x3 ADD SLOAD TIMESTAMP PUSH1 0x40 MLOAD PUSH2 0x60D SWAP5 SWAP4 SWAP3 SWAP2 SWAP1 PUSH2 0x1802 JUMP JUMPDEST PUSH1 0x40 MLOAD DUP1 SWAP2 SUB SWAP1 LOG1 POP POP POP POP POP POP POP POP POP JUMP JUMPDEST PUSH1 0x0 PUSH1 0x2 PUSH1 0x0 DUP4 DUP2 MSTORE PUSH1 0x20 ADD SWAP1 DUP2 MSTORE PUSH1 0x20 ADD PUSH1 0x0 KECCAK256 PUSH1 0x4 ADD PUSH1 0x1 SWAP1 SLOAD SWAP1 PUSH2 0x100 EXP SWAP1 DIV PUSH1 0xFF AND SWAP1 POP SWAP2 SWAP1 POP JUMP JUMPDEST PUSH2 0x655 PUSH2 0xA23 JUMP JUMPDEST PUSH2 0x65F PUSH1 0x0 PUSH2 0xB81 JUMP JUMPDEST JUMP JUMPDEST PUSH1 0x0 PUSH20 0xFFFFFFFFFFFFFFFFFFFFFFFFFFFFFFFFFFFFFFFF AND CALLER PUSH20 0xFFFFFFFFFFFFFFFFFFFFFFFFFFFFFFFFFFFFFFFF AND SUB PUSH2 0x6D0 JUMPI PUSH1 0x40 MLOAD PUSH32 0x8C379A000000000000000000000000000000000000000000000000000000000 DUP2 MSTORE PUSH1 0x4 ADD PUSH2 0x6C7 SWAP1 PUSH2 0x1893 JUMP JUMPDEST PUSH1 0x40 MLOAD DUP1 SWAP2 SUB SWAP1 REVERT JUMPDEST PUSH1 0x0 DUP2 LT ISZERO PUSH2 0x714 JUMPI PUSH1 0x40 MLOAD PUSH32 0x8C379A000000000000000000000000000000000000000000000000000000000 DUP2 MSTORE PUSH1 0x4 ADD PUSH2 0x70B SWAP1 PUSH2 0x1208 JUMP JUMPDEST PUSH1 0x40 MLOAD DUP1 SWAP2 SUB SWAP1 REVERT JUMPDEST PUSH1 0x0 ISZERO ISZERO PUSH1 0x2 PUSH1 0x0 DUP4 DUP2 MSTORE PUSH1 0x20 ADD SWAP1 DUP2 MSTORE PUSH1 0x20 ADD PUSH1 0x0 KECCAK256 PUSH1 0x4 ADD PUSH1 0x1 SWAP1 SLOAD SWAP1 PUSH2 0x100 EXP SWAP1 DIV PUSH1 0xFF AND ISZERO ISZERO EQ PUSH2 0x77E JUMPI PUSH1 0x40 MLOAD PUSH32 0x8C379A000000000000000000000000000000000000000000000000000000000 DUP2 MSTORE PUSH1 0x4 ADD PUSH2 0x775 SWAP1 PUSH2 0x18FF JUMP JUMPDEST PUSH1 0x40 MLOAD DUP1 SWAP2 SUB SWAP1 REVERT JUMPDEST PUSH1 0x2 PUSH1 0x0 DUP3 DUP2 MSTORE PUSH1 0x20 ADD SWAP1 DUP2 MSTORE PUSH1 0x20 ADD PUSH1 0x0 KECCAK256 PUSH1 0x3 ADD SLOAD TIMESTAMP LT PUSH2 0x7D6 JUMPI PUSH1 0x40 MLOAD PUSH32 0x8C379A000000000000000000000000000000000000000000000000000000000 DUP2 MSTORE PUSH1 0x4 ADD PUSH2 0x7CD SWAP1 PUSH2 0x1991 JUMP JUMPDEST PUSH1 0x40 MLOAD DUP1 SWAP2 SUB SWAP1 REVERT JUMPDEST PUSH1 0x2 PUSH1 0x0 DUP3 DUP2 MSTORE PUSH1 0x20 ADD SWAP1 DUP2 MSTORE PUSH1 0x20 ADD PUSH1 0x0 KECCAK256 PUSH1 0x1 ADD PUSH1 0x0 SWAP1 SLOAD SWAP1 PUSH2 0x100 EXP SWAP1 DIV PUSH20 0xFFFFFFFFFFFFFFFFFFFFFFFFFFFFFFFFFFFFFFFF AND PUSH20 0xFFFFFFFFFFFFFFFFFFFFFFFFFFFFFFFFFFFFFFFF AND CALLER PUSH20 0xFFFFFFFFFFFFFFFFFFFFFFFFFFFFFFFFFFFFFFFF AND EQ PUSH2 0x87A JUMPI PUSH1 0x40 MLOAD PUSH32 0x8C379A000000000000000000000000000000000000000000000000000000000 DUP2 MSTORE PUSH1 0x4 ADD PUSH2 0x871 SWAP1 PUSH2 0x1A23 JUMP JUMPDEST PUSH1 0x40 MLOAD DUP1 SWAP2 SUB SWAP1 REVERT JUMPDEST PUSH1 0x1 PUSH1 0x2 PUSH1 0x0 DUP4 DUP2 MSTORE PUSH1 0x20 ADD SWAP1 DUP2 MSTORE PUSH1 0x20 ADD PUSH1 0x0 KECCAK256 PUSH1 0x4 ADD PUSH1 0x1 PUSH2 0x100 EXP DUP2 SLOAD DUP2 PUSH1 0xFF MUL NOT AND SWAP1 DUP4 ISZERO ISZERO MUL OR SWAP1 SSTORE POP PUSH32 0x62E0DCE4BFE47A16E604298968B9FA07EBB93245B44C3CE6BEF7F9A9706BB260 DUP2 TIMESTAMP PUSH1 0x2 PUSH1 0x0 DUP6 DUP2 MSTORE PUSH1 0x20 ADD SWAP1 DUP2 MSTORE PUSH1 0x20 ADD PUSH1 0x0 KECCAK256 PUSH1 0x3 ADD SLOAD PUSH1 0x40 MLOAD PUSH2 0x8F2 SWAP4 SWAP3 SWAP2 SWAP1 PUSH2 0x1A43 JUMP JUMPDEST PUSH1 0x40 MLOAD DUP1 SWAP2 SUB SWAP1 LOG1 POP JUMP JUMPDEST PUSH1 0x0 DUP1 PUSH1 0x0 SWAP1 SLOAD SWAP1 PUSH2 0x100 EXP SWAP1 DIV PUSH20 0xFFFFFFFFFFFFFFFFFFFFFFFFFFFFFFFFFFFFFFFF AND SWAP1 POP SWAP1 JUMP JUMPDEST PUSH1 0x0 DUP1 PUSH1 0x0 PUSH1 0x41 DUP5 MLOAD EQ PUSH2 0x96F JUMPI PUSH1 0x40 MLOAD PUSH32 0x8C379A000000000000000000000000000000000000000000000000000000000 DUP2 MSTORE PUSH1 0x4 ADD PUSH2 0x966 SWAP1 PUSH2 0x1AC6 JUMP JUMPDEST PUSH1 0x40 MLOAD DUP1 SWAP2 SUB SWAP1 REVERT JUMPDEST PUSH1 0x20 DUP5 ADD MLOAD SWAP3 POP PUSH1 0x40 DUP5 ADD MLOAD SWAP2 POP PUSH1 0x60 DUP5 ADD MLOAD PUSH1 0x0 BYTE SWAP1 POP SWAP2 SWAP4 SWAP1 SWAP3 POP JUMP JUMPDEST PUSH2 0x996 PUSH2 0xA23 JUMP JUMPDEST PUSH1 0x0 PUSH20 0xFFFFFFFFFFFFFFFFFFFFFFFFFFFFFFFFFFFFFFFF AND DUP2 PUSH20 0xFFFFFFFFFFFFFFFFFFFFFFFFFFFFFFFFFFFFFFFF AND SUB PUSH2 0xA05 JUMPI PUSH1 0x40 MLOAD PUSH32 0x8C379A000000000000000000000000000000000000000000000000000000000 DUP2 MSTORE PUSH1 0x4 ADD PUSH2 0x9FC SWAP1 PUSH2 0x1B58 JUMP JUMPDEST PUSH1 0x40 MLOAD DUP1 SWAP2 SUB SWAP1 REVERT JUMPDEST PUSH2 0xA0E DUP2 PUSH2 0xB81 JUMP JUMPDEST POP JUMP JUMPDEST PUSH1 0x0 PUSH2 0xA1B PUSH2 0xA23 JUMP JUMPDEST PUSH1 0x1 SLOAD SWAP1 POP SWAP1 JUMP JUMPDEST PUSH2 0xA2B PUSH2 0xC45 JUMP JUMPDEST PUSH20 0xFFFFFFFFFFFFFFFFFFFFFFFFFFFFFFFFFFFFFFFF AND PUSH2 0xA49 PUSH2 0x8FD JUMP JUMPDEST PUSH20 0xFFFFFFFFFFFFFFFFFFFFFFFFFFFFFFFFFFFFFFFF AND EQ PUSH2 0xA9F JUMPI PUSH1 0x40 MLOAD PUSH32 0x8C379A000000000000000000000000000000000000000000000000000000000 DUP2 MSTORE PUSH1 0x4 ADD PUSH2 0xA96 SWAP1 PUSH2 0x1BC4 JUMP JUMPDEST PUSH1 0x40 MLOAD DUP1 SWAP2 SUB SWAP1 REVERT JUMPDEST JUMP JUMPDEST PUSH1 0x0 DUP1 DUP5 PUSH1 0x40 MLOAD PUSH1 0x20 ADD PUSH2 0xAB5 SWAP2 SWAP1 PUSH2 0x1C5C JUMP JUMPDEST PUSH1 0x40 MLOAD PUSH1 0x20 DUP2 DUP4 SUB SUB DUP2 MSTORE SWAP1 PUSH1 0x40 MSTORE DUP1 MLOAD SWAP1 PUSH1 0x20 ADD KECCAK256 SWAP1 POP PUSH1 0x0 DUP1 PUSH1 0x0 PUSH2 0xB1F DUP8 DUP8 DUP1 DUP1 PUSH1 0x1F ADD PUSH1 0x20 DUP1 SWAP2 DIV MUL PUSH1 0x20 ADD PUSH1 0x40 MLOAD SWAP1 DUP2 ADD PUSH1 0x40 MSTORE DUP1 SWAP4 SWAP3 SWAP2 SWAP1 DUP2 DUP2 MSTORE PUSH1 0x20 ADD DUP4 DUP4 DUP1 DUP3 DUP5 CALLDATACOPY PUSH1 0x0 DUP2 DUP5 ADD MSTORE PUSH1 0x1F NOT PUSH1 0x1F DUP3 ADD AND SWAP1 POP DUP1 DUP4 ADD SWAP3 POP POP POP POP POP POP POP PUSH2 0x926 JUMP JUMPDEST SWAP3 POP SWAP3 POP SWAP3 POP PUSH1 0x1 DUP5 DUP3 DUP6 DUP6 PUSH1 0x40 MLOAD PUSH1 0x0 DUP2 MSTORE PUSH1 0x20 ADD PUSH1 0x40 MSTORE PUSH1 0x40 MLOAD PUSH2 0xB48 SWAP5 SWAP4 SWAP3 SWAP2 SWAP1 PUSH2 0x1C82 JUMP JUMPDEST PUSH1 0x20 PUSH1 0x40 MLOAD PUSH1 0x20 DUP2 SUB SWAP1 DUP1 DUP5 SUB SWAP1 DUP6 GAS STATICCALL ISZERO DUP1 ISZERO PUSH2 0xB6A JUMPI RETURNDATASIZE PUSH1 0x0 DUP1 RETURNDATACOPY RETURNDATASIZE PUSH1 0x0 REVERT JUMPDEST POP POP POP PUSH1 0x20 PUSH1 0x40 MLOAD SUB MLOAD SWAP5 POP POP POP POP POP SWAP4 SWAP3 POP POP POP JUMP JUMPDEST PUSH1 0x0 DUP1 PUSH1 0x0 SWAP1 SLOAD SWAP1 PUSH2 0x100 EXP SWAP1 DIV PUSH20 0xFFFFFFFFFFFFFFFFFFFFFFFFFFFFFFFFFFFFFFFF AND SWAP1 POP DUP2 PUSH1 0x0 DUP1 PUSH2 0x100 EXP DUP2 SLOAD DUP2 PUSH20 0xFFFFFFFFFFFFFFFFFFFFFFFFFFFFFFFFFFFFFFFF MUL NOT AND SWAP1 DUP4 PUSH20 0xFFFFFFFFFFFFFFFFFFFFFFFFFFFFFFFFFFFFFFFF AND MUL OR SWAP1 SSTORE POP DUP2 PUSH20 0xFFFFFFFFFFFFFFFFFFFFFFFFFFFFFFFFFFFFFFFF AND DUP2 PUSH20 0xFFFFFFFFFFFFFFFFFFFFFFFFFFFFFFFFFFFFFFFF AND PUSH32 0x8BE0079C531659141344CD1FD0A4F28419497F9722A3DAAFE3B4186F6B6457E0 PUSH1 0x40 MLOAD PUSH1 0x40 MLOAD DUP1 SWAP2 SUB SWAP1 LOG3 POP POP JUMP JUMPDEST PUSH1 0x0 CALLER SWAP1 POP SWAP1 JUMP JUMPDEST PUSH1 0x0 PUSH1 0x40 MLOAD SWAP1 POP SWAP1 JUMP JUMPDEST PUSH1 0x0 DUP1 REVERT JUMPDEST PUSH1 0x0 DUP1 REVERT JUMPDEST PUSH1 0x0 DUP2 SWAP1 POP SWAP2 SWAP1 POP JUMP JUMPDEST PUSH2 0xC74 DUP2 PUSH2 0xC61 JUMP JUMPDEST DUP2 EQ PUSH2 0xC7F JUMPI PUSH1 0x0 DUP1 REVERT JUMPDEST POP JUMP JUMPDEST PUSH1 0x0 DUP2 CALLDATALOAD SWAP1 POP PUSH2 0xC91 DUP2 PUSH2 0xC6B JUMP JUMPDEST SWAP3 SWAP2 POP POP JUMP JUMPDEST PUSH1 0x0 PUSH1 0x20 DUP3 DUP5 SUB SLT ISZERO PUSH2 0xCAD JUMPI PUSH2 0xCAC PUSH2 0xC57 JUMP JUMPDEST JUMPDEST PUSH1 0x0 PUSH2 0xCBB DUP5 DUP3 DUP6 ADD PUSH2 0xC82 JUMP JUMPDEST SWAP2 POP POP SWAP3 SWAP2 POP POP JUMP JUMPDEST PUSH1 0x0 DUP2 ISZERO ISZERO SWAP1 POP SWAP2 SWAP1 POP JUMP JUMPDEST PUSH2 0xCD9 DUP2 PUSH2 0xCC4 JUMP JUMPDEST DUP3 MSTORE POP POP JUMP JUMPDEST PUSH1 0x0 PUSH1 0x20 DUP3 ADD SWAP1 POP PUSH2 0xCF4 PUSH1 0x0 DUP4 ADD DUP5 PUSH2 0xCD0 JUMP JUMPDEST SWAP3 SWAP2 POP POP JUMP JUMPDEST PUSH1 0x0 DUP1 REVERT JUMPDEST PUSH1 0x0 DUP1 REVERT JUMPDEST PUSH1 0x0 DUP1 REVERT JUMPDEST PUSH1 0x0 DUP1 DUP4 PUSH1 0x1F DUP5 ADD SLT PUSH2 0xD1F JUMPI PUSH2 0xD1E PUSH2 0xCFA JUMP JUMPDEST JUMPDEST DUP3 CALLDATALOAD SWAP1 POP PUSH8 0xFFFFFFFFFFFFFFFF DUP2 GT ISZERO PUSH2 0xD3C JUMPI PUSH2 0xD3B PUSH2 0xCFF JUMP JUMPDEST JUMPDEST PUSH1 0x20 DUP4 ADD SWAP2 POP DUP4 PUSH1 0x1 DUP3 MUL DUP4 ADD GT ISZERO PUSH2 0xD58 JUMPI PUSH2 0xD57 PUSH2 0xD04 JUMP JUMPDEST JUMPDEST SWAP3 POP SWAP3 SWAP1 POP JUMP JUMPDEST PUSH1 0x0 DUP1 DUP4 PUSH1 0x1F DUP5 ADD SLT PUSH2 0xD75 JUMPI PUSH2 0xD74 PUSH2 0xCFA JUMP JUMPDEST JUMPDEST DUP3 CALLDATALOAD SWAP1 POP PUSH8 0xFFFFFFFFFFFFFFFF DUP2 GT ISZERO PUSH2 0xD92 JUMPI PUSH2 0xD91 PUSH2 0xCFF JUMP JUMPDEST JUMPDEST PUSH1 0x20 DUP4 ADD SWAP2 POP DUP4 PUSH1 0x1 DUP3 MUL DUP4 ADD GT ISZERO PUSH2 0xDAE JUMPI PUSH2 0xDAD PUSH2 0xD04 JUMP JUMPDEST JUMPDEST SWAP3 POP SWAP3 SWAP1 POP JUMP JUMPDEST PUSH1 0x0 DUP2 SWAP1 POP SWAP2 SWAP1 POP JUMP JUMPDEST PUSH2 0xDC8 DUP2 PUSH2 0xDB5 JUMP JUMPDEST DUP2 EQ PUSH2 0xDD3 JUMPI PUSH1 0x0 DUP1 REVERT JUMPDEST POP JUMP JUMPDEST PUSH1 0x0 DUP2 CALLDATALOAD SWAP1 POP PUSH2 0xDE5 DUP2 PUSH2 0xDBF JUMP JUMPDEST SWAP3 SWAP2 POP POP JUMP JUMPDEST PUSH1 0x0 DUP1 PUSH1 0x0 DUP1 PUSH1 0x0 DUP1 PUSH1 0x0 DUP1 PUSH1 0xC0 DUP10 DUP12 SUB SLT ISZERO PUSH2 0xE0B JUMPI PUSH2 0xE0A PUSH2 0xC57 JUMP JUMPDEST JUMPDEST PUSH1 0x0 PUSH2 0xE19 DUP12 DUP3 DUP13 ADD PUSH2 0xC82 JUMP JUMPDEST SWAP9 POP POP PUSH1 0x20 DUP10 ADD CALLDATALOAD PUSH8 0xFFFFFFFFFFFFFFFF DUP2 GT ISZERO PUSH2 0xE3A JUMPI PUSH2 0xE39 PUSH2 0xC5C JUMP JUMPDEST JUMPDEST PUSH2 0xE46 DUP12 DUP3 DUP13 ADD PUSH2 0xD09 JUMP JUMPDEST SWAP8 POP SWAP8 POP POP PUSH1 0x40 DUP10 ADD CALLDATALOAD PUSH8 0xFFFFFFFFFFFFFFFF DUP2 GT ISZERO PUSH2 0xE69 JUMPI PUSH2 0xE68 PUSH2 0xC5C JUMP JUMPDEST JUMPDEST PUSH2 0xE75 DUP12 DUP3 DUP13 ADD PUSH2 0xD5F JUMP JUMPDEST SWAP6 POP SWAP6 POP POP PUSH1 0x60 PUSH2 0xE88 DUP12 DUP3 DUP13 ADD PUSH2 0xC82 JUMP JUMPDEST SWAP4 POP POP PUSH1 0x80 PUSH2 0xE99 DUP12 DUP3 DUP13 ADD PUSH2 0xC82 JUMP JUMPDEST SWAP3 POP POP PUSH1 0xA0 PUSH2 0xEAA DUP12 DUP3 DUP13 ADD PUSH2 0xDD6 JUMP JUMPDEST SWAP2 POP POP SWAP3 SWAP6 SWAP9 POP SWAP3 SWAP6 SWAP9 SWAP1 SWAP4 SWAP7 POP JUMP JUMPDEST PUSH1 0x0 PUSH20 0xFFFFFFFFFFFFFFFFFFFFFFFFFFFFFFFFFFFFFFFF DUP3 AND SWAP1 POP SWAP2 SWAP1 POP JUMP JUMPDEST PUSH1 0x0 PUSH2 0xEE5 DUP3 PUSH2 0xEBA JUMP JUMPDEST SWAP1 POP SWAP2 SWAP1 POP JUMP JUMPDEST PUSH2 0xEF5 DUP2 PUSH2 0xEDA JUMP JUMPDEST DUP3 MSTORE POP POP JUMP JUMPDEST PUSH1 0x0 PUSH1 0x20 DUP3 ADD SWAP1 POP PUSH2 0xF10 PUSH1 0x0 DUP4 ADD DUP5 PUSH2 0xEEC JUMP JUMPDEST SWAP3 SWAP2 POP POP JUMP JUMPDEST PUSH1 0x0 DUP1 REVERT JUMPDEST PUSH1 0x0 PUSH1 0x1F NOT PUSH1 0x1F DUP4 ADD AND SWAP1 POP SWAP2 SWAP1 POP JUMP JUMPDEST PUSH32 0x4E487B7100000000000000000000000000000000000000000000000000000000 PUSH1 0x0 MSTORE PUSH1 0x41 PUSH1 0x4 MSTORE PUSH1 0x24 PUSH1 0x0 REVERT JUMPDEST PUSH2 0xF64 DUP3 PUSH2 0xF1B JUMP JUMPDEST DUP2 ADD DUP2 DUP2 LT PUSH8 0xFFFFFFFFFFFFFFFF DUP3 GT OR ISZERO PUSH2 0xF83 JUMPI PUSH2 0xF82 PUSH2 0xF2C JUMP JUMPDEST JUMPDEST DUP1 PUSH1 0x40 MSTORE POP POP POP JUMP JUMPDEST PUSH1 0x0 PUSH2 0xF96 PUSH2 0xC4D JUMP JUMPDEST SWAP1 POP PUSH2 0xFA2 DUP3 DUP3 PUSH2 0xF5B JUMP JUMPDEST SWAP2 SWAP1 POP JUMP JUMPDEST PUSH1 0x0 PUSH8 0xFFFFFFFFFFFFFFFF DUP3 GT ISZERO PUSH2 0xFC2 JUMPI PUSH2 0xFC1 PUSH2 0xF2C JUMP JUMPDEST JUMPDEST PUSH2 0xFCB DUP3 PUSH2 0xF1B JUMP JUMPDEST SWAP1 POP PUSH1 0x20 DUP2 ADD SWAP1 POP SWAP2 SWAP1 POP JUMP JUMPDEST DUP3 DUP2 DUP4 CALLDATACOPY PUSH1 0x0 DUP4 DUP4 ADD MSTORE POP POP POP JUMP JUMPDEST PUSH1 0x0 PUSH2 0xFFA PUSH2 0xFF5 DUP5 PUSH2 0xFA7 JUMP JUMPDEST PUSH2 0xF8C JUMP JUMPDEST SWAP1 POP DUP3 DUP2 MSTORE PUSH1 0x20 DUP2 ADD DUP5 DUP5 DUP5 ADD GT ISZERO PUSH2 0x1016 JUMPI PUSH2 0x1015 PUSH2 0xF16 JUMP JUMPDEST JUMPDEST PUSH2 0x1021 DUP5 DUP3 DUP6 PUSH2 0xFD8 JUMP JUMPDEST POP SWAP4 SWAP3 POP POP POP JUMP JUMPDEST PUSH1 0x0 DUP3 PUSH1 0x1F DUP4 ADD SLT PUSH2 0x103E JUMPI PUSH2 0x103D PUSH2 0xCFA JUMP JUMPDEST JUMPDEST DUP2 CALLDATALOAD PUSH2 0x104E DUP5 DUP3 PUSH1 0x20 DUP7 ADD PUSH2 0xFE7 JUMP JUMPDEST SWAP2 POP POP SWAP3 SWAP2 POP POP JUMP JUMPDEST PUSH1 0x0 PUSH1 0x20 DUP3 DUP5 SUB SLT ISZERO PUSH2 0x106D JUMPI PUSH2 0x106C PUSH2 0xC57 JUMP JUMPDEST JUMPDEST PUSH1 0x0 DUP3 ADD CALLDATALOAD PUSH8 0xFFFFFFFFFFFFFFFF DUP2 GT ISZERO PUSH2 0x108B JUMPI PUSH2 0x108A PUSH2 0xC5C JUMP JUMPDEST JUMPDEST PUSH2 0x1097 DUP5 DUP3 DUP6 ADD PUSH2 0x1029 JUMP JUMPDEST SWAP2 POP POP SWAP3 SWAP2 POP POP JUMP JUMPDEST PUSH2 0x10A9 DUP2 PUSH2 0xDB5 JUMP JUMPDEST DUP3 MSTORE POP POP JUMP JUMPDEST PUSH1 0x0 PUSH1 0xFF DUP3 AND SWAP1 POP SWAP2 SWAP1 POP JUMP JUMPDEST PUSH2 0x10C5 DUP2 PUSH2 0x10AF JUMP JUMPDEST DUP3 MSTORE POP POP JUMP JUMPDEST PUSH1 0x0 PUSH1 0x60 DUP3 ADD SWAP1 POP PUSH2 0x10E0 PUSH1 0x0 DUP4 ADD DUP7 PUSH2 0x10A0 JUMP JUMPDEST PUSH2 0x10ED PUSH1 0x20 DUP4 ADD DUP6 PUSH2 0x10A0 JUMP JUMPDEST PUSH2 0x10FA PUSH1 0x40 DUP4 ADD DUP5 PUSH2 0x10BC JUMP JUMPDEST SWAP5 SWAP4 POP POP POP POP JUMP JUMPDEST PUSH2 0x110B DUP2 PUSH2 0xEDA JUMP JUMPDEST DUP2 EQ PUSH2 0x1116 JUMPI PUSH1 0x0 DUP1 REVERT JUMPDEST POP JUMP JUMPDEST PUSH1 0x0 DUP2 CALLDATALOAD SWAP1 POP PUSH2 0x1128 DUP2 PUSH2 0x1102 JUMP JUMPDEST SWAP3 SWAP2 POP POP JUMP JUMPDEST PUSH1 0x0 PUSH1 0x20 DUP3 DUP5 SUB SLT ISZERO PUSH2 0x1144 JUMPI PUSH2 0x1143 PUSH2 0xC57 JUMP JUMPDEST JUMPDEST PUSH1 0x0 PUSH2 0x1152 DUP5 DUP3 DUP6 ADD PUSH2 0x1119 JUMP JUMPDEST SWAP2 POP POP SWAP3 SWAP2 POP POP JUMP JUMPDEST PUSH2 0x1164 DUP2 PUSH2 0xC61 JUMP JUMPDEST DUP3 MSTORE POP POP JUMP JUMPDEST PUSH1 0x0 PUSH1 0x20 DUP3 ADD SWAP1 POP PUSH2 0x117F PUSH1 0x0 DUP4 ADD DUP5 PUSH2 0x115B JUMP JUMPDEST SWAP3 SWAP2 POP POP JUMP JUMPDEST PUSH1 0x0 DUP3 DUP3 MSTORE PUSH1 0x20 DUP3 ADD SWAP1 POP SWAP3 SWAP2 POP POP JUMP JUMPDEST PUSH32 0x5643206964656E7469746966696572206D757374206265206772656174657220 PUSH1 0x0 DUP3 ADD MSTORE PUSH32 0x7468616E20300000000000000000000000000000000000000000000000000000 PUSH1 0x20 DUP3 ADD MSTORE POP JUMP JUMPDEST PUSH1 0x0 PUSH2 0x11F2 PUSH1 0x26 DUP4 PUSH2 0x1185 JUMP JUMPDEST SWAP2 POP PUSH2 0x11FD DUP3 PUSH2 0x1196 JUMP JUMPDEST PUSH1 0x40 DUP3 ADD SWAP1 POP SWAP2 SWAP1 POP JUMP JUMPDEST PUSH1 0x0 PUSH1 0x20 DUP3 ADD SWAP1 POP DUP2 DUP2 SUB PUSH1 0x0 DUP4 ADD MSTORE PUSH2 0x1221 DUP2 PUSH2 0x11E5 JUMP JUMPDEST SWAP1 POP SWAP2 SWAP1 POP JUMP JUMPDEST PUSH32 0x526563656976656420564320696420697320696E76616C696400000000000000 PUSH1 0x0 DUP3 ADD MSTORE POP JUMP JUMPDEST PUSH1 0x0 PUSH2 0x125E PUSH1 0x19 DUP4 PUSH2 0x1185 JUMP JUMPDEST SWAP2 POP PUSH2 0x1269 DUP3 PUSH2 0x1228 JUMP JUMPDEST PUSH1 0x20 DUP3 ADD SWAP1 POP SWAP2 SWAP1 POP JUMP JUMPDEST PUSH1 0x0 PUSH1 0x20 DUP3 ADD SWAP1 POP DUP2 DUP2 SUB PUSH1 0x0 DUP4 ADD MSTORE PUSH2 0x128D DUP2 PUSH2 0x1251 JUMP JUMPDEST SWAP1 POP SWAP2 SWAP1 POP JUMP JUMPDEST PUSH32 0x56432068617320616C72656164792061205643206F776E65723A207265717565 PUSH1 0x0 DUP3 ADD MSTORE PUSH32 0x737420616C72656164792073746F7265642C2072656D656D62657220746F2061 PUSH1 0x20 DUP3 ADD MSTORE PUSH32 0x6374697661746520697400000000000000000000000000000000000000000000 PUSH1 0x40 DUP3 ADD MSTORE POP JUMP JUMPDEST PUSH1 0x0 PUSH2 0x1316 PUSH1 0x4A DUP4 PUSH2 0x1185 JUMP JUMPDEST SWAP2 POP PUSH2 0x1321 DUP3 PUSH2 0x1294 JUMP JUMPDEST PUSH1 0x60 DUP3 ADD SWAP1 POP SWAP2 SWAP1 POP JUMP JUMPDEST PUSH1 0x0 PUSH1 0x20 DUP3 ADD SWAP1 POP DUP2 DUP2 SUB PUSH1 0x0 DUP4 ADD MSTORE PUSH2 0x1345 DUP2 PUSH2 0x1309 JUMP JUMPDEST SWAP1 POP SWAP2 SWAP1 POP JUMP JUMPDEST PUSH32 0x476F7420696E76616C69642F657870697265642065787069726174696F6E2064 PUSH1 0x0 DUP3 ADD MSTORE PUSH32 0x6174650000000000000000000000000000000000000000000000000000000000 PUSH1 0x20 DUP3 ADD MSTORE POP JUMP JUMPDEST PUSH1 0x0 PUSH2 0x13A8 PUSH1 0x23 DUP4 PUSH2 0x1185 JUMP JUMPDEST SWAP2 POP PUSH2 0x13B3 DUP3 PUSH2 0x134C JUMP JUMPDEST PUSH1 0x40 DUP3 ADD SWAP1 POP SWAP2 SWAP1 POP JUMP JUMPDEST PUSH1 0x0 PUSH1 0x20 DUP3 ADD SWAP1 POP DUP2 DUP2 SUB PUSH1 0x0 DUP4 ADD MSTORE PUSH2 0x13D7 DUP2 PUSH2 0x139B JUMP JUMPDEST SWAP1 POP SWAP2 SWAP1 POP JUMP JUMPDEST PUSH32 0x49737375616E6365206461746520697320696E20746865206675747572650000 PUSH1 0x0 DUP3 ADD MSTORE POP JUMP JUMPDEST PUSH1 0x0 PUSH2 0x1414 PUSH1 0x1E DUP4 PUSH2 0x1185 JUMP JUMPDEST SWAP2 POP PUSH2 0x141F DUP3 PUSH2 0x13DE JUMP JUMPDEST PUSH1 0x20 DUP3 ADD SWAP1 POP SWAP2 SWAP1 POP JUMP JUMPDEST PUSH1 0x0 PUSH1 0x20 DUP3 ADD SWAP1 POP DUP2 DUP2 SUB PUSH1 0x0 DUP4 ADD MSTORE PUSH2 0x1443 DUP2 PUSH2 0x1407 JUMP JUMPDEST SWAP1 POP SWAP2 SWAP1 POP JUMP JUMPDEST PUSH32 0x496E76616C696420457874726163746564206164647265737300000000000000 PUSH1 0x0 DUP3 ADD MSTORE POP JUMP JUMPDEST PUSH1 0x0 PUSH2 0x1480 PUSH1 0x19 DUP4 PUSH2 0x1185 JUMP JUMPDEST SWAP2 POP PUSH2 0x148B DUP3 PUSH2 0x144A JUMP JUMPDEST PUSH1 0x20 DUP3 ADD SWAP1 POP SWAP2 SWAP1 POP JUMP JUMPDEST PUSH1 0x0 PUSH1 0x20 DUP3 ADD SWAP1 POP DUP2 DUP2 SUB PUSH1 0x0 DUP4 ADD MSTORE PUSH2 0x14AF DUP2 PUSH2 0x1473 JUMP JUMPDEST SWAP1 POP SWAP2 SWAP1 POP JUMP JUMPDEST PUSH1 0x0 DUP2 MLOAD SWAP1 POP SWAP2 SWAP1 POP JUMP JUMPDEST PUSH32 0x4E487B7100000000000000000000000000000000000000000000000000000000 PUSH1 0x0 MSTORE PUSH1 0x22 PUSH1 0x4 MSTORE PUSH1 0x24 PUSH1 0x0 REVERT JUMPDEST PUSH1 0x0 PUSH1 0x2 DUP3 DIV SWAP1 POP PUSH1 0x1 DUP3 AND DUP1 PUSH2 0x1508 JUMPI PUSH1 0x7F DUP3 AND SWAP2 POP JUMPDEST PUSH1 0x20 DUP3 LT DUP2 SUB PUSH2 0x151B JUMPI PUSH2 0x151A PUSH2 0x14C1 JUMP JUMPDEST JUMPDEST POP SWAP2 SWAP1 POP JUMP JUMPDEST PUSH1 0x0 DUP2 SWAP1 POP DUP2 PUSH1 0x0 MSTORE PUSH1 0x20 PUSH1 0x0 KECCAK256 SWAP1 POP SWAP2 SWAP1 POP JUMP JUMPDEST PUSH1 0x0 PUSH1 0x20 PUSH1 0x1F DUP4 ADD DIV SWAP1 POP SWAP2 SWAP1 POP JUMP JUMPDEST PUSH1 0x0 DUP3 DUP3 SHL SWAP1 POP SWAP3 SWAP2 POP POP JUMP JUMPDEST PUSH1 0x0 PUSH1 0x8 DUP4 MUL PUSH2 0x1583 PUSH32 0xFFFFFFFFFFFFFFFFFFFFFFFFFFFFFFFFFFFFFFFFFFFFFFFFFFFFFFFFFFFFFFFF DUP3 PUSH2 0x1546 JUMP JUMPDEST PUSH2 0x158D DUP7 DUP4 PUSH2 0x1546 JUMP JUMPDEST SWAP6 POP DUP1 NOT DUP5 AND SWAP4 POP DUP1 DUP7 AND DUP5 OR SWAP3 POP POP POP SWAP4 SWAP3 POP POP POP JUMP JUMPDEST PUSH1 0x0 DUP2 SWAP1 POP SWAP2 SWAP1 POP JUMP JUMPDEST PUSH1 0x0 PUSH2 0x15CA PUSH2 0x15C5 PUSH2 0x15C0 DUP5 PUSH2 0xC61 JUMP JUMPDEST PUSH2 0x15A5 JUMP JUMPDEST PUSH2 0xC61 JUMP JUMPDEST SWAP1 POP SWAP2 SWAP1 POP JUMP JUMPDEST PUSH1 0x0 DUP2 SWAP1 POP SWAP2 SWAP1 POP JUMP JUMPDEST PUSH2 0x15E4 DUP4 PUSH2 0x15AF JUMP JUMPDEST PUSH2 0x15F8 PUSH2 0x15F0 DUP3 PUSH2 0x15D1 JUMP JUMPDEST DUP5 DUP5 SLOAD PUSH2 0x1553 JUMP JUMPDEST DUP3 SSTORE POP POP POP POP JUMP JUMPDEST PUSH1 0x0 SWAP1 JUMP JUMPDEST PUSH2 0x160D PUSH2 0x1600 JUMP JUMPDEST PUSH2 0x1618 DUP2 DUP5 DUP5 PUSH2 0x15DB JUMP JUMPDEST POP POP POP JUMP JUMPDEST JUMPDEST DUP2 DUP2 LT ISZERO PUSH2 0x163C JUMPI PUSH2 0x1631 PUSH1 0x0 DUP3 PUSH2 0x1605 JUMP JUMPDEST PUSH1 0x1 DUP2 ADD SWAP1 POP PUSH2 0x161E JUMP JUMPDEST POP POP JUMP JUMPDEST PUSH1 0x1F DUP3 GT ISZERO PUSH2 0x1681 JUMPI PUSH2 0x1652 DUP2 PUSH2 0x1521 JUMP JUMPDEST PUSH2 0x165B DUP5 PUSH2 0x1536 JUMP JUMPDEST DUP2 ADD PUSH1 0x20 DUP6 LT ISZERO PUSH2 0x166A JUMPI DUP2 SWAP1 POP JUMPDEST PUSH2 0x167E PUSH2 0x1676 DUP6 PUSH2 0x1536 JUMP JUMPDEST DUP4 ADD DUP3 PUSH2 0x161D JUMP JUMPDEST POP POP JUMPDEST POP POP POP JUMP JUMPDEST PUSH1 0x0 DUP3 DUP3 SHR SWAP1 POP SWAP3 SWAP2 POP POP JUMP JUMPDEST PUSH1 0x0 PUSH2 0x16A4 PUSH1 0x0 NOT DUP5 PUSH1 0x8 MUL PUSH2 0x1686 JUMP JUMPDEST NOT DUP1 DUP4 AND SWAP2 POP POP SWAP3 SWAP2 POP POP JUMP JUMPDEST PUSH1 0x0 PUSH2 0x16BD DUP4 DUP4 PUSH2 0x1693 JUMP JUMPDEST SWAP2 POP DUP3 PUSH1 0x2 MUL DUP3 OR SWAP1 POP SWAP3 SWAP2 POP POP JUMP JUMPDEST PUSH2 0x16D6 DUP3 PUSH2 0x14B6 JUMP JUMPDEST PUSH8 0xFFFFFFFFFFFFFFFF DUP2 GT ISZERO PUSH2 0x16EF JUMPI PUSH2 0x16EE PUSH2 0xF2C JUMP JUMPDEST JUMPDEST PUSH2 0x16F9 DUP3 SLOAD PUSH2 0x14F0 JUMP JUMPDEST PUSH2 0x1704 DUP3 DUP3 DUP6 PUSH2 0x1640 JUMP JUMPDEST PUSH1 0x0 PUSH1 0x20 SWAP1 POP PUSH1 0x1F DUP4 GT PUSH1 0x1 DUP2 EQ PUSH2 0x1737 JUMPI PUSH1 0x0 DUP5 ISZERO PUSH2 0x1725 JUMPI DUP3 DUP8 ADD MLOAD SWAP1 POP JUMPDEST PUSH2 0x172F DUP6 DUP3 PUSH2 0x16B1 JUMP JUMPDEST DUP7 SSTORE POP PUSH2 0x1797 JUMP JUMPDEST PUSH1 0x1F NOT DUP5 AND PUSH2 0x1745 DUP7 PUSH2 0x1521 JUMP JUMPDEST PUSH1 0x0 JUMPDEST DUP3 DUP2 LT ISZERO PUSH2 0x176D JUMPI DUP5 DUP10 ADD MLOAD DUP3 SSTORE PUSH1 0x1 DUP3 ADD SWAP2 POP PUSH1 0x20 DUP6 ADD SWAP5 POP PUSH1 0x20 DUP2 ADD SWAP1 POP PUSH2 0x1748 JUMP JUMPDEST DUP7 DUP4 LT ISZERO PUSH2 0x178A JUMPI DUP5 DUP10 ADD MLOAD PUSH2 0x1786 PUSH1 0x1F DUP10 AND DUP3 PUSH2 0x1693 JUMP JUMPDEST DUP4 SSTORE POP JUMPDEST PUSH1 0x1 PUSH1 0x2 DUP9 MUL ADD DUP9 SSTORE POP POP POP JUMPDEST POP POP POP POP POP POP JUMP JUMPDEST PUSH32 0x4E487B7100000000000000000000000000000000000000000000000000000000 PUSH1 0x0 MSTORE PUSH1 0x11 PUSH1 0x4 MSTORE PUSH1 0x24 PUSH1 0x0 REVERT JUMPDEST PUSH1 0x0 PUSH2 0x17D9 DUP3 PUSH2 0xC61 JUMP JUMPDEST SWAP2 POP PUSH2 0x17E4 DUP4 PUSH2 0xC61 JUMP JUMPDEST SWAP3 POP DUP3 DUP3 ADD SWAP1 POP DUP1 DUP3 GT ISZERO PUSH2 0x17FC JUMPI PUSH2 0x17FB PUSH2 0x179F JUMP JUMPDEST JUMPDEST SWAP3 SWAP2 POP POP JUMP JUMPDEST PUSH1 0x0 PUSH1 0x80 DUP3 ADD SWAP1 POP PUSH2 0x1817 PUSH1 0x0 DUP4 ADD DUP8 PUSH2 0x115B JUMP JUMPDEST PUSH2 0x1824 PUSH1 0x20 DUP4 ADD DUP7 PUSH2 0xEEC JUMP JUMPDEST PUSH2 0x1831 PUSH1 0x40 DUP4 ADD DUP6 PUSH2 0x115B JUMP JUMPDEST PUSH2 0x183E PUSH1 0x60 DUP4 ADD DUP5 PUSH2 0x115B JUMP JUMPDEST SWAP6 SWAP5 POP POP POP POP POP JUMP JUMPDEST PUSH32 0x53656E64657220697320696E76616C6964000000000000000000000000000000 PUSH1 0x0 DUP3 ADD MSTORE POP JUMP JUMPDEST PUSH1 0x0 PUSH2 0x187D PUSH1 0x11 DUP4 PUSH2 0x1185 JUMP JUMPDEST SWAP2 POP PUSH2 0x1888 DUP3 PUSH2 0x1847 JUMP JUMPDEST PUSH1 0x20 DUP3 ADD SWAP1 POP SWAP2 SWAP1 POP JUMP JUMPDEST PUSH1 0x0 PUSH1 0x20 DUP3 ADD SWAP1 POP DUP2 DUP2 SUB PUSH1 0x0 DUP4 ADD MSTORE PUSH2 0x18AC DUP2 PUSH2 0x1870 JUMP JUMPDEST SWAP1 POP SWAP2 SWAP1 POP JUMP JUMPDEST PUSH32 0x564320616C726561647920616374697661746564000000000000000000000000 PUSH1 0x0 DUP3 ADD MSTORE POP JUMP JUMPDEST PUSH1 0x0 PUSH2 0x18E9 PUSH1 0x14 DUP4 PUSH2 0x1185 JUMP JUMPDEST SWAP2 POP PUSH2 0x18F4 DUP3 PUSH2 0x18B3 JUMP JUMPDEST PUSH1 0x20 DUP3 ADD SWAP1 POP SWAP2 SWAP1 POP JUMP JUMPDEST PUSH1 0x0 PUSH1 0x20 DUP3 ADD SWAP1 POP DUP2 DUP2 SUB PUSH1 0x0 DUP4 ADD MSTORE PUSH2 0x1918 DUP2 PUSH2 0x18DC JUMP JUMPDEST SWAP1 POP SWAP2 SWAP1 POP JUMP JUMPDEST PUSH32 0x43616E6E6F742061637469766174652056433A20564320686173206578706972 PUSH1 0x0 DUP3 ADD MSTORE PUSH32 0x6564000000000000000000000000000000000000000000000000000000000000 PUSH1 0x20 DUP3 ADD MSTORE POP JUMP JUMPDEST PUSH1 0x0 PUSH2 0x197B PUSH1 0x22 DUP4 PUSH2 0x1185 JUMP JUMPDEST SWAP2 POP PUSH2 0x1986 DUP3 PUSH2 0x191F JUMP JUMPDEST PUSH1 0x40 DUP3 ADD SWAP1 POP SWAP2 SWAP1 POP JUMP JUMPDEST PUSH1 0x0 PUSH1 0x20 DUP3 ADD SWAP1 POP DUP2 DUP2 SUB PUSH1 0x0 DUP4 ADD MSTORE PUSH2 0x19AA DUP2 PUSH2 0x196E JUMP JUMPDEST SWAP1 POP SWAP2 SWAP1 POP JUMP JUMPDEST PUSH32 0x43616E6E6F742061637469766174652056433A2073656E646572206973206E6F PUSH1 0x0 DUP3 ADD MSTORE PUSH32 0x742077686F206578706374656400000000000000000000000000000000000000 PUSH1 0x20 DUP3 ADD MSTORE POP JUMP JUMPDEST PUSH1 0x0 PUSH2 0x1A0D PUSH1 0x2D DUP4 PUSH2 0x1185 JUMP JUMPDEST SWAP2 POP PUSH2 0x1A18 DUP3 PUSH2 0x19B1 JUMP JUMPDEST PUSH1 0x40 DUP3 ADD SWAP1 POP SWAP2 SWAP1 POP JUMP JUMPDEST PUSH1 0x0 PUSH1 0x20 DUP3 ADD SWAP1 POP DUP2 DUP2 SUB PUSH1 0x0 DUP4 ADD MSTORE PUSH2 0x1A3C DUP2 PUSH2 0x1A00 JUMP JUMPDEST SWAP1 POP SWAP2 SWAP1 POP JUMP JUMPDEST PUSH1 0x0 PUSH1 0x60 DUP3 ADD SWAP1 POP PUSH2 0x1A58 PUSH1 0x0 DUP4 ADD DUP7 PUSH2 0x115B JUMP JUMPDEST PUSH2 0x1A65 PUSH1 0x20 DUP4 ADD DUP6 PUSH2 0x115B JUMP JUMPDEST PUSH2 0x1A72 PUSH1 0x40 DUP4 ADD DUP5 PUSH2 0x115B JUMP JUMPDEST SWAP5 SWAP4 POP POP POP POP JUMP JUMPDEST PUSH32 0x696E76616C6964207369676E6174757265206C656E6774680000000000000000 PUSH1 0x0 DUP3 ADD MSTORE POP JUMP JUMPDEST PUSH1 0x0 PUSH2 0x1AB0 PUSH1 0x18 DUP4 PUSH2 0x1185 JUMP JUMPDEST SWAP2 POP PUSH2 0x1ABB DUP3 PUSH2 0x1A7A JUMP JUMPDEST PUSH1 0x20 DUP3 ADD SWAP1 POP SWAP2 SWAP1 POP JUMP JUMPDEST PUSH1 0x0 PUSH1 0x20 DUP3 ADD SWAP1 POP DUP2 DUP2 SUB PUSH1 0x0 DUP4 ADD MSTORE PUSH2 0x1ADF DUP2 PUSH2 0x1AA3 JUMP JUMPDEST SWAP1 POP SWAP2 SWAP1 POP JUMP JUMPDEST PUSH32 0x4F776E61626C653A206E6577206F776E657220697320746865207A65726F2061 PUSH1 0x0 DUP3 ADD MSTORE PUSH32 0x6464726573730000000000000000000000000000000000000000000000000000 PUSH1 0x20 DUP3 ADD MSTORE POP JUMP JUMPDEST PUSH1 0x0 PUSH2 0x1B42 PUSH1 0x26 DUP4 PUSH2 0x1185 JUMP JUMPDEST SWAP2 POP PUSH2 0x1B4D DUP3 PUSH2 0x1AE6 JUMP JUMPDEST PUSH1 0x40 DUP3 ADD SWAP1 POP SWAP2 SWAP1 POP JUMP JUMPDEST PUSH1 0x0 PUSH1 0x20 DUP3 ADD SWAP1 POP DUP2 DUP2 SUB PUSH1 0x0 DUP4 ADD MSTORE PUSH2 0x1B71 DUP2 PUSH2 0x1B35 JUMP JUMPDEST SWAP1 POP SWAP2 SWAP1 POP JUMP JUMPDEST PUSH32 0x4F776E61626C653A2063616C6C6572206973206E6F7420746865206F776E6572 PUSH1 0x0 DUP3 ADD MSTORE POP JUMP JUMPDEST PUSH1 0x0 PUSH2 0x1BAE PUSH1 0x20 DUP4 PUSH2 0x1185 JUMP JUMPDEST SWAP2 POP PUSH2 0x1BB9 DUP3 PUSH2 0x1B78 JUMP JUMPDEST PUSH1 0x20 DUP3 ADD SWAP1 POP SWAP2 SWAP1 POP JUMP JUMPDEST PUSH1 0x0 PUSH1 0x20 DUP3 ADD SWAP1 POP DUP2 DUP2 SUB PUSH1 0x0 DUP4 ADD MSTORE PUSH2 0x1BDD DUP2 PUSH2 0x1BA1 JUMP JUMPDEST SWAP1 POP SWAP2 SWAP1 POP JUMP JUMPDEST PUSH1 0x0 DUP2 SWAP1 POP SWAP3 SWAP2 POP POP JUMP JUMPDEST PUSH32 0x19457468657265756D205369676E6564204D6573736167653A0A333200000000 PUSH1 0x0 DUP3 ADD MSTORE POP JUMP JUMPDEST PUSH1 0x0 PUSH2 0x1C25 PUSH1 0x1C DUP4 PUSH2 0x1BE4 JUMP JUMPDEST SWAP2 POP PUSH2 0x1C30 DUP3 PUSH2 0x1BEF JUMP JUMPDEST PUSH1 0x1C DUP3 ADD SWAP1 POP SWAP2 SWAP1 POP JUMP JUMPDEST PUSH1 0x0 DUP2 SWAP1 POP SWAP2 SWAP1 POP JUMP JUMPDEST PUSH2 0x1C56 PUSH2 0x1C51 DUP3 PUSH2 0xDB5 JUMP JUMPDEST PUSH2 0x1C3B JUMP JUMPDEST DUP3 MSTORE POP POP JUMP JUMPDEST PUSH1 0x0 PUSH2 0x1C67 DUP3 PUSH2 0x1C18 JUMP JUMPDEST SWAP2 POP PUSH2 0x1C73 DUP3 DUP5 PUSH2 0x1C45 JUMP JUMPDEST PUSH1 0x20 DUP3 ADD SWAP2 POP DUP2 SWAP1 POP SWAP3 SWAP2 POP POP JUMP JUMPDEST PUSH1 0x0 PUSH1 0x80 DUP3 ADD SWAP1 POP PUSH2 0x1C97 PUSH1 0x0 DUP4 ADD DUP8 PUSH2 0x10A0 JUMP JUMPDEST PUSH2 0x1CA4 PUSH1 0x20 DUP4 ADD DUP7 PUSH2 0x10BC JUMP JUMPDEST PUSH2 0x1CB1 PUSH1 0x40 DUP4 ADD DUP6 PUSH2 0x10A0 JUMP JUMPDEST PUSH2 0x1CBE PUSH1 0x60 DUP4 ADD DUP5 PUSH2 0x10A0 JUMP JUMPDEST SWAP6 SWAP5 POP POP POP POP POP JUMP INVALID LOG2 PUSH5 0x6970667358 0x22 SLT KECCAK256 SHR 0x27 PUSH30 0xFF8D1762CE76DB53B08B8FA684AD52290FC816102C289298F515EAC4AE64 PUSH20 0x6F6C634300081200330000000000000000000000 "},"methodIdentifiers":{"activateVC(uint256)":"7d7afc31","getFreeVCid()":"f5d2fe8a","isVCActive(uint256)":"524e379d","isVCExpired(uint256)":"3f15b6b8","owner()":"8da5cb5b","renounceOwnership()":"715018a6","splitSignature(bytes)":"a7bb5803","transferOwnership(address)":"f2fde38b","validate_and_store_VC(uint256,bytes,string,uint256,uint256,bytes32)":"48d99c85"}}}}}