{"contracts/ERC20Base.sol":{"ERC20Base":{"abi":[{"anonymous":false,"inputs":[{"indexed":true,"internalType":"address","name":"owner","type":"address"},{"indexed":true,"internalType":"address","name":"spender","type":"address"},{"indexed":false,"internalType":"uint256","name":"value","type":"uint256"}],"name":"Approval","type":"event"},{"anonymous":false,"inputs":[{"indexed":false,"internalType":"bytes32","name":"exchangeID","type":"bytes32"},{"indexed":false,"internalType":"address","name":"owner","type":"address"},{"indexed":false,"internalType":"address","name":"fixedRateAddress","type":"address"}],"name":"FixedRateCreated","type":"event"},{"anonymous":false,"inputs":[{"indexed":false,"internalType":"uint8","name":"version","type":"uint8"}],"name":"Initialized","type":"event"},{"anonymous":false,"inputs":[{"indexed":false,"internalType":"string","name":"name","type":"string"},{"indexed":false,"internalType":"string","name":"symbol","type":"string"},{"indexed":false,"internalType":"address","name":"owner","type":"address"},{"indexed":false,"internalType":"address","name":"erc721address","type":"address"},{"indexed":false,"internalType":"address","name":"router","type":"address"}],"name":"InitializedDT","type":"event"},{"anonymous":false,"inputs":[{"indexed":false,"internalType":"address","name":"recoveredAddress","type":"address"},{"indexed":false,"internalType":"address","name":"owner","type":"address"},{"indexed":false,"internalType":"address","name":"spender","type":"address"},{"indexed":false,"internalType":"uint256","name":"amount","type":"uint256"}],"name":"Permit","type":"event"},{"anonymous":false,"inputs":[{"indexed":false,"internalType":"bytes32","name":"domain_separator","type":"bytes32"},{"indexed":false,"internalType":"bytes32","name":"permit_gasg","type":"bytes32"},{"indexed":false,"internalType":"bytes32","name":"digest","type":"bytes32"}],"name":"PermitData","type":"event"},{"anonymous":false,"inputs":[{"indexed":true,"internalType":"address","name":"from","type":"address"},{"indexed":true,"internalType":"address","name":"to","type":"address"},{"indexed":false,"internalType":"uint256","name":"value","type":"uint256"}],"name":"Transfer","type":"event"},{"stateMutability":"payable","type":"fallback"},{"inputs":[{"internalType":"address","name":"owner","type":"address"},{"internalType":"address","name":"spender","type":"address"},{"internalType":"uint256","name":"amount","type":"uint256"}],"name":"allInOne_approve","outputs":[],"stateMutability":"nonpayable","type":"function"},{"inputs":[{"internalType":"address","name":"owner","type":"address"},{"internalType":"address","name":"spender","type":"address"}],"name":"allowance","outputs":[{"internalType":"uint256","name":"","type":"uint256"}],"stateMutability":"view","type":"function"},{"inputs":[{"internalType":"address","name":"spender","type":"address"},{"internalType":"uint256","name":"amount","type":"uint256"}],"name":"approve","outputs":[{"internalType":"bool","name":"","type":"bool"}],"stateMutability":"nonpayable","type":"function"},{"inputs":[{"internalType":"address","name":"caller","type":"address"}],"name":"balanceOf","outputs":[{"internalType":"uint256","name":"","type":"uint256"}],"stateMutability":"view","type":"function"},{"inputs":[{"internalType":"uint256","name":"amount","type":"uint256"}],"name":"burn","outputs":[],"stateMutability":"nonpayable","type":"function"},{"inputs":[{"internalType":"address","name":"fixedRateAddress_","type":"address"},{"internalType":"uint256","name":"fixedrate_","type":"uint256"},{"internalType":"uint256","name":"giveMintPerm_toExchange","type":"uint256"}],"name":"createFixedRate","outputs":[{"internalType":"bytes32","name":"exchangeID","type":"bytes32"}],"stateMutability":"nonpayable","type":"function"},{"inputs":[],"name":"decimals","outputs":[{"internalType":"uint8","name":"","type":"uint8"}],"stateMutability":"view","type":"function"},{"inputs":[{"internalType":"address","name":"spender","type":"address"},{"internalType":"uint256","name":"subtractedValue","type":"uint256"}],"name":"decreaseAllowance","outputs":[{"internalType":"bool","name":"","type":"bool"}],"stateMutability":"nonpayable","type":"function"},{"inputs":[],"name":"getDTowner","outputs":[{"internalType":"address","name":"","type":"address"}],"stateMutability":"view","type":"function"},{"inputs":[],"name":"getMaxSupply","outputs":[{"internalType":"uint256","name":"","type":"uint256"}],"stateMutability":"view","type":"function"},{"inputs":[{"internalType":"address","name":"spender","type":"address"},{"internalType":"uint256","name":"addedValue","type":"uint256"}],"name":"increaseAllowance","outputs":[{"internalType":"bool","name":"","type":"bool"}],"stateMutability":"nonpayable","type":"function"},{"inputs":[{"internalType":"string","name":"name_","type":"string"},{"internalType":"string","name":"symbol_","type":"string"},{"internalType":"address","name":"owner_","type":"address"},{"internalType":"address","name":"erc721address_","type":"address"},{"internalType":"address","name":"router_","type":"address"},{"internalType":"address","name":"factory_","type":"address"},{"internalType":"uint256","name":"maxSupply_","type":"uint256"}],"name":"initialize","outputs":[{"internalType":"bool","name":"","type":"bool"}],"stateMutability":"nonpayable","type":"function"},{"inputs":[{"internalType":"address","name":"isminter","type":"address"}],"name":"isMinter","outputs":[{"internalType":"bool","name":"","type":"bool"}],"stateMutability":"view","type":"function"},{"inputs":[{"internalType":"address","name":"to","type":"address"},{"internalType":"uint256","name":"amount","type":"uint256"}],"name":"mint","outputs":[],"stateMutability":"nonpayable","type":"function"},{"inputs":[],"name":"name","outputs":[{"internalType":"string","name":"","type":"string"}],"stateMutability":"view","type":"function"},{"inputs":[{"internalType":"address","name":"requester","type":"address"}],"name":"nonces","outputs":[{"internalType":"uint256","name":"","type":"uint256"}],"stateMutability":"view","type":"function"},{"inputs":[{"internalType":"address","name":"","type":"address"}],"name":"nonces_","outputs":[{"internalType":"uint256","name":"","type":"uint256"}],"stateMutability":"view","type":"function"},{"inputs":[{"internalType":"address","name":"owner","type":"address"},{"internalType":"address","name":"spender","type":"address"},{"internalType":"uint256","name":"value","type":"uint256"},{"internalType":"uint256","name":"deadline","type":"uint256"},{"internalType":"uint8","name":"v","type":"uint8"},{"internalType":"bytes32","name":"r","type":"bytes32"},{"internalType":"bytes32","name":"s","type":"bytes32"}],"name":"permit","outputs":[],"stateMutability":"nonpayable","type":"function"},{"inputs":[],"name":"symbol","outputs":[{"internalType":"string","name":"","type":"string"}],"stateMutability":"view","type":"function"},{"inputs":[],"name":"totalSupply","outputs":[{"internalType":"uint256","name":"","type":"uint256"}],"stateMutability":"view","type":"function"},{"inputs":[{"internalType":"address","name":"to","type":"address"},{"internalType":"uint256","name":"amount","type":"uint256"}],"name":"transfer","outputs":[{"internalType":"bool","name":"","type":"bool"}],"stateMutability":"nonpayable","type":"function"},{"inputs":[{"internalType":"address","name":"from","type":"address"},{"internalType":"address","name":"to","type":"address"},{"internalType":"uint256","name":"amount","type":"uint256"}],"name":"transferFrom","outputs":[{"internalType":"bool","name":"","type":"bool"}],"stateMutability":"nonpayable","type":"function"},{"inputs":[],"name":"withdraw","outputs":[],"stateMutability":"nonpayable","type":"function"},{"stateMutability":"payable","type":"receive"}],"evm":{"bytecode":{"linkReferences":{},"object":"608060405234801561001057600080fd5b506140e5806100206000396000f3fe6080604052600436106101445760003560e01c806370a08231116100b6578063a457c2d71161006f578063a457c2d71461049e578063a9059cbb146104db578063aa271e1a14610518578063b91fad9314610555578063d505accf14610580578063dd62ed3e146105a95761014b565b806370a082311461035657806373c84f74146103935780637d6c32c1146103d05780637ecebe00146103f957806395d89b411461043657806397fc1a8a146104615761014b565b8063313ce56711610108578063313ce5671461025a57806339509351146102855780633ccfd60b146102c257806340c10f19146102d957806342966c68146103025780634c0f38c21461032b5761014b565b806306fdde031461014d578063095ea7b31461017857806318160ddd146101b557806323b872dd146101e0578063276afcae1461021d5761014b565b3661014b57005b005b34801561015957600080fd5b506101626105e6565b60405161016f919061254e565b60405180910390f35b34801561018457600080fd5b5061019f600480360381019061019a9190612618565b610678565b6040516101ac9190612673565b60405180910390f35b3480156101c157600080fd5b506101ca61069b565b6040516101d7919061269d565b60405180910390f35b3480156101ec57600080fd5b50610207600480360381019061020291906126b8565b6106a5565b6040516102149190612673565b60405180910390f35b34801561022957600080fd5b50610244600480360381019061023f919061270b565b6106bb565b6040516102519190612777565b60405180910390f35b34801561026657600080fd5b5061026f610908565b60405161027c91906127ae565b60405180910390f35b34801561029157600080fd5b506102ac60048036038101906102a79190612618565b610911565b6040516102b99190612673565b60405180910390f35b3480156102ce57600080fd5b506102d7610948565b005b3480156102e557600080fd5b5061030060048036038101906102fb9190612618565b610a94565b005b34801561030e57600080fd5b50610329600480360381019061032491906127c9565b610ba0565b005b34801561033757600080fd5b50610340610c3d565b60405161034d919061269d565b60405180910390f35b34801561036257600080fd5b5061037d600480360381019061037891906127f6565b610c47565b60405161038a919061269d565b60405180910390f35b34801561039f57600080fd5b506103ba60048036038101906103b591906127f6565b610c59565b6040516103c7919061269d565b60405180910390f35b3480156103dc57600080fd5b506103f760048036038101906103f291906126b8565b610c71565b005b34801561040557600080fd5b50610420600480360381019061041b91906127f6565b610cdb565b60405161042d919061269d565b60405180910390f35b34801561044257600080fd5b5061044b610d24565b604051610458919061254e565b60405180910390f35b34801561046d57600080fd5b5061048860048036038101906104839190612958565b610db6565b6040516104959190612673565b60405180910390f35b3480156104aa57600080fd5b506104c560048036038101906104c09190612618565b611383565b6040516104d29190612673565b60405180910390f35b3480156104e757600080fd5b5061050260048036038101906104fd9190612618565b6113fa565b60405161050f9190612673565b60405180910390f35b34801561052457600080fd5b5061053f600480360381019061053a91906127f6565b61141d565b60405161054c9190612673565b60405180910390f35b34801561056157600080fd5b5061056a61142f565b6040516105779190612a41565b60405180910390f35b34801561058c57600080fd5b506105a760048036038101906105a29190612ab4565b611459565b005b3480156105b557600080fd5b506105d060048036038101906105cb9190612b56565b6118e5565b6040516105dd919061269d565b60405180910390f35b6060603680546105f590612bc5565b80601f016020809104026020016040519081016040528092919081815260200182805461062190612bc5565b801561066e5780601f106106435761010080835404028352916020019161066e565b820191906000526020600020905b81548152906001019060200180831161065157829003601f168201915b5050505050905090565b6000806106836118f9565b9050610690818585611901565b600191505092915050565b6000603554905090565b60006106b2848484611aca565b90509392505050565b6000606760009054906101000a900473ffffffffffffffffffffffffffffffffffffffff1673ffffffffffffffffffffffffffffffffffffffff163373ffffffffffffffffffffffffffffffffffffffff161461071757600080fd5b600082111561072a5761072984611af9565b5b606860009054906101000a900473ffffffffffffffffffffffffffffffffffffffff1673ffffffffffffffffffffffffffffffffffffffff166346ab8f0f85606760009054906101000a900473ffffffffffffffffffffffffffffffffffffffff1686610795610908565b876040518663ffffffff1660e01b81526004016107b6959493929190612c31565b6020604051808303816000875af11580156107d5573d6000803e3d6000fd5b505050506040513d601f19601f820116820180604052508101906107f99190612c99565b90507fa5415cb405d73f33b4e7cf3e0d085db931472bb48e0423947ad575a31fa2f51e81606760009054906101000a900473ffffffffffffffffffffffffffffffffffffffff168660405161085093929190612cc6565b60405180910390a1606c60405180604001604052808673ffffffffffffffffffffffffffffffffffffffff16815260200183815250908060018154018082558091505060019003906000526020600020906002020160009091909190915060008201518160000160006101000a81548173ffffffffffffffffffffffffffffffffffffffff021916908373ffffffffffffffffffffffffffffffffffffffff1602179055506020820151816001015550509392505050565b60006012905090565b60008061091c6118f9565b905061093d81858561092e85896118e5565b6109389190612d2c565b611901565b600191505092915050565b606760009054906101000a900473ffffffffffffffffffffffffffffffffffffffff1673ffffffffffffffffffffffffffffffffffffffff163373ffffffffffffffffffffffffffffffffffffffff16146109a257600080fd5b600047116109e5576040517f08c379a00000000000000000000000000000000000000000000000000000000081526004016109dc90612dac565b60405180910390fd5b60003373ffffffffffffffffffffffffffffffffffffffff1647604051610a0b90612dfd565b60006040518083038185875af1925050503d8060008114610a48576040519150601f19603f3d011682016040523d82523d6000602084013e610a4d565b606091505b5050905080610a91576040517f08c379a0000000000000000000000000000000000000000000000000000000008152600401610a8890612e5e565b60405180910390fd5b50565b606760009054906101000a900473ffffffffffffffffffffffffffffffffffffffff1673ffffffffffffffffffffffffffffffffffffffff163373ffffffffffffffffffffffffffffffffffffffff161480610af55750610af433611b54565b5b610b34576040517f08c379a0000000000000000000000000000000000000000000000000000000008152600401610b2b90612eca565b60405180910390fd5b606954610b5182610b4361069b565b611baa90919063ffffffff16565b1115610b92576040517f08c379a0000000000000000000000000000000000000000000000000000000008152600401610b8990612f36565b60405180910390fd5b610b9c8282611bc0565b5050565b606760009054906101000a900473ffffffffffffffffffffffffffffffffffffffff1673ffffffffffffffffffffffffffffffffffffffff163373ffffffffffffffffffffffffffffffffffffffff1614610c30576040517f08c379a0000000000000000000000000000000000000000000000000000000008152600401610c2790612fa2565b60405180910390fd5b610c3a3382611d17565b50565b6000606954905090565b6000610c5282611ee6565b9050919050565b606b6020528060005260406000206000915090505481565b606560009054906101000a900473ffffffffffffffffffffffffffffffffffffffff1673ffffffffffffffffffffffffffffffffffffffff163373ffffffffffffffffffffffffffffffffffffffff1614610ccb57600080fd5b610cd6838383611901565b505050565b6000606b60008373ffffffffffffffffffffffffffffffffffffffff1673ffffffffffffffffffffffffffffffffffffffff168152602001908152602001600020549050919050565b606060378054610d3390612bc5565b80601f0160208091040260200160405190810160405280929190818152602001828054610d5f90612bc5565b8015610dac5780601f10610d8157610100808354040283529160200191610dac565b820191906000526020600020905b815481529060010190602001808311610d8f57829003601f168201915b5050505050905090565b600080600060019054906101000a900460ff16159050808015610de95750600160008054906101000a900460ff1660ff16105b80610e165750610df830611f2f565b158015610e155750600160008054906101000a900460ff1660ff16145b5b610e55576040517f08c379a0000000000000000000000000000000000000000000000000000000008152600401610e4c90613034565b60405180910390fd5b60016000806101000a81548160ff021916908360ff1602179055508015610e92576001600060016101000a81548160ff0219169083151502179055505b600073ffffffffffffffffffffffffffffffffffffffff168773ffffffffffffffffffffffffffffffffffffffff1603610f01576040517f08c379a0000000000000000000000000000000000000000000000000000000008152600401610ef8906130a0565b60405180910390fd5b8573ffffffffffffffffffffffffffffffffffffffff16635245f3bd6040518163ffffffff1660e01b8152600401602060405180830381865afa158015610f4c573d6000803e3d6000fd5b505050506040513d601f19601f82011682018060405250810190610f7091906130d5565b73ffffffffffffffffffffffffffffffffffffffff168773ffffffffffffffffffffffffffffffffffffffff1614610fdd576040517f08c379a0000000000000000000000000000000000000000000000000000000008152600401610fd49061314e565b60405180910390fd5b600073ffffffffffffffffffffffffffffffffffffffff168673ffffffffffffffffffffffffffffffffffffffff160361104c576040517f08c379a0000000000000000000000000000000000000000000000000000000008152600401611043906131e0565b60405180910390fd5b600073ffffffffffffffffffffffffffffffffffffffff168573ffffffffffffffffffffffffffffffffffffffff16036110bb576040517f08c379a00000000000000000000000000000000000000000000000000000000081526004016110b290613272565b60405180910390fd5b600083116110fe576040517f08c379a00000000000000000000000000000000000000000000000000000000081526004016110f5906132de565b60405180910390fd5b6111088989611f52565b85606660006101000a81548173ffffffffffffffffffffffffffffffffffffffff021916908373ffffffffffffffffffffffffffffffffffffffff16021790555086606760006101000a81548173ffffffffffffffffffffffffffffffffffffffff021916908373ffffffffffffffffffffffffffffffffffffffff16021790555084606860006101000a81548173ffffffffffffffffffffffffffffffffffffffff021916908373ffffffffffffffffffffffffffffffffffffffff16021790555083606560006101000a81548173ffffffffffffffffffffffffffffffffffffffff021916908373ffffffffffffffffffffffffffffffffffffffff160217905550826069819055506000606b6000606760009054906101000a900473ffffffffffffffffffffffffffffffffffffffff1673ffffffffffffffffffffffffffffffffffffffff1673ffffffffffffffffffffffffffffffffffffffff1681526020019081526020016000208190555061128384611af9565b61128e87600a610a94565b61129784611faf565b7fe05608333682ec730412d68c753da81c47ae10d62539bb241e9e882dca8311d7898989606660009054906101000a900473ffffffffffffffffffffffffffffffffffffffff16606860009054906101000a900473ffffffffffffffffffffffffffffffffffffffff166040516113129594939291906132fe565b60405180910390a16001915080156113775760008060016101000a81548160ff0219169083151502179055507f7f26b83ff96e1f2b6a682f133852f6798a09c465da95921460cefb3847402498600160405161136e919061339a565b60405180910390a15b50979650505050505050565b60008061138e6118f9565b9050600061139c82866118e5565b9050838110156113e1576040517f08c379a00000000000000000000000000000000000000000000000000000000081526004016113d890613427565b60405180910390fd5b6113ee8286868403611901565b60019250505092915050565b6000806114056118f9565b905061141281858561200a565b600191505092915050565b600061142882611b54565b9050919050565b6000606760009054906101000a900473ffffffffffffffffffffffffffffffffffffffff16905090565b4384101561149c576040517f08c379a000000000000000000000000000000000000000000000000000000000815260040161149390613493565b60405180910390fd5b606660009054906101000a900473ffffffffffffffffffffffffffffffffffffffff1673ffffffffffffffffffffffffffffffffffffffff16635245f3bd6040518163ffffffff1660e01b8152600401602060405180830381865afa158015611509573d6000803e3d6000fd5b505050506040513d601f19601f8201168201806040525081019061152d91906130d5565b73ffffffffffffffffffffffffffffffffffffffff168773ffffffffffffffffffffffffffffffffffffffff161461159a576040517f08c379a0000000000000000000000000000000000000000000000000000000008152600401611591906134ff565b60405180910390fd5b600085116115dd576040517f08c379a00000000000000000000000000000000000000000000000000000000081526004016115d49061356b565b60405180910390fd5b6000606b60008973ffffffffffffffffffffffffffffffffffffffff1673ffffffffffffffffffffffffffffffffffffffff168152602001908152602001600020549050600061162b612283565b905060007f6e71edae12b1b97f4d1f60370fef10105fa2faae0126114a169c64845d6126c98a8a8a868b60405160200161166a9695949392919061358b565b60405160208183030381529060405280519060200120905060008282604051602001611697929190613664565b6040516020818303038152906040528051906020012090506001606b60008d73ffffffffffffffffffffffffffffffffffffffff1673ffffffffffffffffffffffffffffffffffffffff16815260200190815260200160002060008282546116ff9190612d2c565b925050819055506001846117139190612d2c565b606b60008d73ffffffffffffffffffffffffffffffffffffffff1673ffffffffffffffffffffffffffffffffffffffff1681526020019081526020016000205414611793576040517f08c379a000000000000000000000000000000000000000000000000000000000815260040161178a9061370d565b60405180910390fd5b6000600182898989604051600081526020016040526040516117b8949392919061372d565b6020604051602081039080840390855afa1580156117da573d6000803e3d6000fd5b5050506020604051035190508b73ffffffffffffffffffffffffffffffffffffffff168173ffffffffffffffffffffffffffffffffffffffff1614611854576040517f08c379a000000000000000000000000000000000000000000000000000000000815260040161184b906137e4565b60405180910390fd5b7f2581d87b6bf92e55acc084919bd802bffec94ecd89b97547f0c868f7247f2044818d8d8d6040516118899493929190613804565b60405180910390a17f1d532894f4a91efabd8760a33513b6dffbeeb81351269a70d1c35c540caa5c8a8484846040516118c493929190613849565b60405180910390a16118d78c8c8c611901565b505050505050505050505050565b60006118f1838361232e565b905092915050565b600033905090565b600073ffffffffffffffffffffffffffffffffffffffff168373ffffffffffffffffffffffffffffffffffffffff1603611970576040517f08c379a0000000000000000000000000000000000000000000000000000000008152600401611967906138f2565b60405180910390fd5b600073ffffffffffffffffffffffffffffffffffffffff168273ffffffffffffffffffffffffffffffffffffffff16036119df576040517f08c379a00000000000000000000000000000000000000000000000000000000081526004016119d690613984565b60405180910390fd5b80603460008573ffffffffffffffffffffffffffffffffffffffff1673ffffffffffffffffffffffffffffffffffffffff16815260200190815260200160002060008473ffffffffffffffffffffffffffffffffffffffff1673ffffffffffffffffffffffffffffffffffffffff168152602001908152602001600020819055508173ffffffffffffffffffffffffffffffffffffffff168373ffffffffffffffffffffffffffffffffffffffff167f8c5be1e5ebec7d5bd14f71427d1e84f3dd0314c0f7b2291e5b200ac8c7c3b92583604051611abd919061269d565b60405180910390a3505050565b600080611ad56118f9565b9050611ae28582856123b5565b611aed85858561200a565b60019150509392505050565b6001606a60008373ffffffffffffffffffffffffffffffffffffffff1673ffffffffffffffffffffffffffffffffffffffff16815260200190815260200160002060006101000a81548160ff02191690831515021790555050565b6000606a60008373ffffffffffffffffffffffffffffffffffffffff1673ffffffffffffffffffffffffffffffffffffffff16815260200190815260200160002060009054906101000a900460ff169050919050565b60008183611bb89190612d2c565b905092915050565b600073ffffffffffffffffffffffffffffffffffffffff168273ffffffffffffffffffffffffffffffffffffffff1603611c2f576040517f08c379a0000000000000000000000000000000000000000000000000000000008152600401611c26906139f0565b60405180910390fd5b611c3b60008383612441565b8060356000828254611c4d9190612d2c565b9250508190555080603360008473ffffffffffffffffffffffffffffffffffffffff1673ffffffffffffffffffffffffffffffffffffffff168152602001908152602001600020600082825401925050819055508173ffffffffffffffffffffffffffffffffffffffff16600073ffffffffffffffffffffffffffffffffffffffff167fddf252ad1be2c89b69c2b068fc378daa952ba7f163c4a11628f55a4df523b3ef83604051611cff919061269d565b60405180910390a3611d1360008383612446565b5050565b600073ffffffffffffffffffffffffffffffffffffffff168273ffffffffffffffffffffffffffffffffffffffff1603611d86576040517f08c379a0000000000000000000000000000000000000000000000000000000008152600401611d7d90613a82565b60405180910390fd5b611d9282600083612441565b6000603360008473ffffffffffffffffffffffffffffffffffffffff1673ffffffffffffffffffffffffffffffffffffffff16815260200190815260200160002054905081811015611e19576040517f08c379a0000000000000000000000000000000000000000000000000000000008152600401611e1090613b14565b60405180910390fd5b818103603360008573ffffffffffffffffffffffffffffffffffffffff1673ffffffffffffffffffffffffffffffffffffffff1681526020019081526020016000208190555081603560008282540392505081905550600073ffffffffffffffffffffffffffffffffffffffff168373ffffffffffffffffffffffffffffffffffffffff167fddf252ad1be2c89b69c2b068fc378daa952ba7f163c4a11628f55a4df523b3ef84604051611ecd919061269d565b60405180910390a3611ee183600084612446565b505050565b6000603360008373ffffffffffffffffffffffffffffffffffffffff1673ffffffffffffffffffffffffffffffffffffffff168152602001908152602001600020549050919050565b6000808273ffffffffffffffffffffffffffffffffffffffff163b119050919050565b600060019054906101000a900460ff16611fa1576040517f08c379a0000000000000000000000000000000000000000000000000000000008152600401611f9890613ba6565b60405180910390fd5b611fab828261244b565b5050565b6000606a60008373ffffffffffffffffffffffffffffffffffffffff1673ffffffffffffffffffffffffffffffffffffffff16815260200190815260200160002060006101000a81548160ff02191690831515021790555050565b600073ffffffffffffffffffffffffffffffffffffffff168373ffffffffffffffffffffffffffffffffffffffff1603612079576040517f08c379a000000000000000000000000000000000000000000000000000000000815260040161207090613c38565b60405180910390fd5b600073ffffffffffffffffffffffffffffffffffffffff168273ffffffffffffffffffffffffffffffffffffffff16036120e8576040517f08c379a00000000000000000000000000000000000000000000000000000000081526004016120df90613cca565b60405180910390fd5b6120f3838383612441565b6000603360008573ffffffffffffffffffffffffffffffffffffffff1673ffffffffffffffffffffffffffffffffffffffff1681526020019081526020016000205490508181101561217a576040517f08c379a000000000000000000000000000000000000000000000000000000000815260040161217190613d5c565b60405180910390fd5b818103603360008673ffffffffffffffffffffffffffffffffffffffff1673ffffffffffffffffffffffffffffffffffffffff1681526020019081526020016000208190555081603360008573ffffffffffffffffffffffffffffffffffffffff1673ffffffffffffffffffffffffffffffffffffffff168152602001908152602001600020600082825401925050819055508273ffffffffffffffffffffffffffffffffffffffff168473ffffffffffffffffffffffffffffffffffffffff167fddf252ad1be2c89b69c2b068fc378daa952ba7f163c4a11628f55a4df523b3ef8460405161226a919061269d565b60405180910390a361227d848484612446565b50505050565b60008046905060007f8b73c3c69bb8fe3d512ecc4cf759cc79239f7b179b0ffacaa9a75d522b39400f6122b46105e6565b805190602001206040518060400160405280600181526020017f310000000000000000000000000000000000000000000000000000000000000081525080519060200120843060405160200161230e959493929190613d7c565b604051602081830303815290604052805190602001209050809250505090565b6000603460008473ffffffffffffffffffffffffffffffffffffffff1673ffffffffffffffffffffffffffffffffffffffff16815260200190815260200160002060008373ffffffffffffffffffffffffffffffffffffffff1673ffffffffffffffffffffffffffffffffffffffff16815260200190815260200160002054905092915050565b60006123c184846118e5565b90507fffffffffffffffffffffffffffffffffffffffffffffffffffffffffffffffff811461243b578181101561242d576040517f08c379a000000000000000000000000000000000000000000000000000000000815260040161242490613e1b565b60405180910390fd5b61243a8484848403611901565b5b50505050565b505050565b505050565b600060019054906101000a900460ff1661249a576040517f08c379a000000000000000000000000000000000000000000000000000000000815260040161249190613ba6565b60405180910390fd5b81603690816124a99190613fdd565b5080603790816124b99190613fdd565b505050565b600081519050919050565b600082825260208201905092915050565b60005b838110156124f85780820151818401526020810190506124dd565b60008484015250505050565b6000601f19601f8301169050919050565b6000612520826124be565b61252a81856124c9565b935061253a8185602086016124da565b61254381612504565b840191505092915050565b600060208201905081810360008301526125688184612515565b905092915050565b6000604051905090565b600080fd5b600080fd5b600073ffffffffffffffffffffffffffffffffffffffff82169050919050565b60006125af82612584565b9050919050565b6125bf816125a4565b81146125ca57600080fd5b50565b6000813590506125dc816125b6565b92915050565b6000819050919050565b6125f5816125e2565b811461260057600080fd5b50565b600081359050612612816125ec565b92915050565b6000806040838503121561262f5761262e61257a565b5b600061263d858286016125cd565b925050602061264e85828601612603565b9150509250929050565b60008115159050919050565b61266d81612658565b82525050565b60006020820190506126886000830184612664565b92915050565b612697816125e2565b82525050565b60006020820190506126b2600083018461268e565b92915050565b6000806000606084860312156126d1576126d061257a565b5b60006126df868287016125cd565b93505060206126f0868287016125cd565b925050604061270186828701612603565b9150509250925092565b6000806000606084860312156127245761272361257a565b5b6000612732868287016125cd565b935050602061274386828701612603565b925050604061275486828701612603565b9150509250925092565b6000819050919050565b6127718161275e565b82525050565b600060208201905061278c6000830184612768565b92915050565b600060ff82169050919050565b6127a881612792565b82525050565b60006020820190506127c3600083018461279f565b92915050565b6000602082840312156127df576127de61257a565b5b60006127ed84828501612603565b91505092915050565b60006020828403121561280c5761280b61257a565b5b600061281a848285016125cd565b91505092915050565b600080fd5b600080fd5b7f4e487b7100000000000000000000000000000000000000000000000000000000600052604160045260246000fd5b61286582612504565b810181811067ffffffffffffffff821117156128845761288361282d565b5b80604052505050565b6000612897612570565b90506128a3828261285c565b919050565b600067ffffffffffffffff8211156128c3576128c261282d565b5b6128cc82612504565b9050602081019050919050565b82818337600083830152505050565b60006128fb6128f6846128a8565b61288d565b90508281526020810184848401111561291757612916612828565b5b6129228482856128d9565b509392505050565b600082601f83011261293f5761293e612823565b5b813561294f8482602086016128e8565b91505092915050565b600080600080600080600060e0888a0312156129775761297661257a565b5b600088013567ffffffffffffffff8111156129955761299461257f565b5b6129a18a828b0161292a565b975050602088013567ffffffffffffffff8111156129c2576129c161257f565b5b6129ce8a828b0161292a565b96505060406129df8a828b016125cd565b95505060606129f08a828b016125cd565b9450506080612a018a828b016125cd565b93505060a0612a128a828b016125cd565b92505060c0612a238a828b01612603565b91505092959891949750929550565b612a3b816125a4565b82525050565b6000602082019050612a566000830184612a32565b92915050565b612a6581612792565b8114612a7057600080fd5b50565b600081359050612a8281612a5c565b92915050565b612a918161275e565b8114612a9c57600080fd5b50565b600081359050612aae81612a88565b92915050565b600080600080600080600060e0888a031215612ad357612ad261257a565b5b6000612ae18a828b016125cd565b9750506020612af28a828b016125cd565b9650506040612b038a828b01612603565b9550506060612b148a828b01612603565b9450506080612b258a828b01612a73565b93505060a0612b368a828b01612a9f565b92505060c0612b478a828b01612a9f565b91505092959891949750929550565b60008060408385031215612b6d57612b6c61257a565b5b6000612b7b858286016125cd565b9250506020612b8c858286016125cd565b9150509250929050565b7f4e487b7100000000000000000000000000000000000000000000000000000000600052602260045260246000fd5b60006002820490506001821680612bdd57607f821691505b602082108103612bf057612bef612b96565b5b50919050565b6000819050919050565b6000612c1b612c16612c1184612792565b612bf6565b6125e2565b9050919050565b612c2b81612c00565b82525050565b600060a082019050612c466000830188612a32565b612c536020830187612a32565b612c60604083018661268e565b612c6d6060830185612c22565b612c7a608083018461268e565b9695505050505050565b600081519050612c9381612a88565b92915050565b600060208284031215612caf57612cae61257a565b5b6000612cbd84828501612c84565b91505092915050565b6000606082019050612cdb6000830186612768565b612ce86020830185612a32565b612cf56040830184612a32565b949350505050565b7f4e487b7100000000000000000000000000000000000000000000000000000000600052601160045260246000fd5b6000612d37826125e2565b9150612d42836125e2565b9250828201905080821115612d5a57612d59612cfd565b5b92915050565b7f4e6f2062616c616e636520746f20776974686472617700000000000000000000600082015250565b6000612d966016836124c9565b9150612da182612d60565b602082019050919050565b60006020820190508181036000830152612dc581612d89565b9050919050565b600081905092915050565b50565b6000612de7600083612dcc565b9150612df282612dd7565b600082019050919050565b6000612e0882612dda565b9150819050919050565b7f4661696c656420746f2077697468647261770000000000000000000000000000600082015250565b6000612e486012836124c9565b9150612e5382612e12565b602082019050919050565b60006020820190508181036000830152612e7781612e3b565b9050919050565b7f4e4f5420414c4c4f57454420544f204d494e5420445473000000000000000000600082015250565b6000612eb46017836124c9565b9150612ebf82612e7e565b602082019050919050565b60006020820190508181036000830152612ee381612ea7565b9050919050565b7f43616e6e6f742065786365656420746865206361700000000000000000000000600082015250565b6000612f206015836124c9565b9150612f2b82612eea565b602082019050919050565b60006020820190508181036000830152612f4f81612f13565b9050919050565b7f4e4f5420414c4c4f57454420544f204255524e00000000000000000000000000600082015250565b6000612f8c6013836124c9565b9150612f9782612f56565b602082019050919050565b60006020820190508181036000830152612fbb81612f7f565b9050919050565b7f496e697469616c697a61626c653a20636f6e747261637420697320616c72656160008201527f647920696e697469616c697a6564000000000000000000000000000000000000602082015250565b600061301e602e836124c9565b915061302982612fc2565b604082019050919050565b6000602082019050818103600083015261304d81613011565b9050919050565b7f4d696e7465722063616e6e6f7420626520307830302100000000000000000000600082015250565b600061308a6016836124c9565b915061309582613054565b602082019050919050565b600060208201905081810360008301526130b98161307d565b9050919050565b6000815190506130cf816125b6565b92915050565b6000602082840312156130eb576130ea61257a565b5b60006130f9848285016130c0565b91505092915050565b7f4e4f5420544845204e4654204f574e4552000000000000000000000000000000600082015250565b60006131386011836124c9565b915061314382613102565b602082019050919050565b600060208201905081810360008301526131678161312b565b9050919050565b7f455243373231466163746f727920616464726573732063616e6e6f742062652060008201527f3078303021000000000000000000000000000000000000000000000000000000602082015250565b60006131ca6025836124c9565b91506131d58261316e565b604082019050919050565b600060208201905081810360008301526131f9816131bd565b9050919050565b7f45524332303a20524f555445522043414e4e4f5420424520544845203020414460008201527f4452455353000000000000000000000000000000000000000000000000000000602082015250565b600061325c6025836124c9565b915061326782613200565b604082019050919050565b6000602082019050818103600083015261328b8161324f565b9050919050565b7f546865206d6178696d756d20737570706c79206d757374206265203e20300000600082015250565b60006132c8601e836124c9565b91506132d382613292565b602082019050919050565b600060208201905081810360008301526132f7816132bb565b9050919050565b600060a08201905081810360008301526133188188612515565b9050818103602083015261332c8187612515565b905061333b6040830186612a32565b6133486060830185612a32565b6133556080830184612a32565b9695505050505050565b6000819050919050565b600061338461337f61337a8461335f565b612bf6565b612792565b9050919050565b61339481613369565b82525050565b60006020820190506133af600083018461338b565b92915050565b7f45524332303a2064656372656173656420616c6c6f77616e63652062656c6f7760008201527f207a65726f000000000000000000000000000000000000000000000000000000602082015250565b60006134116025836124c9565b915061341c826133b5565b604082019050919050565b6000602082019050818103600083015261344081613404565b9050919050565b7f4552433230445420455850495245440000000000000000000000000000000000600082015250565b600061347d600f836124c9565b915061348882613447565b602082019050919050565b600060208201905081810360008301526134ac81613470565b9050919050565b7f4f776e6572206e6f7420746865204e4654206f776e6572000000000000000000600082015250565b60006134e96017836124c9565b91506134f4826134b3565b602082019050919050565b60006020820190508181036000830152613518816134dc565b9050919050565b7f43616e6e6f74207065726d697420302076616c75650000000000000000000000600082015250565b60006135556015836124c9565b91506135608261351f565b602082019050919050565b6000602082019050818103600083015261358481613548565b9050919050565b600060c0820190506135a06000830189612768565b6135ad6020830188612a32565b6135ba6040830187612a32565b6135c7606083018661268e565b6135d4608083018561268e565b6135e160a083018461268e565b979650505050505050565b600081905092915050565b7f1901000000000000000000000000000000000000000000000000000000000000600082015250565b600061362d6002836135ec565b9150613638826135f7565b600282019050919050565b6000819050919050565b61365e6136598261275e565b613643565b82525050565b600061366f82613620565b915061367b828561364d565b60208201915061368b828461364d565b6020820191508190509392505050565b7f4552433230426173653a207065726d697420646964206e6f742073756363656560008201527f642e204e6f6e6365206d69736d61746368210000000000000000000000000000602082015250565b60006136f76032836124c9565b91506137028261369b565b604082019050919050565b60006020820190508181036000830152613726816136ea565b9050919050565b60006080820190506137426000830187612768565b61374f602083018661279f565b61375c6040830185612768565b6137696060830184612768565b95945050505050565b7f45524332302064617461746f6b656e3a20494e56414c4944205349474e41545560008201527f524520494e2045524332302d5045524d49540000000000000000000000000000602082015250565b60006137ce6032836124c9565b91506137d982613772565b604082019050919050565b600060208201905081810360008301526137fd816137c1565b9050919050565b60006080820190506138196000830187612a32565b6138266020830186612a32565b6138336040830185612a32565b613840606083018461268e565b95945050505050565b600060608201905061385e6000830186612768565b61386b6020830185612768565b6138786040830184612768565b949350505050565b7f45524332303a20617070726f76652066726f6d20746865207a65726f2061646460008201527f7265737300000000000000000000000000000000000000000000000000000000602082015250565b60006138dc6024836124c9565b91506138e782613880565b604082019050919050565b6000602082019050818103600083015261390b816138cf565b9050919050565b7f45524332303a20617070726f766520746f20746865207a65726f20616464726560008201527f7373000000000000000000000000000000000000000000000000000000000000602082015250565b600061396e6022836124c9565b915061397982613912565b604082019050919050565b6000602082019050818103600083015261399d81613961565b9050919050565b7f45524332303a206d696e7420746f20746865207a65726f206164647265737300600082015250565b60006139da601f836124c9565b91506139e5826139a4565b602082019050919050565b60006020820190508181036000830152613a09816139cd565b9050919050565b7f45524332303a206275726e2066726f6d20746865207a65726f2061646472657360008201527f7300000000000000000000000000000000000000000000000000000000000000602082015250565b6000613a6c6021836124c9565b9150613a7782613a10565b604082019050919050565b60006020820190508181036000830152613a9b81613a5f565b9050919050565b7f45524332303a206275726e20616d6f756e7420657863656564732062616c616e60008201527f6365000000000000000000000000000000000000000000000000000000000000602082015250565b6000613afe6022836124c9565b9150613b0982613aa2565b604082019050919050565b60006020820190508181036000830152613b2d81613af1565b9050919050565b7f496e697469616c697a61626c653a20636f6e7472616374206973206e6f74206960008201527f6e697469616c697a696e67000000000000000000000000000000000000000000602082015250565b6000613b90602b836124c9565b9150613b9b82613b34565b604082019050919050565b60006020820190508181036000830152613bbf81613b83565b9050919050565b7f45524332303a207472616e736665722066726f6d20746865207a65726f20616460008201527f6472657373000000000000000000000000000000000000000000000000000000602082015250565b6000613c226025836124c9565b9150613c2d82613bc6565b604082019050919050565b60006020820190508181036000830152613c5181613c15565b9050919050565b7f45524332303a207472616e7366657220746f20746865207a65726f206164647260008201527f6573730000000000000000000000000000000000000000000000000000000000602082015250565b6000613cb46023836124c9565b9150613cbf82613c58565b604082019050919050565b60006020820190508181036000830152613ce381613ca7565b9050919050565b7f45524332303a207472616e7366657220616d6f756e742065786365656473206260008201527f616c616e63650000000000000000000000000000000000000000000000000000602082015250565b6000613d466026836124c9565b9150613d5182613cea565b604082019050919050565b60006020820190508181036000830152613d7581613d39565b9050919050565b600060a082019050613d916000830188612768565b613d9e6020830187612768565b613dab6040830186612768565b613db8606083018561268e565b613dc56080830184612a32565b9695505050505050565b7f45524332303a20696e73756666696369656e7420616c6c6f77616e6365000000600082015250565b6000613e05601d836124c9565b9150613e1082613dcf565b602082019050919050565b60006020820190508181036000830152613e3481613df8565b9050919050565b60008190508160005260206000209050919050565b60006020601f8301049050919050565b600082821b905092915050565b600060088302613e9d7fffffffffffffffffffffffffffffffffffffffffffffffffffffffffffffffff82613e60565b613ea78683613e60565b95508019841693508086168417925050509392505050565b6000613eda613ed5613ed0846125e2565b612bf6565b6125e2565b9050919050565b6000819050919050565b613ef483613ebf565b613f08613f0082613ee1565b848454613e6d565b825550505050565b600090565b613f1d613f10565b613f28818484613eeb565b505050565b5b81811015613f4c57613f41600082613f15565b600181019050613f2e565b5050565b601f821115613f9157613f6281613e3b565b613f6b84613e50565b81016020851015613f7a578190505b613f8e613f8685613e50565b830182613f2d565b50505b505050565b600082821c905092915050565b6000613fb460001984600802613f96565b1980831691505092915050565b6000613fcd8383613fa3565b9150826002028217905092915050565b613fe6826124be565b67ffffffffffffffff811115613fff57613ffe61282d565b5b6140098254612bc5565b614014828285613f50565b600060209050601f8311600181146140475760008415614035578287015190505b61403f8582613fc1565b8655506140a7565b601f19841661405586613e3b565b60005b8281101561407d57848901518255600182019150602085019450602081019050614058565b8683101561409a5784890151614096601f891682613fa3565b8355505b6001600288020188555050505b50505050505056fea26469706673582212208229f541e09d7f7f659ee4bc7e6f2fb63ae7140b959b7effe7d6645ecfbee3dc64736f6c63430008120033","opcodes":"PUSH1 0x80 PUSH1 0x40 MSTORE CALLVALUE DUP1 ISZERO PUSH2 0x10 JUMPI PUSH1 0x0 DUP1 REVERT JUMPDEST POP PUSH2 0x40E5 DUP1 PUSH2 0x20 PUSH1 0x0 CODECOPY PUSH1 0x0 RETURN INVALID PUSH1 0x80 PUSH1 0x40 MSTORE PUSH1 0x4 CALLDATASIZE LT PUSH2 0x144 JUMPI PUSH1 0x0 CALLDATALOAD PUSH1 0xE0 SHR DUP1 PUSH4 0x70A08231 GT PUSH2 0xB6 JUMPI DUP1 PUSH4 0xA457C2D7 GT PUSH2 0x6F JUMPI DUP1 PUSH4 0xA457C2D7 EQ PUSH2 0x49E JUMPI DUP1 PUSH4 0xA9059CBB EQ PUSH2 0x4DB JUMPI DUP1 PUSH4 0xAA271E1A EQ PUSH2 0x518 JUMPI DUP1 PUSH4 0xB91FAD93 EQ PUSH2 0x555 JUMPI DUP1 PUSH4 0xD505ACCF EQ PUSH2 0x580 JUMPI DUP1 PUSH4 0xDD62ED3E EQ PUSH2 0x5A9 JUMPI PUSH2 0x14B JUMP JUMPDEST DUP1 PUSH4 0x70A08231 EQ PUSH2 0x356 JUMPI DUP1 PUSH4 0x73C84F74 EQ PUSH2 0x393 JUMPI DUP1 PUSH4 0x7D6C32C1 EQ PUSH2 0x3D0 JUMPI DUP1 PUSH4 0x7ECEBE00 EQ PUSH2 0x3F9 JUMPI DUP1 PUSH4 0x95D89B41 EQ PUSH2 0x436 JUMPI DUP1 PUSH4 0x97FC1A8A EQ PUSH2 0x461 JUMPI PUSH2 0x14B JUMP JUMPDEST DUP1 PUSH4 0x313CE567 GT PUSH2 0x108 JUMPI DUP1 PUSH4 0x313CE567 EQ PUSH2 0x25A JUMPI DUP1 PUSH4 0x39509351 EQ PUSH2 0x285 JUMPI DUP1 PUSH4 0x3CCFD60B EQ PUSH2 0x2C2 JUMPI DUP1 PUSH4 0x40C10F19 EQ PUSH2 0x2D9 JUMPI DUP1 PUSH4 0x42966C68 EQ PUSH2 0x302 JUMPI DUP1 PUSH4 0x4C0F38C2 EQ PUSH2 0x32B JUMPI PUSH2 0x14B JUMP JUMPDEST DUP1 PUSH4 0x6FDDE03 EQ PUSH2 0x14D JUMPI DUP1 PUSH4 0x95EA7B3 EQ PUSH2 0x178 JUMPI DUP1 PUSH4 0x18160DDD EQ PUSH2 0x1B5 JUMPI DUP1 PUSH4 0x23B872DD EQ PUSH2 0x1E0 JUMPI DUP1 PUSH4 0x276AFCAE EQ PUSH2 0x21D JUMPI PUSH2 0x14B JUMP JUMPDEST CALLDATASIZE PUSH2 0x14B JUMPI STOP JUMPDEST STOP JUMPDEST CALLVALUE DUP1 ISZERO PUSH2 0x159 JUMPI PUSH1 0x0 DUP1 REVERT JUMPDEST POP PUSH2 0x162 PUSH2 0x5E6 JUMP JUMPDEST PUSH1 0x40 MLOAD PUSH2 0x16F SWAP2 SWAP1 PUSH2 0x254E JUMP JUMPDEST PUSH1 0x40 MLOAD DUP1 SWAP2 SUB SWAP1 RETURN JUMPDEST CALLVALUE DUP1 ISZERO PUSH2 0x184 JUMPI PUSH1 0x0 DUP1 REVERT JUMPDEST POP PUSH2 0x19F PUSH1 0x4 DUP1 CALLDATASIZE SUB DUP2 ADD SWAP1 PUSH2 0x19A SWAP2 SWAP1 PUSH2 0x2618 JUMP JUMPDEST PUSH2 0x678 JUMP JUMPDEST PUSH1 0x40 MLOAD PUSH2 0x1AC SWAP2 SWAP1 PUSH2 0x2673 JUMP JUMPDEST PUSH1 0x40 MLOAD DUP1 SWAP2 SUB SWAP1 RETURN JUMPDEST CALLVALUE DUP1 ISZERO PUSH2 0x1C1 JUMPI PUSH1 0x0 DUP1 REVERT JUMPDEST POP PUSH2 0x1CA PUSH2 0x69B JUMP JUMPDEST PUSH1 0x40 MLOAD PUSH2 0x1D7 SWAP2 SWAP1 PUSH2 0x269D JUMP JUMPDEST PUSH1 0x40 MLOAD DUP1 SWAP2 SUB SWAP1 RETURN JUMPDEST CALLVALUE DUP1 ISZERO PUSH2 0x1EC JUMPI PUSH1 0x0 DUP1 REVERT JUMPDEST POP PUSH2 0x207 PUSH1 0x4 DUP1 CALLDATASIZE SUB DUP2 ADD SWAP1 PUSH2 0x202 SWAP2 SWAP1 PUSH2 0x26B8 JUMP JUMPDEST PUSH2 0x6A5 JUMP JUMPDEST PUSH1 0x40 MLOAD PUSH2 0x214 SWAP2 SWAP1 PUSH2 0x2673 JUMP JUMPDEST PUSH1 0x40 MLOAD DUP1 SWAP2 SUB SWAP1 RETURN JUMPDEST CALLVALUE DUP1 ISZERO PUSH2 0x229 JUMPI PUSH1 0x0 DUP1 REVERT JUMPDEST POP PUSH2 0x244 PUSH1 0x4 DUP1 CALLDATASIZE SUB DUP2 ADD SWAP1 PUSH2 0x23F SWAP2 SWAP1 PUSH2 0x270B JUMP JUMPDEST PUSH2 0x6BB JUMP JUMPDEST PUSH1 0x40 MLOAD PUSH2 0x251 SWAP2 SWAP1 PUSH2 0x2777 JUMP JUMPDEST PUSH1 0x40 MLOAD DUP1 SWAP2 SUB SWAP1 RETURN JUMPDEST CALLVALUE DUP1 ISZERO PUSH2 0x266 JUMPI PUSH1 0x0 DUP1 REVERT JUMPDEST POP PUSH2 0x26F PUSH2 0x908 JUMP JUMPDEST PUSH1 0x40 MLOAD PUSH2 0x27C SWAP2 SWAP1 PUSH2 0x27AE JUMP JUMPDEST PUSH1 0x40 MLOAD DUP1 SWAP2 SUB SWAP1 RETURN JUMPDEST CALLVALUE DUP1 ISZERO PUSH2 0x291 JUMPI PUSH1 0x0 DUP1 REVERT JUMPDEST POP PUSH2 0x2AC PUSH1 0x4 DUP1 CALLDATASIZE SUB DUP2 ADD SWAP1 PUSH2 0x2A7 SWAP2 SWAP1 PUSH2 0x2618 JUMP JUMPDEST PUSH2 0x911 JUMP JUMPDEST PUSH1 0x40 MLOAD PUSH2 0x2B9 SWAP2 SWAP1 PUSH2 0x2673 JUMP JUMPDEST PUSH1 0x40 MLOAD DUP1 SWAP2 SUB SWAP1 RETURN JUMPDEST CALLVALUE DUP1 ISZERO PUSH2 0x2CE JUMPI PUSH1 0x0 DUP1 REVERT JUMPDEST POP PUSH2 0x2D7 PUSH2 0x948 JUMP JUMPDEST STOP JUMPDEST CALLVALUE DUP1 ISZERO PUSH2 0x2E5 JUMPI PUSH1 0x0 DUP1 REVERT JUMPDEST POP PUSH2 0x300 PUSH1 0x4 DUP1 CALLDATASIZE SUB DUP2 ADD SWAP1 PUSH2 0x2FB SWAP2 SWAP1 PUSH2 0x2618 JUMP JUMPDEST PUSH2 0xA94 JUMP JUMPDEST STOP JUMPDEST CALLVALUE DUP1 ISZERO PUSH2 0x30E JUMPI PUSH1 0x0 DUP1 REVERT JUMPDEST POP PUSH2 0x329 PUSH1 0x4 DUP1 CALLDATASIZE SUB DUP2 ADD SWAP1 PUSH2 0x324 SWAP2 SWAP1 PUSH2 0x27C9 JUMP JUMPDEST PUSH2 0xBA0 JUMP JUMPDEST STOP JUMPDEST CALLVALUE DUP1 ISZERO PUSH2 0x337 JUMPI PUSH1 0x0 DUP1 REVERT JUMPDEST POP PUSH2 0x340 PUSH2 0xC3D JUMP JUMPDEST PUSH1 0x40 MLOAD PUSH2 0x34D SWAP2 SWAP1 PUSH2 0x269D JUMP JUMPDEST PUSH1 0x40 MLOAD DUP1 SWAP2 SUB SWAP1 RETURN JUMPDEST CALLVALUE DUP1 ISZERO PUSH2 0x362 JUMPI PUSH1 0x0 DUP1 REVERT JUMPDEST POP PUSH2 0x37D PUSH1 0x4 DUP1 CALLDATASIZE SUB DUP2 ADD SWAP1 PUSH2 0x378 SWAP2 SWAP1 PUSH2 0x27F6 JUMP JUMPDEST PUSH2 0xC47 JUMP JUMPDEST PUSH1 0x40 MLOAD PUSH2 0x38A SWAP2 SWAP1 PUSH2 0x269D JUMP JUMPDEST PUSH1 0x40 MLOAD DUP1 SWAP2 SUB SWAP1 RETURN JUMPDEST CALLVALUE DUP1 ISZERO PUSH2 0x39F JUMPI PUSH1 0x0 DUP1 REVERT JUMPDEST POP PUSH2 0x3BA PUSH1 0x4 DUP1 CALLDATASIZE SUB DUP2 ADD SWAP1 PUSH2 0x3B5 SWAP2 SWAP1 PUSH2 0x27F6 JUMP JUMPDEST PUSH2 0xC59 JUMP JUMPDEST PUSH1 0x40 MLOAD PUSH2 0x3C7 SWAP2 SWAP1 PUSH2 0x269D JUMP JUMPDEST PUSH1 0x40 MLOAD DUP1 SWAP2 SUB SWAP1 RETURN JUMPDEST CALLVALUE DUP1 ISZERO PUSH2 0x3DC JUMPI PUSH1 0x0 DUP1 REVERT JUMPDEST POP PUSH2 0x3F7 PUSH1 0x4 DUP1 CALLDATASIZE SUB DUP2 ADD SWAP1 PUSH2 0x3F2 SWAP2 SWAP1 PUSH2 0x26B8 JUMP JUMPDEST PUSH2 0xC71 JUMP JUMPDEST STOP JUMPDEST CALLVALUE DUP1 ISZERO PUSH2 0x405 JUMPI PUSH1 0x0 DUP1 REVERT JUMPDEST POP PUSH2 0x420 PUSH1 0x4 DUP1 CALLDATASIZE SUB DUP2 ADD SWAP1 PUSH2 0x41B SWAP2 SWAP1 PUSH2 0x27F6 JUMP JUMPDEST PUSH2 0xCDB JUMP JUMPDEST PUSH1 0x40 MLOAD PUSH2 0x42D SWAP2 SWAP1 PUSH2 0x269D JUMP JUMPDEST PUSH1 0x40 MLOAD DUP1 SWAP2 SUB SWAP1 RETURN JUMPDEST CALLVALUE DUP1 ISZERO PUSH2 0x442 JUMPI PUSH1 0x0 DUP1 REVERT JUMPDEST POP PUSH2 0x44B PUSH2 0xD24 JUMP JUMPDEST PUSH1 0x40 MLOAD PUSH2 0x458 SWAP2 SWAP1 PUSH2 0x254E JUMP JUMPDEST PUSH1 0x40 MLOAD DUP1 SWAP2 SUB SWAP1 RETURN JUMPDEST CALLVALUE DUP1 ISZERO PUSH2 0x46D JUMPI PUSH1 0x0 DUP1 REVERT JUMPDEST POP PUSH2 0x488 PUSH1 0x4 DUP1 CALLDATASIZE SUB DUP2 ADD SWAP1 PUSH2 0x483 SWAP2 SWAP1 PUSH2 0x2958 JUMP JUMPDEST PUSH2 0xDB6 JUMP JUMPDEST PUSH1 0x40 MLOAD PUSH2 0x495 SWAP2 SWAP1 PUSH2 0x2673 JUMP JUMPDEST PUSH1 0x40 MLOAD DUP1 SWAP2 SUB SWAP1 RETURN JUMPDEST CALLVALUE DUP1 ISZERO PUSH2 0x4AA JUMPI PUSH1 0x0 DUP1 REVERT JUMPDEST POP PUSH2 0x4C5 PUSH1 0x4 DUP1 CALLDATASIZE SUB DUP2 ADD SWAP1 PUSH2 0x4C0 SWAP2 SWAP1 PUSH2 0x2618 JUMP JUMPDEST PUSH2 0x1383 JUMP JUMPDEST PUSH1 0x40 MLOAD PUSH2 0x4D2 SWAP2 SWAP1 PUSH2 0x2673 JUMP JUMPDEST PUSH1 0x40 MLOAD DUP1 SWAP2 SUB SWAP1 RETURN JUMPDEST CALLVALUE DUP1 ISZERO PUSH2 0x4E7 JUMPI PUSH1 0x0 DUP1 REVERT JUMPDEST POP PUSH2 0x502 PUSH1 0x4 DUP1 CALLDATASIZE SUB DUP2 ADD SWAP1 PUSH2 0x4FD SWAP2 SWAP1 PUSH2 0x2618 JUMP JUMPDEST PUSH2 0x13FA JUMP JUMPDEST PUSH1 0x40 MLOAD PUSH2 0x50F SWAP2 SWAP1 PUSH2 0x2673 JUMP JUMPDEST PUSH1 0x40 MLOAD DUP1 SWAP2 SUB SWAP1 RETURN JUMPDEST CALLVALUE DUP1 ISZERO PUSH2 0x524 JUMPI PUSH1 0x0 DUP1 REVERT JUMPDEST POP PUSH2 0x53F PUSH1 0x4 DUP1 CALLDATASIZE SUB DUP2 ADD SWAP1 PUSH2 0x53A SWAP2 SWAP1 PUSH2 0x27F6 JUMP JUMPDEST PUSH2 0x141D JUMP JUMPDEST PUSH1 0x40 MLOAD PUSH2 0x54C SWAP2 SWAP1 PUSH2 0x2673 JUMP JUMPDEST PUSH1 0x40 MLOAD DUP1 SWAP2 SUB SWAP1 RETURN JUMPDEST CALLVALUE DUP1 ISZERO PUSH2 0x561 JUMPI PUSH1 0x0 DUP1 REVERT JUMPDEST POP PUSH2 0x56A PUSH2 0x142F JUMP JUMPDEST PUSH1 0x40 MLOAD PUSH2 0x577 SWAP2 SWAP1 PUSH2 0x2A41 JUMP JUMPDEST PUSH1 0x40 MLOAD DUP1 SWAP2 SUB SWAP1 RETURN JUMPDEST CALLVALUE DUP1 ISZERO PUSH2 0x58C JUMPI PUSH1 0x0 DUP1 REVERT JUMPDEST POP PUSH2 0x5A7 PUSH1 0x4 DUP1 CALLDATASIZE SUB DUP2 ADD SWAP1 PUSH2 0x5A2 SWAP2 SWAP1 PUSH2 0x2AB4 JUMP JUMPDEST PUSH2 0x1459 JUMP JUMPDEST STOP JUMPDEST CALLVALUE DUP1 ISZERO PUSH2 0x5B5 JUMPI PUSH1 0x0 DUP1 REVERT JUMPDEST POP PUSH2 0x5D0 PUSH1 0x4 DUP1 CALLDATASIZE SUB DUP2 ADD SWAP1 PUSH2 0x5CB SWAP2 SWAP1 PUSH2 0x2B56 JUMP JUMPDEST PUSH2 0x18E5 JUMP JUMPDEST PUSH1 0x40 MLOAD PUSH2 0x5DD SWAP2 SWAP1 PUSH2 0x269D JUMP JUMPDEST PUSH1 0x40 MLOAD DUP1 SWAP2 SUB SWAP1 RETURN JUMPDEST PUSH1 0x60 PUSH1 0x36 DUP1 SLOAD PUSH2 0x5F5 SWAP1 PUSH2 0x2BC5 JUMP JUMPDEST DUP1 PUSH1 0x1F ADD PUSH1 0x20 DUP1 SWAP2 DIV MUL PUSH1 0x20 ADD PUSH1 0x40 MLOAD SWAP1 DUP2 ADD PUSH1 0x40 MSTORE DUP1 SWAP3 SWAP2 SWAP1 DUP2 DUP2 MSTORE PUSH1 0x20 ADD DUP3 DUP1 SLOAD PUSH2 0x621 SWAP1 PUSH2 0x2BC5 JUMP JUMPDEST DUP1 ISZERO PUSH2 0x66E JUMPI DUP1 PUSH1 0x1F LT PUSH2 0x643 JUMPI PUSH2 0x100 DUP1 DUP4 SLOAD DIV MUL DUP4 MSTORE SWAP2 PUSH1 0x20 ADD SWAP2 PUSH2 0x66E JUMP JUMPDEST DUP3 ADD SWAP2 SWAP1 PUSH1 0x0 MSTORE PUSH1 0x20 PUSH1 0x0 KECCAK256 SWAP1 JUMPDEST DUP2 SLOAD DUP2 MSTORE SWAP1 PUSH1 0x1 ADD SWAP1 PUSH1 0x20 ADD DUP1 DUP4 GT PUSH2 0x651 JUMPI DUP3 SWAP1 SUB PUSH1 0x1F AND DUP3 ADD SWAP2 JUMPDEST POP POP POP POP POP SWAP1 POP SWAP1 JUMP JUMPDEST PUSH1 0x0 DUP1 PUSH2 0x683 PUSH2 0x18F9 JUMP JUMPDEST SWAP1 POP PUSH2 0x690 DUP2 DUP6 DUP6 PUSH2 0x1901 JUMP JUMPDEST PUSH1 0x1 SWAP2 POP POP SWAP3 SWAP2 POP POP JUMP JUMPDEST PUSH1 0x0 PUSH1 0x35 SLOAD SWAP1 POP SWAP1 JUMP JUMPDEST PUSH1 0x0 PUSH2 0x6B2 DUP5 DUP5 DUP5 PUSH2 0x1ACA JUMP JUMPDEST SWAP1 POP SWAP4 SWAP3 POP POP POP JUMP JUMPDEST PUSH1 0x0 PUSH1 0x67 PUSH1 0x0 SWAP1 SLOAD SWAP1 PUSH2 0x100 EXP SWAP1 DIV PUSH20 0xFFFFFFFFFFFFFFFFFFFFFFFFFFFFFFFFFFFFFFFF AND PUSH20 0xFFFFFFFFFFFFFFFFFFFFFFFFFFFFFFFFFFFFFFFF AND CALLER PUSH20 0xFFFFFFFFFFFFFFFFFFFFFFFFFFFFFFFFFFFFFFFF AND EQ PUSH2 0x717 JUMPI PUSH1 0x0 DUP1 REVERT JUMPDEST PUSH1 0x0 DUP3 GT ISZERO PUSH2 0x72A JUMPI PUSH2 0x729 DUP5 PUSH2 0x1AF9 JUMP JUMPDEST JUMPDEST PUSH1 0x68 PUSH1 0x0 SWAP1 SLOAD SWAP1 PUSH2 0x100 EXP SWAP1 DIV PUSH20 0xFFFFFFFFFFFFFFFFFFFFFFFFFFFFFFFFFFFFFFFF AND PUSH20 0xFFFFFFFFFFFFFFFFFFFFFFFFFFFFFFFFFFFFFFFF AND PUSH4 0x46AB8F0F DUP6 PUSH1 0x67 PUSH1 0x0 SWAP1 SLOAD SWAP1 PUSH2 0x100 EXP SWAP1 DIV PUSH20 0xFFFFFFFFFFFFFFFFFFFFFFFFFFFFFFFFFFFFFFFF AND DUP7 PUSH2 0x795 PUSH2 0x908 JUMP JUMPDEST DUP8 PUSH1 0x40 MLOAD DUP7 PUSH4 0xFFFFFFFF AND PUSH1 0xE0 SHL DUP2 MSTORE PUSH1 0x4 ADD PUSH2 0x7B6 SWAP6 SWAP5 SWAP4 SWAP3 SWAP2 SWAP1 PUSH2 0x2C31 JUMP JUMPDEST PUSH1 0x20 PUSH1 0x40 MLOAD DUP1 DUP4 SUB DUP2 PUSH1 0x0 DUP8 GAS CALL ISZERO DUP1 ISZERO PUSH2 0x7D5 JUMPI RETURNDATASIZE PUSH1 0x0 DUP1 RETURNDATACOPY RETURNDATASIZE PUSH1 0x0 REVERT JUMPDEST POP POP POP POP PUSH1 0x40 MLOAD RETURNDATASIZE PUSH1 0x1F NOT PUSH1 0x1F DUP3 ADD AND DUP3 ADD DUP1 PUSH1 0x40 MSTORE POP DUP2 ADD SWAP1 PUSH2 0x7F9 SWAP2 SWAP1 PUSH2 0x2C99 JUMP JUMPDEST SWAP1 POP PUSH32 0xA5415CB405D73F33B4E7CF3E0D085DB931472BB48E0423947AD575A31FA2F51E DUP2 PUSH1 0x67 PUSH1 0x0 SWAP1 SLOAD SWAP1 PUSH2 0x100 EXP SWAP1 DIV PUSH20 0xFFFFFFFFFFFFFFFFFFFFFFFFFFFFFFFFFFFFFFFF AND DUP7 PUSH1 0x40 MLOAD PUSH2 0x850 SWAP4 SWAP3 SWAP2 SWAP1 PUSH2 0x2CC6 JUMP JUMPDEST PUSH1 0x40 MLOAD DUP1 SWAP2 SUB SWAP1 LOG1 PUSH1 0x6C PUSH1 0x40 MLOAD DUP1 PUSH1 0x40 ADD PUSH1 0x40 MSTORE DUP1 DUP7 PUSH20 0xFFFFFFFFFFFFFFFFFFFFFFFFFFFFFFFFFFFFFFFF AND DUP2 MSTORE PUSH1 0x20 ADD DUP4 DUP2 MSTORE POP SWAP1 DUP1 PUSH1 0x1 DUP2 SLOAD ADD DUP1 DUP3 SSTORE DUP1 SWAP2 POP POP PUSH1 0x1 SWAP1 SUB SWAP1 PUSH1 0x0 MSTORE PUSH1 0x20 PUSH1 0x0 KECCAK256 SWAP1 PUSH1 0x2 MUL ADD PUSH1 0x0 SWAP1 SWAP2 SWAP1 SWAP2 SWAP1 SWAP2 POP PUSH1 0x0 DUP3 ADD MLOAD DUP2 PUSH1 0x0 ADD PUSH1 0x0 PUSH2 0x100 EXP DUP2 SLOAD DUP2 PUSH20 0xFFFFFFFFFFFFFFFFFFFFFFFFFFFFFFFFFFFFFFFF MUL NOT AND SWAP1 DUP4 PUSH20 0xFFFFFFFFFFFFFFFFFFFFFFFFFFFFFFFFFFFFFFFF AND MUL OR SWAP1 SSTORE POP PUSH1 0x20 DUP3 ADD MLOAD DUP2 PUSH1 0x1 ADD SSTORE POP POP SWAP4 SWAP3 POP POP POP JUMP JUMPDEST PUSH1 0x0 PUSH1 0x12 SWAP1 POP SWAP1 JUMP JUMPDEST PUSH1 0x0 DUP1 PUSH2 0x91C PUSH2 0x18F9 JUMP JUMPDEST SWAP1 POP PUSH2 0x93D DUP2 DUP6 DUP6 PUSH2 0x92E DUP6 DUP10 PUSH2 0x18E5 JUMP JUMPDEST PUSH2 0x938 SWAP2 SWAP1 PUSH2 0x2D2C JUMP JUMPDEST PUSH2 0x1901 JUMP JUMPDEST PUSH1 0x1 SWAP2 POP POP SWAP3 SWAP2 POP POP JUMP JUMPDEST PUSH1 0x67 PUSH1 0x0 SWAP1 SLOAD SWAP1 PUSH2 0x100 EXP SWAP1 DIV PUSH20 0xFFFFFFFFFFFFFFFFFFFFFFFFFFFFFFFFFFFFFFFF AND PUSH20 0xFFFFFFFFFFFFFFFFFFFFFFFFFFFFFFFFFFFFFFFF AND CALLER PUSH20 0xFFFFFFFFFFFFFFFFFFFFFFFFFFFFFFFFFFFFFFFF AND EQ PUSH2 0x9A2 JUMPI PUSH1 0x0 DUP1 REVERT JUMPDEST PUSH1 0x0 SELFBALANCE GT PUSH2 0x9E5 JUMPI PUSH1 0x40 MLOAD PUSH32 0x8C379A000000000000000000000000000000000000000000000000000000000 DUP2 MSTORE PUSH1 0x4 ADD PUSH2 0x9DC SWAP1 PUSH2 0x2DAC JUMP JUMPDEST PUSH1 0x40 MLOAD DUP1 SWAP2 SUB SWAP1 REVERT JUMPDEST PUSH1 0x0 CALLER PUSH20 0xFFFFFFFFFFFFFFFFFFFFFFFFFFFFFFFFFFFFFFFF AND SELFBALANCE PUSH1 0x40 MLOAD PUSH2 0xA0B SWAP1 PUSH2 0x2DFD JUMP JUMPDEST PUSH1 0x0 PUSH1 0x40 MLOAD DUP1 DUP4 SUB DUP2 DUP6 DUP8 GAS CALL SWAP3 POP POP POP RETURNDATASIZE DUP1 PUSH1 0x0 DUP2 EQ PUSH2 0xA48 JUMPI PUSH1 0x40 MLOAD SWAP2 POP PUSH1 0x1F NOT PUSH1 0x3F RETURNDATASIZE ADD AND DUP3 ADD PUSH1 0x40 MSTORE RETURNDATASIZE DUP3 MSTORE RETURNDATASIZE PUSH1 0x0 PUSH1 0x20 DUP5 ADD RETURNDATACOPY PUSH2 0xA4D JUMP JUMPDEST PUSH1 0x60 SWAP2 POP JUMPDEST POP POP SWAP1 POP DUP1 PUSH2 0xA91 JUMPI PUSH1 0x40 MLOAD PUSH32 0x8C379A000000000000000000000000000000000000000000000000000000000 DUP2 MSTORE PUSH1 0x4 ADD PUSH2 0xA88 SWAP1 PUSH2 0x2E5E JUMP JUMPDEST PUSH1 0x40 MLOAD DUP1 SWAP2 SUB SWAP1 REVERT JUMPDEST POP JUMP JUMPDEST PUSH1 0x67 PUSH1 0x0 SWAP1 SLOAD SWAP1 PUSH2 0x100 EXP SWAP1 DIV PUSH20 0xFFFFFFFFFFFFFFFFFFFFFFFFFFFFFFFFFFFFFFFF AND PUSH20 0xFFFFFFFFFFFFFFFFFFFFFFFFFFFFFFFFFFFFFFFF AND CALLER PUSH20 0xFFFFFFFFFFFFFFFFFFFFFFFFFFFFFFFFFFFFFFFF AND EQ DUP1 PUSH2 0xAF5 JUMPI POP PUSH2 0xAF4 CALLER PUSH2 0x1B54 JUMP JUMPDEST JUMPDEST PUSH2 0xB34 JUMPI PUSH1 0x40 MLOAD PUSH32 0x8C379A000000000000000000000000000000000000000000000000000000000 DUP2 MSTORE PUSH1 0x4 ADD PUSH2 0xB2B SWAP1 PUSH2 0x2ECA JUMP JUMPDEST PUSH1 0x40 MLOAD DUP1 SWAP2 SUB SWAP1 REVERT JUMPDEST PUSH1 0x69 SLOAD PUSH2 0xB51 DUP3 PUSH2 0xB43 PUSH2 0x69B JUMP JUMPDEST PUSH2 0x1BAA SWAP1 SWAP2 SWAP1 PUSH4 0xFFFFFFFF AND JUMP JUMPDEST GT ISZERO PUSH2 0xB92 JUMPI PUSH1 0x40 MLOAD PUSH32 0x8C379A000000000000000000000000000000000000000000000000000000000 DUP2 MSTORE PUSH1 0x4 ADD PUSH2 0xB89 SWAP1 PUSH2 0x2F36 JUMP JUMPDEST PUSH1 0x40 MLOAD DUP1 SWAP2 SUB SWAP1 REVERT JUMPDEST PUSH2 0xB9C DUP3 DUP3 PUSH2 0x1BC0 JUMP JUMPDEST POP POP JUMP JUMPDEST PUSH1 0x67 PUSH1 0x0 SWAP1 SLOAD SWAP1 PUSH2 0x100 EXP SWAP1 DIV PUSH20 0xFFFFFFFFFFFFFFFFFFFFFFFFFFFFFFFFFFFFFFFF AND PUSH20 0xFFFFFFFFFFFFFFFFFFFFFFFFFFFFFFFFFFFFFFFF AND CALLER PUSH20 0xFFFFFFFFFFFFFFFFFFFFFFFFFFFFFFFFFFFFFFFF AND EQ PUSH2 0xC30 JUMPI PUSH1 0x40 MLOAD PUSH32 0x8C379A000000000000000000000000000000000000000000000000000000000 DUP2 MSTORE PUSH1 0x4 ADD PUSH2 0xC27 SWAP1 PUSH2 0x2FA2 JUMP JUMPDEST PUSH1 0x40 MLOAD DUP1 SWAP2 SUB SWAP1 REVERT JUMPDEST PUSH2 0xC3A CALLER DUP3 PUSH2 0x1D17 JUMP JUMPDEST POP JUMP JUMPDEST PUSH1 0x0 PUSH1 0x69 SLOAD SWAP1 POP SWAP1 JUMP JUMPDEST PUSH1 0x0 PUSH2 0xC52 DUP3 PUSH2 0x1EE6 JUMP JUMPDEST SWAP1 POP SWAP2 SWAP1 POP JUMP JUMPDEST PUSH1 0x6B PUSH1 0x20 MSTORE DUP1 PUSH1 0x0 MSTORE PUSH1 0x40 PUSH1 0x0 KECCAK256 PUSH1 0x0 SWAP2 POP SWAP1 POP SLOAD DUP2 JUMP JUMPDEST PUSH1 0x65 PUSH1 0x0 SWAP1 SLOAD SWAP1 PUSH2 0x100 EXP SWAP1 DIV PUSH20 0xFFFFFFFFFFFFFFFFFFFFFFFFFFFFFFFFFFFFFFFF AND PUSH20 0xFFFFFFFFFFFFFFFFFFFFFFFFFFFFFFFFFFFFFFFF AND CALLER PUSH20 0xFFFFFFFFFFFFFFFFFFFFFFFFFFFFFFFFFFFFFFFF AND EQ PUSH2 0xCCB JUMPI PUSH1 0x0 DUP1 REVERT JUMPDEST PUSH2 0xCD6 DUP4 DUP4 DUP4 PUSH2 0x1901 JUMP JUMPDEST POP POP POP JUMP JUMPDEST PUSH1 0x0 PUSH1 0x6B PUSH1 0x0 DUP4 PUSH20 0xFFFFFFFFFFFFFFFFFFFFFFFFFFFFFFFFFFFFFFFF AND PUSH20 0xFFFFFFFFFFFFFFFFFFFFFFFFFFFFFFFFFFFFFFFF AND DUP2 MSTORE PUSH1 0x20 ADD SWAP1 DUP2 MSTORE PUSH1 0x20 ADD PUSH1 0x0 KECCAK256 SLOAD SWAP1 POP SWAP2 SWAP1 POP JUMP JUMPDEST PUSH1 0x60 PUSH1 0x37 DUP1 SLOAD PUSH2 0xD33 SWAP1 PUSH2 0x2BC5 JUMP JUMPDEST DUP1 PUSH1 0x1F ADD PUSH1 0x20 DUP1 SWAP2 DIV MUL PUSH1 0x20 ADD PUSH1 0x40 MLOAD SWAP1 DUP2 ADD PUSH1 0x40 MSTORE DUP1 SWAP3 SWAP2 SWAP1 DUP2 DUP2 MSTORE PUSH1 0x20 ADD DUP3 DUP1 SLOAD PUSH2 0xD5F SWAP1 PUSH2 0x2BC5 JUMP JUMPDEST DUP1 ISZERO PUSH2 0xDAC JUMPI DUP1 PUSH1 0x1F LT PUSH2 0xD81 JUMPI PUSH2 0x100 DUP1 DUP4 SLOAD DIV MUL DUP4 MSTORE SWAP2 PUSH1 0x20 ADD SWAP2 PUSH2 0xDAC JUMP JUMPDEST DUP3 ADD SWAP2 SWAP1 PUSH1 0x0 MSTORE PUSH1 0x20 PUSH1 0x0 KECCAK256 SWAP1 JUMPDEST DUP2 SLOAD DUP2 MSTORE SWAP1 PUSH1 0x1 ADD SWAP1 PUSH1 0x20 ADD DUP1 DUP4 GT PUSH2 0xD8F JUMPI DUP3 SWAP1 SUB PUSH1 0x1F AND DUP3 ADD SWAP2 JUMPDEST POP POP POP POP POP SWAP1 POP SWAP1 JUMP JUMPDEST PUSH1 0x0 DUP1 PUSH1 0x0 PUSH1 0x1 SWAP1 SLOAD SWAP1 PUSH2 0x100 EXP SWAP1 DIV PUSH1 0xFF AND ISZERO SWAP1 POP DUP1 DUP1 ISZERO PUSH2 0xDE9 JUMPI POP PUSH1 0x1 PUSH1 0x0 DUP1 SLOAD SWAP1 PUSH2 0x100 EXP SWAP1 DIV PUSH1 0xFF AND PUSH1 0xFF AND LT JUMPDEST DUP1 PUSH2 0xE16 JUMPI POP PUSH2 0xDF8 ADDRESS PUSH2 0x1F2F JUMP JUMPDEST ISZERO DUP1 ISZERO PUSH2 0xE15 JUMPI POP PUSH1 0x1 PUSH1 0x0 DUP1 SLOAD SWAP1 PUSH2 0x100 EXP SWAP1 DIV PUSH1 0xFF AND PUSH1 0xFF AND EQ JUMPDEST JUMPDEST PUSH2 0xE55 JUMPI PUSH1 0x40 MLOAD PUSH32 0x8C379A000000000000000000000000000000000000000000000000000000000 DUP2 MSTORE PUSH1 0x4 ADD PUSH2 0xE4C SWAP1 PUSH2 0x3034 JUMP JUMPDEST PUSH1 0x40 MLOAD DUP1 SWAP2 SUB SWAP1 REVERT JUMPDEST PUSH1 0x1 PUSH1 0x0 DUP1 PUSH2 0x100 EXP DUP2 SLOAD DUP2 PUSH1 0xFF MUL NOT AND SWAP1 DUP4 PUSH1 0xFF AND MUL OR SWAP1 SSTORE POP DUP1 ISZERO PUSH2 0xE92 JUMPI PUSH1 0x1 PUSH1 0x0 PUSH1 0x1 PUSH2 0x100 EXP DUP2 SLOAD DUP2 PUSH1 0xFF MUL NOT AND SWAP1 DUP4 ISZERO ISZERO MUL OR SWAP1 SSTORE POP JUMPDEST PUSH1 0x0 PUSH20 0xFFFFFFFFFFFFFFFFFFFFFFFFFFFFFFFFFFFFFFFF AND DUP8 PUSH20 0xFFFFFFFFFFFFFFFFFFFFFFFFFFFFFFFFFFFFFFFF AND SUB PUSH2 0xF01 JUMPI PUSH1 0x40 MLOAD PUSH32 0x8C379A000000000000000000000000000000000000000000000000000000000 DUP2 MSTORE PUSH1 0x4 ADD PUSH2 0xEF8 SWAP1 PUSH2 0x30A0 JUMP JUMPDEST PUSH1 0x40 MLOAD DUP1 SWAP2 SUB SWAP1 REVERT JUMPDEST DUP6 PUSH20 0xFFFFFFFFFFFFFFFFFFFFFFFFFFFFFFFFFFFFFFFF AND PUSH4 0x5245F3BD PUSH1 0x40 MLOAD DUP2 PUSH4 0xFFFFFFFF AND PUSH1 0xE0 SHL DUP2 MSTORE PUSH1 0x4 ADD PUSH1 0x20 PUSH1 0x40 MLOAD DUP1 DUP4 SUB DUP2 DUP7 GAS STATICCALL ISZERO DUP1 ISZERO PUSH2 0xF4C JUMPI RETURNDATASIZE PUSH1 0x0 DUP1 RETURNDATACOPY RETURNDATASIZE PUSH1 0x0 REVERT JUMPDEST POP POP POP POP PUSH1 0x40 MLOAD RETURNDATASIZE PUSH1 0x1F NOT PUSH1 0x1F DUP3 ADD AND DUP3 ADD DUP1 PUSH1 0x40 MSTORE POP DUP2 ADD SWAP1 PUSH2 0xF70 SWAP2 SWAP1 PUSH2 0x30D5 JUMP JUMPDEST PUSH20 0xFFFFFFFFFFFFFFFFFFFFFFFFFFFFFFFFFFFFFFFF AND DUP8 PUSH20 0xFFFFFFFFFFFFFFFFFFFFFFFFFFFFFFFFFFFFFFFF AND EQ PUSH2 0xFDD JUMPI PUSH1 0x40 MLOAD PUSH32 0x8C379A000000000000000000000000000000000000000000000000000000000 DUP2 MSTORE PUSH1 0x4 ADD PUSH2 0xFD4 SWAP1 PUSH2 0x314E JUMP JUMPDEST PUSH1 0x40 MLOAD DUP1 SWAP2 SUB SWAP1 REVERT JUMPDEST PUSH1 0x0 PUSH20 0xFFFFFFFFFFFFFFFFFFFFFFFFFFFFFFFFFFFFFFFF AND DUP7 PUSH20 0xFFFFFFFFFFFFFFFFFFFFFFFFFFFFFFFFFFFFFFFF AND SUB PUSH2 0x104C JUMPI PUSH1 0x40 MLOAD PUSH32 0x8C379A000000000000000000000000000000000000000000000000000000000 DUP2 MSTORE PUSH1 0x4 ADD PUSH2 0x1043 SWAP1 PUSH2 0x31E0 JUMP JUMPDEST PUSH1 0x40 MLOAD DUP1 SWAP2 SUB SWAP1 REVERT JUMPDEST PUSH1 0x0 PUSH20 0xFFFFFFFFFFFFFFFFFFFFFFFFFFFFFFFFFFFFFFFF AND DUP6 PUSH20 0xFFFFFFFFFFFFFFFFFFFFFFFFFFFFFFFFFFFFFFFF AND SUB PUSH2 0x10BB JUMPI PUSH1 0x40 MLOAD PUSH32 0x8C379A000000000000000000000000000000000000000000000000000000000 DUP2 MSTORE PUSH1 0x4 ADD PUSH2 0x10B2 SWAP1 PUSH2 0x3272 JUMP JUMPDEST PUSH1 0x40 MLOAD DUP1 SWAP2 SUB SWAP1 REVERT JUMPDEST PUSH1 0x0 DUP4 GT PUSH2 0x10FE JUMPI PUSH1 0x40 MLOAD PUSH32 0x8C379A000000000000000000000000000000000000000000000000000000000 DUP2 MSTORE PUSH1 0x4 ADD PUSH2 0x10F5 SWAP1 PUSH2 0x32DE JUMP JUMPDEST PUSH1 0x40 MLOAD DUP1 SWAP2 SUB SWAP1 REVERT JUMPDEST PUSH2 0x1108 DUP10 DUP10 PUSH2 0x1F52 JUMP JUMPDEST DUP6 PUSH1 0x66 PUSH1 0x0 PUSH2 0x100 EXP DUP2 SLOAD DUP2 PUSH20 0xFFFFFFFFFFFFFFFFFFFFFFFFFFFFFFFFFFFFFFFF MUL NOT AND SWAP1 DUP4 PUSH20 0xFFFFFFFFFFFFFFFFFFFFFFFFFFFFFFFFFFFFFFFF AND MUL OR SWAP1 SSTORE POP DUP7 PUSH1 0x67 PUSH1 0x0 PUSH2 0x100 EXP DUP2 SLOAD DUP2 PUSH20 0xFFFFFFFFFFFFFFFFFFFFFFFFFFFFFFFFFFFFFFFF MUL NOT AND SWAP1 DUP4 PUSH20 0xFFFFFFFFFFFFFFFFFFFFFFFFFFFFFFFFFFFFFFFF AND MUL OR SWAP1 SSTORE POP DUP5 PUSH1 0x68 PUSH1 0x0 PUSH2 0x100 EXP DUP2 SLOAD DUP2 PUSH20 0xFFFFFFFFFFFFFFFFFFFFFFFFFFFFFFFFFFFFFFFF MUL NOT AND SWAP1 DUP4 PUSH20 0xFFFFFFFFFFFFFFFFFFFFFFFFFFFFFFFFFFFFFFFF AND MUL OR SWAP1 SSTORE POP DUP4 PUSH1 0x65 PUSH1 0x0 PUSH2 0x100 EXP DUP2 SLOAD DUP2 PUSH20 0xFFFFFFFFFFFFFFFFFFFFFFFFFFFFFFFFFFFFFFFF MUL NOT AND SWAP1 DUP4 PUSH20 0xFFFFFFFFFFFFFFFFFFFFFFFFFFFFFFFFFFFFFFFF AND MUL OR SWAP1 SSTORE POP DUP3 PUSH1 0x69 DUP2 SWAP1 SSTORE POP PUSH1 0x0 PUSH1 0x6B PUSH1 0x0 PUSH1 0x67 PUSH1 0x0 SWAP1 SLOAD SWAP1 PUSH2 0x100 EXP SWAP1 DIV PUSH20 0xFFFFFFFFFFFFFFFFFFFFFFFFFFFFFFFFFFFFFFFF AND PUSH20 0xFFFFFFFFFFFFFFFFFFFFFFFFFFFFFFFFFFFFFFFF AND PUSH20 0xFFFFFFFFFFFFFFFFFFFFFFFFFFFFFFFFFFFFFFFF AND DUP2 MSTORE PUSH1 0x20 ADD SWAP1 DUP2 MSTORE PUSH1 0x20 ADD PUSH1 0x0 KECCAK256 DUP2 SWAP1 SSTORE POP PUSH2 0x1283 DUP5 PUSH2 0x1AF9 JUMP JUMPDEST PUSH2 0x128E DUP8 PUSH1 0xA PUSH2 0xA94 JUMP JUMPDEST PUSH2 0x1297 DUP5 PUSH2 0x1FAF JUMP JUMPDEST PUSH32 0xE05608333682EC730412D68C753DA81C47AE10D62539BB241E9E882DCA8311D7 DUP10 DUP10 DUP10 PUSH1 0x66 PUSH1 0x0 SWAP1 SLOAD SWAP1 PUSH2 0x100 EXP SWAP1 DIV PUSH20 0xFFFFFFFFFFFFFFFFFFFFFFFFFFFFFFFFFFFFFFFF AND PUSH1 0x68 PUSH1 0x0 SWAP1 SLOAD SWAP1 PUSH2 0x100 EXP SWAP1 DIV PUSH20 0xFFFFFFFFFFFFFFFFFFFFFFFFFFFFFFFFFFFFFFFF AND PUSH1 0x40 MLOAD PUSH2 0x1312 SWAP6 SWAP5 SWAP4 SWAP3 SWAP2 SWAP1 PUSH2 0x32FE JUMP JUMPDEST PUSH1 0x40 MLOAD DUP1 SWAP2 SUB SWAP1 LOG1 PUSH1 0x1 SWAP2 POP DUP1 ISZERO PUSH2 0x1377 JUMPI PUSH1 0x0 DUP1 PUSH1 0x1 PUSH2 0x100 EXP DUP2 SLOAD DUP2 PUSH1 0xFF MUL NOT AND SWAP1 DUP4 ISZERO ISZERO MUL OR SWAP1 SSTORE POP PUSH32 0x7F26B83FF96E1F2B6A682F133852F6798A09C465DA95921460CEFB3847402498 PUSH1 0x1 PUSH1 0x40 MLOAD PUSH2 0x136E SWAP2 SWAP1 PUSH2 0x339A JUMP JUMPDEST PUSH1 0x40 MLOAD DUP1 SWAP2 SUB SWAP1 LOG1 JUMPDEST POP SWAP8 SWAP7 POP POP POP POP POP POP POP JUMP JUMPDEST PUSH1 0x0 DUP1 PUSH2 0x138E PUSH2 0x18F9 JUMP JUMPDEST SWAP1 POP PUSH1 0x0 PUSH2 0x139C DUP3 DUP7 PUSH2 0x18E5 JUMP JUMPDEST SWAP1 POP DUP4 DUP2 LT ISZERO PUSH2 0x13E1 JUMPI PUSH1 0x40 MLOAD PUSH32 0x8C379A000000000000000000000000000000000000000000000000000000000 DUP2 MSTORE PUSH1 0x4 ADD PUSH2 0x13D8 SWAP1 PUSH2 0x3427 JUMP JUMPDEST PUSH1 0x40 MLOAD DUP1 SWAP2 SUB SWAP1 REVERT JUMPDEST PUSH2 0x13EE DUP3 DUP7 DUP7 DUP5 SUB PUSH2 0x1901 JUMP JUMPDEST PUSH1 0x1 SWAP3 POP POP POP SWAP3 SWAP2 POP POP JUMP JUMPDEST PUSH1 0x0 DUP1 PUSH2 0x1405 PUSH2 0x18F9 JUMP JUMPDEST SWAP1 POP PUSH2 0x1412 DUP2 DUP6 DUP6 PUSH2 0x200A JUMP JUMPDEST PUSH1 0x1 SWAP2 POP POP SWAP3 SWAP2 POP POP JUMP JUMPDEST PUSH1 0x0 PUSH2 0x1428 DUP3 PUSH2 0x1B54 JUMP JUMPDEST SWAP1 POP SWAP2 SWAP1 POP JUMP JUMPDEST PUSH1 0x0 PUSH1 0x67 PUSH1 0x0 SWAP1 SLOAD SWAP1 PUSH2 0x100 EXP SWAP1 DIV PUSH20 0xFFFFFFFFFFFFFFFFFFFFFFFFFFFFFFFFFFFFFFFF AND SWAP1 POP SWAP1 JUMP JUMPDEST NUMBER DUP5 LT ISZERO PUSH2 0x149C JUMPI PUSH1 0x40 MLOAD PUSH32 0x8C379A000000000000000000000000000000000000000000000000000000000 DUP2 MSTORE PUSH1 0x4 ADD PUSH2 0x1493 SWAP1 PUSH2 0x3493 JUMP JUMPDEST PUSH1 0x40 MLOAD DUP1 SWAP2 SUB SWAP1 REVERT JUMPDEST PUSH1 0x66 PUSH1 0x0 SWAP1 SLOAD SWAP1 PUSH2 0x100 EXP SWAP1 DIV PUSH20 0xFFFFFFFFFFFFFFFFFFFFFFFFFFFFFFFFFFFFFFFF AND PUSH20 0xFFFFFFFFFFFFFFFFFFFFFFFFFFFFFFFFFFFFFFFF AND PUSH4 0x5245F3BD PUSH1 0x40 MLOAD DUP2 PUSH4 0xFFFFFFFF AND PUSH1 0xE0 SHL DUP2 MSTORE PUSH1 0x4 ADD PUSH1 0x20 PUSH1 0x40 MLOAD DUP1 DUP4 SUB DUP2 DUP7 GAS STATICCALL ISZERO DUP1 ISZERO PUSH2 0x1509 JUMPI RETURNDATASIZE PUSH1 0x0 DUP1 RETURNDATACOPY RETURNDATASIZE PUSH1 0x0 REVERT JUMPDEST POP POP POP POP PUSH1 0x40 MLOAD RETURNDATASIZE PUSH1 0x1F NOT PUSH1 0x1F DUP3 ADD AND DUP3 ADD DUP1 PUSH1 0x40 MSTORE POP DUP2 ADD SWAP1 PUSH2 0x152D SWAP2 SWAP1 PUSH2 0x30D5 JUMP JUMPDEST PUSH20 0xFFFFFFFFFFFFFFFFFFFFFFFFFFFFFFFFFFFFFFFF AND DUP8 PUSH20 0xFFFFFFFFFFFFFFFFFFFFFFFFFFFFFFFFFFFFFFFF AND EQ PUSH2 0x159A JUMPI PUSH1 0x40 MLOAD PUSH32 0x8C379A000000000000000000000000000000000000000000000000000000000 DUP2 MSTORE PUSH1 0x4 ADD PUSH2 0x1591 SWAP1 PUSH2 0x34FF JUMP JUMPDEST PUSH1 0x40 MLOAD DUP1 SWAP2 SUB SWAP1 REVERT JUMPDEST PUSH1 0x0 DUP6 GT PUSH2 0x15DD JUMPI PUSH1 0x40 MLOAD PUSH32 0x8C379A000000000000000000000000000000000000000000000000000000000 DUP2 MSTORE PUSH1 0x4 ADD PUSH2 0x15D4 SWAP1 PUSH2 0x356B JUMP JUMPDEST PUSH1 0x40 MLOAD DUP1 SWAP2 SUB SWAP1 REVERT JUMPDEST PUSH1 0x0 PUSH1 0x6B PUSH1 0x0 DUP10 PUSH20 0xFFFFFFFFFFFFFFFFFFFFFFFFFFFFFFFFFFFFFFFF AND PUSH20 0xFFFFFFFFFFFFFFFFFFFFFFFFFFFFFFFFFFFFFFFF AND DUP2 MSTORE PUSH1 0x20 ADD SWAP1 DUP2 MSTORE PUSH1 0x20 ADD PUSH1 0x0 KECCAK256 SLOAD SWAP1 POP PUSH1 0x0 PUSH2 0x162B PUSH2 0x2283 JUMP JUMPDEST SWAP1 POP PUSH1 0x0 PUSH32 0x6E71EDAE12B1B97F4D1F60370FEF10105FA2FAAE0126114A169C64845D6126C9 DUP11 DUP11 DUP11 DUP7 DUP12 PUSH1 0x40 MLOAD PUSH1 0x20 ADD PUSH2 0x166A SWAP7 SWAP6 SWAP5 SWAP4 SWAP3 SWAP2 SWAP1 PUSH2 0x358B JUMP JUMPDEST PUSH1 0x40 MLOAD PUSH1 0x20 DUP2 DUP4 SUB SUB DUP2 MSTORE SWAP1 PUSH1 0x40 MSTORE DUP1 MLOAD SWAP1 PUSH1 0x20 ADD KECCAK256 SWAP1 POP PUSH1 0x0 DUP3 DUP3 PUSH1 0x40 MLOAD PUSH1 0x20 ADD PUSH2 0x1697 SWAP3 SWAP2 SWAP1 PUSH2 0x3664 JUMP JUMPDEST PUSH1 0x40 MLOAD PUSH1 0x20 DUP2 DUP4 SUB SUB DUP2 MSTORE SWAP1 PUSH1 0x40 MSTORE DUP1 MLOAD SWAP1 PUSH1 0x20 ADD KECCAK256 SWAP1 POP PUSH1 0x1 PUSH1 0x6B PUSH1 0x0 DUP14 PUSH20 0xFFFFFFFFFFFFFFFFFFFFFFFFFFFFFFFFFFFFFFFF AND PUSH20 0xFFFFFFFFFFFFFFFFFFFFFFFFFFFFFFFFFFFFFFFF AND DUP2 MSTORE PUSH1 0x20 ADD SWAP1 DUP2 MSTORE PUSH1 0x20 ADD PUSH1 0x0 KECCAK256 PUSH1 0x0 DUP3 DUP3 SLOAD PUSH2 0x16FF SWAP2 SWAP1 PUSH2 0x2D2C JUMP JUMPDEST SWAP3 POP POP DUP2 SWAP1 SSTORE POP PUSH1 0x1 DUP5 PUSH2 0x1713 SWAP2 SWAP1 PUSH2 0x2D2C JUMP JUMPDEST PUSH1 0x6B PUSH1 0x0 DUP14 PUSH20 0xFFFFFFFFFFFFFFFFFFFFFFFFFFFFFFFFFFFFFFFF AND PUSH20 0xFFFFFFFFFFFFFFFFFFFFFFFFFFFFFFFFFFFFFFFF AND DUP2 MSTORE PUSH1 0x20 ADD SWAP1 DUP2 MSTORE PUSH1 0x20 ADD PUSH1 0x0 KECCAK256 SLOAD EQ PUSH2 0x1793 JUMPI PUSH1 0x40 MLOAD PUSH32 0x8C379A000000000000000000000000000000000000000000000000000000000 DUP2 MSTORE PUSH1 0x4 ADD PUSH2 0x178A SWAP1 PUSH2 0x370D JUMP JUMPDEST PUSH1 0x40 MLOAD DUP1 SWAP2 SUB SWAP1 REVERT JUMPDEST PUSH1 0x0 PUSH1 0x1 DUP3 DUP10 DUP10 DUP10 PUSH1 0x40 MLOAD PUSH1 0x0 DUP2 MSTORE PUSH1 0x20 ADD PUSH1 0x40 MSTORE PUSH1 0x40 MLOAD PUSH2 0x17B8 SWAP5 SWAP4 SWAP3 SWAP2 SWAP1 PUSH2 0x372D JUMP JUMPDEST PUSH1 0x20 PUSH1 0x40 MLOAD PUSH1 0x20 DUP2 SUB SWAP1 DUP1 DUP5 SUB SWAP1 DUP6 GAS STATICCALL ISZERO DUP1 ISZERO PUSH2 0x17DA JUMPI RETURNDATASIZE PUSH1 0x0 DUP1 RETURNDATACOPY RETURNDATASIZE PUSH1 0x0 REVERT JUMPDEST POP POP POP PUSH1 0x20 PUSH1 0x40 MLOAD SUB MLOAD SWAP1 POP DUP12 PUSH20 0xFFFFFFFFFFFFFFFFFFFFFFFFFFFFFFFFFFFFFFFF AND DUP2 PUSH20 0xFFFFFFFFFFFFFFFFFFFFFFFFFFFFFFFFFFFFFFFF AND EQ PUSH2 0x1854 JUMPI PUSH1 0x40 MLOAD PUSH32 0x8C379A000000000000000000000000000000000000000000000000000000000 DUP2 MSTORE PUSH1 0x4 ADD PUSH2 0x184B SWAP1 PUSH2 0x37E4 JUMP JUMPDEST PUSH1 0x40 MLOAD DUP1 SWAP2 SUB SWAP1 REVERT JUMPDEST PUSH32 0x2581D87B6BF92E55ACC084919BD802BFFEC94ECD89B97547F0C868F7247F2044 DUP2 DUP14 DUP14 DUP14 PUSH1 0x40 MLOAD PUSH2 0x1889 SWAP5 SWAP4 SWAP3 SWAP2 SWAP1 PUSH2 0x3804 JUMP JUMPDEST PUSH1 0x40 MLOAD DUP1 SWAP2 SUB SWAP1 LOG1 PUSH32 0x1D532894F4A91EFABD8760A33513B6DFFBEEB81351269A70D1C35C540CAA5C8A DUP5 DUP5 DUP5 PUSH1 0x40 MLOAD PUSH2 0x18C4 SWAP4 SWAP3 SWAP2 SWAP1 PUSH2 0x3849 JUMP JUMPDEST PUSH1 0x40 MLOAD DUP1 SWAP2 SUB SWAP1 LOG1 PUSH2 0x18D7 DUP13 DUP13 DUP13 PUSH2 0x1901 JUMP JUMPDEST POP POP POP POP POP POP POP POP POP POP POP POP JUMP JUMPDEST PUSH1 0x0 PUSH2 0x18F1 DUP4 DUP4 PUSH2 0x232E JUMP JUMPDEST SWAP1 POP SWAP3 SWAP2 POP POP JUMP JUMPDEST PUSH1 0x0 CALLER SWAP1 POP SWAP1 JUMP JUMPDEST PUSH1 0x0 PUSH20 0xFFFFFFFFFFFFFFFFFFFFFFFFFFFFFFFFFFFFFFFF AND DUP4 PUSH20 0xFFFFFFFFFFFFFFFFFFFFFFFFFFFFFFFFFFFFFFFF AND SUB PUSH2 0x1970 JUMPI PUSH1 0x40 MLOAD PUSH32 0x8C379A000000000000000000000000000000000000000000000000000000000 DUP2 MSTORE PUSH1 0x4 ADD PUSH2 0x1967 SWAP1 PUSH2 0x38F2 JUMP JUMPDEST PUSH1 0x40 MLOAD DUP1 SWAP2 SUB SWAP1 REVERT JUMPDEST PUSH1 0x0 PUSH20 0xFFFFFFFFFFFFFFFFFFFFFFFFFFFFFFFFFFFFFFFF AND DUP3 PUSH20 0xFFFFFFFFFFFFFFFFFFFFFFFFFFFFFFFFFFFFFFFF AND SUB PUSH2 0x19DF JUMPI PUSH1 0x40 MLOAD PUSH32 0x8C379A000000000000000000000000000000000000000000000000000000000 DUP2 MSTORE PUSH1 0x4 ADD PUSH2 0x19D6 SWAP1 PUSH2 0x3984 JUMP JUMPDEST PUSH1 0x40 MLOAD DUP1 SWAP2 SUB SWAP1 REVERT JUMPDEST DUP1 PUSH1 0x34 PUSH1 0x0 DUP6 PUSH20 0xFFFFFFFFFFFFFFFFFFFFFFFFFFFFFFFFFFFFFFFF AND PUSH20 0xFFFFFFFFFFFFFFFFFFFFFFFFFFFFFFFFFFFFFFFF AND DUP2 MSTORE PUSH1 0x20 ADD SWAP1 DUP2 MSTORE PUSH1 0x20 ADD PUSH1 0x0 KECCAK256 PUSH1 0x0 DUP5 PUSH20 0xFFFFFFFFFFFFFFFFFFFFFFFFFFFFFFFFFFFFFFFF AND PUSH20 0xFFFFFFFFFFFFFFFFFFFFFFFFFFFFFFFFFFFFFFFF AND DUP2 MSTORE PUSH1 0x20 ADD SWAP1 DUP2 MSTORE PUSH1 0x20 ADD PUSH1 0x0 KECCAK256 DUP2 SWAP1 SSTORE POP DUP2 PUSH20 0xFFFFFFFFFFFFFFFFFFFFFFFFFFFFFFFFFFFFFFFF AND DUP4 PUSH20 0xFFFFFFFFFFFFFFFFFFFFFFFFFFFFFFFFFFFFFFFF AND PUSH32 0x8C5BE1E5EBEC7D5BD14F71427D1E84F3DD0314C0F7B2291E5B200AC8C7C3B925 DUP4 PUSH1 0x40 MLOAD PUSH2 0x1ABD SWAP2 SWAP1 PUSH2 0x269D JUMP JUMPDEST PUSH1 0x40 MLOAD DUP1 SWAP2 SUB SWAP1 LOG3 POP POP POP JUMP JUMPDEST PUSH1 0x0 DUP1 PUSH2 0x1AD5 PUSH2 0x18F9 JUMP JUMPDEST SWAP1 POP PUSH2 0x1AE2 DUP6 DUP3 DUP6 PUSH2 0x23B5 JUMP JUMPDEST PUSH2 0x1AED DUP6 DUP6 DUP6 PUSH2 0x200A JUMP JUMPDEST PUSH1 0x1 SWAP2 POP POP SWAP4 SWAP3 POP POP POP JUMP JUMPDEST PUSH1 0x1 PUSH1 0x6A PUSH1 0x0 DUP4 PUSH20 0xFFFFFFFFFFFFFFFFFFFFFFFFFFFFFFFFFFFFFFFF AND PUSH20 0xFFFFFFFFFFFFFFFFFFFFFFFFFFFFFFFFFFFFFFFF AND DUP2 MSTORE PUSH1 0x20 ADD SWAP1 DUP2 MSTORE PUSH1 0x20 ADD PUSH1 0x0 KECCAK256 PUSH1 0x0 PUSH2 0x100 EXP DUP2 SLOAD DUP2 PUSH1 0xFF MUL NOT AND SWAP1 DUP4 ISZERO ISZERO MUL OR SWAP1 SSTORE POP POP JUMP JUMPDEST PUSH1 0x0 PUSH1 0x6A PUSH1 0x0 DUP4 PUSH20 0xFFFFFFFFFFFFFFFFFFFFFFFFFFFFFFFFFFFFFFFF AND PUSH20 0xFFFFFFFFFFFFFFFFFFFFFFFFFFFFFFFFFFFFFFFF AND DUP2 MSTORE PUSH1 0x20 ADD SWAP1 DUP2 MSTORE PUSH1 0x20 ADD PUSH1 0x0 KECCAK256 PUSH1 0x0 SWAP1 SLOAD SWAP1 PUSH2 0x100 EXP SWAP1 DIV PUSH1 0xFF AND SWAP1 POP SWAP2 SWAP1 POP JUMP JUMPDEST PUSH1 0x0 DUP2 DUP4 PUSH2 0x1BB8 SWAP2 SWAP1 PUSH2 0x2D2C JUMP JUMPDEST SWAP1 POP SWAP3 SWAP2 POP POP JUMP JUMPDEST PUSH1 0x0 PUSH20 0xFFFFFFFFFFFFFFFFFFFFFFFFFFFFFFFFFFFFFFFF AND DUP3 PUSH20 0xFFFFFFFFFFFFFFFFFFFFFFFFFFFFFFFFFFFFFFFF AND SUB PUSH2 0x1C2F JUMPI PUSH1 0x40 MLOAD PUSH32 0x8C379A000000000000000000000000000000000000000000000000000000000 DUP2 MSTORE PUSH1 0x4 ADD PUSH2 0x1C26 SWAP1 PUSH2 0x39F0 JUMP JUMPDEST PUSH1 0x40 MLOAD DUP1 SWAP2 SUB SWAP1 REVERT JUMPDEST PUSH2 0x1C3B PUSH1 0x0 DUP4 DUP4 PUSH2 0x2441 JUMP JUMPDEST DUP1 PUSH1 0x35 PUSH1 0x0 DUP3 DUP3 SLOAD PUSH2 0x1C4D SWAP2 SWAP1 PUSH2 0x2D2C JUMP JUMPDEST SWAP3 POP POP DUP2 SWAP1 SSTORE POP DUP1 PUSH1 0x33 PUSH1 0x0 DUP5 PUSH20 0xFFFFFFFFFFFFFFFFFFFFFFFFFFFFFFFFFFFFFFFF AND PUSH20 0xFFFFFFFFFFFFFFFFFFFFFFFFFFFFFFFFFFFFFFFF AND DUP2 MSTORE PUSH1 0x20 ADD SWAP1 DUP2 MSTORE PUSH1 0x20 ADD PUSH1 0x0 KECCAK256 PUSH1 0x0 DUP3 DUP3 SLOAD ADD SWAP3 POP POP DUP2 SWAP1 SSTORE POP DUP2 PUSH20 0xFFFFFFFFFFFFFFFFFFFFFFFFFFFFFFFFFFFFFFFF AND PUSH1 0x0 PUSH20 0xFFFFFFFFFFFFFFFFFFFFFFFFFFFFFFFFFFFFFFFF AND PUSH32 0xDDF252AD1BE2C89B69C2B068FC378DAA952BA7F163C4A11628F55A4DF523B3EF DUP4 PUSH1 0x40 MLOAD PUSH2 0x1CFF SWAP2 SWAP1 PUSH2 0x269D JUMP JUMPDEST PUSH1 0x40 MLOAD DUP1 SWAP2 SUB SWAP1 LOG3 PUSH2 0x1D13 PUSH1 0x0 DUP4 DUP4 PUSH2 0x2446 JUMP JUMPDEST POP POP JUMP JUMPDEST PUSH1 0x0 PUSH20 0xFFFFFFFFFFFFFFFFFFFFFFFFFFFFFFFFFFFFFFFF AND DUP3 PUSH20 0xFFFFFFFFFFFFFFFFFFFFFFFFFFFFFFFFFFFFFFFF AND SUB PUSH2 0x1D86 JUMPI PUSH1 0x40 MLOAD PUSH32 0x8C379A000000000000000000000000000000000000000000000000000000000 DUP2 MSTORE PUSH1 0x4 ADD PUSH2 0x1D7D SWAP1 PUSH2 0x3A82 JUMP JUMPDEST PUSH1 0x40 MLOAD DUP1 SWAP2 SUB SWAP1 REVERT JUMPDEST PUSH2 0x1D92 DUP3 PUSH1 0x0 DUP4 PUSH2 0x2441 JUMP JUMPDEST PUSH1 0x0 PUSH1 0x33 PUSH1 0x0 DUP5 PUSH20 0xFFFFFFFFFFFFFFFFFFFFFFFFFFFFFFFFFFFFFFFF AND PUSH20 0xFFFFFFFFFFFFFFFFFFFFFFFFFFFFFFFFFFFFFFFF AND DUP2 MSTORE PUSH1 0x20 ADD SWAP1 DUP2 MSTORE PUSH1 0x20 ADD PUSH1 0x0 KECCAK256 SLOAD SWAP1 POP DUP2 DUP2 LT ISZERO PUSH2 0x1E19 JUMPI PUSH1 0x40 MLOAD PUSH32 0x8C379A000000000000000000000000000000000000000000000000000000000 DUP2 MSTORE PUSH1 0x4 ADD PUSH2 0x1E10 SWAP1 PUSH2 0x3B14 JUMP JUMPDEST PUSH1 0x40 MLOAD DUP1 SWAP2 SUB SWAP1 REVERT JUMPDEST DUP2 DUP2 SUB PUSH1 0x33 PUSH1 0x0 DUP6 PUSH20 0xFFFFFFFFFFFFFFFFFFFFFFFFFFFFFFFFFFFFFFFF AND PUSH20 0xFFFFFFFFFFFFFFFFFFFFFFFFFFFFFFFFFFFFFFFF AND DUP2 MSTORE PUSH1 0x20 ADD SWAP1 DUP2 MSTORE PUSH1 0x20 ADD PUSH1 0x0 KECCAK256 DUP2 SWAP1 SSTORE POP DUP2 PUSH1 0x35 PUSH1 0x0 DUP3 DUP3 SLOAD SUB SWAP3 POP POP DUP2 SWAP1 SSTORE POP PUSH1 0x0 PUSH20 0xFFFFFFFFFFFFFFFFFFFFFFFFFFFFFFFFFFFFFFFF AND DUP4 PUSH20 0xFFFFFFFFFFFFFFFFFFFFFFFFFFFFFFFFFFFFFFFF AND PUSH32 0xDDF252AD1BE2C89B69C2B068FC378DAA952BA7F163C4A11628F55A4DF523B3EF DUP5 PUSH1 0x40 MLOAD PUSH2 0x1ECD SWAP2 SWAP1 PUSH2 0x269D JUMP JUMPDEST PUSH1 0x40 MLOAD DUP1 SWAP2 SUB SWAP1 LOG3 PUSH2 0x1EE1 DUP4 PUSH1 0x0 DUP5 PUSH2 0x2446 JUMP JUMPDEST POP POP POP JUMP JUMPDEST PUSH1 0x0 PUSH1 0x33 PUSH1 0x0 DUP4 PUSH20 0xFFFFFFFFFFFFFFFFFFFFFFFFFFFFFFFFFFFFFFFF AND PUSH20 0xFFFFFFFFFFFFFFFFFFFFFFFFFFFFFFFFFFFFFFFF AND DUP2 MSTORE PUSH1 0x20 ADD SWAP1 DUP2 MSTORE PUSH1 0x20 ADD PUSH1 0x0 KECCAK256 SLOAD SWAP1 POP SWAP2 SWAP1 POP JUMP JUMPDEST PUSH1 0x0 DUP1 DUP3 PUSH20 0xFFFFFFFFFFFFFFFFFFFFFFFFFFFFFFFFFFFFFFFF AND EXTCODESIZE GT SWAP1 POP SWAP2 SWAP1 POP JUMP JUMPDEST PUSH1 0x0 PUSH1 0x1 SWAP1 SLOAD SWAP1 PUSH2 0x100 EXP SWAP1 DIV PUSH1 0xFF AND PUSH2 0x1FA1 JUMPI PUSH1 0x40 MLOAD PUSH32 0x8C379A000000000000000000000000000000000000000000000000000000000 DUP2 MSTORE PUSH1 0x4 ADD PUSH2 0x1F98 SWAP1 PUSH2 0x3BA6 JUMP JUMPDEST PUSH1 0x40 MLOAD DUP1 SWAP2 SUB SWAP1 REVERT JUMPDEST PUSH2 0x1FAB DUP3 DUP3 PUSH2 0x244B JUMP JUMPDEST POP POP JUMP JUMPDEST PUSH1 0x0 PUSH1 0x6A PUSH1 0x0 DUP4 PUSH20 0xFFFFFFFFFFFFFFFFFFFFFFFFFFFFFFFFFFFFFFFF AND PUSH20 0xFFFFFFFFFFFFFFFFFFFFFFFFFFFFFFFFFFFFFFFF AND DUP2 MSTORE PUSH1 0x20 ADD SWAP1 DUP2 MSTORE PUSH1 0x20 ADD PUSH1 0x0 KECCAK256 PUSH1 0x0 PUSH2 0x100 EXP DUP2 SLOAD DUP2 PUSH1 0xFF MUL NOT AND SWAP1 DUP4 ISZERO ISZERO MUL OR SWAP1 SSTORE POP POP JUMP JUMPDEST PUSH1 0x0 PUSH20 0xFFFFFFFFFFFFFFFFFFFFFFFFFFFFFFFFFFFFFFFF AND DUP4 PUSH20 0xFFFFFFFFFFFFFFFFFFFFFFFFFFFFFFFFFFFFFFFF AND SUB PUSH2 0x2079 JUMPI PUSH1 0x40 MLOAD PUSH32 0x8C379A000000000000000000000000000000000000000000000000000000000 DUP2 MSTORE PUSH1 0x4 ADD PUSH2 0x2070 SWAP1 PUSH2 0x3C38 JUMP JUMPDEST PUSH1 0x40 MLOAD DUP1 SWAP2 SUB SWAP1 REVERT JUMPDEST PUSH1 0x0 PUSH20 0xFFFFFFFFFFFFFFFFFFFFFFFFFFFFFFFFFFFFFFFF AND DUP3 PUSH20 0xFFFFFFFFFFFFFFFFFFFFFFFFFFFFFFFFFFFFFFFF AND SUB PUSH2 0x20E8 JUMPI PUSH1 0x40 MLOAD PUSH32 0x8C379A000000000000000000000000000000000000000000000000000000000 DUP2 MSTORE PUSH1 0x4 ADD PUSH2 0x20DF SWAP1 PUSH2 0x3CCA JUMP JUMPDEST PUSH1 0x40 MLOAD DUP1 SWAP2 SUB SWAP1 REVERT JUMPDEST PUSH2 0x20F3 DUP4 DUP4 DUP4 PUSH2 0x2441 JUMP JUMPDEST PUSH1 0x0 PUSH1 0x33 PUSH1 0x0 DUP6 PUSH20 0xFFFFFFFFFFFFFFFFFFFFFFFFFFFFFFFFFFFFFFFF AND PUSH20 0xFFFFFFFFFFFFFFFFFFFFFFFFFFFFFFFFFFFFFFFF AND DUP2 MSTORE PUSH1 0x20 ADD SWAP1 DUP2 MSTORE PUSH1 0x20 ADD PUSH1 0x0 KECCAK256 SLOAD SWAP1 POP DUP2 DUP2 LT ISZERO PUSH2 0x217A JUMPI PUSH1 0x40 MLOAD PUSH32 0x8C379A000000000000000000000000000000000000000000000000000000000 DUP2 MSTORE PUSH1 0x4 ADD PUSH2 0x2171 SWAP1 PUSH2 0x3D5C JUMP JUMPDEST PUSH1 0x40 MLOAD DUP1 SWAP2 SUB SWAP1 REVERT JUMPDEST DUP2 DUP2 SUB PUSH1 0x33 PUSH1 0x0 DUP7 PUSH20 0xFFFFFFFFFFFFFFFFFFFFFFFFFFFFFFFFFFFFFFFF AND PUSH20 0xFFFFFFFFFFFFFFFFFFFFFFFFFFFFFFFFFFFFFFFF AND DUP2 MSTORE PUSH1 0x20 ADD SWAP1 DUP2 MSTORE PUSH1 0x20 ADD PUSH1 0x0 KECCAK256 DUP2 SWAP1 SSTORE POP DUP2 PUSH1 0x33 PUSH1 0x0 DUP6 PUSH20 0xFFFFFFFFFFFFFFFFFFFFFFFFFFFFFFFFFFFFFFFF AND PUSH20 0xFFFFFFFFFFFFFFFFFFFFFFFFFFFFFFFFFFFFFFFF AND DUP2 MSTORE PUSH1 0x20 ADD SWAP1 DUP2 MSTORE PUSH1 0x20 ADD PUSH1 0x0 KECCAK256 PUSH1 0x0 DUP3 DUP3 SLOAD ADD SWAP3 POP POP DUP2 SWAP1 SSTORE POP DUP3 PUSH20 0xFFFFFFFFFFFFFFFFFFFFFFFFFFFFFFFFFFFFFFFF AND DUP5 PUSH20 0xFFFFFFFFFFFFFFFFFFFFFFFFFFFFFFFFFFFFFFFF AND PUSH32 0xDDF252AD1BE2C89B69C2B068FC378DAA952BA7F163C4A11628F55A4DF523B3EF DUP5 PUSH1 0x40 MLOAD PUSH2 0x226A SWAP2 SWAP1 PUSH2 0x269D JUMP JUMPDEST PUSH1 0x40 MLOAD DUP1 SWAP2 SUB SWAP1 LOG3 PUSH2 0x227D DUP5 DUP5 DUP5 PUSH2 0x2446 JUMP JUMPDEST POP POP POP POP JUMP JUMPDEST PUSH1 0x0 DUP1 CHAINID SWAP1 POP PUSH1 0x0 PUSH32 0x8B73C3C69BB8FE3D512ECC4CF759CC79239F7B179B0FFACAA9A75D522B39400F PUSH2 0x22B4 PUSH2 0x5E6 JUMP JUMPDEST DUP1 MLOAD SWAP1 PUSH1 0x20 ADD KECCAK256 PUSH1 0x40 MLOAD DUP1 PUSH1 0x40 ADD PUSH1 0x40 MSTORE DUP1 PUSH1 0x1 DUP2 MSTORE PUSH1 0x20 ADD PUSH32 0x3100000000000000000000000000000000000000000000000000000000000000 DUP2 MSTORE POP DUP1 MLOAD SWAP1 PUSH1 0x20 ADD KECCAK256 DUP5 ADDRESS PUSH1 0x40 MLOAD PUSH1 0x20 ADD PUSH2 0x230E SWAP6 SWAP5 SWAP4 SWAP3 SWAP2 SWAP1 PUSH2 0x3D7C JUMP JUMPDEST PUSH1 0x40 MLOAD PUSH1 0x20 DUP2 DUP4 SUB SUB DUP2 MSTORE SWAP1 PUSH1 0x40 MSTORE DUP1 MLOAD SWAP1 PUSH1 0x20 ADD KECCAK256 SWAP1 POP DUP1 SWAP3 POP POP POP SWAP1 JUMP JUMPDEST PUSH1 0x0 PUSH1 0x34 PUSH1 0x0 DUP5 PUSH20 0xFFFFFFFFFFFFFFFFFFFFFFFFFFFFFFFFFFFFFFFF AND PUSH20 0xFFFFFFFFFFFFFFFFFFFFFFFFFFFFFFFFFFFFFFFF AND DUP2 MSTORE PUSH1 0x20 ADD SWAP1 DUP2 MSTORE PUSH1 0x20 ADD PUSH1 0x0 KECCAK256 PUSH1 0x0 DUP4 PUSH20 0xFFFFFFFFFFFFFFFFFFFFFFFFFFFFFFFFFFFFFFFF AND PUSH20 0xFFFFFFFFFFFFFFFFFFFFFFFFFFFFFFFFFFFFFFFF AND DUP2 MSTORE PUSH1 0x20 ADD SWAP1 DUP2 MSTORE PUSH1 0x20 ADD PUSH1 0x0 KECCAK256 SLOAD SWAP1 POP SWAP3 SWAP2 POP POP JUMP JUMPDEST PUSH1 0x0 PUSH2 0x23C1 DUP5 DUP5 PUSH2 0x18E5 JUMP JUMPDEST SWAP1 POP PUSH32 0xFFFFFFFFFFFFFFFFFFFFFFFFFFFFFFFFFFFFFFFFFFFFFFFFFFFFFFFFFFFFFFFF DUP2 EQ PUSH2 0x243B JUMPI DUP2 DUP2 LT ISZERO PUSH2 0x242D JUMPI PUSH1 0x40 MLOAD PUSH32 0x8C379A000000000000000000000000000000000000000000000000000000000 DUP2 MSTORE PUSH1 0x4 ADD PUSH2 0x2424 SWAP1 PUSH2 0x3E1B JUMP JUMPDEST PUSH1 0x40 MLOAD DUP1 SWAP2 SUB SWAP1 REVERT JUMPDEST PUSH2 0x243A DUP5 DUP5 DUP5 DUP5 SUB PUSH2 0x1901 JUMP JUMPDEST JUMPDEST POP POP POP POP JUMP JUMPDEST POP POP POP JUMP JUMPDEST POP POP POP JUMP JUMPDEST PUSH1 0x0 PUSH1 0x1 SWAP1 SLOAD SWAP1 PUSH2 0x100 EXP SWAP1 DIV PUSH1 0xFF AND PUSH2 0x249A JUMPI PUSH1 0x40 MLOAD PUSH32 0x8C379A000000000000000000000000000000000000000000000000000000000 DUP2 MSTORE PUSH1 0x4 ADD PUSH2 0x2491 SWAP1 PUSH2 0x3BA6 JUMP JUMPDEST PUSH1 0x40 MLOAD DUP1 SWAP2 SUB SWAP1 REVERT JUMPDEST DUP2 PUSH1 0x36 SWAP1 DUP2 PUSH2 0x24A9 SWAP2 SWAP1 PUSH2 0x3FDD JUMP JUMPDEST POP DUP1 PUSH1 0x37 SWAP1 DUP2 PUSH2 0x24B9 SWAP2 SWAP1 PUSH2 0x3FDD JUMP JUMPDEST POP POP POP JUMP JUMPDEST PUSH1 0x0 DUP2 MLOAD SWAP1 POP SWAP2 SWAP1 POP JUMP JUMPDEST PUSH1 0x0 DUP3 DUP3 MSTORE PUSH1 0x20 DUP3 ADD SWAP1 POP SWAP3 SWAP2 POP POP JUMP JUMPDEST PUSH1 0x0 JUMPDEST DUP4 DUP2 LT ISZERO PUSH2 0x24F8 JUMPI DUP1 DUP3 ADD MLOAD DUP2 DUP5 ADD MSTORE PUSH1 0x20 DUP2 ADD SWAP1 POP PUSH2 0x24DD JUMP JUMPDEST PUSH1 0x0 DUP5 DUP5 ADD MSTORE POP POP POP POP JUMP JUMPDEST PUSH1 0x0 PUSH1 0x1F NOT PUSH1 0x1F DUP4 ADD AND SWAP1 POP SWAP2 SWAP1 POP JUMP JUMPDEST PUSH1 0x0 PUSH2 0x2520 DUP3 PUSH2 0x24BE JUMP JUMPDEST PUSH2 0x252A DUP2 DUP6 PUSH2 0x24C9 JUMP JUMPDEST SWAP4 POP PUSH2 0x253A DUP2 DUP6 PUSH1 0x20 DUP7 ADD PUSH2 0x24DA JUMP JUMPDEST PUSH2 0x2543 DUP2 PUSH2 0x2504 JUMP JUMPDEST DUP5 ADD SWAP2 POP POP SWAP3 SWAP2 POP POP JUMP JUMPDEST PUSH1 0x0 PUSH1 0x20 DUP3 ADD SWAP1 POP DUP2 DUP2 SUB PUSH1 0x0 DUP4 ADD MSTORE PUSH2 0x2568 DUP2 DUP5 PUSH2 0x2515 JUMP JUMPDEST SWAP1 POP SWAP3 SWAP2 POP POP JUMP JUMPDEST PUSH1 0x0 PUSH1 0x40 MLOAD SWAP1 POP SWAP1 JUMP JUMPDEST PUSH1 0x0 DUP1 REVERT JUMPDEST PUSH1 0x0 DUP1 REVERT JUMPDEST PUSH1 0x0 PUSH20 0xFFFFFFFFFFFFFFFFFFFFFFFFFFFFFFFFFFFFFFFF DUP3 AND SWAP1 POP SWAP2 SWAP1 POP JUMP JUMPDEST PUSH1 0x0 PUSH2 0x25AF DUP3 PUSH2 0x2584 JUMP JUMPDEST SWAP1 POP SWAP2 SWAP1 POP JUMP JUMPDEST PUSH2 0x25BF DUP2 PUSH2 0x25A4 JUMP JUMPDEST DUP2 EQ PUSH2 0x25CA JUMPI PUSH1 0x0 DUP1 REVERT JUMPDEST POP JUMP JUMPDEST PUSH1 0x0 DUP2 CALLDATALOAD SWAP1 POP PUSH2 0x25DC DUP2 PUSH2 0x25B6 JUMP JUMPDEST SWAP3 SWAP2 POP POP JUMP JUMPDEST PUSH1 0x0 DUP2 SWAP1 POP SWAP2 SWAP1 POP JUMP JUMPDEST PUSH2 0x25F5 DUP2 PUSH2 0x25E2 JUMP JUMPDEST DUP2 EQ PUSH2 0x2600 JUMPI PUSH1 0x0 DUP1 REVERT JUMPDEST POP JUMP JUMPDEST PUSH1 0x0 DUP2 CALLDATALOAD SWAP1 POP PUSH2 0x2612 DUP2 PUSH2 0x25EC JUMP JUMPDEST SWAP3 SWAP2 POP POP JUMP JUMPDEST PUSH1 0x0 DUP1 PUSH1 0x40 DUP4 DUP6 SUB SLT ISZERO PUSH2 0x262F JUMPI PUSH2 0x262E PUSH2 0x257A JUMP JUMPDEST JUMPDEST PUSH1 0x0 PUSH2 0x263D DUP6 DUP3 DUP7 ADD PUSH2 0x25CD JUMP JUMPDEST SWAP3 POP POP PUSH1 0x20 PUSH2 0x264E DUP6 DUP3 DUP7 ADD PUSH2 0x2603 JUMP JUMPDEST SWAP2 POP POP SWAP3 POP SWAP3 SWAP1 POP JUMP JUMPDEST PUSH1 0x0 DUP2 ISZERO ISZERO SWAP1 POP SWAP2 SWAP1 POP JUMP JUMPDEST PUSH2 0x266D DUP2 PUSH2 0x2658 JUMP JUMPDEST DUP3 MSTORE POP POP JUMP JUMPDEST PUSH1 0x0 PUSH1 0x20 DUP3 ADD SWAP1 POP PUSH2 0x2688 PUSH1 0x0 DUP4 ADD DUP5 PUSH2 0x2664 JUMP JUMPDEST SWAP3 SWAP2 POP POP JUMP JUMPDEST PUSH2 0x2697 DUP2 PUSH2 0x25E2 JUMP JUMPDEST DUP3 MSTORE POP POP JUMP JUMPDEST PUSH1 0x0 PUSH1 0x20 DUP3 ADD SWAP1 POP PUSH2 0x26B2 PUSH1 0x0 DUP4 ADD DUP5 PUSH2 0x268E JUMP JUMPDEST SWAP3 SWAP2 POP POP JUMP JUMPDEST PUSH1 0x0 DUP1 PUSH1 0x0 PUSH1 0x60 DUP5 DUP7 SUB SLT ISZERO PUSH2 0x26D1 JUMPI PUSH2 0x26D0 PUSH2 0x257A JUMP JUMPDEST JUMPDEST PUSH1 0x0 PUSH2 0x26DF DUP7 DUP3 DUP8 ADD PUSH2 0x25CD JUMP JUMPDEST SWAP4 POP POP PUSH1 0x20 PUSH2 0x26F0 DUP7 DUP3 DUP8 ADD PUSH2 0x25CD JUMP JUMPDEST SWAP3 POP POP PUSH1 0x40 PUSH2 0x2701 DUP7 DUP3 DUP8 ADD PUSH2 0x2603 JUMP JUMPDEST SWAP2 POP POP SWAP3 POP SWAP3 POP SWAP3 JUMP JUMPDEST PUSH1 0x0 DUP1 PUSH1 0x0 PUSH1 0x60 DUP5 DUP7 SUB SLT ISZERO PUSH2 0x2724 JUMPI PUSH2 0x2723 PUSH2 0x257A JUMP JUMPDEST JUMPDEST PUSH1 0x0 PUSH2 0x2732 DUP7 DUP3 DUP8 ADD PUSH2 0x25CD JUMP JUMPDEST SWAP4 POP POP PUSH1 0x20 PUSH2 0x2743 DUP7 DUP3 DUP8 ADD PUSH2 0x2603 JUMP JUMPDEST SWAP3 POP POP PUSH1 0x40 PUSH2 0x2754 DUP7 DUP3 DUP8 ADD PUSH2 0x2603 JUMP JUMPDEST SWAP2 POP POP SWAP3 POP SWAP3 POP SWAP3 JUMP JUMPDEST PUSH1 0x0 DUP2 SWAP1 POP SWAP2 SWAP1 POP JUMP JUMPDEST PUSH2 0x2771 DUP2 PUSH2 0x275E JUMP JUMPDEST DUP3 MSTORE POP POP JUMP JUMPDEST PUSH1 0x0 PUSH1 0x20 DUP3 ADD SWAP1 POP PUSH2 0x278C PUSH1 0x0 DUP4 ADD DUP5 PUSH2 0x2768 JUMP JUMPDEST SWAP3 SWAP2 POP POP JUMP JUMPDEST PUSH1 0x0 PUSH1 0xFF DUP3 AND SWAP1 POP SWAP2 SWAP1 POP JUMP JUMPDEST PUSH2 0x27A8 DUP2 PUSH2 0x2792 JUMP JUMPDEST DUP3 MSTORE POP POP JUMP JUMPDEST PUSH1 0x0 PUSH1 0x20 DUP3 ADD SWAP1 POP PUSH2 0x27C3 PUSH1 0x0 DUP4 ADD DUP5 PUSH2 0x279F JUMP JUMPDEST SWAP3 SWAP2 POP POP JUMP JUMPDEST PUSH1 0x0 PUSH1 0x20 DUP3 DUP5 SUB SLT ISZERO PUSH2 0x27DF JUMPI PUSH2 0x27DE PUSH2 0x257A JUMP JUMPDEST JUMPDEST PUSH1 0x0 PUSH2 0x27ED DUP5 DUP3 DUP6 ADD PUSH2 0x2603 JUMP JUMPDEST SWAP2 POP POP SWAP3 SWAP2 POP POP JUMP JUMPDEST PUSH1 0x0 PUSH1 0x20 DUP3 DUP5 SUB SLT ISZERO PUSH2 0x280C JUMPI PUSH2 0x280B PUSH2 0x257A JUMP JUMPDEST JUMPDEST PUSH1 0x0 PUSH2 0x281A DUP5 DUP3 DUP6 ADD PUSH2 0x25CD JUMP JUMPDEST SWAP2 POP POP SWAP3 SWAP2 POP POP JUMP JUMPDEST PUSH1 0x0 DUP1 REVERT JUMPDEST PUSH1 0x0 DUP1 REVERT JUMPDEST PUSH32 0x4E487B7100000000000000000000000000000000000000000000000000000000 PUSH1 0x0 MSTORE PUSH1 0x41 PUSH1 0x4 MSTORE PUSH1 0x24 PUSH1 0x0 REVERT JUMPDEST PUSH2 0x2865 DUP3 PUSH2 0x2504 JUMP JUMPDEST DUP2 ADD DUP2 DUP2 LT PUSH8 0xFFFFFFFFFFFFFFFF DUP3 GT OR ISZERO PUSH2 0x2884 JUMPI PUSH2 0x2883 PUSH2 0x282D JUMP JUMPDEST JUMPDEST DUP1 PUSH1 0x40 MSTORE POP POP POP JUMP JUMPDEST PUSH1 0x0 PUSH2 0x2897 PUSH2 0x2570 JUMP JUMPDEST SWAP1 POP PUSH2 0x28A3 DUP3 DUP3 PUSH2 0x285C JUMP JUMPDEST SWAP2 SWAP1 POP JUMP JUMPDEST PUSH1 0x0 PUSH8 0xFFFFFFFFFFFFFFFF DUP3 GT ISZERO PUSH2 0x28C3 JUMPI PUSH2 0x28C2 PUSH2 0x282D JUMP JUMPDEST JUMPDEST PUSH2 0x28CC DUP3 PUSH2 0x2504 JUMP JUMPDEST SWAP1 POP PUSH1 0x20 DUP2 ADD SWAP1 POP SWAP2 SWAP1 POP JUMP JUMPDEST DUP3 DUP2 DUP4 CALLDATACOPY PUSH1 0x0 DUP4 DUP4 ADD MSTORE POP POP POP JUMP JUMPDEST PUSH1 0x0 PUSH2 0x28FB PUSH2 0x28F6 DUP5 PUSH2 0x28A8 JUMP JUMPDEST PUSH2 0x288D JUMP JUMPDEST SWAP1 POP DUP3 DUP2 MSTORE PUSH1 0x20 DUP2 ADD DUP5 DUP5 DUP5 ADD GT ISZERO PUSH2 0x2917 JUMPI PUSH2 0x2916 PUSH2 0x2828 JUMP JUMPDEST JUMPDEST PUSH2 0x2922 DUP5 DUP3 DUP6 PUSH2 0x28D9 JUMP JUMPDEST POP SWAP4 SWAP3 POP POP POP JUMP JUMPDEST PUSH1 0x0 DUP3 PUSH1 0x1F DUP4 ADD SLT PUSH2 0x293F JUMPI PUSH2 0x293E PUSH2 0x2823 JUMP JUMPDEST JUMPDEST DUP2 CALLDATALOAD PUSH2 0x294F DUP5 DUP3 PUSH1 0x20 DUP7 ADD PUSH2 0x28E8 JUMP JUMPDEST SWAP2 POP POP SWAP3 SWAP2 POP POP JUMP JUMPDEST PUSH1 0x0 DUP1 PUSH1 0x0 DUP1 PUSH1 0x0 DUP1 PUSH1 0x0 PUSH1 0xE0 DUP9 DUP11 SUB SLT ISZERO PUSH2 0x2977 JUMPI PUSH2 0x2976 PUSH2 0x257A JUMP JUMPDEST JUMPDEST PUSH1 0x0 DUP9 ADD CALLDATALOAD PUSH8 0xFFFFFFFFFFFFFFFF DUP2 GT ISZERO PUSH2 0x2995 JUMPI PUSH2 0x2994 PUSH2 0x257F JUMP JUMPDEST JUMPDEST PUSH2 0x29A1 DUP11 DUP3 DUP12 ADD PUSH2 0x292A JUMP JUMPDEST SWAP8 POP POP PUSH1 0x20 DUP9 ADD CALLDATALOAD PUSH8 0xFFFFFFFFFFFFFFFF DUP2 GT ISZERO PUSH2 0x29C2 JUMPI PUSH2 0x29C1 PUSH2 0x257F JUMP JUMPDEST JUMPDEST PUSH2 0x29CE DUP11 DUP3 DUP12 ADD PUSH2 0x292A JUMP JUMPDEST SWAP7 POP POP PUSH1 0x40 PUSH2 0x29DF DUP11 DUP3 DUP12 ADD PUSH2 0x25CD JUMP JUMPDEST SWAP6 POP POP PUSH1 0x60 PUSH2 0x29F0 DUP11 DUP3 DUP12 ADD PUSH2 0x25CD JUMP JUMPDEST SWAP5 POP POP PUSH1 0x80 PUSH2 0x2A01 DUP11 DUP3 DUP12 ADD PUSH2 0x25CD JUMP JUMPDEST SWAP4 POP POP PUSH1 0xA0 PUSH2 0x2A12 DUP11 DUP3 DUP12 ADD PUSH2 0x25CD JUMP JUMPDEST SWAP3 POP POP PUSH1 0xC0 PUSH2 0x2A23 DUP11 DUP3 DUP12 ADD PUSH2 0x2603 JUMP JUMPDEST SWAP2 POP POP SWAP3 SWAP6 SWAP9 SWAP2 SWAP5 SWAP8 POP SWAP3 SWAP6 POP JUMP JUMPDEST PUSH2 0x2A3B DUP2 PUSH2 0x25A4 JUMP JUMPDEST DUP3 MSTORE POP POP JUMP JUMPDEST PUSH1 0x0 PUSH1 0x20 DUP3 ADD SWAP1 POP PUSH2 0x2A56 PUSH1 0x0 DUP4 ADD DUP5 PUSH2 0x2A32 JUMP JUMPDEST SWAP3 SWAP2 POP POP JUMP JUMPDEST PUSH2 0x2A65 DUP2 PUSH2 0x2792 JUMP JUMPDEST DUP2 EQ PUSH2 0x2A70 JUMPI PUSH1 0x0 DUP1 REVERT JUMPDEST POP JUMP JUMPDEST PUSH1 0x0 DUP2 CALLDATALOAD SWAP1 POP PUSH2 0x2A82 DUP2 PUSH2 0x2A5C JUMP JUMPDEST SWAP3 SWAP2 POP POP JUMP JUMPDEST PUSH2 0x2A91 DUP2 PUSH2 0x275E JUMP JUMPDEST DUP2 EQ PUSH2 0x2A9C JUMPI PUSH1 0x0 DUP1 REVERT JUMPDEST POP JUMP JUMPDEST PUSH1 0x0 DUP2 CALLDATALOAD SWAP1 POP PUSH2 0x2AAE DUP2 PUSH2 0x2A88 JUMP JUMPDEST SWAP3 SWAP2 POP POP JUMP JUMPDEST PUSH1 0x0 DUP1 PUSH1 0x0 DUP1 PUSH1 0x0 DUP1 PUSH1 0x0 PUSH1 0xE0 DUP9 DUP11 SUB SLT ISZERO PUSH2 0x2AD3 JUMPI PUSH2 0x2AD2 PUSH2 0x257A JUMP JUMPDEST JUMPDEST PUSH1 0x0 PUSH2 0x2AE1 DUP11 DUP3 DUP12 ADD PUSH2 0x25CD JUMP JUMPDEST SWAP8 POP POP PUSH1 0x20 PUSH2 0x2AF2 DUP11 DUP3 DUP12 ADD PUSH2 0x25CD JUMP JUMPDEST SWAP7 POP POP PUSH1 0x40 PUSH2 0x2B03 DUP11 DUP3 DUP12 ADD PUSH2 0x2603 JUMP JUMPDEST SWAP6 POP POP PUSH1 0x60 PUSH2 0x2B14 DUP11 DUP3 DUP12 ADD PUSH2 0x2603 JUMP JUMPDEST SWAP5 POP POP PUSH1 0x80 PUSH2 0x2B25 DUP11 DUP3 DUP12 ADD PUSH2 0x2A73 JUMP JUMPDEST SWAP4 POP POP PUSH1 0xA0 PUSH2 0x2B36 DUP11 DUP3 DUP12 ADD PUSH2 0x2A9F JUMP JUMPDEST SWAP3 POP POP PUSH1 0xC0 PUSH2 0x2B47 DUP11 DUP3 DUP12 ADD PUSH2 0x2A9F JUMP JUMPDEST SWAP2 POP POP SWAP3 SWAP6 SWAP9 SWAP2 SWAP5 SWAP8 POP SWAP3 SWAP6 POP JUMP JUMPDEST PUSH1 0x0 DUP1 PUSH1 0x40 DUP4 DUP6 SUB SLT ISZERO PUSH2 0x2B6D JUMPI PUSH2 0x2B6C PUSH2 0x257A JUMP JUMPDEST JUMPDEST PUSH1 0x0 PUSH2 0x2B7B DUP6 DUP3 DUP7 ADD PUSH2 0x25CD JUMP JUMPDEST SWAP3 POP POP PUSH1 0x20 PUSH2 0x2B8C DUP6 DUP3 DUP7 ADD PUSH2 0x25CD JUMP JUMPDEST SWAP2 POP POP SWAP3 POP SWAP3 SWAP1 POP JUMP JUMPDEST PUSH32 0x4E487B7100000000000000000000000000000000000000000000000000000000 PUSH1 0x0 MSTORE PUSH1 0x22 PUSH1 0x4 MSTORE PUSH1 0x24 PUSH1 0x0 REVERT JUMPDEST PUSH1 0x0 PUSH1 0x2 DUP3 DIV SWAP1 POP PUSH1 0x1 DUP3 AND DUP1 PUSH2 0x2BDD JUMPI PUSH1 0x7F DUP3 AND SWAP2 POP JUMPDEST PUSH1 0x20 DUP3 LT DUP2 SUB PUSH2 0x2BF0 JUMPI PUSH2 0x2BEF PUSH2 0x2B96 JUMP JUMPDEST JUMPDEST POP SWAP2 SWAP1 POP JUMP JUMPDEST PUSH1 0x0 DUP2 SWAP1 POP SWAP2 SWAP1 POP JUMP JUMPDEST PUSH1 0x0 PUSH2 0x2C1B PUSH2 0x2C16 PUSH2 0x2C11 DUP5 PUSH2 0x2792 JUMP JUMPDEST PUSH2 0x2BF6 JUMP JUMPDEST PUSH2 0x25E2 JUMP JUMPDEST SWAP1 POP SWAP2 SWAP1 POP JUMP JUMPDEST PUSH2 0x2C2B DUP2 PUSH2 0x2C00 JUMP JUMPDEST DUP3 MSTORE POP POP JUMP JUMPDEST PUSH1 0x0 PUSH1 0xA0 DUP3 ADD SWAP1 POP PUSH2 0x2C46 PUSH1 0x0 DUP4 ADD DUP9 PUSH2 0x2A32 JUMP JUMPDEST PUSH2 0x2C53 PUSH1 0x20 DUP4 ADD DUP8 PUSH2 0x2A32 JUMP JUMPDEST PUSH2 0x2C60 PUSH1 0x40 DUP4 ADD DUP7 PUSH2 0x268E JUMP JUMPDEST PUSH2 0x2C6D PUSH1 0x60 DUP4 ADD DUP6 PUSH2 0x2C22 JUMP JUMPDEST PUSH2 0x2C7A PUSH1 0x80 DUP4 ADD DUP5 PUSH2 0x268E JUMP JUMPDEST SWAP7 SWAP6 POP POP POP POP POP POP JUMP JUMPDEST PUSH1 0x0 DUP2 MLOAD SWAP1 POP PUSH2 0x2C93 DUP2 PUSH2 0x2A88 JUMP JUMPDEST SWAP3 SWAP2 POP POP JUMP JUMPDEST PUSH1 0x0 PUSH1 0x20 DUP3 DUP5 SUB SLT ISZERO PUSH2 0x2CAF JUMPI PUSH2 0x2CAE PUSH2 0x257A JUMP JUMPDEST JUMPDEST PUSH1 0x0 PUSH2 0x2CBD DUP5 DUP3 DUP6 ADD PUSH2 0x2C84 JUMP JUMPDEST SWAP2 POP POP SWAP3 SWAP2 POP POP JUMP JUMPDEST PUSH1 0x0 PUSH1 0x60 DUP3 ADD SWAP1 POP PUSH2 0x2CDB PUSH1 0x0 DUP4 ADD DUP7 PUSH2 0x2768 JUMP JUMPDEST PUSH2 0x2CE8 PUSH1 0x20 DUP4 ADD DUP6 PUSH2 0x2A32 JUMP JUMPDEST PUSH2 0x2CF5 PUSH1 0x40 DUP4 ADD DUP5 PUSH2 0x2A32 JUMP JUMPDEST SWAP5 SWAP4 POP POP POP POP JUMP JUMPDEST PUSH32 0x4E487B7100000000000000000000000000000000000000000000000000000000 PUSH1 0x0 MSTORE PUSH1 0x11 PUSH1 0x4 MSTORE PUSH1 0x24 PUSH1 0x0 REVERT JUMPDEST PUSH1 0x0 PUSH2 0x2D37 DUP3 PUSH2 0x25E2 JUMP JUMPDEST SWAP2 POP PUSH2 0x2D42 DUP4 PUSH2 0x25E2 JUMP JUMPDEST SWAP3 POP DUP3 DUP3 ADD SWAP1 POP DUP1 DUP3 GT ISZERO PUSH2 0x2D5A JUMPI PUSH2 0x2D59 PUSH2 0x2CFD JUMP JUMPDEST JUMPDEST SWAP3 SWAP2 POP POP JUMP JUMPDEST PUSH32 0x4E6F2062616C616E636520746F20776974686472617700000000000000000000 PUSH1 0x0 DUP3 ADD MSTORE POP JUMP JUMPDEST PUSH1 0x0 PUSH2 0x2D96 PUSH1 0x16 DUP4 PUSH2 0x24C9 JUMP JUMPDEST SWAP2 POP PUSH2 0x2DA1 DUP3 PUSH2 0x2D60 JUMP JUMPDEST PUSH1 0x20 DUP3 ADD SWAP1 POP SWAP2 SWAP1 POP JUMP JUMPDEST PUSH1 0x0 PUSH1 0x20 DUP3 ADD SWAP1 POP DUP2 DUP2 SUB PUSH1 0x0 DUP4 ADD MSTORE PUSH2 0x2DC5 DUP2 PUSH2 0x2D89 JUMP JUMPDEST SWAP1 POP SWAP2 SWAP1 POP JUMP JUMPDEST PUSH1 0x0 DUP2 SWAP1 POP SWAP3 SWAP2 POP POP JUMP JUMPDEST POP JUMP JUMPDEST PUSH1 0x0 PUSH2 0x2DE7 PUSH1 0x0 DUP4 PUSH2 0x2DCC JUMP JUMPDEST SWAP2 POP PUSH2 0x2DF2 DUP3 PUSH2 0x2DD7 JUMP JUMPDEST PUSH1 0x0 DUP3 ADD SWAP1 POP SWAP2 SWAP1 POP JUMP JUMPDEST PUSH1 0x0 PUSH2 0x2E08 DUP3 PUSH2 0x2DDA JUMP JUMPDEST SWAP2 POP DUP2 SWAP1 POP SWAP2 SWAP1 POP JUMP JUMPDEST PUSH32 0x4661696C656420746F2077697468647261770000000000000000000000000000 PUSH1 0x0 DUP3 ADD MSTORE POP JUMP JUMPDEST PUSH1 0x0 PUSH2 0x2E48 PUSH1 0x12 DUP4 PUSH2 0x24C9 JUMP JUMPDEST SWAP2 POP PUSH2 0x2E53 DUP3 PUSH2 0x2E12 JUMP JUMPDEST PUSH1 0x20 DUP3 ADD SWAP1 POP SWAP2 SWAP1 POP JUMP JUMPDEST PUSH1 0x0 PUSH1 0x20 DUP3 ADD SWAP1 POP DUP2 DUP2 SUB PUSH1 0x0 DUP4 ADD MSTORE PUSH2 0x2E77 DUP2 PUSH2 0x2E3B JUMP JUMPDEST SWAP1 POP SWAP2 SWAP1 POP JUMP JUMPDEST PUSH32 0x4E4F5420414C4C4F57454420544F204D494E5420445473000000000000000000 PUSH1 0x0 DUP3 ADD MSTORE POP JUMP JUMPDEST PUSH1 0x0 PUSH2 0x2EB4 PUSH1 0x17 DUP4 PUSH2 0x24C9 JUMP JUMPDEST SWAP2 POP PUSH2 0x2EBF DUP3 PUSH2 0x2E7E JUMP JUMPDEST PUSH1 0x20 DUP3 ADD SWAP1 POP SWAP2 SWAP1 POP JUMP JUMPDEST PUSH1 0x0 PUSH1 0x20 DUP3 ADD SWAP1 POP DUP2 DUP2 SUB PUSH1 0x0 DUP4 ADD MSTORE PUSH2 0x2EE3 DUP2 PUSH2 0x2EA7 JUMP JUMPDEST SWAP1 POP SWAP2 SWAP1 POP JUMP JUMPDEST PUSH32 0x43616E6E6F742065786365656420746865206361700000000000000000000000 PUSH1 0x0 DUP3 ADD MSTORE POP JUMP JUMPDEST PUSH1 0x0 PUSH2 0x2F20 PUSH1 0x15 DUP4 PUSH2 0x24C9 JUMP JUMPDEST SWAP2 POP PUSH2 0x2F2B DUP3 PUSH2 0x2EEA JUMP JUMPDEST PUSH1 0x20 DUP3 ADD SWAP1 POP SWAP2 SWAP1 POP JUMP JUMPDEST PUSH1 0x0 PUSH1 0x20 DUP3 ADD SWAP1 POP DUP2 DUP2 SUB PUSH1 0x0 DUP4 ADD MSTORE PUSH2 0x2F4F DUP2 PUSH2 0x2F13 JUMP JUMPDEST SWAP1 POP SWAP2 SWAP1 POP JUMP JUMPDEST PUSH32 0x4E4F5420414C4C4F57454420544F204255524E00000000000000000000000000 PUSH1 0x0 DUP3 ADD MSTORE POP JUMP JUMPDEST PUSH1 0x0 PUSH2 0x2F8C PUSH1 0x13 DUP4 PUSH2 0x24C9 JUMP JUMPDEST SWAP2 POP PUSH2 0x2F97 DUP3 PUSH2 0x2F56 JUMP JUMPDEST PUSH1 0x20 DUP3 ADD SWAP1 POP SWAP2 SWAP1 POP JUMP JUMPDEST PUSH1 0x0 PUSH1 0x20 DUP3 ADD SWAP1 POP DUP2 DUP2 SUB PUSH1 0x0 DUP4 ADD MSTORE PUSH2 0x2FBB DUP2 PUSH2 0x2F7F JUMP JUMPDEST SWAP1 POP SWAP2 SWAP1 POP JUMP JUMPDEST PUSH32 0x496E697469616C697A61626C653A20636F6E747261637420697320616C726561 PUSH1 0x0 DUP3 ADD MSTORE PUSH32 0x647920696E697469616C697A6564000000000000000000000000000000000000 PUSH1 0x20 DUP3 ADD MSTORE POP JUMP JUMPDEST PUSH1 0x0 PUSH2 0x301E PUSH1 0x2E DUP4 PUSH2 0x24C9 JUMP JUMPDEST SWAP2 POP PUSH2 0x3029 DUP3 PUSH2 0x2FC2 JUMP JUMPDEST PUSH1 0x40 DUP3 ADD SWAP1 POP SWAP2 SWAP1 POP JUMP JUMPDEST PUSH1 0x0 PUSH1 0x20 DUP3 ADD SWAP1 POP DUP2 DUP2 SUB PUSH1 0x0 DUP4 ADD MSTORE PUSH2 0x304D DUP2 PUSH2 0x3011 JUMP JUMPDEST SWAP1 POP SWAP2 SWAP1 POP JUMP JUMPDEST PUSH32 0x4D696E7465722063616E6E6F7420626520307830302100000000000000000000 PUSH1 0x0 DUP3 ADD MSTORE POP JUMP JUMPDEST PUSH1 0x0 PUSH2 0x308A PUSH1 0x16 DUP4 PUSH2 0x24C9 JUMP JUMPDEST SWAP2 POP PUSH2 0x3095 DUP3 PUSH2 0x3054 JUMP JUMPDEST PUSH1 0x20 DUP3 ADD SWAP1 POP SWAP2 SWAP1 POP JUMP JUMPDEST PUSH1 0x0 PUSH1 0x20 DUP3 ADD SWAP1 POP DUP2 DUP2 SUB PUSH1 0x0 DUP4 ADD MSTORE PUSH2 0x30B9 DUP2 PUSH2 0x307D JUMP JUMPDEST SWAP1 POP SWAP2 SWAP1 POP JUMP JUMPDEST PUSH1 0x0 DUP2 MLOAD SWAP1 POP PUSH2 0x30CF DUP2 PUSH2 0x25B6 JUMP JUMPDEST SWAP3 SWAP2 POP POP JUMP JUMPDEST PUSH1 0x0 PUSH1 0x20 DUP3 DUP5 SUB SLT ISZERO PUSH2 0x30EB JUMPI PUSH2 0x30EA PUSH2 0x257A JUMP JUMPDEST JUMPDEST PUSH1 0x0 PUSH2 0x30F9 DUP5 DUP3 DUP6 ADD PUSH2 0x30C0 JUMP JUMPDEST SWAP2 POP POP SWAP3 SWAP2 POP POP JUMP JUMPDEST PUSH32 0x4E4F5420544845204E4654204F574E4552000000000000000000000000000000 PUSH1 0x0 DUP3 ADD MSTORE POP JUMP JUMPDEST PUSH1 0x0 PUSH2 0x3138 PUSH1 0x11 DUP4 PUSH2 0x24C9 JUMP JUMPDEST SWAP2 POP PUSH2 0x3143 DUP3 PUSH2 0x3102 JUMP JUMPDEST PUSH1 0x20 DUP3 ADD SWAP1 POP SWAP2 SWAP1 POP JUMP JUMPDEST PUSH1 0x0 PUSH1 0x20 DUP3 ADD SWAP1 POP DUP2 DUP2 SUB PUSH1 0x0 DUP4 ADD MSTORE PUSH2 0x3167 DUP2 PUSH2 0x312B JUMP JUMPDEST SWAP1 POP SWAP2 SWAP1 POP JUMP JUMPDEST PUSH32 0x455243373231466163746F727920616464726573732063616E6E6F7420626520 PUSH1 0x0 DUP3 ADD MSTORE PUSH32 0x3078303021000000000000000000000000000000000000000000000000000000 PUSH1 0x20 DUP3 ADD MSTORE POP JUMP JUMPDEST PUSH1 0x0 PUSH2 0x31CA PUSH1 0x25 DUP4 PUSH2 0x24C9 JUMP JUMPDEST SWAP2 POP PUSH2 0x31D5 DUP3 PUSH2 0x316E JUMP JUMPDEST PUSH1 0x40 DUP3 ADD SWAP1 POP SWAP2 SWAP1 POP JUMP JUMPDEST PUSH1 0x0 PUSH1 0x20 DUP3 ADD SWAP1 POP DUP2 DUP2 SUB PUSH1 0x0 DUP4 ADD MSTORE PUSH2 0x31F9 DUP2 PUSH2 0x31BD JUMP JUMPDEST SWAP1 POP SWAP2 SWAP1 POP JUMP JUMPDEST PUSH32 0x45524332303A20524F555445522043414E4E4F54204245205448452030204144 PUSH1 0x0 DUP3 ADD MSTORE PUSH32 0x4452455353000000000000000000000000000000000000000000000000000000 PUSH1 0x20 DUP3 ADD MSTORE POP JUMP JUMPDEST PUSH1 0x0 PUSH2 0x325C PUSH1 0x25 DUP4 PUSH2 0x24C9 JUMP JUMPDEST SWAP2 POP PUSH2 0x3267 DUP3 PUSH2 0x3200 JUMP JUMPDEST PUSH1 0x40 DUP3 ADD SWAP1 POP SWAP2 SWAP1 POP JUMP JUMPDEST PUSH1 0x0 PUSH1 0x20 DUP3 ADD SWAP1 POP DUP2 DUP2 SUB PUSH1 0x0 DUP4 ADD MSTORE PUSH2 0x328B DUP2 PUSH2 0x324F JUMP JUMPDEST SWAP1 POP SWAP2 SWAP1 POP JUMP JUMPDEST PUSH32 0x546865206D6178696D756D20737570706C79206D757374206265203E20300000 PUSH1 0x0 DUP3 ADD MSTORE POP JUMP JUMPDEST PUSH1 0x0 PUSH2 0x32C8 PUSH1 0x1E DUP4 PUSH2 0x24C9 JUMP JUMPDEST SWAP2 POP PUSH2 0x32D3 DUP3 PUSH2 0x3292 JUMP JUMPDEST PUSH1 0x20 DUP3 ADD SWAP1 POP SWAP2 SWAP1 POP JUMP JUMPDEST PUSH1 0x0 PUSH1 0x20 DUP3 ADD SWAP1 POP DUP2 DUP2 SUB PUSH1 0x0 DUP4 ADD MSTORE PUSH2 0x32F7 DUP2 PUSH2 0x32BB JUMP JUMPDEST SWAP1 POP SWAP2 SWAP1 POP JUMP JUMPDEST PUSH1 0x0 PUSH1 0xA0 DUP3 ADD SWAP1 POP DUP2 DUP2 SUB PUSH1 0x0 DUP4 ADD MSTORE PUSH2 0x3318 DUP2 DUP9 PUSH2 0x2515 JUMP JUMPDEST SWAP1 POP DUP2 DUP2 SUB PUSH1 0x20 DUP4 ADD MSTORE PUSH2 0x332C DUP2 DUP8 PUSH2 0x2515 JUMP JUMPDEST SWAP1 POP PUSH2 0x333B PUSH1 0x40 DUP4 ADD DUP7 PUSH2 0x2A32 JUMP JUMPDEST PUSH2 0x3348 PUSH1 0x60 DUP4 ADD DUP6 PUSH2 0x2A32 JUMP JUMPDEST PUSH2 0x3355 PUSH1 0x80 DUP4 ADD DUP5 PUSH2 0x2A32 JUMP JUMPDEST SWAP7 SWAP6 POP POP POP POP POP POP JUMP JUMPDEST PUSH1 0x0 DUP2 SWAP1 POP SWAP2 SWAP1 POP JUMP JUMPDEST PUSH1 0x0 PUSH2 0x3384 PUSH2 0x337F PUSH2 0x337A DUP5 PUSH2 0x335F JUMP JUMPDEST PUSH2 0x2BF6 JUMP JUMPDEST PUSH2 0x2792 JUMP JUMPDEST SWAP1 POP SWAP2 SWAP1 POP JUMP JUMPDEST PUSH2 0x3394 DUP2 PUSH2 0x3369 JUMP JUMPDEST DUP3 MSTORE POP POP JUMP JUMPDEST PUSH1 0x0 PUSH1 0x20 DUP3 ADD SWAP1 POP PUSH2 0x33AF PUSH1 0x0 DUP4 ADD DUP5 PUSH2 0x338B JUMP JUMPDEST SWAP3 SWAP2 POP POP JUMP JUMPDEST PUSH32 0x45524332303A2064656372656173656420616C6C6F77616E63652062656C6F77 PUSH1 0x0 DUP3 ADD MSTORE PUSH32 0x207A65726F000000000000000000000000000000000000000000000000000000 PUSH1 0x20 DUP3 ADD MSTORE POP JUMP JUMPDEST PUSH1 0x0 PUSH2 0x3411 PUSH1 0x25 DUP4 PUSH2 0x24C9 JUMP JUMPDEST SWAP2 POP PUSH2 0x341C DUP3 PUSH2 0x33B5 JUMP JUMPDEST PUSH1 0x40 DUP3 ADD SWAP1 POP SWAP2 SWAP1 POP JUMP JUMPDEST PUSH1 0x0 PUSH1 0x20 DUP3 ADD SWAP1 POP DUP2 DUP2 SUB PUSH1 0x0 DUP4 ADD MSTORE PUSH2 0x3440 DUP2 PUSH2 0x3404 JUMP JUMPDEST SWAP1 POP SWAP2 SWAP1 POP JUMP JUMPDEST PUSH32 0x4552433230445420455850495245440000000000000000000000000000000000 PUSH1 0x0 DUP3 ADD MSTORE POP JUMP JUMPDEST PUSH1 0x0 PUSH2 0x347D PUSH1 0xF DUP4 PUSH2 0x24C9 JUMP JUMPDEST SWAP2 POP PUSH2 0x3488 DUP3 PUSH2 0x3447 JUMP JUMPDEST PUSH1 0x20 DUP3 ADD SWAP1 POP SWAP2 SWAP1 POP JUMP JUMPDEST PUSH1 0x0 PUSH1 0x20 DUP3 ADD SWAP1 POP DUP2 DUP2 SUB PUSH1 0x0 DUP4 ADD MSTORE PUSH2 0x34AC DUP2 PUSH2 0x3470 JUMP JUMPDEST SWAP1 POP SWAP2 SWAP1 POP JUMP JUMPDEST PUSH32 0x4F776E6572206E6F7420746865204E4654206F776E6572000000000000000000 PUSH1 0x0 DUP3 ADD MSTORE POP JUMP JUMPDEST PUSH1 0x0 PUSH2 0x34E9 PUSH1 0x17 DUP4 PUSH2 0x24C9 JUMP JUMPDEST SWAP2 POP PUSH2 0x34F4 DUP3 PUSH2 0x34B3 JUMP JUMPDEST PUSH1 0x20 DUP3 ADD SWAP1 POP SWAP2 SWAP1 POP JUMP JUMPDEST PUSH1 0x0 PUSH1 0x20 DUP3 ADD SWAP1 POP DUP2 DUP2 SUB PUSH1 0x0 DUP4 ADD MSTORE PUSH2 0x3518 DUP2 PUSH2 0x34DC JUMP JUMPDEST SWAP1 POP SWAP2 SWAP1 POP JUMP JUMPDEST PUSH32 0x43616E6E6F74207065726D697420302076616C75650000000000000000000000 PUSH1 0x0 DUP3 ADD MSTORE POP JUMP JUMPDEST PUSH1 0x0 PUSH2 0x3555 PUSH1 0x15 DUP4 PUSH2 0x24C9 JUMP JUMPDEST SWAP2 POP PUSH2 0x3560 DUP3 PUSH2 0x351F JUMP JUMPDEST PUSH1 0x20 DUP3 ADD SWAP1 POP SWAP2 SWAP1 POP JUMP JUMPDEST PUSH1 0x0 PUSH1 0x20 DUP3 ADD SWAP1 POP DUP2 DUP2 SUB PUSH1 0x0 DUP4 ADD MSTORE PUSH2 0x3584 DUP2 PUSH2 0x3548 JUMP JUMPDEST SWAP1 POP SWAP2 SWAP1 POP JUMP JUMPDEST PUSH1 0x0 PUSH1 0xC0 DUP3 ADD SWAP1 POP PUSH2 0x35A0 PUSH1 0x0 DUP4 ADD DUP10 PUSH2 0x2768 JUMP JUMPDEST PUSH2 0x35AD PUSH1 0x20 DUP4 ADD DUP9 PUSH2 0x2A32 JUMP JUMPDEST PUSH2 0x35BA PUSH1 0x40 DUP4 ADD DUP8 PUSH2 0x2A32 JUMP JUMPDEST PUSH2 0x35C7 PUSH1 0x60 DUP4 ADD DUP7 PUSH2 0x268E JUMP JUMPDEST PUSH2 0x35D4 PUSH1 0x80 DUP4 ADD DUP6 PUSH2 0x268E JUMP JUMPDEST PUSH2 0x35E1 PUSH1 0xA0 DUP4 ADD DUP5 PUSH2 0x268E JUMP JUMPDEST SWAP8 SWAP7 POP POP POP POP POP POP POP JUMP JUMPDEST PUSH1 0x0 DUP2 SWAP1 POP SWAP3 SWAP2 POP POP JUMP JUMPDEST PUSH32 0x1901000000000000000000000000000000000000000000000000000000000000 PUSH1 0x0 DUP3 ADD MSTORE POP JUMP JUMPDEST PUSH1 0x0 PUSH2 0x362D PUSH1 0x2 DUP4 PUSH2 0x35EC JUMP JUMPDEST SWAP2 POP PUSH2 0x3638 DUP3 PUSH2 0x35F7 JUMP JUMPDEST PUSH1 0x2 DUP3 ADD SWAP1 POP SWAP2 SWAP1 POP JUMP JUMPDEST PUSH1 0x0 DUP2 SWAP1 POP SWAP2 SWAP1 POP JUMP JUMPDEST PUSH2 0x365E PUSH2 0x3659 DUP3 PUSH2 0x275E JUMP JUMPDEST PUSH2 0x3643 JUMP JUMPDEST DUP3 MSTORE POP POP JUMP JUMPDEST PUSH1 0x0 PUSH2 0x366F DUP3 PUSH2 0x3620 JUMP JUMPDEST SWAP2 POP PUSH2 0x367B DUP3 DUP6 PUSH2 0x364D JUMP JUMPDEST PUSH1 0x20 DUP3 ADD SWAP2 POP PUSH2 0x368B DUP3 DUP5 PUSH2 0x364D JUMP JUMPDEST PUSH1 0x20 DUP3 ADD SWAP2 POP DUP2 SWAP1 POP SWAP4 SWAP3 POP POP POP JUMP JUMPDEST PUSH32 0x4552433230426173653A207065726D697420646964206E6F7420737563636565 PUSH1 0x0 DUP3 ADD MSTORE PUSH32 0x642E204E6F6E6365206D69736D61746368210000000000000000000000000000 PUSH1 0x20 DUP3 ADD MSTORE POP JUMP JUMPDEST PUSH1 0x0 PUSH2 0x36F7 PUSH1 0x32 DUP4 PUSH2 0x24C9 JUMP JUMPDEST SWAP2 POP PUSH2 0x3702 DUP3 PUSH2 0x369B JUMP JUMPDEST PUSH1 0x40 DUP3 ADD SWAP1 POP SWAP2 SWAP1 POP JUMP JUMPDEST PUSH1 0x0 PUSH1 0x20 DUP3 ADD SWAP1 POP DUP2 DUP2 SUB PUSH1 0x0 DUP4 ADD MSTORE PUSH2 0x3726 DUP2 PUSH2 0x36EA JUMP JUMPDEST SWAP1 POP SWAP2 SWAP1 POP JUMP JUMPDEST PUSH1 0x0 PUSH1 0x80 DUP3 ADD SWAP1 POP PUSH2 0x3742 PUSH1 0x0 DUP4 ADD DUP8 PUSH2 0x2768 JUMP JUMPDEST PUSH2 0x374F PUSH1 0x20 DUP4 ADD DUP7 PUSH2 0x279F JUMP JUMPDEST PUSH2 0x375C PUSH1 0x40 DUP4 ADD DUP6 PUSH2 0x2768 JUMP JUMPDEST PUSH2 0x3769 PUSH1 0x60 DUP4 ADD DUP5 PUSH2 0x2768 JUMP JUMPDEST SWAP6 SWAP5 POP POP POP POP POP JUMP JUMPDEST PUSH32 0x45524332302064617461746F6B656E3A20494E56414C4944205349474E415455 PUSH1 0x0 DUP3 ADD MSTORE PUSH32 0x524520494E2045524332302D5045524D49540000000000000000000000000000 PUSH1 0x20 DUP3 ADD MSTORE POP JUMP JUMPDEST PUSH1 0x0 PUSH2 0x37CE PUSH1 0x32 DUP4 PUSH2 0x24C9 JUMP JUMPDEST SWAP2 POP PUSH2 0x37D9 DUP3 PUSH2 0x3772 JUMP JUMPDEST PUSH1 0x40 DUP3 ADD SWAP1 POP SWAP2 SWAP1 POP JUMP JUMPDEST PUSH1 0x0 PUSH1 0x20 DUP3 ADD SWAP1 POP DUP2 DUP2 SUB PUSH1 0x0 DUP4 ADD MSTORE PUSH2 0x37FD DUP2 PUSH2 0x37C1 JUMP JUMPDEST SWAP1 POP SWAP2 SWAP1 POP JUMP JUMPDEST PUSH1 0x0 PUSH1 0x80 DUP3 ADD SWAP1 POP PUSH2 0x3819 PUSH1 0x0 DUP4 ADD DUP8 PUSH2 0x2A32 JUMP JUMPDEST PUSH2 0x3826 PUSH1 0x20 DUP4 ADD DUP7 PUSH2 0x2A32 JUMP JUMPDEST PUSH2 0x3833 PUSH1 0x40 DUP4 ADD DUP6 PUSH2 0x2A32 JUMP JUMPDEST PUSH2 0x3840 PUSH1 0x60 DUP4 ADD DUP5 PUSH2 0x268E JUMP JUMPDEST SWAP6 SWAP5 POP POP POP POP POP JUMP JUMPDEST PUSH1 0x0 PUSH1 0x60 DUP3 ADD SWAP1 POP PUSH2 0x385E PUSH1 0x0 DUP4 ADD DUP7 PUSH2 0x2768 JUMP JUMPDEST PUSH2 0x386B PUSH1 0x20 DUP4 ADD DUP6 PUSH2 0x2768 JUMP JUMPDEST PUSH2 0x3878 PUSH1 0x40 DUP4 ADD DUP5 PUSH2 0x2768 JUMP JUMPDEST SWAP5 SWAP4 POP POP POP POP JUMP JUMPDEST PUSH32 0x45524332303A20617070726F76652066726F6D20746865207A65726F20616464 PUSH1 0x0 DUP3 ADD MSTORE PUSH32 0x7265737300000000000000000000000000000000000000000000000000000000 PUSH1 0x20 DUP3 ADD MSTORE POP JUMP JUMPDEST PUSH1 0x0 PUSH2 0x38DC PUSH1 0x24 DUP4 PUSH2 0x24C9 JUMP JUMPDEST SWAP2 POP PUSH2 0x38E7 DUP3 PUSH2 0x3880 JUMP JUMPDEST PUSH1 0x40 DUP3 ADD SWAP1 POP SWAP2 SWAP1 POP JUMP JUMPDEST PUSH1 0x0 PUSH1 0x20 DUP3 ADD SWAP1 POP DUP2 DUP2 SUB PUSH1 0x0 DUP4 ADD MSTORE PUSH2 0x390B DUP2 PUSH2 0x38CF JUMP JUMPDEST SWAP1 POP SWAP2 SWAP1 POP JUMP JUMPDEST PUSH32 0x45524332303A20617070726F766520746F20746865207A65726F206164647265 PUSH1 0x0 DUP3 ADD MSTORE PUSH32 0x7373000000000000000000000000000000000000000000000000000000000000 PUSH1 0x20 DUP3 ADD MSTORE POP JUMP JUMPDEST PUSH1 0x0 PUSH2 0x396E PUSH1 0x22 DUP4 PUSH2 0x24C9 JUMP JUMPDEST SWAP2 POP PUSH2 0x3979 DUP3 PUSH2 0x3912 JUMP JUMPDEST PUSH1 0x40 DUP3 ADD SWAP1 POP SWAP2 SWAP1 POP JUMP JUMPDEST PUSH1 0x0 PUSH1 0x20 DUP3 ADD SWAP1 POP DUP2 DUP2 SUB PUSH1 0x0 DUP4 ADD MSTORE PUSH2 0x399D DUP2 PUSH2 0x3961 JUMP JUMPDEST SWAP1 POP SWAP2 SWAP1 POP JUMP JUMPDEST PUSH32 0x45524332303A206D696E7420746F20746865207A65726F206164647265737300 PUSH1 0x0 DUP3 ADD MSTORE POP JUMP JUMPDEST PUSH1 0x0 PUSH2 0x39DA PUSH1 0x1F DUP4 PUSH2 0x24C9 JUMP JUMPDEST SWAP2 POP PUSH2 0x39E5 DUP3 PUSH2 0x39A4 JUMP JUMPDEST PUSH1 0x20 DUP3 ADD SWAP1 POP SWAP2 SWAP1 POP JUMP JUMPDEST PUSH1 0x0 PUSH1 0x20 DUP3 ADD SWAP1 POP DUP2 DUP2 SUB PUSH1 0x0 DUP4 ADD MSTORE PUSH2 0x3A09 DUP2 PUSH2 0x39CD JUMP JUMPDEST SWAP1 POP SWAP2 SWAP1 POP JUMP JUMPDEST PUSH32 0x45524332303A206275726E2066726F6D20746865207A65726F20616464726573 PUSH1 0x0 DUP3 ADD MSTORE PUSH32 0x7300000000000000000000000000000000000000000000000000000000000000 PUSH1 0x20 DUP3 ADD MSTORE POP JUMP JUMPDEST PUSH1 0x0 PUSH2 0x3A6C PUSH1 0x21 DUP4 PUSH2 0x24C9 JUMP JUMPDEST SWAP2 POP PUSH2 0x3A77 DUP3 PUSH2 0x3A10 JUMP JUMPDEST PUSH1 0x40 DUP3 ADD SWAP1 POP SWAP2 SWAP1 POP JUMP JUMPDEST PUSH1 0x0 PUSH1 0x20 DUP3 ADD SWAP1 POP DUP2 DUP2 SUB PUSH1 0x0 DUP4 ADD MSTORE PUSH2 0x3A9B DUP2 PUSH2 0x3A5F JUMP JUMPDEST SWAP1 POP SWAP2 SWAP1 POP JUMP JUMPDEST PUSH32 0x45524332303A206275726E20616D6F756E7420657863656564732062616C616E PUSH1 0x0 DUP3 ADD MSTORE PUSH32 0x6365000000000000000000000000000000000000000000000000000000000000 PUSH1 0x20 DUP3 ADD MSTORE POP JUMP JUMPDEST PUSH1 0x0 PUSH2 0x3AFE PUSH1 0x22 DUP4 PUSH2 0x24C9 JUMP JUMPDEST SWAP2 POP PUSH2 0x3B09 DUP3 PUSH2 0x3AA2 JUMP JUMPDEST PUSH1 0x40 DUP3 ADD SWAP1 POP SWAP2 SWAP1 POP JUMP JUMPDEST PUSH1 0x0 PUSH1 0x20 DUP3 ADD SWAP1 POP DUP2 DUP2 SUB PUSH1 0x0 DUP4 ADD MSTORE PUSH2 0x3B2D DUP2 PUSH2 0x3AF1 JUMP JUMPDEST SWAP1 POP SWAP2 SWAP1 POP JUMP JUMPDEST PUSH32 0x496E697469616C697A61626C653A20636F6E7472616374206973206E6F742069 PUSH1 0x0 DUP3 ADD MSTORE PUSH32 0x6E697469616C697A696E67000000000000000000000000000000000000000000 PUSH1 0x20 DUP3 ADD MSTORE POP JUMP JUMPDEST PUSH1 0x0 PUSH2 0x3B90 PUSH1 0x2B DUP4 PUSH2 0x24C9 JUMP JUMPDEST SWAP2 POP PUSH2 0x3B9B DUP3 PUSH2 0x3B34 JUMP JUMPDEST PUSH1 0x40 DUP3 ADD SWAP1 POP SWAP2 SWAP1 POP JUMP JUMPDEST PUSH1 0x0 PUSH1 0x20 DUP3 ADD SWAP1 POP DUP2 DUP2 SUB PUSH1 0x0 DUP4 ADD MSTORE PUSH2 0x3BBF DUP2 PUSH2 0x3B83 JUMP JUMPDEST SWAP1 POP SWAP2 SWAP1 POP JUMP JUMPDEST PUSH32 0x45524332303A207472616E736665722066726F6D20746865207A65726F206164 PUSH1 0x0 DUP3 ADD MSTORE PUSH32 0x6472657373000000000000000000000000000000000000000000000000000000 PUSH1 0x20 DUP3 ADD MSTORE POP JUMP JUMPDEST PUSH1 0x0 PUSH2 0x3C22 PUSH1 0x25 DUP4 PUSH2 0x24C9 JUMP JUMPDEST SWAP2 POP PUSH2 0x3C2D DUP3 PUSH2 0x3BC6 JUMP JUMPDEST PUSH1 0x40 DUP3 ADD SWAP1 POP SWAP2 SWAP1 POP JUMP JUMPDEST PUSH1 0x0 PUSH1 0x20 DUP3 ADD SWAP1 POP DUP2 DUP2 SUB PUSH1 0x0 DUP4 ADD MSTORE PUSH2 0x3C51 DUP2 PUSH2 0x3C15 JUMP JUMPDEST SWAP1 POP SWAP2 SWAP1 POP JUMP JUMPDEST PUSH32 0x45524332303A207472616E7366657220746F20746865207A65726F2061646472 PUSH1 0x0 DUP3 ADD MSTORE PUSH32 0x6573730000000000000000000000000000000000000000000000000000000000 PUSH1 0x20 DUP3 ADD MSTORE POP JUMP JUMPDEST PUSH1 0x0 PUSH2 0x3CB4 PUSH1 0x23 DUP4 PUSH2 0x24C9 JUMP JUMPDEST SWAP2 POP PUSH2 0x3CBF DUP3 PUSH2 0x3C58 JUMP JUMPDEST PUSH1 0x40 DUP3 ADD SWAP1 POP SWAP2 SWAP1 POP JUMP JUMPDEST PUSH1 0x0 PUSH1 0x20 DUP3 ADD SWAP1 POP DUP2 DUP2 SUB PUSH1 0x0 DUP4 ADD MSTORE PUSH2 0x3CE3 DUP2 PUSH2 0x3CA7 JUMP JUMPDEST SWAP1 POP SWAP2 SWAP1 POP JUMP JUMPDEST PUSH32 0x45524332303A207472616E7366657220616D6F756E7420657863656564732062 PUSH1 0x0 DUP3 ADD MSTORE PUSH32 0x616C616E63650000000000000000000000000000000000000000000000000000 PUSH1 0x20 DUP3 ADD MSTORE POP JUMP JUMPDEST PUSH1 0x0 PUSH2 0x3D46 PUSH1 0x26 DUP4 PUSH2 0x24C9 JUMP JUMPDEST SWAP2 POP PUSH2 0x3D51 DUP3 PUSH2 0x3CEA JUMP JUMPDEST PUSH1 0x40 DUP3 ADD SWAP1 POP SWAP2 SWAP1 POP JUMP JUMPDEST PUSH1 0x0 PUSH1 0x20 DUP3 ADD SWAP1 POP DUP2 DUP2 SUB PUSH1 0x0 DUP4 ADD MSTORE PUSH2 0x3D75 DUP2 PUSH2 0x3D39 JUMP JUMPDEST SWAP1 POP SWAP2 SWAP1 POP JUMP JUMPDEST PUSH1 0x0 PUSH1 0xA0 DUP3 ADD SWAP1 POP PUSH2 0x3D91 PUSH1 0x0 DUP4 ADD DUP9 PUSH2 0x2768 JUMP JUMPDEST PUSH2 0x3D9E PUSH1 0x20 DUP4 ADD DUP8 PUSH2 0x2768 JUMP JUMPDEST PUSH2 0x3DAB PUSH1 0x40 DUP4 ADD DUP7 PUSH2 0x2768 JUMP JUMPDEST PUSH2 0x3DB8 PUSH1 0x60 DUP4 ADD DUP6 PUSH2 0x268E JUMP JUMPDEST PUSH2 0x3DC5 PUSH1 0x80 DUP4 ADD DUP5 PUSH2 0x2A32 JUMP JUMPDEST SWAP7 SWAP6 POP POP POP POP POP POP JUMP JUMPDEST PUSH32 0x45524332303A20696E73756666696369656E7420616C6C6F77616E6365000000 PUSH1 0x0 DUP3 ADD MSTORE POP JUMP JUMPDEST PUSH1 0x0 PUSH2 0x3E05 PUSH1 0x1D DUP4 PUSH2 0x24C9 JUMP JUMPDEST SWAP2 POP PUSH2 0x3E10 DUP3 PUSH2 0x3DCF JUMP JUMPDEST PUSH1 0x20 DUP3 ADD SWAP1 POP SWAP2 SWAP1 POP JUMP JUMPDEST PUSH1 0x0 PUSH1 0x20 DUP3 ADD SWAP1 POP DUP2 DUP2 SUB PUSH1 0x0 DUP4 ADD MSTORE PUSH2 0x3E34 DUP2 PUSH2 0x3DF8 JUMP JUMPDEST SWAP1 POP SWAP2 SWAP1 POP JUMP JUMPDEST PUSH1 0x0 DUP2 SWAP1 POP DUP2 PUSH1 0x0 MSTORE PUSH1 0x20 PUSH1 0x0 KECCAK256 SWAP1 POP SWAP2 SWAP1 POP JUMP JUMPDEST PUSH1 0x0 PUSH1 0x20 PUSH1 0x1F DUP4 ADD DIV SWAP1 POP SWAP2 SWAP1 POP JUMP JUMPDEST PUSH1 0x0 DUP3 DUP3 SHL SWAP1 POP SWAP3 SWAP2 POP POP JUMP JUMPDEST PUSH1 0x0 PUSH1 0x8 DUP4 MUL PUSH2 0x3E9D PUSH32 0xFFFFFFFFFFFFFFFFFFFFFFFFFFFFFFFFFFFFFFFFFFFFFFFFFFFFFFFFFFFFFFFF DUP3 PUSH2 0x3E60 JUMP JUMPDEST PUSH2 0x3EA7 DUP7 DUP4 PUSH2 0x3E60 JUMP JUMPDEST SWAP6 POP DUP1 NOT DUP5 AND SWAP4 POP DUP1 DUP7 AND DUP5 OR SWAP3 POP POP POP SWAP4 SWAP3 POP POP POP JUMP JUMPDEST PUSH1 0x0 PUSH2 0x3EDA PUSH2 0x3ED5 PUSH2 0x3ED0 DUP5 PUSH2 0x25E2 JUMP JUMPDEST PUSH2 0x2BF6 JUMP JUMPDEST PUSH2 0x25E2 JUMP JUMPDEST SWAP1 POP SWAP2 SWAP1 POP JUMP JUMPDEST PUSH1 0x0 DUP2 SWAP1 POP SWAP2 SWAP1 POP JUMP JUMPDEST PUSH2 0x3EF4 DUP4 PUSH2 0x3EBF JUMP JUMPDEST PUSH2 0x3F08 PUSH2 0x3F00 DUP3 PUSH2 0x3EE1 JUMP JUMPDEST DUP5 DUP5 SLOAD PUSH2 0x3E6D JUMP JUMPDEST DUP3 SSTORE POP POP POP POP JUMP JUMPDEST PUSH1 0x0 SWAP1 JUMP JUMPDEST PUSH2 0x3F1D PUSH2 0x3F10 JUMP JUMPDEST PUSH2 0x3F28 DUP2 DUP5 DUP5 PUSH2 0x3EEB JUMP JUMPDEST POP POP POP JUMP JUMPDEST JUMPDEST DUP2 DUP2 LT ISZERO PUSH2 0x3F4C JUMPI PUSH2 0x3F41 PUSH1 0x0 DUP3 PUSH2 0x3F15 JUMP JUMPDEST PUSH1 0x1 DUP2 ADD SWAP1 POP PUSH2 0x3F2E JUMP JUMPDEST POP POP JUMP JUMPDEST PUSH1 0x1F DUP3 GT ISZERO PUSH2 0x3F91 JUMPI PUSH2 0x3F62 DUP2 PUSH2 0x3E3B JUMP JUMPDEST PUSH2 0x3F6B DUP5 PUSH2 0x3E50 JUMP JUMPDEST DUP2 ADD PUSH1 0x20 DUP6 LT ISZERO PUSH2 0x3F7A JUMPI DUP2 SWAP1 POP JUMPDEST PUSH2 0x3F8E PUSH2 0x3F86 DUP6 PUSH2 0x3E50 JUMP JUMPDEST DUP4 ADD DUP3 PUSH2 0x3F2D JUMP JUMPDEST POP POP JUMPDEST POP POP POP JUMP JUMPDEST PUSH1 0x0 DUP3 DUP3 SHR SWAP1 POP SWAP3 SWAP2 POP POP JUMP JUMPDEST PUSH1 0x0 PUSH2 0x3FB4 PUSH1 0x0 NOT DUP5 PUSH1 0x8 MUL PUSH2 0x3F96 JUMP JUMPDEST NOT DUP1 DUP4 AND SWAP2 POP POP SWAP3 SWAP2 POP POP JUMP JUMPDEST PUSH1 0x0 PUSH2 0x3FCD DUP4 DUP4 PUSH2 0x3FA3 JUMP JUMPDEST SWAP2 POP DUP3 PUSH1 0x2 MUL DUP3 OR SWAP1 POP SWAP3 SWAP2 POP POP JUMP JUMPDEST PUSH2 0x3FE6 DUP3 PUSH2 0x24BE JUMP JUMPDEST PUSH8 0xFFFFFFFFFFFFFFFF DUP2 GT ISZERO PUSH2 0x3FFF JUMPI PUSH2 0x3FFE PUSH2 0x282D JUMP JUMPDEST JUMPDEST PUSH2 0x4009 DUP3 SLOAD PUSH2 0x2BC5 JUMP JUMPDEST PUSH2 0x4014 DUP3 DUP3 DUP6 PUSH2 0x3F50 JUMP JUMPDEST PUSH1 0x0 PUSH1 0x20 SWAP1 POP PUSH1 0x1F DUP4 GT PUSH1 0x1 DUP2 EQ PUSH2 0x4047 JUMPI PUSH1 0x0 DUP5 ISZERO PUSH2 0x4035 JUMPI DUP3 DUP8 ADD MLOAD SWAP1 POP JUMPDEST PUSH2 0x403F DUP6 DUP3 PUSH2 0x3FC1 JUMP JUMPDEST DUP7 SSTORE POP PUSH2 0x40A7 JUMP JUMPDEST PUSH1 0x1F NOT DUP5 AND PUSH2 0x4055 DUP7 PUSH2 0x3E3B JUMP JUMPDEST PUSH1 0x0 JUMPDEST DUP3 DUP2 LT ISZERO PUSH2 0x407D JUMPI DUP5 DUP10 ADD MLOAD DUP3 SSTORE PUSH1 0x1 DUP3 ADD SWAP2 POP PUSH1 0x20 DUP6 ADD SWAP5 POP PUSH1 0x20 DUP2 ADD SWAP1 POP PUSH2 0x4058 JUMP JUMPDEST DUP7 DUP4 LT ISZERO PUSH2 0x409A JUMPI DUP5 DUP10 ADD MLOAD PUSH2 0x4096 PUSH1 0x1F DUP10 AND DUP3 PUSH2 0x3FA3 JUMP JUMPDEST DUP4 SSTORE POP JUMPDEST PUSH1 0x1 PUSH1 0x2 DUP9 MUL ADD DUP9 SSTORE POP POP POP JUMPDEST POP POP POP POP POP POP JUMP INVALID LOG2 PUSH5 0x6970667358 0x22 SLT KECCAK256 DUP3 0x29 CREATE2 COINBASE 0xE0 SWAP14 PUSH32 0x7F659EE4BC7E6F2FB63AE7140B959B7EFFE7D6645ECFBEE3DC64736F6C634300 ADDMOD SLT STOP CALLER "},"methodIdentifiers":{"allInOne_approve(address,address,uint256)":"7d6c32c1","allowance(address,address)":"dd62ed3e","approve(address,uint256)":"095ea7b3","balanceOf(address)":"70a08231","burn(uint256)":"42966c68","createFixedRate(address,uint256,uint256)":"276afcae","decimals()":"313ce567","decreaseAllowance(address,uint256)":"a457c2d7","getDTowner()":"b91fad93","getMaxSupply()":"4c0f38c2","increaseAllowance(address,uint256)":"39509351","initialize(string,string,address,address,address,address,uint256)":"97fc1a8a","isMinter(address)":"aa271e1a","mint(address,uint256)":"40c10f19","name()":"06fdde03","nonces(address)":"7ecebe00","nonces_(address)":"73c84f74","permit(address,address,uint256,uint256,uint8,bytes32,bytes32)":"d505accf","symbol()":"95d89b41","totalSupply()":"18160ddd","transfer(address,uint256)":"a9059cbb","transferFrom(address,address,uint256)":"23b872dd","withdraw()":"3ccfd60b"}}}}}