{
  "_format": "hh-sol-artifact-1",
  "contractName": "ERC721Base",
  "sourceName": "contracts/ERC721Base.sol",
  "abi": [
    {
      "anonymous": false,
      "inputs": [
        {
          "indexed": true,
          "internalType": "address",
          "name": "owner",
          "type": "address"
        },
        {
          "indexed": true,
          "internalType": "address",
          "name": "approved",
          "type": "address"
        },
        {
          "indexed": true,
          "internalType": "uint256",
          "name": "tokenId",
          "type": "uint256"
        }
      ],
      "name": "Approval",
      "type": "event"
    },
    {
      "anonymous": false,
      "inputs": [
        {
          "indexed": true,
          "internalType": "address",
          "name": "owner",
          "type": "address"
        },
        {
          "indexed": true,
          "internalType": "address",
          "name": "operator",
          "type": "address"
        },
        {
          "indexed": false,
          "internalType": "bool",
          "name": "approved",
          "type": "bool"
        }
      ],
      "name": "ApprovalForAll",
      "type": "event"
    },
    {
      "anonymous": false,
      "inputs": [
        {
          "indexed": false,
          "internalType": "uint256",
          "name": "_fromTokenId",
          "type": "uint256"
        },
        {
          "indexed": false,
          "internalType": "uint256",
          "name": "_toTokenId",
          "type": "uint256"
        }
      ],
      "name": "BatchMetadataUpdate",
      "type": "event"
    },
    {
      "anonymous": false,
      "inputs": [
        {
          "indexed": false,
          "internalType": "uint8",
          "name": "version",
          "type": "uint8"
        }
      ],
      "name": "Initialized",
      "type": "event"
    },
    {
      "anonymous": false,
      "inputs": [
        {
          "indexed": false,
          "internalType": "uint256",
          "name": "_tokenId",
          "type": "uint256"
        }
      ],
      "name": "MetadataUpdate",
      "type": "event"
    },
    {
      "anonymous": false,
      "inputs": [
        {
          "indexed": false,
          "internalType": "address",
          "name": "owner",
          "type": "address"
        },
        {
          "indexed": false,
          "internalType": "string",
          "name": "name",
          "type": "string"
        },
        {
          "indexed": false,
          "internalType": "string",
          "name": "symbol",
          "type": "string"
        },
        {
          "indexed": false,
          "internalType": "address",
          "name": "factory",
          "type": "address"
        }
      ],
      "name": "NFTminted",
      "type": "event"
    },
    {
      "anonymous": false,
      "inputs": [
        {
          "indexed": false,
          "internalType": "string",
          "name": "name",
          "type": "string"
        },
        {
          "indexed": false,
          "internalType": "string",
          "name": "symbol",
          "type": "string"
        },
        {
          "indexed": false,
          "internalType": "address",
          "name": "owner",
          "type": "address"
        },
        {
          "indexed": false,
          "internalType": "address",
          "name": "erc721address_",
          "type": "address"
        },
        {
          "indexed": false,
          "internalType": "address",
          "name": "newERC20Address",
          "type": "address"
        },
        {
          "indexed": false,
          "internalType": "uint256",
          "name": "maxSupply_",
          "type": "uint256"
        },
        {
          "indexed": false,
          "internalType": "uint256",
          "name": "initialSupply_",
          "type": "uint256"
        }
      ],
      "name": "TokenCreated",
      "type": "event"
    },
    {
      "anonymous": false,
      "inputs": [
        {
          "indexed": true,
          "internalType": "address",
          "name": "from",
          "type": "address"
        },
        {
          "indexed": true,
          "internalType": "address",
          "name": "to",
          "type": "address"
        },
        {
          "indexed": true,
          "internalType": "uint256",
          "name": "tokenId",
          "type": "uint256"
        }
      ],
      "name": "Transfer",
      "type": "event"
    },
    {
      "stateMutability": "payable",
      "type": "fallback"
    },
    {
      "inputs": [
        {
          "internalType": "address",
          "name": "erc20token",
          "type": "address"
        }
      ],
      "name": "addNewErc20token",
      "outputs": [],
      "stateMutability": "nonpayable",
      "type": "function"
    },
    {
      "inputs": [
        {
          "internalType": "address",
          "name": "to",
          "type": "address"
        },
        {
          "internalType": "uint256",
          "name": "tokenId",
          "type": "uint256"
        }
      ],
      "name": "approve",
      "outputs": [],
      "stateMutability": "nonpayable",
      "type": "function"
    },
    {
      "inputs": [
        {
          "internalType": "address",
          "name": "caller",
          "type": "address"
        }
      ],
      "name": "balanceOf",
      "outputs": [
        {
          "internalType": "uint256",
          "name": "",
          "type": "uint256"
        }
      ],
      "stateMutability": "view",
      "type": "function"
    },
    {
      "inputs": [
        {
          "internalType": "uint256",
          "name": "tokenId",
          "type": "uint256"
        }
      ],
      "name": "burn",
      "outputs": [],
      "stateMutability": "nonpayable",
      "type": "function"
    },
    {
      "inputs": [
        {
          "internalType": "string",
          "name": "name",
          "type": "string"
        },
        {
          "internalType": "string",
          "name": "symbol",
          "type": "string"
        },
        {
          "internalType": "address",
          "name": "erc721address_",
          "type": "address"
        },
        {
          "internalType": "uint256",
          "name": "maxSupply_",
          "type": "uint256"
        }
      ],
      "name": "createDataToken",
      "outputs": [
        {
          "internalType": "address",
          "name": "erc20token",
          "type": "address"
        }
      ],
      "stateMutability": "nonpayable",
      "type": "function"
    },
    {
      "inputs": [
        {
          "internalType": "uint256",
          "name": "tokenId",
          "type": "uint256"
        }
      ],
      "name": "getApproved",
      "outputs": [
        {
          "internalType": "address",
          "name": "",
          "type": "address"
        }
      ],
      "stateMutability": "view",
      "type": "function"
    },
    {
      "inputs": [],
      "name": "getDTaddresses",
      "outputs": [
        {
          "internalType": "address[]",
          "name": "",
          "type": "address[]"
        }
      ],
      "stateMutability": "view",
      "type": "function"
    },
    {
      "inputs": [],
      "name": "getNFTowner",
      "outputs": [
        {
          "internalType": "address",
          "name": "owner",
          "type": "address"
        }
      ],
      "stateMutability": "view",
      "type": "function"
    },
    {
      "inputs": [
        {
          "internalType": "address",
          "name": "owner",
          "type": "address"
        },
        {
          "internalType": "address",
          "name": "factory",
          "type": "address"
        },
        {
          "internalType": "string",
          "name": "name_",
          "type": "string"
        },
        {
          "internalType": "string",
          "name": "symbol_",
          "type": "string"
        },
        {
          "internalType": "string",
          "name": "_tokenURI",
          "type": "string"
        },
        {
          "internalType": "string",
          "name": "asset_download_URL",
          "type": "string"
        },
        {
          "internalType": "string",
          "name": "asset_hash",
          "type": "string"
        },
        {
          "internalType": "string",
          "name": "offering_hash",
          "type": "string"
        },
        {
          "internalType": "string",
          "name": "trust_sign",
          "type": "string"
        }
      ],
      "name": "initialize",
      "outputs": [
        {
          "internalType": "bool",
          "name": "",
          "type": "bool"
        }
      ],
      "stateMutability": "nonpayable",
      "type": "function"
    },
    {
      "inputs": [
        {
          "internalType": "address",
          "name": "owner",
          "type": "address"
        },
        {
          "internalType": "address",
          "name": "operator",
          "type": "address"
        }
      ],
      "name": "isApprovedForAll",
      "outputs": [
        {
          "internalType": "bool",
          "name": "",
          "type": "bool"
        }
      ],
      "stateMutability": "view",
      "type": "function"
    },
    {
      "inputs": [],
      "name": "name",
      "outputs": [
        {
          "internalType": "string",
          "name": "",
          "type": "string"
        }
      ],
      "stateMutability": "view",
      "type": "function"
    },
    {
      "inputs": [
        {
          "internalType": "uint256",
          "name": "tokenId",
          "type": "uint256"
        }
      ],
      "name": "ownerOf",
      "outputs": [
        {
          "internalType": "address",
          "name": "",
          "type": "address"
        }
      ],
      "stateMutability": "view",
      "type": "function"
    },
    {
      "inputs": [
        {
          "internalType": "address",
          "name": "from",
          "type": "address"
        },
        {
          "internalType": "address",
          "name": "to",
          "type": "address"
        },
        {
          "internalType": "uint256",
          "name": "tokenId",
          "type": "uint256"
        }
      ],
      "name": "safeTransferFrom",
      "outputs": [],
      "stateMutability": "nonpayable",
      "type": "function"
    },
    {
      "inputs": [
        {
          "internalType": "address",
          "name": "from",
          "type": "address"
        },
        {
          "internalType": "address",
          "name": "to",
          "type": "address"
        },
        {
          "internalType": "uint256",
          "name": "tokenId",
          "type": "uint256"
        },
        {
          "internalType": "bytes",
          "name": "data",
          "type": "bytes"
        }
      ],
      "name": "safeTransferFrom",
      "outputs": [],
      "stateMutability": "nonpayable",
      "type": "function"
    },
    {
      "inputs": [
        {
          "internalType": "address",
          "name": "operator",
          "type": "address"
        },
        {
          "internalType": "bool",
          "name": "approved",
          "type": "bool"
        }
      ],
      "name": "setApprovalForAll",
      "outputs": [],
      "stateMutability": "nonpayable",
      "type": "function"
    },
    {
      "inputs": [
        {
          "internalType": "bytes4",
          "name": "interfaceId",
          "type": "bytes4"
        }
      ],
      "name": "supportsInterface",
      "outputs": [
        {
          "internalType": "bool",
          "name": "",
          "type": "bool"
        }
      ],
      "stateMutability": "view",
      "type": "function"
    },
    {
      "inputs": [],
      "name": "symbol",
      "outputs": [
        {
          "internalType": "string",
          "name": "",
          "type": "string"
        }
      ],
      "stateMutability": "view",
      "type": "function"
    },
    {
      "inputs": [
        {
          "internalType": "uint256",
          "name": "tokenId",
          "type": "uint256"
        }
      ],
      "name": "tokenURI",
      "outputs": [
        {
          "internalType": "string",
          "name": "",
          "type": "string"
        }
      ],
      "stateMutability": "view",
      "type": "function"
    },
    {
      "inputs": [
        {
          "internalType": "address",
          "name": "from",
          "type": "address"
        },
        {
          "internalType": "address",
          "name": "to",
          "type": "address"
        },
        {
          "internalType": "uint256",
          "name": "tokenId",
          "type": "uint256"
        }
      ],
      "name": "transferFrom",
      "outputs": [],
      "stateMutability": "nonpayable",
      "type": "function"
    },
    {
      "stateMutability": "payable",
      "type": "receive"
    }
  ],
  "bytecode": "0x608060405234801561001057600080fd5b50613fb4806100206000396000f3fe6080604052600436106101185760003560e01c80636352211e116100a0578063a22cb46511610064578063a22cb465146103dd578063b6d3a1d214610406578063b88d4fde14610431578063c87b56dd1461045a578063e985e9c5146104975761011f565b80636352211e146102d257806370a082311461030f5780637cec4c7c1461034c57806395d89b41146103895780639dfbe3bf146103b45761011f565b806311e095c4116100e757806311e095c4146101ef57806323b872dd1461022c57806342842e0e1461025557806342966c681461027e5780635245f3bd146102a75761011f565b806301ffc9a71461012157806306fdde031461015e578063081812fc14610189578063095ea7b3146101c65761011f565b3661011f57005b005b34801561012d57600080fd5b50610148600480360381019061014391906126b6565b6104d4565b60405161015591906126fe565b60405180910390f35b34801561016a57600080fd5b506101736104e6565b60405161018091906127a9565b60405180910390f35b34801561019557600080fd5b506101b060048036038101906101ab9190612801565b610578565b6040516101bd919061286f565b60405180910390f35b3480156101d257600080fd5b506101ed60048036038101906101e891906128b6565b6105be565b005b3480156101fb57600080fd5b506102166004803603810190610211919061295b565b6106d5565b604051610223919061286f565b60405180910390f35b34801561023857600080fd5b50610253600480360381019061024e9190612a02565b6108f2565b005b34801561026157600080fd5b5061027c60048036038101906102779190612a02565b610952565b005b34801561028a57600080fd5b506102a560048036038101906102a09190612801565b610972565b005b3480156102b357600080fd5b506102bc6109f5565b6040516102c9919061286f565b60405180910390f35b3480156102de57600080fd5b506102f960048036038101906102f49190612801565b610a06565b604051610306919061286f565b60405180910390f35b34801561031b57600080fd5b5061033660048036038101906103319190612a55565b610a8c565b6040516103439190612a91565b60405180910390f35b34801561035857600080fd5b50610373600480360381019061036e9190612bdc565b610a9e565b60405161038091906126fe565b60405180910390f35b34801561039557600080fd5b5061039e610d8e565b6040516103ab91906127a9565b60405180910390f35b3480156103c057600080fd5b506103db60048036038101906103d69190612a55565b610e20565b005b3480156103e957600080fd5b5061040460048036038101906103ff9190612d96565b610f16565b005b34801561041257600080fd5b5061041b610f2c565b6040516104289190612e94565b60405180910390f35b34801561043d57600080fd5b5061045860048036038101906104539190612f57565b610fba565b005b34801561046657600080fd5b50610481600480360381019061047c9190612801565b61101c565b60405161048e91906127a9565b60405180910390f35b3480156104a357600080fd5b506104be60048036038101906104b99190612fda565b61102e565b6040516104cb91906126fe565b60405180910390f35b60006104df826110c2565b9050919050565b6060606580546104f590613049565b80601f016020809104026020016040519081016040528092919081815260200182805461052190613049565b801561056e5780601f106105435761010080835404028352916020019161056e565b820191906000526020600020905b81548152906001019060200180831161055157829003601f168201915b5050505050905090565b600061058382611123565b6069600083815260200190815260200160002060009054906101000a900473ffffffffffffffffffffffffffffffffffffffff169050919050565b60006105c982610a06565b90508073ffffffffffffffffffffffffffffffffffffffff168373ffffffffffffffffffffffffffffffffffffffff1603610639576040517f08c379a0000000000000000000000000000000000000000000000000000000008152600401610630906130ec565b60405180910390fd5b8073ffffffffffffffffffffffffffffffffffffffff1661065861116e565b73ffffffffffffffffffffffffffffffffffffffff16148061068757506106868161068161116e565b61102e565b5b6106c6576040517f08c379a00000000000000000000000000000000000000000000000000000000081526004016106bd9061317e565b60405180910390fd5b6106d08383611176565b505050565b60006106e16001610a06565b73ffffffffffffffffffffffffffffffffffffffff163373ffffffffffffffffffffffffffffffffffffffff161461074e576040517f08c379a0000000000000000000000000000000000000000000000000000000008152600401610745906131ea565b60405180910390fd5b60008211610791576040517f08c379a000000000000000000000000000000000000000000000000000000000815260040161078890613256565b60405180910390fd5b60c960009054906101000a900473ffffffffffffffffffffffffffffffffffffffff1673ffffffffffffffffffffffffffffffffffffffff16631fccb56d888888883389896040518863ffffffff1660e01b81526004016107f897969594939291906132a3565b6020604051808303816000875af1158015610817573d6000803e3d6000fd5b505050506040513d601f19601f8201168201806040525081019061083b919061331d565b905060ca819080600181540180825580915050600190039060005260206000200160009091909190916101000a81548173ffffffffffffffffffffffffffffffffffffffff021916908373ffffffffffffffffffffffffffffffffffffffff1602179055507f7ded605ee5eb960743663ce41947ea21cc226061bd4323712c0cfd89117c5fc68787878733308760008a6040516108e09998979695949392919061338f565b60405180910390a19695505050505050565b6109036108fd61116e565b8261122f565b610942576040517f08c379a000000000000000000000000000000000000000000000000000000000815260040161093990613482565b60405180910390fd5b61094d8383836112c4565b505050565b61096d83838360405180602001604052806000815250610fba565b505050565b61097c6001610a06565b73ffffffffffffffffffffffffffffffffffffffff163373ffffffffffffffffffffffffffffffffffffffff16146109e9576040517f08c379a00000000000000000000000000000000000000000000000000000000081526004016109e0906131ea565b60405180910390fd5b6109f2816115bd565b50565b6000610a016001610a06565b905090565b600080610a1283611640565b9050600073ffffffffffffffffffffffffffffffffffffffff168173ffffffffffffffffffffffffffffffffffffffff1603610a83576040517f08c379a0000000000000000000000000000000000000000000000000000000008152600401610a7a906134ee565b60405180910390fd5b80915050919050565b6000610a978261167d565b9050919050565b600080600060019054906101000a900460ff16159050808015610ad15750600160008054906101000a900460ff1660ff16105b80610afe5750610ae030611734565b158015610afd5750600160008054906101000a900460ff1660ff16145b5b610b3d576040517f08c379a0000000000000000000000000000000000000000000000000000000008152600401610b3490613580565b60405180910390fd5b60016000806101000a81548160ff021916908360ff1602179055508015610b7a576001600060016101000a81548160ff0219169083151502179055505b600073ffffffffffffffffffffffffffffffffffffffff168b73ffffffffffffffffffffffffffffffffffffffff1603610be9576040517f08c379a0000000000000000000000000000000000000000000000000000000008152600401610be090613612565b60405180910390fd5b610bf38989611757565b610bfb6117b4565b8960c960006101000a81548173ffffffffffffffffffffffffffffffffffffffff021916908373ffffffffffffffffffffffffffffffffffffffff160217905550610c478b6001611805565b610c52600188611823565b8560cb9081610c6191906137d4565b5060405180606001604052808681526020018581526020018481525060cc6000820151816000019081610c9491906137d4565b506020820151816001019081610caa91906137d4565b506040820151816002019081610cc091906137d4565b509050507fd133d105f7b44671ec3a00c607590e7154adaafd2e0e9542b201374f293585198b8a8a60c960009054906101000a900473ffffffffffffffffffffffffffffffffffffffff16604051610d1b94939291906138a6565b60405180910390a1600191508015610d805760008060016101000a81548160ff0219169083151502179055507f7f26b83ff96e1f2b6a682f133852f6798a09c465da95921460cefb38474024986001604051610d779190613941565b60405180910390a15b509998505050505050505050565b606060668054610d9d90613049565b80601f0160208091040260200160405190810160405280929190818152602001828054610dc990613049565b8015610e165780601f10610deb57610100808354040283529160200191610e16565b820191906000526020600020905b815481529060010190602001808311610df957829003601f168201915b5050505050905090565b60c960009054906101000a900473ffffffffffffffffffffffffffffffffffffffff1673ffffffffffffffffffffffffffffffffffffffff163373ffffffffffffffffffffffffffffffffffffffff1614610eb0576040517f08c379a0000000000000000000000000000000000000000000000000000000008152600401610ea7906131ea565b60405180910390fd5b60ca819080600181540180825580915050600190039060005260206000200160009091909190916101000a81548173ffffffffffffffffffffffffffffffffffffffff021916908373ffffffffffffffffffffffffffffffffffffffff16021790555050565b610f28610f2161116e565b83836118c7565b5050565b606060ca805480602002602001604051908101604052809291908181526020018280548015610fb057602002820191906000526020600020905b8160009054906101000a900473ffffffffffffffffffffffffffffffffffffffff1673ffffffffffffffffffffffffffffffffffffffff1681526020019060010190808311610f66575b5050505050905090565b610fcb610fc561116e565b8361122f565b61100a576040517f08c379a000000000000000000000000000000000000000000000000000000000815260040161100190613482565b60405180910390fd5b61101684848484611a33565b50505050565b606061102782611a8f565b9050919050565b6000606a60008473ffffffffffffffffffffffffffffffffffffffff1673ffffffffffffffffffffffffffffffffffffffff16815260200190815260200160002060008373ffffffffffffffffffffffffffffffffffffffff1673ffffffffffffffffffffffffffffffffffffffff16815260200190815260200160002060009054906101000a900460ff16905092915050565b6000634906490660e01b7bffffffffffffffffffffffffffffffffffffffffffffffffffffffff1916827bffffffffffffffffffffffffffffffffffffffffffffffffffffffff1916148061111c575061111b82611ba1565b5b9050919050565b61112c81611c83565b61116b576040517f08c379a0000000000000000000000000000000000000000000000000000000008152600401611162906134ee565b60405180910390fd5b50565b600033905090565b816069600083815260200190815260200160002060006101000a81548173ffffffffffffffffffffffffffffffffffffffff021916908373ffffffffffffffffffffffffffffffffffffffff160217905550808273ffffffffffffffffffffffffffffffffffffffff166111e983610a06565b73ffffffffffffffffffffffffffffffffffffffff167f8c5be1e5ebec7d5bd14f71427d1e84f3dd0314c0f7b2291e5b200ac8c7c3b92560405160405180910390a45050565b60008061123b83610a06565b90508073ffffffffffffffffffffffffffffffffffffffff168473ffffffffffffffffffffffffffffffffffffffff16148061127d575061127c818561102e565b5b806112bb57508373ffffffffffffffffffffffffffffffffffffffff166112a384610578565b73ffffffffffffffffffffffffffffffffffffffff16145b91505092915050565b8273ffffffffffffffffffffffffffffffffffffffff166112e482610a06565b73ffffffffffffffffffffffffffffffffffffffff161461133a576040517f08c379a0000000000000000000000000000000000000000000000000000000008152600401611331906139ce565b60405180910390fd5b600073ffffffffffffffffffffffffffffffffffffffff168273ffffffffffffffffffffffffffffffffffffffff16036113a9576040517f08c379a00000000000000000000000000000000000000000000000000000000081526004016113a090613a60565b60405180910390fd5b6113b68383836001611cc4565b8273ffffffffffffffffffffffffffffffffffffffff166113d682610a06565b73ffffffffffffffffffffffffffffffffffffffff161461142c576040517f08c379a0000000000000000000000000000000000000000000000000000000008152600401611423906139ce565b60405180910390fd5b6069600082815260200190815260200160002060006101000a81549073ffffffffffffffffffffffffffffffffffffffff02191690556001606860008573ffffffffffffffffffffffffffffffffffffffff1673ffffffffffffffffffffffffffffffffffffffff168152602001908152602001600020600082825403925050819055506001606860008473ffffffffffffffffffffffffffffffffffffffff1673ffffffffffffffffffffffffffffffffffffffff16815260200190815260200160002060008282540192505081905550816067600083815260200190815260200160002060006101000a81548173ffffffffffffffffffffffffffffffffffffffff021916908373ffffffffffffffffffffffffffffffffffffffff160217905550808273ffffffffffffffffffffffffffffffffffffffff168473ffffffffffffffffffffffffffffffffffffffff167fddf252ad1be2c89b69c2b068fc378daa952ba7f163c4a11628f55a4df523b3ef60405160405180910390a46115b88383836001611cca565b505050565b6115c76001610a06565b73ffffffffffffffffffffffffffffffffffffffff163373ffffffffffffffffffffffffffffffffffffffff1614611634576040517f08c379a000000000000000000000000000000000000000000000000000000000815260040161162b906131ea565b60405180910390fd5b61163d81611cd0565b50565b60006067600083815260200190815260200160002060009054906101000a900473ffffffffffffffffffffffffffffffffffffffff169050919050565b60008073ffffffffffffffffffffffffffffffffffffffff168273ffffffffffffffffffffffffffffffffffffffff16036116ed576040517f08c379a00000000000000000000000000000000000000000000000000000000081526004016116e490613af2565b60405180910390fd5b606860008373ffffffffffffffffffffffffffffffffffffffff1673ffffffffffffffffffffffffffffffffffffffff168152602001908152602001600020549050919050565b6000808273ffffffffffffffffffffffffffffffffffffffff163b119050919050565b600060019054906101000a900460ff166117a6576040517f08c379a000000000000000000000000000000000000000000000000000000000815260040161179d90613b84565b60405180910390fd5b6117b08282611d23565b5050565b600060019054906101000a900460ff16611803576040517f08c379a00000000000000000000000000000000000000000000000000000000081526004016117fa90613b84565b60405180910390fd5b565b61181f828260405180602001604052806000815250611d96565b5050565b61182c82611c83565b61186b576040517f08c379a000000000000000000000000000000000000000000000000000000000815260040161186290613c16565b60405180910390fd5b8060976000848152602001908152602001600020908161188b91906137d4565b507ff8e1a15aba9398e019f0b49df1a4fde98ee17ae345cb5f6b5e2c27f5033e8ce7826040516118bb9190612a91565b60405180910390a15050565b8173ffffffffffffffffffffffffffffffffffffffff168373ffffffffffffffffffffffffffffffffffffffff1603611935576040517f08c379a000000000000000000000000000000000000000000000000000000000815260040161192c90613c82565b60405180910390fd5b80606a60008573ffffffffffffffffffffffffffffffffffffffff1673ffffffffffffffffffffffffffffffffffffffff16815260200190815260200160002060008473ffffffffffffffffffffffffffffffffffffffff1673ffffffffffffffffffffffffffffffffffffffff16815260200190815260200160002060006101000a81548160ff0219169083151502179055508173ffffffffffffffffffffffffffffffffffffffff168373ffffffffffffffffffffffffffffffffffffffff167f17307eab39ab6107e8899845ad3d59bd9653f200f220920489ca2b5937696c3183604051611a2691906126fe565b60405180910390a3505050565b611a3e8484846112c4565b611a4a84848484611df1565b611a89576040517f08c379a0000000000000000000000000000000000000000000000000000000008152600401611a8090613d14565b60405180910390fd5b50505050565b6060611a9a82611123565b6000609760008481526020019081526020016000208054611aba90613049565b80601f0160208091040260200160405190810160405280929190818152602001828054611ae690613049565b8015611b335780601f10611b0857610100808354040283529160200191611b33565b820191906000526020600020905b815481529060010190602001808311611b1657829003601f168201915b505050505090506000611b44611f78565b90506000815103611b59578192505050611b9c565b600082511115611b8e578082604051602001611b76929190613d70565b60405160208183030381529060405292505050611b9c565b611b9784611f8f565b925050505b919050565b60007f80ac58cd000000000000000000000000000000000000000000000000000000007bffffffffffffffffffffffffffffffffffffffffffffffffffffffff1916827bffffffffffffffffffffffffffffffffffffffffffffffffffffffff19161480611c6c57507f5b5e139f000000000000000000000000000000000000000000000000000000007bffffffffffffffffffffffffffffffffffffffffffffffffffffffff1916827bffffffffffffffffffffffffffffffffffffffffffffffffffffffff1916145b80611c7c5750611c7b82611ff7565b5b9050919050565b60008073ffffffffffffffffffffffffffffffffffffffff16611ca583611640565b73ffffffffffffffffffffffffffffffffffffffff1614159050919050565b50505050565b50505050565b611cd981612061565b6000609760008381526020019081526020016000208054611cf990613049565b905014611d2057609760008281526020019081526020016000206000611d1f91906125ed565b5b50565b600060019054906101000a900460ff16611d72576040517f08c379a0000000000000000000000000000000000000000000000000000000008152600401611d6990613b84565b60405180910390fd5b8160659081611d8191906137d4565b508060669081611d9191906137d4565b505050565b611da083836121af565b611dad6000848484611df1565b611dec576040517f08c379a0000000000000000000000000000000000000000000000000000000008152600401611de390613d14565b60405180910390fd5b505050565b6000611e128473ffffffffffffffffffffffffffffffffffffffff16611734565b15611f6b578373ffffffffffffffffffffffffffffffffffffffff1663150b7a02611e3b61116e565b8786866040518563ffffffff1660e01b8152600401611e5d9493929190613de9565b6020604051808303816000875af1925050508015611e9957506040513d601f19601f82011682018060405250810190611e969190613e4a565b60015b611f1b573d8060008114611ec9576040519150601f19603f3d011682016040523d82523d6000602084013e611ece565b606091505b506000815103611f13576040517f08c379a0000000000000000000000000000000000000000000000000000000008152600401611f0a90613d14565b60405180910390fd5b805181602001fd5b63150b7a0260e01b7bffffffffffffffffffffffffffffffffffffffffffffffffffffffff1916817bffffffffffffffffffffffffffffffffffffffffffffffffffffffff191614915050611f70565b600190505b949350505050565b606060405180602001604052806000815250905090565b6060611f9a82611123565b6000611fa4611f78565b90506000815111611fc45760405180602001604052806000815250611fef565b80611fce846123cc565b604051602001611fdf929190613d70565b6040516020818303038152906040525b915050919050565b60007f01ffc9a7000000000000000000000000000000000000000000000000000000007bffffffffffffffffffffffffffffffffffffffffffffffffffffffff1916827bffffffffffffffffffffffffffffffffffffffffffffffffffffffff1916149050919050565b600061206c82610a06565b905061207c816000846001611cc4565b61208582610a06565b90506069600083815260200190815260200160002060006101000a81549073ffffffffffffffffffffffffffffffffffffffff02191690556001606860008373ffffffffffffffffffffffffffffffffffffffff1673ffffffffffffffffffffffffffffffffffffffff168152602001908152602001600020600082825403925050819055506067600083815260200190815260200160002060006101000a81549073ffffffffffffffffffffffffffffffffffffffff021916905581600073ffffffffffffffffffffffffffffffffffffffff168273ffffffffffffffffffffffffffffffffffffffff167fddf252ad1be2c89b69c2b068fc378daa952ba7f163c4a11628f55a4df523b3ef60405160405180910390a46121ab816000846001611cca565b5050565b600073ffffffffffffffffffffffffffffffffffffffff168273ffffffffffffffffffffffffffffffffffffffff160361221e576040517f08c379a000000000000000000000000000000000000000000000000000000000815260040161221590613ec3565b60405180910390fd5b61222781611c83565b15612267576040517f08c379a000000000000000000000000000000000000000000000000000000000815260040161225e90613f2f565b60405180910390fd5b612275600083836001611cc4565b61227e81611c83565b156122be576040517f08c379a00000000000000000000000000000000000000000000000000000000081526004016122b590613f2f565b60405180910390fd5b6001606860008473ffffffffffffffffffffffffffffffffffffffff1673ffffffffffffffffffffffffffffffffffffffff16815260200190815260200160002060008282540192505081905550816067600083815260200190815260200160002060006101000a81548173ffffffffffffffffffffffffffffffffffffffff021916908373ffffffffffffffffffffffffffffffffffffffff160217905550808273ffffffffffffffffffffffffffffffffffffffff16600073ffffffffffffffffffffffffffffffffffffffff167fddf252ad1be2c89b69c2b068fc378daa952ba7f163c4a11628f55a4df523b3ef60405160405180910390a46123c8600083836001611cca565b5050565b6060600060016123db8461249a565b01905060008167ffffffffffffffff8111156123fa576123f9612ab1565b5b6040519080825280601f01601f19166020018201604052801561242c5781602001600182028036833780820191505090505b509050600082602001820190505b60011561248f578080600190039150507f3031323334353637383961626364656600000000000000000000000000000000600a86061a8153600a858161248357612482613f4f565b5b0494506000850361243a575b819350505050919050565b600080600090507a184f03e93ff9f4daa797ed6e38ed64bf6a1f01000000000000000083106124f8577a184f03e93ff9f4daa797ed6e38ed64bf6a1f01000000000000000083816124ee576124ed613f4f565b5b0492506040810190505b6d04ee2d6d415b85acef81000000008310612535576d04ee2d6d415b85acef8100000000838161252b5761252a613f4f565b5b0492506020810190505b662386f26fc10000831061256457662386f26fc10000838161255a57612559613f4f565b5b0492506010810190505b6305f5e100831061258d576305f5e100838161258357612582613f4f565b5b0492506008810190505b61271083106125b25761271083816125a8576125a7613f4f565b5b0492506004810190505b606483106125d557606483816125cb576125ca613f4f565b5b0492506002810190505b600a83106125e4576001810190505b80915050919050565b5080546125f990613049565b6000825580601f1061260b575061262a565b601f016020900490600052602060002090810190612629919061262d565b5b50565b5b8082111561264657600081600090555060010161262e565b5090565b6000604051905090565b600080fd5b600080fd5b60007fffffffff0000000000000000000000000000000000000000000000000000000082169050919050565b6126938161265e565b811461269e57600080fd5b50565b6000813590506126b08161268a565b92915050565b6000602082840312156126cc576126cb612654565b5b60006126da848285016126a1565b91505092915050565b60008115159050919050565b6126f8816126e3565b82525050565b600060208201905061271360008301846126ef565b92915050565b600081519050919050565b600082825260208201905092915050565b60005b83811015612753578082015181840152602081019050612738565b60008484015250505050565b6000601f19601f8301169050919050565b600061277b82612719565b6127858185612724565b9350612795818560208601612735565b61279e8161275f565b840191505092915050565b600060208201905081810360008301526127c38184612770565b905092915050565b6000819050919050565b6127de816127cb565b81146127e957600080fd5b50565b6000813590506127fb816127d5565b92915050565b60006020828403121561281757612816612654565b5b6000612825848285016127ec565b91505092915050565b600073ffffffffffffffffffffffffffffffffffffffff82169050919050565b60006128598261282e565b9050919050565b6128698161284e565b82525050565b60006020820190506128846000830184612860565b92915050565b6128938161284e565b811461289e57600080fd5b50565b6000813590506128b08161288a565b92915050565b600080604083850312156128cd576128cc612654565b5b60006128db858286016128a1565b92505060206128ec858286016127ec565b9150509250929050565b600080fd5b600080fd5b600080fd5b60008083601f84011261291b5761291a6128f6565b5b8235905067ffffffffffffffff811115612938576129376128fb565b5b60208301915083600182028301111561295457612953612900565b5b9250929050565b6000806000806000806080878903121561297857612977612654565b5b600087013567ffffffffffffffff81111561299657612995612659565b5b6129a289828a01612905565b9650965050602087013567ffffffffffffffff8111156129c5576129c4612659565b5b6129d189828a01612905565b945094505060406129e489828a016128a1565b92505060606129f589828a016127ec565b9150509295509295509295565b600080600060608486031215612a1b57612a1a612654565b5b6000612a29868287016128a1565b9350506020612a3a868287016128a1565b9250506040612a4b868287016127ec565b9150509250925092565b600060208284031215612a6b57612a6a612654565b5b6000612a79848285016128a1565b91505092915050565b612a8b816127cb565b82525050565b6000602082019050612aa66000830184612a82565b92915050565b600080fd5b7f4e487b7100000000000000000000000000000000000000000000000000000000600052604160045260246000fd5b612ae98261275f565b810181811067ffffffffffffffff82111715612b0857612b07612ab1565b5b80604052505050565b6000612b1b61264a565b9050612b278282612ae0565b919050565b600067ffffffffffffffff821115612b4757612b46612ab1565b5b612b508261275f565b9050602081019050919050565b82818337600083830152505050565b6000612b7f612b7a84612b2c565b612b11565b905082815260208101848484011115612b9b57612b9a612aac565b5b612ba6848285612b5d565b509392505050565b600082601f830112612bc357612bc26128f6565b5b8135612bd3848260208601612b6c565b91505092915050565b60008060008060008060008060006101208a8c031215612bff57612bfe612654565b5b6000612c0d8c828d016128a1565b9950506020612c1e8c828d016128a1565b98505060408a013567ffffffffffffffff811115612c3f57612c3e612659565b5b612c4b8c828d01612bae565b97505060608a013567ffffffffffffffff811115612c6c57612c6b612659565b5b612c788c828d01612bae565b96505060808a013567ffffffffffffffff811115612c9957612c98612659565b5b612ca58c828d01612bae565b95505060a08a013567ffffffffffffffff811115612cc657612cc5612659565b5b612cd28c828d01612bae565b94505060c08a013567ffffffffffffffff811115612cf357612cf2612659565b5b612cff8c828d01612bae565b93505060e08a013567ffffffffffffffff811115612d2057612d1f612659565b5b612d2c8c828d01612bae565b9250506101008a013567ffffffffffffffff811115612d4e57612d4d612659565b5b612d5a8c828d01612bae565b9150509295985092959850929598565b612d73816126e3565b8114612d7e57600080fd5b50565b600081359050612d9081612d6a565b92915050565b60008060408385031215612dad57612dac612654565b5b6000612dbb858286016128a1565b9250506020612dcc85828601612d81565b9150509250929050565b600081519050919050565b600082825260208201905092915050565b6000819050602082019050919050565b612e0b8161284e565b82525050565b6000612e1d8383612e02565b60208301905092915050565b6000602082019050919050565b6000612e4182612dd6565b612e4b8185612de1565b9350612e5683612df2565b8060005b83811015612e87578151612e6e8882612e11565b9750612e7983612e29565b925050600181019050612e5a565b5085935050505092915050565b60006020820190508181036000830152612eae8184612e36565b905092915050565b600067ffffffffffffffff821115612ed157612ed0612ab1565b5b612eda8261275f565b9050602081019050919050565b6000612efa612ef584612eb6565b612b11565b905082815260208101848484011115612f1657612f15612aac565b5b612f21848285612b5d565b509392505050565b600082601f830112612f3e57612f3d6128f6565b5b8135612f4e848260208601612ee7565b91505092915050565b60008060008060808587031215612f7157612f70612654565b5b6000612f7f878288016128a1565b9450506020612f90878288016128a1565b9350506040612fa1878288016127ec565b925050606085013567ffffffffffffffff811115612fc257612fc1612659565b5b612fce87828801612f29565b91505092959194509250565b60008060408385031215612ff157612ff0612654565b5b6000612fff858286016128a1565b9250506020613010858286016128a1565b9150509250929050565b7f4e487b7100000000000000000000000000000000000000000000000000000000600052602260045260246000fd5b6000600282049050600182168061306157607f821691505b6020821081036130745761307361301a565b5b50919050565b7f4552433732313a20617070726f76616c20746f2063757272656e74206f776e6560008201527f7200000000000000000000000000000000000000000000000000000000000000602082015250565b60006130d6602183612724565b91506130e18261307a565b604082019050919050565b60006020820190508181036000830152613105816130c9565b9050919050565b7f4552433732313a20617070726f76652063616c6c6572206973206e6f7420746f60008201527f6b656e206f776e6572206f7220617070726f76656420666f7220616c6c000000602082015250565b6000613168603d83612724565b91506131738261310c565b604082019050919050565b600060208201905081810360008301526131978161315b565b9050919050565b7f4e6f7420746865204e4654206f776e6572210000000000000000000000000000600082015250565b60006131d4601283612724565b91506131df8261319e565b602082019050919050565b60006020820190508181036000830152613203816131c7565b9050919050565b7f43617020616e6420696e697469616c20737570706c79206e6f742076616c6964600082015250565b6000613240602083612724565b915061324b8261320a565b602082019050919050565b6000602082019050818103600083015261326f81613233565b9050919050565b60006132828385612724565b935061328f838584612b5d565b6132988361275f565b840190509392505050565b600060a08201905081810360008301526132be81898b613276565b905081810360208301526132d3818789613276565b90506132e26040830186612860565b6132ef6060830185612860565b6132fc6080830184612a82565b98975050505050505050565b6000815190506133178161288a565b92915050565b60006020828403121561333357613332612654565b5b600061334184828501613308565b91505092915050565b6000819050919050565b6000819050919050565b600061337961337461336f8461334a565b613354565b6127cb565b9050919050565b6133898161335e565b82525050565b600060e08201905081810360008301526133aa818b8d613276565b905081810360208301526133bf81898b613276565b90506133ce6040830188612860565b6133db6060830187612860565b6133e86080830186612860565b6133f560a0830185613380565b61340260c0830184612a82565b9a9950505050505050505050565b7f4552433732313a2063616c6c6572206973206e6f7420746f6b656e206f776e6560008201527f72206f7220617070726f76656400000000000000000000000000000000000000602082015250565b600061346c602d83612724565b915061347782613410565b604082019050919050565b6000602082019050818103600083015261349b8161345f565b9050919050565b7f4552433732313a20696e76616c696420746f6b656e2049440000000000000000600082015250565b60006134d8601883612724565b91506134e3826134a2565b602082019050919050565b60006020820190508181036000830152613507816134cb565b9050919050565b7f496e697469616c697a61626c653a20636f6e747261637420697320616c72656160008201527f647920696e697469616c697a6564000000000000000000000000000000000000602082015250565b600061356a602e83612724565b91506135758261350e565b604082019050919050565b600060208201905081810360008301526135998161355d565b9050919050565b7f496e76616c6964204e4654206f776e65723a207a65726f20616464726573732060008201527f6e6f742076616c69642100000000000000000000000000000000000000000000602082015250565b60006135fc602a83612724565b9150613607826135a0565b604082019050919050565b6000602082019050818103600083015261362b816135ef565b9050919050565b60008190508160005260206000209050919050565b60006020601f8301049050919050565b600082821b905092915050565b6000600883026136947fffffffffffffffffffffffffffffffffffffffffffffffffffffffffffffffff82613657565b61369e8683613657565b95508019841693508086168417925050509392505050565b60006136d16136cc6136c7846127cb565b613354565b6127cb565b9050919050565b6000819050919050565b6136eb836136b6565b6136ff6136f7826136d8565b848454613664565b825550505050565b600090565b613714613707565b61371f8184846136e2565b505050565b5b818110156137435761373860008261370c565b600181019050613725565b5050565b601f8211156137885761375981613632565b61376284613647565b81016020851015613771578190505b61378561377d85613647565b830182613724565b50505b505050565b600082821c905092915050565b60006137ab6000198460080261378d565b1980831691505092915050565b60006137c4838361379a565b9150826002028217905092915050565b6137dd82612719565b67ffffffffffffffff8111156137f6576137f5612ab1565b5b6138008254613049565b61380b828285613747565b600060209050601f83116001811461383e576000841561382c578287015190505b61383685826137b8565b86555061389e565b601f19841661384c86613632565b60005b828110156138745784890151825560018201915060208501945060208101905061384f565b86831015613891578489015161388d601f89168261379a565b8355505b6001600288020188555050505b505050505050565b60006080820190506138bb6000830187612860565b81810360208301526138cd8186612770565b905081810360408301526138e18185612770565b90506138f06060830184612860565b95945050505050565b6000819050919050565b600060ff82169050919050565b600061392b613926613921846138f9565b613354565b613903565b9050919050565b61393b81613910565b82525050565b60006020820190506139566000830184613932565b92915050565b7f4552433732313a207472616e736665722066726f6d20696e636f72726563742060008201527f6f776e6572000000000000000000000000000000000000000000000000000000602082015250565b60006139b8602583612724565b91506139c38261395c565b604082019050919050565b600060208201905081810360008301526139e7816139ab565b9050919050565b7f4552433732313a207472616e7366657220746f20746865207a65726f2061646460008201527f7265737300000000000000000000000000000000000000000000000000000000602082015250565b6000613a4a602483612724565b9150613a55826139ee565b604082019050919050565b60006020820190508181036000830152613a7981613a3d565b9050919050565b7f4552433732313a2061646472657373207a65726f206973206e6f74206120766160008201527f6c6964206f776e65720000000000000000000000000000000000000000000000602082015250565b6000613adc602983612724565b9150613ae782613a80565b604082019050919050565b60006020820190508181036000830152613b0b81613acf565b9050919050565b7f496e697469616c697a61626c653a20636f6e7472616374206973206e6f74206960008201527f6e697469616c697a696e67000000000000000000000000000000000000000000602082015250565b6000613b6e602b83612724565b9150613b7982613b12565b604082019050919050565b60006020820190508181036000830152613b9d81613b61565b9050919050565b7f45524337323155524953746f726167653a2055524920736574206f66206e6f6e60008201527f6578697374656e7420746f6b656e000000000000000000000000000000000000602082015250565b6000613c00602e83612724565b9150613c0b82613ba4565b604082019050919050565b60006020820190508181036000830152613c2f81613bf3565b9050919050565b7f4552433732313a20617070726f766520746f2063616c6c657200000000000000600082015250565b6000613c6c601983612724565b9150613c7782613c36565b602082019050919050565b60006020820190508181036000830152613c9b81613c5f565b9050919050565b7f4552433732313a207472616e7366657220746f206e6f6e20455243373231526560008201527f63656976657220696d706c656d656e7465720000000000000000000000000000602082015250565b6000613cfe603283612724565b9150613d0982613ca2565b604082019050919050565b60006020820190508181036000830152613d2d81613cf1565b9050919050565b600081905092915050565b6000613d4a82612719565b613d548185613d34565b9350613d64818560208601612735565b80840191505092915050565b6000613d7c8285613d3f565b9150613d888284613d3f565b91508190509392505050565b600081519050919050565b600082825260208201905092915050565b6000613dbb82613d94565b613dc58185613d9f565b9350613dd5818560208601612735565b613dde8161275f565b840191505092915050565b6000608082019050613dfe6000830187612860565b613e0b6020830186612860565b613e186040830185612a82565b8181036060830152613e2a8184613db0565b905095945050505050565b600081519050613e448161268a565b92915050565b600060208284031215613e6057613e5f612654565b5b6000613e6e84828501613e35565b91505092915050565b7f4552433732313a206d696e7420746f20746865207a65726f2061646472657373600082015250565b6000613ead602083612724565b9150613eb882613e77565b602082019050919050565b60006020820190508181036000830152613edc81613ea0565b9050919050565b7f4552433732313a20746f6b656e20616c7265616479206d696e74656400000000600082015250565b6000613f19601c83612724565b9150613f2482613ee3565b602082019050919050565b60006020820190508181036000830152613f4881613f0c565b9050919050565b7f4e487b7100000000000000000000000000000000000000000000000000000000600052601260045260246000fdfea2646970667358221220ed823bdf6a976a379d9feeb508f20d8001a1a93a2090ca3e04a007ecc844e5d464736f6c63430008120033",
  "linkReferences": {},
  "deployedLinkReferences": {}
}