{
  "_format": "hh-sol-artifact-1",
  "contractName": "ERC721Base",
  "sourceName": "contracts/ERC721Base.sol",
  "abi": [
    {
      "anonymous": false,
      "inputs": [
        {
          "indexed": true,
          "internalType": "address",
          "name": "owner",
          "type": "address"
        },
        {
          "indexed": true,
          "internalType": "address",
          "name": "approved",
          "type": "address"
        },
        {
          "indexed": true,
          "internalType": "uint256",
          "name": "tokenId",
          "type": "uint256"
        }
      ],
      "name": "Approval",
      "type": "event"
    },
    {
      "anonymous": false,
      "inputs": [
        {
          "indexed": true,
          "internalType": "address",
          "name": "owner",
          "type": "address"
        },
        {
          "indexed": true,
          "internalType": "address",
          "name": "operator",
          "type": "address"
        },
        {
          "indexed": false,
          "internalType": "bool",
          "name": "approved",
          "type": "bool"
        }
      ],
      "name": "ApprovalForAll",
      "type": "event"
    },
    {
      "anonymous": false,
      "inputs": [
        {
          "indexed": false,
          "internalType": "uint8",
          "name": "version",
          "type": "uint8"
        }
      ],
      "name": "Initialized",
      "type": "event"
    },
    {
      "anonymous": false,
      "inputs": [
        {
          "indexed": false,
          "internalType": "address",
          "name": "owner",
          "type": "address"
        },
        {
          "indexed": false,
          "internalType": "string",
          "name": "name",
          "type": "string"
        },
        {
          "indexed": false,
          "internalType": "string",
          "name": "symbol",
          "type": "string"
        },
        {
          "indexed": false,
          "internalType": "address",
          "name": "factory",
          "type": "address"
        }
      ],
      "name": "NFTminted",
      "type": "event"
    },
    {
      "anonymous": false,
      "inputs": [
        {
          "indexed": false,
          "internalType": "string",
          "name": "name",
          "type": "string"
        },
        {
          "indexed": false,
          "internalType": "string",
          "name": "symbol",
          "type": "string"
        },
        {
          "indexed": false,
          "internalType": "address",
          "name": "owner",
          "type": "address"
        },
        {
          "indexed": false,
          "internalType": "address",
          "name": "erc721address_",
          "type": "address"
        },
        {
          "indexed": false,
          "internalType": "address",
          "name": "newERC20Address",
          "type": "address"
        },
        {
          "indexed": false,
          "internalType": "uint256",
          "name": "maxSupply_",
          "type": "uint256"
        },
        {
          "indexed": false,
          "internalType": "uint256",
          "name": "initialSupply_",
          "type": "uint256"
        }
      ],
      "name": "TokenCreated",
      "type": "event"
    },
    {
      "anonymous": false,
      "inputs": [
        {
          "indexed": true,
          "internalType": "address",
          "name": "from",
          "type": "address"
        },
        {
          "indexed": true,
          "internalType": "address",
          "name": "to",
          "type": "address"
        },
        {
          "indexed": true,
          "internalType": "uint256",
          "name": "tokenId",
          "type": "uint256"
        }
      ],
      "name": "Transfer",
      "type": "event"
    },
    {
      "stateMutability": "payable",
      "type": "fallback"
    },
    {
      "inputs": [
        {
          "internalType": "address",
          "name": "to",
          "type": "address"
        },
        {
          "internalType": "uint256",
          "name": "tokenId",
          "type": "uint256"
        }
      ],
      "name": "approve",
      "outputs": [],
      "stateMutability": "nonpayable",
      "type": "function"
    },
    {
      "inputs": [
        {
          "internalType": "address",
          "name": "owner",
          "type": "address"
        }
      ],
      "name": "balanceOf",
      "outputs": [
        {
          "internalType": "uint256",
          "name": "",
          "type": "uint256"
        }
      ],
      "stateMutability": "view",
      "type": "function"
    },
    {
      "inputs": [
        {
          "internalType": "uint256",
          "name": "tokenId",
          "type": "uint256"
        }
      ],
      "name": "burn",
      "outputs": [],
      "stateMutability": "nonpayable",
      "type": "function"
    },
    {
      "inputs": [
        {
          "internalType": "string",
          "name": "name",
          "type": "string"
        },
        {
          "internalType": "string",
          "name": "symbol",
          "type": "string"
        },
        {
          "internalType": "uint256",
          "name": "maxSupply_",
          "type": "uint256"
        }
      ],
      "name": "createDataToken",
      "outputs": [
        {
          "internalType": "address",
          "name": "erc20token",
          "type": "address"
        }
      ],
      "stateMutability": "nonpayable",
      "type": "function"
    },
    {
      "inputs": [
        {
          "internalType": "uint256",
          "name": "tokenId",
          "type": "uint256"
        }
      ],
      "name": "getApproved",
      "outputs": [
        {
          "internalType": "address",
          "name": "",
          "type": "address"
        }
      ],
      "stateMutability": "view",
      "type": "function"
    },
    {
      "inputs": [],
      "name": "getDTaddresses",
      "outputs": [
        {
          "internalType": "address[]",
          "name": "",
          "type": "address[]"
        }
      ],
      "stateMutability": "view",
      "type": "function"
    },
    {
      "inputs": [],
      "name": "getNFTowner",
      "outputs": [
        {
          "internalType": "address",
          "name": "owner",
          "type": "address"
        }
      ],
      "stateMutability": "view",
      "type": "function"
    },
    {
      "inputs": [
        {
          "internalType": "address",
          "name": "owner",
          "type": "address"
        },
        {
          "internalType": "address",
          "name": "factory",
          "type": "address"
        },
        {
          "internalType": "string",
          "name": "name_",
          "type": "string"
        },
        {
          "internalType": "string",
          "name": "symbol_",
          "type": "string"
        },
        {
          "internalType": "string",
          "name": "_tokenURI",
          "type": "string"
        },
        {
          "internalType": "string",
          "name": "asset_download_URL",
          "type": "string"
        },
        {
          "internalType": "string",
          "name": "asset_hash",
          "type": "string"
        },
        {
          "internalType": "string",
          "name": "offering_hash",
          "type": "string"
        },
        {
          "internalType": "string",
          "name": "trust_sign",
          "type": "string"
        }
      ],
      "name": "initialize",
      "outputs": [
        {
          "internalType": "bool",
          "name": "",
          "type": "bool"
        }
      ],
      "stateMutability": "nonpayable",
      "type": "function"
    },
    {
      "inputs": [
        {
          "internalType": "address",
          "name": "owner",
          "type": "address"
        },
        {
          "internalType": "address",
          "name": "operator",
          "type": "address"
        }
      ],
      "name": "isApprovedForAll",
      "outputs": [
        {
          "internalType": "bool",
          "name": "",
          "type": "bool"
        }
      ],
      "stateMutability": "view",
      "type": "function"
    },
    {
      "inputs": [],
      "name": "name",
      "outputs": [
        {
          "internalType": "string",
          "name": "",
          "type": "string"
        }
      ],
      "stateMutability": "view",
      "type": "function"
    },
    {
      "inputs": [
        {
          "internalType": "uint256",
          "name": "tokenId",
          "type": "uint256"
        }
      ],
      "name": "ownerOf",
      "outputs": [
        {
          "internalType": "address",
          "name": "",
          "type": "address"
        }
      ],
      "stateMutability": "view",
      "type": "function"
    },
    {
      "inputs": [
        {
          "internalType": "address",
          "name": "from",
          "type": "address"
        },
        {
          "internalType": "address",
          "name": "to",
          "type": "address"
        },
        {
          "internalType": "uint256",
          "name": "tokenId",
          "type": "uint256"
        }
      ],
      "name": "safeTransferFrom",
      "outputs": [],
      "stateMutability": "nonpayable",
      "type": "function"
    },
    {
      "inputs": [
        {
          "internalType": "address",
          "name": "from",
          "type": "address"
        },
        {
          "internalType": "address",
          "name": "to",
          "type": "address"
        },
        {
          "internalType": "uint256",
          "name": "tokenId",
          "type": "uint256"
        },
        {
          "internalType": "bytes",
          "name": "data",
          "type": "bytes"
        }
      ],
      "name": "safeTransferFrom",
      "outputs": [],
      "stateMutability": "nonpayable",
      "type": "function"
    },
    {
      "inputs": [
        {
          "internalType": "address",
          "name": "operator",
          "type": "address"
        },
        {
          "internalType": "bool",
          "name": "approved",
          "type": "bool"
        }
      ],
      "name": "setApprovalForAll",
      "outputs": [],
      "stateMutability": "nonpayable",
      "type": "function"
    },
    {
      "inputs": [
        {
          "internalType": "bytes4",
          "name": "interfaceId",
          "type": "bytes4"
        }
      ],
      "name": "supportsInterface",
      "outputs": [
        {
          "internalType": "bool",
          "name": "",
          "type": "bool"
        }
      ],
      "stateMutability": "view",
      "type": "function"
    },
    {
      "inputs": [],
      "name": "symbol",
      "outputs": [
        {
          "internalType": "string",
          "name": "",
          "type": "string"
        }
      ],
      "stateMutability": "view",
      "type": "function"
    },
    {
      "inputs": [
        {
          "internalType": "uint256",
          "name": "tokenId",
          "type": "uint256"
        }
      ],
      "name": "tokenURI",
      "outputs": [
        {
          "internalType": "string",
          "name": "",
          "type": "string"
        }
      ],
      "stateMutability": "view",
      "type": "function"
    },
    {
      "inputs": [
        {
          "internalType": "address",
          "name": "from",
          "type": "address"
        },
        {
          "internalType": "address",
          "name": "to",
          "type": "address"
        },
        {
          "internalType": "uint256",
          "name": "tokenId",
          "type": "uint256"
        }
      ],
      "name": "transferFrom",
      "outputs": [],
      "stateMutability": "nonpayable",
      "type": "function"
    },
    {
      "stateMutability": "payable",
      "type": "receive"
    }
  ],
  "bytecode": "0x608060405234801561001057600080fd5b50613dab806100206000396000f3fe60806040526004361061010d5760003560e01c806370a0823111610095578063b6d3a1d211610064578063b6d3a1d214610395578063b88d4fde146103c0578063bdf0ef59146103e9578063c87b56dd14610426578063e985e9c51461046357610114565b806370a08231146102c75780637cec4c7c1461030457806395d89b4114610341578063a22cb4651461036c57610114565b806323b872dd116100dc57806323b872dd146101e457806342842e0e1461020d57806342966c68146102365780635245f3bd1461025f5780636352211e1461028a57610114565b806301ffc9a71461011657806306fdde0314610153578063081812fc1461017e578063095ea7b3146101bb57610114565b3661011457005b005b34801561012257600080fd5b5061013d600480360381019061013891906124cd565b6104a0565b60405161014a9190612515565b60405180910390f35b34801561015f57600080fd5b50610168610582565b60405161017591906125c0565b60405180910390f35b34801561018a57600080fd5b506101a560048036038101906101a09190612618565b610614565b6040516101b29190612686565b60405180910390f35b3480156101c757600080fd5b506101e260048036038101906101dd91906126cd565b61065a565b005b3480156101f057600080fd5b5061020b6004803603810190610206919061270d565b610771565b005b34801561021957600080fd5b50610234600480360381019061022f919061270d565b6107d1565b005b34801561024257600080fd5b5061025d60048036038101906102589190612618565b6107f1565b005b34801561026b57600080fd5b50610274610874565b6040516102819190612686565b60405180910390f35b34801561029657600080fd5b506102b160048036038101906102ac9190612618565b610885565b6040516102be9190612686565b60405180910390f35b3480156102d357600080fd5b506102ee60048036038101906102e99190612760565b61090b565b6040516102fb919061279c565b60405180910390f35b34801561031057600080fd5b5061032b600480360381019061032691906128ec565b6109c2565b6040516103389190612515565b60405180910390f35b34801561034d57600080fd5b50610356610cb2565b60405161036391906125c0565b60405180910390f35b34801561037857600080fd5b50610393600480360381019061038e9190612aa6565b610d44565b005b3480156103a157600080fd5b506103aa610d5a565b6040516103b79190612ba4565b60405180910390f35b3480156103cc57600080fd5b506103e760048036038101906103e29190612c67565b610de8565b005b3480156103f557600080fd5b50610410600480360381019061040b9190612d4a565b610e4a565b60405161041d9190612686565b60405180910390f35b34801561043257600080fd5b5061044d60048036038101906104489190612618565b611064565b60405161045a91906125c0565b60405180910390f35b34801561046f57600080fd5b5061048a60048036038101906104859190612ddf565b611076565b6040516104979190612515565b60405180910390f35b60007f80ac58cd000000000000000000000000000000000000000000000000000000007bffffffffffffffffffffffffffffffffffffffffffffffffffffffff1916827bffffffffffffffffffffffffffffffffffffffffffffffffffffffff1916148061056b57507f5b5e139f000000000000000000000000000000000000000000000000000000007bffffffffffffffffffffffffffffffffffffffffffffffffffffffff1916827bffffffffffffffffffffffffffffffffffffffffffffffffffffffff1916145b8061057b575061057a8261110a565b5b9050919050565b60606065805461059190612e4e565b80601f01602080910402602001604051908101604052809291908181526020018280546105bd90612e4e565b801561060a5780601f106105df5761010080835404028352916020019161060a565b820191906000526020600020905b8154815290600101906020018083116105ed57829003601f168201915b5050505050905090565b600061061f82611174565b6069600083815260200190815260200160002060009054906101000a900473ffffffffffffffffffffffffffffffffffffffff169050919050565b600061066582610885565b90508073ffffffffffffffffffffffffffffffffffffffff168373ffffffffffffffffffffffffffffffffffffffff16036106d5576040517f08c379a00000000000000000000000000000000000000000000000000000000081526004016106cc90612ef1565b60405180910390fd5b8073ffffffffffffffffffffffffffffffffffffffff166106f46111bf565b73ffffffffffffffffffffffffffffffffffffffff16148061072357506107228161071d6111bf565b611076565b5b610762576040517f08c379a000000000000000000000000000000000000000000000000000000000815260040161075990612f83565b60405180910390fd5b61076c83836111c7565b505050565b61078261077c6111bf565b82611280565b6107c1576040517f08c379a00000000000000000000000000000000000000000000000000000000081526004016107b890613015565b60405180910390fd5b6107cc838383611315565b505050565b6107ec83838360405180602001604052806000815250610de8565b505050565b6107fb6001610885565b73ffffffffffffffffffffffffffffffffffffffff163373ffffffffffffffffffffffffffffffffffffffff1614610868576040517f08c379a000000000000000000000000000000000000000000000000000000000815260040161085f90613081565b60405180910390fd5b6108718161160e565b50565b60006108806001610885565b905090565b60008061089183611691565b9050600073ffffffffffffffffffffffffffffffffffffffff168173ffffffffffffffffffffffffffffffffffffffff1603610902576040517f08c379a00000000000000000000000000000000000000000000000000000000081526004016108f9906130ed565b60405180910390fd5b80915050919050565b60008073ffffffffffffffffffffffffffffffffffffffff168273ffffffffffffffffffffffffffffffffffffffff160361097b576040517f08c379a00000000000000000000000000000000000000000000000000000000081526004016109729061317f565b60405180910390fd5b606860008373ffffffffffffffffffffffffffffffffffffffff1673ffffffffffffffffffffffffffffffffffffffff168152602001908152602001600020549050919050565b600080600060019054906101000a900460ff161590508080156109f55750600160008054906101000a900460ff1660ff16105b80610a225750610a04306116ce565b158015610a215750600160008054906101000a900460ff1660ff16145b5b610a61576040517f08c379a0000000000000000000000000000000000000000000000000000000008152600401610a5890613211565b60405180910390fd5b60016000806101000a81548160ff021916908360ff1602179055508015610a9e576001600060016101000a81548160ff0219169083151502179055505b600073ffffffffffffffffffffffffffffffffffffffff168b73ffffffffffffffffffffffffffffffffffffffff1603610b0d576040517f08c379a0000000000000000000000000000000000000000000000000000000008152600401610b04906132a3565b60405180910390fd5b610b1789896116f1565b610b1f61174e565b8960c960006101000a81548173ffffffffffffffffffffffffffffffffffffffff021916908373ffffffffffffffffffffffffffffffffffffffff160217905550610b6b8b600161179f565b610b766001886117bd565b8560cb9081610b85919061346f565b5060405180606001604052808681526020018581526020018481525060cc6000820151816000019081610bb8919061346f565b506020820151816001019081610bce919061346f565b506040820151816002019081610be4919061346f565b509050507fd133d105f7b44671ec3a00c607590e7154adaafd2e0e9542b201374f293585198b8a8a60c960009054906101000a900473ffffffffffffffffffffffffffffffffffffffff16604051610c3f9493929190613541565b60405180910390a1600191508015610ca45760008060016101000a81548160ff0219169083151502179055507f7f26b83ff96e1f2b6a682f133852f6798a09c465da95921460cefb38474024986001604051610c9b91906135dc565b60405180910390a15b509998505050505050505050565b606060668054610cc190612e4e565b80601f0160208091040260200160405190810160405280929190818152602001828054610ced90612e4e565b8015610d3a5780601f10610d0f57610100808354040283529160200191610d3a565b820191906000526020600020905b815481529060010190602001808311610d1d57829003601f168201915b5050505050905090565b610d56610d4f6111bf565b838361182a565b5050565b606060ca805480602002602001604051908101604052809291908181526020018280548015610dde57602002820191906000526020600020905b8160009054906101000a900473ffffffffffffffffffffffffffffffffffffffff1673ffffffffffffffffffffffffffffffffffffffff1681526020019060010190808311610d94575b5050505050905090565b610df9610df36111bf565b83611280565b610e38576040517f08c379a0000000000000000000000000000000000000000000000000000000008152600401610e2f90613015565b60405180910390fd5b610e4484848484611996565b50505050565b6000610e566001610885565b73ffffffffffffffffffffffffffffffffffffffff163373ffffffffffffffffffffffffffffffffffffffff1614610ec3576040517f08c379a0000000000000000000000000000000000000000000000000000000008152600401610eba90613081565b60405180910390fd5b60008211610f06576040517f08c379a0000000000000000000000000000000000000000000000000000000008152600401610efd90613643565b60405180910390fd5b60c960009054906101000a900473ffffffffffffffffffffffffffffffffffffffff1673ffffffffffffffffffffffffffffffffffffffff166334cdb4cc8787878733886040518763ffffffff1660e01b8152600401610f6b96959493929190613690565b6020604051808303816000875af1158015610f8a573d6000803e3d6000fd5b505050506040513d601f19601f82011682018060405250810190610fae91906136fc565b905060ca819080600181540180825580915050600190039060005260206000200160009091909190916101000a81548173ffffffffffffffffffffffffffffffffffffffff021916908373ffffffffffffffffffffffffffffffffffffffff1602179055507f7ded605ee5eb960743663ce41947ea21cc226061bd4323712c0cfd89117c5fc68686868633308760008a60405161105399989796959493929190613764565b60405180910390a195945050505050565b606061106f826119f2565b9050919050565b6000606a60008473ffffffffffffffffffffffffffffffffffffffff1673ffffffffffffffffffffffffffffffffffffffff16815260200190815260200160002060008373ffffffffffffffffffffffffffffffffffffffff1673ffffffffffffffffffffffffffffffffffffffff16815260200190815260200160002060009054906101000a900460ff16905092915050565b60007f01ffc9a7000000000000000000000000000000000000000000000000000000007bffffffffffffffffffffffffffffffffffffffffffffffffffffffff1916827bffffffffffffffffffffffffffffffffffffffffffffffffffffffff1916149050919050565b61117d81611b04565b6111bc576040517f08c379a00000000000000000000000000000000000000000000000000000000081526004016111b3906130ed565b60405180910390fd5b50565b600033905090565b816069600083815260200190815260200160002060006101000a81548173ffffffffffffffffffffffffffffffffffffffff021916908373ffffffffffffffffffffffffffffffffffffffff160217905550808273ffffffffffffffffffffffffffffffffffffffff1661123a83610885565b73ffffffffffffffffffffffffffffffffffffffff167f8c5be1e5ebec7d5bd14f71427d1e84f3dd0314c0f7b2291e5b200ac8c7c3b92560405160405180910390a45050565b60008061128c83610885565b90508073ffffffffffffffffffffffffffffffffffffffff168473ffffffffffffffffffffffffffffffffffffffff1614806112ce57506112cd8185611076565b5b8061130c57508373ffffffffffffffffffffffffffffffffffffffff166112f484610614565b73ffffffffffffffffffffffffffffffffffffffff16145b91505092915050565b8273ffffffffffffffffffffffffffffffffffffffff1661133582610885565b73ffffffffffffffffffffffffffffffffffffffff161461138b576040517f08c379a000000000000000000000000000000000000000000000000000000000815260040161138290613857565b60405180910390fd5b600073ffffffffffffffffffffffffffffffffffffffff168273ffffffffffffffffffffffffffffffffffffffff16036113fa576040517f08c379a00000000000000000000000000000000000000000000000000000000081526004016113f1906138e9565b60405180910390fd5b6114078383836001611b45565b8273ffffffffffffffffffffffffffffffffffffffff1661142782610885565b73ffffffffffffffffffffffffffffffffffffffff161461147d576040517f08c379a000000000000000000000000000000000000000000000000000000000815260040161147490613857565b60405180910390fd5b6069600082815260200190815260200160002060006101000a81549073ffffffffffffffffffffffffffffffffffffffff02191690556001606860008573ffffffffffffffffffffffffffffffffffffffff1673ffffffffffffffffffffffffffffffffffffffff168152602001908152602001600020600082825403925050819055506001606860008473ffffffffffffffffffffffffffffffffffffffff1673ffffffffffffffffffffffffffffffffffffffff16815260200190815260200160002060008282540192505081905550816067600083815260200190815260200160002060006101000a81548173ffffffffffffffffffffffffffffffffffffffff021916908373ffffffffffffffffffffffffffffffffffffffff160217905550808273ffffffffffffffffffffffffffffffffffffffff168473ffffffffffffffffffffffffffffffffffffffff167fddf252ad1be2c89b69c2b068fc378daa952ba7f163c4a11628f55a4df523b3ef60405160405180910390a46116098383836001611b4b565b505050565b6116186001610885565b73ffffffffffffffffffffffffffffffffffffffff163373ffffffffffffffffffffffffffffffffffffffff1614611685576040517f08c379a000000000000000000000000000000000000000000000000000000000815260040161167c90613081565b60405180910390fd5b61168e81611b51565b50565b60006067600083815260200190815260200160002060009054906101000a900473ffffffffffffffffffffffffffffffffffffffff169050919050565b6000808273ffffffffffffffffffffffffffffffffffffffff163b119050919050565b600060019054906101000a900460ff16611740576040517f08c379a00000000000000000000000000000000000000000000000000000000081526004016117379061397b565b60405180910390fd5b61174a8282611ba4565b5050565b600060019054906101000a900460ff1661179d576040517f08c379a00000000000000000000000000000000000000000000000000000000081526004016117949061397b565b60405180910390fd5b565b6117b9828260405180602001604052806000815250611c17565b5050565b6117c682611b04565b611805576040517f08c379a00000000000000000000000000000000000000000000000000000000081526004016117fc90613a0d565b60405180910390fd5b80609760008481526020019081526020016000209081611825919061346f565b505050565b8173ffffffffffffffffffffffffffffffffffffffff168373ffffffffffffffffffffffffffffffffffffffff1603611898576040517f08c379a000000000000000000000000000000000000000000000000000000000815260040161188f90613a79565b60405180910390fd5b80606a60008573ffffffffffffffffffffffffffffffffffffffff1673ffffffffffffffffffffffffffffffffffffffff16815260200190815260200160002060008473ffffffffffffffffffffffffffffffffffffffff1673ffffffffffffffffffffffffffffffffffffffff16815260200190815260200160002060006101000a81548160ff0219169083151502179055508173ffffffffffffffffffffffffffffffffffffffff168373ffffffffffffffffffffffffffffffffffffffff167f17307eab39ab6107e8899845ad3d59bd9653f200f220920489ca2b5937696c31836040516119899190612515565b60405180910390a3505050565b6119a1848484611315565b6119ad84848484611c72565b6119ec576040517f08c379a00000000000000000000000000000000000000000000000000000000081526004016119e390613b0b565b60405180910390fd5b50505050565b60606119fd82611174565b6000609760008481526020019081526020016000208054611a1d90612e4e565b80601f0160208091040260200160405190810160405280929190818152602001828054611a4990612e4e565b8015611a965780601f10611a6b57610100808354040283529160200191611a96565b820191906000526020600020905b815481529060010190602001808311611a7957829003601f168201915b505050505090506000611aa7611df9565b90506000815103611abc578192505050611aff565b600082511115611af1578082604051602001611ad9929190613b67565b60405160208183030381529060405292505050611aff565b611afa84611e10565b925050505b919050565b60008073ffffffffffffffffffffffffffffffffffffffff16611b2683611691565b73ffffffffffffffffffffffffffffffffffffffff1614159050919050565b50505050565b50505050565b611b5a81611e78565b6000609760008381526020019081526020016000208054611b7a90612e4e565b905014611ba157609760008281526020019081526020016000206000611ba09190612404565b5b50565b600060019054906101000a900460ff16611bf3576040517f08c379a0000000000000000000000000000000000000000000000000000000008152600401611bea9061397b565b60405180910390fd5b8160659081611c02919061346f565b508060669081611c12919061346f565b505050565b611c218383611fc6565b611c2e6000848484611c72565b611c6d576040517f08c379a0000000000000000000000000000000000000000000000000000000008152600401611c6490613b0b565b60405180910390fd5b505050565b6000611c938473ffffffffffffffffffffffffffffffffffffffff166116ce565b15611dec578373ffffffffffffffffffffffffffffffffffffffff1663150b7a02611cbc6111bf565b8786866040518563ffffffff1660e01b8152600401611cde9493929190613be0565b6020604051808303816000875af1925050508015611d1a57506040513d601f19601f82011682018060405250810190611d179190613c41565b60015b611d9c573d8060008114611d4a576040519150601f19603f3d011682016040523d82523d6000602084013e611d4f565b606091505b506000815103611d94576040517f08c379a0000000000000000000000000000000000000000000000000000000008152600401611d8b90613b0b565b60405180910390fd5b805181602001fd5b63150b7a0260e01b7bffffffffffffffffffffffffffffffffffffffffffffffffffffffff1916817bffffffffffffffffffffffffffffffffffffffffffffffffffffffff191614915050611df1565b600190505b949350505050565b606060405180602001604052806000815250905090565b6060611e1b82611174565b6000611e25611df9565b90506000815111611e455760405180602001604052806000815250611e70565b80611e4f846121e3565b604051602001611e60929190613b67565b6040516020818303038152906040525b915050919050565b6000611e8382610885565b9050611e93816000846001611b45565b611e9c82610885565b90506069600083815260200190815260200160002060006101000a81549073ffffffffffffffffffffffffffffffffffffffff02191690556001606860008373ffffffffffffffffffffffffffffffffffffffff1673ffffffffffffffffffffffffffffffffffffffff168152602001908152602001600020600082825403925050819055506067600083815260200190815260200160002060006101000a81549073ffffffffffffffffffffffffffffffffffffffff021916905581600073ffffffffffffffffffffffffffffffffffffffff168273ffffffffffffffffffffffffffffffffffffffff167fddf252ad1be2c89b69c2b068fc378daa952ba7f163c4a11628f55a4df523b3ef60405160405180910390a4611fc2816000846001611b4b565b5050565b600073ffffffffffffffffffffffffffffffffffffffff168273ffffffffffffffffffffffffffffffffffffffff1603612035576040517f08c379a000000000000000000000000000000000000000000000000000000000815260040161202c90613cba565b60405180910390fd5b61203e81611b04565b1561207e576040517f08c379a000000000000000000000000000000000000000000000000000000000815260040161207590613d26565b60405180910390fd5b61208c600083836001611b45565b61209581611b04565b156120d5576040517f08c379a00000000000000000000000000000000000000000000000000000000081526004016120cc90613d26565b60405180910390fd5b6001606860008473ffffffffffffffffffffffffffffffffffffffff1673ffffffffffffffffffffffffffffffffffffffff16815260200190815260200160002060008282540192505081905550816067600083815260200190815260200160002060006101000a81548173ffffffffffffffffffffffffffffffffffffffff021916908373ffffffffffffffffffffffffffffffffffffffff160217905550808273ffffffffffffffffffffffffffffffffffffffff16600073ffffffffffffffffffffffffffffffffffffffff167fddf252ad1be2c89b69c2b068fc378daa952ba7f163c4a11628f55a4df523b3ef60405160405180910390a46121df600083836001611b4b565b5050565b6060600060016121f2846122b1565b01905060008167ffffffffffffffff811115612211576122106127c1565b5b6040519080825280601f01601f1916602001820160405280156122435781602001600182028036833780820191505090505b509050600082602001820190505b6001156122a6578080600190039150507f3031323334353637383961626364656600000000000000000000000000000000600a86061a8153600a858161229a57612299613d46565b5b04945060008503612251575b819350505050919050565b600080600090507a184f03e93ff9f4daa797ed6e38ed64bf6a1f010000000000000000831061230f577a184f03e93ff9f4daa797ed6e38ed64bf6a1f010000000000000000838161230557612304613d46565b5b0492506040810190505b6d04ee2d6d415b85acef8100000000831061234c576d04ee2d6d415b85acef8100000000838161234257612341613d46565b5b0492506020810190505b662386f26fc10000831061237b57662386f26fc10000838161237157612370613d46565b5b0492506010810190505b6305f5e10083106123a4576305f5e100838161239a57612399613d46565b5b0492506008810190505b61271083106123c95761271083816123bf576123be613d46565b5b0492506004810190505b606483106123ec57606483816123e2576123e1613d46565b5b0492506002810190505b600a83106123fb576001810190505b80915050919050565b50805461241090612e4e565b6000825580601f106124225750612441565b601f0160209004906000526020600020908101906124409190612444565b5b50565b5b8082111561245d576000816000905550600101612445565b5090565b6000604051905090565b600080fd5b600080fd5b60007fffffffff0000000000000000000000000000000000000000000000000000000082169050919050565b6124aa81612475565b81146124b557600080fd5b50565b6000813590506124c7816124a1565b92915050565b6000602082840312156124e3576124e261246b565b5b60006124f1848285016124b8565b91505092915050565b60008115159050919050565b61250f816124fa565b82525050565b600060208201905061252a6000830184612506565b92915050565b600081519050919050565b600082825260208201905092915050565b60005b8381101561256a57808201518184015260208101905061254f565b60008484015250505050565b6000601f19601f8301169050919050565b600061259282612530565b61259c818561253b565b93506125ac81856020860161254c565b6125b581612576565b840191505092915050565b600060208201905081810360008301526125da8184612587565b905092915050565b6000819050919050565b6125f5816125e2565b811461260057600080fd5b50565b600081359050612612816125ec565b92915050565b60006020828403121561262e5761262d61246b565b5b600061263c84828501612603565b91505092915050565b600073ffffffffffffffffffffffffffffffffffffffff82169050919050565b600061267082612645565b9050919050565b61268081612665565b82525050565b600060208201905061269b6000830184612677565b92915050565b6126aa81612665565b81146126b557600080fd5b50565b6000813590506126c7816126a1565b92915050565b600080604083850312156126e4576126e361246b565b5b60006126f2858286016126b8565b925050602061270385828601612603565b9150509250929050565b6000806000606084860312156127265761272561246b565b5b6000612734868287016126b8565b9350506020612745868287016126b8565b925050604061275686828701612603565b9150509250925092565b6000602082840312156127765761277561246b565b5b6000612784848285016126b8565b91505092915050565b612796816125e2565b82525050565b60006020820190506127b1600083018461278d565b92915050565b600080fd5b600080fd5b7f4e487b7100000000000000000000000000000000000000000000000000000000600052604160045260246000fd5b6127f982612576565b810181811067ffffffffffffffff82111715612818576128176127c1565b5b80604052505050565b600061282b612461565b905061283782826127f0565b919050565b600067ffffffffffffffff821115612857576128566127c1565b5b61286082612576565b9050602081019050919050565b82818337600083830152505050565b600061288f61288a8461283c565b612821565b9050828152602081018484840111156128ab576128aa6127bc565b5b6128b684828561286d565b509392505050565b600082601f8301126128d3576128d26127b7565b5b81356128e384826020860161287c565b91505092915050565b60008060008060008060008060006101208a8c03121561290f5761290e61246b565b5b600061291d8c828d016126b8565b995050602061292e8c828d016126b8565b98505060408a013567ffffffffffffffff81111561294f5761294e612470565b5b61295b8c828d016128be565b97505060608a013567ffffffffffffffff81111561297c5761297b612470565b5b6129888c828d016128be565b96505060808a013567ffffffffffffffff8111156129a9576129a8612470565b5b6129b58c828d016128be565b95505060a08a013567ffffffffffffffff8111156129d6576129d5612470565b5b6129e28c828d016128be565b94505060c08a013567ffffffffffffffff811115612a0357612a02612470565b5b612a0f8c828d016128be565b93505060e08a013567ffffffffffffffff811115612a3057612a2f612470565b5b612a3c8c828d016128be565b9250506101008a013567ffffffffffffffff811115612a5e57612a5d612470565b5b612a6a8c828d016128be565b9150509295985092959850929598565b612a83816124fa565b8114612a8e57600080fd5b50565b600081359050612aa081612a7a565b92915050565b60008060408385031215612abd57612abc61246b565b5b6000612acb858286016126b8565b9250506020612adc85828601612a91565b9150509250929050565b600081519050919050565b600082825260208201905092915050565b6000819050602082019050919050565b612b1b81612665565b82525050565b6000612b2d8383612b12565b60208301905092915050565b6000602082019050919050565b6000612b5182612ae6565b612b5b8185612af1565b9350612b6683612b02565b8060005b83811015612b97578151612b7e8882612b21565b9750612b8983612b39565b925050600181019050612b6a565b5085935050505092915050565b60006020820190508181036000830152612bbe8184612b46565b905092915050565b600067ffffffffffffffff821115612be157612be06127c1565b5b612bea82612576565b9050602081019050919050565b6000612c0a612c0584612bc6565b612821565b905082815260208101848484011115612c2657612c256127bc565b5b612c3184828561286d565b509392505050565b600082601f830112612c4e57612c4d6127b7565b5b8135612c5e848260208601612bf7565b91505092915050565b60008060008060808587031215612c8157612c8061246b565b5b6000612c8f878288016126b8565b9450506020612ca0878288016126b8565b9350506040612cb187828801612603565b925050606085013567ffffffffffffffff811115612cd257612cd1612470565b5b612cde87828801612c39565b91505092959194509250565b600080fd5b600080fd5b60008083601f840112612d0a57612d096127b7565b5b8235905067ffffffffffffffff811115612d2757612d26612cea565b5b602083019150836001820283011115612d4357612d42612cef565b5b9250929050565b600080600080600060608688031215612d6657612d6561246b565b5b600086013567ffffffffffffffff811115612d8457612d83612470565b5b612d9088828901612cf4565b9550955050602086013567ffffffffffffffff811115612db357612db2612470565b5b612dbf88828901612cf4565b93509350506040612dd288828901612603565b9150509295509295909350565b60008060408385031215612df657612df561246b565b5b6000612e04858286016126b8565b9250506020612e15858286016126b8565b9150509250929050565b7f4e487b7100000000000000000000000000000000000000000000000000000000600052602260045260246000fd5b60006002820490506001821680612e6657607f821691505b602082108103612e7957612e78612e1f565b5b50919050565b7f4552433732313a20617070726f76616c20746f2063757272656e74206f776e6560008201527f7200000000000000000000000000000000000000000000000000000000000000602082015250565b6000612edb60218361253b565b9150612ee682612e7f565b604082019050919050565b60006020820190508181036000830152612f0a81612ece565b9050919050565b7f4552433732313a20617070726f76652063616c6c6572206973206e6f7420746f60008201527f6b656e206f776e6572206f7220617070726f76656420666f7220616c6c000000602082015250565b6000612f6d603d8361253b565b9150612f7882612f11565b604082019050919050565b60006020820190508181036000830152612f9c81612f60565b9050919050565b7f4552433732313a2063616c6c6572206973206e6f7420746f6b656e206f776e6560008201527f72206f7220617070726f76656400000000000000000000000000000000000000602082015250565b6000612fff602d8361253b565b915061300a82612fa3565b604082019050919050565b6000602082019050818103600083015261302e81612ff2565b9050919050565b7f4e6f7420746865204e4654206f776e6572210000000000000000000000000000600082015250565b600061306b60128361253b565b915061307682613035565b602082019050919050565b6000602082019050818103600083015261309a8161305e565b9050919050565b7f4552433732313a20696e76616c696420746f6b656e2049440000000000000000600082015250565b60006130d760188361253b565b91506130e2826130a1565b602082019050919050565b60006020820190508181036000830152613106816130ca565b9050919050565b7f4552433732313a2061646472657373207a65726f206973206e6f74206120766160008201527f6c6964206f776e65720000000000000000000000000000000000000000000000602082015250565b600061316960298361253b565b91506131748261310d565b604082019050919050565b600060208201905081810360008301526131988161315c565b9050919050565b7f496e697469616c697a61626c653a20636f6e747261637420697320616c72656160008201527f647920696e697469616c697a6564000000000000000000000000000000000000602082015250565b60006131fb602e8361253b565b91506132068261319f565b604082019050919050565b6000602082019050818103600083015261322a816131ee565b9050919050565b7f496e76616c6964204e4654206f776e65723a207a65726f20616464726573732060008201527f6e6f742076616c69642100000000000000000000000000000000000000000000602082015250565b600061328d602a8361253b565b915061329882613231565b604082019050919050565b600060208201905081810360008301526132bc81613280565b9050919050565b60008190508160005260206000209050919050565b60006020601f8301049050919050565b600082821b905092915050565b6000600883026133257fffffffffffffffffffffffffffffffffffffffffffffffffffffffffffffffff826132e8565b61332f86836132e8565b95508019841693508086168417925050509392505050565b6000819050919050565b600061336c613367613362846125e2565b613347565b6125e2565b9050919050565b6000819050919050565b61338683613351565b61339a61339282613373565b8484546132f5565b825550505050565b600090565b6133af6133a2565b6133ba81848461337d565b505050565b5b818110156133de576133d36000826133a7565b6001810190506133c0565b5050565b601f821115613423576133f4816132c3565b6133fd846132d8565b8101602085101561340c578190505b613420613418856132d8565b8301826133bf565b50505b505050565b600082821c905092915050565b600061344660001984600802613428565b1980831691505092915050565b600061345f8383613435565b9150826002028217905092915050565b61347882612530565b67ffffffffffffffff811115613491576134906127c1565b5b61349b8254612e4e565b6134a68282856133e2565b600060209050601f8311600181146134d957600084156134c7578287015190505b6134d18582613453565b865550613539565b601f1984166134e7866132c3565b60005b8281101561350f578489015182556001820191506020850194506020810190506134ea565b8683101561352c5784890151613528601f891682613435565b8355505b6001600288020188555050505b505050505050565b60006080820190506135566000830187612677565b81810360208301526135688186612587565b9050818103604083015261357c8185612587565b905061358b6060830184612677565b95945050505050565b6000819050919050565b600060ff82169050919050565b60006135c66135c16135bc84613594565b613347565b61359e565b9050919050565b6135d6816135ab565b82525050565b60006020820190506135f160008301846135cd565b92915050565b7f43617020616e6420696e697469616c20737570706c79206e6f742076616c6964600082015250565b600061362d60208361253b565b9150613638826135f7565b602082019050919050565b6000602082019050818103600083015261365c81613620565b9050919050565b600061366f838561253b565b935061367c83858461286d565b61368583612576565b840190509392505050565b600060808201905081810360008301526136ab81888a613663565b905081810360208301526136c0818688613663565b90506136cf6040830185612677565b6136dc606083018461278d565b979650505050505050565b6000815190506136f6816126a1565b92915050565b6000602082840312156137125761371161246b565b5b6000613720848285016136e7565b91505092915050565b6000819050919050565b600061374e61374961374484613729565b613347565b6125e2565b9050919050565b61375e81613733565b82525050565b600060e082019050818103600083015261377f818b8d613663565b9050818103602083015261379481898b613663565b90506137a36040830188612677565b6137b06060830187612677565b6137bd6080830186612677565b6137ca60a0830185613755565b6137d760c083018461278d565b9a9950505050505050505050565b7f4552433732313a207472616e736665722066726f6d20696e636f72726563742060008201527f6f776e6572000000000000000000000000000000000000000000000000000000602082015250565b600061384160258361253b565b915061384c826137e5565b604082019050919050565b6000602082019050818103600083015261387081613834565b9050919050565b7f4552433732313a207472616e7366657220746f20746865207a65726f2061646460008201527f7265737300000000000000000000000000000000000000000000000000000000602082015250565b60006138d360248361253b565b91506138de82613877565b604082019050919050565b60006020820190508181036000830152613902816138c6565b9050919050565b7f496e697469616c697a61626c653a20636f6e7472616374206973206e6f74206960008201527f6e697469616c697a696e67000000000000000000000000000000000000000000602082015250565b6000613965602b8361253b565b915061397082613909565b604082019050919050565b6000602082019050818103600083015261399481613958565b9050919050565b7f45524337323155524953746f726167653a2055524920736574206f66206e6f6e60008201527f6578697374656e7420746f6b656e000000000000000000000000000000000000602082015250565b60006139f7602e8361253b565b9150613a028261399b565b604082019050919050565b60006020820190508181036000830152613a26816139ea565b9050919050565b7f4552433732313a20617070726f766520746f2063616c6c657200000000000000600082015250565b6000613a6360198361253b565b9150613a6e82613a2d565b602082019050919050565b60006020820190508181036000830152613a9281613a56565b9050919050565b7f4552433732313a207472616e7366657220746f206e6f6e20455243373231526560008201527f63656976657220696d706c656d656e7465720000000000000000000000000000602082015250565b6000613af560328361253b565b9150613b0082613a99565b604082019050919050565b60006020820190508181036000830152613b2481613ae8565b9050919050565b600081905092915050565b6000613b4182612530565b613b4b8185613b2b565b9350613b5b81856020860161254c565b80840191505092915050565b6000613b738285613b36565b9150613b7f8284613b36565b91508190509392505050565b600081519050919050565b600082825260208201905092915050565b6000613bb282613b8b565b613bbc8185613b96565b9350613bcc81856020860161254c565b613bd581612576565b840191505092915050565b6000608082019050613bf56000830187612677565b613c026020830186612677565b613c0f604083018561278d565b8181036060830152613c218184613ba7565b905095945050505050565b600081519050613c3b816124a1565b92915050565b600060208284031215613c5757613c5661246b565b5b6000613c6584828501613c2c565b91505092915050565b7f4552433732313a206d696e7420746f20746865207a65726f2061646472657373600082015250565b6000613ca460208361253b565b9150613caf82613c6e565b602082019050919050565b60006020820190508181036000830152613cd381613c97565b9050919050565b7f4552433732313a20746f6b656e20616c7265616479206d696e74656400000000600082015250565b6000613d10601c8361253b565b9150613d1b82613cda565b602082019050919050565b60006020820190508181036000830152613d3f81613d03565b9050919050565b7f4e487b7100000000000000000000000000000000000000000000000000000000600052601260045260246000fdfea2646970667358221220a4ab34965cfdc2700fab9098598aedfe0aa18baecdee35a933a3dcb2e1696d0b64736f6c63430008120033",
  "linkReferences": {},
  "deployedLinkReferences": {}
}